:040000002BEF16F0DC
:08000800046ED8CF05F0E0CF33
:1000100006F00001E9CF0CF0EACF07F0E1CF08F0DD
:10002000E2CF09F0D9CF0AF0DACF0BF0F3CF12F01C
:10003000F4CF13F0FACF14F000C00EF001C00FF0AF
:1000400002C010F003C011F09DAA2AEF00F09EBA82
:1000500056EF00F00EC000F00FC001F010C002F02B
:1000600011C003F00CC0E9FF07C0EAFF078E08C00B
:10007000E1FF09C0E2FF0AC0D9FF0BC0DAFF12C0DE
:10008000F3FF13C0F4FF14C0FAFF045006C0E0FFF2
:1000900005C0D8FF10009EAAFED7ABCF16F0AECF9A
:1000A00001F016A202D0AB98AB881200010E426E8E
:1000B000336A9EAA1DD0415026081AE2FF0A03E1C6
:1000C0004050100815E2646A64500A080AE1036AA5
:1000D0006450330FE96E000E0320EA6EEF6A642A63
:1000E000F3D73E6A010E3F6E426A416A406A31D0E0
:1000F0009EAA2FD0415027082CE303E140500F085F
:1001000028E3C9DF01C032F0036A3F50330FE96EC4
:10011000000E0320EA6E32C0EFFF3F2A416A406AB8
:100120003F50060816E1036A3F50330FE96E000E98
:100130000320EA6EEF6A010E3E6E3F6E426A3F5048
:10014000060807E23F50060804E2A5DF01C03DF0C3
:10015000F9D79E9A2AEF00F0179080B21780179275
:1001600080B41782179480B61784120017A080926B
:1001700017B0808217A2809417B2808417A480964B
:1001800017B480861200E8DF80928094808600D0C9
:1001900000D00000EBDF1200818E00D000D0000004
:1001A000819E1200650E816EEEDF5D0E816EEBDFCB
:1001B0004C0E816EE8DF600E816EEEDF510E816EB7
:1001C000EBDF4E0E816EE8DF50EF16F0F250006E5E
:1001D000F29E59C0A9FF20C0A8FFA69CA69EA68497
:1001E0000F01550EA76EAA0EA76EA682A6B2FED765
:1001F000A6940050F212010E59245A6EF2CF00F06C
:10020000F29EA96E1FC0A8FFA69CA69EA684550EAE
:10021000A76EAA0EA76EA682A6B2FED7A69400501D
:10022000F212020E59245A6EF2CF00F0F29EA96E1D
:100230001EC0A8FFA69CA69EA684550EA76EAA0E59
:10024000A76EA682A6B2FED7A6940050F212030EA5
:1002500059245A6EF2CF00F0F29EA96E1DC0A8FF7D
:10026000A69CA69EA684550EA76EAA0EA76EA68271
:10027000A6B2FED7A6940050F212040E59245A6E6C
:10028000F2CF00F0F29EA96E1CC0A8FFA69CA69E0D
:10029000A684550EA76EAA0EA76EA682A6B2FED79A
:1002A000A6940050F212050E59245A6EF2CF00F0B7
:1002B000F29EA96E1BC0A8FFA69CA69EA684550E02
:1002C000A76EAA0EA76EA682A6B2FED7A69400506D
:1002D000F21200011200F2CF46F0F29EA968A69C2D
:1002E000A69EA680A85046BEF28E000A01E151D11A
:1002F0001B6A1C6A1D6A1E6A1F6A070E206E596AF5
:1003000065DF080E596E62DF700E596E5FDF780E82
:10031000596E5CDF800E596E59DF880E596E56DFBC
:10032000900E596E53DF980E596E50DFA00E596E25
:100330004DDFA80E596E4ADFB00E596E47DFB80E7A
:10034000596E44DF206A050E1F6E200E596E3EDF87
:10035000010E206E080E1F6E280E596E37DF030E39
:10036000206E050E1F6E300E596E30DF070E206EA8
:100370001F6A380E596E2ADF0A0E206E010E1F6E9C
:10038000400E596E23DF0E0E206E1F6A480E596E06
:100390001DDF120E206E1F6A500E596E17DF150EEC
:1003A000206E1F6A580E596E11DF180E206E1F6ADC
:1003B000600E596E0BDF1C0E206E1F6A680E596EA0
:1003C00005DFF250006EF29EC00EA96EA86AA69CD0
:1003D000A69EA6840F01550EA76EAA0EA76EA68232
:1003E000A6B2FED7A6940050F212F2CF00F0F29E11
:1003F000C10EA96EA86AA69CA69EA684550EA76EDD
:10040000AA0EA76EA682A6B2FED7A6940050F2123C
:10041000F2CF00F0F29EC20EA96EA86AA69CA69E1C
:10042000A684550EA76EAA0EA76EA682A6B2FED708
:10043000A6940050F212F2CF00F0F29EC30EA96E05
:10044000130EA86EA69CA69EA684550EA76EAA0E95
:10045000A76EA682A6B2FED7A6940050F212F2CFE3
:1004600000F0F29EC40EA96E010EA86EA69CA69E78
:10047000A684550EA76EAA0EA76EA682A6B2FED7B8
:10048000A6940050F212F2CF00F0F29EC50EA96EB3
:10049000A86AA69CA69EA684550EA76EAA0EA76E55
:1004A000A682A6B2FED7A6940050F212F2CF00F0B8
:1004B000F29EC60EA96EA86AA69CA69EA684550E9C
:1004C000A76EAA0EA76EA682A6B2FED7A69400506B
:1004D000F212F2CF00F0F29EC70EA96EA86AA69C97
:1004E000A69EA684550EA76EAA0EA76EA682A6B2D9
:1004F000FED7A6940050F212F2CF00F0F29EC80E82
:10050000A96E020EA86EA69CA69EA684550EA76E86
:10051000AA0EA76EA682A6B2FED7A6940050F2122B
:10052000F2CF00F0F29EC90EA96E030EA86EA69C33
:10053000A69EA684550EA76EAA0EA76EA682A6B288
:10054000FED7A6940050F212F2CF00F0F29ECA0E2F
:10055000A96EA86AA69CA69EA684550EA76EAA0E92
:10056000A76EA682A6B2FED7A6940050F212F2CFD2
:1005700000F0F29EA968A86AA69CA69EA684550EC5
:10058000A76EAA0EA76EA682A6B2FED7A6940050AA
:10059000F212000152EF16F0F2CF57F0F29E56C061
:1005A000A9FFA69CA69EA680A85057BEF28E206EDC
:1005B000010E5624576EF2CF58F0F29E57C0A9FF95
:1005C000A69CA69EA680A85058BEF28E1F6E020E54
:1005D0005624576EF2CF58F0F29E57C0A9FFA69C42
:1005E000A69EA680A85058BEF28E1E6E030E5624FC
:1005F000576EF2CF58F0F29E57C0A9FFA69CA69E58
:10060000A680A85058BEF28E1D6E040E5624576E5A
:10061000F2CF58F0F29E57C0A9FFA69CA69EA680D6
:10062000A85058BEF28E1C6E050E5624576EF2CF9F
:1006300058F0F29E57C0A9FFA69CA69EA680A8507F
:1006400058BEF28E1B6E1200700E1C24816E62501A
:10065000020805E1000E17BC010E016E2BD0622CC2
:1006600007D0178C809480868082010E016E22D084
:10067000625206E1179C80928096000E016E1AD09D
:10068000000E17BC010E636EF250006EF29EC50E96
:10069000A96E63C0A8FFA69CA69EA6840F01550E56
:1006A000A76EAA0EA76EA682A6B2FED7A694005089
:1006B000F2120001120050DD809280848086100EBC
:1006C000006E002EFED7000051DDEBEF03F024C0DA
:1006D00026F00A0E246E246E205205E0202C04D051
:1006E0001F50040801E3246A24500A080BE120503B
:1006F000010806E22050020805E11F50040802E349
:10070000010E246E24500A0805E12050030802E37C
:10071000020E246E24500A080BE12050060806E25F
:100720002050070805E11F50040802E3030E246E61
:1007300024500A080BE12050090806E220500A085C
:1007400005E11F50040802E3040E246E24500A0839
:100750000BE120500D0806E220500E0805E11F5065
:10076000040802E3050E246E24500A080BE1205011
:10077000110806E22050120805E11F50040802E3A8
:10078000060E246E24500A080BE12050140806E2DD
:100790002050150805E11F50040802E3070E246EDF
:1007A00024500A0805E12050180802E3080E246EC0
:1007B00024500A0805E12050180802E2090E246EB0
:1007C00024500A0802E1090E246E2650245C03E03E
:1007D00024C081FF70D717EF04F05DC081FF8FEF59
:1007E00004F0586A199817BC1988010E626E2CDF44
:1007F000205209E11F5207E1010E1F6E1C6A1CC046
:100800001DF01DC01EF020501E0806E320501E08DB
:100810000DE11F5004080AE21E0E206E040E1F6E2A
:10082000090E1C6E1CC01DF01DC01EF050D71F50BD
:10083000040803E2050E1F5C01D01F50596E1E50C4
:100840000A0DF3501D245A6E300E816E9CDC020E90
:100850005B6E5950040809E15A503F0806E2040E45
:100860005B6E595E400E5A5E16D05950020803E185
:100870005A50070803E3595002080DE2030E5B6E5D
:10088000020E595E5A50070803E35C0E5A2402D048
:10089000080E5A5C5A6E200E5B24816E74DC5B502D
:1008A000020802E1300E5A265950640DF3505A24C2
:1008B0005C6E5C38006E0F0E00160050100F816EDB
:1008C00062DC5C500F0B816E5EDC2450050808E290
:1008D0000E0E205C5B6ED8905B340A0F5C6E04D009
:1008E000D89020340C0F5C6E1F50040802E2010EF9
:1008F0005C26300E816E50DC200E816E4DDC5C3843
:10090000006E0F0E00160050030B100F816E44DCBA
:100910005C500F0B816E40DC1CC05DF05ED7000E9A
:1009200019B8010E5D6E626E8FDE010E586E58C0F2
:1009300001F01200562C50D01B0E206E55500A08A4
:1009400003E3060E1F6E1AD055500A0806E25550F2
:10095000140803E3070E1F6E11D05550140806E269
:1009600055501E0803E3080E1F6E08D055501E0890
:1009700005E25550280802E3090E1F6E55500A087B
:1009800004E3010E555C576E20D055500A0808E26A
:100990005550140805E3010E555CF60F576E15D03F
:1009A0005550140808E255501E0805E3010E555C29
:1009B000EC0F576E0AD055501E0807E25550280814
:1009C00004E3010E555CE20F576E57C01EF0010E96
:1009D0001D6E020E1C6EB0D056500208D8A4ACD0CA
:1009E0005550030805E31A0E206E090E1F6E32D013
:1009F0005550030807E255500B0804E31B0E206E08
:100A00001F6A28D055500B0808E25550130805E31B
:100A10001B0E206E010E1F6E1DD05550130808E2EC
:100A200055501D0805E31B0E206E020E1F6E12D0DE
:100A300055501D0808E25550270805E31B0E206E8F
:100A4000030E1F6E07D05550280804E11B0E206EC0
:100A5000040E1F6E552C03D0060E1E6E6AD0555024
:100A6000020803E1070E1E6E64D05550030803E12F
:100A7000080E1E6E5ED05550030807E25550070859
:100A800004E3040E555C1E6E54D05550070807E26F
:100A900055500B0804E3030E555C1E6E4AD05550AA
:100AA0000B0807E255500F0804E30C0E555C1E6E50
:100AB00040D055500F0807E25550130804E30B0EC1
:100AC000555C1E6E36D05550130807E25550160877
:100AD00004E3140E555C1E6E2CD05550170803E12C
:100AE000050E1E6E26D05550180803E1030E1E6E2B
:100AF00020D05550190803E1040E1E6E1AD055502F
:100B0000190807E255501D0804E3140E555C1E6ECB
:100B100010D055501D0807E25550270804E31E0E5B
:100B2000555C1E6E06D05550280803E1280E555C12
:100B30001E6E050E1D6E1C6A000E18B0010E080D0B
:100B4000F3CF58F058C059F0E6EC00F04ADE12003E
:100B5000F2CF46F0F29EC00EA96EA69CA69EA6807D
:100B6000A85046BEF28E2A6E2A5229E1F2CF46F0F4
:100B7000F29EC10EA96EA69CA69EA680A85046BE57
:100B8000F28E016E189001B01880F2CF46F0F29EFE
:100B9000CA0EA96EA69CA69EA680A85046BEF28E3E
:100BA000016E199001B0198018B002D0566AF4DCB9
:100BB00018A003D0080E566EEFDC13DE37D02A2CB7
:100BC00015D0F2CF46F0F29EC20EA96EA69CA69E4C
:100BD000A680A85046BEF28E276E2750080DF3500F
:100BE000700F466E566ED8DCFCDD20D02A5002080D
:100BF0001DE1F2CF46F0F29EC30EA96EA69CA69E02
:100C0000A680A85046BEF28E306EF2CF46F0F29E1D
:100C1000C80EA96EA69CA69EA680A85046BEF28EBF
:100C2000316E30C055F031C056F084DEF2CF46F060
:100C3000F29EC00EA96EA69CA69EA680A85046BE97
:100C4000F28E016E199C01B0198C19AC2ED0F2CF26
:100C500046F0F29EC50EA96EA69CA69EA680A85040
:100C600046BEF28E476E47C062F0EEDCF2CF46F031
:100C7000F29EC60EA96EA69CA69EA680A85046BE51
:100C8000F28E016E189C01B0188CF2CF46F0F29EE5
:100C9000C70EA96EA69CA69EA680A85046BEF28E40
:100CA000016E189801B0188804D0626ACDDC189CD7
:100CB00018982C6A54EF16F0030E635E09E3EA6A93
:100CC000630EE96EEF5004E001D000D0EF2EFDD7A7
:100CD0008FEF06F0809A849084928494809861507B
:100CE000010B010801E184846150020B020801E15B
:100CF00084826150040B040801E184806150080B78
:100D0000080801E1808A8088310E006E002EFED72F
:100D100000D08098020E626EB80E636ECDD7622E40
:100D2000FBD7809A849084928494120082A4FED788
:100D30000A0E616ECFDF616ACDDF0F0E616ECADF12
:100D40000F0E616EC7DF0F0E616EC4DF0F0E616E96
:100D5000C1DF0F0E616EBEDF0F0E616EBBDF0F0EC7
:100D6000616EB8DF0F0E616EB5DF0F0E616EB2DF20
:100D70000F0E616EAFDF0F0E616EACDF82B4FED777
:100D800056EF16F0EA6A620EE96EEF500DE0060EBD
:100D9000016E006A002EFED7012EFBD77B0E006E7F
:100DA000002EFED7EF2EF3D71200ACEC00F08082BD
:100DB00080948096640E626EE5DFB6EC00F012005F
:100DC000546A020E626E40DC199801B01988010E57
:100DD000626E3ADC5A6A5B6A5C6A5D6A5E6A556A90
:100DE000566A576A586A596A2A5205E02A2C01D075
:100DF00002D02C525AE020C05AF01FC05BF01EC037
:100E00005CF01DC05DF01CC05EF0556A566A0F0EA6
:100E1000596E5AC05FF05F50090805E20A0E5F5E26
:100E2000010E5526F8D75F50000804E2010E5F5E00
:100E30005626F9D72C5235E10F0E576E19A802D05D
:100E4000010E576E18AC02D0020E576E19A804D0CE
:100E500018AC02D0030E576E19A806D018AC04D0F7
:100E600018A802D0040E576E18A802D00C0E576EA8
:100E700018AC04D018A802D00E0E576E2A520AE100
:100E80000F0E596E18B002D0010E586E18A002D085
:100E90000C0E586E2A2C04D027C059F0020E586E42
:100EA00004D00F0E576E586E596E2A5002083DE15D
:100EB0002C523BE10F0E556E566E576E586E596EA2
:100EC0005B6E5C6A5D6A5E6E19A802D0010E576E99
:100ED00018AC02D0020E576E19A804D018AC02D07C
:100EE000030E576E19A806D018AC04D018A802D06B
:100EF000040E576E18A802D00C0E576E18AC04D012
:100F000018A802D00E0E576E30C060F0605009086D
:100F100005E20A0E605E010E5C26F8D760500008FC
:100F200004E2010E605E5D26F9D782A4FED70A0EA8
:100F3000616ED0DE616ACEDE0F0E616ECBDE0F0E0B
:100F4000616EC8DE58C061F0C5DE57C061F0C2DE18
:100F500055C061F0BFDE56C061F0BCDE5BC061F021
:100F6000B9DE5CC061F0B6DE5DC061F0B3DE5EC0CC
:100F700061F0B0DE59C061F0ADDE82B4FED72C5214
:100F8000D8B408D02C6A040E616EFA0E626EFADED6
:100F9000612EFBD7000E19B8010E616E626E24EC53
:100FA00003F0010E546E54C001F01200320E626E56
:100FB000E9DEFBDE320E626EE5DEF7DE320E626ED9
:100FC000E1DEF3DE320E626EDDDE12002A5208E14F
:100FD00018BC06D018A802D0189801D0188801D0E3
:100FE000E5DF12005452D8A4A1D02A6AF2CF55F0FE
:100FF000F29EC20EA96EA69CA69EA680A85055BEC3
:10100000F28E275C16E0F250006EF29EC20EA96EC0
:1010100027C0A8FFA69CA69EA6840F01550EA76E0A
:10102000AA0EA76EA682A6B2FED7A6940050F21210
:101030000001F2CF55F0F29EC30EA96EA69CA69EAB
:10104000A680A85055BEF28E305C16E0F250006EBD
:10105000F29EC30EA96E30C0A8FFA69CA69EA684D1
:101060000F01550EA76EAA0EA76EA682A6B2FED7D6
:10107000A6940050F2120001F2CF55F0F29EC80E75
:10108000A96EA69CA69EA680A85055BEF28E315C85
:1010900016E0F250006EF29EC80EA96E31C0A8FF95
:1010A000A69CA69EA6840F01550EA76EAA0EA76E3B
:1010B000A682A6B2FED7A6940050F2120001F2500A
:1010C000006EF29EC00EA96E2AC0A8FFA69CA69E26
:1010D000A6840F01550EA76EAA0EA76EA682A6B211
:1010E000FED7A6940050F212F2CF55F0F29EC10E38
:1010F000A96EA69CA69EA680A85055BEF28E016E33
:10110000189001B0188018B006D0566A0001CCECD7
:1011100002F008D00F0118A006D0080E566E00018C
:10112000CCEC02F00F010001F1EC03F0542CABD039
:10113000010E2A6E18B004D0596AE6EC00F006D011
:1011400018A004D0080E596EE6EC00F0F2CF55F06E
:10115000F29EC30EA96EA69CA69EA680A85055BE60
:10116000F28E305C16E0F250006EF29EC30EA96E55
:1011700030C0A8FFA69CA69EA6840F01550EA76EA0
:10118000AA0EA76EA682A6B2FED7A6940050F212AF
:101190000001F2CF55F0F29EC80EA96EA69CA69E45
:1011A000A680A85055BEF28E315C16E0F250006E5B
:1011B000F29EC80EA96E31C0A8FFA69CA69EA6846A
:1011C0000F01550EA76EAA0EA76EA682A6B2FED775
:1011D000A6940050F2120001000E18B0010E556ED8
:1011E000F2CF56F0F29EC10EA96EA69CA69EA680D6
:1011F000A85056BEF28E555C1AE0000E18B0010ED3
:10120000556EF250006EF29EC10EA96E55C0A8FF39
:10121000A69CA69EA6840F01550EA76EAA0EA76EC9
:10122000A682A6B2FED7A6940050F2120001F25098
:10123000006EF29EC00EA96E2AC0A8FFA69CA69EB4
:10124000A6840F01550EA76EAA0EA76EA682A6B29F
:10125000FED7A6940050F212F2CF55F0F29EC20EC5
:10126000A96EA69CA69EA680A85055BEF28E276E9B
:101270002750080DF350700F556E566E0001CCECE0
:1012800002F0F1EC03F054500208D8A486D0020E0C
:101290002A6E18B004D0596AE6EC00F006D018A007
:1012A00004D0080E596EE6EC00F0F2CF55F0F29E35
:1012B000C20EA96EA69CA69EA680A85055BEF28E10
:1012C000275C16E0F250006EF29EC20EA96E27C097
:1012D000A8FFA69CA69EA6840F01550EA76EAA0E77
:1012E000A76EA682A6B2FED7A6940050F212000105
:1012F000000E18B0010E556EF2CF56F0F29EC10EE0
:10130000A96EA69CA69EA680A85056BEF28E555CDD
:101310001AE0000E18B0010E556EF250006EF29EEB
:10132000C10EA96E55C0A8FFA69CA69EA6840F015B
:10133000550EA76EAA0EA76EA682A6B2FED7A694D9
:101340000050F2120001F250006EF29EC00EA96E23
:101350002AC0A8FFA69CA69EA6840F01550EA76EC4
:10136000AA0EA76EA682A6B2FED7A6940050F212CD
:10137000F2CF55F0F29EC30EA96EA69CA69EA68043
:10138000A85055BEF28E306E30C055F031C056F0C8
:1013900000019AEC04F0F1EC03F05450030803E16F
:1013A0002AC001F002D02AC001F063EF0AF05352C4
:1013B00032E12A50020805E1010E2C6E01DD83D0D6
:1013C00029D02A2C02D02A6A02D0010E2A6EF2CF2E
:1013D00054F0F29EC00EA96EA69CA69EA680A850B0
:1013E00054BEF28E2A5C16E0F250006EF29EC00EE1
:1013F000A96E2AC0A8FFA69CA69EA6840F01550E22
:10140000A76EAA0EA76EA682A6B2FED7A69400501B
:10141000F212000155D02A5002082DE0F250006E61
:10142000F29EC90EA96E2AC0A8FFA69CA69EA684FD
:101430000F01550EA76EAA0EA76EA682A6B2FED702
:10144000A6940050F212020E2A6EF2CF00F0F29E25
:10145000C00EA96E2AC0A8FFA69CA69EA684550E03
:10146000A76EAA0EA76EA682A6B2FED7A6940050BB
:10147000F21225D000012A50020822E1F2CF54F0E6
:10148000F29EC90EA96EA69CA69EA680A85054BE28
:10149000F28E2A6EF250006EF29EC00EA96E2AC025
:1014A000A8FFA69CA69EA6840F01550EA76EAA0EA5
:1014B000A76EA682A6B2FED7A6940050F212000133
:1014C0002AC054F08FD512002750080DF350700F2A
:1014D000536E596EE6EC00F0010E2A6E12002A528D
:1014E0002DE118B009D0596AE6EC00F0080E566EEE
:1014F000CCEC02F0188008D0080E596EE6EC00F033
:10150000566ACCEC02F01890000E18B0010E536E23
:10151000F250006EF29EC40EA96E53C0A8FFA69CA6
:10152000A69EA6840F01550EA76EAA0EA76EA682D0
:10153000A6B2FED7A6940050F21200011200275066
:10154000080DF350700F536E566ECCEC02F02A6A01
:101550001200050E1F261F50090804E20A0E1F5E26
:10156000010E2026F1EC03F0120020520AE11F5078
:10157000050807E3010E1F6E1E6A1D6A1C6A1B6ABE
:101580000AD01F50040803E2050E1F5E04D0050EAA
:101590001F26010E205EF1EC03F01200E00E5E6EDD
:1015A000F2CF5FF0F29E56C0A9FFA69CA69EA68031
:1015B000A8505FBEF28E576E010E56245F6EF2CFBA
:1015C00060F0F29E5FC0A9FFA69CA69EA680A850D0
:1015D00060BEF28E586E020E56245F6EF2CF60F03F
:1015E000F29E5FC0A9FFA69CA69EA680A85060BEE2
:1015F000F28E596E030E56245F6EF2CF60F0F29EAB
:101600005FC0A9FFA69CA69EA680A85060BEF28ED1
:101610005A6E040E56245F6EF2CF60F0F29E5FC0E9
:10162000A9FFA69CA69EA680A85060BEF28E5B6E07
:10163000050E56245F6EF2CF60F0F29E5FC0A9FFE8
:10164000A69CA69EA680A85060BEF28E5C6EF2504C
:10165000006EF29E5EC0A9FF57C0A8FFA69CA69E82
:10166000A6840F01550EA76EAA0EA76EA682A6B27B
:10167000FED7A6940050F212010E5E245F6EF2CFE8
:1016800000F0F29EA96E58C0A8FFA69CA69EA68454
:10169000550EA76EAA0EA76EA682A6B2FED7A69476
:1016A0000050F212020E5E245F6EF2CF00F0F29E46
:1016B000A96E59C0A8FFA69CA69EA684550EA76E2B
:1016C000AA0EA76EA682A6B2FED7A6940050F2126A
:1016D000030E5E245F6EF2CF00F0F29EA96E5AC038
:1016E000A8FFA69CA69EA684550EA76EAA0EA76E5E
:1016F000A682A6B2FED7A6940050F212040E5E2473
:101700005F6EF2CF00F0F29EA96E5BC0A8FFA69CB0
:10171000A69EA684550EA76EAA0EA76EA682A6B296
:10172000FED7A6940050F212050E5E245F6EF2CF33
:1017300000F0F29EA96E5CC0A8FFA69CA69EA6849F
:10174000550EA76EAA0EA76EA682A6B2FED7A694C5
:101750000050F212F2CF5FF0F29E55C0A9FFA69C96
:10176000A69EA680A8505FBEF28E606EF250006EFC
:10177000F29E56C0A9FF60C0A8FFA69CA69EA684A4
:10178000550EA76EAA0EA76EA682A6B2FED7A69485
:101790000050F212010E56245F6E010E5524606E49
:1017A000F2CF61F0F29E60C0A9FFA69CA69EA68023
:1017B000A85061BEF28E606EF250006EF29E5FC065
:1017C000A9FF60C0A8FFA69CA69EA684550EA76E82
:1017D000AA0EA76EA682A6B2FED7A6940050F21259
:1017E000020E56245F6E020E5524606EF2CF61F039
:1017F000F29E60C0A9FFA69CA69EA680A85061BECE
:10180000F28E606EF250006EF29E5FC0A9FF60C063
:10181000A8FFA69CA69EA684550EA76EAA0EA76E2C
:10182000A682A6B2FED7A6940050F212030E56244A
:101830005F6E030E5524606EF2CF61F0F29E60C0C1
:10184000A9FFA69CA69EA680A85061BEF28E606EDF
:10185000F250006EF29E5FC0A9FF60C0A8FFA69C78
:10186000A69EA684550EA76EAA0EA76EA682A6B245
:10187000FED7A6940050F212040E56245F6E040E9A
:101880005524606EF2CF61F0F29E60C0A9FFA69C65
:10189000A69EA680A85061BEF28E606EF250006EC9
:1018A000F29E5FC0A9FF60C0A8FFA69CA69EA6846A
:1018B000550EA76EAA0EA76EA682A6B2FED7A69454
:1018C0000050F212050E56245F6E050E5524606E10
:1018D000F2CF61F0F29E60C0A9FFA69CA69EA680F2
:1018E000A85061BEF28E606EF250006EF29E5FC034
:1018F000A9FF60C0A8FFA69CA69EA684550EA76E51
:10190000AA0EA76EA682A6B2FED7A6940050F21227
:10191000F2CF5FF0F29E5EC0A9FFA69CA69EA680B5
:10192000A8505FBEF28E606EF250006EF29E55C0FF
:10193000A9FF60C0A8FFA69CA69EA684550EA76E10
:10194000AA0EA76EA682A6B2FED7A6940050F212E7
:10195000010E55245F6E010E5E24606EF2CF61F0C1
:10196000F29E60C0A9FFA69CA69EA680A85061BE5C
:10197000F28E606EF250006EF29E5FC0A9FF60C0F2
:10198000A8FFA69CA69EA684550EA76EAA0EA76EBB
:10199000A682A6B2FED7A6940050F212020E5524DB
:1019A0005F6E020E5E24606EF2CF61F0F29E60C048
:1019B000A9FFA69CA69EA680A85061BEF28E606E6E
:1019C000F250006EF29E5FC0A9FF60C0A8FFA69C07
:1019D000A69EA684550EA76EAA0EA76EA682A6B2D4
:1019E000FED7A6940050F212030E55245F6E030E2C
:1019F0005E24606EF2CF61F0F29E60C0A9FFA69CEB
:101A0000A69EA680A85061BEF28E606EF250006E57
:101A1000F29E5FC0A9FF60C0A8FFA69CA69EA684F8
:101A2000550EA76EAA0EA76EA682A6B2FED7A694E2
:101A30000050F212040E55245F6E040E5E24606E98
:101A4000F2CF61F0F29E60C0A9FFA69CA69EA68080
:101A5000A85061BEF28E606EF250006EF29E5FC0C2
:101A6000A9FF60C0A8FFA69CA69EA684550EA76EDF
:101A7000AA0EA76EA682A6B2FED7A6940050F212B6
:101A8000050E55245F6E050E5E24606EF2CF61F088
:101A9000F29E60C0A9FFA69CA69EA680A85061BE2B
:101AA000F28E606EF250006EF29E5FC0A9FF60C0C1
:101AB000A8FFA69CA69EA684550EA76EAA0EA76E8A
:101AC000A682A6B2FED7A6940050F212F2CF00F082
:101AD000F29E5EC0A9FFA86AA69CA69EA684550E8B
:101AE000A76EAA0EA76EA682A6B2FED7A694005035
:101AF000F212010E5E245F6EF2CF00F0F29EA96E2C
:101B0000A86AA69CA69EA684550EA76EAA0EA76ECE
:101B1000A682A6B2FED7A6940050F212020E5E2450
:101B20005F6EF2CF00F0F29EA96EA86AA69CA69EF8
:101B3000A684550EA76EAA0EA76EA682A6B2FED7E1
:101B4000A6940050F212030E5E245F6EF2CF00F0F6
:101B5000F29EA96EA86AA69CA69EA684550EA76EA4
:101B6000AA0EA76EA682A6B2FED7A6940050F212C5
:101B7000040E5E245F6EF2CF00F0F29EA96EA86A9A
:101B8000A69CA69EA684550EA76EAA0EA76EA68238
:101B9000A6B2FED7A6940050F212050E5E245F6E28
:101BA000F2CF00F0F29EA96EA86AA69CA69EA6841B
:101BB000550EA76EAA0EA76EA682A6B2FED7A69451
:101BC0000050F2120001F4EF0DF0000E18B0010EFB
:101BD000080DF3CF53F02750080DF350700F546EDB
:101BE00053C055F0566EDAD4000E18B0010E080D31
:101BF000F3CF53F053C056F0CCEC02F0F1EC03F00D
:101C0000E0EC06F012004A2C04D0E6EC07F0D5EC2C
:101C100006F04A50020805E1536AD7EC09F0D5EC0A
:101C200006F04A50030803E14FDCD5EC06F04A50B9
:101C3000040812E1020E626E24EC03F0015207E187
:101C4000010E626E24EC03F0D5EC06F005D0626A5A
:101C500024EC03F0D5EC06F04A50050803E13FDC24
:101C6000D5EC06F04A50060803E169DCD5EC06F035
:101C70004A50070803E16DDCD5EC06F04A5008082D
:101C800003E173DCD5EC06F04A500B0803E19DDF5D
:101C9000D5EC06F04A500C0806E1010E536ED7EC65
:101CA00009F0D5EC06F04A500A0838E14638006ED3
:101CB0000F0E001600500F0B4B6E46500F0B4C6E64
:101CC0004738006E0F0E001600500F0B4D6E475038
:101CD0000F0B4E6E4838006E0F0E001600500F0BA3
:101CE0004F6E48500F0B506E4938006E0F0E0016A5
:101CF00000500F0B516E49500F0B526E206A52501C
:101D00000A0DF3504F24206E50C01FF04DC01EF03E
:101D10004EC01DF04BC01CF04CC01BF00A0E626E92
:101D2000C2EC06F0E0EC06F00152FCE0E0EC06F05C
:101D30000152FCE089EF16F0010E1D261D50090826
:101D40000FE21D6A010E1E261E50090809E21E6AD6
:101D5000010E1F261F500A0803E11F6A010E2026EC
:101D6000F1EC03F035EF0FF0010E1E261E500908AE
:101D700009E21E6A010E1F261F500A0803E11F6AAE
:101D8000010E2026F1EC03F040EF0FF0010E1F26AC
:101D90001F50090804E20A0E1F5E010E2026F1EC16
:101DA00003F04BEF0FF01DC022F0010E1D5E22521A
:101DB00014E1090E1D6E1EC022F0010E1E5E22529D
:101DC0000CE1090E1E6E1FC022F0010E1F5E225292
:101DD00004E1090E1F6E010E205EF1EC03F056EFD8
:101DE0000FF01EC022F0010E1E5E22520CE1090E01
:101DF0001E6E1FC022F0010E1F5E225204E1090E6A
:101E00001F6E010E205EF1EC03F061EF0FF01F5228
:101E100003E0010E1F5E04D0090E1F26010E205E96
:101E2000F1EC03F06CEF0FF0020E626E24EC03F0A5
:101E3000012C03D0000E016E82D080B07ED01796A8
:101E400082B8178680B002D0FDD7FCD72A5202E0B4
:101E50002A2C4ED082B644D017A621D0462C08D0CA
:101E60001C50080803E21C6A67D702D0010E1C262A
:101E70004650020808E11D50080803E21D6A74D7A5
:101E800002D0010E1D264650030808E11E50080826
:101E900003E21E6A7BD702D0010E1E2620D0462CFC
:101EA00008D01C5204E1090E1C6E7DD702D0010E31
:101EB0001C5E4650020808E11D5204E1090E1D6E29
:101EC00090D702D0010E1D5E4650030808E11E5255
:101ED00004E1090E1E6E9BD702D0010E1E5E07D0D4
:101EE00017A603D0A9EC0AF002D0B5EC0AF022D074
:101EF0002A5002081FE117A60FD03050270803E22E
:101F0000280E306E02D0010E302630C055F031C0A0
:101F100056F09AEC04F00ED03050010803E3010EA5
:101F2000306E02D0010E305E30C055F031C056F038
:101F30009AEC04F0010E016E02D0000E016E120048
:101F400018B003D0476A010E486E18A003D0010EE6
:101F5000476E486A18A81CD083A608D04850080DC0
:101F6000F3CF49F049C056F0CCEC02F0F1EC03F0AD
:101F7000E0EC06F083B6FED74750080DF3CF49F0EA
:101F800049C056F0CCEC02F0F1EC03F0E0EC06F0C6
:101F900018AC2CD04850080DF3CF49F049C059F087
:101FA000E6EC00F083A608D04750080DF3CF49F0C7
:101FB00049C056F0CCEC02F0F1EC03F0E0EC06F096
:101FC00083B6FED74750080DF3CF49F049C059F00A
:101FD000E6EC00F04850080DF3CF49F049C056F048
:101FE000CCEC02F0F1EC03F0E0EC06F0B5EF16F00B
:101FF000596A5A6A010E5B6EDA6AD96A5E6A510ED4
:102000005D6EEA6A550EE96E5EC0E2FF5DC0E1FFFB
:102010005BC05CF0D890E550EE02F3505922F450CA
:102020005A225C2EF7D759C0DEFF5AC059F05A6ABF
:10203000D8B05A2A5D2AD8B45E2A5B2A5B500508BC
:10204000E0E1120057505902F3CF01F0F4CF00F055
:102050005A02F350002658505902F3500020026EE5
:10206000120018B09AD0F2CF4EF0F29EA96AA69C48
:10207000A69EA680A8504EBEF28E506E546A536A39
:10208000526A50C051F0586A010E576E860E566E55
:10209000A00E556EADDF03C052F002C051F001C07A
:1020A00050F000C04FF0F2CF53F0F29E010EA96E37
:1020B000A69CA69EA680A85053BEF28E556E586A66
:1020C00055C057F0270E5A6E100E596EBBDF02C076
:1020D00003F001504F2603505022000E5122000EF3
:1020E0005222F2CF54F0F29E020EA96EA69CA69E3A
:1020F000A680A85054BEF28E566E586A56C057F04D
:10210000030E5A6EE80E596E9DDF02C003F00150B7
:102110004F2603505022000E5122000E5222F2CFC1
:1021200055F0F29E030EA96EA69CA69EA680A8500E
:1021300055BEF28E640DF3504F26000E5022000E55
:102140005122000E5222F2CF56F0F29E040EA96EDA
:10215000A69CA69EA680A85056BEF28E0A0DF350ED
:102160004F26000E5022000E5122000E5222F2CFB6
:1021700057F0F29E050EA96EA69CA69EA680A850BA
:1021800057BEF28E4F244A6E000E50204B6E000E4A
:1021900051204C6E000E52204D6E18A09BD0F2CFF5
:1021A0004EF0F29E080EA96EA69CA69EA680A85090
:1021B0004EBEF28E506E546A536A526A50C051F04D
:1021C000586A010E576E860E566EA00E556E10DFC1
:1021D00003C052F002C051F001C050F000C04FF0F7
:1021E000F2CF53F0F29E090EA96EA69CA69EA68081
:1021F000A85053BEF28E556E586A55C057F0270E40
:102200005A6E100E596E1EDF02C003F001504F26A9
:1022100003505022000E5122000E5222F2CF54F0F1
:10222000F29E0A0EA96EA69CA69EA680A85054BE39
:10223000F28E566E586A56C057F0030E5A6EE80E6C
:10224000596E00DF02C003F001504F2603505022A8
:10225000000E5122000E5222F2CF55F0F29E0B0ECC
:10226000A96EA69CA69EA680A85055BEF28E640DAF
:10227000F3504F26000E5022000E5122000E522223
:10228000F2CF56F0F29E0C0EA96EA69CA69EA680DA
:10229000A85056BEF28E0A0DF3504F26000E502263
:1022A000000E5122000E5222F2CF57F0F29E0D0E78
:1022B000A96EA69CA69EA680A85057BEF28E4F245B
:1022C0004A6E000E50204B6E000E51204C6E000ED8
:1022D00052204D6E4AC000F04BC001F04CC002F0DD
:1022E0004DC003F00CEF17F0809884928494809A8C
:1022F000466A476A486A82A40DD182A402D0FDD7FB
:10230000FCD719A40AD084808482848482B405D046
:1023100082B203D082B001D0199419B4FBD084806A
:10232000236A00D000D0000082A412D082A40CD076
:10233000472A640E626EC2EC06F047501D0803E2A5
:10234000010E486E01D0F2D71984010E466EE2D01C
:102350008490848200D000D0000082A412D082A495
:102360000CD0472A640E626EC2EC06F047501D087E
:1023700003E2010E486E01D0F2D71984020E466EB8
:10238000C9D08492848400D000D0000082A412D0EE
:1023900082A40CD0472A640E626EC2EC06F047504D
:1023A0001D0803E2010E486E01D0F2D71984030E16
:1023B000466EB0D08494808A00D000D0000082A203
:1023C00012D082A20CD0472A640E626EC2EC06F0D4
:1023D00047501D0803E2010E486E01D0F2D7198460
:1023E000040E466E97D0809A848000D000D0000002
:1023F00082A212D082A20CD0472A640E626EC2EC76
:1024000006F047501D0803E2010E486E01D0F2D7D6
:102410001984050E466E7ED08490848200D000D050
:10242000000082A212D082A20CD0472A640E626EF3
:10243000C2EC06F047501D0803E2010E486E01D0C1
:10244000F2D71984060E466E65D08492848400D03B
:1024500000D0000082A212D082A20CD0472A640EC3
:10246000626EC2EC06F047501D0803E2010E486E92
:1024700001D0F2D71984070E466E4CD08494848024
:1024800000D000D0000082A012D082A00CD0472A39
:10249000640E626EC2EC06F047501D0803E2010EA6
:1024A000486E01D0F2D71984080E466E33D084905E
:1024B000848200D000D0000082A012D082A00CD074
:1024C000472A640E626EC2EC06F047501D0803E214
:1024D000010E486E01D0F2D71984090E466E1AD04B
:1024E0008492848400D000D0000082A012D082A008
:1024F0000CD0472A640E626EC2EC06F047501D08ED
:1025000003E2010E486E01D0F2D719840A0E466E1E
:1025100001D0849446520AE0485202E00A0E462650
:10252000D5EC06F046C001F003D002D0000E016EDB
:1025300039EF17F0F2CF4FF0F29E47C0A9FFA69CEB
:10254000A69EA680A8504FBEF28E496E010E47246B
:102550004F6EF2CF50F0F29E4FC0A9FFA69CA69EF0
:10256000A680A85050BEF28E4A6E020E47244F6ECF
:10257000F2CF50F0F29E4FC0A9FFA69CA69EA68067
:10258000A85050BEF28E4B6E030E47244F6EF2CF12
:1025900050F0F29E4FC0A9FFA69CA69EA680A85010
:1025A00050BEF28E4C6E040E47244F6EF2CF50F0A8
:1025B000F29E4FC0A9FFA69CA69EA680A85050BE22
:1025C000F28E4D6E050E47244F6EF2CF50F0F29E04
:1025D0004FC0A9FFA69CA69EA680A85050BEF28E12
:1025E0004E6EF250006EF29E48C0A9FF49C0A8FF8F
:1025F000A69CA69EA6840F01550EA76EAA0EA76ED6
:10260000A682A6B2FED7A6940050F212010E48246C
:102610004F6EF2CF00F0F29EA96E4AC0A8FFA69CB2
:10262000A69EA684550EA76EAA0EA76EA682A6B277
:10263000FED7A6940050F212020E48244F6EF2CF3D
:1026400000F0F29EA96E4BC0A8FFA69CA69EA68491
:10265000550EA76EAA0EA76EA682A6B2FED7A694A6
:102660000050F212030E48244F6EF2CF00F0F29E9B
:10267000A96E4CC0A8FFA69CA69EA684550EA76E68
:10268000AA0EA76EA682A6B2FED7A6940050F2129A
:10269000040E48244F6EF2CF00F0F29EA96E4DC09A
:1026A000A8FFA69CA69EA684550EA76EAA0EA76E8E
:1026B000A682A6B2FED7A6940050F212050E4824B8
:1026C0004F6EF2CF00F0F29EA96E4EC0A8FFA69CFE
:1026D000A69EA684550EA76EAA0EA76EA682A6B2C7
:1026E000FED7A6940050F212000112002A521EE1F9
:1026F00018B81CD018AC0FD0189CD00E476E486A82
:1027000019DFD80E476E080E486E14DFF1EC03F0A7
:10271000E0EC06F00AD0188C476AD00E486E0ADF4B
:10272000080E476ED80E486E05DF02D0D6EC07F0D3
:1027300092EF17F0245202E1246A02D0010E245EC7
:102740002450080DF350200F476E566ECCEC02F06B
:10275000F1EC03F0B6EF13F02E5230E12A5209E10A
:1027600082A603D0B5EC0AF001D0E4D7F1EC03F077
:1027700024D02A2C11D0275203E0010E275E01D06D
:10278000276A2750080DF350700F476E566ECCEC39
:1027900002F0F1EC03F011D02A5002080EE13050A3
:1027A000010803E3010E306E02D0010E305E30C02E
:1027B00055F031C056F09AEC04F002D0010E2F5EB5
:1027C00092EF17F02450080803E2090E246E02D09D
:1027D000010E24262450080DF350200F476E566E2C
:1027E000CCEC02F0F1EC03F000EF14F02E5232E1E9
:1027F0002A5209E182A603D0A9EC0AF001D0E2D75F
:10280000F1EC03F026D02A2C13D02750080803E35C
:10281000010E272602D0090E276E2750080DF3500F
:10282000700F476E566ECCEC02F0F1EC03F011D055
:102830002A5002080EE13050270803E2280E306EBD
:1028400002D0010E302630C055F031C056F09AEC5F
:1028500004F007D02F50FE0803E3010E2F2601D00D
:102860002F6892EF17F0020E626E24EC03F01998B5
:1028700001B01988010E626E24EC03F04AC055F0D5
:1028800049C054F048C053F047C052F05250890834
:1028900013E15350AE0810E154500A080DE15552AF
:1028A0000BE10F0E516E506E0C0E4F6E0B0E4E6EF6
:1028B0000F0E4D6E4C6E43D152508A0814E15350A6
:1028C000AE0811E154500A080EE155520CE10F0E0A
:1028D000516E506E0C0E4F6E0B0E4E6E0F0E4D6EF7
:1028E0000E0E4C6E2CD152508B0814E15350AE0892
:1028F00011E154500A080EE155520CE10F0E516ED1
:10290000506E0C0E4F6E0B0E4E6E0F0E4D6E0D0E6A
:102910004C6E15D152508C0812E15350AE080FE1A5
:1029200054500A080CE155520AE10F0E516E506ED8
:102930004F6E4E6E0B0E4D6E0F0E4C6E00D1525000
:102940008D0814E15350AE0811E154500A080EE10D
:1029500055520CE10F0E516E506E0A0E4F6E0F0E57
:102960004E6E0E0E4D6E0F0E4C6EE9D055520DE1AF
:1029700054500E0812E2FF0A08E1535041080DE2DC
:10298000FF0A03E152503E0808E2556A0F0E546EEA
:10299000420E536E3F0E526E0CD052520AE1535209
:1029A00008E1545206E1555204E1556A546A536AEB
:1029B000526A516A55520DE15450000815E2FF0A5F
:1029C00008E15350850810E2FF0A03E152509F08C6
:1029D0000BE2A00E525E860E535A010E545A000EA0
:1029E000555A010E5126E6D7506A55520AE1545203
:1029F00008E1535026080FE2FF0A03E152500F0886
:102A00000AE2100E525E270E535A000E545A555ABF
:102A1000010E5026EAD74F6A55520AE1545208E196
:102A2000535002080FE2FF0A03E15250E7080AE29E
:102A3000E80E525E030E535A000E545A555A010EB8
:102A40004F26EAD74E6A555207E1545205E15352D8
:102A500003E15250630809E2640E525E000E535ABD
:102A6000545A555A010E4E26EED74D6A555207E17B
:102A7000545205E1535203E15250090809E20A0E8B
:102A8000525E000E535A545A555A010E4D26EED737
:102A90004C6A555207E1545205E1535203E152503A
:102AA000000809E2010E525E000E535A545A555A5C
:102AB000010E4C26EED7515202E10F0E516E5150CD
:102AC0000F0804E1505202E10F0E506E51500F08F2
:102AD00007E150500F0804E14F5202E10F0E4F6E14
:102AE00051500F080AE150500F0807E14F500F08EE
:102AF00004E14E5202E10F0E4E6E51500F080DE1EF
:102B000050500F080AE14F500F0807E14E500F08D0
:102B100004E14D5202E10F0E4D6E51500F080FE1CE
:102B200050500F080CE14F500F0809E14E500F08AC
:102B300006E14D500F0803E14C5201E14C6A82A4BA
:102B4000FED70A0E616E6AEC06F0616A6AEC06F066
:102B50000F0E616E6AEC06F00F0E616E6AEC06F005
:102B60000F0E616E6AEC06F00F0E616E6AEC06F0F5
:102B700051C061F06AEC06F050C061F06AEC06F0FA
:102B80004FC061F06AEC06F04EC061F06AEC06F0EE
:102B90004DC061F06AEC06F04CC061F06AEC06F0E2
:102BA0000F0E616E6AEC06F082B4FED7000E19B803
:102BB000010E566E626E24EC03F01200312C03D02D
:102BC000020E316E02D0010E316EF250006EF29E96
:102BD000C30EA96E31C0A8FFA69CA69EA6840F01B5
:102BE000550EA76EAA0EA76EA682A6B2FED7A69411
:102BF0000050F212312C0CD04A6A0A0E496EAE0E09
:102C0000486E8C0E476EF40E4B6E00012CDE0F01E9
:102C1000040E476EFA0E626E0001C2EC06F0472EFB
:102C200001D002D00F01F6D7315002080AE14A6AFA
:102C30000A0E496EAE0E486E8D0E476EF40E4B6E48
:102C400012DE040E476EFA0E626EC2EC06F0472EDC
:102C5000FAD792EF17F0F86AD09E078E166A400EE8
:102C6000AF6EA20EAC6E900EAB6E2D6A2E6A2F6AFE
:102C70003E6A010E3F6E416A406A426AC180C1826B
:102C8000C184C196C290010E926E000E936EFF0E2B
:102C9000946EFE0E956E969096929694D2EF00F0FA
:102CA0006BEF01F0A8EF05F096EF06F0040E466E0C
:102CB000FA0E626EC2EC06F0462EFAD7D5EC06F09C
:102CC000E0EC06F00152FCE09D9A9D8AC00EF212E3
:102CD0002B6A179E19942E6AF40E436E010E446EF1
:102CE000425208E0402AD8B4412A100E006E002E4D
:102CF000FED700003E520DE03E6A34C046F035C0BB
:102D000047F036C048F037C049F038C04AF003EF0A
:102D10000EF04350C70802E2C80E436E44C046F0AE
:102D200014EC0FF001520CE0435202E0010E435E3E
:102D30002D5203E0010E2D5E01D02D6AE0EC06F06D
:102D400043508C0802E2010E446E43508C0805E3A8
:102D50004350460802E2020E446E4350460802E326
:102D6000030E446E83B6A0EF0FF018A86BD02D5061
:102D7000020868E1546A536A526A20C051F0586AE6
:102D8000010E576E860E566EA00E556EF8EC0FF0C3
:102D900003C049F002C048F001C047F000C046F04F
:102DA000586A1FC057F0270E5A6E100E596E22EC4B
:102DB00010F002C003F00150462602504722000ED8
:102DC00048224922586A1EC057F0030E5A6EE80E78
:102DD000596E22EC10F002C003F00150462602505A
:102DE0004722000E482249221D50640DF35046260A
:102DF000000E4722482249221C500A0DF350462655
:102E0000000E4722482249221B504626000E472228
:102E10004822492231EF10F00050465C09E1015090
:102E2000475C06E10250485C03E10350495C0AE05C
:102E3000000E18B0010E080DF3CF46F046C059F051
:102E4000E6EC00F02D50020801E12D6A2150040843
:102E5000D8A471D044C046F014EC0FF0015202E146
:102E6000C80E436E040E4326010E2D26216A74EF10
:102E700011F001C045F04552D8B45CD0452C02D0C9
:102E800035D450D04550020803E19FEC0AF04AD0F7
:102E90004550030803E164EC0AF044D045500408AF
:102EA00003E1E5EC0DF03ED04550050802E154D4B5
:102EB00039D04550060803E16FEC0AF033D0455095
:102EC000070804E1536AD7EC09F02CD045500808F4
:102ED00002E18CD427D0455009080FE1020E626E42
:102EE00024EC03F0015204E0626A24EC03F004D005
:102EF000010E626E24EC03F015D045500A0803E180
:102F0000E6EC07F00FD04550110805E1010E536EB5
:102F1000D7EC09F007D04550140804E12A50020804
:102F2000D8B44CD682B4FED74552D8B402D0E0EC27
:102F300006F0456A0CD082A405D019B603D01986D4
:102F4000010E212682B403D019A601D01996C8D645
:022F500003007C
:020000040030CA
:0E00000000220E0E000181000FC00FE00F4025
:00000001FF
;PIC18F452
;CRC=5A80  CREATED="24-Sep-24 20:03"
