:040000000DEF02F00E
:0800080084EF02F0000000008B
:1000100000000000000000008CEF02F010000D0A4C
:100020004654504C555320426F6F746C6F61646539
:10003000722076312E300D0A57616974696E67201F
:10004000666F72204845580D0A009EA8FED77A5068
:10005000AD6EACA2FED7380E006E002EFED70000AB
:1000600012000900F5520CE0F6CF48F0F7CF49F046
:10007000F5CF7AF0EADF48C0F6FF49C0F7FFF1D7C5
:100080002FEF02F09EAAFED7ABCF06F0AECF01F065
:1000900006A202D0AB98AB88CDEF00F0806B816BED
:1000A000815101082BE37FC003F07EC0E9FF7FC0D0
:1000B000EAFFEF50400810E28051100DF3CF82F0BC
:1000C0007FC003F07EC0E9FF7FC0EAFFEF508225CA
:1000D000BF0F0A0F806F0CD08051100DF3CF82F04C
:1000E0007EC0E9FF7FC0EAFFEF508225D00F806F0E
:1000F0008151812B7E2AD8B47F2AD2D780C001F0CB
:100100001200F250036EF29EA68EA6840F01550EC9
:10011000A76EAA0EA76EA68200000350F21200017D
:100120001200D08CA69CF650070B006EF80EF61647
:100130000A007AC001F0006608D0F650010F3F0BAC
:1001400004E1A6880900DDDF0A00006607D0EECFD3
:10015000F5FF015204E00F00010603D000060B007A
:100160000C00070EF614070AE6E1CBDF0166E3D7C1
:10017000F86AF8EF01F048924E6A4D6A48B241D1F0
:10018000076A036A0750080FE96E000E0320EA6E43
:10019000EACF7DF0E9CF7CF075D77DC0EAFF7CC067
:1001A000E9FF01C0EFFF0750072A036A080FE96E55
:1001B000000E0320EA6EEF500D0803E007504008E0
:1001C000E0E2130E7A6E41DF488008503A08D8A466
:1001D0000FD17F6A090E7E6E61DF01C059F07F6A20
:1001E0000B0E7E6E5BDF01C07AF07F6A0D0E7E6EB5
:1001F00055DF7AC04CF001C04BF07F6A0F0E7E6E67
:100200004DDF01C04AF04DC051F04EC052F04BC01E
:100210004FF04CC050F0496A010E586E030E075C57
:10022000585C14E2036A5850080F016E000E032256
:1002300001C07AF003C07BF003C07FF001C07EF004
:100240002DDF01504926020E5826E8D7FF0ED88030
:100250004954010F496E030E075C036A080F016ED3
:10026000000E032201C07AF003C07BF003C07FF0D0
:1002700001C07EF013DF0150495C02E04890B8D025
:100280004A2C02D04882B4D04A50040811E17F6A57
:10029000110E7E6E03DF01C07AF07F6A130E7E6E50
:1002A000FDDE01C07BF07AC04EF001C04DF0A0D061
:1002B0004A52D8A49DD0525206E1515204E1505006
:1002C0000408D8B095D05252D8A492D05152D8A494
:1002D0008FD050507F08D8A08BD0090E586E576A27
:1002E000030E075C585C23E25750572A036A5A0FE3
:1002F000016E000E032201C07AF003C07BF0036A96
:100300005850080F016E000E032201C07CF003C09C
:100310007DF003C07FF001C07EF0C0DE7BC0EAFF4D
:100320007AC0E9FF01C0EFFF020E5826D9D753501B
:100330004F5C09E15450505C06E15550515C03E1BB
:100340005650525C3DE053503F0B006E016A026A0A
:10035000036A400ED8800056000E0156025603561E
:100360005350002654500122555002225650032269
:100370000350525C25E30BE10250515C21E307E19D
:100380000150505C1DE303E14F50005C19E24F50F7
:100390003F0B7A6E7B6A7C6A7D6A7A5206E17B52F9
:1003A00004E17C5202E17D520BE0D08C51C0F8FF99
:1003B00050C0F7FF4FC0F6FFA688A69CA2DEF86AE1
:1003C00059504F24536E000E5020546E000E512091
:1003D000556E000E5220566E51C0F8FF50C0F7FF08
:1003E0004FC0F6FFEA6A5A0EE96E59C07AF099D604
:1003F00048A003D0060E7A6E28DE110E7A6E25DE36
:10040000BDD6060E7A6E21DE110E7A6E1EDEFF005C
:100410000BEF02F0B0D630EF02F0F86AD09E066A19
:10042000150EAF6EA60EAC6E900EAB6EC180C18283
:10043000C184C196C290010E926E000E936EFF0EA3
:10044000946E956E969096929694809280948096F3
:1004500083A006D01E0EF66E000EF76E02D6DAD717
:040460004FD803006E
:04050000FFD712000F
:020000040030CA
:0E0000000022060E000181000FC00FE00F402D
:00000001FF
;PIC18F452
;CRC=F56C  CREATED="26-Feb-25 11:04"
