:0400000091EF31F05B
:08000800046ED8CF05F0E0CF33
:1000100006F00001E9CF0CF0EACF07F0E1CF08F0DD
:10002000E2CF09F0D9CF0AF0DACF0BF0F3CF12F01C
:10003000F4CF13F0FACF14F000C00EF001C00FF0AF
:1000400002C010F003C011F09DAA2AEF00F09EBA82
:1000500037EF02F00EC000F00FC001F010C002F048
:1000600011C003F00CC0E9FF07C0EAFF078E08C00B
:10007000E1FF09C0E2FF0AC0D9FF0BC0DAFF12C0DE
:10008000F3FF13C0F4FF14C0FAFF045006C0E0FFF2
:1000900005C0D8FF1000F2CF0DF0F29EAE0FF66E45
:1000A000000EF7220900F5500DBEF28E1200342525
:1000B00029001C292900042D2900D4342900BC382A
:1000C0002900A43C29008C4029005C482900444CAC
:1000D00029002C50290014542900E45B2900CC5F2E
:1000E0002900B46329009C6729006C6F29005473B0
:1000F00029003C772900247B2900F4822900DC8632
:100100002900C48A29007C962900AC8E290094928B
:100110002900649A29004C9E290034A229001CA6BB
:10012000290004AA2900ECAD2900D4B12900BCB5EE
:100130002900A4B929008CBD290074C129005CC51F
:10014000290044C929002CCD290014D12900BD1D46
:100150002A00A5212A008D252A0075292A005D2D57
:100160002A0045312A002D352A0015392A00FD3C88
:100170002A00E5402A00CD442A00B5482A009D4CBB
:100180002A0085502A006D542A0055582A003D5CEB
:100190002A0025602A000D642A00F5672A00DD6B1D
:1001A0002A00C56F2A00AD732A0095772A007D7B4F
:1001B0002A00657F2A004D832A0035872A001D8B7F
:1001C0002A00058F2A00ED922A00D5962A00BD9AB2
:1001D0002A00A59E2A008DA22A0075A62A005DAAE3
:1001E0002A0045AE2A002DB22A0015B62A00F2CF09
:1001F0000DF0F29EF76A080FF66E020EF722090064
:10020000F5500DBEF28E1200A086010020BF020044
:100210003057050060AE0A0050690F00C05C150041
:1002200040771B00200B2000009F240080B92A008B
:10023000C0C62D00F2CF0DF0F29EF76A4E0FF66E9B
:10024000020EF7220900F5500DBEF28E120050C3C7
:100250000000400D030060CC050080FC0A006090A7
:100260000F0078E5150060C51B00E8BA2000A02546
:100270002600C0C62D00F6D33000F2CF0DF0F29E5E
:10028000F76A940FF66E020EF7220900F5500DBEC4
:10029000F28E120050C30000EF490200000000007F
:1002A000F04902008FD003000100000090D003004D
:1002B0007F1A060002000000801A0600AF710B00D2
:1002C00003000000B0710B008F0510000400000057
:1002D000900510000F2016000500000010201600E9
:1002E0008F3A1C0006000000903A1C006FCE2000E0
:1002F0000700000070CE20009F25260008000000A7
:10030000A0252600FFD3300009000000F2CF0DF039
:10031000F29EF76A260FF66E030EF7220900F550DB
:100320000DBEF28E1200F0490200400D030030575E
:100330000500801A060060AE0A00B0710B00404252
:100340000F0090051000C05C1500102016004077CB
:100350001B00903A1C00200B200070CE2000009F54
:100360002400F0E8260080B92A00C0C62D00000055
:10037000000000000000F2CF0DF0F29EF76A900F2F
:10038000F66E030EF7220900F5500DBEF28E120034
:1003900041490301444E02035550020446410205FF
:1003A0004642020646410D0746420D08464E0309E5
:1003B0004652031B4652021C4654031D4654021E5D
:1003C0004946020A4C4B020B4C4B030C4D43050EA5
:1003D0004D44030F4D5206104D5717115243021250
:1003E0005244021352550214525403155258021625
:1003F0005458021753430318535003194944021A1F
:1004000000000000000000000000000000000000EC
:1004100000000000000000000000000000000000DC
:1004200000000000000000000000000000000000CC
:1004300000000000000000000000000000000000BC
:1004400000000000000000000000000000000000AC
:1004500000000000000000009EAAFED7ABCF16F0FF
:10046000AECF01F016A202D0AB98AB881200198073
:10047000F8A313D00101D86B0001CA510101D85D66
:100480000AE2036AD851DA0FE96E000E0320EA6E21
:10049000EF6AD82BF1D70001F8939EAA3FD0DCDF9A
:1004A00001C0D9F0036AF951DA0FE96E000E03209A
:1004B000EA6ED9C0EFFFF92BFB6BFA6B1AB207D0CB
:1004C000010ECA5DF95D02E001E3F88117D0F8B1D1
:1004D00011D0D9513B080DE1010ECA5DF95D02E270
:1004E000F88107D0F96BF891F8839EAA02D0B4DFA7
:1004F000FCD704D09EAA02D0AFDFFCD7F8A10ED063
:10050000036ACA51DA0FE96E000E0320EA6EEF6A41
:10051000F96B19909EAA02D09FDFFCD79E9A2AEF12
:1005200000F049443030363B00004652303B00007A
:100530004652313B00004652303B00004652313BB0
:1005400000004654303B00004654313B0000465406
:10055000303B00004654313B000056464F204120BE
:10056000000056464F20422000004D454D20256496
:1005700020000101C85302E1806A28D0C851070851
:1005800003E10E0E806E22D0C851060803E1060E6C
:10059000806E1CD0C851050803E10A0E806E16D08B
:1005A000C851040803E1020E806E10D0C851030840
:1005B00003E10C0E806E0AD0C851020803E1040E5C
:1005C000806E04D0C82D02D0080E806EC8C1CCF059
:1005D00000011200010EEA6E8D0EE96EEF500DE083
:1005E000060E016E006A002EFED7012EFBD77B0E91
:1005F000006E002EFED7EF2EF3D71200CCC0CDF048
:10060000010E0101C86F0001B4DF00D0CDC0C8F1F8
:10061000B0DF1200818E00D0819E1200650E816EC7
:10062000EDDF5D0E816EEADF4C0E816EE7DF600E5E
:10063000816EF0DF510E816EEDDF4E0E816EEADFCE
:1006400051EF32F0030E0101AE5F0AE3010EEA6ED4
:10065000AE0EE96EEF5004E001D000D0EF2EFDD7D2
:1006600000015AEF03F0809A8490849284948098D9
:100670000101AC51010B010801E18484AC51020B72
:10068000020801E18482AC51040B040801E184807A
:10069000AC51080B080801E1808A8088310E006E99
:1006A000002EFED700D08098020EAD6FB80EAE6F50
:1006B0000001C8D70101AD2FF9D7809A84908492A8
:1006C00084940001120082B4FED782A4FED70A0EE1
:1006D0000101AC6F0001C7DF0101AC6B0001C3DF9A
:1006E0000F0E0101AC6F0001BEDF0F0E0101AC6FF8
:1006F0000001B9DFA3C1ACF1B6DFA4C1ACF1B3DF37
:10070000A5C1ACF1B0DFA6C1ACF1ADDFA7C1ACF1C2
:10071000AADFA8C1ACF1A7DFA9C1ACF1A4DFAAC1CF
:10072000ACF1A1DFABC1ACF19EDF12000F0E0101F5
:10073000A36FA46FA56FA66FA76FA86FA96FAA6F0D
:10074000AB6F0001C0DF1200E00E01018625896F4A
:10075000F2CF8AF1F29E89C1A9FFA69CA69EA6802F
:10076000A8508ABFF28E886F8751885DD8B419D09F
:10077000E00E8625896FF250006EF29E89C1A9FFB6
:1007800087C1A8FFA69CA69EA6840F01550EA76E42
:10079000AA0EA76EA682A6B2FED7A6940050F212A9
:1007A0000101000112000E0E0101866F5AC187F18E
:1007B0000001CADF120019B606D0FE2BFE517708E1
:1007C000D8B09BD2FE6B020E010197259825992582
:1007D000A36F000E9A21A46F000E9B21A56F000E3F
:1007E0009C21A66F9D51A327000EA423A523A62319
:1007F000010EA327000EA423A523A6239E51A32701
:10080000000EA423A523A623010EA3259F6F000E8F
:10081000A421A06F000EA521A16F000EA621A26F3A
:1008200019B611D00001FF5101019F5D0CE100518B
:10083000A05D09E10151A15D06E10251A25D03E164
:1008400000015BD20101973D01D003D097C1CEF0EA
:1008500004D00F0E0001CE6F0101983D01D003D0EE
:1008600098C1CFF004D00F0E0001CF6F0101995352
:100870001AE19A5318E19B5316E19C5314E19E51DF
:10088000020811E0CEC0A3F1CFC0A4F10F0EA56FF6
:10089000A66FA76FA86FA96FAA6BD7C0ABF10001B5
:1008A00012DF5CD10101993D12D09A3D10D09B3DE1
:1008B0000ED09C517F080BE10F0E0001D06FD16F5D
:1008C000D26FD36FD46FD56FD66F48D101019CC161
:1008D000A6F19BC1A5F19AC1A4F199C1A3F1A351BD
:1008E0000001FD5D12E10101A453D8B402D0000162
:1008F0000CD0A553D8B402D0000107D0A653D8B469
:1009000002D0000102D029D10001A6C1AAF1A5C1DF
:10091000A9F1A4C1A8F1A3C1A7F10101A6530FE158
:10092000A5510F080CE307E1A451420808E303E1D5
:10093000A3513F0804E30F0E0001D06F1ED0000149
:10094000D06B0101AA530DE1A9510E0817E2FF0A6D
:1009500008E1A851410812E2FF0A03E1A7513F084C
:100960000DE2400EA75F420EA85B0F0EA95B000EC2
:10097000AA5B010E0001D027E4D70101A6530FE1C5
:10098000A55101080CE307E1A451860808E303E13F
:10099000A3519F0804E30F0E0001D16F1ED0000188
:1009A000D16B0101AA530DE1A951000817E2FF0A1A
:1009B00008E1A851850812E2FF0A03E1A7519F0848
:1009C0000DE2A00EA75F860EA85B010EA95B000ECC
:1009D000AA5B010E0001D127E4D70101A6530DE166
:1009E000A5530BE1A451270808E303E1A3510F0825
:1009F00004E30F0E0001D26F1AD00001D26B010187
:100A0000AA530AE1A95308E1A851260811E2FF0AF6
:100A100003E1A7510F080CE2100EA75F270EA85B99
:100A2000000EA95BAA5B010E0001D227E8D70101E5
:100A3000A6530DE1A5530BE1A451030808E303E11C
:100A4000A351E70804E30F0E0001D36F1AD0000191
:100A5000D36B0101AA530AE1A95308E1A851020886
:100A600011E2FF0A03E1A751E7080CE2E80EA75FD5
:100A7000030EA85B000EA95BAA5B010E0001D32741
:100A8000E8D70101A6530BE1A55309E1A45307E1FF
:100A9000A351630804E30F0E0001D46F16D00001C8
:100AA000D46B0101AA5307E1A95305E1A85303E15F
:100AB000A75163080BE2640EA75F000EA85BA95B59
:100AC000AA5B010E0001D427ECD70101A6530BE16C
:100AD000A55309E1A45307E1A351090804E30F0E4C
:100AE0000001D56F16D00001D56B0101AA5307E1B3
:100AF000A95305E1A85303E1A75109080BE20A0E27
:100B0000A75F000EA85BA95BAA5B010E0001D527B9
:100B1000ECD70101A35309E1A45307E1A55305E173
:100B2000A65303E10001D66B15D00001D66B01017D
:100B3000A75306E1A85304E1A95302E1AA530BE02D
:100B4000010EA75F000EA85BA95BAA5B010E000166
:100B5000D627EDD70101A3C1FDF0000101019D3DA4
:100B600001D003D09DC1D7F004D00F0E0001D76F84
:100B700001019C530AE19B5308E19A5102080AE2E1
:100B8000FF0A03E19951E80805E29E51010802E2DB
:100B9000010E9E6F9E5315E1CEC0A3F1CFC0A4F10C
:100BA000D0C0A5F1D1C0A6F1D2C0A7F1D3C0A8F1A1
:100BB000D4C0A9F1D5C0AAF1D7C0ABF1000183DD43
:100BC00001019E2D15D0CEC0A3F1CFC0A4F1D1C09C
:100BD000A5F1D2C0A6F1D3C0A7F1D4C0A8F1D5C069
:100BE000A9F1D6C0AAF1D7C0ABF100016CDD0101BB
:100BF0009E51020813E1CEC0A3F1CFC0A4F10F0EA5
:100C0000A56FA66FD4C0A7F1D5C0A8F1D6C0A9F131
:100C1000AA6FD7C0ABF1000156DD01019E51030858
:100C200013E1CEC0A3F1CFC0A4F1D4C0A5F1D5C0CB
:100C3000A6F1D6C0A7F10F0EA86FA96FAA6FD7C0F3
:100C4000ABF1000140DD01019E51040813E1CEC06B
:100C5000A3F1CFC0A4F10F0EA56FA66FD4C0A7F16A
:100C6000D5C0A8F1D6C0A9F1AA6FD7C0ABF10001D9
:100C70002ADD01019E51050810E1CEC0A3F1CFC0CD
:100C8000A4F10F0EA56FA66FA76FA86BA96FAA6F2F
:100C9000D7C0ABF1000117DD0101020E97259825A1
:100CA0009925A36F000E9A21A46F000E9B21A56FBA
:100CB000000E9C21A66F9D51A327000EA423A523FF
:100CC000A623010EA327000EA423A523A6239E512D
:100CD000A327000EA423A523A623010EA32500010C
:100CE000FF6F000E0101A421006F000EA521016F0E
:100CF000000EA621026F1998000112001AB207D047
:100D0000010E01015A6F00014EDD1A8205D001016A
:100D10005A6B000148DD1A921986000E1AB2010EB4
:100D20000101596F976998699C6B9B6B9A6B996FDE
:100D30009D69020E9E6F00013EDD77EF32F0CCC060
:100D4000CDF0040E0101C86F000113DC00D0CDC04E
:100D5000C8F10FDC12000101826B8151825D0AE251
:100D60000001EDDFC80E01018D6F000133DC0101D0
:100D7000822BF3D700011200E00E01018125866F5E
:100D8000F2CF87F1F29E86C1A9FFA69CA69EA680FF
:100D9000A85087BFF28E856B846B836B826F82C194
:100DA00001F0000112000F0E0101816F0001E4DF6C
:100DB000015012000101D26BD36B010ED46FDA6ABD
:100DC000D96AD76FCA0ED66F010EEA6ECE0EE96EE3
:100DD000D7C1E2FFD6C1E1FFD4C1D5F1D890E5502B
:100DE000EE02F350D223F450D323D52FF7D7D2C13C
:100DF000DEFFD3C1D2F1D36BD8B0D32BD62BD8B46E
:100E0000D72BD42BD4510508DFE1000112000F0EBF
:100E10000101866F5AC187F1000196DC12000101C1
:100E20008B6B082B08510F0803E38BC101F008D12D
:100E3000086B809882A4EFD082B4FED78C6B84922A
:100E40008494809A848000D000D0000082A413D0C3
:100E500082A40DD08C2B640E8D6F0001EAEC02F0A1
:100E600001018C511D0802E2198201D0F1D71886C8
:100E7000010E8B6FDCD082A213D082A20DD08C2BFE
:100E8000640E8D6F0001EAEC02F001018C5109083B
:100E900002E2198201D0F1D71886020E8B6FC7D0FB
:100EA00082A013D082A00DD08C2B640E8D6F000118
:100EB000EAEC02F001018C51090802E2198201D02A
:100EC000F1D71886030E8B6FB2D08490848200D045
:100ED00000D0000082A413D082A40DD08C2B640E0D
:100EE0008D6F0001EAEC02F001018C511D0802E255
:100EF000198201D0F1D71886040E8B6F98D082A288
:100F000013D082A20DD08C2B640E8D6F0001EAEC01
:100F100002F001018C511D0802E2198201D0F1D7C3
:100F20001886050E8B6F83D082A013D082A00DD0BF
:100F30008C2B640E8D6F0001EAEC02F001018C51E4
:100F40001D0802E2198201D0F1D71886060E8B6FB8
:100F50006ED08492848400D000D0000082A413D08C
:100F600082A40DD08C2B640E8D6F0001EAEC02F090
:100F700001018C511D0802E2198201D0F1D71886B7
:100F8000070E8B6F54D082A213D082A20DD08C2B6F
:100F9000640E8D6F0001EAEC02F001018C511D0816
:100FA00002E2198201D0F1D71886080E8B6F3FD06C
:100FB00082A013D082A00DD08C2B640E8D6F000107
:100FC000EAEC02F001018C511D0802E2198201D005
:100FD000F1D71886090E8B6F2AD08494808A00D0AE
:100FE00000D0000082A213D082A20DD08C2B640E00
:100FF0008D6F0001EAEC02F001018C511D0802E244
:10100000198201D0F1D718860B0E8B6F10D0849403
:1010100084928490809A83A00AD0000190DE83B0ED
:10102000FED718AC02D0189C01D0188C01018B534C
:1010300005E019A203D01992140E8B278BC101F081
:1010400000011200B0DE01C0CBF0CB5303E0CB5166
:10105000080801E2CB6BCB51F70F3EE2090FB8EF66
:1010600008F0BB6BBA6B120EB96FC00EB86F34D0FC
:10107000BB6BBA6B040EB96FB00EB86F2DD0BB6BE3
:10108000BA6B090EB96F600EB86F26D0BB6BBA6B26
:10109000120EB96FC00EB86F1FD0BB6BBA6B250EA6
:1010A000B96F800EB86F18D0BB6BBA6B4B0EB96FAF
:1010B000B86B12D0BB6BBA6B960EB96FB86B0CD015
:1010C000BB6BBA6BE10EB96FB86B06D0BB6B010E90
:1010D000BA6FC20EB96FB86BBBC0CDF1BAC0CCF15C
:1010E000B9C0CBF1B8C0CAF10101D16BD06BCF6BE5
:1010F0000A0ECE6F00015EDE03C05DF102C05CF13E
:1011000001C05BF100C05AF101019769986903C001
:101110009CF102C09BF101C09AF100C099F19D6958
:101120009E6B0001DBEC03F0CBC05AF170DE77DE82
:1011300001C059F101015951090804E10001FFDD25
:10114000CB2B010159511D080AE1000196EC03F077
:10115000030E0101816F0001FEDD08D001010001D5
:10116000CB51080802E2010ECB6F75D7A4EF32F025
:10117000F2CF0DF0F29EE824F76AF736950FF66E7F
:10118000110EF7220A00F550FA6E0800F5500DBE58
:10119000F28EF96E621070107E108C109A10A810EA
:1011A000B410C010CC101F0E0101816F0001E4DDEE
:1011B0000150ADEF32F00101A36BA35103081FE30F
:1011C000010EA56F9F0EA46FA351A425016E000E02
:1011D000A521036E0150E96E03C0EAFFA3519A25D1
:1011E000A66FF2CFA7F1F29EA6C1A9FFA69CA69E6C
:1011F000A680A850A7BFF28EEF6EA32BDED79F511B
:101200009B5D0AE1A0519C5D07E1A1519D5D04E158
:10121000A2519E5DD8B42FD0A36BA35103082BE33A
:10122000A3519A25A46F010EA66F9B0EA56FA35123
:10123000A525016E000EA621036E0150E96E03C0C4
:10124000EAFFEFCFA5F1F250006EF29EA4C1A9FF14
:10125000A5C1A8FFA69CA69EA6840F01550EA76E49
:10126000AA0EA76EA682A6B2FED7A6940050F212CE
:101270000101A32BD2D700014FEF09F001019451D6
:10128000040DF3CF99F199C19AF198C19EF197C1DC
:101290009DF196C19CF195C19BF100018CD7120084
:1012A0000C0E0101866F82C187F10001A4EC03F0EE
:1012B00012000B0E0101866F85C187F10001A4ECBD
:1012C00003F012000A0E0101866F81C187F100014F
:1012D000A4EC03F01200090E0101866F82C187F1B0
:1012E0000001A4EC03F01200080E0101866F81C119
:1012F00087F10001A4EC03F01200050E0101866FD6
:1013000081C187F10001A4EC03F012000D0E010170
:10131000866F82C187F10001A4EC03F01200100E69
:101320000101866F5FC187F10001A4EC03F0120098
:10133000200E0101946F8BC198F18AC197F189C188
:1013400096F188C195F1000199DF1200210E01018B
:10135000946F8BC198F18AC197F189C196F188C1C8
:1013600095F100018BDF1200030E0101866F83C12E
:1013700087F10001A4EC03F01200020E0101866F58
:1013800083C187F10001A4EC03F01200010E0101FA
:10139000866F83C187F10001A4EC03F01200010104
:1013A000866B83C187F10001A4EC03F01200070EE5
:1013B0000101866F81C187F10001A4EC03F01200E6
:1013C000060E0101866F81C187F10001A4EC03F0D4
:1013D00012001F0E0101866F5AC187F10001A4ECB3
:1013E00003F082EF0AF00101946B986B0A0E976F7D
:1013F000AE0E966F600E956F000140DF010E010189
:10140000596F595113080EE359C194F1986B0A0EA4
:10141000976FAE0E966F600E956F00012FDF010182
:10142000592BEFD7140E596F595127080BE359C1A7
:1014300094F1986B976B966B956B00011FDF010120
:10144000592BF2D7826B00012BDF0101856B000164
:1014500030DF0101816B000135DF0101826B00018A
:101460003ADF0101816B00013FDF0F0E0101816F47
:10147000000143DF0101826B000148DF01015A6B6B
:101480000001D3EC03F001015A6B0001C0DC310E06
:1014900001015F6F000143DF01018B6B0A0E8A6F50
:1014A000AE0E896F600E886F000142DF01018B6B09
:1014B0000A0E8A6FAE0E896F600E886F000146DFDC
:1014C000020E0101836F00014FDF0A0E0101836FDD
:1014D000000153DF190E0101836F000157DF320E47
:1014E0000101836F00015BDF130E0101816F0001B9
:1014F0005EDF0101816B000163DF010E01015A6FA4
:10150000000167D7FF00B2EF32F00C0E0101816FCE
:10151000000132DC015098EF0BF00B0E0101816FDE
:1015200000012ADC01509CEF0BF00A0E0101816FD3
:10153000000122DC01509FEF0BF0090E0101816FC9
:1015400000011ADC0150A2EF0BF00D0E0101816FBA
:10155000000112DC0150A6EF0BF00E0E0101816FAD
:1015600000010ADC0150AAEF0BF0100E0101816F9F
:10157000000102DC0150B2EF0BF0080E0101816F97
:101580000001BCEC06F00150B5EF0BF0030E0101B9
:10159000816F0001BCEC06F00150B8EF0BF0050EB6
:1015A0000101816F0001BCEC06F00150BBEF0BF0B4
:1015B000020E0101816F0001BCEC06F00150BEEF8C
:1015C0000BF0010E0101816F0001BCEC06F001502F
:1015D000C1EF0BF00101816B0001BCEC06F0015082
:1015E000C4EF0BF0060E0101816F0001BCEC06F0A8
:1015F0000150C7EF0BF0070E0101816F0001BCEC39
:1016000006F00150CAEF0BF00101815338E00001F0
:10161000C0510F0804E1179A189418922ED0C053A5
:1016200004E1178A1894188228D0C02D04D0178A94
:101630001894189222D0C051020804E1179A188415
:1016400018921BD0C051030804E1178A188418921D
:1016500014D0C051040804E1178A188418820DD0F0
:10166000C0510C0804E1179A1894188206D0C05192
:101670000E0803E1179A1884188256D0010117BA90
:1016800009D018B407D018B205D00F0E0001C06FF2
:101690004BD0010117AA08D018B406D018A204D064
:1016A0000001C06B41D0010117AA09D018B407D0BE
:1016B00018B205D0010E0001C06F36D0010117BA73
:1016C00009D018A407D018B205D0020E0001C06FCF
:1016D0002BD0010117AA09D018A407D018B205D041
:1016E000030E0001C06F20D0010117AA09D018A471
:1016F00007D018A205D0040E0001C06F15D001015B
:1017000017BA09D018B407D018A205D00C0E0001E2
:10171000C06F0AD0010117BA08D018A406D018A2C9
:1017200004D00E0E0001C06F010100011200EDD6C1
:10173000179C01B0178CF1D601C0BFF0F6D601C0DE
:10174000BCF0FBD6199E01B0198EFFD6189E01B0D1
:10175000188E03D71A9201B01A82D3EC06F001C09A
:10176000CBF003D701C0D8F008D701C0C1F00ED725
:1017700001C0C3F014D701C0C0F01AD701C0C4F033
:1017800020D701C0C5F026D701C0C6F02BD701C0B5
:101790001CF031D701C01BF0010E0101816F000167
:1017A00033DFCB51F70F41E2090F17EF0CF0400E7A
:1017B000AF6EA20EAC6E900EAB6E37D0FF0EAF6E5A
:1017C000A20EAC6E900EAB6E30D0810EAF6EA20E3C
:1017D000AC6E900EAB6E29D0400EAF6EA20EAC6E0A
:1017E000900EAB6E22D0810EAF6EA60EAC6E900E38
:1017F000AB6E1BD0400EAF6EA60EAC6E900EAB6EF5
:1018000014D0200EAF6EA60EAC6E900EAB6E0DD047
:10181000150EAF6EA60EAC6E900EAB6E06D00A0E15
:10182000AF6EA60EAC6E900EAB6EB5EF32F0F2CF8F
:101830000DF0F29EE824F76AF736530FF66E180E95
:10184000F7220A00F550FA6E0800F5500DBEF28E30
:10185000F96EAE17BC17CA17D817E617F417021897
:1018600010181E180101CE6BCE5103081FE3010EA4
:10187000D46FCF0ED36FCE51D325016E000ED4217D
:10188000036E0150E96E03C0EAFFCE51CD25D56F3E
:10189000F2CFD6F1F29ED5C1A9FFA69CA69EA68046
:1018A000A850D6BFF28EEF6ECE2BDED7CFC100F0A0
:1018B000D0C101F0D1C102F0D2C103F000016AEF42
:1018C0000CF00101C751040DF3CFCCF1CCC1CDF127
:1018D0000001C8D703C0CBF102C0CAF101C0C9F1F1
:1018E00000C0C8F1C8C100F0C9C101F0CAC102F00E
:1018F000CBC103F01200200E0101C76F0001E1DF30
:101900001200020E01018525866FC76F0001D9DF25
:101910001200010186518803F3CF01F0F4CF00F0EB
:101920008903F350002687518803F3500020026E8C
:1019300000011200E0DF03C0ABF002C0AAF001C05A
:10194000A9F000C0A8F0BCC085F1DBDF03C0AFF098
:1019500002C0AEF001C0ADF000C0ACF01C522DE1F1
:10196000280E1D6E010E1B5C0101856F876B866F53
:10197000896B040E886F0001CCDF02C003F00150B8
:10198000F2CF84F1F29E02C0F7FF4BEC00F0006E44
:101990000900F5CF01F00900F5CF02F00900F5CFFD
:1019A00003F0010184BFF28E03C0B3F002C0B2F0B5
:1019B00001C0B1F0E8CFB0F000011C2C2DD0280EF2
:1019C0001D6E270E1B240101856F876B866F896B47
:1019D000040E886F00019DDF02C003F00150F2CFBA
:1019E00084F1F29E02C0F7FF4BEC00F0006E09009C
:1019F000F5CF01F00900F5CF02F00900F5CF03F0B3
:101A0000010184BFF28E03C0B3F002C0B2F001C086
:101A1000B1F0E8CFB0F000011C5002082DE1500EEB
:101A20001D6E010E1B5C0101856F876B866F896BD4
:101A3000040E886F00016DDF02C003F00150F2CF89
:101A400084F1F29E02C0F7FF4BEC00F0006E09003B
:101A5000F5CF01F00900F5CF02F00900F5CF03F052
:101A6000010184BFF28E03C0B3F002C0B2F001C026
:101A7000B1F0E8CFB0F0000101018351020808E1A4
:101A8000B3C0A7F0B2C0A6F0B1C0A5F0B0C0A4F03A
:101A9000835308E1ABC0A7F0AAC0A6F0A9C0A5F087
:101AA000A8C0A4F0832D08D0AFC0A7F0AEC0A6F0A8
:101AB000ADC0A5F0ACC0A4F0000112000101C66BDE
:101AC00083A802D0080EC62783AA02D0040EC62718
:101AD00083AC02D0020EC62783AE02D0010EC62709
:101AE000C6C101F0000112008DC194F1BF5312E193
:101AF00001018C5302E1010E936F8C2D02D00C0E6C
:101B0000936F9251130804E2140E925D956F01D009
:101B100095690001BF2D06D0020E0101936F92C19D
:101B200095F100010101945193258E25966F000EC9
:101B30008F21976F000E9021986F000E9121996F61
:101B400095519627000E97239823992318B0010EDC
:101B500096250001B46F000E010197210001B56FB9
:101B6000000E010198210001B66F000E01019921BC
:101B70000001B76F000E18B0010E0101966F93C1FE
:101B800097F194C198F191C19CF190C19BF18FC1E3
:101B90009AF18EC199F195C19DF19E6F0001DBEC28
:101BA00003F01200CCC0CDF0030E0101C86F00019C
:101BB000B9EC02F000D0CDC0C8F1B9EC02F013EFDF
:101BC0000FF018AE09D0150EBD250101C66FC76F05
:101BD000000177DE06D005D0140E0101C76F0001A9
:101BE00070DE1200D8B204D0010EEA6ECE0EE96E9D
:101BF000006A016A026A036A0101CE6BCF6BD06B87
:101C0000D16BCD51CC11CB11CA112CE0200ED26F6B
:101C1000D890C637C737C837C937CE37CF37D03750
:101C2000D137CD51D15D08E1CC51D05D05E1CB512B
:101C3000CF5D02E1CA51CE5D0FE3CA51CE5FCB51F9
:101C4000D8A0CB3DCF5FCC51D8A0CC3DD05FCD51FB
:101C5000D8A0CD3DD15FD88000360136023603369C
:101C6000D22FD6D7CEC1EFFFCFC1ECFFD0C1ECFF52
:101C7000D1C1ECFF00011200700E0101C76FC65107
:101C8000C725816E0001DDEF11F081CFFCF05EEF22
:101C90000EF0CCC0CDF0020E0101C86F0001B9EC0E
:101CA00002F000D0CDC0C8F1B9EC02F066EF0EF042
:101CB000FCC081FFFC6B67EF0EF0E7D7700E0101EF
:101CC000C76FC651C725816E0001E3D7F1D7120057
:101CD00019B609D00101032B03517708D8B009EFD9
:101CE00012F0036B00018EC192F18DC191F18CC194
:101CF00090F18BC18FF119A606D00101076B066B1D
:101D0000056B046B0001010104518F5D0BE105516E
:101D1000905D08E10651915D05E10751925DD8B4EF
:101D200009EF12F08EC196F18DC195F18CC194F13D
:101D30008BC193F1976B97510908D8A070D0975138
:101D4000030DF350040DF350036AF2CFC6F1F29E77
:101D500000013DEC01F0006E0900F5CF01F0090033
:101D6000F5CF02F00900F5CF03F00101C6BFF28EF6
:101D70000350965D52E30BE10250955D4EE307E19F
:101D80000150945D4AE303E10050935D46E39751AF
:101D9000030DF350010F040DF350036AF2CFC6F1A7
:101DA000F29E00013DEC01F0006E0900F5CF01F05C
:101DB0000900F5CF02F00900F5CF03F00101C6BF1D
:101DC000F28E9651035C29E30BE19551025C25E309
:101DD00007E19451015C21E303E19351005C1DE3B1
:101DE0009751030DF350020F040DF350036AF2CF25
:101DF000C6F1F29E00013DEC01F0006E0900F5CF46
:101E000001F00900F5CF02F00900F5CF03F0010160
:101E1000C6BFF28EE8CFBDF002D0972B8CD7BDC0E5
:101E200081FF0001BFD60101976B9751090852E36A
:101E30009751040DF350036AF2CFC6F1F29E0001F0
:101E4000F7EC00F0006E0900F5CF01F00900F5CFC6
:101E500002F00900F5CF03F00101C6BFF28E035076
:101E6000965D36E30BE10250955D32E307E10150E8
:101E7000945D2EE303E10050935D2AE3010E972564
:101E8000040DF350036AF2CFC6F1F29E0001F7ECA5
:101E900000F0006E0900F5CF01F00900F5CF02F067
:101EA0000900F5CF03F00101C6BFF28E9651035C25
:101EB0000FE30BE19551025C0BE307E19451015CE8
:101EC00007E303E10050935D03E297C1BEF002D047
:101ED000972BABD719B437D0000173DE03C09BF149
:101EE00002C09AF101C099F100C098F101019B5321
:101EF0000DE19A510E081FE2FF0A08E199514108CD
:101F00001AE2FF0A03E198513F0815E2400E985D7E
:101F1000006E420E9959016E0F0E9A59026E000E14
:101F20009B59036E0050935F0150945B0250955B88
:101F30000350965B08D098519327995194239A5156
:101F400095239B51962396C19FF195C19EF194C113
:101F50009DF193C19CF1A36BA26BA16BA06B9F53EE
:101F60000DE19E51000819E2FF0A08E19D51850824
:101F700014E2FF0A03E19C519F080FE2A00E9C5F50
:101F8000860E9D5B010E9E5B000E9F5B010EA027DF
:101F9000000EA123A223A323E2D7A76BA66BA56BF8
:101FA000A46B9F530AE19E5308E19D51260813E25A
:101FB000FF0A03E19C510F080EE2100E9C5F270EF2
:101FC0009D5B000E9E5B9F5B010EA427000EA52368
:101FD000A623A723E6D7AB6BAA6BA96BA86B9F536D
:101FE0000AE19E5308E19D51020813E2FF0A03E152
:101FF0009C51E7080EE2E80E9C5F030E9D5B000E0D
:102000009E5B9F5B010EA827000EA923AA23AB238A
:10201000E6D7AF6BAE6BAD6BAC6B9F5307E19E53D6
:1020200005E19D5303E19C5163080DE2640E9C5F42
:10203000000E9D5B9E5B9F5B010EAC27000EAD23E7
:10204000AE23AF23EAD7B36BB26BB16BB06B9F53C8
:1020500007E19E5305E19D5303E19C5109080DE200
:102060000A0E9C5F000E9D5B9E5B9F5B010EB0277E
:10207000000EB123B223B323EAD7B76BB66BB56BAF
:10208000B46B9C5306E19D5304E19E5302E19F53C0
:102090000DE0010E9C5F000E9D5B9E5B9F5B010E41
:1020A000B427000EB523B623B723EBD7B4C1C2F0D3
:1020B000D89296C1C9F195C1C8F194C1C7F193C135
:1020C000C6F1CD6BCC6B270ECB6F100ECA6F000123
:1020D00089DD03C0BBF102C0BAF101C0B9F100C093
:1020E000B8F1A7C1CDF1A6C1CCF1A5C1CBF1A4C176
:1020F000CAF10101D16BD06BCF6B640ECE6F0001C2
:10210000DAEC06F003C0C9F102C0C8F101C0C7F1A2
:1021100000C0C6F1ABC1CDF1AAC1CCF1A9C1CBF1D0
:10212000A8C1CAF10101D16BD06BCF6B0A0ECE6F83
:102130000001DAEC06F000500101C6270150C72368
:102140000250C8230350C923AC51C625BC6FAD5102
:10215000C721BD6FBD51000809E2FF0A03E1BC5170
:10216000F30804E2F40EBC5F010EBD5BA35307E16C
:10217000A25305E1A15303E1A051090805E2300E85
:10218000BC27020EBD2304D0300EBC27020EBD2397
:10219000BE6BBF6BC06BC16BC26BC36BC46BC56BDB
:1021A000BDC1BFF1BD31C76FBC31C66FC733C633C8
:1021B000C733C633C733C6330F0EC717C6510F0B0D
:1021C000C06FBC510F0BC16F0001BD5105085AE330
:1021D000D892BBC1C9F1BAC1C8F1B9C1C7F1B8C180
:1021E000C6F10101CD6BCC6BCB6B050ECA6F000144
:1021F000F9DC03C0C9F102C0C8F101C0C7F100C0D9
:10220000C6F10C0E0101C627000EC723C823C9233F
:10221000C931036EC831026EC731016EC631006E1E
:102220000332023201320032033202320132003212
:10223000033202320132003200C0C4F1D892BBC175
:10224000C9F1BAC1C8F1B9C1C7F1B8C1C6F1CD6B06
:10225000CC6BCB6B050ECA6F0001C4DC03C0C9F1A7
:1022600002C0C8F101C0C7F100C0C6F10C0E0101E7
:10227000C627000EC723C823C923C6510F0BC56F3D
:1022800065D00001D892BBC1C9F1BAC1C8F1B9C1CA
:10229000C7F1B8C1C6F10101CD6BCC6BCB6B050E9C
:1022A000CA6F00019FDC03C0C9F102C0C8F101C0C0
:1022B000C7F100C0C6F10C0E0101C627000EC723EE
:1022C000C823C9231E0EC65F000EC75BC85BC95B6F
:1022D000C931036EC831026EC731016EC631006E5E
:1022E0000332023201320032033202320132003252
:1022F000033202320132003200C0C4F1D892BBC1B5
:10230000C9F1BAC1C8F1B9C1C7F1B8C1C6F1CD6B45
:10231000CC6BCB6B050ECA6F000164DC03C0C9F146
:1023200002C0C8F101C0C7F100C0C6F10C0E010126
:10233000C627000EC723C823C9231E0EC65F000E82
:10234000C75BC85BC95BC6510F0BC56F8092809499
:102350008096300EBE25816E0001FEEC02F0200E4C
:102360000101BF25816E0001FEEC02F0100E01019B
:10237000C025816E0001FEEC02F0C1C181FFFEECC0
:1023800002F0300E0101C225816E00010AEC03F05B
:10239000200E0101C325816E00010AEC03F0100E2E
:1023A0000101C425816E00010AEC03F0C5C181FF63
:1023B0000AEC03F0B0C1C6F15FD45EEC0DF0010190
:1023C000B75307E1B65305E1B55303E10150B45DDE
:1023D0000DE300015EEC0DF00101B75307E1B653C8
:1023E00005E1B55303E1B451015C05E2B4C1C6F1A6
:1023F000000163DC010100015EEC0DF001C0C9F0D9
:1024000092C107F191C106F190C105F18FC104F1AC
:1024100001010001120018A202D0189201D0188206
:102420000101816B000104EC0BF012008AC194F1F0
:102430008EC198F18DC197F18CC196F18BC195F148
:102440003EEC09F0120086C1C7F161EC0CF01200FD
:102450000101842D2BD00001BF531BE1000E17BCDE
:10246000010E0101856F00017BEC0CF003C089F1C6
:1024700002C088F101C087F100C086F185C18AF1F0
:1024800003C08EF102C08DF101C08CF100C08BF150
:10249000CDDFBCC085F181EC0CF003C0A7F002C019
:1024A000A6F001C0A5F000C0A4F0010184532FE103
:1024B0000001BF531BE1000E17BC010E0101856F27
:1024C00000017BEC0CF003C089F102C088F101C06F
:1024D00087F100C086F185C18AF103C08EF102C088
:1024E0008DF101C08CF100C08BF1A0DF000E17BC94
:1024F000010E0101856F866F0001A5DF03C0A7F003
:1025000002C0A6F001C0A5F000C0A4F0010184C182
:10251000BFF084C185F1000159EC09F01200BF53EE
:1025200006E1010E0101846F000192DF04D0010178
:10253000846B00018DDF1200020E010188258D6F72
:10254000946F8CC198F18BC197F18AC196F189C1C2
:1025500095F100013EEC09F01200210E0101C76F58
:10256000000161EC0CF01200BFC081F10101846B2D
:1025700000016EDF0101815317E100017BEC0CF0DB
:1025800003C086F102C085F101C084F100C083F16F
:10259000BCC088F103C08CF102C08BF101C08AF18C
:1025A00000C089F1C9DF0101812D16D00001D5DFFE
:1025B00003C086F102C085F101C084F100C083F13F
:1025C000BCC088F103C08CF102C08BF101C08AF15C
:1025D00000C089F1B1DF0101BCC085F1000181ECCF
:1025E0000CF003C0A7F002C0A6F001C0A5F000C027
:1025F000A4F00101826B8251010837E31986140EA1
:102600000001BC250101836F8C69C0C08DF1A7C09A
:1026100091F1A6C090F1A5C08FF1A4C08EF1926F88
:10262000000174EC0DF09FEC06F0320E01018D6F8D
:102630000001EAEC02F001018C69C0C08DF1A7C075
:1026400091F1A6C090F1A5C08FF1A4C08EF1BCC0DD
:1026500092F1000174EC0DF0960E01018D6F0001F6
:10266000EAEC02F00101822BC6D781C184F100019E
:10267000EFDE12000101822D06D0050EC86F0001A9
:10268000B9EC02F00101825305E1C86B0001B9EC1D
:1026900002F0010100015AEF13F017AA02D0179AB5
:1026A00001D0178A000E17BA010E0101816F826FE7
:1026B0000001E0D70101816B000104EC0BF0120076
:1026C000BF532FE117BC0ED001018A6BA7C08EF15A
:1026D000A6C08DF1A5C08CF1A4C08BF10001A6DECF
:1026E000178C0ED0010E01018A6FA7C08EF1A6C013
:1026F0008DF1A5C08CF1A4C08BF1000197DE179C71
:10270000000E17BC010E0101816F866F00019BDE78
:1027100003C0A7F002C0A6F001C0A5F000C0A4F05D
:1027200019861200BFC081F10101846B000190DEA7
:10273000010181510208D8B489D0BCC085F10001E3
:1027400081EC0CF003C087F102C086F101C085F175
:1027500000C084F103C08BF102C08AF101C089F18D
:1027600000C088F198EC09F0000E17BC010E0101C1
:10277000846FBCC085F1000181EC0CF003C088F1CE
:1027800002C087F101C086F100C085F184C18AF1E1
:1027900003C08EF102C08DF101C08CF100C08BF13D
:1027A00045DE0101826B825101084FE31986BCC0EE
:1027B00085F1000181EC0CF003C087F102C086F1C5
:1027C00001C085F100C084F1140EBC250101886FA1
:1027D0008C69C0C08DF103C091F102C090F101C0BD
:1027E0008FF100C08EF1926F000174EC0DF09FEC40
:1027F00006F0320E01018D6F0001EAEC02F0BCC060
:1028000085F181EC0CF003C087F102C086F101C0B4
:1028100085F100C084F101018C69C0C08DF103C055
:1028200091F102C090F101C08FF100C08EF1BCC0E7
:1028300092F1000174EC0DF0960E01018D6F000114
:10284000EAEC02F00101822BAED752D0B3C08BF17B
:10285000B2C08AF1B1C089F1B0C088F1000198EC32
:1028600009F0000E17BC010E0101846F8A6FB3C01E
:102870008EF1B2C08DF1B1C08CF1B0C08BF100010E
:10288000D5DD0101836B8351010832E31986976915
:102890009869B3C09CF1B2C09BF1B1C09AF1B0C0CD
:1028A00099F1BCC09DF19E6B0001DBEC03F09FEC45
:1028B00006F0320E01018D6F0001EAEC02F0010119
:1028C00097699869B3C09CF1B2C09BF1B1C09AF10D
:1028D000B0C099F19D699E6B0001DBEC03F0960E90
:1028E00001018D6F0001EAEC02F00101832BCBD7CF
:1028F00081C184F10001ACDD1200BF53D8A47DD0AA
:10290000F8B930D082B624D0BE2BBE51090801E2FE
:10291000BE6BBE51040DF350036AF2CF83F1F29EF9
:10292000F7EC00F00900F5CF01F00900F5CF02F057
:102930000900F5CF03F0010183BFF28E03C0A7F0B9
:1029400002C0A6F001C0A5F0E8CFA4F009D00001B4
:10295000500EA427C30EA523000EA623A723010112
:102960004DD00001BC510D0801E3BC2B0101816B6E
:102970008151010840E31986000E17BC010E836FD8
:10298000140E0001BC250101846F83C18CF1C0C00D
:102990008DF1A7C091F1A6C090F1A5C08FF1A4C0A0
:1029A0008EF1926F000174EC0DF09FEC06F0320E88
:1029B00001018D6F0001EAEC02F0000E17BC010E60
:1029C0000101836F8C6FC0C08DF1A7C091F1A6C0CB
:1029D00090F1A5C08FF1A4C08EF1BCC092F10001AE
:1029E00074EC0DF0960E01018D6F0001EAEC02F01F
:1029F0000101812BBDD70001F89901010001BF2D14
:102A000031D0F8B90BD0BC510D0801E3BC2B010E3D
:102A10000101836F00019AEC0CF024D0BE2BBE5153
:102A2000090801E2BE6BBE51040DF350036AF2CFF8
:102A300083F1F29EF7EC00F00900F5CF01F00900F8
:102A4000F5CF02F00900F5CF03F0010183BFF28E4C
:102A500003C0A7F002C0A6F001C0A5F0E8CFA4F023
:102A60000001F899F8B908D0BF51020804E11D50DF
:102A70001B5C01E21B2A39D0BC510D0801E3BC2BC1
:102A80000101826B825101082EE3198697699869CA
:102A90009C6B9B6B9A6B1BC099F1BCC09DF1020EA5
:102AA0009E6F0001DBEC03F09FEC06F0320E01019B
:102AB0008D6F0001EAEC02F00101976998699C6B47
:102AC0009B6B9A6B1BC099F19D69020E9E6F000172
:102AD000DBEC03F0960E01018D6F0001EAEC02F0D1
:102AE0000101822BCFD70001F8991200BF53D8A45F
:102AF0007CD0F8B730D082B624D0BE5302E10A0EA3
:102B0000BE6FBE07BE51040DF350036AF2CF83F1CE
:102B1000F29EF7EC00F00900F5CF01F00900F5CFC7
:102B200002F00900F5CF03F0010183BFF28E03C06C
:102B3000A7F002C0A6F001C0A5F0E8CFA4F009D02C
:102B40000001500EA45FC30EA55B000EA65BA75B41
:102B500001014CD00001BC5301E0BC070101816BB5
:102B60008151010840E31986000E17BC010E836FE6
:102B7000140E0001BC250101846F83C18CF1C0C01B
:102B80008DF1A7C091F1A6C090F1A5C08FF1A4C0AE
:102B90008EF1926F000174EC0DF09FEC06F0320E96
:102BA00001018D6F0001EAEC02F0000E17BC010E6E
:102BB0000101836F8C6FC0C08DF1A7C091F1A6C0D9
:102BC00090F1A5C08FF1A4C08EF1BCC092F10001BC
:102BD00074EC0DF0960E01018D6F0001EAEC02F02D
:102BE0000101812BBDD70001F89701010001BF2D24
:102BF00030D0F8B70AD0BC5301E0BC07010E010188
:102C0000836F00019AEC0CF024D0BE5302E10A0E4F
:102C1000BE6FBE07BE51040DF350036AF2CF83F1BD
:102C2000F29EF7EC00F00900F5CF01F00900F5CFB6
:102C300002F00900F5CF03F0010183BFF28E03C05B
:102C4000A7F002C0A6F001C0A5F0E8CFA4F00001F3
:102C5000F897F8B708D0BF51020804E11B500108EB
:102C600001E21B0638D0BC5301E0BC070101826BB6
:102C7000825101082EE31986976998699C6B9B6BBA
:102C80009A6B1BC099F1BCC09DF1020E9E6F0001B2
:102C9000DBEC03F09FEC06F0320E01018D6F0001BA
:102CA000EAEC02F00101976998699C6B9B6B9A6B47
:102CB0001BC099F19D69020E9E6F0001DBEC03F0D1
:102CC000960E01018D6F0001EAEC02F00101822BEA
:102CD000CFD70001F8971200230E0101946F84C131
:102CE00098F183C197F182C196F181C195F10001FC
:102CF0003EEC09F0120018A402D018940AD01884EF
:102D0000A7C084F1A6C083F1A5C082F1A4C081F15F
:102D1000E3DF0101816B000104EC0BF01200BFC086
:102D200081F1BCC085F181EC0CF003C087F102C0D9
:102D300086F101C085F100C084F103C08BF102C0AF
:102D40008AF101C089F100C088F1A6EC09F0000EFB
:102D500017BC010E0101846F00017BEC0CF003C075
:102D600088F102C087F101C086F100C085F184C1FD
:102D70008AF103C08EF102C08DF101C08CF100C058
:102D80008BF116EC12F0ADEC12F003C087F102C02B
:102D900086F101C085F100C084F1BCC088F103C098
:102DA0008CF102C08BF101C08AF100C089F19CEC6A
:102DB00012F00101846B000128EC12F0BCC085F117
:102DC00081EC0CF003C087F102C086F101C085F1EF
:102DD00000C084F103C08BF102C08AF101C089F107
:102DE00000C088F198EC09F0000E17BC010E01013B
:102DF000846F866F000123EC12F003C087F102C0DC
:102E000086F101C085F100C084F103C08BF102C0DE
:102E10008AF101C089F100C088F1A6EC09F0000E2A
:102E200017BC010E0101846F00017BEC0CF003C0A4
:102E300088F102C087F101C086F100C085F184C12C
:102E40008AF103C08EF102C08DF101C08CF100C087
:102E50008BF116EC12F0ADEC12F003C087F102C05A
:102E600086F101C085F100C084F1BCC088F103C0C7
:102E70008CF102C08BF101C08AF100C089F19CEC99
:102E800012F0010181534FE1826B825101084BE343
:102E900019860001ADEC12F003C087F102C086F183
:102EA00001C085F100C084F1140EBC250101886FBA
:102EB0008C69C0C08DF103C091F102C090F101C0D6
:102EC0008FF100C08EF1926F000174EC0DF09FEC59
:102ED00006F0320E01018D6F0001EAEC02F0ADEC5C
:102EE00012F003C087F102C086F101C085F100C075
:102EF00084F101018C69C0C08DF103C091F102C061
:102F000090F101C08FF100C08EF1BCC092F10001C0
:102F100074EC0DF0960E01018D6F0001EAEC02F0E9
:102F20000101822BB2D7812D5BD0836B83510108C5
:102F300057E31986000E17BC010E846F866F0001DF
:102F400023EC12F003C087F102C086F101C085F1C5
:102F500000C084F1140EBC250101886F8C69C0C0CB
:102F60008DF103C091F102C090F101C08FF100C05A
:102F70008EF1926F000174EC0DF09FEC06F0320EB2
:102F800001018D6F0001EAEC02F0000E17BC010E8A
:102F90000101846F866F000123EC12F003C087F1FA
:102FA00002C086F101C085F100C084F101018C6985
:102FB000C0C08DF103C091F102C090F101C08FF14A
:102FC00000C08EF1BCC092F1000174EC0DF0960EC1
:102FD00001018D6F0001EAEC02F00101832BA6D7FD
:102FE00081C184F1000128EC12F01200010181532B
:102FF00011E10F0EA36FA46FA56FA66F080EA76F48
:10300000A86B0C0EA96F0F0EAA6FAB6F000163ECDB
:1030100003F00101812D11D00F0EA36FA46FA56FD6
:10302000A66F040EA76FA86B0C0EA96F0F0EAA6FE8
:10303000AB6F000163EC03F001018151020811E163
:103040000F0EA36FA46FA56FA66FA76F0C0EA86FCE
:103050000E0EA96F0F0EAA6FAB6F000163EC03F0A9
:1030600001018151030810E10F0EA36FA46FA56F3A
:10307000A66FA76FA86F0B0EA96F0F0EAA6FAB6F8D
:10308000000163EC03F001018151040814E10F0E0B
:10309000A36FA46F0A0EA56F010EA66FA76F0F0E88
:1030A000A86F0C0EA96F0B0EAA6F0F0EAB6F00016D
:1030B00063EC03F001018151050812E10F0EA36FCB
:1030C000A46F0D0EA56F010EA66F0A0EA76F0F0E4F
:1030D000A86FA96BAA6FAB6F000163EC03F001014D
:1030E0008151060814E10F0EA36FA46F0D0EA56F9A
:1030F000010EA66F0A0EA76F0F0EA86F010EA96F23
:103100000F0EAA6FAB6F000163EC03F00101815158
:10311000070814E10F0EA36FA46F0D0EA56F010E2B
:10312000A66F0A0EA76F0F0EA86F020EA96F0F0EE3
:10313000AA6FAB6F000163EC03F00101020E826F16
:10314000FA0E8D6F0001EAEC02F00101822FF8D730
:1031500000011200BF51020823E11C5203E1010EDD
:103160001C6E01D01C6A1C5205E1020E0101816F28
:1031700000013CDF1C2C05D0030E0101816F000112
:1031800035DF19860101976998699C6B9B6B9A6B77
:103190001BC099F19D69020E9E6F0001DBEC03F0EC
:1031A000120018AE11D0150EBD250101936F946F5A
:1031B00092C198F191C197F190C196F18FC195F1AB
:1031C00000013EEC09F00ED0140E0101946F92C183
:1031D00098F191C197F190C196F18FC195F10001DD
:1031E0003EEC09F012001984E1EC0DF003C084F10B
:1031F00002C083F101C082F100C081F1010184535A
:103200000DE183510E0814E2FF0A08E182514108E2
:103210000FE2FF0A03E181513F080AE2400E815F9D
:10322000420E825B0F0E835B000E845B188A01D016
:10323000189A010E856F866BA7C08AF1A6C089F126
:10324000A5C088F1A4C087F1000196EC03F001014C
:10325000852D6FD0815306E1825304E1835302E14F
:1032600084534EE018AA26D081510001A45D0101CB
:10327000876F82510001A5590101886F83510001B8
:10328000A6590101896F84510001A75901018A6F74
:103290009769986984C19CF183C19BF182C19AF1BD
:1032A00081C199F19D69030E9E6F0001DBEC03F073
:1032B00025D0010181510001A4250101876F8251B0
:1032C0000001A5210101886F83510001A6210101A0
:1032D000896F84510001A72101018A6F976998695C
:1032E00084C19CF183C19BF182C19AF181C199F1A2
:1032F0009D69040E9E6F0001DBEC03F00ED001010E
:10330000976998699C6B9B6B9A6B010E996F9D698D
:10331000050E9E6F0001DBEC03F08AC18EF189C1BE
:103320008DF188C18CF187C18BF168EC0EF0010141
:10333000856B00015EEC0DF001C0C8F0000E18BAFC
:10334000010E01018B6F8BC18CF10001C951C85D69
:103350002CE0179682B8178601018C5310E117A64E
:1033600007D0010E8127000E82238323842306D0F9
:10337000010E815F000E825B835B845B0FD017A61A
:1033800007D0010E815F000E825B835B845B06D0F9
:10339000010E8127000E822383238423C8C0C9F035
:1033A000010E016E05D004D00001000E016E010176
:1033B000015202E0010E856F813D10D0823D0ED09A
:1033C000833D0CD0843D0AD0846B836B826B010EED
:1033D000816F18BA02D0188A01D0189A84530AE172
:1033E000835308E1825102080BE2FF0A03E1815195
:1033F000E60806E2846B836B030E826FE70E816F33
:1034000000010FEC07F001C086F10101862D1FD0ED
:1034100097699869A7C09CF1A6C09BF1A5C09AF1D5
:10342000A4C099F19D699E6B0001DBEC03F0040ED2
:1034300001018B6FFA0E8D6F0001EAEC02F00101C1
:103440008B2FF8D7866B010E856F02D739D0865146
:10345000060809E1926B916B906B8F6B0001A1DE06
:1034600031D02DD00101865115082AE118AA16D0B5
:10347000400E81258B6F420E82218C6F0F0E8321AF
:103480008D6F000E84218E6F926F8DC191F18CC172
:1034900090F18BC18FF1000184DE010118BA0BD0CD
:1034A00084C192F183C191F182C190F181C18FF108
:1034B000000177DE010119941986000103D0010192
:1034C000C7D600019FEC06F0000E17BC010E0101EB
:1034D0008B6F8C6FC0C08DF1A7C091F1A6C090F129
:1034E000A5C08FF1A4C08EF1BCC092F1000174ECB4
:1034F0000DF0DAEF1BF018AE08D0189E020E010195
:10350000816F0001ABEC06F007D0188E030E0101AD
:10351000816F0001ABEC06F064EF1CF01F0E01019F
:10352000866F87690001A4EC03F00BEF1CF0C12B40
:10353000C151010801E2C16BC15305E1050E010152
:10354000816F000153DDC12D05D0060E0101816F91
:1035500000014CDDC151020805E1070E0101816F38
:10356000000144DD1986010E0101816F0001ABEC01
:1035700006F02BEF1CF019AE02D0199E01D0198E67
:10358000010E0101816F0001ABEC06F034EF1CF07D
:10359000040E0101866F81C187F10001A4EC03F0E4
:1035A000E2EF1AF0040E0101816F0001BCEC06F09D
:1035B0000150F6EF1AF0BF5302E0BF2D13D0BFC089
:1035C00081F1E6D7020EBF6F0101976998699C6B84
:1035D0009B6B9A6B1BC099F19D699E6F0001DBECA0
:1035E00003F01FD0BF51020803E1DCD701C0BFF0D8
:1035F000BFC083F19AEC0CF0000E17BC010E010164
:10360000816F8C6FC0C08DF1A7C091F1A6C090F101
:10361000A5C08FF1A4C08EF1BCC092F1000174EC82
:103620000DF01200000E17BC010E0101816F826FB8
:10363000000150EC09F0BCC081F162EC09F01BC044
:1036400081F1D7EC09F01CC081F1E0EC09F0BFC0BA
:1036500085F159EC09F0C0C081F17DEC09F0C1C0E1
:1036600081F174EC09F0000E19BE010E0101816FA9
:10367000826F00016BEC09F0000E18BE010E010113
:10368000816F826F000186EC09F067EF1CF0010189
:103690007F5303E1000E016E2BD119867F2D28D0B8
:1036A00000019FEC06F0BF51020803E07BEC16F02E
:1036B0001DD01986010197699869A7C09CF1A6C021
:1036C0009BF1A5C09AF1A4C099F19D699E6B000180
:1036D000DBEC03F0040E0101816FFA0E8D6F000127
:1036E000EAEC02F00101812FF8D70001EDD00101D1
:1036F0007F51020807E100019FEC06F076EC15F01F
:10370000E3D001017F51030807E100019FEC06F0BF
:103710007DEC14F0D9D001017F51040805E10001CE
:1037200092EC13F0D1D001017F51050807E10001AF
:103730009FEC06F060EC13F0C7D001017F51060842
:1037400007E100019FEC06F04DEC13F0BDD0010144
:103750007F51070805E10001B4EC12F0B5D001017A
:103760007F51080807E100019FEC06F08FEC12F092
:10377000ABD001017F5109080EE10001BF510208E1
:1037800005E09FEC06F00BEC12F003D09FEC06F086
:10379000E1DC9AD001017F510B0805E100018FECBB
:1037A00016F092D001017F51150806E100019FEC4F
:1037B00006F019D589D001017F511F0805E10001EC
:1037C0009AD6000181D001017F51190827E1806B51
:1037D00080531CE1808280848086806A816A826A4C
:1037E000836A320E8D6F0001EAEC02F080928094C1
:1037F0008096806A816A826A836A320E01018D6FC7
:103800000001EAEC02F00101802BE2D7C66B000157
:103810005DEC0EF083D6FF0057D001017F511608F2
:1038200008E100019FEC06F0F88776EC15F04CD02B
:1038300001017F51170808E100019FEC06F0F889AB
:103840007DEC14F041D001017F51180806E1000120
:103850009FEC06F06CD638D001017F511A0806E1C2
:1038600000019FEC06F087D62FD001017F511C0884
:1038700008E117A805D000019FEC06F09CDE0101CD
:1038800024D07F511D0821E117A81FD000019FEC13
:1038900006F0040E0101816F0001F6EC17F01986A5
:1038A0000101976998699C6B9B6B9A6B1BC099F19E
:1038B0009D69020E9E6F0001DBEC03F0020E1C6E90
:1038C0001CC081F1E0EC09F001010001ABD61986C2
:1038D000809884808482848482B403D082B201D0B0
:1038E00082B0FAD784908492849401017FC101F060
:1038F0000001120001015C39006E0F0E001600502D
:103900000F0B5E6F5F6B606B616B5C510F0B626FD7
:10391000636B646B656B5B39006E0F0E00160050B5
:103920000F0B666F676B686B696B5B510F0B6A6F90
:103930006B6B6C6B6D6B5A39006E0F0E001600507E
:103940000F0B6E6F6F6B706B716B5A510F0B726F49
:10395000736B746B756B5939006E0F0E0016005047
:103960000F0B766F776B786B796B59510F0B7A6F02
:103970007B6B7C6B7D6B5D51010A000128E0030AC3
:103980002BE0010A2EE0070A31E0010A34E0030AC5
:1039900037E0010A3AE00F0A3DE0010A40E0030A7D
:1039A00043E0010AD8B4F1D0040AD8B4F3D0F30A42
:1039B000D8B4A1D1020AD8B4A6D1010AD8B4A9D1E9
:1039C000020AD8B4A8D1060AD8B4A8D1DBD20BEC2D
:1039D00012F09FEC06F0D6D28FEC12F09FEC06F0BE
:1039E000D1D2B4EC12F09FEC06F0CCD24DEC13F037
:1039F0009FEC06F0C7D260EC13F09FEC06F0C2D249
:103A000092EC13F09FEC06F0BDD27DEC14F09FEC2D
:103A100006F0B8D276EC15F09FEC06F0B3D27BEC52
:103A200016F09FEC06F0AED265C1CDF164C1CCF1C9
:103A300063C1CBF162C1CAF10101D16B0F0ED06F2E
:103A4000420ECF6F400ECE6F0001DAEC06F003C0DD
:103A500082F102C081F101C080F100C07FF169C133
:103A6000CDF168C1CCF167C1CBF166C1CAF10101EA
:103A7000D16B010ED06F860ECF6FA00ECE6F0001FE
:103A8000DAEC06F0005001017F270150802302503C
:103A90008123035082236DC1CDF16CC1CCF16BC188
:103AA000CBF16AC1CAF1D16BD06B270ECF6F100E6C
:103AB000CE6F0001DAEC06F0005001017F270150C3
:103AC0008023025081230350822371C1CDF170C144
:103AD000CCF16FC1CBF16EC1CAF1D16BD06B030ECB
:103AE000CF6FE80ECE6F0001DAEC06F00050010156
:103AF0007F2701508023025081230350822375C108
:103B0000CDF174C1CCF173C1CBF172C1CAF1D16BEB
:103B1000D06BCF6B640ECE6F0001DAEC06F0005074
:103B200001017F270150802302508123035082230B
:103B300079C1CDF178C1CCF177C1CBF176C1CAF1B1
:103B4000D16BD06BCF6B0A0ECE6F0001DAEC06F0B2
:103B5000005001017F270150802302508123035030
:103B600082237A517F250001A46F01017B518021BE
:103B70000001A56F01017C5181210001A66F0101A7
:103B80007D5182210001A76FFDD18FEC16F09FECD3
:103B900006F0F8D179C1CDF178C1CCF177C1CBF184
:103BA00076C1CAF10101D16B0F0ED06F420ECF6FFB
:103BB000400ECE6F0001DAEC06F003C082F102C0C5
:103BC00081F101C080F100C07FF17DC1CDF17CC1E8
:103BD000CCF17BC1CBF17AC1CAF10101D16B010EED
:103BE000D06F860ECF6FA00ECE6F0001DAEC06F01C
:103BF000005001017F270150802302508123035090
:103C0000822371C1CDF170C1CCF16FC1CBF16EC116
:103C1000CAF1D16BD06B270ECF6F100ECE6F0001A3
:103C2000DAEC06F0005001017F270150802302509A
:103C300081230350822375C1CDF174C1CCF173C1CE
:103C4000CBF172C1CAF1D16BD06B030ECF6FE80E0E
:103C5000CE6F0001DAEC06F0005001017F27015021
:103C60008023025081230350822369C1CDF168C1B2
:103C7000CCF167C1CBF166C1CAF1D16BD06BCF6B10
:103C8000640ECE6F0001DAEC06F0005001017F27D0
:103C90000150802302508123035082236DC1CDF156
:103CA0006CC1CCF16BC1CBF16AC1CAF1D16BD06BE5
:103CB000CF6B0A0ECE6F0001DAEC06F00050010166
:103CC0007F270150802302508123035082235E51BD
:103CD0007F250001A46F01015F5180210001A56FC4
:103CE0000101605181210001A66F01016151822112
:103CF0000001A76F47D19FEC06F017B802D01788D4
:103D000001D017983FD1190E01017F6F0001BFDC70
:103D100039D1FF0037D117B84EDC34D101017E6BA9
:103D200076357F6F7735806F7835816F7935826F23
:103D30007F378037813782377F37803781378237C7
:103D40007F37803781378237F00E7F177A517F2790
:103D50007B5180237C5181237D5182237F5306E157
:103D6000805304E1815302E1825325E076357F6F71
:103D70007735806F7835816F7935826F7F378037FF
:103D8000813782377F378037813782377F37803777
:103D900081378237F00E7F177A517F277B5180233E
:103DA0007C5181237D5182237FC183F10001B4ECDA
:103DB00009F001017E2B6E357F6F6F35806F703596
:103DC000816F7135826F7F378037813782377F37D8
:103DD0008037813782377F37803781378237F00EDF
:103DE0007F1772517F27735180237451812375513E
:103DF00082237F5306E1805304E1815302E1825321
:103E000025E06E357F6F6F35806F7035816F71354E
:103E1000826F7F378037813782377F3780378137AE
:103E200082377F37803781378237F00E7F177251A4
:103E30007F277351802374518123755182237FC161
:103E400083F10001BDEC09F001017E2B66357F6F27
:103E50006735806F6835816F6935826F7F3780374E
:103E6000813782377F378037813782377F37803796
:103E700081378237F00E7F176A517F276B5180237D
:103E80006C5181236D5182237F5306E1805304E1FD
:103E9000815302E1825325E066357F6F6735806F7D
:103EA0006835816F6935826F7F3780378137823718
:103EB0007F378037813782377F3780378137823746
:103EC000F00E7F176A517F276B5180236C5181233D
:103ED0006D5182237FC183F10001C6EC09F001011D
:103EE0007E2B5E357F6F5F35806F6035816F61350A
:103EF000826F7F378037813782377F3780378137CE
:103F000082377F37803781378237F00E7F176251D3
:103F10007F276351802364518123655182237F531E
:103F200006E1805304E1815302E1825325E05E35CE
:103F30007F6F5F35806F6035816F6135826F7F374E
:103F40008037813782377F378037813782377F37B5
:103F5000803781378237F00E7F1762517F27635198
:103F6000802364518123655182237FC183F1000145
:103F7000CFEC09F001017E2B7EC181F10001ABEC99
:103F800006F0FF0001015D51DF08D8B0BFD05D51E0
:103F9000EE08D8A0BBD0E00E5D5D7F6F65C1CDF1AE
:103FA00064C1CCF163C1CBF162C1CAF1D16B0F0E18
:103FB000D06F420ECF6F400ECE6F0001DAEC06F0EC
:103FC00003C083F102C082F101C081F100C080F121
:103FD00069C1CDF168C1CCF167C1CBF166C1CAF14D
:103FE0000101D16B010ED06F860ECF6FA00ECE6F88
:103FF0000001DAEC06F00050010180270150812316
:1040000002508223035083236DC1CDF16CC1CCF1EA
:104010006BC1CBF16AC1CAF1D16BD06B270ECF6FE8
:10402000100ECE6F0001DAEC06F00050010180277F
:1040300001508123025082230350832371C1CDF1AB
:1040400070C1CCF16FC1CBF16EC1CAF1D16BD06B35
:10405000030ECF6FE80ECE6F0001DAEC06F00050D1
:1040600001018027015081230250822303508323C2
:1040700075C1CDF174C1CCF173C1CBF172C1CAF17C
:10408000D16BD06BCF6B640ECE6F0001DAEC06F013
:1040900000500101802701508123025082230350E8
:1040A000832379C1CDF178C1CCF177C1CBF176C151
:1040B000CAF1D16BD06BCF6B0A0ECE6F0001DAEC78
:1040C00006F0005001018027015081230250822315
:1040D000035083237A5180277B5181237C51822393
:1040E0007D5183237FC188F183C18CF182C18BF123
:1040F00081C18AF180C189F100019CEC12F0030EAC
:104100000101816F0001ABEC06F00101198600018D
:10411000F4EF32F062C1A6F161C1A5F160C1A4F172
:104120005FC1A3F10101A3510001FD5D12E1010195
:10413000A453D8B402D000010CD0A553D8B402D0F7
:10414000000107D0A653D8B402D0000102D006D196
:104150000001A6C1AAF1A5C1A9F1A4C1A8F1A3C1FA
:10416000A7F10101A6530EE1A5510F080BE307E1EA
:10417000A451420807E303E1A3513F0803E30F0EF4
:10418000206F1BD0206BAA530DE1A9510E0815E238
:10419000FF0A08E1A851410810E2FF0A03E1A75114
:1041A0003F080BE2400EA75F420EA85B0F0EA95B13
:1041B000000EAA5B010E2027E6D7A6530EE1A551FB
:1041C00001080BE307E1A451860807E303E1A351CB
:1041D0009F0803E30F0E216F1BD0216BAA530DE143
:1041E000A951000815E2FF0A08E1A851850810E26C
:1041F000FF0A03E1A7519F080BE2A00EA75F860EFE
:10420000A85B010EA95B000EAA5B010E2127E6D771
:10421000A6530CE1A5530AE1A451270807E303E1E3
:10422000A3510F0803E30F0E226F17D0226BAA537E
:104230000AE1A95308E1A85126080FE2FF0A03E1A9
:10424000A7510F080AE2100EA75F270EA85B000E09
:10425000A95BAA5B010E2227EAD7A6530CE1A5535E
:104260000AE1A451030807E303E1A351E70803E3CC
:104270000F0E236F17D0236BAA530AE1A95308E14D
:10428000A85102080FE2FF0A03E1A751E7080AE27A
:10429000E80EA75F030EA85B000EA95BAA5B010EE8
:1042A0002327EAD7A6530AE1A55308E1A45306E160
:1042B000A351630803E30F0E246F13D0246BAA539A
:1042C00007E1A95305E1A85303E1A751630809E2F7
:1042D000640EA75F000EA85BA95BAA5B010E2427F2
:1042E000EED7A6530AE1A55308E1A45306E1A35172
:1042F000090803E30F0E256F13D0256BAA5307E1BE
:10430000A95305E1A85303E1A751090809E20A0EE0
:10431000A75F000EA85BA95BAA5B010E2527EED75D
:10432000A35308E1A45306E1A55304E1A65302E117
:10433000266B12D0266BA75306E1A85304E1A953BC
:1043400002E1AA5309E0010EA75F000EA85BA95B7A
:10435000AA5B010E2627EFD7A3C1FDF020510F085D
:104360000AE1036A63511E0FE96E000E0320EA6E34
:10437000300EEF6E0AD0036A63511E0FE96E000E15
:104380000320EA6E300E2025EF6E21510F080BE15D
:10439000010E6325036A1E0FE96E000E0320EA6E0C
:1043A000300EEF6E0BD0010E6325036A1E0FE96E0F
:1043B000000E0320EA6E300E2125EF6E22510F0809
:1043C0000BE1020E6325036A1E0FE96E000E032047
:1043D000EA6E300EEF6E0BD0020E6325036A1E0FDD
:1043E000E96E000E0320EA6E300E2225EF6E235197
:1043F0000F080BE1030E6325036A1E0FE96E000E22
:104400000320EA6E300EEF6E0BD0030E6325036AB5
:104410001E0FE96E000E0320EA6E300E2325EF6EAC
:1044200024510F080BE1040E6325036A1E0FE96E89
:10443000000E0320EA6E300EEF6E0BD0040E6325E3
:10444000036A1E0FE96E000E0320EA6E300E24256B
:10445000EF6E25510F080BE1050E6325036A1E0F51
:10446000E96E000E0320EA6E300EEF6E0BD0050EE3
:104470006325036A1E0FE96E000E0320EA6E300EFC
:104480002525EF6E26510F080BE1060E6325036A02
:104490001E0FE96E000E0320EA6E300EEF6E0BD099
:1044A000060E6325036A1E0FE96E000E0320EA6EF6
:1044B000300E2625EF6E000112009EA8FED70101E6
:1044C0006251AD6EACA2FED7560E006E002EFED726
:1044D0000000000112000101606B6051170813E336
:1044E0005F51180DF3506025036A1E0FE96E000E30
:1044F0000320EA6EEFCF61F161C162F10001DDDFFF
:104500000101602BEAD700011200A7C062F1A6C02A
:1045100061F1A5C060F1A4C05FF162C1A6F161C103
:10452000A5F160C1A4F15FC1A3F10101A351000194
:10453000FD5D12E10101A453D8B402D000010CD0FA
:10454000A553D8B402D0000107D0A653D8B402D0E6
:10455000000102D006D10001A6C1AAF1A5C1A9F1AE
:10456000A4C1A8F1A3C1A7F10101A6530EE1A55171
:104570000F080BE307E1A451420807E303E1A3514D
:104580003F0803E30F0E206F1BD0206BAA530DE1F1
:10459000A9510E0815E2FF0A08E1A851410810E2EE
:1045A000FF0A03E1A7513F080BE2400EA75F420E4E
:1045B000A85B0F0EA95B000EAA5B010E2027E6D7B1
:1045C000A6530EE1A55101080BE307E1A4518608AB
:1045D00007E303E1A3519F0803E30F0E216F1BD0F4
:1045E000216BAA530DE1A951000815E2FF0A08E169
:1045F000A851850810E2FF0A03E1A7519F080BE2CA
:10460000A00EA75F860EA85B010EA95B000EAA5B39
:10461000010E2127E6D7A6530CE1A5530AE1A451C8
:10462000270807E303E1A3510F0803E30F0E226FEE
:1046300017D0226BAA530AE1A95308E1A851260812
:104640000FE2FF0A03E1A7510F080AE2100EA75F6D
:10465000270EA85B000EA95BAA5B010E2227EAD7F2
:10466000A6530CE1A5530AE1A451030807E303E1B3
:10467000A351E70803E30F0E236F17D0236BAA5350
:104680000AE1A95308E1A85102080FE2FF0A03E179
:10469000A751E7080AE2E80EA75F030EA85B000E29
:1046A000A95BAA5B010E2327EAD7A6530AE1A5530B
:1046B00008E1A45306E1A351630803E30F0E246F3E
:1046C00013D0246BAA5307E1A95305E1A85303E1D2
:1046D000A751630809E2640EA75F000EA85BA95BFF
:1046E000AA5B010E2427EED7A6530AE1A55308E1E1
:1046F000A45306E1A351090803E30F0E256F13D05D
:10470000256BAA5307E1A95305E1A85303E1A7517B
:10471000090809E20A0EA75F000EA85BA95BAA5B65
:10472000010E2527EED7A35308E1A45306E1A553B4
:1047300004E1A65302E1266B12D0266BA75306E1D3
:10474000A85304E1A95302E1AA5309E0010EA75FAF
:10475000000EA85BA95BAA5B010E2627EFD7A3C1B9
:10476000FDF020510F0805E1300E0001836F05D0E8
:104770000101300E20250001836F010121510F0836
:1047800005E1300E0001846F05D00101300E2125B6
:104790000001846F300E010122250001856F300E6B
:1047A000010123250001866F300E0101242500013F
:1047B000876F300E010125250001886F300E010141
:1047C00026250001896F300E986F996F1AA803D0C3
:1047D000310E9A6F02D0300E9A6FD8C09BF017BC82
:1047E00003D0300E9C6F9E6F17AC03D0310E9C6FC0
:1047F0009E6F300E9D6F1200036A01015F511E0F04
:10480000E96E000E0320EA6EDFC0EFFF010E5F25A8
:10481000036A1E0FE96E000E0320EA6EE0C0EFFF90
:10482000020E5F25036A1E0FE96E000E0320EA6E7A
:10483000E1C0EFFF030E5F25036A1E0FE96E000E55
:104840000320EA6EE2C0EFFF040E5F25036A1E0F2D
:10485000E96E000E0320EA6EE3C0EFFF050E5F2550
:10486000036A1E0FE96E000E0320EA6EE4C0EFFF3C
:10487000060E5F25036A1E0FE96E000E0320EA6E26
:10488000E5C0EFFF036A5F511E0FE96E000E0320C3
:10489000EA6E300EEF5C276F286B296B2A6B010ED6
:1048A0005F25036A1E0FE96E000E0320EA6E300ECC
:1048B000EF5C2B6F2C6B2D6B2E6B020E5F25036A4A
:1048C0001E0FE96E000E0320EA6E300EEF5C2F6FB4
:1048D000306B316B326B030E5F25036A1E0FE96E7E
:1048E000000E0320EA6E300EEF5C336F346B356BD5
:1048F000366B040E5F25036A1E0FE96E000E03205F
:10490000EA6E300EEF5C376F386B396B3A6B050E21
:104910005F25036A1E0FE96E000E0320EA6E300E5B
:10492000EF5C3B6F3C6B3D6B3E6B060E5F25036A95
:104930001E0FE96E000E0320EA6E300EEF5C3F6F33
:10494000406B416B426B2AC1CDF129C1CCF128C12A
:10495000CBF127C1CAF1D16B0F0ED06F420ECF6FD2
:10496000400ECE6F0001DAEC06F003C067F102C022
:1049700066F101C065F100C064F12EC1CDF12DC119
:10498000CCF12CC1CBF12BC1CAF10101D16B010ECD
:10499000D06F860ECF6FA00ECE6F0001DAEC06F05E
:1049A0000050010164270150652302506623035023
:1049B000672332C1CDF131C1CCF130C1CBF12FC170
:1049C000CAF1D16BD06B270ECF6F100ECE6F0001E6
:1049D000DAEC06F000500101642701506523025013
:1049E00066230350672336C1CDF135C1CCF134C104
:1049F000CBF133C1CAF1D16BD06B030ECF6FE80E90
:104A0000CE6F0001DAEC06F000500101642701507E
:104A1000652302506623035067233AC1CDF139C1A3
:104A2000CCF138C1CBF137C1CAF1D16BD06BCF6BB0
:104A3000640ECE6F0001DAEC06F00050010164272D
:104A40000150652302506623035067233EC1CDF118
:104A50003DC1CCF13CC1CBF13BC1CAF1D16BD06BB4
:104A6000CF6B0A0ECE6F0001DAEC06F000500101A8
:104A700064270150652302506623035067233F518A
:104A80006425606F40516521616F41516621626FFD
:104A900042516721636F63530DE162512F0811E2A8
:104AA000FF0A08E16151D2080CE2FF0A03E16051FC
:104AB000F50807E2636B300E626FD30E616FF60E7E
:104AC000606F63530FE162530DE16151C3080AE364
:104AD00003E160514F0806E3636B626BC30E616FC5
:104AE000500E606F60C100F061C101F062C102F060
:104AF00063C103F00001120001015F51300815E1AC
:104B00000001BF6B179C000E17BC010E0101606F06
:104B1000866F000123EC12F003C0A7F002C0A6F0DC
:104B200001C0A5F000C0A4F001015F51310815E1FA
:104B30000001BF6B178C000E17BC010E0101606FE6
:104B4000866F000123EC12F003C0A7F002C0A6F0AC
:104B500001C0A5F000C0A4F001015F51320810E1CE
:104B6000010E0001BF6FBCC085F181EC0CF003C0E9
:104B7000A7F002C0A6F001C0A5F000C0A4F001019A
:104B8000000173EF27F00101436B4351250810E347
:104B9000036A43517E0FE96E000E0320EA6EEFCFE9
:104BA0005FF15FC162F1000188DC0101432BEDD7A9
:104BB0000001120001015F51300801E1179A5F51B5
:104BC000310801E1178A816B000104EC0BF0C0C0D1
:104BD00081F17DEC09F085EF27F00101602D07D010
:104BE000070EC86F0001B9EC02F005D00101C86BD7
:104BF0000001B9EC02F012000900F5520CE0F6CF0A
:104C00005FF1F7CF60F1F5CF62F157DC5FC1F6FFDE
:104C100060C1F7FFF1D7120001015E6B5D6B5D5162
:104C2000190854E35D51040DF350036AF2CF5FF1AC
:104C3000F29E0001BBEC01F001015FBFF28E016E3C
:104C40000001DA5D40E101015D51040DF350010FF7
:104C5000036AF2CF5FF1F29E0001BBEC01F00101AB
:104C60005FBFF28E016E0001DB5D2DE101015D5140
:104C7000040DF350020F036AF2CF5FF1F29E0001C0
:104C8000BBEC01F001015FBFF28E036ADA0FE96E3F
:104C9000000E0320EA6EEF503B08D8B402D00001AA
:104CA00012D05D51040DF350030F036AF2CF5FF190
:104CB000F29E0001BBEC01F001015FBFF28E016EBC
:104CC0005E6F04D0000101015D2BA9D7010E5E5D6E
:104CD000E60FD8B066D11A0F0001DAEF28F0DC51E8
:104CE000300801E11A90DC51310801E11A8001011C
:104CF00058D176EC15F0010154D17DEC14F001018E
:104D000050D117BC08D0A7C05CF1A6C05BF1A5C00C
:104D10005AF1A4C059F117AC0DD00101866B000106
:104D200023EC12F003C05CF102C05BF101C05AF148
:104D300000C059F15CC162F15BC161F15AC160F11F
:104D400059C15FF1050E0101636F00018AEC20F08B
:104D500001015F6B00016BEC22F085EC22F0010198
:104D600020D117AC08D0A7C05CF1A6C05BF1A5C0EC
:104D70005AF1A4C059F117BC0ED0010E0101866F83
:104D8000000123EC12F003C05CF102C05BF101C032
:104D90005AF100C059F15CC162F15BC161F15AC1C5
:104DA00060F159C15FF11D0E0101636F00018AECD2
:104DB00020F0010E01015F6F00016BEC22F085EC29
:104DC00022F00101EED0050E01015F6F000114DD3C
:104DD00003C05CF102C05BF101C05AF100C059F19F
:104DE00017BC20D05CC1A7F05BC1A6F05AC1A5F0EA
:104DF00059C1A4F0A7C08BF1A6C08AF1A5C089F162
:104E0000A4C088F198EC09F001018A6B5CC18EF1B5
:104E10005BC18DF15AC18CF159C18BF1000116ECC7
:104E200012F00DD001018A6B5CC18EF15BC18DF176
:104E30005AC18CF159C18BF1000116EC12F001013D
:104E40005F6B00016BEC22F085EC22F00101A9D030
:104E50001D0E01015F6F0001CFDC03C05CF102C0D9
:104E60005BF101C05AF100C059F117AC21D05CC10F
:104E7000A7F05BC1A6F05AC1A5F059C1A4F0A7C024
:104E80008BF1A6C08AF1A5C089F1A4C088F198EC85
:104E900009F0010E01018A6F5CC18EF15BC18DF1D9
:104EA0005AC18CF159C18BF1000116EC12F00ED0F1
:104EB000010E01018A6F5CC18EF15BC18DF15AC197
:104EC0008CF159C18BF1000116EC12F0010E0101B9
:104ED0005F6F00016BEC22F085EC22F0010161D0E4
:104EE000DCC05FF109D601015CD085EC22F04BDE1D
:104EF000010157D0020E01015F6F00016BEC22F03F
:104F000001014FD0DCC05FF155D601014AD0DCC0B1
:104F1000D8F0D8C05FF18FEC09F0010142D07BECF2
:104F20000CF003C05CF102C05BF101C05AF100C09B
:104F300059F1010136D0010134D0010132D0010113
:104F400030D001012ED01A96000E1AB6010E0101C2
:104F50005F6F606F000141DE010123D01A86000EF1
:104F60001AB6010E01015F6F606F000136DE0101AC
:104F700018D0010116D0010114D0220EF66E050ED4
:104F8000F76E3ADE0D0E0101626F00015DEC22F05A
:104F90000A0E0101626F00015DEC22F0010101D0F7
:104FA00001015E511B085AE119860001DC513008ED
:104FB00028E1179C0101826B000150EC09F0000E02
:104FC00017BC010E01015F6F866F000123EC12F028
:104FD00003C0A7F002C0A6F001C0A5F000C0A4F075
:104FE0002A0EF66E050EF76E07DE0D0E0101626FDA
:104FF00000015DEC22F00A0E0101626F00015DEC20
:1050000022F0DC51310829E1178C010E0101826F79
:10501000000150EC09F0000E17BC010E01015F6F9A
:10502000866F000123EC12F003C0A7F002C0A6F0C7
:1050300001C0A5F000C0A4F0300EF66E050EF76EAC
:10504000DBDD0D0E0101626F00015DEC22F00A0E46
:105050000101626F00015DEC22F001015E511C084C
:105060002AE117BC13D0360EF66E050EF76E00015E
:10507000C3DD0D0E0101626F00015DEC22F00A0E2E
:105080000101626F00015DEC22F0010117AC13D049
:105090003C0EF66E050EF76E0001AEDD0D0E010141
:1050A000626F00015DEC22F00A0E0101626F0001E7
:1050B0005DEC22F001015E511D0846E119860001F8
:1050C000DC5130081EE10101866B000123EC12F077
:1050D00003C0A7F002C0A6F001C0A5F000C0A4F074
:1050E000420EF66E050EF76E87DD0D0E0101626F42
:1050F00000015DEC22F00A0E0101626F00015DEC1F
:1051000022F0DC5131081FE1010E0101866F000120
:1051100023EC12F003C0A7F002C0A6F001C0A5F076
:1051200000C0A4F0480EF66E050EF76E65DD0D0E9C
:105130000101626F00015DEC22F00A0E0101626F55
:1051400000015DEC22F001015E511E082AE117BC4E
:1051500013D04E0EF66E050EF76E00014DDD0D0EEE
:105160000101626F00015DEC22F00A0E0101626F25
:1051700000015DEC22F0010117AC13D0540EF66E65
:10518000050EF76E000138DD0D0E0101626F0001A2
:105190005DEC22F00A0E0101626F00015DEC22F06D
:1051A00001010001F891F88301015EC101F00001E5
:1051B00001EF33F0F2CF0DF0F29EE824F76AF736F4
:1051C000D90FF66E510EF7220A00F550FA6E08005C
:1051D000F5500DBEF28EF96EDE4CA04FF24CFA4C3B
:1051E000024D624DC64D504EE04EEA4EF44E044F15
:1051F000A04FA04F0E4F1E4FA04F364F3A4F3E4F7D
:10520000424F464F5C4F724F764F7A4F0101442B0D
:1052100044510F0803E3000E016E29D2446B5B6B0F
:1052200083B205D082BA03D0010E5B6F1DD083B26A
:1052300005D082BC03D0050E5B6F16D083A207D0C9
:1052400082AA05D082AC03D0090E5B6F0DD083A279
:1052500005D082BA03D00D0E5B6F06D083A204D0B6
:1052600082BC02D00E0E5B6F5B5305E1466B456B53
:10527000000E016EFCD119865B2D35D083B233D080
:1052800082BA31D0465101080DE303E14551F308DC
:1052900009E3452BD8B4462B050E8D6F0001EAECCF
:1052A00002F001014651000809E2FF0A03E14551FD
:1052B000F20804E2040E5B6F16D014D046510008C9
:1052C00009E2FF0A03E145512B0804E2030E5B6F7C
:1052D0000AD008D0465303E14551630803E2020EA9
:1052E0005B6F01D0CBD75B51050835E183B233D07A
:1052F00082BC31D0465101080DE303E14551F3086A
:1053000009E3452BD8B4462B050E8D6F0001EAEC5E
:1053100002F001014651000809E2FF0A03E145518C
:10532000F20804E2080E5B6F16D014D04651000854
:1053300009E2FF0A03E145512B0804E2070E5B6F07
:105340000AD008D0465303E14551630803E2060E34
:105350005B6F01D0CBD75B51090832E183A230D01B
:1053600082AA2ED082AC2CD0465102080DE303E174
:105370004551EE0809E3452BD8B4462B050E8D6F39
:105380000001EAEC02F001014551EE0807E1465147
:10539000020804E10C0E5B6F13D011D04551F408E4
:1053A00006E1462D04D00B0E5B6F0AD008D04551A4
:1053B000FA0805E1465303E10A0E5B6F01D0CED730
:1053C0005B2D01D006D05B51050803E05B51090855
:1053D00006E1465303E14551630801E25B6B0001BE
:1053E000BF53D8A4ABD001015B2D27D0592D14D0C9
:1053F0005A5312E1010E0001A427000EA523A62393
:10540000A7230101466B456B00019FEC06F0010EDE
:10541000016E01012CD111D00001C451A427000E4E
:10542000A523A623A7230101466B456B00019FEC32
:1054300006F0010E016E01011AD15B51020808E16C
:105440000001C451A427000EA523A623A723010110
:105450005B51030808E10001C451A427000EA523F5
:10546000A623A72301015B51040808E10001C451F0
:10547000A427000EA523A623A72301015B510D0835
:1054800008E1640E0001A427000EA523A623A7238C
:1054900001015B51050827E1592D14D05A5312E13F
:1054A000010E0001A45F000EA55BA65BA75B0101D6
:1054B000466B456B00019FEC06F0010E016E010189
:1054C000D6D011D00001C451A45F000EA55BA65B2D
:1054D000A75B0101466B456B00019FEC06F0010ED6
:1054E000016E0101C4D05B51060808E10001C451FE
:1054F000A45F000EA55BA65BA75B01015B510708DB
:1055000008E10001C451A45F000EA55BA65BA75B88
:1055100001015B51080808E10001C451A45F000EBD
:10552000A55BA65BA75B01015B510E0808E1640E59
:105530000001A45F000EA55BA65BA75B0101000153
:10554000BF2D01D003D0BF5102083FE101015B2D07
:1055500008D0466B456B00019FEC06F07DEC14F023
:1055600001015B51020804E100017DEC14F001012E
:105570005B51030804E100017DEC14F001015B5173
:10558000040804E100017DEC14F001015B51050801
:1055900008E1466B456B00019FEC06F076EC15F0D8
:1055A00001015B51060804E1000176EC15F00101F0
:1055B0005B51070804E1000176EC15F001015B5135
:1055C000080804E1000176EC15F001015B510908BF
:1055D00011E1010E816F0001ABEC06F0BF5302E157
:1055E0007DEC14F017A805D0BF510208D8B4AAEC7E
:1055F00018F001015B510A0824E1020E816F0001DD
:10560000ABEC06F0BF5307E18FEC12F001015BC178
:1056100001F02DD0000117A815D0BF2D07D0DBEC6D
:105620001AF001015BC101F022D00001BF51020854
:1056300009E1DBEC1AF08FEC12F001015BC101F023
:1056400016D0000101015B510B0806E1030E816FCA
:105650000001ABEC06F001015B510C0806E1040E01
:10566000816F0001ABEC06F001015BC101F00001AC
:10567000120001015B2D06D0060EC86F0001B9ECC7
:1056800002F001015B5305E1C86B0001B9EC02F0C7
:10569000010100011200220E0101946F5EC198F118
:1056A0005DC197F15CC196F15BC195F100013EECE3
:1056B00009F0A8EF2CF0230E0101C76F000161EC87
:1056C0000CF0A9EF2CF0220E0101C76F000161EC74
:1056D0000CF0C3EF2CF01A9883B61A881AB602D0D1
:1056E0001AA84CD01AA625D01AB823D018B21AD0AE
:1056F00018B418D0BF2D01D00BD0A7C08BF1A6C015
:105700008AF1A5C089F1A4C088F198EC09F00AD00B
:10571000A7C08BF1A6C08AF1A5C089F1A4C088F109
:10572000A6EC09F0010E0101606F0001EDEC25F01F
:105730001A961AB623D01AA821D00101606B000175
:10574000EDEC25F018B21AD018B418D0BF2D01D046
:105750000BD07BEC0CF003C0A7F002C0A6F001C098
:10576000A5F000C0A4F00AD0ADEC12F003C0A7F081
:1057700002C0A6F001C0A5F000C0A4F00101596B61
:1057800017B875D083A66BD019B868D05A6B5A5128
:1057900009085AE3D8905A35040DF350036AF2CF42
:1057A0005BF1F29E000186EC01F0006E0900F5CF7E
:1057B00001F00900F5CF02F00900F5CF03F0010177
:1057C0005BBFF28E03500001A75D3BE30BE102508B
:1057D000A65D37E307E10150A55D33E303E1005027
:1057E000A45D2FE3D89001015A35010F040DF35049
:1057F000036AF2CF5BF1F29E000186EC01F0006ECD
:105800000900F5CF01F00900F5CF02F00900F5CF4E
:1058100003F001015BBFF28E0001A751035C11E3AD
:105820000BE1A651025C0DE307E1A551015C09E320
:1058300003E1A451005C05E3010E0101596F04D09E
:10584000000101015A2BA3D7595307E1010E5B6FE9
:1058500000010FDF9FEC06F00101198807D019A89D
:1058600005D05B6B000105DF1998010102D0010E24
:10587000596F18A25DD083A62ED019BA2BD0000E76
:1058800017BC010E5B6F8A6FA7C08EF1A6C08DF1A9
:10589000A5C08CF1A4C08BF1000116EC12F017BC6E
:1058A00002D0178C03D017AC01D0179C000E17BC88
:1058B000010E01015B6F866F000123EC12F003C043
:1058C000A7F002C0A6F001C0A5F000C0A4F0198A9C
:1058D000198601012DD019AA2BD0000E17BC010E7C
:1058E0005B6F8A6FA7C08EF1A6C08DF1A5C08CF149
:1058F000A4C08BF1000116EC12F017BC02D0178C7B
:1059000003D017AC01D0179C000E17BC010E01018B
:105910005B6F866F000123EC12F003C0A7F002C09A
:10592000A6F001C0A5F000C0A4F0199A19860101E3
:1059300018A434D083A619D019BC16D0A7C05EF124
:10594000A6C05DF1A5C05CF1A4C05BF10001A3D6C7
:10595000B2D603C0A7F002C0A6F001C0A5F000C0F7
:10596000A4F0198C1986010119D019AC17D0A7C061
:1059700084F1A6C083F1A5C082F1A4C081F1000129
:105980006CEC16F0A0D603C0A7F002C0A6F001C0D0
:10599000A5F000C0A4F0199C19860101000136EFA2
:1059A00033F05EEC0DF001C07DF101017D51095D28
:1059B00005E07D5301E10A2B7DC109F10A510A0876
:1059C00004E10A6B000E016E02D0010E016E0001AF
:1059D000120001016A916A936A956651625D11E154
:1059E0006751635D0EE16851645D0BE16951655D6E
:1059F00008E1020E816F0001ABEC06F0189C58D153
:105A000001016551695D1EE30BE16451685D1AE3B4
:105A100007E16351675D16E303E16651625D12E2DF
:105A20006A8565C172F164C171F163C170F162C1CF
:105A30006FF169C16EF168C16DF167C16CF166C14A
:105A40006BF111D06A9569C172F168C171F167C1DA
:105A500070F166C16FF165C16EF164C16DF163C132
:105A60006CF162C16BF1000E17BC010E7D6F866F89
:105A7000000123EC12F003C076F102C075F101C001
:105A800074F100C073F101016AB171D019967B2BDA
:105A9000D8B47C2B7C510E080CE2FF0A03E17B5149
:105AA000A00807E26AA302D06A9301D06A837C6BE4
:105AB0007B6B6AA312D0010E976F986976C19CF137
:105AC00075C19BF174C19AF173C199F19D699E6B87
:105AD0000001DBEC03F011D001010C0E976F986907
