:1000000081EF2FF0CFEF2EF0046ED8CF05F0E0CFC8
:1000100006F00001E9CF0CF0EACF07F0E1CF08F0DD
:10002000E2CF09F0D9CF0AF0DACF0BF0F3CF12F01C
:10003000F4CF13F0FACF14F000C00EF001C00FF0AF
:1000400002C010F003C011F09DA02AEF00F09EB096
:10005000E2EF04F09DA230EF00F09EB298EF04F0C2
:100060009DAA36EF00F09EBAA8EF04F00EC000F093
:100070000FC001F010C002F011C003F00CC0E9FF86
:1000800007C0EAFF078E08C0E1FF09C0E2FF0AC00F
:10009000D9FF0BC0DAFF12C0F3FF13C0F4FF14C086
:1000A000FAFF045006C0E0FF05C0D8FF1000F2CFF1
:1000B0000DF0F29EF76AC80FF66E000EF7220900E7
:1000C000F5500DBEF28E120050C3000020BF02009A
:1000D0003057050060AE0A0050690F00C05C150083
:1000E00040771B00200B2000009F240080B92A00CD
:1000F000C0C62D00F2CF0DF0F29EF76A0E0FF66E1D
:10010000010EF7220900F5500DBEF28E120000001C
:100110000000EF49020001000000F04902008FD00A
:1001200003000100000090D003007F1A06000200C7
:100130000000801A0600AF710B0003000000B071D0
:100140000B008F05100004000000900510000F2028
:10015000160005000000102016008F3A1C00060053
:100160000000903A1C006FCE20000700000070CE07
:1001700020009F25260008000000A02526007F966D
:10018000980009000000F2CF0DF0F29EF76AA00F70
:10019000F66E010EF7220900F5500DBEF28E120028
:1001A0004944020141490302444E020355500204EE
:1001B000464102054642020646410D0746420D08E9
:1001C000464E03094652030A4652020B4654030C9C
:1001D0004654020D4946020E4945030F4C4B02108E
:1001E0004C4B03114D4305124D4403134D5206145D
:1001F0004D57171552430216524402175255021812
:10020000525403195258021A5458021B5343031CE8
:100210005350031D5941021E3141031F3142032037
:100220003143032131440722314502233146022460
:100230003241032532420426324303273244032845
:10024000324503293330022B3331022C00000000E9
:10025000F2CF0DF0F29EF76A6A0FF66E020EF722E9
:100260000900F5500DBEF28E120000710200400D23
:10027000030060CC050080FC0A0060900F0078E568
:10028000150060C51B00E8BA2000A0252600C0C6E6
:100290002D00C0C62D00F2CF0DF0F29EAE0FF66E0F
:1002A000020EF7220900F5500DBEF28E1200010079
:1002B0000000DC152700C4192700AC1D27007C2591
:1002C0002700642927004C2D2700343127000439EA
:1002D0002700EC3C2700D4402700BC4427008C4C6E
:1002E0002700745027005C542700445827001460EE
:1002F0002700FC632700E4672700CC6B27009C7372
:100300002700847727006C7B2700547F27003C83DD
:100310002700248727000C8B2700F48E2700DC920F
:100320002700C4962700AC9A2700949E27007CA241
:10033000270064A627004CAA270034AE27001CB271
:10034000270004B62700ECB92700D4BD2700BCC1A4
:10035000270001000000A4C527008CC9270074CD28
:10036000270044D527002CD9270014DD2700FCE006
:100370002700CCE82700B4EC27009CF0270084F489
:10038000270054FC27003C002800240428000C0807
:100390002800DC0F2800C4132800AC172800941B89
:1003A0002800642328004C272800342B28001C2F09
:1003B000280004332800EC362800D43A2800BC3E3C
:1003C0002800A44228008C462800744A28005C4E6D
:1003D0002800445228002C562800145A2800FC5D9E
:1003E0002800E4612800CC652800B46928009C6DD1
:1003F000280084712800010000006C7528005479E1
:1004000028003C7D28000C852800F4882800DC8C1E
:100410002800C4902800949828007C9C280064A0A0
:1004200028004CA428001CAC280004B02800ECB321
:100430002800D4B72800A4BF28008CC3280074C7A4
:1004400028005CCB28002CD3280014D72800FCDA25
:100450002800B4E62800E4DE2800CCE228009CEA6C
:10046000280084EE28006CF2280054F628003CFA9C
:10047000280024FE28000C022900F4052900DC09CC
:100480002900C40D2900AC112900941529007C19FC
:100490002900641D29004C21290001000000342599
:1004A00029001C292900042D2900D4342900BC3836
:1004B0002900A43C29008C4029005C482900444CB8
:1004C00029002C50290014542900E45B2900CC5F3A
:1004D0002900B46329009C6729006C6F29005473BC
:1004E00029003C772900247B2900F4822900DC863E
:1004F0002900C48A29007C962900AC8E2900949298
:100500002900649A29004C9E290034A229001CA6C7
:10051000290004AA2900ECAD2900D4B12900BCB5FA
:100520002900A4B929008CBD290074C129005CC52B
:10053000290044C929002CCD290014D1290001002B
:100540000000FCD42900E4D82900CCDC29009CE47C
:10055000290084E829006CEC290054F0290024F8D3
:1005600029000CFC2900F4FF2900DC032A00AC0B55
:100570002A00940F2A007C132A0064172A00341FD3
:100580002A001C232A0004272A00EC2A2A00BC3255
:100590002A00A4362A008C3A2A0044462A00743ED7
:1005A0002A005C422A002C4A2A00144E2A00FC51E0
:1005B0002A00E4552A00CC592A00B45D2A009C6127
:1005C0002A0084652A006C692A00546D2A003C7157
:1005D0002A0024752A000C792A00F47C2A00DC8089
:1005E0002A0001000000C4842A00AC882A00948CF0
:1005F0002A0064942A004C982A00349C2A001CA0EB
:100600002A00ECA72A00D4AB2A00BCAF2A00A4B36E
:100610002A0074BB2A005CBF2A0044C32A002CC7EE
:100620002A00FCCE2A00E4D22A00CCD62A00B4DA72
:100630002A0084E22A006CE62A0054EA2A000CF61A
:100640002A003CEE2A0024F22A00F4F92A00DCFDFC
:100650002A00C4012B00AC052B0094092B007C0D53
:100660002B0064112B004C152B0034192B001C1D82
:100670002B0004212B00EC242B00D4282B00BC2CB5
:100680002B00A4302B00010000008C342B007438A8
:100690002B005C3C2B002C442B0014482B00FC4B03
:1006A0002B00E44F2B00B4572B009C5B2B00845F86
:1006B0002B006C632B003C6B2B00246F2B000C7306
:1006C0002B00F4762B00C47E2B00AC822B0094868A
:1006D0002B007C8A2B004C922B0034962B001C9A0A
:1006E0002B00D4A52B00049E2B00ECA12B00BCA951
:1006F0002B00A4AD2B008CB12B0074B52B005CB982
:100700002B0044BD2B002CC12B0014C52B00FCC8B2
:100710002B00E4CC2B00CCD02B00B4D42B009CD8E5
:100720002B0084DC2B006CE02B0001000000BD1DC1
:100730002A00A5212A008D252A0075292A005D2D71
:100740002A0045312A002D352A0015392A00FD3CA2
:100750002A00E5402A00CD442A00B5482A009D4CD5
:100760002A0085502A006D542A0055582A003D5C05
:100770002A0025602A000D642A00F5672A00DD6B37
:100780002A00C56F2A00AD732A0095772A007D7B69
:100790002A00657F2A004D832A0035872A001D8B99
:1007A0002A00058F2A00ED922A00D5962A00BD9ACC
:1007B0002A00A59E2A008DA22A0075A62A005DAAFD
:1007C0002A0045AE2A002DB22A0015B62A00F2CF23
:1007D0000DF0F29EF76AE80FF66E070EF722090099
:1007E000F5500DBEF28E1200F0490200400D0300DC
:1007F00030570500801A060060AE0A00B0710B0089
:1008000040420F0090051000C05C1500102016003B
:1008100040771B00903A1C00200B200070CE200077
:10082000009F2400F0E8260080B92A00C0C62D00F1
:10083000000000000000000082B403D001016981C3
:10084000000182A40DD001016853D8A402D0000198
:1008500007D069B102D0000103D069916807000197
:10086000010168535EE1036A6A515B0FE96E010E94
:100870000320EA6EEF500F0BE8A08494E8B0848464
:10088000036A6A515B0FE96E010E0320EA6ED8908D
:10089000EF300F0BE8A08492E8B08482036A6A51BB
:1008A0005B0FE96E010E0320EA6EEF30006E00323E
:1008B0003F0E001600500F0BE8A08490E8B0848033
:1008C000036A6A515B0FE96E010E0320EA6EEF3096
:1008D000006E003200321F0E001600500F0BE8A011
:1008E000809AE8B0808A82A416D080880201576B73
:1008F00057510F0808E3572B070E006E002EFED746
:1009000000D00000F5D7576B809801016A510C08A0
:1009100002E3010E6A2782B403D06A6B010E686F8E
:1009200004D0849484928490809A000199EF04F01A
:1009300083D79E929E9236EF00F09EAAFED7ABCF51
:1009400017F0AECF01F017A202D0AB98AB8812001F
:1009500019B231D09EAA2FD0F0DF01C0A7F1036AEF
:100960000101D051A80FE96E010E0320EA6EA7C164
:10097000EFFF1AB20DD0A7513B0803E1D06B1982EB
:100980001A84D051040803E1D06B198201D0D02B16
:100990001AA210D0A7513B0803E1D06B198201D0F5
:1009A000D02BD051050806E1A751050803E1D06B13
:1009B00019821A84000119A202D09EBABEDF9E9A43
:1009C00036EF00F0493C01D002D0492A01D0496AF3
:1009D00049A402D0198801D019989E909E9036EFB4
:1009E00000F002014C51F80F2AE2080F000126EF37
:1009F00005F0806A020123D0080E806E02011FD02C
:100A0000040E806E02011BD00C0E806E020117D006
:100A1000020E806E200E006E002EFED700D0000069
:100A200002010DD00A0E806E020109D0060E806E02
:100A3000020105D00E0E806E020101D002014C535E
:100A400001E000D04CC26BF100011200F2CF0DF0BA
:100A5000F29EE824F76AF736710FF66E0A0EF72257
:100A60000A00F550FA6E0800F5500DBEF28EF96ED0
:100A7000F209F809000A080A100A240A2C0A340AA2
:100A8000C290010E926E000E936EFF0E946E956EE4
:100A9000969096929694186A196A1A6A1B6AB50E0D
:100AA000CD6E000E0609CA6E770ECB6E9E909E929A
:100AB0009D809D829D8AC00EF212806A02014C6B5D
:100AC00000018FDFEDEF2FF0F2CF56F2F29E55C20C
:100AD000A9FFA69CA69EA680A850020156BFF28E32
:100AE000016E000112002AC255F2EEDF0150120021
:100AF000036A02013D515B0FE96E000E0320EA6EAE
:100B00003EC2EFFF00011200F250006EF29E3BC2A7
:100B1000A9FF3CC2A8FFA69CA69EA6840F01550E65
:100B2000A76EAA0EA76EA682A6B2FED7A694005004
:100B3000F2123BC23DF23CC23EF20001D9DF12008C
:100B4000F2CF2DF2F29E2AC2A9FFA69CA69EA680F5
:100B5000A85002012DBFF28E2C6F2B512C5DD8B402
:100B600007D02AC23BF22BC23CF20001CDDF0201CA
:100B70000001120002012E51040DF3CF37F2386B41
:100B8000385103081CE3020E3A6F330E396F3851A7
:100B90003925016E000E3A21036E01C039F23A6F19
:100BA000385137253B6F556F00018EDF3AC2EAFF9F
:100BB00039C2E9FF01C0EFFF0201382BE1D7335101
:100BC0002F5D0AE13451305D07E13551315D04E1BB
:100BD0003651325DD8B41FD0386B385103081BE34F
:100BE00038513725396F020E3B6F2F0E3A6F38514F
:100BF0003A25016E000E3B21036E01C0E9FFEA6E4B
:100C0000EFCF3AF239C23BF23AC23CF200017CDF4C
:100C10000201382BE2D70001120002011F6B1F3DB9
:100C200001D008D01FC22AF22B6B000189DF02011C
:100C30001F2BF5D7040E1F6F1F5112080EE31FC2A2
:100C40002EF2326B0A0E316FAE0E306F600E2F6FC8
:100C5000000190DF02011F2BEFD7130E1F6F1F51F2
:100C60001D080BE31FC22EF2326B316B306B2F6B02
:100C7000000180DF02011F2BF2D71E0E1F6F1F51D4
:100C800028082DE31E0E1F5D040DF350036AF2CFFA
:100C900020F2F29E000157EC00F0006E0900F5CF43
:100CA00001F00900F5CF02F00900F5CF03F00201D1
:100CB00020BFF28E03C023F202C022F201C021F253
:100CC000206F1FC22EF203C032F202C031F201C007
:100CD00030F22F6F00014EDF02011F2BD0D7290EFB
:100CE0001F6F1F5133082DE3290E1F5D040DF350B4
:100CF000036AF2CF20F2F29E000157EC00F0006E82
:100D00000900F5CF01F00900F5CF02F00900F5CF99
:100D100003F0020120BFF28E03C023F202C022F2D0
:100D200001C021F2206F1FC22EF203C032F202C0B6
:100D300031F201C030F22F6F00011CDF02011F2BC6
:100D4000D0D7E10E2A6F030E2B6F0001F9DEE20E01
:100D500002012A6F030E2B6F0001F2DEE30E020187
:100D60002A6F030E2B6F0001EBDEE00E02012A6FEB
:100D7000010E2B6F0001E4DEE80E02012A6F2B6BDF
:100D80000001DEDEE90E02012A6F010E2B6F000169
:100D9000D7DEEC0E02012A6F030E2B6F0001D0DEAE
:100DA000EA0E02012A6F010E2B6F0001C9DEED0E63
:100DB00002012A6F010E2B6F0001C2DEEE0E02014E
:100DC0002A6F020E2B6F0001BBDEEF0E02012A6FAD
:100DD000030E2B6F0001B4DEF00E02012A6F040E29
:100DE0002B6F0001ADDEF10E02012A6F050E2B6F95
:100DF0000001A6DEF20E02012A6F060E2B6F000123
:100E00009FDEF30E02012A6F070E2B6F000198DEA2
:100E1000F40E02012A6F080E2B6F000191DEF50E11
:100E200002012A6F090E2B6F00018ADEF60E020105
:100E30002A6F0A0E2B6F000183DEF70E02012A6F64
:100E40000B0E2B6F00017CDEE60E02012A6F130EE3
:100E50002B6F000175DEE70E02012A6F030E2B6F68
:100E600000016EDE02012A69010E2B6F000168DEAF
:100E700096EF08F0020130513203F3CF01F0F4CFC6
:100E800000F03303F350002631513203F3500020B9
:100E9000026E0001120002011F6B206B2051070837
:100EA00037E3316B20C230F2336BA40E326F000196
:100EB000E1DF02C022F201C021F202C003F0020110
:100EC0000150F2CF23F2F29E02C0F7FF00014BEC7B
:100ED00001F0006E0900F5CF01F00900F5CF02F036
:100EE0000900F5CF03F0020123BFF28E03C026F202
:100EF00002C025F201C024F2236F235307E12453DB
:100F000005E1255303E1265301E11F2B202BC6D712
:100F10001F51080802E11B8401D01B940001EEEF71
:100F200008F002014B51040DF3CF4CF24D6B4D51C3
:100F300003081CE3020E536F4E0E526F4D515225A3
:100F4000016E000E5321036E01C052F2536F4D51DA
:100F50004C25546F556F0001B7DD53C2EAFF52C2F2
:100F6000E9FF01C0EFFF02014D2BE1D74EC200F0B7
:100F70004FC201F050C202F051C203F00001120052
:100F80000201242D08D01E0E2525266F4B6F00016F
:100F9000C8DF0DD002012451020808E1290E2525E1
:100FA000266F4B6F0001BDDF02D00201000112006D
:100FB000040E02012D252E6F4B6F0001B2DF1200CF
:100FC000010E0201246F44C025F20001D9DF03C0E5
:100FD00023F002C022F001C021F000C020F0020E78
:100FE0000201246F45C025F20001CADF03C027F0CB
:100FF00002C026F001C025F000C024F047C02DF249
:10100000D7DF03C02BF002C02AF001C029F000C0D6
:1010100028F01BB47AD00201316B5AC030F2336B26
:10102000A40E326F000126DF02C02DF201C02CF2A7
:1010300002C003F002010150F2CF2EF2F29E02C074
:10104000F7FF00014BEC01F0006E0900F5CF01F055
:101050000900F5CF02F00900F5CF03F002012EBF21
:10106000F28E03C031F202C030F201C02FF22E6FB7
:101070002E530DE12F530BE1305309E1315307E1BA
:101080005A50060802E35A2A01D05A6AC5D7595065
:10109000010802E3010E596E5950270802E2280E9A
:1010A000596E316B5AC030F2336BA40E326F0001AF
:1010B000E1DE02C02DF201C02CF20201316B59C0F9
:1010C00030F2336B040E326F0001D4DE02C003F045
:1010D000015002012C25016E2D5103220150F2CF47
:1010E0002CF2F29E03C0F7FF00014BEC01F0006E02
:1010F0000900F5CF01F00900F5CF02F00900F5CFA6
:1011000003F002012CBFF28E000103C02FF002C0D9
:101110002EF001C02DF000C02CF0120002012A694F
:101120000001E1DC012C01D001D077D50F0E426E19
:10113000E00E02012A6F0001D6DC01C043F04350EB
:10114000030801E1189AE10E02012A6F0001CBDCCD
:1011500001C044F0E20E02012A6F0001C4DC01C0AC
:1011600045F0E30E02012A6F0001BDDC01C046F02C
:10117000E50E02012A6F0001B6DC01C047F0ED0E5A
:1011800002012A6F0001AFDC01C04AF0EE0E02013D
:101190002A6F0001A8DC01C04BF0EA0E02012A6FA1
:1011A0000001A1DC1B9E01B01B8EE80E02012A6F1C
:1011B000000199DC199C01B0198CE90E02012A6F1B
:1011C000000191DC1A9801B01A88E40E02012A6F1E
:1011D000000189DC1A9C01B01A8C5DD6E60E020172
:1011E0002A6F000180DC01C059F0E70E02012A6F6E
:1011F000000179DC01C05AF0EF0E02012A6F0001F4
:1012000072DC01C050F0F00E02012A6F00016BDCAD
:1012100001C051F0F10E02012A6F000164DC01C02F
:1012200052F0F20E02012A6F00015DDC01C053F0A2
:10123000F30E02012A6F000156DC01C054F0F40ED7
:1012400002012A6F00014FDC01C055F0F50E0201CA
:101250002A6F000148DC01C056F0F60E02012A6F29
:10126000000141DC01C057F0F70E02012A6F0001B6
:101270003ADC01C058F0A4DE189C189E19901200A8
:101280004BC281FF6BC16CF1010E02014C6F00017A
:10129000F1EC04F06CC14CF2F1EC04F012004BC222
:1012A00081FF818E00D0819E1200650E02014B6F7E
:1012B0000001E6DF5D0E02014B6F0001E1DF4C0E25
:1012C00002014B6F0001DCDF600E02014B6F000179
:1012D000E6DF510E02014B6F0001E1DF4E0E02010D
:1012E0004B6F0001DCDFF1EF2FF002014A6B83A8A6
:1012F00002D0080E4A2783AA02D0040E4A2783ACE4
:1013000002D0020E4A2783AE02D0010E4A274AC2FB
:1013100001F0000112000201316B84928494809AE2
:10132000848000D000D0000082A402D0010E316F72
:1013300082A202D0020E316F82A002D0030E316F62
:101340008490848200D000D0000082A402D0040ED9
:10135000316F82A202D0050E316F82A002D0060E3C
:10136000316F8492848400D000D0000082A402D027
:10137000070E316F82A202D0080E316F82A002D018
:10138000090E316F8494808A00D000D0000082A2C0
:1013900002D00A0E316F849484928490809A31C274
:1013A00001F000011200030E0201325F0AE3020E97
:1013B000EA6E320EE96EEF5004E001D000D0EF2E5D
:1013C000FDD7000112000201316B83B204D082BA52
:1013D00002D00B0E316F83B204D082BC02D00C0E4F
:1013E000316F83A206D082AA04D082AC02D00D0E47
:1013F000316F83A204D082BA02D00E0E316F83A265
:1014000004D082BC02D00F0E316F31C201F0000156
:1014100012006BC16CF1040E02014C6F0001F1EC83
:1014200004F06CC14CF2F1EC04F01200020EEA6E12
:10143000310EE96EEF500DE0060E016E006A002ECF
:10144000FED7012EFBD77B0E006E002EFED7EF2EAF
:10145000F3D7120002012D6B2E6B2C51020802E112
:101460002F6B02D0040E2F6F82A414D182B4FED74A
:1014700018B00AD000014FDF01C0A3F10101A3534E
:1014800001E01880A56B020118A0A1D0000143DF84
:10149000015213E00101A53D01D001D0A52B0201AD
:1014A0002C51020809E0020E316FF90E326F000173
:1014B0007ADF0201312FF9D700010101A5510201A4
:1014C0002F5D2FE22C530EE10101A551630804E3C7
:1014D000010E02012E6F0101A551630804E2020E04
:1014E00002012E6F010102012C2D0ED00101A55128
:1014F000630804E3010E02012E6F0101A551630888
:1015000004E2030E02012E6F010102012C510208B8
:1015100008E1A3C12DF20101A36B02012DC201F06C
:10152000D2D02E2D24D00001F6DE015221E102019D
:10153000306B305109080AE30001EDDE015203E08F
:10154000020104D000010201302BF3D73051090809
:101550000EE218A403D02D6B189402D0A3C12DF273
:101560000101A36B189002012DC201F0ACD0000163
:1015700002012E51020811E10101A35305E01E0EE4
:10158000A32502012D6F0101A36B010EA56F188425
:10159000189002012DC201F096D02E51030817E1D8
:1015A0000101A35305E01E0EA32502012D6F0101C9
:1015B0000001B1DE015206E1010E0101A56F020139
:1015C0002D6B0001188402012DC201F07CD018B6E9
:1015D0000AD00001F8DE01C0A4F10101A45301E02A
:1015E0001886A66B020118A655D00101A63D01D0B0
:1015F00001D0A62BA2C132F20001D5DE0101A65313
:101600000EE0A6511D0804E3010E02012E6F010138
:10161000A6511D0804E2020E02012E6F0101020113
:101620002E2D17D00001CFDE015214E118A407D0EF
:101630001894000E016E020146D004D00001A4C12E
:101640002DF202010101A46B189602012DC201F0D6
:101650003AD0000102012E5102081CE10001B3DE64
:1016600001C0A4F1050E0101A42502012D6F0001A6
:10167000AADE015205E002012D51120807E1000126
:10168000189602012D51120801E02D6B18842DC20D
:1016900001F019D083A013D01BBC10D00001B9DE1B
:1016A00083B0FED7C80E0201316F0001BFDE18A85B
:1016B00002D0189801D0188803D0020118980001B0
:1016C000000E016E02010001120002012D51010AFB
:1016D000000107E0030A0BE0010A0FE0060A13E02D
:1016E00016D0010E01015F6F0F0E676F14D00C0E44
:1016F00001015F6F0F0E676F0ED0020E01015F6F69
:1017000033C267F108D033C267F1010104D00F0E74
:1017100001015F6F676F02012E510F0805E20F0E86
:101720000101606F04D002012EC260F1010132C2DA
:101730003FF231C23EF230C23DF22FC23CF23FC214
:1017400043F23EC242F23DC241F23CC240F20201CB
:10175000356B43530DE142510E0815E2FF0A08E1D3
:101760004151410810E2FF0A03E140513F080BE2FA
:10177000400E405F420E415B0F0E425B000E435B2A
:10178000010E3527E6D7366B43530DE14251000871
:1017900015E2FF0A08E14151850810E2FF0A03E162
:1017A00040519F080BE2A00E405F860E415B010E88
:1017B000425B000E435B010E3627E6D7376B43537F
:1017C0000AE1425308E1415126080FE2FF0A03E112
:1017D00040510F080AE2100E405F270E415B000ED9
:1017E000425B435B010E3727EAD7386B43530AE16C
:1017F000425308E1415102080FE2FF0A03E1405160
:10180000E7080AE2E80E405F030E415B000E425B10
:10181000435B010E3827EAD7396B435307E1425344
:1018200005E1415303E14051630809E2640E405F62
:10183000000E415B425B435B010E3927EED73A6BEA
:10184000435307E1425305E1415303E14051090885
:1018500009E20A0E405F000E415B425B435B010EF2
:101860003A27EED73B6B435307E1425305E141531F
:1018700003E14051000809E2010E405F000E415BA8
:10188000425B435B010E3B27EED734510208D8A0E0
:1018900057D032530DE131510F080AE307E13051BF
:1018A000420806E303E12F513F0802E30F0E356FB4
:1018B00032530DE1315101080AE307E13051860846
:1018C00006E303E12F519F0802E30F0E366F3253F8
:1018D0000BE1315309E13051270806E303E12F51B1
:1018E0000F0802E30F0E376F32530BE1315309E15A
:1018F0003051030806E303E12F51E70802E30F0E1E
:10190000386F325309E1315307E1305305E12F516C
:10191000630802E30F0E396F325309E1315307E1D7
:10192000305305E12F51090802E30F0E3A6F2F5390
:1019300007E1305305E1315303E1325301E13B6BE1
:101940003451010A00012FE0030A3AE0010A47E09E
:10195000070A53E0010A5FE00C0A67E0030AD8B403
:1019600071D0010AD8B47BD0070AD8B487D0010A55
:10197000D8B493D0030AD8B49FD0010AD8B4ABD05E
:101980001F0AD8B4B7D0010AD8B4C3D035C261F1A8
:1019900036C262F137C263F138C264F139C265F10F
:1019A0003AC266F1C4D036C261F137C262F138C2C0
:1019B00063F139C264F13AC265F13BC266F1B7D056
:1019C0000F0E0101616F010E5A24626F0F0E636FDB
:1019D0003AC264F13BC265F1666F0001A8D038C21B
:1019E00061F139C262F13AC263F13BC264F10F0E98
:1019F0000101656F666F00019AD00F0E0101616FE2
:101A0000626F38C263F139C264F13AC265F13BC218
:101A100066F100018CD00F0E0101616F626B636B88
:101A2000646B656B666F000182D035C261F136C2AE
:101A300062F137C263F138C264F139C265F13AC26A
:101A400066F175D036C261F137C262F138C263F116
:101A500039C264F13AC265F13BC266F168D00F0E3B
:101A60000101616F36C262F137C263F138C264F1BD
:101A700039C265F13AC266F1000159D035C261F14F
:101A80000F0E0101626F37C263F138C264F139C2CF
:101A900065F13AC266F100014AD035C261F136C241
:101AA00062F10F0E0101636F38C264F139C265F152
:101AB0003AC266F100013BD035C261F136C262F133
:101AC00037C263F10F0E0101646F39C265F13AC28A
:101AD00066F100012CD035C261F136C262F137C225
:101AE00063F138C264F10F0E0101656F3AC266F10D
:101AF00000011DD035C261F136C262F137C263F117
:101B000038C264F139C265F10F0E0101666F000140
:101B10000ED036C261F137C262F138C263F139C208
:101B200064F13AC265F10F0E0101666F0001120007
:101B300002012D6B2C512D5D0AE200016ADCC80EFA
:101B40000201316F000172DC02012D2BF3D700017D
:101B500012009D8202011A811B6BEC0E2A6F00019C
:101B600073EC05F001C01CF21F6A1E6A1D6A1C6A34
:101B700002011953D8A4C5D0000175EC09F001C0C9
:101B800040F002011AB137D01D6B090E1E6F000123
:101B900075EC09F001C040F04150405C04E1000EDA
:101BA000016E25D024D0010E0101792740C041F0FB
:101BB000795102011E5D18E21D5308E182A803D08D
:101BC000010E1C2702D0010E1C5F07D082A803D093
:101BD000010E1C5F02D0010E1C270101796B010E62
:101BE000016E000104D00201000E016E000102012D
:101BF0001A9101B01A811AB107D0010E2C6F0001A1
:101C000029DC01C01BF202011B5309E01B51030830
:101C100001E11C2B1B51020801E11C071A811AA1CA
:101C20004ED0010E1C5DF80F4AE2080F0001ECEFE8
:101C30000EF01F6A1E6A040E1D6EB00E1C6E0201AD
:101C40001A813DD01F6A1E6A090E1D6E600E1C6E41
:101C500002011A8134D01F6A1E6A120E1D6EC00E58
:101C60001C6E02011A812BD01F6A1E6A250E1D6E82
:101C7000800E1C6E02011A8122D01F6A1E6A4B0E52
:101C80001D6E1C6A02011A811AD01F6A1E6A960E06
:101C90001D6E1C6A02011A8112D01F6A1E6AE10EB3
:101CA0001D6E1C6A02011A810AD01F6A010E1E6E87
:101CB000C20E1D6E1C6A02011A8101D002011C5362
:101CC00003E1010E1C6F05D01C51080802E2080E4A
:101CD0001C6F1AA111D02D692E691FC032F21EC0CF
:101CE00031F21DC030F21CC02FF2010E336F346F81
:101CF0000001EBDC02011A911B510408D8B401D099
:101D000041D71C51010A00010FE0030A14E0010A47
:101D100019E0070A1EE0010A23E0030A28E0010A8D
:101D20002DE00F0A32E038D0FF0EAF6EA20EAC6E7F
:101D3000900EAB6E37D0810EAF6EA20EAC6E900ED1
:101D4000AB6E30D0400EAF6EA20EAC6E900EAB6E8E
:101D500029D0810EAF6EA60EAC6E900EAB6E22D067
:101D6000400EAF6EA60EAC6E900EAB6E1BD0200E6A
:101D7000AF6EA60EAC6E900EAB6E14D0150EAF6E9D
:101D8000A60EAC6E900EAB6E0DD00A0EAF6EA60E08
:101D9000AC6E900EAB6E06D0400EAF6EA20EAC6E67
:101DA000900EAB6E1CC24CF00201195313E1EC0E05
:101DB0002A6F1CC22BF20001A0EC05F0020E0201FA
:101DC0002C6F0001B5DEC80E0201316F000116EC68
:101DD0000AF0020100011200F2CF0DF0F29EE82499
:101DE000F76AF736FD0FF66E1D0EF7220A00F55062
:101DF000FA6E0800F5500DBEF28EF96E321C441CCE
:101E0000561C681C7A1C8A1C9A1CAA1C9EA8FED709
:101E100002012451AD6EACA2FED7020E256FCF0E8B
:101E2000326F0001D3EC09F00201252FF8D7000131
:101E300012000201226B225118081BE3036A22518F
:101E4000D10FE96E010E0320EA6EEFCF23F223C219
:101E500024F20001DBDF036A02012251D10FE96E97
:101E6000010E0320EA6EEF503B08D8B402D0222BBB
:101E7000E2D7226B225118080BE3036A2251D10FDB
:101E8000E96E010E0320EA6E300EEF6E222BF2D7C0
:101E90000001120002011991400EAF6EA20EAC6E4D
:101EA000900EAB6E9D9A640E316F000116EC0AF035
:101EB000460E0101D16F540ED26F430ED36F460E02
:101EC000D46F470ED56F3B0ED66F0001B2DF9D8AEF
:101ED000000E020119B1010E016E00011BEF30F07E
:101EE0006BC16CF1030E02014C6F0001F1EC04F0C8
:101EF0006CC14CF2F1EC04F012001AAC0ED0140ECE
:101F0000482402014A6F4B6F000191EC07F001C0B9
:101F100002F000C001F00BD00AD0130E02014B6F8B
:101F2000000191EC07F001C002F000C001F01200C6
:101F3000016A026A006A036A02014D5102E14C51D2
:101F400018E0100E4E6FD8904A374B3700360336E4
:101F50004D51035C02E14C51005C07E34C51005EC3
:101F6000D8A003064D51035ED880013602364E2FAD
:101F7000EAD70001120081CF6DF1D5EF0FF06BC1F0
:101F80006CF1020E02014C6F0001F1EC04F06CC127
:101F90004CF2F1EC04F0DDEF0FF06DC181FF0101B7
:101FA0006D6B0001DEEF0FF0E6D7700E02014B6F94
:101FB0004A514B25816E0001E2D7EFD742EF12F074
:101FC000700E02014C6F4B514C25816E00011200C6
:101FD00034C271F133C270F132C26FF131C26EF1AD
:101FE00034C23AF233C239F232C238F231C237F275
:101FF00002013C6B3B6B3E6B3D6B355309E00101CD
:10200000736B726B756B746B766B776B786B0201AD
:10201000363D83D0416B41510908D8A06FD0415162
:10202000030DF350040DF350036AF2CF4AF2F29E0F
:1020300000017AEC00F0006E0900F5CF01F0090014
:10204000F5CF02F00900F5CF03F002014ABFF28E8E
:102050000350345D51E30BE10250335D4DE307E182
:102060000150325D49E303E10050315D45E34151E8
:10207000030DF350010F040DF350036AF2CF4AF23F
:10208000F29E00017AEC00F0006E0900F5CF01F03D
:102090000900F5CF02F00900F5CF03F002014ABFB5
:1020A000F28E3451035C28E30BE13351025C24E3EC
:1020B00007E13251015C20E303E13151005C1CE394
:1020C0004151030DF350020F040DF350036AF2CF98
:1020D0004AF2F29E00017AEC00F0006E0900F5CFA2
:1020E00001F00900F5CF02F00900F5CF03F002017D
:1020F0004ABFF28E486E02D0412B8DD70101765136
:10210000485C09E0776B786B48C081FF0001E8DE2E
:1021100048C076F1010110D0020136C248F0010139
:102120007651485C09E0776B786B48C081FF00010D
:10213000D7DE48C076F101011BB027D00001DDDEFB
:1021400002C04FF001C04EF04F50260815E2FF0AC2
:1021500003E14E500F0810E2100E4E5C006E270E89
:102160004F58036E00500201312703503223000EF6
:102170003323342309D000014E500201315F4F5008
:10218000325B000E335B345B010102013A530DE117
:102190003951000817E2FF0A08E13851850812E2B8
:1021A000FF0A03E137519F080DE2A00E375F860E4C
:1021B000385B010E395B000E3A5B0A0E3B27000EBE
:1021C0003C23E4D73A530AE1395308E13851260851
:1021D00015E2FF0A03E137510F0810E2100E375FD6
:1021E000270E385B000E395B3A5B010E3B27000E71
:1021F0003C23640E3D27000E3E23E4D73A530AE108
:10220000395308E13851020811E2FF0A03E137515E
:10221000E7080CE2E80E375F030E385B000E395B0F
:102220003A5B0A0E3D27000E3E23E8D73A5307E1FA
:10223000395305E1385303E1375163080BE2640E6B
:10224000375F000E385B395B3A5B010E3D27000EAD
:102250003E23ECD73F6B3A5307E1395305E138533E
:1022600003E13751090809E20A0E375F000E385BB7
:10227000395B3A5B010E3F27EED7406B375306E1DF
:10228000385304E1395302E13A5309E0010E375F54
:10229000000E385B395B3A5B010E4027EFD73E51A9
:1022A000000809E2FF0A03E13D51F30804E2F40EDD
:1022B0003D5F010E3E5B300E3D27020E3E23426B1A
:1022C000436B446B456B466B476B486B496B010135
:1022D000725102013D5D05E10101735102013E5D54
:1022E00034E03EC243F23E314B6F3D314A6F4B33D7
:1022F0004A334B334A334B334A330F0E4B174A5151
:102300000F0B446F3D510F0B456F300E42254A6F46
:102310004B6F000140EC09F0200E020143254A6F8B
:102320004B6F000140EC09F0100E020144254A6F8A
:102330004B6F000140EC09F045C24BF240EC09F054
:102340003EC273F13DC272F10201010174510201FA
:102350003B5D06E10101755102013C5DD8B48AD0B4
:102360004850050834E33CC24BF23BC24AF24D6B85
:10237000050E4C6F0001DCDD02C04BF201C04AF2D9
:102380000C0E02014A27000E4B234B31036E4A31DB
:10239000026E03320232033202320332023202C0D0
:1023A00048F23CC24BF23BC24AF24D6B050E4C6FF9
:1023B0000001BEDD02C04BF201C04AF20C0E020168
:1023C0004A27000E4B234A510F0B496F33D03CC2B2
:1023D0004BF23BC24AF24D6B050E4C6F0001A8DD7B
:1023E00002C04BF201C04AF2120E02014A5F000E17
:1023F0004B5B4B31036E4A31026E033202320332C1
:1024000002320332023202C048F23CC24BF23BC2FB
:102410004AF24D6B050E4C6F00018ADD02C04BF293
:1024200001C04AF2120E02014A5F000E4B5B4A5194
:102430000F0B496F300E46254A6F4B6F00014FEC72
:1024400009F0200E020147254A6F4B6F00014FEC47
:1024500009F0100E020148254A6F4B6F00014FEC46
:1024600009F049C24BF24FEC09F03CC275F13BC296
:1024700074F1020140510101785D07E040C24AF267
:10248000000192D540C278F1010102013F510101E2
:10249000775D1BE002013F510101775D08E2010E0B
:1024A00002013F254A6F4B6F00018ADD0101775120
:1024B00002013F5D07E2010E3F254A6F4B6F0001AD
:1024C0007FDD02013FC277F10101000175EC09F0E7
:1024D00001C040F040C041F0120043C028F282A683
:1024E00004D0040E0201282700010201296B2A9161
:1024F0002A932A952A974350010A000103E0030A10
:1025000004E005D044C026F202D045C026F2020104
:10251000282D01D003D02851020859E12651040D7D
:10252000F350036AF2CF2CF2F29E000157EC00F058
:102530000900F5CF01F00900F5CF02F00900F5CF51
:1025400003F002012CBFF28E03C01CF202C01BF28A
:1025500001C01AF2196F2651090807E1206B1F6BA1
:10256000C30E1E6F500E1D6F1ED0010E2625040DCA
:10257000F350036AF2CF2CF2F29E000157EC00F008
:102580000900F5CF01F00900F5CF02F00900F5CF01
:1025900003F002012CBFF28E03C020F202C01FF232
:1025A00001C01EF21D6F4350040DF350036A1C0F4F
:1025B000E96E000E0320EA6EEFCF21F2ECCF22F29B
:1025C000ECCF23F2ECCF24F2010E256F2A8528519F
:1025D0000308D8A462D047C02DF20001D8EC07F060
:1025E00003C01CF202C01BF201C01AF200C019F2B3
:1025F00047500E080EE102012D6B0001D8EC07F0E8
:1026000003C020F202C01FF201C01EF200C01DF282
:1026100010D0010E472402012C6F2D6F0001D8EC61
:1026200007F003C020F202C01FF201C01EF200C07A
:102630001DF202011C51205D14E30BE11B511F5DD3
:1026400010E307E11A511E5D0CE303E11D51195D12
:1026500008E21CC224F21BC223F21AC222F219C2DF
:1026600021F220511C5D14E30BE11F511B5D10E3AF
:1026700007E11E511A5D0CE303E119511D5D08E2EB
:1026800020C224F21FC223F21EC222F21DC221F276
:1026900047C027F2010E256F2A852851040804E05F
:1026A00028510808D8A48AD059C027F2020E256FF5
:1026B0001BB47BD0316B5AC030F2336BA40E326F37
:1026C00000013AEC07F002C02DF201C02CF202C06A
:1026D00003F002010150F2CF2EF2F29E02C0F7FF8A
:1026E00000014BEC01F0006E0900F5CF01F009008C
:1026F000F5CF02F00900F5CF03F002012EBFF28EF4
:1027000003C031F202C030F201C02FF22E6F2E53FF
:102710000DE12F530BE1305309E1315307E15A50DA
:10272000060802E35A2A01D05A6AC4D75950010850
:1027300002E3010E596E5950270802E2280E596E25
:10274000316B5AC030F2336BA40E326F00013AEC99
:1027500007F002C02DF201C02CF20201316B59C00A
:1027600030F2336B040E326F00013AEC07F002C016
:1027700003F0015002012C25016E2D51032201505E
:10278000F2CF2CF2F29E03C0F7FF00014BEC01F0F8
:10279000006E0900F5CF01F00900F5CF02F0090045
:1027A000F5CF03F002012CBFF28E03C024F202C069
:1027B00023F201C022F200C021F22A852851070825
:1027C00013E147C027F2010E256F47C02DF200012B
:1027D000D8EC07F003C024F202C023F201C022F2B9
:1027E00000C021F202012A952851050803E0285172
:1027F00006084EE12651040DF350036AF2CF2CF285
:10280000F29E000157EC00F00900F5CF01F009003D
:10281000F5CF02F00900F5CF03F002012CBFF28ED4
:1028200003C01CF202C01BF201C01AF2196F26513C
:10283000040DF350036AF2CF2CF2F29E000128EC53
:1028400001F00900F5CF01F00900F5CF02F0090011
:10285000F5CF03F002012CBFF28E03C020F202C0BC
:102860001FF201C01EF21D6F4350040DF350036AA6
:102870001C0FE96E000E0320EA6EEFCF21F2ECCFC1
:1028800022F2ECCF23F2ECCF24F2010E256F2A8541
:102890001D51195D11E11E511A5D0EE11F511B5DA5
:1028A0000BE120511C5D08E11898020E2C6F00010D
:1028B00098EC0DF0A3D202011C51205D0DE30BE159
:1028C0001B511F5D09E307E11A511E5D05E303E19A
:1028D0001D51195D01E21B8220511C5D0DE30BE1CE
:1028E0001F511B5D09E307E11E511A5D05E303E17A
:1028F00019511D5D01E21B922A9919A805D02AB928
:1029000002D0292B2A8904D0293D01D0296B2A998C
:102910002AA504D02A9719B82A8701D02A872551D9
:10292000010A000103E0030A30E05AD0000E020160
:102930002AB7010E010A000103E0010A14E024D0C5
:1029400043C02DF202012E6924C232F223C231F2B9
:1029500022C230F221C22FF227C233F2346B0001BF
:1029600065EC0BF011D002012D692E6924C232F200
:1029700023C231F222C230F221C22FF227C233F237
:10298000346B000165EC0BF02BD0000E02012AB76E
:10299000010E010A000103E0010A12E020D0030E3B
:1029A00002012D6F2E69326B316B306B27C22FF213
:1029B0000F0E336F020E346F000165EC0BF00FD079
:1029C00002012D692E69326B316B306B27C22FF2F9
:1029D0000F0E336F020E346F000165EC0BF000D068
:1029E00002012C6924530DE123512F0810E2FF0A44
:1029F00008E12251D3080BE2FF0A03E1215100084C
:102A000006E2246B300E236FD40E226F216B245309
:102A10000AE1235308E122510F0805E3246B236BDD
:102A2000100E226F216B24C234F223C233F222C271
:102A300032F221C231F2356B2CC236F20001E8ECE1
:102A40000FF083A401D01B88010E02012C6F00013E
:102A50002AEC0AF001C02BF21BB88BD002012851DE
:102A6000040A00014EE0030AD8B45CD00F0AD8B4BF
:102A700069D000D000D000001BA220D0020120515C
:102A8000245D15E30BE11F51235D11E307E11E51A6
:102A9000225D0DE303E121511D5D09E21CC224F218
:102AA0001BC223F21AC222F219C221F206D0020E70
:102AB0002127000E22232323242300011BB220D030
:102AC00002012451205D15E30BE123511F5D11E349
:102AD00007E122511E5D0DE303E11D51215D09E275
:102AE0001CC224F21BC223F21AC222F219C221F222
:102AF00006D0020E215F000E225B235B245B0001E7
:102B000038D0320E0201316F000116EC0AF00201DA
:102B10002751270802E3272B02D0010E276F2A81B5
:102B2000000127D0C80E0201316F000116EC0AF037
:102B3000020127510D0802E3272B01D0276B2A83BE
:102B4000000117D0320E0201316F000116EC0AF0BD
:102B500002012751270802E3272B09D05A50060803
:102B600003E3010E5A2601D05A6A010E276F2A810B
:102B700000011BA887D002012B510B0806E02B5146
:102B8000030803E02B51210833E14350040A0001FC
:102B90000CE0030A14E00F0A1BE00A0E02012127D1
:102BA000000E22232323242323D0020127512708A8
:102BB00002E3272B02D0010E276F2A8119D00201D0
:102BC00027510D0802E3272B01D0276B2A8310D051
:102BD00002012751270802E3272B0AD05A50060882
:102BE00003E3010E5A2601D05A6A010E276F2A818B
:102BF0002B510C0806E02B51020803E02B51200852
:102C000033E14350040A00010CE0030A14E00F0A08
:102C10001BE00A0E0201215F000E225B235B245B96
:102C200023D002012751010802E2270702D0280E13
:102C3000276F2A8119D00201275302E0270702D00B
:102C40000E0E276F2A8310D002012751010802E2DD
:102C500027070AD05A5203E0010E5A5E02D0070E2F
:102C60005A6E280E276F2A812B5302E183A401D0CC
:102C7000296B2951030805E283B401D01B98040E87
:102C8000296F000102012AA186D01BB47BD0316BD1
:102C90005AC030F2336BA40E326F00013AEC07F0E9
:102CA00002C02DF201C02CF202C003F0020101505B
:102CB000F2CF2EF2F29E02C0F7FF00014BEC01F0C2
:102CC000006E0900F5CF01F00900F5CF02F0090010
:102CD000F5CF03F002012EBFF28E03C031F202C025
:102CE00030F201C02FF22E6F2E530DE12F530BE166
:102CF000305309E1315307E15A50060802E35A2ADA
:102D000001D05A6AC4D72751010802E3010E276F88
:102D10002751270802E2280E276F316B5AC030F284
:102D2000336BA40E326F00013AEC07F002C02DF2B3
:102D300001C02CF20201316B27C230F2336B040E5A
:102D4000326F00013AEC07F002C003F001500201BB
:102D50002C25016E2D5103220150F2CF2CF2F29E50
:102D600003C0F7FF00014BEC01F0006E0900F5CF46
:102D700001F00900F5CF02F00900F5CF03F00201E0
:102D80002CBFF28E03C024F202C023F201C022F253
:102D900000C021F22A912AA30FD027C22DF20001F0
:102DA000D8EC07F003C024F202C023F201C022F2E3
:102DB00000C021F202012A9318B80BD0000109ECDF
:102DC0000AF0C80E0201316F000116EC0AF003D0C0
:102DD000020193D5000183A411D04350040DF35098
:102DE000036A1C0FE96E000E0320EA6E21C2EFFF9A
:102DF00022C2ECFF23C2ECFF24C2ECFF4AEF30F00A
:102E0000E00E02012A6F000173EC05F001C029F207
:102E10000201295303E0295104080AE2010E296F37
:102E2000E00E2A6F29C22BF20001A0EC05F002018E
:102E3000292D01D0189A2951020801E1188A29C2C6
:102E400001F0000112000201245310E0E60E2A6F87
:102E5000000173EC05F001C059F0E70E02012A6F82
:102E6000000173EC05F001C05AF002011BB47BD0E5
:102E7000316B5AC030F2336BA40E326F00013AEC62
:102E800007F002C02DF201C02CF202C003F00201D3
:102E90000150F2CF2EF2F29E02C0F7FF00014BEC80
:102EA00001F0006E0900F5CF01F00900F5CF02F046
:102EB0000900F5CF03F002012EBFF28E03C031F2FC
:102EC00002C030F201C02FF22E6F2E530DE12F53AE
:102ED0000BE1305309E1315307E15A50060802E390
:102EE0005A2A01D05A6AC4D75950010802E3010E88
:102EF000596E5950270802E2280E596E316B5AC09C
:102F000030F2336BA40E326F00013AEC07F002C0CE
:102F10002DF201C02CF20201316B59C030F2336B3B
:102F2000040E326F00013AEC07F002C003F00150CA
:102F300002012C25016E2D5103220150F2CF2CF2FB
:102F4000F29E03C0F7FF00014BEC01F0006E090098
:102F5000F5CF01F00900F5CF02F00900F5CF03F03D
:102F600002012CBFF28E03C02FF002C02EF001C070
:102F70002DF000C02CF0000112004350040813E1B2
:102F80005A50060802E35A2A01D05A6AE70E020193
:102F90002A6F5AC02BF20001A0EC05F0010E0201CD
:102FA000246F000150DFE3EF17F04350040802E103
:102FB000E4D709D04350040806E019B003D0189EA6
:102FC000198001D0199012004350030806E1000E49
:102FD00018BA010E010F436E02D0030E436E47C0B4
:102FE0002DF2D8EC07F003C02BF002C02AF001C08C
:102FF00029F000C028F0E00E02012A6F43C02BF236
:103000000001A0EC05F01200040E020127252C6F30
:103010002E6F2BC232F22AC231F229C230F228C2FC
:103020002FF20001BAEC05F056EF18F00201246B04
:103030002351245D1DE2040E4C6F0001F1EC04F0FD
:1030400047C067F1640E0201316F000116EC0AF00F
:103050006CC14CF2F1EC04F00F0E0101676F640ECD
:103060000201316F000116EC0AF00201242BE0D7B7
:10307000000112004350040DF350036A1C0FE96E67
:10308000000E0320EA6EEFCF23F2ECCF24F2ECCF58
:1030900025F2ECCF26F247C027F226C22BF225C23A
:1030A0002AF224C229F223C228F2AED7020E02016C
:1030B000236F0001BBDF120018BC08D0050E02010F
:1030C0004C6F0001F1EC04F0188C06D002014C6B3F
:1030D0000001F1EC04F0189C1200432C03D0020E06
:1030E000436E05D04350020802E1010E436EE00E2C
:1030F00002012A6F43C02BF20001A0EC05F0010E83
:10310000435C189AE8B0188A12004350040DF3503B
:10311000036A1C0F016E000E032201C023F203C0DC
:1031200024F247C02DF20001D8EC07F024C2EAFFD8
:1031300023C2E9FF00C0EFFF01C0ECFF02C0ECFFBB
:1031400003C0ECFF020E0201236F00016FDF1200CB
:103150000201242D10D01E0E25252A6F2E6F29C2A4
:1031600032F228C231F227C230F226C22FF2000119
:10317000BAEC05F002012451020810E1290E2525C0
:103180002A6F2E6F29C232F228C231F227C230F2E2
:1031900026C22FF20001BAEC05F002010001120074
:1031A000020123530CE143C023F2432C01D003D08E
:1031B0004350020804E182A602D0040E2327010E28
:1031C000235DFA0FD8B086D0060F00016CEF19F01E
:1031D000010E0201246F44C025F223C029F222C04F
:1031E00028F221C027F220C026F20001B1DF4450AE
:1031F000080802E3442A01D0446A010E0201246F48
:1032000044C025F20001C0EC07F003C023F002C067
:1032100022F001C021F000C020F002015BD0020EBC
:103220000201246F45C025F227C029F226C028F2EA
:1032300025C027F224C026F200018ADF4550080885
:1032400002E3452A01D0456A020E0201246F45C0FF
:1032500025F20001C0EC07F003C027F002C026F001
:1032600001C025F000C024F0020134D047500D0801
:1032700002E3472A01D0476A47C02DF2D8EC07F095
:1032800003C02BF002C02AF001C029F000C028F0D2
:10329000020120D05950270802E3592A02D0010E1A
:1032A000596E0201246B0001CEDD020113D0500ED5
:1032B0002026C30E2122000E2222232202010AD040
:1032C000500E2426C30E2522000E2622272202019C
:1032D00001D0020100011200F2CF0DF0F29EE824AD
:1032E000F76AF736FD0FF66E320EF7220A00F55038
:1032F000FA6E0800F5500DBEF28EF96ED0311E3216
:103300006C329432AE32C032020123530CE143C01E
:1033100023F2432C01D003D04350020804E182A6DB
:1033200002D0040E23272351010A00010DE0030AF5
:1033300031E0010A55E0070A66E0010AD8B46FD00F
:10334000030AD8B474D07AD0010E0201246F44C0AD
:1033500025F223C029F222C028F221C027F220C082
:1033600026F20001F5DE445202E0440602D0090EC6
:10337000446E010E0201246F44C025F20001C0EC2E
:1033800007F003C023F002C022F001C021F000C00A
:1033900020F054D0020E0201246F45C025F227C050
:1033A00029F226C028F225C027F224C026F2000107
:1033B000CFDE455202E0450602D0090E456E020EF0
:1033C0000201246F45C025F20001C0EC07F003C0E4
:1033D00027F002C026F001C025F000C024F02ED056
:1033E000475202E0470602D00E0E476E47C02DF24C
:1033F000D8EC07F003C02BF002C02AF001C029F07E
:1034000000C028F01BD05950010802E2590602D032
:10341000280E596E0201246B000115DD0FD0500EED
:10342000205EC30E215A000E225A235A07D0500E96
:10343000245EC30E255A000E265A275A120018BEC3
:1034400014D01990188E4350040DF350036A1C0FCA
:10345000E96E000E0320EA6EEFCF38F0ECCF39F0C2
:10346000ECCF3AF0ECCF3BF005D0189E3B6A3A6ABD
:10347000396A386A120002013C6B3D6B010E3E6FE7
:10348000DA6AD96A020E416F340E406F020EEA6E9C
:10349000380EE96E41C2E2FF40C2E1FF3EC23FF298
:1034A000D890E550EE02F3503C23F4503D233F2FDB
:1034B000F7D73CC2DEFF3DC23CF23D6BD8B03D2B9E
:1034C000402BD8B4412B3E2B3E510508DFE10001D3
:1034D00012000201336B326B316B306B336B326B2A
:1034E000316B29C230F233C237F232C236F231C206
:1034F00035F230C234F23B6B3A6B396B0A0E386FDF
:103500000001B9DF02012A510024306F000E0120B2
:10351000316F000E0220326F000E0320336F33C272
:1035200037F232C236F231C235F230C234F23B6B7E
:103530003A6B396B0A0E386F00019DDF02012B5187
:103540000024306F000E0120316F000E0220326F18
:10355000000E0320336F33C237F232C236F231C26B
:1035600035F230C234F23B6B3A6B396B0A0E386F6E
:10357000000181DF02012C510024306F000E012078
:10358000316F000E0220326F000E0320336F33C202
:1035900037F232C236F231C235F230C234F23B6B0E
:1035A0003A6B396B0A0E386F000165DF02012D514D
:1035B0000024306F000E0120316F000E0220326FA8
:1035C000000E0320336F33C237F232C236F231C2FB
:1035D00035F230C234F23B6B3A6B396B0A0E386FFE
:1035E000000149DF02012E510024306F000E01203E
:1035F000316F000E0220326F000E0320336F33C292
:1036000037F232C236F231C235F230C234F23B6B9D
:103610003A6B396B0A0E386F00012DDF02012F5112
:103620000024306F000E0120316F000E0220326F37
:10363000000E0320336F30C200F031C201F032C2FD
:1036400002F033C203F000011200000E18BA010E9E
:10365000010F040DF350036A1C0FE96E000E0320E6
:10366000EA6EEFCF30F0ECCF31F0ECCF32F0ECCFB0
:1036700033F0000E18BA010E010F040DF350036A67
:103680001C0FE96E000E0320EA6E28C0EFFF29C070
:10369000ECFF2AC0ECFF2BC0ECFF33C02BF032C094
:1036A0002AF031C029F030C028F0336A326A316A1A
:1036B000306A020E0201236F0001B8DC1200ACC1B7
:1036C0001AF20101AB39006E0F0E001600500F0BFD
:1036D00002011B6F0101AB510F0B02011C6F0101B5
:1036E000AA39006E0F0E001600500F0B02011D6F5D
:1036F0000101AA510F0B02011E6F0101A939006ED1
:103700000F0E001600500F0B02011F6F0101A9518F
:103710000F0B0201206F0101A839006E0F0E001679
:1037200000500F0B0201216F0101A8510F0B020184
:10373000226F1A51010A000120E0030A22E0010A67
:1037400022E0070A22E0010A24E0030A24E0010A39
:1037500024E00F0A29E0010A2EE0030A30E0010A02
:103760005DE0040A5DE0F30AD8B489D0020AD8B457
:103770008ED0010AD8B493D093D017DC09EC0AF0AC
:103780008FD022DC8DD076DC8BD096DC09EC0AF071
:1037900087D0A3DC85D0B9DC83D00201236B000184
:1037A000FFDC09EC0AF07CD00201236B0001ACDDE8
:1037B00009EC0AF075D043DE09EC0AF071D01CC2A6
:1037C00029F21DC22AF21EC22BF21FC22CF220C205
:1037D0002DF221C22EF222C22FF27BDE03C01FF097
:1037E00002C01EF001C01DF000C01CF000EC17F07C
:1037F0000150040DF350036A1C0FE96E000E032004
:10380000EA6E1CC0EFFF1DC0ECFF1EC0ECFF1FC026
:10381000ECFF1F6A1E6A1D6A1C6A42D016DF40D088
:1038200021C229F222C22AF21FC22BF220C22CF29C
:103830001DC22DF21EC22EF21BC22FF24ADE03C0A1
:103840001FF002C01EF001C01DF000C01CF000EC13
:1038500017F00150040DF350036A1C0FE96E000EBF
:103860000320EA6E1CC0EFFF1DC0ECFF1EC0ECFF82
:103870001FC0ECFF1F6A1E6A1D6A1C6A11D009EC8A
:103880000AF019B602D0198601D0199609D00201A2
:103890002A692B690001A0EC05F0FF0001D0FF00B0
:1038A000010E016E52EF26F00201236B226B216B99
:1038B000206B246B256B266B276B286B296B2A6B7F
:1038C000010E1F5DFC0F38E2040F00019CEF1DF09C
:1038D00023C023F222C022F221C021F220C020F214
:1038E00002012AD002011E5309E023C023F222C0A4
:1038F00022F221C021F220C020F208D027C023F2FA
:1039000026C022F225C021F224C020F215D02BC0FF
:1039100023F22AC022F229C021F228C020F202019B
:103920000BD02FC023F22EC022F22DC021F22CC0CA
:1039300020F2020101D00201205307E1215305E1E9
:10394000225303E12353D8B4ADD023C23FF222C2A5
:103950003EF221C23DF220C23CF23FC243F23EC2DF
:1039600042F23DC241F23CC240F2246B43530DE1AE
:1039700042510E0815E2FF0A08E14151410810E2E8
:10398000FF0A03E140513F080BE2400E405F420E48
:10399000415B0F0E425B000E435B010E2427E6D70E
:1039A000256B43530DE14251000815E2FF0A08E17F
:1039B0004151850810E2FF0A03E140519F080BE2E4
:1039C000A00E405F860E415B010E425B000E435B22
:1039D000010E2527E6D7266B43530AE1425308E13F
:1039E000415126080FE2FF0A03E140510F080AE2A5
:1039F000100E405F270E415B000E425B435B010EE1
:103A00002627EAD7276B43530AE1425308E1415185
:103A100002080FE2FF0A03E14051E7080AE2E80E5C
:103A2000405F030E415B000E425B435B010E2727A4
:103A3000EAD7286B435307E1425305E1415303E1C1
:103A40004051630809E2640E405F000E415B425B37
:103A5000435B010E2827EED7296B435307E14253FE
:103A600005E1415303E14051090809E20A0E405FB4
:103A7000000E415B425B435B010E2927EED72A6BA8
:103A8000435307E1425305E1415303E1405100082C
:103A900009E2010E405F000E415B425B435B010E99
:103AA0002A27EED71E5324E0300E24250101EE6FA5
:103AB000300E020125250101EF6F300E020126258F
:103AC0000101F06F300E020127250101F16F300E68
:103AD000020128250101F26F300E020129250101A2
:103AE000F36F300E02012A250101F46F23D0020189
:103AF000300E24250101D66F300E0201252501016B
:103B0000D76F300E020126250101D86F300E020159
:103B100027250101D96F300E020128250101DA6F36
:103B2000300E020129250101DB6F300E02012A252A
:103B30000101DC6F00011200F2CF0DF0F29EE824CB
:103B4000F76AF7365D0FF66E3B0EF7220A00F55066
:103B5000FA6E0800F5500DBEF28EF96ED038E438DA
:103B60000E3922391EC2D1F11FC2D2F10201213D0C
:103B700001D005D0300E21250101D36F0201036A67
:103B80002051D10FE96E010E0320EA6E3B0EEF6E5D
:103B9000000119EC0FF0120000EC17F001C01DF24B
:103BA00002011E6B01C01FF200017EDE460E020103
:103BB0001E6F410E1F6F0D0E206F21690001D2DFB5
:103BC000120002011E6B020E1F6F00016DDE460E19
:103BD00002011E6F420E1F6F0D0E206F2169000142
:103BE000C1DF1200036A02011D51D10FE96E010EFF
:103BF0000320EA6EADC1EFFF010E1D25036AD10F50
:103C0000E96E010E0320EA6EAEC1EFFF020E1D2524
:103C1000036AD10FE96E010E0320EA6EAFC1EFFF18
:103C2000030E1D25036AD10FE96E010E0320EA6E13
:103C3000B0C1EFFF040E1D25036AD10FE96E010E1E
:103C40000320EA6EB1C1EFFF050E1D25036AD10FF7
:103C5000E96E010E0320EA6EB2C1EFFF060E1D25CC
:103C6000036AD10FE96E010E0320EA6EB3C1EFFFC4
:103C7000036A1D51D10FE96E010E0320EA6E300E6A
:103C8000EF5C226F010E1D25036AD10FE96E010E54
:103C90000320EA6E300EEF5C236F020E1D25036ACF
:103CA000D10FE96E010E0320EA6E300EEF5C246F37
:103CB000030E1D25036AD10FE96E010E0320EA6E83
:103CC000300EEF5C256F040E1D25036AD10FE96EDF
:103CD000010E0320EA6E300EEF5C266F050E1D25E7
:103CE000036AD10FE96E010E0320EA6E300EEF5C1D
:103CF000276F060E1D25036AD10FE96E010E032002
:103D0000EA6E300EEF5C286F22C229F223C22AF23B
:103D100024C22BF225C22CF226C22DF227C22EF28B
:103D20002F6F000169EC1AF003C021F202C020F2EB
:103D300001C01FF200C01EF20201215305E1205311
:103D400003E11F510F080FE221530DE120512F080D
:103D50001FE2FF0A08E11F51D3081AE2FF0A03E13C
:103D60001E51000815E2000100EC17F00150040D8F
:103D7000F350036A1C0FE96E000E0320EA6EEFCFCA
:103D80001EF2ECCF1FF2ECCF20F2ECCF21F20201B9
:103D90001EC200F01FC201F020C202F021C203F0D7
:103DA00000011200050E02011D6F00011BDF03C0A0
:103DB00023F002C022F001C021F000C020F0ECDEB0
:103DC00067EF25F0050E02011D6F00010BDF03C038
:103DD00027F002C026F001C025F000C024F0F1DE7B
:103DE0006DEF25F002011E6B1D51300802E1010E3E
:103DF0001E6F1D51310802E1020E1E6F1D51320867
:103E000002E1030E1E6FE00E2A6F1EC22BF20001AC
:103E1000A0EC05F075EF25F000EC17F00150010A59
:103E200003E0030A06E009D0300E0101D36F000160
:103E300004D0310E0101D36F0001460E02011E6F46
:103E4000520E1F6F030E206FD3C121F200018ADED4
:103E500012000101AA51300A000103E0010A04E046
:103E600005D0010E436E02D0020E436EE00E020139
:103E70002A6F43C02BF20001A0EC05F0CDDF7BEFF1
:103E800025F000EC17F00150010A03E0030A06E0F8
:103E900009D0300E0101D36F000104D0310E0101B1
:103EA000D36F0001460E02011E6F540E1F6F030EEA
:103EB000206FD3C121F2000155DE12000101AA5189
:103EC000300A000103E0010A04E005D0010E436E50
:103ED00002D0020E436EE00E02012A6F43C02BF2A5
:103EE0000001A0EC05F0CDDF85EF25F000EC17F028
:103EF00001C01DF2490E0101E96F460EEA6F010E85
:103F000002011E6F1DC21FF20001CEDC47500908DE
:103F100009E2310E0201036F0A0E475C300F046F95
:103F200006D00001300E0201036F4724046F1AA669
:103F300003D0310E056F02D0300E056F4DC006F272
:103F40001D2D03D0300E076F096F1D51020803E1CC
:103F5000310E076F096F300E086F00018FEF25F0EB
:103F600002011D6B1D5125081CE3036A1D51E90F59
:103F7000E96E010E0320EA6EEFCF1EF21EC224F29C
:103F8000000106EC0FF0036A02011D51E90FE96E12
:103F9000010E0320EA6EEF503B08D8B402D01D2B6F
:103FA000E1D7000191EF25F002011E2D08D0189CE9
:103FB000070E4C6F0001F1EC04F00BD002014C6BCA
:103FC0000001F1EC04F0189C010169B5188C6995A9
:103FD000000112000101AA51300A000103E0010AA8
:103FE00003E003D01A9801D01A88000E1AB8010E07
:103FF00002011D6F310E1E6F410E1F6F030E206FE9
:104000001DC221F20001AEDD000E1AB8010E020140
:104010001D6FE90E2A6F1DC22BF20001A0EC05F006
:10402000B6EF25F00101AA51300A000103E0010AB0
:1040300003E003D01A9A01D01A8A000E1ABA010EB0
:1040400002011D6F310E1E6F420E1F6F030E206F97
:104050001DC221F2000186DD000E1ABA010E020116
:104060001D6FEA0E2A6F1DC22BF20001A0EC05F0B5
:10407000BAEF25F00101AA51300A000103E0010A5C
:1040800003E003D0199C01D0198C000E19BC010E5D
:1040900002011D6F310E1E6F430E1F6F030E206F46
:1040A0001DC221F200015EDD000E19BC010E0201ED
:1040B0001D6FE80E2A6F1DC22BF20001A0EC05F067
:1040C000BEEF25F00101AA51300A000103E0010A08
:1040D00003E003D01A9C01D01A8C000E1ABC010E0A
:1040E00002011D6F310E1E6F440E1F6F030E206FF5
:1040F0001DC221F2000136DD000E1ABC010E0201C4
:104100001D6FE40E2A6F1DC22BF20001A0EC05F01A
:10411000C2EF25F0300E0101A86FA96FA85D020162
:10412000216F300E0101A95D0201226F300E0101E5
:10413000AA5D0201236F300E0101AB5D0201246F05
:10414000300E0101AC5D0201256F300E0101AD5D45
:104150000201266F300E0101AE5D0201276F21C200
:1041600029F222C22AF223C22BF224C22CF225C247
:104170002DF226C22EF22F6F000169EC1AF003C057
:1041800020F202C01FF201C01EF200C01DF21DC2CB
:1041900000F01EC201F01FC202F020C203F06CEF5B
:1041A00023F01AAC0FD0140E482402012D6F2E6F8D
:1041B000326B316B2CC230F22BC22FF20001BAEC01
:1041C00005F00CD0130E02012E6F326B316B2CC236
:1041D00030F22BC22FF20001BAEC05F012001B8066
:1041E00002011F51201109E100017DEC0FF002C016
:1041F00022F201C021F206D0020120C222F21FC227
:1042000021F20001020122514D080CE2FF0A03E1F4
:1042100021511F0807E2226B216B2C6B2B6B0001D5
:10422000C0DF0201000100EC17F00150040DF35053
:10423000036A1C0FE96E000E0320EA6EEFCF29F22D
:10424000ECCF2AF2ECCF2BF2ECCF2CF22CC234F2D2
:104250002BC233F22AC232F229C231F2010E02011C
:10426000356F36690001E8EC0FF000EC17F00150F3
:10427000040DF350036A1C0FE96E000E0320EA6E72
:10428000EFCF23F2ECCF24F2ECCF25F2ECCF26F2E5
:104290000201225126080BE2FF0A03E121510F0817
:1042A00006E2100E215F270E225B1B9201D01B82BB
:1042B000010E276F272D8CD02151221164E01BA203
:1042C00031D0000100EC17F00150040DF350036AE7
:1042D0001C0FE96E000E0320EA6EEFCF29F2ECCF3F
:1042E0002AF2ECCF2BF2ECCF2CF202012151295D06
:1042F000236F22512A59246F000E2B59256F000E6F
:104300002C59266F2D692E69326B316B22C230F227
:1043100021C22FF23369030E346F000165EC0BF0FC
:1043200030D00201000100EC17F00150040DF350F1
:10433000036A1C0FE96E000E0320EA6EEFCF29F22C
:10434000ECCF2AF2ECCF2BF2ECCF2CF20201215170
:104350002925236F22512A21246F000E2B21256F3E
:10436000000E2C21266F2D692E69326B316B22C213
:1043700030F221C22FF23369040E346F000165EC74
:104380000BF016D002012D692E69326B316B306B48
:10439000010E2F6F3369050E346F000165EC0BF0D1
:1043A00009EC0AF0C80E0201316F000116EC0AF0A8
:1043B00026C234F225C233F224C232F223C231F2D1
:1043C0000201356B36690001E8EC0FF00201276B42
:1043D0002C6B00012AEC0AF001C028F20201213DF9
:1043E0000AD0223D08D0226B010E216F1BB202D0F1
:1043F0001B8201D01B921BB218D02851020803E087
:1044000028510C0806E1010E276F215F000E225B88
:104410000BD02851030803E028510B0805E1010ED9
:10442000276F2127000E222317D02851020803E00E
:1044300028510C0806E1010E276F2127000E2223C8
:104440000BD02851030803E028510B0805E1010EA9
:10445000276F215F000E225B282D65D0000109EC3B
:104460000AF000EC17F00150040DF350036A1C0F22
:10447000E96E000E0320EA6EEFCF29F2ECCF2AF2AC
:10448000ECCF2BF2ECCF2CF202012D692E692CC25D
:1044900032F22BC231F22AC230F229C22FF2336932
:1044A000346B000165EC0BF0040E0201296FFA0E6B
:1044B000316F000116EC0AF00201292FF8D7000134
:1044C00000EC17F00150040DF350036A1C0FE96E65
:1044D000000E0320EA6EEFCF29F2ECCF2AF2ECCFE8
:1044E0002BF2ECCF2CF202012D692E692CC232F294
:1044F0002BC231F22AC230F229C22FF23369010EE7
:10450000346F000165EC0BF0040E0201296FFA0E06
:10451000316F000116EC0AF00201292FF8D7286B41
:10452000010E276FC7D62851060822E1000109ECC9
:104530000AF002012C6B2B6B000133DE02012D69A6
:104540002E69326B316B306B010E2F6F3369050EA4
:10455000346F000165EC0BF0040E0201296FFA0EB6
:10456000316F000116EC0AF00201292FF8D78BD029
:1045700028511F0806E028510D0803E01F512011A3
:104580002AE01BB20CD0100E2125296F270E222104
:104590002A6F2C6F29C22BF2000103DE02011BA23D
:1045A00007D022C22CF221C22BF20001FADD020157
:1045B0001B90000109EC0AF002011F5120110AE0D2
:1045C000040E296FFA0E316F000116EC0AF0020199
:1045D000292FF8D758D0000175EC09F001C040F040
:1045E000000E1BB2010E0201296F29C22AF200013E
:1045F00075EC09F001C040F04150405C04E1000E50
:10460000016E21D01ED002012A530CE182A805D0F0
:10461000010E2127000E222304D0010E215F000E7F
:10462000225B0BD082A805D0010E215F000E225B19
:1046300004D0010E2127000E2223010E016E00017D
:1046400002D0000E016E015204E0010E0201276F3C
:1046500000010201213D0AD0223D08D0226B010E4B
:10466000216F1BB202D01B8201D01B92225126085F
:1046700009E2FF0A03E121510E0804E2270E226F2E
:104680000F0E216F17D6000109EC0AF000EC17F0AD
:104690000150040DF350036A1C0FE96E000E032055
:1046A000EA6EEFCF29F2ECCF2AF2ECCF2BF2ECCF6F
:1046B0002CF22CC234F22BC233F22AC232F229C2BB
:1046C00031F20201356B36690001E8EC0FF07DEC48
:1046D0000FF0025012001ED501C01EF200C01DF2E4
:1046E00001C020F200C01FF27ADD310E02011E6F00
:1046F000450E1F6F030E206F020E216F0001B2ECFA
:104700001DF0C5EF25F0310E02011E6F460E1F6F22
:10471000030E206F020E216F0001B2EC1DF01B8C06
:10472000CAEF25F002011D6B0101AA51310A0001F7
:104730000DE0030A0FE0010A11E0070A13E0000E82
:1047400018BA010E010F02011D6F0FD0010E0201F8
:104750001D6F0BD0020E02011D6F07D0030E020168
:104760001D6F03D0040E02011D6F320E1E6F410E2D
:104770001F6F030E206F1DC221F20001B2EC1DF06D
:10478000CFEF25F0300E0101AA5D0A0DF3CF1DF227
:104790000201300E0101AB5D02011D271D530DE02A
:1047A0001D5128080AE31DC259F0E60E2A6F59C0B0
:1047B0002BF20001A0EC05F00201320E1E6F420E3A
:1047C0001F6F030E206F59C021F20001B2EC1DF0E3
:1047D0000201246B000123EC17F0D4EF25F0300E1A
:1047E0000101AA5D10E0300EAA5D08080CE3310E4D
:1047F000AA5D5A6EE70E02012A6F5AC02BF2000121
:10480000A0EC05F00101010E5A2402011D6F320EC9
:104810001E6F430E1F6F030E206F1DC221F2000199
:10482000B2EC1DF00201246B000123EC17F0D9EF6C
:1048300025F0300E0101AA5D10E0300EAA5D0808D7
:104840000CE3300EAA5D4C6E4CC02AF2EC0E020155
:104850002B6F0001A0EC05F00101320E02011E6F6A
:10486000440E1F6F030E206F4CC021F20001B2EC0A
:104870001DF0DEEF25F00101AA51300A000103E02E
:10488000010A03E003D01A9201D01A82000E1AB274
:10489000010E02011D6F320E1E6F450E1F6F030EBB
:1048A000206F1DC221F20001B2EC1DF0000E1AB201
:1048B000010E02011D6FEB0E2A6F1DC22BF20001CB
:1048C000A0EC05F0E1EF25F0036A020120515B0F37
:1048D000E96E000E0320EA6EEFCF01F00001120036
:1048E00002011D6B1D3D01D00DD01DC220F2000143
:1048F000EBDF01C01EF201C024F206EC0FF0020152
:104900001D2BF0D73B0E246F000106EC0FF0E4EFF7
:1049100025F09D9A02011D6B9EAA14D000019DEC0A
:1049200004F001C01FF21DC23DF201C03EF278EC5E
:1049300005F01DC220F2C8DF01503B08D8B404D0F6
:1049400002011D2BE9D700019EAA09D09DEC04F0BD
:10495000200E006E002EFED700D00000F5D7020119
:104960001E6B1D511E5D29E21EC220F20001ACDF4C
:1049700001C01FF21EC22AF201C02BF2A0EC05F00A
:10498000200E006E002EFED700D000001EC22AF2BC
:1049900073EC05F001C01FF21EC220F295DF01503A
:1049A00002011F5D02E11E2B07D0030E2C6F0001D8
:1049B00098EC0DF0020101D0D4D79D8A000109ECDA
:1049C0000AF08EEC08F0E0EC07F0E9EF25F00201C8
:1049D0001A6B1B6B1C6B1C512C0854E31C51040DEF
:1049E000F350036AF2CF1DF2F29E0001C3EC00F017
:1049F00002011DBFF28E016E0101A85D40E10201BE
:104A00001C51040DF350010F036AF2CF1DF2F29E08
:104A10000001C3EC00F002011DBFF28E016E010126
:104A2000A95D2DE102011C51040DF350020F036A30
:104A3000F2CF1DF2F29E0001C3EC00F002011DBF97
:104A4000F28E036AA80FE96E010E0320EA6EEF50A2
:104A50003B08D8B402D0010112D01C51040DF35010
:104A6000030F036AF2CF1DF2F29E0001C3EC00F0C7
:104A700002011DBFF28E016E1A6F04D00101020106
:104A80001C2BA9D7030E1A5DD60FD8B0A7D02A0FBA
:104A90000001F3EF25F00201236B000184EC19F013
:104AA000010E02011B6F9AD00201236B0001D0ECB2
:104AB00018F0010E02011B6F91D0CCEC1DF0020129
:104AC0008DD0E1EC1DF0020189D0D2EF1EF0010E75
:104AD00002011B6F83D0E2EF1EF0010E02011B6F7B
:104AE0007DD0AAC11DF2F2EF1EF0010E02011B6F74
:104AF00075D029EF1FF0020E02011B6F6FD00CEC76
:104B00001FF002016BD05EEF1FF0020E02011B6F5F
:104B100065D041EC1FF0020161D076EF1FF0B0EFDD
:104B20001FF002015BD0020159D0AAC14DF0020171
:104B300055D01A9E000E1ABE010E02011D6F1E6F87
:104B40000001D4EC1FF0020149D01A8E000E1ABEEB
:104B5000010E02011D6F1E6F0001D4EC1FF0020157
:104B60003DD01A8402013AD0EAEF1FF0020136D09C
:104B700012EF20F0020132D03AEF20F002012ED0E5
:104B800062EF20F002012AD0A6D5010E02011B6FB0
:104B900025D0B9D5030E02011B6F20D0C3D5010E5D
:104BA00002011B6F1BD0EED5010E02011B6F16D048
:104BB00016D6010E02011B6F11D03BD602010ED09A
:104BC0005AD602010BD08CD6030E02011B6F06D001
:104BD000A0D6010E02011B6F01D002011BC201F021
:104BE000000159EF26F0F2CF0DF0F29EE824F76AAB
:104BF000F7360B0FF66E4C0EF7220A00F550FA6EE0
:104C00000800F5500DBEF28EF96E964AA84ABA4ACF
:104C1000C24ACA4AD64AE24AF24AFE4A064B124BF6
:104C20001A4BDA4BDA4BDA4B264B2A4BDA4BDA4B80
:104C3000DA4BDA4BDA4BDA4B324B4A4BDA4BDA4B84
:104C4000624B684B704B784B804B884B924B9C4B24
:104C5000A64BB04BBA4BC04BDA4BC64BD04B020104
:104C6000196B19B204D019C201F029D028D01AA4A6
:104C700014D01AB202D01A8203D01AA201D01A920A
:104C80001A94000E1AB2010E1A6FEB0E2A6F1AC296
:104C90002BF20001A0EC05F002011AB206D00001CF
:104CA0005FEF1BF001C019F202011AA205D000014A
:104CB0008ED601C019F20201199219C201F0000149
:104CC0006AEF30F01A9683B61A861ABE02D01AA678
:104CD00013D01AAE08D01AB606D0010E02011E6F0C
:104CE0000001D4EC1FF01ABE07D01AA605D00201AD
:104CF0001E6B0001D4EC1FF08FEF30F04350030A1D
:104D000043E019AC21D01A9E4350040DF350036ABE
:104D10001C0FE96E000E0320EA6E010EEF24006EF8
:104D2000000EEC20016E000EEC20026E000EEC2056
:104D3000036EED52ED52ED5200C0EFFF01C0ECFFEB
:104D400002C0ECFFEC6E1FD04350040DF350036A19
:104D50001C0FE96E000E0320EA6E0A0EEF24006EAF
:104D6000000EEC20016E000EEC20026E000EEC2016
:104D7000036EED52ED52ED5200C0EFFF01C0ECFFAB
:104D800002C0ECFFEC6E12D047500D0802E3472A38
:104D900001D0476A47C02DF2D8EC07F003C02BF0D2
:104DA00002C02AF001C029F000C028F0AFEF2EF0B9
:104DB0004350030A43E019AC21D01A9E4350040D1E
:104DC000F350036A1C0FE96E000E0320EA6E010E19
:104DD000EF5C006E000EEC58016E000EEC58026E97
:104DE000000EEC58036EED52ED52ED5200C0EFFF95
:104DF00001C0ECFF02C0ECFFEC6E1FD04350040D6D
:104E0000F350036A1C0FE96E000E0320EA6E0A0ECF
:104E1000EF5C006E000EEC58016E000EEC58026E56
:104E2000000EEC58036EED52ED52ED5200C0EFFF54
:104E300001C0ECFF02C0ECFFEC6E12D0475202E062
:104E4000470602D00E0E476E47C02DF2D8EC07F091
:104E500003C02BF002C02AF001C029F000C028F0E6
:104E6000B3EF2EF04350010A03E0030A08E00DD02F
:104E7000010E0201236F0001D0EC18F006D0020EE3
:104E80000201236F0001D0EC18F0B9EF2EF01A8E5A
:104E90004350040DF350036A1C0FE96E000E03200B
:104EA000EA6E6F0EEF24006E000EEC20016E000E15
:104EB000EC20026E000EEC20ED52ED52ED5200C0DF
:104EC000EFFF01C0ECFF02C0ECFFEC6EBDEF2EF077
:104ED0001A8E4350040DF350036A1C0FE96E000E46
:104EE0000320EA6E6F0EEF5C006E000EEC58016E50
:104EF000000EEC58026E000EEC58ED52ED52ED52E1
:104F000000C0EFFF01C0ECFF02C0ECFFEC6EC1EF90
:104F10002EF01A8E4350040DF350036A1C0FE96EF5
:104F2000000E0320EA6E0A0EEF24006E000EEC2045
:104F3000016E000EEC20026E000EEC20ED52ED52E0
:104F4000ED5200C0EFFF01C0ECFF02C0ECFFEC6EC1
:104F5000C5EF2EF01A8E4350040DF350036A1C0F58
:104F6000E96E000E0320EA6E0A0EEF5C006E000E82
:104F7000EC58016E000EEC58026E000EEC58ED522B
:104F8000ED52ED5200C0EFFF01C0ECFF02C0ECFF9C
:104F9000EC6EC9EF2EF01A8E4350040DF350036AE5
:104FA0001C0FE96E000E0320EA6E6F0EEF24006EF8
:104FB000000EEC20016E000EEC20026E000EEC20C4
:104FC000ED52ED52ED5200C0EFFF01C0ECFF02C008
:104FD000ECFFEC6ED3EF2EF01A8E4350040DF3501D
:104FE000036A1C0FE96E000E0320EA6E6F0EEF5C81
:104FF000006E000EEC58016E000EEC58026E000EB2
:10500000EC58ED52ED52ED5200C0EFFF01C0ECFF45
:1050100002C0ECFFEC6ED7EF2EF019AC02D0199C59
:1050200001D0198C000E19BC010E02011B6FE80E95
:105030002A6F1BC22BF20001A0EC05F0020E020148
:105040002C6F000198EC0DF027EF28F0E6D794EFD5
:105050002DF002012A692B690001A0EC05F0030E76
:1050600002012C6F000198EC0DF0040E02011B6F81
:10507000FA0E316F000116EC0AF002011B2FF8D76F
:105080000001EDD745EF28F0E4D798EF2DF01BBCD9
:10509000A7EF2BF000EC17F00150040DF350036A5A
:1050A0001C0FE96E000E0320EA6EEFCF1CF0ECCF70
:1050B0001DF0ECCF1EF0ECCF1FF000EC17F001C09C
:1050C00024F201C02DF202012E691FC032F21EC06F
:1050D00031F21DC030F21CC02FF23369346B000175
:1050E00065EC0BF009EC0AF01FC03FF21EC03EF267
:1050F0001DC03DF21CC03CF23FC243F23EC242F230
:105100003DC241F23CC240F202011B6B43530DE130
:1051100042510E0815E2FF0A08E14151410810E230
:10512000FF0A03E140513F080BE2400E405F420E90
:10513000415B0F0E425B000E435B010E1B27E6D75F
:105140001C6B43530DE14251000815E2FF0A08E1D0
:105150004151850810E2FF0A03E140519F080BE22C
:10516000A00E405F860E415B010E425B000E435B6A
:10517000010E1C27E6D71D6B43530AE1425308E199
:10518000415126080FE2FF0A03E140510F080AE2ED
:10519000100E405F270E415B000E425B435B010E29
:1051A0001D27EAD71E6B43530AE1425308E14151E0
:1051B00002080FE2FF0A03E14051E7080AE2E80EA5
:1051C000405F030E415B000E425B435B010E1E27F6
:1051D000EAD71F6B435307E1425305E1415303E113
:1051E0004051630809E2640E405F000E415B425B80
:1051F000435B010E1F27EED7206B435307E1425359
:1052000005E1415303E14051090809E20A0E405FFC
:10521000000E415B425B435B010E2027EED7216B02
:10522000435307E1425305E1415303E14051000874
:1052300009E2010E405F000E415B425B435B010EE1
:105240002127EED7010E226F236B83B204D082AAEE
:1052500002D082BC03D0010E226FF7D7225107087B
:105260003AE1000E19B8010E010A000103E0010A3B
:105270001AE02FD000EC17F001C024F20A0E020150
:105280002225256F01C02DF22E691FC032F21EC0EB
:1052900031F21DC030F21CC02FF23369346F0001AF
:1052A00065EC0BF016D000EC17F001C024F201C041
:1052B0002DF202012E691FC032F21EC031F21DC054
:1052C00030F21CC02FF233690A0E346F000165EC16
:1052D0000BF039D00201000E19B8010E010A0001CD
:1052E00003E0010A1AE02FD000EC17F001C024F20D
:1052F0000A0E02012225256F01C02DF22E691FC062
:1053000032F21EC031F21DC030F21CC02FF23369E0
:10531000346F000165EC0BF016D000EC17F001C003
:1053200024F201C02DF202012E691FC032F21EC00C
:1053300031F21DC030F21CC02FF23369090E346FF8
:10534000000165EC0BF0010E02012C6F00012AEC4C
:105350000AF001C023F20201235301E019982351FE
:10536000060803E023510D0807E12251060802E375
:10537000222B02D0010E226F235103080AE0235191
:105380000B0807E02351210804E023511008D8A49A
:10539000A8D0010E225DF90FD8B0A3D0070F0001ED
:1053A000A9EF2BF002011B5103080AE21B6B400E10
:1053B0001C26420E1D220F0E1E22000E1F220AD096
:1053C000010E1B27400E1C26420E1D220F0E1E2210
:1053D000000E1F2286D002011C5109080AE21C6B34
:1053E000A00E1C26860E1D22010E1E22000E1F225C
:1053F0000AD0010E1C27A00E1C26860E1D22010EAF
:105400001E22000E1F226DD002011D51090809E263
:105410001D6B100E1C26270E1D22000E1E221F22A1
:1054200009D0010E1D27100E1C26270E1D22000E6E
:105430001E221F2256D002011E51090809E21E6BCE
:10544000E80E1C26030E1D22000E1E221F2209D06C
:10545000010E1E27E80E1C26030E1D22000E1E2222
:105460001F223FD002011F51090808E21F6B640E82
:105470001C26000E1D221E221F2208D0010E1F27EF
:10548000640E1C26000E1D221E221F222AD002019D
:105490002051090808E2206B0A0E1C26000E1D226E
:1054A0001E221F2208D0010E20270A0E1C26000EE5
:1054B0001D221E221F2215D002012151090808E2D7
:1054C000216B010E1C26000E1D221E221F2207D05A
:1054D000010E21271C26000E1D221E221F2201D094
:1054E0000201235102080AE023510C0807E023516E
:1054F000200804E023511108D8A4A8D0010E225D91
:10550000F90FD8B0A3D0070F0001C2EF2BF00201B2
:105510001B530BE1090E1B6F400E1C5E420E1D5A01
:105520000F0E1E5A000E1F5A0AD0010E1B5F400EAE
:105530001C5E420E1D5A0F0E1E5A000E1F5A86D0B8
:1055400002011C530BE1090E1C6FA00E1C5E860E9F
:105550001D5A010E1E5A000E1F5A0AD0010E1C5F62
:10556000A00E1C5E860E1D5A010E1E5A000E1F5AFA
:105570006DD002011D530AE1090E1D6F100E1C5E55
:10558000270E1D5A000E1E5A1F5A09D0010E1D5F0C
:10559000100E1C5E270E1D5A000E1E5A1F5A56D0A2
:1055A00002011E530AE1090E1E6FE80E1C5E030E77
:1055B0001D5A000E1E5A1F5A09D0010E1E5FE80E1A
:1055C0001C5E030E1D5A000E1E5A1F5A3FD00201C8
:1055D0001F5309E1090E1F6F640E1C5E000E1D5A59
:1055E0001E5A1F5A08D0010E1F5F640E1C5E000E6B
:1055F0001D5A1E5A1F5A2AD00201205309E1090ED2
:10560000206F0A0E1C5E000E1D5A1E5A1F5A08D02B
:10561000010E205F0A0E1C5E000E1D5A1E5A1F5AF4
:1056200015D00201215309E1090E216F010E1C5E04
:10563000000E1D5A1E5A1F5A07D0010E215F1C5E14
:10564000000E1D5A1E5A1F5A01D0020101017E513F
:105650001C5C09E17F511D5C06E180511E5C03E189
:1056600081511F5C4EE0000100EC17F00150040D69
:10567000F350036A1C0FE96E000E0320EA6E1CC093
:10568000EFFF1DC0ECFF1EC0ECFF1FC0ECFF0201CE
:105690002C691F520DE11E502F0810E2FF0A08E18D
:1056A0001D50D3080BE2FF0A03E11C50000806E27C
:1056B0001F6A300E1E6ED40E1D6E1C6A1F520AE148
:1056C0001E5208E11D500F0805E31F6A1E6A100EE6
:1056D0001D6E1C6A1FC034F21EC033F21DC032F2B0
:1056E0001CC031F2356B2CC236F20001E8EC0FF031
:1056F0001FC081F11EC080F11DC07FF11CC07EF172
:10570000010102012351050803E023511208D8B416
:1057100001D0A4D5000109EC0AF083B203D082AA1B
:1057200001D082ACFAD7189600EC17F00150040DA6
:10573000F350036A1C0FE96E000E0320EA6E1CC0D2
:10574000EFFF1DC0ECFF1EC0ECFF1FC0ECFFDEEF43
:105750002BF0F2CF0DF0F29EE824F76AF736770FC0
:10576000F66E570EF7220A00F550FA6E0800F55053
:105770000DBEF28EF96EA453D653085436546454B9
:105780008E54B854F2CF0DF0F29EE824F76AF73643
:10579000A90FF66E570EF7220A00F550FA6E0800B0
:1057A000F5500DBEF28EF96E0E5540557255A0554E
:1057B000CE55F855225609EC0AF069D49BEF2DF02E
:1057C00009EC0AF00201206B1F6B0001EFEC20F0E6
:1057D0009EEF2DF0432C01D003D0435002080BE183
:1057E000475201E04706E50E02012A6F47C02BF23F
:1057F0000001A0EC05F04350030824E1465203E108
:10580000090E466E01D046064650040DF350036A59
:10581000F2CF1BF2F29E57EC00F0006E0900F5CFBC
:1058200001F00900F5CF02F00900F5CF03F0020105
:105830001BBFF28E03C02BF002C02AF001C029F07A
:10584000286E0001020E0201236F000116EC18F011
:105850002BEF2CF0BFD7A1EF2DF0432C01D003D0BC
:10586000435002080CE147500D0801E3472AE50EBA
:1058700002012A6F47C02BF20001A0EC05F0435053
:10588000030824E14650090802E1466A01D0462A8D
:105890004650040DF350036AF2CF1BF2F29E57EC10
:1058A00000F0006E0900F5CF01F00900F5CF02F01D
:1058B0000900F5CF03F002011BBFF28E03C02BF0ED
:1058C00002C02AF001C029F0286E0001020E020178
:1058D000236F000116EC18F06FEF2CF0BED7A4EF89
:1058E0002DF01AA802D01A9801D01A88000E1AB802
:1058F000010E010F02011B6F2C6F000198EC0DF0DF
:10590000000E1AB8010E02011B6FE90E2A6F1BC2AE
:105910002BF20001A0EC05F08FEF2CF0E2D7A7EFFF
:105920002DF0030E02012C6F000198EC0DF01E0EFD
:1059300002011B6F1B5128082EE31E0E1B5D040D78
:10594000F350036AF2CF1CF2F29E000157EC00F014
:10595000006E0900F5CF01F00900F5CF02F0090053
:10596000F5CF03F002011CBFF28E03C01FF202C08C
:105970001EF201C01DF21C6F1BC22EF203C032F2D8
:1059800002C031F201C030F22F6F0001BAEC05F015
:1059900002011B2BCFD7290E1B6F1B5133082EE39F
:1059A000290E1B5D040DF350036AF2CF1CF2F29E28
:1059B000000157EC00F0006E0900F5CF01F009007E
:1059C000F5CF02F00900F5CF03F002011CBFF28E03
:1059D00003C01FF202C01EF201C01DF21C6F1BC2E9
:1059E0002EF203C032F202C031F201C030F22F6F4A
:1059F0000001BAEC05F002011B2BCFD7FF0000011C
:105A000003EF2DF08ED7AAEF2DF019A642D01BB4CC
:105A100040D0FA0E02012A6F000173EC05F001C0BC
:105A20001BF202011B5303E01B51030805E2000EA9
:105A300018BA010E010F1B6F4350040A000101E068
:105A40000CD01BC243F0189EE00E02012A6F43C027
:105A50002BF20001A0EC05F01BD043C01BF2FA0EA4
:105A600002012A6F1BC22BF20001A0EC05F0040E0C
:105A7000436E189EE00E02012A6F43C02BF2000114
:105A8000A0EC05F0010E0201246F000123EC17F0D9
:105A900006D0030E02012C6F000198EC0DF052EFBE
:105AA0002DF0B3D7ADEF2DF01BAA02D01B9A01D079
:105AB0001B8A1A9E000E1BBA010E010F02011B6FFA
:105AC0002C6F000198EC0DF067EF2DF0EDD7B0EFE3
:105AD0002DF01AAC02D01A9C01D01A8C000E1ABC00
