:0405000056EF38F08A
:08050800046ED8CF05F0E0CF2E
:1005100006F00001E9CF0CF0EACF07F0E1CF08F0D8
:10052000E2CF09F0D9CF0AF0DACF0BF0F3CF12F017
:10053000F4CF13F0FACF14F000C00EF001C00FF0AA
:1005400002C010F003C011F0F2AAAAEF02F0F2B458
:1005500077EF06F09DAAB0EF02F09EBAE9EF05F042
:100560000EC000F00FC001F010C002F011C003F087
:100570000CC0E9FF07C0EAFF078E08C0E1FF09C011
:10058000E2FF0AC0D9FF0BC0DAFF12C0F3FF13C0AD
:10059000F4FF14C0FAFF045006C0E0FF05C0D8FF06
:1005A0001000F2CF0DF0F29EF76ABC0FF66E050E4A
:1005B000F7220900F5500DBEF28E120049440201E7
:1005C00041490302444E02035550020446410205CC
:1005D0004642020646410D0746420D08464E0309B3
:1005E0004652030A4652020B4654030C4654020D6F
:1005F0004946020E4945030F4C4B02104C4B031168
:100600004D4305124D4403134D5206144D57171513
:1006100052430216524402175255021852540319FB
:100620005258021A5458021B5343031C5350031DC3
:100630005941021E00000000000000000000000000
:1006400000000000000000000000000000000000AA
:10065000000000000000000000000000000000009A
:10066000000000000000000000000000000000008A
:10067000000000000000000000000000000000007A
:1006800000000000F2CF0DF0F29E9C0FF66E060EF9
:10069000F7220900F5500DBEF28E12000100000095
:1006A000DC152700C4192700AC1D27007C25270076
:1006B000642927004C2D27003431270004392700F6
:1006C000EC3C2700D4402700BC4427008C4C27007A
:1006D000745027005C5427004458270014602700FA
:1006E000FC632700E4672700CC6B27009C7327007E
:1006F000847727006C7B2700547F27003C832700EA
:10070000248727000C8B2700F48E2700DC9227001B
:10071000C4962700AC9A2700949E27007CA227004D
:1007200064A627004CAA270034AE27001CB227007D
:1007300004B62700ECB92700D4BD2700BCC12700B0
:1007400001000000A4C527008CC9270074CD270034
:1007500044D527002CD9270014DD2700FCE0270012
:10076000CCE82700B4EC27009CF0270084F4270095
:1007700054FC27003C002800240428000C08280012
:10078000DC0F2800C4132800AC172800941B280095
:10079000642328004C272800342B28001C2F280015
:1007A00004332800EC362800D43A2800BC3E280048
:1007B000A44228008C462800744A28005C4E280079
:1007C000445228002C562800145A2800FC5D2800AA
:1007D000E4612800CC652800B46928009C6D2800DD
:1007E00084712800010000006C75280054792800ED
:1007F0003C7D28000C852800F4882800DC8C28002B
:10080000C4902800949828007C9C280064A02800AC
:100810004CA428001CAC280004B02800ECB328002D
:10082000D4B72800A4BF28008CC3280074C72800B0
:100830005CCB28002CD3280014D72800FCDA280031
:10084000B4E62800E4DE2800CCE228009CEA280078
:1008500084EE28006CF2280054F628003CFA2800A8
:1008600024FE28000C022900F4052900DC092900D7
:10087000C40D2900AC112900941529007C19290008
:10088000641D29004C2129000100000034252900A5
:100890001C292900042D2900D4342900BC38290042
:1008A000A43C29008C4029005C482900444C2900C4
:1008B0002C50290014542900E45B2900CC5F290046
:1008C000B46329009C6729006C6F290054732900C8
:1008D0003C772900247B2900F4822900DC8629004A
:1008E000C48A29007C962900AC8E290094922900A4
:1008F000649A29004C9E290034A229001CA62900D4
:1009000004AA2900ECAD2900D4B12900BCB5290006
:10091000A4B929008CBD290074C129005CC5290037
:1009200044C929002CCD290014D129000100000060
:10093000FCD42900E4D82900CCDC29009CE429005F
:1009400084E829006CEC290054F0290024F82900DF
:100950000CFC2900F4FF2900DC032A00AC0B2A0060
:10096000940F2A007C132A0064172A00341F2A00DF
:100970001C232A0004272A00EC2A2A00BC322A0061
:10098000A4362A008C3A2A0044462A00743E2A00E3
:100990005C422A002C4A2A00144E2A00FC512A00EC
:1009A000E4552A00CC592A00B45D2A009C612A0033
:1009B00084652A006C692A00546D2A003C712A0063
:1009C00024752A000C792A00F47C2A00DC802A0095
:1009D00001000000C4842A00AC882A00948C2A00FC
:1009E00064942A004C982A00349C2A001CA02A00F7
:1009F000ECA72A00D4AB2A00BCAF2A00A4B32A007B
:100A000074BB2A005CBF2A0044C32A002CC72A00FA
:100A1000FCCE2A00E4D22A00CCD62A00B4DA2A007E
:100A200084E22A006CE62A0054EA2A000CF62A0026
:100A30003CEE2A0024F22A00F4F92A00DCFD2A0008
:100A4000C4012B00AC052B0094092B007C0D2B005E
:100A500064112B004C152B0034192B001C1D2B008E
:100A600004212B00EC242B00D4282B00BC2C2B00C1
:100A7000A4302B00010000008C342B0074382B00B4
:100A80005C3C2B002C442B0014482B00FC4B2B000F
:100A9000E44F2B00B4572B009C5B2B00845F2B0092
:100AA0006C632B003C6B2B00246F2B000C732B0012
:100AB000F4762B00C47E2B00AC822B0094862B0096
:100AC0007C8A2B004C922B0034962B001C9A2B0016
:100AD000D4A52B00049E2B00ECA12B00BCA92B005D
:100AE000A4AD2B008CB12B0074B52B005CB92B008E
:100AF00044BD2B002CC12B0014C52B00FCC82B00BF
:100B0000E4CC2B00CCD02B00B4D42B009CD82B00F1
:100B100084DC2B006CE02B0001000000BD1D2A00CE
:100B2000A5212A008D252A0075292A005D2D2A007D
:100B300045312A002D352A0015392A00FD3C2A00AE
:100B4000E5402A00CD442A00B5482A009D4C2A00E1
:100B500085502A006D542A0055582A003D5C2A0011
:100B600025602A000D642A00F5672A00DD6B2A0043
:100B7000C56F2A00AD732A0095772A007D7B2A0075
:100B8000657F2A004D832A0035872A001D8B2A00A5
:100B9000058F2A00ED922A00D5962A00BD9A2A00D8
:100BA000A59E2A008DA22A0075A62A005DAA2A0009
:100BB00045AE2A002DB22A0015B62A009EAAFED7FD
:100BC000ABCF16F0AECF01F016A202D0AB98AB8837
:100BD0001200020125B12DD09EAA2BD00001EEDF1C
:100BE00001C026F2036A02014F51270FE96E020E7F
:100BF0000320EA6E26C2EFFF1AB20BD026513B0843
:100C000002E14F6B1B8C4F51040802E1258101D09A
:100C10004F2B1AA20ED026513B0802E1258101D0AC
:100C20004F2B4F51050805E12651050802E14F6B96
:100C30001B8C25A106D09EAA03D00001BFDF0201B4
:100C40004F6B9E9A0001B0EF02F00201C16BC151DF
:100C5000090849E3D890C135040DF350036A440FE5
:100C6000E96E010E0320EA6EEFCF00F0ECCF01F049
:100C7000ECCF02F0ECCF03F00350C05D31E30BE1A9
:100C80000250BF5D2DE307E10150BE5D29E303E1A2
:100C90000050BD5D25E3D890C135010F040DF35020
:100CA000036A440FE96E010E0320EA6EEFCF00F0F5
:100CB000ECCF01F0ECCF02F0ECCF03F0C051035CBD
:100CC0000FE30BE1BF51025C0BE307E1BE51015C96
:100CD00007E303E1BD51005C03E31B8804D001D0AE
:100CE0001B98C12BB4D71B8A000184EF06F017B8FC
:100CF00012D01BBA09D014C2C0F213C2BFF212C282
:100D0000BEF211C2BDF2A1D71BB805D083A603D095
:100D1000060E806EFBD7F294F294B0EF02F002015F
:100D2000B151F80F2AE2080F0001C4EF06F0806A03
:100D3000020123D0080E806E02011FD0040E806EC7
:100D400002011BD00C0E806E020117D0020E806EC5
:100D5000200E006E002EFED700D0000002010DD044
:100D60000A0E806E020109D0060E806E020105D0C7
:100D70000E0E806E020101D00201B15301E000D0DD
:100D8000B1C263F000011200F2CF0DF0F29EE82430
:100D9000F76AF736AD0FF66E0D0EF7220A00F55022
:100DA000FA6E0800F5500DBEF28EF96E2E0D340D60
:100DB0003C0D440D4C0D600D680D700D040E0201CC
:100DC000656F65510C080BE3036A6551940FE96E7A
:100DD000010E0320EA6E0F0EEF6E652BF2D70001B5
:100DE00073EF07F0030E0201A05F0AE3020EEA6E42
:100DF000A00EE96EEF5004E001D000D0EF2EFDD739
:100E00000001120002010F2BD8B4102B10519D5D70
:100E100006E303E19C510F5D02E218A861D0106B5C
:100E20000F6B82B45DD082A4FED79E6B9E510C08DE
:100E300052E3036A9E51940FE96E010E0320EA6E9D
:100E4000EF500F0BE8A08494E8B08484036A9E51AD
:100E5000940FE96E010E0320EA6ED890EF300F0B6D
:100E6000E8A08492E8B08482036A9E51940FE96EF0
:100E7000010E0320EA6EEF30006E00323F0E0016C6
:100E800000500F0BE8A08490E8B08480036A9E5164
:100E9000940FE96E010E0320EA6EEF30006E00320F
:100EA00000321F0E001600500F0BE8A0809AE8B029
:100EB000808A8088310E006E002EFED700D0809888
:100EC000020E9F6FB80EA06F00018CDF02019F2FF2
:100ED000F9D79E2BABD71898809A849084928494EB
:100EE000000112006BD702019D6B9C6B00018ADF31
:100EF0001200020EEA6E9C0EE96EEF500DE0060E37
:100F0000016E006A002EFED7012EFBD77B0E006E0D
:100F1000002EFED7EF2EF3D7120063C064F0010E4F
:100F20000201B16F0001FBDE64C0B1F2F8DE120015
:100F3000818E00D0819E1200650E816EEEDF5D0E07
:100F4000816EEBDF4C0E816EE8DF600E816EF0DFAC
:100F5000510E816EEDDF4E0E816EEADF24EF08F058
:100F60000201AF51B103F3CF01F0F4CF00F0B203AF
:100F7000F3500026B051B103F3500020026E00017F
:100F800012000201626B636B6351070837E3B06BB9
:100F900063C2AFF2B26BA40EB16F0001E1DF02C019
:100FA00065F201C064F202C003F002010150F2CF09
:100FB00066F2F29E02C0F7FF000142EC03F0006E01
:100FC0000900F5CF01F00900F5CF02F00900F5CFD7
:100FD00003F0020166BFF28E03C069F202C068F23C
:100FE00001C067F2666F665307E1675305E1685316
:100FF00003E1695301E1622B632BC6D762510808F4
:1010000002E11B8E01D01B9E000135EF08F0810E1E
:10101000D56EC290010E926E000E936EFF0E946E0E
:10102000956E9690969296940201B16B000177DED0
:1010300059DFC80E02019C6F00015BDFF294F28A57
:101040009D8AC00EF21278D7606A189C1A90189088
:10105000596A586A576A566A1A96199A199C179EBD
:10106000020125911B9C00018CD772EF39F063C0FF
:1010700064F0040E0201B16F000151DE64C0B1F2F0
:101080004EDE12000201956B9451955D0AE200015B
:10109000EEDFC80E02019C6F00012BDF0201952BD1
:1010A000F3D700011200E00E020198259B6FF2CFEA
:1010B0009CF2F29E9BC2A9FFA69CA69EA680A85069
:1010C0009CBFF28E9A6F99519A5DD8B419D0E00EF8
:1010D00098259B6FF250006EF29E9BC2A9FF99C2A9
:1010E000A8FFA69CA69EA6840F01550EA76EAA0E69
:1010F000A76EA682A6B2FED7A6940050F2120201F5
:1011000000011200E00E02019525966FF2CF97F2D2
:10111000F29E96C2A9FFA69CA69EA680A85097BF45
:10112000F28E016E000112000201B06BB051030893
:101130001FE3020EB26FAC0EB16FB051B125016E5C
:10114000000EB221036E0150E96E03C0EAFFB051F8
:10115000A725B36FF2CFB4F2F29EB3C2A9FFA69C4B
:10116000A69EA680A850B4BFF28EEF6EB02BDED73D
:10117000AC51A85D0AE1AD51A95D07E1AE51AA5D90
:1011800004E1AF51AB5DD8B42FD0B06BB0510308C0
:101190002BE3B051A725B16F020EB36FA80EB26F4B
:1011A000B051B225016E000EB321036E0150E96EFD
:1011B00003C0EAFFEFCFB2F2F250006EF29EB1C26E
:1011C000A9FFB2C2A8FFA69CA69EA6840F01550E39
:1011D000A76EAA0EA76EA682A6B2FED7A69400504E
:1011E000F2120201B02BD2D7000108EF09F0020180
:1011F000A151040DF3CFA6F2A6C2A7F2A5C2ABF28D
:10120000A4C2AAF2A3C2A9F2A2C2A8F200018CD77A
:10121000120018AE10D0140E5B240201776FA16F7C
:1012200076C2A5F275C2A4F274C2A3F273C2A2F28E
:101230000001DDDF0DD0130E0201A16F76C2A5F211
:1012400075C2A4F274C2A3F273C2A2F20001CFDF8E
:101250001200030E0201A16F66C2A5F265C2A4F2DC
:1012600064C2A3F263C2A2F20001C1DF76EF0AF00A
:101270000201676B6751090844E36751040DF3509D
:10128000036A740FE96E000E0320EA6EEFCF00F0E0
:10129000ECCF01F0ECCF02F0ECCF03F00350665D31
:1012A0002EE30BE10250655D2AE307E10150645D26
:1012B00026E303E10050635D22E3010E6725040D80
:1012C000F350036A740FE96E000E0320EA6EEFCF4D
:1012D00000F0ECCF01F0ECCF02F0ECCF03F0665160
:1012E000035C0DE30BE16551025C09E307E1645126
:1012F000015C05E303E10050635D01E202D0672B6E
:10130000B9D767C201F0000180EF0AF00201626BF9
:10131000625112080EE362C2A1F2A56B0A0EA46F1D
:10132000AE0EA36F600EA26F000161DF0201622B9F
:10133000EFD7130E626F62511D080BE362C2A1F278
:10134000A56BA46BA36BA26B000151DF0201622BA2
:10135000F2D71E0E626F6251280821E31E0E625DF5
:10136000040DF350036A740FE96E000E0320EA6E59
:10137000EFCF63F2ECCF64F2ECCF65F2ECCF66F224
:1013800062C2A1F266C2A5F265C2A4F264C2A3F26F
:1013900063C2A2F200012BDF0201622BDCD7290E0F
:1013A000626F6251330821E3290E625D040DF35030
:1013B000036A740FE96E000E0320EA6EEFCF63F24A
:1013C000ECCF64F2ECCF65F2ECCF66F262C2A1F230
:1013D00066C2A5F265C2A4F264C2A3F263C2A2F21D
:1013E000000105DF0201622BDCD7340E626F62510F
:1013F00035080BE362C2A1F2A56BA46BA36BA26BD1
:101400000001F5DE0201622BF2D7360EA16FA56B4B
:10141000A46B270EA36F100EA26F0001E8DE370E3B
:101420000201A16FA56B300EA46FD40EA36FA26B47
:101430000001DDDE0201766B756B746B736B00016E
:10144000E8DE0201986B996B00012DDE030E0201AC
:10145000986F996B000127DE040E0201986F996B5B
:10146000000121DE080E0201986F996B00011BDE5E
:10147000090E0201986F996B000115DE050E02013D
:10148000986F0F0E996F00010EDE020E0201986F29
:10149000996B000108DE0C0E0201986F996B000138
:1014A00002DE0D0E0201986F030E996F0001FBDD45
:1014B0000E0E0201986F310E996F0001F4DD0F0ED0
:1014C0000201986F996B0001EEDD0A0E0201986F20
:1014D000010E996F0001E7DD0201666B0A0E656F70
:1014E000AE0E646F600E636F0001B3D60201666BCF
:1014F0000A0E656FAE0E646F600E636F0001B8D6A2
:1015000001C063F2010E0201986F01C099F200015F
:10151000CADD060E0201986F130E996F0001C3DD3C
:10152000070E0201986F030E996F0001BCDD1F0EBC
:101530000201986F010E996F0001B5DDFF002FEFDA
:1015400013F00201B16BB15103081FE3020EB76F34
:10155000B20EB66FB151B625016E000EB721036E03
:101560000150E96E03C0EAFFB151B025B86FF2CF68
:10157000B9F2F29EB8C2A9FFA69CA69EA680A8506A
:10158000B9BFF28EEF6EB12BDED7B2C200F0B3C29C
:1015900001F0B4C202F0B5C203F00001D9EF0AF0C5
:1015A0000201AE51040DF3CFAFF2AFC2B0F20001B1
:1015B000C8D7120018AE09D0140E5B240201AD6F1B
:1015C000AE6F0001EDDF06D005D0130E0201AE6F45
:1015D0000001E6DF12000201962D06D0050EB16F64
:1015E00000018FEC06F00201965305E1B16B00019A
:1015F0008FEC06F00201000112002EC000F02FC097
:1016000001F030C002F031C003F012009AC231F094
:1016100099C230F098C22FF097C22EF0120002014A
:10162000962D01D01884965301E118945D5002085C
:1016300029E0962D1ED00001E0DF03C09AF202C01F
:1016400099F201C098F200C097F20201975311E19C
:1016500098530FE199530DE19A530BE125C09AF28B
:1016600024C099F223C098F222C097F20001CEDF85
:101670000201965307E19A6B996B986B976B000187
:10168000C5DF0201000112000201962D03D01BB03C
:1016900001D01B80965301E11B9000011200020152
:1016A000636B635107083CE36351040DF350036A15
:1016B000A10FE96E010E0320EA6EEF50625D2EE18C
:1016C0006351040DF350010F036AA10FE96E010E7F
:1016D0000320EA6EEFCF01F0179A01B0178A635129
:1016E000040DF350020F036AA10FE96E010E0320EF
:1016F000EA6EEFCF01F0189401B018846351040D25
:10170000F350030F036AA10FE96E010E0320EA6E86
:10171000EFCF01F0189201B0188202D0632BC1D72D
:1017200017AA06D0010E966F000155DF04D0020102
:10173000966B000150DF18A406D0010E0201966FCF
:1017400000016DDF04D00201966B000168DF18A272
:1017500006D0010E0201966F000196DF04D002014F
:10176000966B000191DF050E0201986F62C299F23B
:10177000000199DC50EF0CF0360E0201AE6F000153
:101780000FDF03C045F002C044F001C043F000C0C9
:1017900042F0370E0201AE6F000102DF03C049F0D4
:1017A00002C048F001C047F000C046F00201956B4E
:1017B0000001A8DC179C01B0178C030E0201956F85
:1017C0000001A0DC01C05DF0040E0201956F000174
:1017D00099DC01C05AF0080E0201956F000192DCFD
:1017E000199E01B0198E020E0201956F00018ADC6C
:1017F000189E01B0188E0C0E0201956F000182DC5C
:101800001A9201B01A820D0E0201956F00017ADC66
:1018100001C065F00E0E0201956F000173DC01C07E
:1018200020F00F0E0201956F00016CDC1A9A01B0D6
:101830001A8A090E0201956F000164DC01C05FF095
:10184000050E0201956F00015DDC01C05EF0010E26
:101850000201956F000156DC01C05CF00A0E020126
:10186000956F00014FDC199601B01986A3DE03C005
:1018700029F002C028F001C027F000C026F0070EB2
:101880000201956F00013EDC01C073F0060E0201FB
:10189000956F000137DC01C072F05EC062F2FFD6C6
:1018A0006550010A0FE0030A14E0010A19E0070A73
:1018B0001EE0010A23E0030A28E0010A2DE00F0AD6
:1018C00032E038D0FF0EAF6EA20EAC6E900EAB6E53
:1018D00037D0810EAF6EA20EAC6E900EAB6E30D0D4
:1018E000400EAF6EA20EAC6E900EAB6E29D0810E84
:1018F000AF6EA60EAC6E900EAB6E22D0400EAF6EE9
:10190000A60EAC6E900EAB6E1BD0200EAF6EA60E68
:10191000AC6E900EAB6E14D0150EAF6EA60EAC6E04
:10192000900EAB6E0DD00A0EAF6EA60EAC6E900E82
:10193000AB6E06D0400EAF6EA20EAC6E900EAB6ECC
:1019400012000201A23D05D00F0E0101A06F04D0CC
:101950000201A2C2A0F1010102019C3D01D019D0F7
:101960009C2D06D0010E0101986F0F0EA06F020191
:101970009C51020806E10C0E0101986F0F0EA06F3A
:1019800002019C51030804E1020E0101986F02015B
:1019900004D00F0E0101986F02019D3D01D003D0CC
:1019A0009DC299F104D00F0E0101996F0201A1C2ED
:1019B000B1F2A0C2B0F29FC2AFF29EC2AEF2B1C20B
:1019C000B5F2B0C2B4F2AFC2B3F2AEC2B2F2666A5E
:1019D000B5530DE1B4510E0815E2FF0A08E1B35109
:1019E000410810E2FF0A03E1B2513F080BE2400E4A
:1019F000B25F420EB35B0F0EB45B000EB55B010E1F
:101A00006626E6D7676AB5530DE1B451000815E2C2
:101A1000FF0A08E1B351850810E2FF0A03E1B25161
:101A20009F080BE2A00EB25F860EB35B010EB45BA3
:101A3000000EB55B010E6726E6D7686AB5530AE16A
:101A4000B45308E1B35126080FE2FF0A03E1B25193
:101A50000F080AE2100EB25F270EB35B000EB45BF4
:101A6000B55B010E6826EAD7696AB5530AE1B4533B
:101A700008E1B35102080FE2FF0A03E1B251E7089F
:101A80000AE2E80EB25F030EB35B000EB45BB55B17
:101A9000010E6926EAD76A6AB55307E1B45305E136
:101AA000B35303E1B251630809E2640EB25F000E62
:101AB000B35BB45BB55B010E6A26EED76B6AB553B8
:101AC00007E1B45305E1B35303E1B251090809E258
:101AD0000A0EB25F000EB35BB45BB55B010E6B2602
:101AE000EED76C6AB55307E1B45305E1B35303E194
:101AF000B251000809E2010EB25F000EB35BB45BA5
:101B0000B55B010E6C26EED766C0A7F267C0A8F2DF
:101B100068C0A9F269C0AAF26AC0ABF26BC0ACF2AD
:101B20006CC0ADF2A353D8A457D0A1530DE1A0517E
:101B30000F080AE307E19F51420806E303E19E51C3
:101B40003F0802E30F0EA76FA1530DE1A05101085A
:101B50000AE307E19F51860806E303E19E519F08CF
:101B600002E30F0EA86FA1530BE1A05309E19F51AF
:101B7000270806E303E19E510F0802E30F0EA96F49
:101B8000A1530BE1A05309E19F51030806E303E1D0
:101B90009E51E70802E30F0EAA6FA15309E1A0537B
:101BA00007E19F5305E19E51630802E30F0EAB6FFF
:101BB000A15309E1A05307E19F5305E19E51090894
:101BC00002E30F0EAC6F9E5307E19F5305E1A05354
:101BD00003E1A15301E1AD6B010EA45DF90F21E218
:101BE000070F000179EF0EF00F0E0201A76F19D059
:101BF0000F0E0201A86F15D00F0E0201A96F11D0B0
:101C00000F0E0201AA6F0DD00F0E0201AB6F09D0AB
:101C10000F0E0201AC6F05D00F0E0201AD6F01D0A7
:101C20000201A5530CE1A7C29AF1A8C29BF1A9C277
:101C30009CF1AAC29DF1ABC29EF1ACC29FF1A52D51
:101C40000CD0A8C29AF1A9C29BF1AAC29CF1ABC266
:101C50009DF1ACC29EF1ADC29FF1A55102080CE10D
:101C60000F0E01019A6F9B6FABC29CF1ACC29DF14C
:101C7000ADC29EF19F6F0201A55103080CE1ABC2FA
:101C80009AF1ACC29BF1ADC29CF10F0E01019D6FA8
:101C90009E6F9F6F0201A55104080CE10F0E010118
:101CA0009A6F9B6F9C6FABC29DF1ACC29EF1ADC2AF
:101CB0009FF10201A551050809E10F0E01019A6F7C
:101CC0009B6F9C6B9D6B9E6B9F6F0201A5510608DD
:101CD0000EE10F0E01019A6F010E73249B6F0F0E20
:101CE0009C6FACC29DF1ADC29EF19F6F02010001DD
:101CF0001200F2CF0DF0F29EE824F76AF736170FC4
:101D0000F66E1D0EF7220A00F550FA6E0800F55027
:101D10000DBEF28EF96EE81BF01BF81B001C081CB0
:101D2000101C181C82B0FED73C0E02019C6F0001F3
:101D300079EC07F0585213E1595211E102019C6904
:101D40009D69A16BA06B020E9F6FF50E9E6FA2693D
:101D5000A36BA46B020EA56FA66B0001F2DD5850B9
:101D6000140812E1595210E102019C699D69A16BAE
:101D7000A06B9F6B8C0E9E6FA269A36BA46B020E6F
:101D8000A56FA66B0001DDDD02019D6B9C6B000160
:101D900002EC07F0848400D000D00000582AD8B4A8
:101DA000592A595203E15850280805E2596A586ADD
:101DB000562AD8B4572A565005080AE1575208E166
:101DC0000C0E0201986F996B000153EC08F006D0DD
:101DD00082A003D082B0FED701D0A6D737EC08F09E
:101DE000575227E15650050824E3585202E1595250
:101DF0000DE059520BE15850140808E30C0E020193
:101E0000986F996B000153EC08F01A92595203E154
:101E1000585014080EE259520CE15850280809E3B2
:101E20000C0E0201986F010E996F000153EC08F03F
:101E30001A82596A586A576A566A849440EF13F0B6
:101E400082B2FED702016291636B3C0E9C6F00016F
:101E500079EC07F058C000F05950036E02E10052CF
:101E600024E0035003E1140E005C29E0035003E179
:101E7000280E005C2EE0035003E13C0E005C33E0D2
:101E8000035003E1500E005C38E0035003E1640EA0
:101E9000005C3CE0035003E1780E005C40E003503E
:101EA00003E18C0E005C44E04CD01F6A1E6A040EF5
:101EB0001D6EB00E1C6E02016281000142D01F6ACD
:101EC0001E6A090E1D6E600E1C6E02016281000109
:101ED00038D01F6A1E6A120E1D6EC00E1C6E0201E3
:101EE000628100012ED01F6A1E6A250E1D6E800EB3
:101EF0001C6E02016281000124D01F6A1E6A4B0E13
:101F00001D6E1C6A0201628100011BD01F6A1E6ADD
:101F1000960E1D6E1C6A02016281000112D01F6ABA
:101F20001E6AE10E1D6E1C6A02016281000109D069
:101F30001F6A010E1E6EC20E1D6E1C6A02016281B6
:101F40000001020162A11BD0010E63279C699D69FB
:101F50001FC0A1F21EC0A0F21DC09FF21CC09EF2C5
:101F6000A269A36BA46BA56FA66B0001EADC02015A
:101F70009D6B9C6B000102EC07F00201629184846E
:101F800000D000D00000582AD8B4592A595203E191
:101F90005850A00806E2596A586A636B562AD8B4AA
:101FA000572A5650050804E1575202E1636B06D0E8
:101FB00082A003D082B0FED701D047D7000137EC12
:101FC00008F05752D8A464D05650050861E30201C6
:101FD0006351010A00010FE0030A14E0010A19E04D
:101FE000070A1EE0010A23E0030A28E0010A2DE0A7
:101FF0000F0A32E038D0FF0EAF6EA20EAC6E900E1C
:10200000AB6E37D0810EAF6EA20EAC6E900EAB6E83
:1020100030D0400EAF6EA20EAC6E900EAB6E29D0DB
:10202000810EAF6EA60EAC6E900EAB6E22D0400E3F
:10203000AF6EA60EAC6E900EAB6E1BD0200EAF6EC8
:10204000A60EAC6E900EAB6E14D0150EAF6EA60E33
:10205000AC6E900EAB6E0DD00A0EAF6EA60EAC6ECF
:10206000900EAB6E06D0400EAF6EA20EAC6E900E10
:10207000AB6E0D0E0201986F63C299F2000153EC32
:1020800008F0030E0201946F000142EC08F007D043
:102090000D0E0201986F996B000153EC08F08494C7
:1020A00046EF13F01AB211D002019C699D69A16B31
:1020B000A06B020E9F6FF50E9E6FA269A36BA46BBF
:1020C000020EA56FA66B00013CDC1AA210D0020123
:1020D0009C699D69A16BA06B9F6B8C0E9E6FA26922
:1020E000A36BA46B020EA56FA66B00012ADC020194
:1020F0009D6B9C6B000102EC07F08484040E0201CE
:10210000626FFA0E9C6F000179EC07F00201622FFA
:10211000F8D76550010A00010FE0030A14E0010A34
:1021200019E0070A1EE0010A23E0030A27E0010A7A
:102130002BE00F0A2FE035D01F6A1E6A040E1D6EB9
:10214000B00E1C6E34D01F6A1E6A090E1D6E600E22
:102150001C6E2DD01F6A1E6A120E1D6EC00E1C6EE4
:1021600026D01F6A1E6A250E1D6E800E1C6E1FD0A3
:102170001F6A1E6A4B0E1D6E1C6A19D01F6A1E6AEA
:10218000960E1D6E1C6A13D01F6A1E6AE10E1D6E2C
:102190001C6A0DD01F6A010E1E6EC20E1D6E1C6AD7
:1021A00006D01F6A1E6A120E1D6EC00E1C6E020142
:1021B0009C699D691FC0A1F21EC0A0F21DC09FF2C4
:1021C0001CC09EF2A269A36BA46B010EA56FA66B47
:1021D0000001A1EC0CF002019D6B9C6B000102EC74
:1021E00007F08484040E0201626FFA0E9C6F0001F6
:1021F00079EC07F00201622FF8D782A203D0000128
:1022000051D7020100014BEF13F019A602D0199625
:1022100001D01986000E19B6010E010F0201626F7E
:10222000946F000142EC08F0000E19B6010E020195
:10223000626F0A0E986F62C299F2000153EC08F0C7
:10224000040E0201626FFA0E9C6F000179EC07F038
:102250000201622FF8D700014FEF13F002019953EA
:1022600010E11E0E9A259F6FA16F9EC2A5F29DC21E
:10227000A4F29CC2A3F29BC2A2F20001F7EC08F008
:102280000201992D10D0290E9A259F6FA16F9EC231
:10229000A5F29DC2A4F29CC2A3F29BC2A2F20001CD
:1022A000F7EC08F0020100011200010E0201975D37
:1022B000FC0F42E2040F00019FEF11F00201996B45
:1022C0005CC09AF225C09EF224C09DF223C09CF20D
:1022D00022C09BF20001C2DF02012ED0010E0201DA
:1022E000996F5CC09AF225C09EF224C09DF223C073
:1022F0009CF222C09BF20001B1DF02011DD0040E4E
:102300000201986F5AC099F2000153EC08F00201E3
:1023100013D0060E0201986F72C099F2000153ECBF
:1023200008F0070E0201986F73C099F2000153EC98
:1023300008F0020101D002010001D0EF11F0F2CF4C
:102340000DF0F29EE824F76AF736630FF66E230E5F
:10235000F7220A00F550FA6E0800F5500DBEF28E15
:10236000F96EBC22DC22FE2212230201966B5D5222
:1023700008E117BC02D0010E966F17AC02D0020E16
:10238000966F5D2C02D0030E966F5D50020802E13D
:10239000040E966F955305E096C297F2000185D71B
:1023A000020196C201F0000112000201986B96C270
:1023B00099F2000153EC08F01200030E0201986F2D
:1023C00096C299F2000153EC08F012000201952D1B
:1023D0000AD05D6A179C966B0001E7DF0201966BDD
:1023E0000001EBDF0201955102080BE15D6A178CD9
:1023F000010E966F0001D9DF0201966B0001DDDF4F
:1024000002019551030806E1010E5D6E966F000111
:10241000D4DF02019551040806E1020E5D6E966F4D
:102420000001CBDF02019551050802E15D6A179CAE
:102430009551060802E15D6A178C00011200020145
:10244000955309E11E0E9625976FAE6F0001D0ECF3
:102450000AF00DD00201952D09D0290E9625976F0F
:10246000AE6F0001D0EC0AF002D0020100011200B0
:10247000040E02019525966FAE6F0001D0EC0AF0B4
:1024800012000201956B000170DF01C094F202019D
:10249000942D0ED0956B5CC096F20001D0DF03C086
:1024A00025F002C024F001C023F000C022F0020198
:1024B000945102080FE1010E956F5CC096F2000185
:1024C000BEDF03C025F002C024F001C023F000C02D
:1024D00022F002019451030813E1040E956F0001EC
:1024E00082EC08F001C05AF05AC095F2C1DF03C077
:1024F00025F002C024F001C023F000C022F0020148
:1025000094510408D8A485D01BBE7BD0B06B73C097
:10251000AFF2B26BA40EB16F0001B0EC07F002C0D5
:1025200096F201C095F202C003F002010150F2CF11
:1025300097F2F29E02C0F7FF000142EC03F0006E3A
:102540000900F5CF01F00900F5CF02F00900F5CF41
:1025500003F0020197BFF28E03C09AF202C099F213
:1025600001C098F2976F97530DE198530BE199537F
:1025700009E19A5307E17350060802E3732A01D078
:10258000736AC4D77250010802E3010E726E725072
:10259000270802E2280E726EB06B73C0AFF2B26B06
:1025A000A40EB16F0001B0EC07F002C096F201C0BA
:1025B00095F20201B06B72C0AFF2B26B040EB16F54
:1025C0000001B0EC07F002C003F0015002019525B4
:1025D000016E965103220150F2CF95F2F29E03C094
:1025E000F7FF000142EC03F0006E0900F5CF01F0A7
:1025F0000900F5CF02F00900F5CF03F0020195BF05
:10260000F28E03C025F002C024F001C023F000C008
:1026100022F094C201F000011200848200D000D0A8
:10262000000082A210D0020E0201946F000142EC61
:1026300008F082B2FED71F0E0201986F996900015F
:1026400053EC08F0FF0084921F0E0201956F000109
:1026500082EC08F0012C01D005D086EF09F0BCEC2B
:102660000BF002D0BCEC0BF0848400D000D0000052
:1026700082A00CD0596A586A576A566A92EF0EF0D7
:10268000596A586A576A566A20EF0FF082A204D03E
:1026900082A202D007D5FCD782A403D0B6D582B4DB
:1026A000FED78494808A00D000D0000082A002D09F
:1026B000179801D0178817B80CD00201956B00014C
:1026C00054DE0150040805E1010E0201956F00017E
:1026D0007DDE809AD6DE74EF39F00201AD6B83A8FF
:1026E00002D0080EAD2783AA02D0040EAD2783AC1A
:1026F00002D0020EAD27ADC201F00001120063C08E
:1027000064F0030E0201B16F00018FEC06F064C0AB
:10271000B1F28FEC06F092EF14F0D8B204D0020EB2
:10272000EA6EB50EE96E006A016A026A036A020186
:10273000B56BB66BB76BB86BB451B311B211B111C5
:102740002CE0200EB96FD890AD37AE37AF37B03729
:10275000B537B637B737B837B451B85D08E1B351BC
:10276000B75D05E1B251B65D02E1B151B55D0FE370
:10277000B151B55FB251D8A0B23DB65FB351D8A048
:10278000B33DB75FB451D8A0B43DB85FD880003630
:10279000013602360336B92FD6D7B5C2EFFFB6C21F
:1027A000ECFFB7C2ECFFB8C2ECFF00017DEF15F003
:1027B000016A026A006A036A0201B05102E1AF5184
:1027C00018E0100EB16FD890AD37AE370036033633
:1027D000B051035C02E1AF51005C07E3AF51005E12
:1027E000D8A00306B051035ED88001360236B12F5F
:1027F000EAD700011200700E0201B06FAF51B02590
:10280000816E0001120081CF04F21DEF14F063C04D
:1028100064F0020E0201B16F00018FEC06F064C09B
:10282000B1F28FEC06F025EF14F004C281FF020133
:10283000046B000126EF14F0E6D7700E0201B06FB2
:10284000AF51B025816E0001E2D7EFD712001B9A7D
:102850009BC214F29AC213F299C212F298C211F2F8
:1028600002019C6B9C51090856E39C51030DF350E7
:10287000040DF350036ACC0FE96E000E0320EA6EDC
:10288000EFCF00F0ECCF01F0ECCF02F0ECCF03F093
:1028900003509B5D3EE30BE102509A5D3AE307E192
:1028A0000150995D36E303E10050985D32E39C519D
:1028B000030DF350010F040DF350036ACC0FE96EC2
:1028C000000E0320EA6EEFCF00F0ECCF01F0ECCF6A
:1028D00002F0ECCF03F09B51035C1BE30BE19A5138
:1028E000025C17E307E19951015C13E303E198519E
:1028F000005C0FE39C51030DF350020F040DF350E5
:10290000036ACC0FE96E000E0320EA6EEFCF5BF096
:1029100002D09C2BA7D719515B5C07E05BC081FFFD
:102920000001EDD65BC019F2020119B43AD00001E2
:10293000DAEC0AF003C029F002C028F001C027F049
:1029400000C026F029520DE128500E0821E2FF0AAE
:1029500008E1275041081CE2FF0A03E126503F0826
:1029600017E2400E265C006E420E2758016E0F0ED5
:102970002858026E000E2958036E00500201985F1D
:102980000150995B02509A5B03509B5B0AD0000197
:102990002650020198272750992328509A2329501E
:1029A0009B239BC2A0F29AC29FF299C29EF298C248
:1029B0009DF24B6A4A6AA0530DE19F51000817E24D
:1029C000FF0A08E19E51850812E2FF0A03E19D51CA
:1029D0009F080DE2A00E9D5F860E9E5B010E9F5B21
:1029E000000EA05B010E4A26000E4B22E4D74D6A72
:1029F0004C6AA0530AE19F5308E19E51260811E258
:102A0000FF0A03E19D510F080CE2100E9D5F270E97
:102A10009E5B000E9F5BA05B010E4C26000E4D22BC
:102A2000E8D74F6A4E6AA0530AE19F5308E19E51CE
:102A3000020811E2FF0A03E19D51E7080CE2E80EEB
:102A40009D5F030E9E5B000E9F5BA05B010E4E26FA
:102A5000000E4F22E8D7516A506AA05307E19F53F6
:102A600005E19E5303E19D5163080BE2640E9D5FF7
:102A7000000E9E5B9F5BA05B010E5026000E512254
:102A8000ECD7536A526AA05307E19F5305E19E5366
:102A900003E19D5109080BE20A0E9D5F000E9E5B4B
:102AA0009F5BA05B010E5226000E5322ECD7556AA5
:102AB000546A9D5306E19E5304E19F5302E1A053E3
:102AC0000BE0010E9D5F000E9E5B9F5BA05B010E05
:102AD0005426000E5522EDD7D8929BC2B0F29AC26E
:102AE000AFF299C2AEF298C2ADF2B46BB36B270EDF
:102AF000B26F100EB16F000110D601C0A2F200C07B
:102B0000A1F24DC0B0F24CC0AFF20201B26B640E44
:102B1000B16F0001B0EC07F002C0AEF201C0ADF23F
:102B20004FC0B0F24EC0AFF20201B26B0A0EB16FED
:102B30000001B0EC07F001500201AD270250AE23B6
:102B40005050AD25A36F5150AE21A46FA451000881
:102B500009E2FF0A03E1A351F30804E2F40EA35FC4
:102B6000010EA45B300EA327020EA423A56BA66B57
:102B7000A76BA86BA96BAA6BAB6BAC6B1551A35D74
:102B800003E11651A45D31E0A4C2A6F2A431AE6FF8
:102B9000A331AD6FAE33AD33AE33AD33AE33AD3302
:102BA0000F0EAE17AD510F0BA76FA3510F0BA86FF0
:102BB000300EA525816E00018DEC07F0200E02017C
:102BC000A625816E00018DEC07F0100E0201A725ED
:102BD000816E00018DEC07F0A8C281FF8DEC07F03B
:102BE000A4C216F2A3C215F202011751A15D04E1BD
:102BF0001851A25DD8B487D05B50050834E3A2C257
:102C0000AEF2A1C2ADF2B06B050EAF6F0001D0DD28
:102C100002C0AEF201C0ADF20C0E0201AD27000EF3
:102C2000AE23AE31036EAD31026E03320232033297
:102C300002320332023202C0ABF2A2C2AEF2A1C231
:102C4000ADF2B06B050EAF6F0001B2DD02C0AEF2A7
:102C500001C0ADF20C0E0201AD27000EAE23AD5146
:102C60000F0BAC6F33D0A2C2AEF2A1C2ADF2B06B0B
:102C7000050EAF6F00019CDD02C0AEF201C0ADF2E7
:102C8000120E0201AD5F000EAE5BAE31036EAD31D0
:102C9000026E03320232033202320332023202C0C7
:102CA000ABF2A2C2AEF2A1C2ADF2B06B050EAF6F35
:102CB00000017EDD02C0AEF201C0ADF2120E0201D3
:102CC000AD5F000EAE5BAD510F0BAC6F300EA925A2
:102CD000816E000198EC07F0200E0201AA25816E9A
:102CE000000198EC07F0100E0201AB25816E000187
:102CF00098EC07F0ACC281FF98EC07F0A2C218F282
:102D0000A1C217F2020152501A5D02E1535222E0B1
:102D1000535203E152501A5D0BE2010E5224AD6F83
:102D2000000E5320AE6FADC2AFF2000164DD0201B0
:102D300053520EE11A51525C0BE2010E5224AD6F58
:102D4000000E5320AE6FADC2AFF2000154DD0201A0
:102D500052C01AF254501B5D02E155521CE055520C
:102D600003E154501B5D05E254C0AFF2000164DD85
:102D7000020155520EE11B51545C0BE2010E54242A
:102D8000AD6F000E5520AE6FADC2AFF2000154DD45
:102D9000020154C01BF20001A0DC01C062F012006D
:102DA0000201826B84928494809A848000D000D047
:102DB000000082A402D0010E826F82A202D0020E15
:102DC000826F82A002D0030E826F8490848200D032
:102DD00000D0000082A402D0040E826F82A202D032
:102DE000050E826F82A002D0060E826F84928484C8
:102DF00000D000D0000082A402D0070E826F82A211
:102E000002D0080E826F82A002D0090E826F8494D5
:102E1000808A00D000D0000082A202D00A0E826F09
:102E2000849484928490809A82C201F000011200FE
:102E30000201826B83B204D082BA02D00B0E826F81
:102E400083B204D082BC02D00C0E826F83A206D063
:102E500082AA04D082AC02D00D0E826F83A204D06D
:102E600082BA02D00E0E826F83A204D082BC02D03E
:102E70000F0E826F82C201F0000112000201816B0D
:102E800082A472D082B4FED718A626D0000188DFB3
:102E9000015209E118961DC281F202011D6B81C227
:102EA00001F071D0000102011F3D01D007D01F2B9E
:102EB000010E9C6F000179EC07F002011F513208EE
:102EC0000AE21E0E1D25816F1886802D01D01D6B14
:102ED00081C201F058D00CD01F6B000161DF01C02E
:102EE0001DF202011D5304E01886320E016E4BD014
:102EF0001AAC2ED000019CDF015209E11A9C1EC2BF
:102F000081F202011E6B81C201F03DD0000190DF11
:102F100001C01EF20201203D01D007D0202B010E7E
:102F20009C6F000179EC07F002011E510D0803E1CE
:102F3000640E1C6F02D0140E1C6F20511C5D07E242
:102F4000050E1E25816F1A8C81C201F01CD00CD099
:102F5000206B00016DDF01C01EF202011E5304E070
:102F60001A8C320E016E0FD083A00BD0000137EC0B
:102F700008F083B0FED718AC02D0189C01D0188C92
:102F80000201000E016E0001120002016987010EAC
:102F9000956F0001B5EC11F001C07CF282A604D05F
:102FA000040E02017C2700010F0E02017E6F73C028
:102FB0007FF27C2D01D003D07C5102084AE15C50A5
:102FC000040DF350036A740FE96E000E0320EA6EDD
:102FD000EFCF6CF2ECCF6DF2ECCF6EF2ECCF6FF284
:102FE0005C50090813E3010E5C24040DF350036ADE
:102FF000740FE96E000E0320EA6EEFCF70F2ECCF93
:1030000071F2ECCF72F2ECCF73F208D077C073F2AA
:1030100076C072F275C071F274C070F217BC02D043
:10302000010E7E6F17AC02D00C0E7E6F62530EE164
:1030300063530CE164530AE1655308E16FC265F222
:103040006EC264F26DC263F26CC262F2666B010E14
:103050007D6F7C51050803E07C51060837E15C5028
:10306000040DF350036A740FE96E000E0320EA6E3C
:10307000EFCF6CF2ECCF6DF2ECCF6EF2ECCF6FF2E3
:103080005C50040DF350036AA00FE96E000E03209C
:10309000EA6EEFCF70F2ECCF71F2ECCF72F2ECCFC0
:1030A00073F217BC02D0010E7E6F17AC02D00C0E6B
:1030B0007E6F6FC265F26EC264F26DC263F26CC263
:1030C00062F2666B7CC27EF2010E7D6F7C5103085A
:1030D0003CE1666B66C295F2000138EC12F003C069
:1030E0006FF202C06EF201C06DF200C06CF202011C
:1030F00066510D080EE2956B000138EC12F003C02A
:1031000073F202C072F201C071F200C070F210D00E
:103110000201010E6625806F956F000138EC12F0F8
:1031200003C073F202C072F201C071F200C070F20B
:103130006FC265F26EC264F26DC263F26CC262F27B
:103140007CC27EF2010E02017D6F7C51040804E016
:103150007C510808D8A49DD0280E686F72C066F212
:103160001BBE7BD0B06B73C0AFF2B26BA40EB16F5D
:103170000001B0EC07F002C096F201C095F202C067
:1031800003F002010150F2CF97F2F29E02C0F7FF66
:10319000000142EC03F0006E0900F5CF01F00900D8
:1031A000F5CF02F00900F5CF03F0020197BFF28ED0
:1031B00003C09AF202C099F201C098F2976F975338
:1031C0000DE198530BE1995309E19A5307E17350CC
:1031D000060802E3732A01D0736AC4D76651010856
:1031E00002E3010E666F6651270802E2280E666F41
:1031F000B06B73C0AFF2B26BA40EB16F0001B0EC54
:1032000007F002C096F201C095F20201B06B66C2EF
:10321000AFF2B26B040EB16F0001B0EC07F002C068
:1032200003F0015002019525016E965103220150D1
:10323000F2CF95F2F29E03C0F7FF000142EC03F0DB
:10324000006E0900F5CF01F00900F5CF02F009008A
:10325000F5CF03F0020195BFF28E03C06FF202C0FA
:103260006EF201C06DF200C06CF249C073F248C04A
:1032700072F247C071F246C070F26FC265F26EC260
:1032800064F26DC263F26CC262F20F0E7E6F0A0EC0
:103290007D6F7C51070826E10E0E686F5AC066F2FA
:1032A00066C295F2000138EC12F003C06FF202C062
:1032B0006EF201C06DF200C06CF249C073F248C0FA
:1032C00072F247C071F246C070F26FC265F26EC210
:1032D00064F26DC263F26CC262F27CC27EF2C80E0E
:1032E00002017D6F70516C5D14E171516D5D11E1F2
:1032F00072516E5D0EE173516F5D0BE1189C020E11
:10330000946F000142EC08F0000E016E90EF1DF08A
:1033100002016F51735D1DE30BE16E51725D19E3A4
:1033200007E16D51715D15E303E170516C5D11E2D0
:103330006FC277F26EC276F26DC275F26CC274F231
:1033400073C27BF272C27AF271C279F270C278F201
:10335000698573516F5D1DE30BE172516E5D19E379
:1033600007E171516D5D15E303E16C51705D11E290
:1033700073C277F272C276F271C275F270C274F2E1
:103380006FC27BF26EC27AF26DC279F26CC278F2D1
:1033900069956B6B640E6A6F83A005D083B0FED70E
:1033A000189C6BEF1DF083A401D0698369A103D041
:1033B000562AD8B4572A702A582AD8B4592A6B5397
:1033C00009E170506A5D06E269A702D0699701D0F1
:1033D0006987706A7C51000803E27C51030806E2A9
:1033E0007C51040837E27C51060834E3000E69B7CB
:1033F000010E010A000103E0010A17E02AD07EC293
:103400009CF202019D6965C2A1F264C2A0F263C28E
:103410009FF262C29EF2A269A36BA46BA56B0A0E17
:10342000A66F0001A1EC0CF014D002019C699D690B
:1034300065C2A1F264C2A0F263C29FF262C29EF2B0
:10344000A269A36BA46BA56B0A0EA66F0001A1EC89
:103450000CF002017C51040804E07C510808D8A457
:10346000EFD01BBE7BD0B06B73C0AFF2B26BA40EBB
:10347000B16F0001B0EC07F002C096F201C095F206
:1034800002C003F002010150F2CF97F2F29E02C097
:10349000F7FF000142EC03F0006E0900F5CF01F0E8
:1034A0000900F5CF02F00900F5CF03F0020197BF44
:1034B000F28E03C09AF202C099F201C098F2976F9F
:1034C00097530DE198530BE1995309E19A5307E1A2
:1034D0007350060802E3732A01D0736AC4D7665199
:1034E000010802E3010E666F6651270802E2280E0A
:1034F000666FB06B73C0AFF2B26BA40EB16F000118
:10350000B0EC07F002C096F201C095F20201B06B78
:1035100066C2AFF2B26B040EB16F0001B0EC07F0FF
:1035200002C003F0015002019525016E965103225D
:103530000150F2CF95F2F29E03C0F7FF000142EC7A
:1035400003F0006E0900F5CF01F00900F5CF02F09D
:103550000900F5CF03F0020195BFF28E03C065F2BA
:1035600002C064F201C063F200C062F218B434D049
:10357000000E69B7010E010A000103E0010A18E01C
:1035800029D0020169A712D0030E9C6F9D69A16B1F
:10359000A06B9F6B66C29EF2A269A36BA46B060E22
:1035A000A56F0A0EA66F0001A1EC0CF0000112D06D
:1035B00002019C699D69A16BA06B9F6B66C29EF224
:1035C000A269A36BA46B060EA56F0A0EA66F00017D
:1035D000A1EC0CF034D00201000E69B7010E010A13
:1035E000000103E0010A17E02AD002019C695EC0D5
:1035F0009DF265C2A1F264C2A0F263C29FF262C2F0
:103600009EF2A269A36BA46BA56B0A0EA66F0001C4
:10361000A1EC0CF014D002019C699D6965C2A1F275
:1036200064C2A0F263C29FF262C29EF2A269A36B5F
:10363000A46BA56B0A0EA66F0001A1EC0CF00201B1
:103640007C51070844E166C295F2000138EC12F0A3
:1036500003C065F202C064F201C063F200C062F20E
:10366000000E020169B7010E010A000103E0010A20
:1036700018E02CD0030E02019C6F9D6965C2A1F277
:1036800064C2A0F263C29FF262C29EF266C2A2F25C
:10369000A36BA46BA56B0A0EA66F0001A1EC0CF046
:1036A00015D002019C699D6965C2A1F264C2A0F2B5
:1036B00063C29FF262C29EF266C2A2F2A36BA46BC7
:1036C000A56B0A0EA66F0001A1EC0CF002019D6B28
:1036D0000A0E9C6F000102EC07F049500201655D83
:1036E00014E30BE14850645D10E307E14750635D6C
:1036F0000CE303E16251465C08E249C065F248C050
:1037000064F247C063F246C062F26551455C14E35F
:103710000BE16451445C10E307E16351435C0CE34B
:1037200003E14250625D08E245C065F244C064F2C4
:1037300043C063F242C062F265C29BF264C29AF275
:1037400063C299F262C298F2000127EC14F0020100
:1037500069B3FAD0595204E158507D5DD8B0F4D025
:103760007C51000803E27C51030806E27C51040806
:1037700003E37C5106083EE369A507D0050E6227E6
:10378000000E63236423652306D0050E625F000EDE
:10379000635B645B655B6551775D15E30BE16451C9
:1037A000765D11E307E16351755D0DE303E174514B
:1037B000625D09E27BC265F27AC264F279C263F2A9
:1037C00078C262F217D07B51655D14E30BE17A5148
:1037D000645D10E307E17951635D0CE303E162513D
:1037E000785D08E277C265F276C264F275C263F270
:1037F00074C262F27C51040807E07C51070804E0BF
:103800007C510808D8A49ED06851665D02E2662B00
:1038100099D07C51070802E1666B94D07C5108086E
:10382000D8A48ED07350060802E3732A01D0736ABD
:10383000010E666F1BBE7BD0B06B73C0AFF2B26B74
:10384000A40EB16F0001B0EC07F002C096F201C007
:1038500095F202C003F002010150F2CF97F2F29EFE
:1038600002C0F7FF000142EC03F0006E0900F5CF43
:1038700001F00900F5CF02F00900F5CF03F00201D5
:1038800097BFF28E03C09AF202C099F201C098F27B
:10389000976F97530DE198530BE1995309E19A53B0
:1038A00007E17350060802E3732A01D0736AC4D794
:1038B0006651010802E3010E666F6651270802E2B5
:1038C000280E666FB06B73C0AFF2B26BA40EB16F0F
:1038D0000001B0EC07F002C096F201C095F20201BF
:1038E000B06B66C2AFF2B26B040EB16F0001B0EC08
:1038F00007F002C003F0015002019525016E9651B8
:1039000003220150F2CF95F2F29E03C0F7FF0001AF
:1039100042EC03F0006E0900F5CF01F00900F5CF8D
:1039200002F00900F5CF03F0020195BFF28E03C04B
:1039300065F202C064F201C063F200C062F202D01C
:10394000010E666F596A586A69A3C2D083B402D067
:10395000698103D06991576A566A57500A0809E28B
:10396000FF0A03E15650B80804E269916993576A67
:10397000566A010E806F00013EEC17F001C067F23D
:1039800002016751030806E06751210803E067510F
:103990000B0828E17C51000803E27C51030806E291
:1039A0007C51040803E37C51060806E30A0E6227F3
:1039B000000E6323642365237C51040806E07C51D8
:1039C000070803E07C5108080CE16851665D02E2DB
:1039D000662B07D07C51070802E1666B02D0010E0E
:1039E000666F69936751020806E06751200803E09B
:1039F00067510C082DE17C51000803E27C5103085B
:103A000006E27C51040803E37C51060806E30A0E33
:103A1000625F000E635B645B655B7C51040806E0DB
:103A20007C51070803E07C51080811E17C5107082C
:103A300007E1665302E0660702D068C266F207D06B
:103A40006651010802E2660702D068C266F2699315
:103A50007C51000803E27C51030806E27C51040813
:103A600003E37C5106082FE36551775D15E30BE115
:103A70006451765D11E307E16351755D0DE303E188
:103A80007451625D09E27BC265F27AC264F279C266
:103A900063F278C262F217D07B51655D14E30BE1EB
:103AA0007A51645D10E307E17951635D0CE303E152
:103AB0006251785D08E277C265F276C264F275C23F
:103AC00063F274C262F283A003D083B0FED7189C65
:103AD00018AC01D061D483A41CD065C225F064C2A7
:103AE00024F063C223F062C222F07C51040803E098
:103AF0007C51080802E166C272F07C510708D8B414
:103B000066C25AF0010E956F0001B5EC11F006D0B7
:103B100002017FC273F0000141EC12F0010E016E50
:103B20009DEF39F00F0E0201946F956B95510708C8
:103B300041E3000E17BA010E966F9551040DF35034
:103B4000010F036AA10FE96E010E0320EA6EEF5028
:103B5000965D2EE1000E18B4010E966F9551040D7E
:103B6000F350020F036AA10FE96E010E0320EA6E03
:103B7000EF50965D1DE1000E18B2010E966F955143
:103B8000040DF350030F036AA10FE96E010E032029
:103B9000EA6EEF50965D0CE19551040DF350036A07
:103BA000A10FE96E010E0320EA6EEFCF94F202D06E
:103BB000952BBCD717AA07D0010E966F0001EBEC2E
:103BC0000AF005D00201966B0001EBEC0AF018A494
:103BD00007D0010E0201966F00010FEC0BF005D02B
:103BE0000201966B00010FEC0BF018A207D0010E3A
:103BF0000201966F000144EC0BF005D00201966BB8
:103C0000000144EC0BF0050E0201986F94C299F28A
:103C1000000153EC08F0020194C201F0000112000F
:103C20005D50020822E17350060802E3732A01D0B6
:103C3000736A02019C695EC09DF2A16BA06B9F6BD1
:103C400072C09EF2A269A36BA46B020EA56FA66B55
:103C50000001A1EC0CF0070E0201986F73C099F2FD
:103C6000000153EC08F041EC12F012005D50020824
:103C70000AE018A202D0189202D01894188252DFDB
:103C800001C05EF001D0CCDF1200010E0201956F81
:103C90000001B5EC11F001C093F20201932D01D0A7
:103CA00003D09351020803E1030E936F0BD093519D
:103CB000030808E117BC02D0010E936F17AC02D0C5
:103CC000020E936F93C295F20001E6EC11F041EC05
:103CD00012F01200040E02019B25A06FA16F9FC27B
:103CE000A5F29EC2A4F29DC2A3F29CC2A2F2000160
:103CF000F7EC08F01200030E0201AE6F0001D0ECE9
:103D00000AF0120002019B6B9B51010847E3030E6E
:103D10009C6F95C29DF299C2A1F298C2A0F297C27F
:103D20009FF296C29EF29AC2A2F2A36BA46BA56BFD
:103D3000A66B0001A1EC0CF002019D6B9C6B0001D5
:103D400002EC07F0320E02019C6F000179EC07F0E3
:103D500037EC08F0030E02019C6F95C29DF299C2E8
:103D6000A1F298C2A0F297C29FF296C29EF2A269F7
:103D7000A36BA46BA56BA66B0001A1EC0CF0020178
:103D80009D6B9C6B000102EC07F0960E02019C6F8C
:103D9000000179EC07F002019B2BB6D70001E1EF9F
:103DA0001EF0020194695EC095F225C099F224C00C
:103DB00098F223C097F222C096F25AC09AF20001FC
:103DC000A1D71200010E0201956F0001B5EC11F0B0
:103DD00001C093F20201935102081EE3000E17BCCA
:103DE000010E946F956F5CC096F200011FEC12F00B
:103DF00003C097F202C096F201C095F200C094F29F
:103E00005AC09BF203C09FF202C09EF201C09DF215
:103E100000C09CF25FDF02019351030816E100012C
:103E20006ADF03C097F202C096F201C095F200C0AB
:103E300094F25AC09BF203C09FF202C09EF201C0EE
:103E40009DF200C09CF246DF02010001AADF41ECB6
:103E500012F0120017AA02D0179A01D0178A62DE58
:103E600001C05EF01200010E0201956F0001B5EC79
:103E700011F001C093F20201935104081AE1070EF8
:103E8000986F73C099F2000153EC08F0060E02011E
:103E9000986F72C099F2000153EC08F0000E17BC45
:103EA000010EFF0F0201946F956F0001E6EC11F017
:103EB0000201932D07D0020E956F0001E6EC11F080
:103EC00006D00201010E956F0001E6EC11F0000E24
:103ED00017BC010E0201946F986B996F000153ECAF
:103EE00008F041EC12F01200010E0201956F000182
:103EF000B5EC11F001C093F20201935103081DE3E8
:103F0000000E17BC010E946F0001F5DE03C098F29D
:103F100002C097F201C096F200C095F294C299F2E5
:103F20005CC09AF203C09EF202C09DF201C09CF2F6
:103F300000C09BF22EEC11F002019351040813E132
:103F4000000E17BC010E946F996F5CC09AF225C0E9
:103F50009EF224C09DF223C09CF222C09BF200017D
:103F60002EEC11F0020100011CDF41EC12F01200F6
:103F70000201935307E1956B0001B5EC11F001C00C
:103F800093F2020182A602D0040E9327932D01D052
:103F900003D09351020821E15C50090802E15C6AF8
:103FA00001D05C2A010E986F5CC099F2000153ECBD
:103FB00008F0000E17BC010E0201946F956F5CC0F3
:103FC00096F200011FEC12F003C025F002C024F0AD
:103FD00001C023F000C022F002019351030803E066
:103FE000935107081AE15A500D0802E35A2A01D0EA
:103FF0005A6A040E986F5AC099F2000153EC08F007
:104000005AC095F238EC12F003C025F002C024F03B
:1040100001C023F000C022F002019351040804E023
:1040200093510808D8A493D07250270801E3722A4C
:10403000060E986F72C099F2000153EC08F01BBE97
:104040007DD00201B06B73C0AFF2B26BA40EB16F42
:104050000001B0EC07F002C096F201C095F202C078
:1040600003F002010150F2CF97F2F29E02C0F7FF77
:10407000000142EC03F0006E0900F5CF01F00900E9
:10408000F5CF02F00900F5CF03F0020197BFF28EE1
:1040900003C09AF202C099F201C098F2976F975349
:1040A0000DE198530BE1995309E19A5307E17350DD
:1040B000060802E3732A01D0736AC4D7725001085C
:1040C00002E3010E726E7250270802E2280E726E31
:1040D000B06B73C0AFF2B26BA40EB16F0001B0EC65
:1040E00007F002C096F201C095F20201B06B72C0F7
:1040F000AFF2B26B040EB16F0001B0EC07F002C07A
:1041000003F0015002019525016E965103220150E2
:10411000F2CF95F2F29E03C0F7FF000142EC03F0EC
:10412000006E0900F5CF01F00900F5CF02F009009B
:10413000F5CF03F0020195BFF28E000103C025F018
:1041400002C024F001C023F000C022F0020193510C
:10415000050803E0935106081FE12550495C14E36C
:104160000BE12450485C10E307E12350475C0CE36B
:1041700003E14650225C08E2500E2226C30E2322A1
:10418000000E2422252208D045C025F044C024F08A
:1041900043C023F042C022F00001120002019353F9
:1041A00007E1956B0001B5EC11F001C093F202013B
:1041B000956B0001B5EC11F001C093F282A604D01A
:1041C000040E0201932700010201932D01D003D0B8
:1041D0009351020821E15C5203E1090E5C6E01D0AB
:1041E0005C06010E986F5CC099F2000153EC08F078
:1041F000000E17BC010E0201946F956F5CC096F221
:1042000000011FEC12F003C025F002C024F001C031
:1042100023F000C022F002019351030803E0935100
:1042200007081AE15A5202E05A0602D00E0E5A6EE0
:10423000040E986F5AC099F2000153EC08F05AC06E
:1042400095F238EC12F003C025F002C024F001C052
:1042500023F000C022F002019351040804E09351BE
:104260000808D8A493D07250010801E27206060E25
:10427000986F72C099F2000153EC08F01BBE7DD01C
:104280000201B06B73C0AFF2B26BA40EB16F00014C
:10429000B0EC07F002C096F201C095F202C003F044
:1042A00002010150F2CF97F2F29E02C0F7FF000127
:1042B00042EC03F0006E0900F5CF01F00900F5CFE4
:1042C00002F00900F5CF03F0020197BFF28E03C0A0
:1042D0009AF202C099F201C098F2976F97530DE1DC
:1042E00098530BE1995309E19A5307E1735006087B
:1042F00002E3732A01D0736AC4D77250010802E343
:10430000010E726E7250270802E2280E726EB06BB8
:1043100073C0AFF2B26BA40EB16F0001B0EC07F046
:1043200002C096F201C095F20201B06B72C0AFF20A
:10433000B26B040EB16F0001B0EC07F002C003F0E5
:10434000015002019525016E965103220150F2CFD2
:1043500095F2F29E03C0F7FF000142EC03F0006EFD
:104360000900F5CF01F00900F5CF02F00900F5CF03
:1043700003F0020195BFF28E000103C025F002C0D8
:1043800024F001C023F000C022F00201935105087F
:1043900003E0935106081FE14550255C14E30BE14F
:1043A0004450245C10E307E14350235C0CE303E139
:1043B0002250425C08E2500E225EC30E235A000EC9
:1043C000245A255A08D049C025F048C024F047C0D7
:1043D00023F046C022F00001120018A402D0189465
:1043E00002D01892188492EC1DF001C05EF0120009
:1043F0000201A36BA46B010EA56FDA6AD96A020EE3
:10440000A86F9B0EA76F020EEA6E9F0EE96EA8C200
:10441000E2FFA7C2E1FFA5C2A6F2D890E550EE02E6
:10442000F350A323F450A423A62FF7D7A3C2DEFF93
:10443000A4C2A3F2A46BD8B0A42BA72BD8B4A82BEA
:10444000A52BA5510508DFE100011200020E0201B3
:10445000A16F9AC2A5F299C2A4F298C2A3F297C220
:10446000A2F20001F7EC08F05AEF22F0020E02016E
:10447000AE6F0001D0EC0AF07BEF22F0000E17BC0B
:10448000010E0201936F956F5CC096F200011FEC64
:1044900012F003C096F202C095F201C094F200C07F
:1044A00093F203C09AF202C099F201C098F200C0E0
:1044B00097F2CCD7000E17BC010E0201936F5AC0C1
:1044C00095F2000138EC12F003C097F202C096F2A8
:1044D00001C095F200C094F293C299F25CC09AF2C6
:1044E00003C09EF202C09DF201C09CF200C09BF28C
:1044F0002EEC11F0BBD703C096F202C095F201C0BA
:1045000094F200C093F25AC09BF203C09FF202C023
:104510009EF201C09DF200C09CF26AEC1EF041DCEC
:1045200041EC12F0120017A8C7D01BBEC5D0010E77
:104530000201956F0001B5EC11F001C093F2020188
:10454000935103085BE31894000192EC1DF001C045
:104550005EF0020E5D6E030E0201986F5DC099F26F
:10456000000153EC08F0070E0201956F000182EC88
:1045700008F001C073F0060E0201956F000182EC95
:1045800008F001C072F041EC12F04950255C14E3D0
:104590000BE14850245C10E307E14750235C0CE337
:1045A00003E12250465C08E249C025F048C024F0EF
:1045B00047C023F046C022F02550455C14E30BE1D0
:1045C0002450445C10E307E12350435C0CE303E117
:1045D0004250225C08E245C025F044C024F043C0AC
:1045E00023F042C022F025C09BF224C09AF223C0DF
:1045F00099F222C098F227EC14F0020193510408BA
:104600005AE11894000192EC1DF001C05EF0060E14
:104610000201986F72C099F2000153EC08F0070E86
:104620000201986F73C099F2000153EC08F05D6AC3
:10463000030E0201986F5DC099F2000153EC08F07F
:1046400041EC12F04950255C14E30BE14850245C26
:1046500010E307E14750235C0CE303E12250465C82
:1046600008E249C025F048C024F047C023F046C006
:1046700022F02550455C14E30BE12450445C10E328
:1046800007E12350435C0CE303E14250225C08E263
:1046900045C025F044C024F043C023F042C022F0BE
:1046A00025C09BF224C09AF223C099F222C098F24E
:1046B00027EC14F0020107D0030E0201946F0001F1
:1046C00042EC08F00201000112000201726B716BF2
:1046D000706B2BC26FF22A39006E0F0E001600505D
:1046E0000F0B736F746B756B766B2A510F0B776FB3
:1046F000786B796B7A6B2939006E0F0E00160050BB
:104700000F0B7B6F7C6B7D6B7E6B29510F0B7F6F6B
:10471000806B816B826B2839006E0F0E0016005083
:104720000F0B836F846B856B866B28510F0B876F24
:10473000886B896B8A6B2739006E0F0E001600504C
:104740000F0B8B6F8C6B8D6B8E6B27510F0B8F6FDD
:10475000906B916B926B6F51006E7051036E0350B2
:1047600006E1010E005C0001D8B47AD002010350CA
:1047700006E1020E005C0001D8B478D002010350BB
:1047800006E1030E005C0001D8B474D002010350AE
:1047900006E1040E005C0001D8B470D002010350A1
:1047A00006E1050E005C0001D8B46ED00201035092
:1047B00006E1060E005C0001D8B46AD00201035085
:1047C00006E1070E005C0001D8B466D00201035078
:1047D00006E1080E005C0001D8B467D00201035066
:1047E00006E1090E005C0001D8B467D00201035055
:1047F00006E10A0E005C0001D8B464D00201035047
:1048000006E10B0E005C0001D8B400D10201035098
:1048100006E10F0E005C0001D8B4FBD0020103508A
:1048200006E1FC0E005C0001D8B497D102010350F0
:1048300006E1FE0E005C0001D8B498D102010350DD
:1048400006E1FF0E005C0001D8B49AD102010350CA
:1048500006E1FD0E005C0001D8B495D1020196D1AD
:1048600036EC1EF037EC08F0020190D145EC1EF05A
:1048700002018CD1E2EC1EF0020188D12AEC1FF07B
:1048800037EC08F0020182D133EC1FF002017ED137
:1048900074EC1FF002017AD10201936B0001B8ECB5
:1048A0001FF037EC08F0020171D10201936B000197
:1048B00075DC37EC08F0020169D18FDD37EC08F0C8
:1048C000020164D17AC29EF279C29DF278C29CF252
:1048D00077C29BF20201A26B0F0EA16F420EA06F76
:1048E000400E9F6F000184DD03C096F202C095F276
:1048F00001C094F200C093F27EC29EF27DC29DF28E
:104900007CC29CF27BC29BF20201A26B010EA16FE2
:10491000860EA06FA00E9F6F00016ADD005002019D
:10492000932701509423025095230350962382C26B
:104930009EF281C29DF280C29CF27FC29BF2A26B6A
:10494000A16B270EA06F100E9F6F000151DD00506C
:10495000020193270150942302509523035096237C
:1049600086C29EF285C29DF284C29CF283C29BF2F3
:10497000A26BA16B030EA06FE80E9F6F000138DDE4
:1049800000500201932701509423025095230350B5
:1049900096238AC29EF289C29DF288C29CF287C287
:1049A0009BF2A26BA16BA06B640E9F6F000120DDD8
:1049B0000050020193270150942302509523035085
:1049C00096238EC29EF28DC29DF28CC29CF28BC247
:1049D0009BF2A26BA16BA06B0A0E9F6F000108DD1A
:1049E0000050020193270150942302509523035055
:1049F00096238F519325226E90519421236E9151CD
:104A00009521246E92519621256EC0D037DD02018A
:104A1000BDD08EC29EF28DC29DF28CC29CF28BC222
:104A20009BF20201A26B0F0EA16F420EA06F400E0F
:104A30009F6F0001DDDC03C096F202C095F201C059
:104A400094F200C093F292C29EF291C29DF290C283
:104A50009CF28FC29BF20201A26B010EA16F860E27
:104A6000A06FA00E9F6F0001C3DC005002019327CE
:104A700001509423025095230350962386C29EF240
:104A800085C29DF284C29CF283C29BF2A26BA16B91
:104A9000270EA06F100E9F6F0001AADC00500201CC
:104AA00093270150942302509523035096238AC2E2
:104AB0009EF289C29DF288C29CF287C29BF2A26BD1
:104AC000A16B030EA06FE80E9F6F000191DC0050F8
:104AD00002019327015094230250952303509623FB
:104AE0007EC29EF27DC29DF27CC29CF27BC29BF292
:104AF000A26BA16BA06B640E9F6F000179DC00506C
:104B000002019327015094230250952303509623CA
:104B100082C29EF281C29DF280C29CF27FC29BF251
:104B2000A26BA16BA06B0A0E9F6F000161DC0050AD
:104B3000020193270150942302509523035096239A
:104B400073519325226E74519421236E75519521D2
:104B5000246E76519621256E19D037EC08F017B8DF
:104B600002D0178801D01798020110D01F0E020141
:104B7000986F9969000153EC08F0FF00020106D01C
:104B8000FF00020103D017B8CEDC0201725308E126
:104B9000715306E1705304E16F51DF08D8B0D1D0F2
:104BA0007253D8A4CED07153D8A4CBD07053D8A40C
:104BB000C8D06F51EE08D8A0C4D0E00E6F5D936FDF
:104BC000000E7059946F000E7159956F000E725956
:104BD000966F7AC29EF279C29DF278C29CF277C239
:104BE0009BF2A26B0F0EA16F420EA06F400E9F6F43
:104BF0000001F8EC21F003C09AF202C099F201C062
:104C000098F200C097F27EC29EF27DC29DF27CC2F5
:104C10009CF27BC29BF20201A26B010EA16F860E79
:104C2000A06FA00E9F6F0001F8EC21F00050020170
:104C30009727015098230250992303509A2382C248
:104C40009EF281C29DF280C29CF27FC29BF2A26B57
:104C5000A16B270EA06F100E9F6F0001F8EC21F0E2
:104C600000500201972701509823025099230350C6
:104C70009A2386C29EF285C29DF284C29CF283C2B0
:104C80009BF2A26BA16B030EA06FE80E9F6F000159
:104C9000F8EC21F0005002019727015098230250B0
:104CA000992303509A238AC29EF289C29DF288C238
:104CB0009CF287C29BF2A26BA16BA06B640E9F6FEC
:104CC0000001F8EC21F000500201972701509823D1
:104CD0000250992303509A238EC29EF28DC29DF2F8
:104CE0008CC29CF28BC29BF2A26BA16BA06B0A0ED2
:104CF0009F6F0001F8EC21F000500201972701504E
:104D000098230250992303509A238F51972790514B
:104D100098239151992392519A2393C29BF29AC25C
:104D20009FF299C29EF298C29DF297C29CF2000136
:104D30006AEC1EF0030E0201946F000142EC08F0D1
:104D400002011888010E016E000148EF2EF00201E9
:104D500078531BE0796B7951240816E3036A795183
:104D6000D90FE96E010E0320EA6EEF503B08D8B46C
:104D70000BD0036A7951D90FE96E010E0320EA6E58
:104D8000300EEF6E792BE7D70FD07A6B7A51180877
:104D90000BE3036A7A51C10FE96E010E0320EA6E3C
:104DA000300EEF6E7A2BF2D7000112009EA8FED7CC
:104DB00002017B51AD6EACA2FED7020E7C6FCF0E0E
:104DC000A06F0001F2EC06F002017C2FF8D7000181
:104DD00012000201796B795117081BE3036A7951BC
:104DE000C10FE96E010E0320EA6EEFCF7AF27AC2AC
:104DF0007BF20001DBDF036A02017951C10FE96E2A
:104E0000010E0320EA6EEF503B08D8B402D0792B94
:104E1000E2D7000112001AAA13D00201786B000138
:104E200096DFFFC1C1F100C2C2F101C2C3F102C2EB
:104E3000C4F103C2C5F13B0E0101C66F0001C9DF19
:104E4000F0EF2CF002012951300801E11A902951AC
:104E5000310801E11A800001F4EF2CF05D5213E1FA
:104E600002017951040DF350036A320FE96E000E0E
:104E70000320EA6EEFCF57F2ECCF58F2ECCF59F2A5
:104E8000ECCF5AF200015D2C08D03DC05AF23CC074
:104E900059F23BC058F23AC057F25D500208D8A40C
:104EA00092D018B488D01BBE7DD00201B06B73C005
:104EB000AFF2B26BA40EB16F0001B0EC07F002C00C
:104EC00096F201C095F202C003F002010150F2CF48
:104ED00097F2F29E02C0F7FF000142EC03F0006E71
:104EE0000900F5CF01F00900F5CF02F00900F5CF78
:104EF00003F0020197BFF28E03C09AF202C099F24A
:104F000001C098F2976F97530DE198530BE19953B5
:104F100009E19A5307E17350060802E3732A01D0AE
:104F2000736AC4D77250010802E3010E726E7250A8
:104F3000270802E2280E726EB06B73C0AFF2B26B3C
:104F4000A40EB16F0001B0EC07F002C096F201C0F0
:104F500095F20201B06B72C0AFF2B26B040EB16F8A
:104F60000001B0EC07F002C003F0015002019525EA
:104F7000016E965103220150F2CF95F2F29E03C0CA
:104F8000F7FF000142EC03F0006E0900F5CF01F0DD
:104F90000900F5CF02F00900F5CF03F0020195BF3B
:104FA000F28E000103C05AF202C059F201C058F259
:104FB00000C057F208D041C05AF240C059F23FC079
:104FC00058F23EC057F20201575307E1585305E12A
:104FD000595303E15A53D8B4ADD05AC2B1F259C2B1
:104FE000B0F258C2AFF257C2AEF2B1C2B5F2B0C21F
:104FF000B4F2AFC2B3F2AEC2B2F2506BB5530DE130
:10500000B4510E0815E2FF0A08E1B351410810E25D
:10501000FF0A03E1B2513F080BE2400EB25F420EBD
:10502000B35B0F0EB45B000EB55B010E5027E6D7E5
:10503000516BB5530DE1B451000815E2FF0A08E1C8
:10504000B351850810E2FF0A03E1B2519F080BE259
:10505000A00EB25F860EB35B010EB45B000EB55BB3
:10506000010E5127E6D7526BB5530AE1B45308E15C
:10507000B35126080FE2FF0A03E1B2510F080AE21A
:10508000100EB25F270EB35B000EB45BB55B010E72
:105090005227EAD7536BB5530AE1B45308E1B35131
:1050A00002080FE2FF0A03E1B251E7080AE2E80E44
:1050B000B25F030EB35B000EB45BB55B010E53270A
:1050C000EAD7546BB55307E1B45305E1B35303E199
:1050D000B251630809E2640EB25F000EB35BB45BC9
:1050E000B55B010E5427EED7556BB55307E1B453AA
:1050F00005E1B35303E1B251090809E20A0EB25FB8
:10510000000EB35BB45BB55B010E5527EED7566B53
:10511000B55307E1B45305E1B35303E1B2510008BD
:1051200009E2010EB25F000EB35BB45BB55B010E2A
:105130005627EED7785324E0300E50250101DE6F5C
:10514000300E020151250101DF6F300E02015225A0
:105150000101E06F300E020153250101E16F300EB5
:10516000020154250101E26F300E020155250101B3
:10517000E36F300E020156250101E46F23D00201D6
:10518000300E50250101C66F300E0201512501017C
:10519000C76F300E020152250101C86F300E0201A7
:1051A00053250101C96F300E020154250101CA6F58
:1051B000300E020155250101CB6F300E020156253C
:1051C0000101CC6F000112000201786B0001BFDD0C
:1051D0000201786B77C279F2000140DE460E0101D0
:1051E000C16F0201775304E1410E0101C26F03D088
:1051F000420E0101C26F3B0ECE6F0001EADD1200CC
:10520000036A02017751C10FE96E010E0320EA6EB5
:105210002CC2EFFF010E7725036AC10FE96E010E64
:105220000320EA6E2DC2EFFF020E7725036AC10F3D
:10523000E96E010E0320EA6E2EC2EFFF030E772502
:10524000036AC10FE96E010E0320EA6E2FC2EFFF61
:10525000040E7725036AC10FE96E010E0320EA6E82
:1052600030C2EFFF050E7725036AC10FE96E010E0C
:105270000320EA6E31C2EFFF060E7725036AC10FE5
:10528000E96E010E0320EA6E32C2EFFF036A775126
:10529000C10FE96E010E0320EA6E300EEF5C786FED
:1052A000010E7725036AC10FE96E010E0320EA6E35
:1052B000300EEF5C796F020E7725036AC10FE96E3D
:1052C000010E0320EA6E300EEF5C7A6F030E772535
:1052D000036AC10FE96E010E0320EA6E300EEF5C27
:1052E0007B6F040E7725036AC10FE96E010E032060
:1052F000EA6E300EEF5C7C6F050E7725036AC10FF6
:10530000E96E010E0320EA6E300EEF5C7D6F060E33
:105310007725036AC10FE96E010E0320EA6E300E95
:10532000EF5C7E6F78C27FF279C280F27AC281F23E
:105330007BC282F27CC283F27DC284F27EC285F29D
:10534000896B886B876B7FC286F289C29EF288C2A6
:105350009DF287C29CF27FC29BF2A26B0F0EA16FDF
:10536000420EA06F400E9F6F0001F8EC21F003C0C9
:1053700089F202C088F201C087F200C086F2020101
:105380008D6B8C6B8B6B80C28AF28DC29EF28CC24D
:105390009DF28BC29CF280C29BF2A26B010EA16FA8
:1053A000860EA06FA00E9F6F0001F8EC21F0005058
:1053B0000201862701508723025088230350892346
:1053C0008D6B8C6B8B6B81C28AF28DC29EF28CC20C
:1053D0009DF28BC29CF281C29BF2A26BA16B270E45
:1053E000A06F100E9F6F0001F8EC21F00050020139
:1053F00086270150872302508823035089238D6B11
:105400008C6B8B6B82C28AF28DC29EF28CC29DF233
:105410008BC29CF282C29BF2A26BA16B030EA06FA7
:10542000E80E9F6F0001F8EC21F000500201862782
:105430000150872302508823035089238D6B8C6B86
:105440008B6B83C28AF28DC29EF28CC29DF28BC29C
:105450009CF283C29BF2A26BA16BA06B640E9F6F48
:105460000001F8EC21F0005002018627015087234B
:1054700002508823035089238D6B8C6B8B6B84C205
:105480008AF28DC29EF28CC29DF28BC29CF284C2C3
:105490009BF2A26BA16BA06B0A0E9F6F0001F8EC50
:1054A00021F00050020186270150872302508823F3
:1054B00003508923016A026A036A855186255B6F5E
:1054C000015087215C6F025088215D6F0350892154
:1054D0005E6F5BC200F05CC201F05DC202F05EC2B2
:1054E00003F000017DEF2AF00201786B00012FDC50
:1054F000050E0201776F000183D603C05EF202C081
:105500005DF201C05CF200C05BF2179C020176B153
:10551000178C7651040DF350036A320FE96E000EBA
:105520000320EA6E5BC2EFFF5CC2ECFF5DC2ECFFE2
:105530005EC2ECFF7651040DF350036A320FE96E40
:10554000000E0320EA6EEFCF22F0ECCF23F0ECCF79
:1055500024F0ECCF25F076C277F2000135DE1200A0
:10556000010E0201956F0001B5EC11F002017651B8
:10557000300815E15D6A179C000E17BC010E776FAD
:10558000956F5CC096F200011FEC12F003C025F08D
:1055900002C024F001C023F000C022F002017651C5
:1055A000310815E15D6A178C000E17BC010E776F8C
:1055B000956F5CC096F200011FEC12F003C025F05D
:1055C00002C024F001C023F000C022F00201765195
:1055D000320810E1010E5D6E5AC095F2000138EC00
:1055E00012F003C025F002C024F001C023F000C077
:1055F00022F00201030E986F5DC099F2000153EC96
:1056000008F0000E17BC010E0201776F986B996FBE
:10561000000153EC08F02BEF2DF0460E0101C16F95
:105620000201775304E1520E0101C26F03D0540E00
:105630000101C26F0201785304E1300E0101C36F12
:1056400003D0310E0101C36F3B0EC46F0001E9ECC2
:1056500026F012000201786B0001A7EC26F002018F
:10566000295130082FE117AC10D0010E996F5CC0A2
:105670009AF239C09EF238C09DF237C09CF236C013
:105680009BF200012EEC11F00201179C986B996BB4
:10569000000153EC08F035C025F034C024F033C0CD
:1056A00023F032C022F00201765306E1776B786B6B
:1056B0000001B3DF06D00201010E776F786B0001A5
:1056C000ACDF02012951310830E117BC0FD0996BD2
:1056D0005CC09AF235C09EF234C09DF233C09CF299
:1056E00032C09BF200012EEC11F00201178C986B76
:1056F000010E996F000153EC08F039C025F038C055
:1057000024F037C023F036C022F00201765307E1BF
:10571000776B010E786F000180DF06D00201010E69
:10572000776F786F000179DF02010001120002013A
:10573000786B0001A7EC26F00201765310E117BC4C
:1057400005D0776B786B000168DF020117AC06D0DB
:10575000776B010E786F000160DF020110D017BC7B
:1057600006D0010E776F786B000157DF020117AC8E
:1057700006D0010E776F786F00014FDF0201000144
:105780001200490E0101D96F460EDA6F010E0201B7
:10579000786F796B00012EEC27F05A50090809E266
:1057A000310E0101F36F0A0E5A5C300FF46F06D010
:1057B0000001300E0101F36F5A24F46F1AA803D0D0
:1057C000310EF56F02D0300EF56F20C0F6F117BC28
:1057D00003D0300EF76FF96F17AC03D0310EF76FAF
:1057E000F96F300EF86F000112000201766B7651EE
:1057F00025081CE3036A7651D90FE96E010E0320D8
:10580000EA6EEFCF77F277C27BF20001D6EC26F09A
:10581000036A02017651D90FE96E010E0320EA6E88
:10582000EF503B08D8B402D0762BE1D7000112002C
:1058300002012951300801E11A9A2951310801E188
:105840001A8A000E1ABA010E766F0F0E986F76C282
:1058500099F2000153EC08F037EC08F052EF2DF00C
:105860004C0E0101C16F4B0EC26F0201765304E171
:10587000300E0101C36F03D0310E0101C36F3B0E27
:10588000C46F0001E9EC26F012000201786B000100
:10589000A7EC26F017BA04D00201766B0001E0DF16
:1058A00017AA05D0010E0201766F0001D9DF55EF6E
:1058B0002DF00201786B0001A7EC26F002012951BE
:1058C000300805E1179A766B0001CADF0201295101
:1058D000310806E1178A010E766F0001C1DF02016F
:1058E000000192EC1DF001C05EF058EF2DF00201B6
:1058F000772D0CD0966B0001EBEC0AF0070E02013D
:10590000B16F00018FEC06F00DD00201B16B000108
:105910008FEC06F017AA06D0010E0201966F000167
:10592000EBEC0AF012000201736B756B746B74512F
:105930001E084BE37451040DF350036AF2CF76F264
:10594000F29E0001D1EC02F0020176BFF28E016EF0
:10595000275D39E17451040DF350010F036AF2CF52
:1059600076F2F29E0001D1EC02F0020176BFF28ED7
:10597000016E285D28E17451040DF350020F036A93
:10598000F2CF76F2F29E0001D1EC02F0020176BF76
:10599000F28E036A270FE96E020E0320EA6EEF50C3
:1059A0003B0811E17451040DF350030F036AF2CF69
:1059B00076F2F29E0001D1EC02F0020176BFF28E87
:1059C000016E756F02D0742BB2D7010E755DE20FB8
:1059D000D8B0BDD01E0F0001B3EF2DF00BEF27F0B4
:1059E0000201B5D022EF27F00201B1D00201936B82
:1059F0000001CEEC20F0010E0201736FA8D002016D
:105A0000936B0001B8EC1FF0010E0201736F9FD081
:105A10000201776B0001E4EC28F0020198D0010E3E
:105A20000201776F0001E4EC28F0020190D002013E
:105A3000766B000159DD010E0201736F88D0010EF3
:105A40000201766F000150DD010E0201736F7FD0FD
:105A500029C276F285D5010E0201736F78D002015A
:105A6000766B0001F7DD020E0201736F70D0020148
:105A7000766B00015CDE02016AD0010E0201766FD6
:105A80000001E8DD020E0201736F61D0010E020118
:105A9000766F00014CDE02015AD073DEA6DE0201F1
:105AA00056D0C6D6020153D0F0D6020150D001D74D
:105AB000020E0201736F4BD0020149D029C220F0BF
:105AC0000E0E0201986F20C099F2000153EC08F00D
:105AD00002013DD0000E17BC010E040DF350036A05
:105AE000320FE96E000E0320EA6EEFCF6FF2ECCFBB
:105AF00070F2ECCF71F2ECCF72F2020128D0020109
:105B000026D0020124D0020122D0020120D00201BD
:105B10001ED01A96000E1AB6010E0201766F776F2C
:105B20000001E5DE020113D01A86000E1AB6010E3E
:105B30000201766F776F0001DADE020108D0020100
:105B400006D0020104D01B8C020101D00201259174
:105B5000735303E073C201F003D01888000E016E86
:105B6000000151EF2EF0F2CF0DF0F29EE824F76A1B
:105B7000F7368B0FF66E5B0EF7220A00F550FA6EC1
:105B80000800F5500DBEF28EF96EDC59E459EC595F
:105B9000FE59105A1E5A2E5A3E5A505A5E5A6E5A82
:105BA0007A5A8C5A9A5AA25AA85AAE5AB85ABC5A19
:105BB000D45AFE5A025B065B0A5B0E5B125B285BE3
:105BC0003E5B425B465B02017051040A000101E04A
:105BD0002AD018B413D002019C695EC09DF2A16B5B
:105BE000A06B9F6B72C09EF2A269A36BA46B060EA2
:105BF000A56FA66B0001A1EC0CF014D002019C690A
:105C00005EC09DF225C0A1F224C0A0F223C09FF285
:105C100022C09EF2A269A36BA46BA56BA66B0001C8
:105C2000A1EC0CF021D00201956B0001B5EC11F054
:105C300001C072F2000E18B0010E0201736F01C0B4
:105C40009CF25EC09DF225C0A1F224C0A0F223C048
:105C50009FF222C09EF25AC0A2F2A36BA46BA56F62
:105C6000A66B0001A1EC0CF00201715306E09D6BE4
:105C70009C6B000102EC07F002010001120002011E
:105C80006E6B1AB208D025A106D0000165EF23F093
:105C900001C06EF202011AA207D025A105D00001B1
:105CA00042D601C06EF202011BAC18D01AB202D06B
:105CB0001A8201D01A92000E1AB2010E6F6F0C0EEA
:105CC000986F6FC299F2000153EC08F037EC08F0BE
:105CD0001AA202D056DD89DD1B9C02016E534BE0F7
:105CE0002591020E6E6F4950255C14E30BE148507C
:105CF000245C10E307E14750235C0CE303E12250EE
:105D0000465C08E249C025F048C024F047C023F0B3
:105D100046C022F02550455C14E30BE12450445C5E
:105D200010E307E12350435C0CE303E14250225CA3
:105D300008E245C025F044C024F043C023F042C02F
:105D400022F025C09BF224C09AF223C099F222C00F
:105D500098F2000127EC14F00201956B0001B5ECFC
:105D600011F001C06FF201C070F2010E0201716FFB
:105D7000000129DF02016EC201F0000112000201E0
:105D8000956B0001B5EC11F001C066F2020166519D
:105D9000020806E365512226000E23222422252232
:105DA0006651030806E1030E936F0001B8EC1FF083
:105DB00002016651040806E1040E936F0001B8EC7D
:105DC0001FF002010001CBEF36F00201956B0001DC
:105DD000B5EC11F001C066F202016651020806E35B
:105DE0006551225E000E235A245A255A6651030833
:105DF00006E1030E936F0001CEEC20F00201665124
:105E0000040806E1040E936F0001CEEC20F00201BD
:105E10000001D3EF36F00201956B0001B5EC11F0F3
:105E200001C065F202016551020806E3010E936F9D
:105E30000001B8EC1FF002016551040804E1000103
:105E400010EC1EF002010001DBEF36F00201956B51
:105E50000001B5EC11F001C065F2020165510208C4
:105E600006E36F0E2226000E2322242225220001A3
:105E7000DFEF36F00201956B0001B5EC11F001C0C7
:105E800065F202016551020806E36F0E225E000E04
:105E9000235A245A255A0001E3EF36F00201956B8C
:105EA0000001B5EC11F001C065F202016551020874
:105EB00006E3140E2226000E2322242225226551F9
:105EC000040806E1040E936F0001B8EC1FF0020114
:105ED0000001E7EF36F00201956B0001B5EC11F01F
:105EE00001C065F202016551020806E3140E225E4C
:105EF000000E235A245A255A6551040806E1040E5F
:105F0000936F0001CEEC20F002010001EBEF36F0C0
:105F100025C069F224C068F223C067F222C066F28D
:105F200002019C699D6969C2A1F268C2A0F267C2C0
:105F30009FF266C29EF2A269010EA36FA46BA56BCD
:105F4000A66B0001A1EC0CF037EC08F002016B6BC2
:105F50006A6B010E6C6F6D6B83B204D082AA02D0A3
:105F600082BC02D06C6BF8D76B5307E16A51090809
:105F700004E36A2BD8B46B2B07D01BA202D01B9270
:105F800001D01B826B6B6A6B6C51070835E1000E08
:105F90001BB2010E010A000103E0010A17E02AD03A
:105FA00002019C699D6969C2A1F268C2A0F267C240
:105FB0009FF266C29EF2A269010EA36F6CC2A4F2A8
:105FC000A56FA66B0001A1EC0CF014D002019C6936
:105FD0009D6969C2A1F268C2A0F267C29FF266C25F
