:04000000CFEF35F019
:08000800046ED8CF05F0E0CF33
:1000100006F00001E9CF0CF0EACF07F0E1CF08F0DD
:10002000E2CF09F0D9CF0AF0DACF0BF0F3CF12F01C
:10003000F4CF13F0FACF14F000C00EF001C00FF0AF
:1000400002C010F003C011F09DAA2AEF00F09EBA82
:1000500037EF02F00EC000F00FC001F010C002F048
:1000600011C003F00CC0E9FF07C0EAFF078E08C00B
:10007000E1FF09C0E2FF0AC0D9FF0BC0DAFF12C0DE
:10008000F3FF13C0F4FF14C0FAFF045006C0E0FFF2
:1000900005C0D8FF1000F2CF0DF0F29EAE0FF66E45
:1000A000000EF7220900F5500DBEF28E1200342525
:1000B00029001C292900042D2900D4342900BC382A
:1000C0002900A43C29008C4029005C482900444CAC
:1000D00029002C50290014542900E45B2900CC5F2E
:1000E0002900B46329009C6729006C6F29005473B0
:1000F00029003C772900247B2900F4822900DC8632
:100100002900C48A29007C962900AC8E290094928B
:100110002900649A29004C9E290034A229001CA6BB
:10012000290004AA2900ECAD2900D4B12900BCB5EE
:100130002900A4B929008CBD290074C129005CC51F
:10014000290044C929002CCD290014D12900BD1D46
:100150002A00A5212A008D252A0075292A005D2D57
:100160002A0045312A002D352A0015392A00FD3C88
:100170002A00E5402A00CD442A00B5482A009D4CBB
:100180002A0085502A006D542A0055582A003D5CEB
:100190002A0025602A000D642A00F5672A00DD6B1D
:1001A0002A00C56F2A00AD732A0095772A007D7B4F
:1001B0002A00657F2A004D832A0035872A001D8B7F
:1001C0002A00058F2A00ED922A00D5962A00BD9AB2
:1001D0002A00A59E2A008DA22A0075A62A005DAAE3
:1001E0002A0045AE2A002DB22A0015B62A00F2CF09
:1001F0000DF0F29EF76A080FF66E020EF722090064
:10020000F5500DBEF28E1200A086010020BF020044
:100210003057050060AE0A0050690F00C05C150041
:1002200040771B00200B2000009F240080B92A008B
:10023000C0C62D00F2CF0DF0F29EF76A4E0FF66E9B
:10024000020EF7220900F5500DBEF28E120050C3C7
:100250000000400D030060CC050080FC0A006090A7
:100260000F0078E5150060C51B00E8BA2000A02546
:100270002600C0C62D00C0C62D00F2CF0DF0F29EA4
:10028000F76A940FF66E020EF7220900F5500DBEC4
:10029000F28E120000000000EF4902000100000091
:1002A000F04902008FD003000100000090D003004D
:1002B0007F1A060002000000801A0600AF710B00D2
:1002C00003000000B0710B008F0510000400000057
:1002D000900510000F2016000500000010201600E9
:1002E0008F3A1C0006000000903A1C006FCE2000E0
:1002F0000700000070CE20009F25260008000000A7
:10030000A02526007F96980009000000F2CF0DF08E
:10031000F29EF76A260FF66E030EF7220900F550DB
:100320000DBEF28E1200F0490200400D030030575E
:100330000500801A060060AE0A00B0710B00404252
:100340000F0090051000C05C1500102016004077CB
:100350001B00903A1C00200B200070CE2000009F54
:100360002400F0E8260080B92A00C0C62D00000055
:10037000000000000000F2CF0DF0F29EF76A900F2F
:10038000F66E030EF7220900F5500DBEF28E120034
:100390004944020141490302444E020355500204FC
:1003A000464102054642020646410D0746420D08F7
:1003B000464E03094652030A4652020B4654030CAA
:1003C0004654020D4946020E4945030F4C4B02109C
:1003D0004C4B03114D4305124D4403134D5206146B
:1003E0004D57171552430216524402175255021820
:1003F000525403195258021A5458021B5343031CF7
:100400005350031D5941021E00000000000000006F
:1004100000000000000000000000000000000000DC
:1004200000000000000000000000000000000000CC
:1004300000000000000000000000000000000000BC
:1004400000000000000000000000000000000000AC
:1004500000000000000000009EAAFED7ABCF16F0FF
:10046000AECF01F016A202D0AB98AB88120021B635
:1004700024D09EAA22D0F0DF01C016F1036A010148
:100480003551170FE96E010E0320EA6E16C1EFFF1A
:100490001AB20AD016513B0801E1218035510408F7
:1004A00002E1218601D0352B1AA206D016513B0855
:1004B00002E1218601D0352B000121A605D09EBA8C
:1004C000CBDF0101356B00019E9A2AEF00F001019C
:1004D000A251F80F24E2080F000193EF02F0806AA6
:1004E00001011DD0080E806E010119D0040E806E2E
:1004F000010115D00C0E806E010111D0020E806E2C
:1005000001010DD00A0E806E010109D0060E806E29
:10051000010105D00E0E806E010101D00101A2C1C2
:1005200047F000011200F2CF0DF0F29EE824F76AC6
:10053000F7364B0FF66E050EF7220A00F550FA6EED
:100540000800F5500DBEF28EF96EDE04E404EC04F2
:10055000F404FC0404050C051405010EEA6E840E77
:10056000E96EEF500DE0060E016E006A002EFED718
:10057000012EFBD77B0E006E002EFED7EF2EF3D799
:10058000120047C048F0010E0101A26F00019FDF79
:1005900000D048C0A2F19BDF1200818E00D0819E66
:1005A0001200650E816EEDDF5D0E816EEADF4C0E8E
:1005B000816EE7DF600E816EF0DF510E816EEDDF40
:1005C0004E0E816EEADF83EF36F047C048F0040E2E
:1005D0000101A26F00017BDF100E006E002EFED71E
:1005E000000048C0A2F173DF120001017A6B79515B
:1005F0007A5D0AE20001E9DFC80E0101846F0001A3
:10060000ACDF01017A2BF3D700011200E00E0101EB
:100610008525886FF2CF89F1F29E88C1A9FFA69C3B
:10062000A69EA680A85089BFF28E876F8651875DEF
:10063000D8B419D0E00E8525886FF250006EF29E76
:1006400088C1A9FF86C1A8FFA69CA69EA6840F010B
:10065000550EA76EAA0EA76EA682A6B2FED7A694C6
:100660000050F212010100011200E00E01017C2590
:100670007D6FF2CF7EF1F29E7DC1A9FFA69CA69E62
:10068000A680A8507EBFF28E016E0001120001010B
:10069000966B965103081FE3010E986F920E976FA9
:1006A00096519725016E000E9821036E0150E96E58
:1006B00003C0EAFF96518D25996FF2CF9AF1F29E11
:1006C00099C1A9FFA69CA69EA680A8509ABFF28EAB
:1006D000EF6E962BDED792518E5D0AE193518F5DBE
:1006E00007E19451905D04E19551915DD8B42FD00C
:1006F000966B965103082BE396518D25976F010E4B
:10070000996F8E0E986F96519825016E000E992163
:10071000036E0150E96E03C0EAFFEFCF98F1F2508B
:10072000006EF29E97C1A9FF98C1A8FFA69CA69E45
:10073000A6840F01550EA76EAA0EA76EA682A6B2BA
:10074000FED7A6940050F2120101962BD2D70001D9
:10075000BBEF03F001018751040DF3CF8CF18CC185
:100760008DF18BC191F18AC190F189C18FF188C15E
:100770008EF100018CD71200030E0101876F7FC13B
:100780008BF17EC18AF17DC189F17CC188F10001C4
:10079000E1DF120001014A6B4A5109084EE34A5158
:1007A000040DF350036AF2CF4BF1F29E00011FDDFE
:1007B000006E0900F5CF01F00900F5CF02F0090045
:1007C000F5CF03F001014BBFF28E0350495D33E3D7
:1007D0000BE10250485D2FE307E10150475D2BE339
:1007E00003E10050465D27E3010E4A25040DF35056
:1007F000036AF2CF4BF1F29E0001F9DC006E0900B2
:10080000F5CF01F00900F5CF02F00900F5CF03F0B4
:1008100001014BBFF28E4951035C0DE30BE14851DE
:10082000025C09E307E14751015C05E303E1005085
:10083000465DD8A002D04A2BAFD74AC101F00001D3
:1008400031EF05F00101456B455112080EE345C13A
:1008500087F18B6B0A0E8A6FAE0E896F600E886F00
:10086000000178DF0101452BEFD7130E456F45518D
:100870001D080BE345C187F18B6B8A6B896B886B15
:10088000000168DF0101452BF2D71E0E456F45516F
:1008900028082CE31E0E455D040DF350036AF2CFC9
:1008A00046F1F29E0001A3DC006E0900F5CF01F0D5
:1008B0000900F5CF02F00900F5CF03F0010146BFB2
:1008C000F28E03C049F102C048F101C047F1466F02
:1008D00045C187F103C08BF102C08AF101C089F1E3
:1008E000886F000137DF0101452BD1D7290E456FF5
:1008F000455133082CE3290E455D040DF350036A7E
:10090000F2CF46F1F29E000172DC006E0900F5CFD5
:1009100001F00900F5CF02F00900F5CF03F0010165
:1009200046BFF28E03C049F102C048F101C047F151
:10093000466F45C187F103C08BF102C08AF101C047
:1009400089F1886F000106DF0101452BD1D7340EF4
:10095000456F455135080BE345C187F18B6B8A6BB9
:10096000896B886B0001F6DE0101452BF2D7360E4C
:10097000876F8B6B8A6B270E896F100E886F000153
:10098000E9DE370E0101876F8B6B300E8A6FD40E54
:10099000896F886B0001DEDE0101856B866B0001CB
:1009A00035DE030E0101856F866B00012FDE040E1C
:1009B0000101856F866B000129DE080E0101856F3C
:1009C000866B000123DE090E0101856F866B000135
:1009D0001DDE050E0101856F0F0E866F000116DE0C
:1009E000020E0101856F866B000110DE0C0E010105
:1009F000856F866B00010ADE0D0E01017C6F000120
:100A000034DE013C06D00D0E0101856F866B0001BE
:100A1000FDDD0E0E0101856F310E866F0001F6DDE2
:100A20000F0E0101856F866B0001F0DD0A0E0101DA
:100A3000856F010E866F0001E9DD01017F6B0A0EF3
:100A40007E6FAE0E7D6F600E7C6F000195DE010142
:100A5000496B0A0E486FAE0E476F600E466F00017D
:100A600099D601C046F1010E0101856F01C086F1E2
:100A70000001CCDD060E0101856F130E866F0001AB
:100A8000C5DD070E0101856F866B0001BFDD1F0EFE
:100A90000101856F010E866F0001B8DDFF00A9EF2F
:100AA00036F00101A06BA05103081FE3010EA66FF1
:100AB000A10EA56FA051A525016E000EA621036E03
:100AC0000150E96E03C0EAFFA0519F25A76FF2CF46
:100AD000A8F1F29EA7C1A9FFA69CA69EA680A85039
:100AE000A8BFF28EEF6EA02BDED7A1C100F0A2C18D
:100AF00001F0A3C102F0A4C103F0000189EF05F0E9
:100B000001019D51040DF3CF9EF19EC19FF10001A3
:100B1000C8D7120001017B2D05D0050EA26F000180
:100B2000D6DC01017B5304E1A26B0001D0DC0101A2
:100B3000000112002A0E01019D6F0001E1DF120089
:100B40002A0E0101876F7FC18BF17EC18AF17DC1C1
:100B500089F17CC188F10001FDDD120001017B2DCE
:100B60001ED00001E7DF03C07FF102C07EF101C0AB
:100B70007DF100C07CF101017C5311E17D530FE157
:100B80007E530DE17F530BE125C07FF124C07EF140
:100B900023C07DF122C07CF10001D2DF01017B5333
:100BA00007E17F6B7E6B7D6B7C6B0001C9DF010110
:100BB0000001120001017B2D03D01BB001D01B806E
:100BC0007B5301E11B90000112000101466B46516D
:100BD00007083CE34651040DF350036A8C0FE96E9D
:100BE000000E0320EA6EEF50455D2EE14651040DE4
:100BF000F350010F036A8C0FE96E000E0320EA6EBA
:100C0000EFCF01F0179A01B0178A4651040DF35047
:100C1000020F036A8C0FE96E000E0320EA6EEFCF1D
:100C200001F0189401B018844651040DF350030FDD
:100C3000036A8C0FE96E000E0320EA6EEFCF01F01D
:100C4000189201B0188202D0462BC1D717AA06D03D
:100C5000010E7B6F00015EDF04D001017B6B0001A0
:100C600059DF18A406D0010E01017B6F000176DF69
:100C700004D001017B6B000171DF18A206D0010EC8
:100C800001017B6F000196DF04D001017B6B000145
:100C900091DF050E0101856F45C186F10001B6DCCB
:100CA000DDEF06F0360E01019D6F000129DF03C064
:100CB00072F002C071F001C070F000C06FF0370E2A
:100CC00001019D6F00011CDF03C076F002C075F0CA
:100CD00001C074F000C073F001017C6B0001C5DC41
:100CE000179C01B0178C030E01017C6F0001BDDC65
:100CF00001C041F0040E01017C6F0001B6DC01C0AF
:100D00003EF0080E01017C6F0001AFDC199E01B0BE
:100D1000198E020E01017C6F0001A7DC189E01B044
:100D2000188E0C0E01017C6F00019FDC1A9201B03D
:100D30001A820D0E01017C6F000197DC01C049F0A1
:100D40000E0E01017C6F000190DC01C020F00F0E3F
:100D500001017C6F000189DC1A9A01B01A8A090E20
:100D600001017C6F000181DC01C043F0050E01012F
:100D70007C6F00017ADC01C042F0010E01017C6F42
:100D8000000173DC01C040F00A0E01017C6F00011C
:100D90006CDC1A9E01B01A8E070E01017C6F0001F7
:100DA00064DC01C07CF0060E01017C6F00015DDC9B
:100DB00001C07BF042C045F108D74950F70F41E22E
:100DC000090F22EF07F0400EAF6EA20EAC6E900E30
:100DD000AB6E37D0FF0EAF6EA20EAC6E900EAB6E48
:100DE00030D0810EAF6EA20EAC6E900EAB6E29D0DD
:100DF000400EAF6EA20EAC6E900EAB6E22D0810E86
:100E0000AF6EA60EAC6E900EAB6E1BD0400EAF6EEA
:100E1000A60EAC6E900EAB6E14D0200EAF6EA60E6A
:100E2000AC6E900EAB6E0DD0150EAF6EA60EAC6E06
:100E3000900EAB6E06D00A0EAF6EA60EAC6E900E84
:100E4000AB6E1200F2CF0DF0F29EE824F76AF7368F
:100E5000690FF66E0E0EF7220A00F550FA6E0800C2
:100E6000F5500DBEF28EF96EC60DD40DE20DF00DEB
:100E7000FE0D0C0E1A0E280E360E01017C5308E1F1
:100E80001E0E7D257E6F9D6F00013ADE0CD00101A4
:100E90007C2D08D0290E7D257E6F9D6F000130DEF0
:100EA00002D0010100011200040E01017C257D6FBA
:100EB0009D6F000125DE120001017B6B415237E17D
:100EC0007C6B40C07DF10001D8DF03C06AF002C036
:100ED00069F001C068F000C067F0010E01017C6F8D
:100EE00040C07DF10001C9DF03C06EF002C06DF0AB
:100EF00001C06CF000C06BF017BC0CD06AC025F0CC
:100F000069C024F068C023F067C022F0010E01011F
:100F10007B6F000117AC0CD06EC025F06DC024F0C3
:100F20006CC023F06BC022F0020E01017B6F000148
:100F3000412C17D0040E01017C6F000135EC03F049
:100F400001C03EF03EC07CF1AFDF03C025F002C01F
:100F500024F001C023F000C022F0030E01017B6FDA
:100F60000001415002080CE1060E01017C6F0001F6
:100F700035EC03F001C07BF0040E01017B6F000132
:100F800001017BC101F000011200030E0101A75F06
:100F90000AE3010EEA6EA70EE96EEF5004E001D0FD
:100FA00000D0EF2EFDD7000112000101A36B18B88D
:100FB00025D0A25308E00001FB2BFB510408D8B058
:100FC00088D017D00101A46BA4510C080BE3036A6D
:100FD000A4517F0FE96E000E0320EA6EEF50A327A5
:100FE000A42BF2D70001FC510101A35D03E1000134
:100FF00070D001010001FB6BFC6B010182B4FED7D4
:1010000082A4FED7A56BA5510C085DE3036AA55128
:101010007F0FE96E000E0320EA6EEF500F0BE8A081
:101020008494E8B08484036AA5517F0FE96E000EB2
:101030000320EA6ED890EF300F0BE8A08492E8B05E
:101040008482036AA5517F0FE96E000E0320EA6EC9
:10105000EF30006E00323F0E001600500F0BE8A07C
:101060008490E8B08480036AA5517F0FE96E000E7A
:101070000320EA6EEF30006E003200321F0E0016C1
:1010800000500F0BE8A0809AE8B0808A8088310E6B
:10109000006E002EFED700D08098020EA66FB80E0C
:1010A000A76F000172DF0101A62FF9D7036AA551CE
:1010B0007F0FE96E000E0320EA6EEF500001FC275F
:1010C0000101A52BA0D71898809A849084928494CB
:1010D000000112000101903D01D003D090C183F0C6
:1010E00004D00F0E0001836F0101913D01D003D0A8
:1010F00091C184F004D00F0E0001846F0101963D70
:1011000001D003D096C18BF004D00F0E00018B6F7D
:10111000010195C1A5F194C1A4F193C1A3F192C1BC
:10112000A2F1A5C1A9F1A4C1A8F1A3C1A7F1A2C1CF
:10113000A6F14A6AA9530DE1A8510E0815E2FF0A6B
:1011400008E1A751410810E2FF0A03E1A6513F0858
:101150000BE2400EA65F420EA75B0F0EA85B000ECF
:10116000A95B010E4A26E6D74B6AA9530DE1A851A7
:10117000000815E2FF0A08E1A751850810E2FF0AFE
:1011800003E1A6519F080BE2A00EA65F860EA75BA7
:10119000010EA85B000EA95B010E4B26E6D74C6A38
:1011A000A9530AE1A85308E1A75126080FE2FF0A54
:1011B00003E1A6510F080AE2100EA65F270EA75BF7
:1011C000000EA85BA95B010E4C26EAD74D6AA95315
:1011D0000AE1A85308E1A75102080FE2FF0A03E160
:1011E000A651E7080AE2E80EA65F030EA75B000E11
:1011F000A85BA95B010E4D26EAD74E6AA95307E109
:10120000A85305E1A75303E1A651630809E2640E60
:10121000A65F000EA75BA85BA95B010E4E26EED76A
:101220004F6AA95307E1A85305E1A75303E1A6516B
:10123000090809E20A0EA65F000EA75BA85BA95B7E
:10124000010E4F26EED7506AA65306E1A75304E1DC
:10125000A85302E1A95309E0010EA65F000EA75BA7
:10126000A85BA95B010E5026EFD74AC09BF14BC08B
:101270009CF14CC09DF14DC09EF14EC09FF14FC0FE
:10128000A0F150C0A1F19753D8A457D095530DE1C8
:1012900094510F080AE307E19351420806E303E182
:1012A00092513F0802E30F0E9B6F95530DE194514D
:1012B00001080AE307E19351860806E303E192512E
:1012C0009F0802E30F0E9C6F95530BE1945309E1C5
:1012D0009351270806E303E192510F0802E30F0E32
:1012E0009D6F95530BE1945309E19351030806E375
:1012F00003E19251E70802E30F0E9E6F955309E157
:10130000945307E1935305E19251630802E30F0EF2
:101310009F6F955309E1945307E1935305E192516F
:10132000090802E30F0EA06F925307E1935305E102
:10133000945303E1955301E1A16B010E985DF90F00
:1013400021E2070F000149EF0AF00F0E01019B6F28
:1013500019D00F0E01019C6F15D00F0E01019D6F6A
:1013600011D00F0E01019E6F0DD00F0E01019F6F66
:1013700009D00F0E0101A06F05D00F0E0101A16F62
:1013800001D0010199530CE19BC185F09CC186F00D
:101390009DC187F09EC188F09FC189F0A0C18AF0ED
:1013A000992D0CD09CC185F09DC186F09EC187F01F
:1013B0009FC188F0A0C189F0A1C18AF099510208AB
:1013C0000CE10F0E0001856F866F9FC187F0A0C1F1
:1013D00088F0A1C189F08A6F0101995103080CE1DD
:1013E0009FC185F0A0C186F0A1C187F00F0E00015A
:1013F000886F896F8A6F0101995104080CE10F0E03
:101400000001856F866F876F9FC188F0A0C189F04A
:10141000A1C18AF001019951050809E10F0E0001EF
:10142000856F866F876B886B896B8A6F0101995115
:1014300006080CE1010E0001856F0F0E866F876FA5
:10144000A0C188F0A1C189F08A6F010199510708F4
:101450000CE1020E0001856F0F0E866F876FA0C131
:1014600088F0A1C189F08A6F0101995108080CE147
:10147000030E0001856F0F0E866F876FA0C188F085
:10148000A1C189F08A6F01019AC1A2F100018DDD2D
:101490001200F2CF0DF0F29EE824F76AF736B70F8C
:1014A000F66E140EF7220A00F550FA6E0800F55099
:1014B0000DBEF28EF96E4A1352135A1362136A1359
:1014C00072137A1382B0FED73C0E0101846F0001C3
:1014D000ADEC02F05A5213E15B5211E10101906947
:1014E0009169956B946B020E936FF50E926F9669EE
:1014F000976B986B020E996F9A6B0001EBDD5A5057
:10150000140812E15B5210E1010190699169956B39
:10151000946B936B8C0E926F9669976B986B020E1F
:10152000996F9A6B0001D6DD848400D000D0000052
:101530005A2AD8B45B2A5B5203E15A50280805E2C4
:101540005B6A5A6A582AD8B4592A585005080AE1E1
:10155000595208E10C0E0101856F866B000106EC03
:1015600003F006D082A003D082B0FED701D0ACD762
:10157000E5EC02F0595227E15850050824E35A528D
:1015800002E15B520DE05B520BE15A50140808E394
:101590000C0E0101856F866B000106EC03F01A92B8
:1015A0005B5203E15A5014080EE25B520CE15A50B0
:1015B000280809E30C0E0101856F010E866F0001FA
:1015C00006EC03F01A825B6A5A6A596A586A849474
:1015D000C0EF36F082B2FED701014591466B3C0E5A
:1015E000846F0001ADEC02F05AC000F05B50036E56
:1015F00002E1005224E0035003E1140E005C29E0F4
:10160000035003E1280E005C2EE0035003E13C0E82
:10161000005C33E0035003E1500E005C38E00350FF
:1016200003E1640E005C3CE0035003E1780E005CD3
:1016300040E0035003E18C0E005C44E04CD01F6A94
:101640001E6A040E1D6EB00E1C6E01014581000164
:1016500042D01F6A1E6A090E1D6E600E1C6E0101CB
:101660004581000138D01F6A1E6A120E1D6EC00E21
:101670001C6E0101458100012ED01F6A1E6A250ED5
:101680001D6E800E1C6E01014581000124D01F6A71
:101690001E6A4B0E1D6E1C6A0101458100011BD0A4
:1016A0001F6A1E6A960E1D6E1C6A010145810001AB
:1016B00012D01F6A1E6AE10E1D6E1C6A010145816F
:1016C000000109D01F6A010E1E6EC20E1D6E1C6A3B
:1016D000010145810001010145A115D0010E4627F8
:1016E000906991691FC095F11EC094F11DC093F1DE
:1016F0001CC092F19669976B986B996F9A6B000179
:10170000E9DC01014591848400D000D000005A2A10
:10171000D8B45B2A5B5203E15A50A00806E25B6A28
:101720005A6A466B582AD8B4592A5850050804E119
:10173000595202E1466B06D082A003D082B0FED798
:1017400001D04DD70001E5EC02F05952D8A464D085
:101750005850050861E301014651010A00010FE0FC
:10176000030A14E0010A19E0070A1EE0010A23E057
:10177000030A28E0010A2DE00F0A32E038D0FF0EFC
:10178000AF6EA20EAC6E900EAB6E37D0810EAF6E08
:10179000A20EAC6E900EAB6E30D0400EAF6EA20EAD
:1017A000AC6E900EAB6E29D0810EAF6EA60EAC6EF5
:1017B000900EAB6E22D0400EAF6EA60EAC6E900EA9
:1017C000AB6E1BD0200EAF6EA60EAC6E900EAB6E45
:1017D00014D0150EAF6EA60EAC6E900EAB6E0DD083
:1017E0000A0EAF6EA60EAC6E900EAB6E06D0400E1B
:1017F000AF6EA20EAC6E900EAB6E0D0E0101856F3A
:1018000046C186F1000106EC03F0030E0101796F79
:101810000001F5EC02F007D00D0E0101856F866B1B
:10182000000106EC03F08494C6EF36F01AB211D032
:10183000010190699169956B946B020E936FF50E9F
:10184000926F9669976B986B020E996F9A6B000175
:1018500041DC1AA210D0010190699169956B946BDB
:10186000936B8C0E926F9669976B986B020E996FC3
:101870009A6B00012FDC8484040E0101456FFA0E7F
:10188000846F0001ADEC02F00101452FF8D70D0E79
:101890007C6F000135EC03F00150010A0FE0030AF0
:1018A00014E0010A19E0070A1EE0010A23E0030A16
:1018B00027E0010A2BE00F0A2FE035D01F6A1E6ACD
:1018C000040E1D6EB00E1C6E34D01F6A1E6A090E07
:1018D0001D6E600E1C6E2DD01F6A1E6A120E1D6ECC
:1018E000C00E1C6E26D01F6A1E6A250E1D6E800E4D
:1018F0001C6E1FD01F6A1E6A4B0E1D6E1C6A19D00B
:101900001F6A1E6A960E1D6E1C6A13D01F6A1E6A1D
:10191000E10E1D6E1C6A0DD01F6A010E1E6EC20EF6
:101920001D6E1C6A06D01F6A1E6A120E1D6EC00E46
:101930001C6E0101906991691FC095F11EC094F160
:101940001DC093F11CC092F19669976B986B010EC4
:10195000996F9A6B00016AEC08F08484040E01010F
:10196000456FFA0E846F0001ADEC02F00101452FC6
:10197000F8D782A203D0000159D701010001CCEFB2
:1019800036F001014591459372C049F171C048F1AB
:1019900070C047F16FC046F176C04DF175C04CF193
:1019A00074C04BF173C04AF19069916949C195F1D6
:1019B00048C194F147C193F146C192F1010E966F6F
:1019C000976B986B996B9A6B00016AEC08F00101B8
:1019D00045B15BD046530AE1475308E1485306E15D
:1019E000495304E1496B486B476B466B49530DE122
:1019F0004851970811E2FF0A08E1475195080CE2A7
:101A0000FF0A03E146517F0807E2496B980E486FD1
:101A1000960E476F7F0E466F516B506B4F6B640E87
:101A20004E6F80A004D0000E016E16D015D082B883
:101A300009D04E51465F4F51475B5051485B515161
:101A4000495B08D04E5146274F51472350514823F8
:101A500051514923010E016E459301B0458345A3C1
:101A600014D09069916949C195F148C194F147C179
:101A700093F146C192F1010E966F976B986B996B3B
:101A80009A6B00016AEC08F0010145A15BD04A5352
:101A90000AE14B5308E14C5306E14D5304E14D6B11
:101AA0004C6B4B6B4A6B4D530DE14C51970811E257
:101AB000FF0A08E14B5195080CE2FF0A03E14A5185
:101AC0007E0807E24D6B980E4C6F960E4B6F7F0EA3
:101AD0004A6F516B506B4F6B640E4E6F80A004D0F9
:101AE000000E016E16D015D082B809D04E514A5F53
:101AF0004F514B5B50514C5B51514D5B08D04E5197
:101B00004A274F514B2350514C2351514D23010E25
:101B1000016E459301B0458345A314D09069916946
:101B20004DC195F14CC194F14BC193F14AC192F171
:101B3000020E966F976B986B996B9A6B00016AEC2B
:101B400008F0010145B33ED0848200D000D00000EF
:101B500082A031D082B0FED745B116D045819069C0
:101B600091694DC195F14CC194F14BC193F14AC1BA
:101B700092F1020E966F976B986B996B9A6B0001BE
:101B80006AEC08F015D0010145919069916949C14D
:101B900095F148C194F147C193F146C192F1010E0C
:101BA000966F976B986B996B9A6B00016AEC08F0D3
:101BB000E5EC02F0010182A204D082B2FED7849249
:101BC00002D0849205D7360E876F49C18BF148C188
:101BD0008AF147C189F146C188F10001AAEC03F0FE
:101BE000370E0101876F4DC18BF14CC18AF14BC19A
:101BF00089F14AC188F10001AAEC03F0FF00E4EF8B
:101C000036F01AAE02D01A9E01D01A8E000E1ABEFD
:101C1000010E0101456F90699169956B946B936B0F
:101C2000926F9669976B986B010E996F9A6B000192
:101C30006AEC08F0000E1ABE010E010F0101456F9B
:101C4000796F0001F5EC02F0000E1ABE010E0101E1
:101C5000456F0A0E856F45C186F1000106EC03F061
:101C6000040E0101456FFA0E846F0001ADEC02F025
:101C70000101452FF8D70001F2EF36F001019C6B0E
:101C800083A802D0080E9C2783AA02D0040E9C27AA
:101C900083AC02D0020E9C2783AE02D0010E9C279B
:101CA0009CC101F00001120085C18DF141520CE18F
:101CB0000101845302E1010E8C6F842D02D00C0EC1
:101CC0008C6F0F0E8E6F0001412C06D0020E0101A9
:101CD0008C6F8AC18EF10001000E18B0010E010157
:101CE0008F6F8CC190F18DC191F189C195F188C13F
:101CF00094F187C193F186C192F18EC196F1976BF1
:101D0000986B996F8BC19AF100016AEC08F0120090
:101D1000010180518203F3CF01F0F4CF00F083037F
:101D2000F350002681518203F3500020026E00011F
:101D3000120047C048F0030E0101A26F000167ECDA
:101D400002F000D048C0A2F167EC02F02DEF10F0D5
:101D500018AE0AD0140E3F2401019C6F9D6F000144
:101D600080EC05F007D006D0130E01019D6F000135
:101D700080EC05F01200D8B204D0010EEA6EA40E79
:101D8000E96E006A016A026A036A0101A46BA56B2D
:101D9000A66BA76BA351A211A111A0112CE0200EDC
:101DA000A86FD8909C379D379E379F37A437A537AB
:101DB000A637A737A351A75D08E1A251A65D05E1AB
:101DC000A151A55D02E1A051A45D0FE3A051A45F64
:101DD000A151D8A0A13DA55FA251D8A0A23DA65F68
:101DE000A351D8A0A33DA75FD880003601360236A4
:101DF0000336A82FD6D7A4C1EFFFA5C1ECFFA6C11B
:101E0000ECFFA7C1ECFF000112000101A86BA96B58
:101E1000010EAA6FDA6AD96AAD6FA00EAC6F010E1F
:101E2000EA6EA40EE96EADC1E2FFACC1E1FFAAC14A
:101E3000ABF1D890E550EE02F350A823F450A9235B
:101E4000AB2FF7D7A8C1DEFFA9C1A8F1A96BD8B005
:101E5000A92BAC2BD8B4AD2BAA2BAA510508DFE1D6
:101E600000011200700E0101A16FA051A125816E29
:101E70000001120081CFEFF053EF0FF047C048F0A0
:101E8000020E0101A26F000167EC02F000D048C011
:101E9000A2F167EC02F05BEF0FF0EFC081FFEF6B98
:101EA0005CEF0FF0E7D7700E0101A16FA051A125E3
:101EB000816E0001E3D7F1D7120001017C51725C01
:101EC00014E30BE17B51715C10E307E17A51705C24
:101ED0000CE303E16F50795D08E276C07CF175C0D8
:101EE0007BF174C07AF173C079F176507C5D14E3B4
:101EF0000BE175507B5D10E307E174507A5D0CE3F4
:101F000003E17951735C08E272C07CF171C07BF12E
:101F100070C07AF16FC079F17CC180F17BC17FF133
:101F20007AC17EF179C17DF17CC184F17BC183F1FD
:101F30007AC182F179C181F10651815D13E10751C6
:101F4000825D10E10851835D0DE10951845D0AE174
:101F500081C100F082C101F083C102F084C103F0AD
:101F60002AEF13F0856B85510908D8A06FD08551F1
:101F7000030DF350040DF350036AF2CF9CF1F29E6F
:101F800000013DEC01F0006E0900F5CF01F0090001
:101F9000F5CF02F00900F5CF03F001019CBFF28EEE
:101FA0000350805D51E30BE102507F5D4DE307E19B
:101FB00001507E5D49E303E100507D5D45E38551BD
:101FC000030DF350010F040DF350036AF2CF9CF19F
:101FD000F29E00013DEC01F0006E0900F5CF01F02A
:101FE0000900F5CF02F00900F5CF03F001019CBF15
:101FF000F28E8051035C28E30BE17F51025C24E305
:1020000007E17E51015C20E303E17D51005C1CE3AC
:102010008551030DF350020F040DF350036AF2CF04
:102020009CF1F29E00013DEC01F0006E0900F5CF3D
:1020300001F00900F5CF02F00900F5CF03F001012E
:102040009CBFF28E3F6E02D0852B8DD703513F5C33
:1020500007E03FC081FF00016CD63FC003F10101E2
:1020600019B437D0000174DE03C089F102C088F1D1
:1020700001C087F100C086F1010189530DE188514B
:102080000E081FE2FF0A08E1875141081AE2FF0A21
:1020900003E186513F0815E2400E865D006E420E58
:1020A0008759016E0F0E8859026E000E8959036E12
:1020B00000507D5F01507E5B02507F5B0350805B70
:1020C00008D086517D2787517E2388517F238951EF
:1020D000802380C18DF17FC18CF17EC18BF17DC1E8
:1020E0008AF1296A286A276A266A8D530DE18C5184
:1020F000000819E2FF0A08E18B51850814E2FF0A83
:1021000003E18A519F080FE2A00E8A5F860E8B5B67
:10211000010E8C5B000E8D5B010E2626000E272221
:1021200028222922E2D72D6A2C6A2B6A2A6A8D532B
:102130000AE18C5308E18B51260813E2FF0A03E100
:102140008A510F080EE2100E8A5F270E8B5B000E7D
:102150008C5B8D5B010E2A26000E2B222C222D2259
:10216000E6D7316A306A2F6A2E6A8D530AE18C53A2
:1021700008E18B51020813E2FF0A03E18A51E708E4
:102180000EE2E80E8A5F030E8B5B000E8C5B8D5BAC
:10219000010E2E26000E2F2230223122E6D7356A7C
:1021A000346A336A326A8D5307E18C5305E18B53ED
:1021B00003E18A5163080DE2640E8A5F000E8B5BB7
:1021C0008C5B8D5B010E3226000E332234223522C9
:1021D000EAD7396A386A376A366A8D5307E18C5311
:1021E00005E18B5303E18A5109080DE20A0E8A5F6B
:1021F000000E8B5B8C5B8D5B010E3626000E37224A
:1022000038223922EAD73D6A3C6A3B6A3A6A8A53E5
:1022100006E18B5304E18C5302E18D530DE0010E76
:102220008A5F000E8B5B8C5B8D5B010E3A26000E85
:102230003B223C223D22EBD7D89280C19FF17FC147
:102240009EF17EC19DF17DC19CF1A36BA26B270E17
:10225000A16F100EA06F00018EDD03C091F102C0CE
:1022600090F101C08FF100C08EF12DC0A3F12CC000
:10227000A2F12BC0A1F12AC0A0F10101A76BA66BAE
:10228000A56B640EA46F0001C0DD03C09FF102C006
:102290009EF101C09DF100C09CF131C0A3F130C09E
:1022A000A2F12FC0A1F12EC0A0F10101A76BA66B76
:1022B000A56B0A0EA46F0001A8DD005001019C2748
:1022C00001509D2302509E2303509F2332509C2592
:1022D000926F33509D21936F9351000809E2FF0ADA
:1022E00003E19251F30804E2F40E925F010E935B56
:1022F000300E9227020E9323946B956B966B976B1F
:10230000986B996B9A6B9B6B0001FD510101925D7B
:1023100005E10001FE510101935D32E093C195F1A9
:1023200093319D6F92319C6F9D339C339D339C33D1
:102330009D339C330F0E9D179C510F0B966F92513E
:102340000F0B976F806A300E9425816E0001C1ECEF
:1023500002F0200E01019525816E0001C1EC02F012
:10236000100E01019625816E0001C1EC02F097C1AB
:1023700081FFC1EC02F093C1FEF092C1FDF00101BA
:102380000001FF5101018E5D0AE100518F5D07E1FF
:102390000151905D04E10251915DD8B4D3D03F501A
:1023A000050858E3D89291C19FF190C19EF18FC169
:1023B0009DF18EC19CF1A36BA26BA16B050EA06F6A
:1023C0000001D9DC03C09FF102C09EF101C09DF164
:1023D00000C09CF10C0E01019C27000E9D239E2342
:1023E0009F239F31036E9E31026E9D31016E9C31A1
:1023F000006E033202320132003203320232013205
:102400000032033202320132003200C09AF1D89217
:1024100091C19FF190C19EF18FC19DF18EC19CF140
:10242000A36BA26BA16B050EA06F0001A4DC03C01F
:102430009FF102C09EF101C09DF100C09CF10C0E05
:1024400001019C27000E9D239E239F239C510F0B6F
:102450009B6F57D0D89291C19FF190C19EF18FC1CF
:102460009DF18EC19CF1A36BA26BA16B050EA06FB9
:10247000000181DC03C09FF102C09EF101C09DF10B
:1024800000C09CF1120E01019C5F000E9D5B9E5BE3
:102490009F5B9F31036E9E31026E9D31016E9C31B8
:1024A000006E033202320132003203320232013254
:1024B0000032033202320132003200C09AF1D89267
:1024C00091C19FF190C19EF18FC19DF18EC19CF190
:1024D000A36BA26BA16B050EA06F00014CDC03C0C7
:1024E0009FF102C09EF101C09DF100C09CF1120E4F
:1024F00001019C5F000E9D5B9E5B9F5B9C510F0BDF
:102500009B6F300E9825816E0001CDEC02F0200EFD
:1025100001019925816E0001CDEC02F0100E010140
:102520009A25816E0001CDEC02F09BC181FFCDECBC
:1025300002F091C102F190C101F18FC100F18EC191
:10254000FFF001013650045D06E1375204E13852D4
:1025500002E1395236E0395207E1385205E137528B
:1025600003E13650045D11E2010E36249C6F000E2B
:1025700037209D6F000E38209E6F000E39209F6F10
:102580009CC1A0F100016EDC0101395218E1385202
:1025900016E1375214E10451365C11E2010E362483
:1025A0009C6F000E37209D6F000E38209E6F000E2E
:1025B00039209F6F9CC1A0F1000154DC010136C09D
:1025C00004F13A50055D06E13B5204E13C5202E160
:1025D0003D522AE03D5207E13C5205E13B5203E106
:1025E0003A50055D05E23AC0A0F100015BDC010153
:1025F0003D5218E13C5216E13B5214E105513A5C60
:1026000011E2010E3A249C6F000E3B209D6F000EDC
:102610003C209E6F000E3D209F6F9CC1A0F10001E9
:1026200041DC01013AC005F100013EEC0EF001C0B1
:1026300046F084C109F183C108F182C107F181C16B
:1026400006F179C100F07AC101F07BC102F07CC1D2
:1026500003F00101000112000101805318E11E0E78
:102660008125866F876F85C18BF184C18AF183C113
:1026700089F182C188F10001AAEC03F085C16AF0FA
:1026800084C169F083C168F082C167F00101802DC7
:1026900018D0290E8125866F876F85C18BF184C183
:1026A0008AF183C189F182C188F10001AAEC03F0AB
:1026B00085C16EF084C16DF083C16CF082C16BF096
:1026C00001010001120001017B6B415225E117BCA1
:1026D00010D0806B40C081F125C085F124C084F109
:1026E00023C083F122C082F10001B6DF010E010197
:1026F0007B6F17AC11D0010E806F40C081F125C0F7
:1027000085F124C084F123C083F122C082F100014D
:10271000A3DF020E01017B6F412C16D025C07FF193
:1027200024C07EF123C07DF122C07CF10001BCEC0D
:1027300003F0040E0101856F3EC086F1000106EC36
:1027400003F0030E01017B6F415002080AE1060EFF
:10275000856F7BC086F1000106EC03F0040E0101D9
:102760007B6F7BC101F00001120001016A2D06D0D0
:10277000060EA26F000167EC02F001016A5305E149
:10278000A26B000167EC02F001010001120076501B
:102790000101675D14E30BE17550665D10E307E12D
:1027A0007450655D0CE303E16451735C08E276C02C
:1027B00067F175C066F174C065F173C064F167516B
:1027C000725C14E30BE16651715C10E307E1655143
:1027D000705C0CE303E16F50645D08E272C067F166
:1027E00071C066F170C065F16FC064F1686B17B8B5
:1027F00074D083A66AD019B867D0696B695109088B
:1028000054E3D8906935040DF350036AF2CF6AF1AE
:10281000F29E000186EC01F0006E0900F5CF01F098
:102820000900F5CF02F00900F5CF03F001016ABFFE
:10283000F28E0350675D37E30BE10250665D33E3D0
:1028400007E10150655D2FE303E10050645D2BE378
:10285000D8906935010F040DF350036AF2CF6AF185
:10286000F29E000186EC01F0006E0900F5CF01F048
:102870000900F5CF02F00900F5CF03F001016ABFAE
:10288000F28E6751035C0FE30BE16651025C0BE3D0
:1028900007E16551015C07E303E16451005C03E378
:1028A000010E686F02D0692BA9D768530CE10001B3
:1028B000E5EC02F083A606D0010E01016A6F00016B
:1028C00054DFF8D70101198807D019A805D06A6B21
:1028D00000014BDF1998010102D0010E686F67C13A
:1028E00025F066C124F065C123F064C122F068C1FF
:1028F00001F0000112000101656B82A428D182B4AD
:10290000FED718A67FD0808A84808482848400D0F9
:1029100000D0000082B404D082B202D082A063D082
:102920006451020807E10AC165F10A6B189665C196
:1029300001F050D1642D20D00D530CE10C516308EF
:1029400009E30C2BD8B40D2B0A0E846F0001ADECFB
:1029500002F001010D5303E10C5163080DE21E0E5C
:102960000A25656F0A6B809A8490849284940D6B1B
:102970000C6B65C101F02ED16451030833E10D5396
:102980000FE10C5163080CE30C2BD8B40D2B0A0E8D
:10299000846F0001ADEC02F0FF0E016E01011AD14F
:1029A0000D5303E10C5163081DE21E0E0A25656FED
:1029B000809A849084928494808A8480848284849F
:1029C00000D000D0000082B406D082B204D082B021
:1029D00002D00D6B0C6B809A84908492849465C1B4
:1029E00001F0F8D00CD018960AC165F10A6B8490FA
:1029F000849284940D6B0C6B65C101F0EBD08490D4
:102A0000849284941AAC53D083B204D082AA02D0A8
:102A100082BC43D06451020807E10BC165F10B6B26
:102A20001A9C65C101F0D6D0642D18D00F51115DEC
:102A300007E303E110510E5D03E20E2BD8B40F2B18
:102A400011510F5D0BE303E110510E5D07E3050E1D
:102A50000B25656F1A8C65C101F0BCD06451030869
:102A60001BE10F51115D0AE303E110510E5D06E217
:102A70000E2BD8B40F2BFF0E016EACD011510F5D91
:102A80000BE303E110510E5D07E3050E0B25656FA7
:102A90001A8C65C101F09ED009D01A9C0F6B0E6B89
:102AA0000BC165F10B6B65C101F094D002D00F6BC7
:102AB0000E6B18B64CD084928494809A848000D097
:102AC00000D0000082A403D01886010E0A6F82A2F3
:102AD00003D01886020E0A6F82A003D01886030E58
:102AE0000A6F8490848200D000D0000082A403D0BA
:102AF0001886040E0A6F82A203D01886050E0A6F8C
:102B000082A003D01886060E0A6F8492848400D0B7
:102B100000D0000082A403D01886070E0A6F82A29C
:102B200003D01886080E0A6F82A003D01886090EFB
:102B30000A6F8494808A00D000D0000082A203D063
:102B400018860A0E0A6F849484928490809A83B2C5
:102B500008D082BA06D01A8C0B0E0B6F116B190EAF
:102B6000106F83B208D082BC06D01A8C0C0E0B6F8B
:102B7000116B190E106F83A20AD082AA08D082AC02
:102B800006D01A8C0D0E0B6F116B640E106F83A2A2
:102B900008D082BA06D01A8C0E0E0B6F116B190E6C
:102BA000106F83A208D082BC06D01A8C0F0E0B6F58
:102BB000116B190E106F83A00BD00001E5EC02F031
:102BC00083B0FED718AC02D0189C01D0188C01013C
:102BD000000E016E0001120001014C87000173DD3F
:102BE00001C05FF182A604D00A0E01015F27000137
:102BF0000F0E0101636F010E5F5DF20F25E20E0FF4
:102C0000000126EF1BF0010E0101606F1DD0010EC7
:102C10000101606F19D0030E0101606F15D0040E21
:102C20000101606F11D0020E0101606F0DD0020E24
:102C30000101606F09D0050E0101606F05D0040E1F
:102C40000101606F01D00101602D61D04050040D81
:102C5000F350036AF2CF64F1F29E0001F7EC00F04A
:102C60000900F5CF01F00900F5CF02F00900F5CF1A
:102C700003F0010164BFF28E03C052F102C051F1B2
:102C800001C050F14F6F405009081FE3010E40246E
:102C9000040DF350036AF2CF64F1F29E0001F7ECE9
:102CA00000F00900F5CF01F00900F5CF02F00900AE
:102CB000F5CF03F0010164BFF28E03C056F102C0EC
:102CC00055F101C054F1536F07D0566B010E556F8B
:102CD000860E546FA00E536F17BC02D0010E636FA7
:102CE00017AC02D00C0E636F45530EE146530CE156
:102CF00047530AE1485308E152C148F151C147F135
:102D000050C146F14FC145F1496B020E626F6051EF
:102D100002084DE14050040DF350036AF2CF64F114
:102D2000F29E0001F7EC00F00900F5CF01F0090078
:102D3000F5CF02F00900F5CF03F0010164BFF28E78
:102D400003C052F102C051F101C050F14F6F405029
:102D5000040DF350036AF2CF64F1F29E00011AEC05
:102D600001F00900F5CF01F00900F5CF02F00900EC
:102D7000F5CF03F0010164BFF28E03C056F102C02B
:102D800055F101C054F1536F17BC02D0010E636FAF
:102D900017AC02D00C0E636F52C148F151C147F11C
:102DA00050C146F14FC145F1496B020E626F60514F
:102DB00003083BE1496B49C17CF1000154EC07F089
:102DC00003C052F102C051F101C050F100C04FF1F7
:102DD000010149510D080EE27C6B000154EC07F033
:102DE00003C056F102C055F101C054F100C053F1C7
:102DF00010D00101010E4925646F7C6F000154EC75
:102E000007F003C056F102C055F101C054F100C0F3
:102E100053F152C148F151C147F150C146F14FC180
:102E200045F1020E0101636F626F60510408D8A47E
:102E3000D2D07C50020803E1500E4B6F02D0280E16
:102E40004B6F7BC049F17CC07CF17C5304E1010EE7
:102E50007D6E280E7E6E7C2D04D0010E7D6E280EB8
:102E60007E6E7C51020804E1010E7D6E500E7E6E76
:102E70007D50495DD8A07DC049F1010E7E5C7D2466
:102E8000495D05E004E3010E7E5C7D24496F7C53BF
:102E900028E1010E495D7E6F816B806F836B040EAC
:102EA000826F000188EC0EF002C003F00150F2CFF7
:102EB0007DF1F29E02C0F7FF4BEC00F00900F5CF68
:102EC00001F00900F5CF02F00900F5CF03F0010190
:102ED0007DBFF28E03C07AF002C079F001C078F0B5
:102EE000776E7C2D28D0270E49257E6F816B806FF1
:102EF000836B040E826F000188EC0EF002C003F0B9
:102F00000150F2CF7DF1F29E02C0F7FF4BEC00F0D2
:102F10000900F5CF01F00900F5CF02F00900F5CF67
:102F200003F001017DBFF28E03C07AF002C079F098
:102F300001C078F0776E7C510208D8A428D0010E29
:102F4000495D7E6F816B806F836B040E826F000121
:102F500088EC0EF002C003F00150F2CF7DF1F29E3A
:102F600002C0F7FF4BEC00F00900F5CF01F00900BB
:102F7000F5CF02F00900F5CF03F001017DBFF28E1D
:102F800003C07AF002C079F001C078F0776E77C0A4
:102F900000F078C001F079C002F07AC003F003C0FD
:102FA00052F102C051F101C050F100C04FF176C0A2
:102FB00056F175C055F174C054F173C053F152C14C
:102FC00048F151C147F150C146F14FC145F1020EE0
:102FD000636F0A0E626F6051050826E10E0E4B6F9B
:102FE0003EC049F149C17CF1000154EC07F003C037
:102FF00052F102C051F101C050F100C04FF176C052
:1030000056F175C055F174C054F173C053F152C1FB
:1030100048F151C147F150C146F14FC145F1020E8F
:103020000101636F320E626F6051FA0F1CE2060FEE
:10303000000146EF1BF00101616B15D0010E01018B
:10304000616F11D0010E0101616F0DD0010E010100
:10305000616F09D0020E0101616F05D0030E0101FD
:10306000616F01D0010153514F5D13E15451505D27
:1030700010E15551515D0DE15651525D0AE1189C28
:10308000020E796F0001F5EC02F0000E016EDBD24A
:1030900001015251565D1DE30BE15151555D19E39C
:1030A00007E15051545D15E303E153514F5D11E2C7
:1030B00052C15AF151C159F150C158F14FC157F1A4
:1030C00056C15EF155C15DF154C15CF153C15BF174
:1030D0004C855651525D1DE30BE15551515D19E38D
:1030E00007E15451505D15E303E14F51535D11E287
:1030F00056C15AF155C159F154C158F153C157F154
:1031000052C15EF151C15DF150C15CF14FC15BF143
:103110004C954E6B640E4D6F83A004D083B0FED7E8
:10312000189C77D283A401D04C834CA103D0582A99
:10313000D8B4592A5C2A5A2AD8B45B2A4E5309E1DA
:103140005C504D5D06E24CA702D04C9701D04C87F5
:103150005C6A612D34D0000E4CB7010E010A0001EB
:1031600003E0010A17E02AD063C190F101019169DF
:1031700048C195F147C194F146C193F145C192F11F
:103180009669976B986B996B010E9A6F00016AECC8
:1031900008F014D001019069916948C195F147C1C7
:1031A00094F146C193F145C192F19669976B986B82
:1031B000996B010E9A6F00016AEC08F001016151F0
:1031C0000208D8A4E6D0000E4CB7010E010A000197
:1031D00003E0010A17E028D001014CA711D0020E2C
:1031E000906F9169956B946B936B49C192F196695D
:1031F000976B986B996F010E9A6F00016AEC08F05B
:10320000000112D0010190699169956B946B936BE9
:1032100049C192F19669976B986B020E996F010EF6
:103220009A6F00016AEC08F07CC07CF101017C53CC
:1032300004E1010E7D6E280E7E6E7C2D04D0010E01
:103240007D6E280E7E6E7C51020804E1010E7D6EBB
:10325000500E7E6E7D50495DD8A07DC049F1010EB3
:103260007E5C7D24495D05E004E3010E7E5C7D24E7
:10327000496F7C5328E1010E495D7E6F816B806F41
:10328000836B040E826F000188EC0EF002C003F025
:103290000150F2CF7DF1F29E02C0F7FF4BEC00F03F
:1032A0000900F5CF01F00900F5CF02F00900F5CFD4
:1032B00003F001017DBFF28E03C07AF002C079F005
:1032C00001C078F0776E7C2D28D0270E49257E6FBF
:1032D000816B806F836B040E826F000188EC0EF0AF
:1032E00002C003F00150F2CF7DF1F29E02C0F7FF61
:1032F0004BEC00F00900F5CF01F00900F5CF02F02A
:103300000900F5CF03F001017DBFF28E03C07AF012
:1033100002C079F001C078F0776E7C510208D8A421
:1033200028D0010E495D7E6F816B806F836B040E28
:10333000826F000188EC0EF002C003F00150F2CF62
:103340007DF1F29E02C0F7FF4BEC00F00900F5CFD3
:1033500001F00900F5CF02F00900F5CF03F00101FB
:103360007DBFF28E03C07AF002C079F001C078F020
:10337000776E77C000F078C001F079C002F07AC0B3
:1033800003F003C048F102C047F101C046F100C09C
:1033900045F16151030842E1000E4CB7010E010AEC
:1033A000000103E0010A18E02CD0020E0101906F29
:1033B000916948C195F147C194F146C193F145C166
:1033C00092F149C196F1976B986B996B010E9A6FC8
:1033D00000016AEC08F015D001019069916948C1BB
:1033E00095F147C194F146C193F145C192F149C1AC
:1033F00096F1976B986B996B010E9A6F00016AECCE
:1034000008F049C17CF154EC07F003C048F102C058
:1034100047F101C046F100C045F1010148C17CF10E
:1034200047C17BF146C17AF145C179F100015DECFC
:103430000FF003C048F102C047F101C046F100C0DF
:1034400045F148C167F147C166F146C165F145C123
:1034500064F1C7EC13F001014CB353D05B5203E1AC
:103460005A50625D4EE2612D3ED04CA507D00A0E47
:103470004527000E46234723482306D00A0E455F02
:10348000000E465B475B485B48515A5D15E30BE114
:103490004751595D11E307E14651585D0DE303E1E2
:1034A0005751455D09E25EC148F15DC147F15CC11C
:1034B00046F15BC145F117D05E51485D14E30BE165
:1034C0005D51475D10E307E15C51465D0CE303E1AC
:1034D00045515B5D08E25AC148F159C147F158C1F5
:1034E00046F157C145F16151020803E061510308FB
:1034F00006E14B51495D02E2492B01D0496B5B6A01
:103500005A6A4CA383D083B402D04C8103D04C912F
:10351000596A586A5950000804E24C914C93596A10
:10352000586A020E646F00017BEC14F001C04AF18E
:1035300001014A51030803E04A510B0815E1612DCE
:1035400006D00A0E4527000E462347234823615123
:10355000020803E06151030806E14B51495D02E2B4
:10356000492B01D0496B4C934A51020803E04A5160
:103570000C0815E1612D06D00A0E455F000E465B72
:10358000475B485B6151020803E06151030806E1B3
:10359000495302E0490702D04BC149F14C93612DD8
:1035A0002FD048515A5D15E30BE14751595D11E3A6
:1035B00007E14651585D0DE303E15751455D09E2CE
:1035C0005EC148F15DC147F15CC146F15BC145F1A7
:1035D00017D05E51485D14E30BE15D51475D10E388
:1035E00007E15C51465D0CE303E145515B5D08E298
:1035F0005AC148F159C147F158C146F157C145F187
:1036000083A004D083B0FED7189C03D018AC01D09F
:1036100083D583A416D048C125F047C124F046C104
:1036200023F045C122F06151020802E149C17BF05B
:1036300061510308D8B449C13EF0000163EC13F0B6
:103640000101010E016E000108EF38F0F2CF0DF01C
:10365000F29EE824F76AF736710FF66E360EF722FF
:103660000A00F550FA6E0800F5500DBEF28EF96EA4
:10367000062C0E2C162C1E2C462C462C462C462C8A
:10368000462C462C262C2E2C362C3E2CF2CF0DF020
:10369000F29EE824F76AF736B10FF66E360EF7227F
:1036A0000A00F550FA6E0800F5500DBEF28EF96E64
:1036B00036303C3044304C3054305C3001017C6B4F
:1036C000415208E117BC02D0010E7C6F17AC02D04A
:1036D000020E7C6F412C02D0030E7C6F4150020819
:1036E00002E1040E7C6F7CC101F0000112000F0E9C
:1036F0000101796F7A6B7A51070841E3000E17BA1E
:10370000010E7B6F7A51040DF350010F036A8C0F89
:10371000E96E000E0320EA6EEF507B5D2EE1000E95
:1037200018B4010E7B6F7A51040DF350020F036A37
:103730008C0FE96E000E0320EA6EEF507B5D1DE1F9
:10374000000E18B2010E7B6F7A51040DF350030F77
:10375000036A8C0FE96E000E0320EA6EEF507B5D6A
:103760000CE17A51040DF350036A8C0FE96E000EE0
:103770000320EA6EEFCF79F102D07A2BBCD717AADB
:1037800007D0010E7B6F00018AEC05F005D0010126
:103790007B6B00018AEC05F018A407D0010E010133
:1037A0007B6F0001AEEC05F005D001017B6B0001E1
:1037B000AEEC05F018A207D0010E01017B6F0001ED
:1037C000DAEC05F005D001017B6B0001DAEC05F0C5
:1037D000050E0101856F79C186F1000106EC03F049
:1037E000010179C101F000011200040E0101796F9D
:1037F00079510C080BE3036A79517F0FE96E000ED3
:103800000320EA6E0F0EEF6E792BF2D700010AEF5C
:103810001CF0EBD701017851020806E10C0E000103
:10382000886F0E0E896F01017851030804E10B0EB9
:103830000001896F0101785104080DE10A0E0001B1
:10384000856F010E866F876F0F0E886F0C0E896F64
:103850000B0E8A6F01017851050809E10D0E000178
:10386000856F010E866F0A0E876F896F010178518F
:1038700006080AE10D0E0001856F010E866F0A0E23
:10388000876F0B0E896F0101A26B0001D5EC07F069
:10389000020E0101796FFA0E846F0001ADEC02F0A7
:1038A0000101792FF8D7000112004150020836E1DA
:1038B0007C5203E1010E7C6E01D07C6A010E7C24F7
:1038C0000101786F796F0001F5EC02F07C5205E19F
:1038D000020E0101786F00019CDF7C2C05D0030EE5
:1038E0000101786F000195DF0101906942C091F1FB
:1038F000956B946B936B7BC092F19669976B986B09
:10390000020E996F9A6B00016AEC08F0070E010134
:10391000856F7CC086F1000106EC03F01200415077
:1039200002080AE018A202D0189202D01894188255
:10393000DEDE01C042F001D0B8DF1200020E01014C
:10394000876F82C18BF181C18AF180C189F17FC10A
:1039500088F10001AAEC03F08EEF1DF0020E0101C8
:103960009D6F000180EC05F0AFEF1DF0040E01012A
:103970008025856F876F84C18BF183C18AF182C1F5
:1039800089F181C188F10001AAEC03F01200030E55
:1039900001019D6F000180EC05F0120084C141F02F
:1039A000030E0101856F84C186F1000106EC03F06E
:1039B00012000101826B8251010840E341C083F192
:1039C000010E846F0001EADF7BC184F17CC185F1C7
:1039D00080C189F17FC188F17EC187F17DC186F107
:1039E00081C18AF101018B6B000154EC0EF0E5EC12
:1039F00002F0320E0101846F0001ADEC02F07BC1D8
:103A000084F17CC185F180C189F17FC188F17EC1DB
:103A100087F17DC186F10F0E01018A6F8B6B00016A
:103A200054EC0EF0960E0101846F0001ADEC02F033
:103A300083C184F1B3DF0101822BBDD700011200E5
:103A400001017C51040817E0000E17BC010E7D6FC8
:103A5000846F42C085F125C089F124C088F123C05C
:103A600087F122C086F13EC08AF18B6B000154ECD5
:103A70000EF013D00101060E7C247D6F90699169D0
:103A8000956B946B936B7BC092F19669976B986B77
:103A9000996F9A6B00016AEC08F0120063EC13F066
:103AA00001C079F101017A91782D1AD00001E5EC7D
:103AB00002F017BC06D0178C020E0101796F05D0F9
:103AC0000001179C010E0101796F000E17BC010E59
:103AD0007B6F856B866F000106EC03F001017A9124
:103AE0007851020851E1000E17BC010E7B6F7C6F0C
:103AF00040C07DF100013DEC07F003C07EF102C043
:103B00007DF101C07CF100C07BF103C082F102C0F5
:103B100081F101C080F100C07FF110D7000E17BC09
:103B2000010E01017B6F3EC07CF1000154EC07F0F7
:103B300003C07FF102C07EF101C07DF100C07CF1C5
:103B40007BC180F140C081F103C085F102C084F1E6
:103B500001C083F100C082F12CEC13F0FFD603C04A
:103B60007EF102C07DF101C07CF100C07BF13EC05E
:103B700080F103C084F102C083F101C082F100C072
:103B800081F1F4DE01017A8178510308D8A4EDD0E7
:103B9000795103081DE3000E17BC010E7B6F000175
:103BA000F6DE03C07FF102C07EF101C07DF100C0EE
:103BB0007CF17BC180F140C081F103C085F102C07E
:103BC00084F101C083F100C082F12CEC13F00101FB
:103BD00079510408D8A4C8D0000E17BC010E7B6F21
:103BE0007CC07CF17C5304E1010E7D6E280E7E6E5C
:103BF0007C2D04D0010E7D6E280E7E6E7C51020855
:103C000004E1010E7D6E500E7E6E7D507B5CD8A06F
:103C10007DC07BF0010E7E5C7D247B5C05E004E3CF
:103C2000010E7E5C7D247B6E7C5328E1010E7B5C63
:103C30007E6F816B806F836B040E826F000188EC56
:103C40000EF002C003F00150F2CF7DF1F29E02C0EF
:103C5000F7FF4BEC00F00900F5CF01F00900F5CFBC
:103C600002F00900F5CF03F001017DBFF28E03C021
:103C70007AF002C079F001C078F0776E7C2D28D000
:103C8000270E7B247E6F816B806F836B040E826FA7
:103C9000000188EC0EF002C003F00150F2CF7DF17C
:103CA000F29E02C0F7FF4BEC00F00900F5CF01F0E7
:103CB0000900F5CF02F00900F5CF03F001017DBF47
:103CC000F28E03C07AF002C079F001C078F0776E0E
:103CD0007C510208D8A428D0010E7B5C7E6F816BDA
:103CE000806F836B040E826F000188EC0EF002C0BF
:103CF00003F00150F2CF7DF1F29E02C0F7FF4BECD2
:103D000000F00900F5CF01F00900F5CF02F009003D
:103D1000F5CF03F001017DBFF28E03C07AF002C03F
:103D200079F001C078F0776E77C000F078C001F0CC
:103D300079C002F07AC003F003C07FF102C07EF1C7
:103D400001C07DF100C07CF17BC180F140C081F1F8
:103D500003C085F102C084F101C083F100C082F18B
:103D600000012CEC13F001017A81785104083BE149
:103D7000795102081EE3000E17BC010E7B6F7C6FA9
:103D800040C07DF100013DEC07F003C07EF102C0B0
:103D90007DF101C07CF100C07BF13EC080F103C029
:103DA00084F102C083F101C082F100C081F1DEDD47
:103DB00001017951030816E10001E9DD03C07EF13C
:103DC00002C07DF101C07CF100C07BF13EC080F1FA
:103DD00003C084F102C083F101C082F100C081F10F
:103DE000C5DD01017A817851050819E1415205E1EB
:103DF000030E796F010E416E09D0416A17BC02D0E3
:103E0000010E796F17AC02D0020E796F030E856F29
:103E100041C086F1000106EC03F001017A917AA11C
:103E200010D07B6942C07CF125C080F124C07FF1B5
:103E300023C07EF122C07DF13EC081F10001B9DDD9
:103E4000010100015CEC07F001C07BF101C07CF1D5
:103E5000F7DD83B203D082AA01D082ACFAD71A9CD4
:103E6000120017AA02D0179A01D0178A40DC01C0AD
:103E700042F01200E5EC02F0010179510208D8A0ED
:103E8000A0D082B65DD0000E17BC010E7A6F806F95
:103E900040C081F125C085F124C084F123C083F1A5
:103EA00022C082F100012CEC13F00101785307E1EC
:103EB000405203E1090E406E01D0400606D040504A
:103EC000090802E1406A01D0402A010E856F40C016
:103ED00086F1000106EC03F0000E17BC010E010193
:103EE0007A6F7C6F40C07DF100013DEC07F003C0AC
:103EF00025F002C024F001C023F000C022F001012F
:103F00007C6B40C07DF100013DEC07F003C06AF01E
:103F100002C069F001C068F000C067F0010E010145
:103F20007C6F40C07DF100013DEC07F003C06EF0F6
:103F300002C06DF001C06CF000C06BF043D0010115
:103F4000785320E17250255C14E30BE17150245C3E
:103F500010E307E17050235C0CE303E122506F5C37
:103F600008E2500E225EC30E235A000E245A255A30
:103F700008D076C025F075C024F074C023F073C05B
:103F800022F01FD02550765C14E30BE12450755CC1
:103F900010E307E12350745C0CE303E17350225CEF
:103FA00008E2500E2226C30E2322000E24222522D0
:103FB00008D072C025F071C024F070C023F06FC02B
:103FC00022F000010101795103081DE1785307E156
:103FD0003E5202E03E0602D00E0E3E6E06D03E502D
:103FE0000D0802E33E2A01D03E6A3EC07CF100018A
:103FF00054EC07F003C025F002C024F001C023F008
:1040000000C022F00101795104080BE1785305E169
:104010007B50010801E27B0604D07E507B5C01E20C
:104020007B2A000163EC13F01200415002080BE000
:1040300018A402D0189402D01892188477EC1BF0C0
:1040400001C042F01FD001019069916925C095F12E
:1040500024C094F123C093F122C092F19669976B2A
:10406000986B996B9A6B00016AEC08F0040E0101E1
:10407000786FFA0E846F0001ADEC02F00101782F29
:10408000F8D7000112000101796B415239E17C6BD4
:1040900040C07DF100013DEC07F003C06AF002C0B2
:1040A00069F001C068F000C067F0010E01017C6F8B
:1040B00040C07DF100013DEC07F003C06EF002C08E
:1040C0006DF001C06CF000C06BF017BC0CD06AC082
:1040D00025F069C024F068C023F067C022F0010E0B
:1040E0000101796F000117AC0CD06EC025F06DC0D6
:1040F00024F06CC023F06BC022F0020E0101796F36
:104100000001412C15D043DC03C025F002C024F08F
:1041100001C023F000C022F0040E01017C6F0001F9
:1041200035EC03F001C03EF0030E0101796F000190
:10413000415002080CE1060E01017C6F000135ECD4
:1041400003F001C07BF0040E0101796F0001010151
:1041500079C101F000011200E5EC02F01892189408
:1041600077EC1BF001C042F063EC13F001C078F172
:1041700001017851030840E30B0E856F41C086F1C1
:10418000000106EC03F0020E416E030E0101856F83
:1041900041C086F1000106EC03F075DF070E010156
:1041A0007C6F000135EC03F001C07CF025C07CF190
:1041B00024C07BF123C07AF122C079F15DEC0FF0CD
:1041C00003C025F002C024F001C023F000C022F09B
:1041D0000101906942C091F1956B946B936B7BC028
:1041E00092F19669976B986B020E996F9A6B00012A
:1041F0006AEC08F03CD001017851040839E10B0E5B
:104200007C6F000135EC03F001C041F0030E0101A9
:10421000856F41C086F1000106EC03F034DF25C054
:104220007CF124C07BF123C07AF122C079F15DECEE
:104230000FF003C025F002C024F001C023F000C03D
:1042400022F0000E17BC010E0101796F846F42C08D
:1042500085F125C089F124C088F123C087F122C0EF
:1042600086F13EC08AF18B6B000154EC0EF0010127
:10427000000112000101566B556B546B1BC153F1C9
:104280001A39006E0F0E001600500F0B576F586B47
:10429000596B5A6B1A510F0B5B6F5C6B5D6B5E6BEE
:1042A0001939006E0F0E001600500F0B5F6F606B18
:1042B000616B626B19510F0B636F646B656B666B9F
:1042C0001839006E0F0E001600500F0B676F686BE9
:1042D000696B6A6B18510F0B6B6F6C6B6D6B6E6B50
:1042E0001739006E0F0E001600500F0B6F6F706BBA
:1042F000716B726B17510F0B736F746B756B766B01
:1043000000015EEC1BF001C077F101015351006E1A
:104310005451036E035006E1010E005C0001D8B455
:104320007AD00101035006E1020E005C0001D8B40E
:1043300078D00101035006E1030E005C0001D8B4FF
:104340007AD00101035006E1040E005C0001D8B4EC
:104350007CD00101035006E1050E005C0001D8B4D9
:1043600079D00101035006E1060E005C0001D8B4CB
:104370007BD00101035006E1070E005C0001D8B4B8
:104380007DD00101035006E1080E005C0001D8B4A5
:1043900080D00101035006E1090E005C0001D8B491
:1043A00082D00101035006E10A0E005C0001D8B47E
:1043B0007FD00101035006E10B0E005C0001D8B470
:1043C00021D10101035006E10F0E005C0001D8B4B9
:1043D00023D10101035006E1FC0E005C0001D8B4BA
:1043E000C5D10101035006E1FE0E005C0001D8B406
:1043F000C6D10101035006E1FF0E005C0001D8B4F4
:10440000C8D10101035006E1FD0E005C0001D8B4E3
:10441000C3D10101C4D18FEC1CF0E5EC02F0010125
:10442000BED1050E0101786F00014EEC1DF0E5ECE8
:1044300002F00101B4D1040E0101786F00014EECCD
:104440001DF0E5EC02F00101AAD10BDDE5EC02F074
:104450000101A5D1010E0101786F00014EEC1DF0A4
:10446000E5EC02F001019BD1030E0101786F000120
:104470004EEC1DF0E5EC02F0010191D1010E0101BD
:10448000786F77C179F10001F5DCE5EC02F001010C
:1044900086D10101786B77C179F10001EBDCE5ECA5
:1044A00002F001017CD1C1DDE5EC02F0010177D120
:1044B0005EC1A3F15DC1A2F15CC1A1F15BC1A0F13C
:1044C0000101A76B0F0EA66F420EA56F400EA46FE1
:1044D000000105EC0FF003C07BF102C07AF101C0CE
:1044E00079F100C078F162C1A3F161C1A2F160C1AC
:1044F000A1F15FC1A0F10101A76B010EA66F860EAD
:10450000A56FA00EA46F000105EC0FF00050010193
:1045100078270150792302507A2303507B2366C108
:10452000A3F165C1A2F164C1A1F163C1A0F1A76BC0
:10453000A66B270EA56F100EA46F000105EC0FF0FF
:104540000050010178270150792302507A2303504B
:104550007B236AC1A3F169C1A2F168C1A1F167C15E
:10456000A0F1A76BA66B030EA56FE80EA46F000168
:1045700005EC0FF00050010178270150792302501B
:104580007A2303507B236EC1A3F16DC1A2F16CC1EC
:10459000A1F16BC1A0F1A76BA66BA56B640EA46F14
:1045A000000105EC0FF0005001017827015079233C
:1045B00002507A2303507B2372C1A3F171C1A2F18F
:1045C00070C1A1F16FC1A0F1A76BA66BA56B0A0E1C
:1045D000A46F000105EC0FF0005001017827015095
:1045E000792302507A2303507B2373517825226E5E
:1045F00074517921236E75517A21246E76517B2175
:10460000256ECDD0020E0101786F00014EEC1DF039
:10461000E5EC02F00101C3D072C1A3F171C1A2F1B6
:1046200070C1A1F16FC1A0F10101A76B0F0EA66FC0
:10463000420EA56F400EA46F000105EC0FF003C001
:104640007BF102C07AF101C079F100C078F176C146
:10465000A3F175C1A2F174C1A1F173C1A0F101016F
:10466000A76B010EA66F860EA56FA00EA46F0001AA
:1046700005EC0FF00050010178270150792302501A
:104680007A2303507B236AC1A3F169C1A2F168C1F7
:10469000A1F167C1A0F1A76BA66B270EA56F100E45
:1046A000A46F000105EC0FF00050010178270150C4
:1046B000792302507A2303507B236EC1A3F16DC18D
:1046C000A2F16CC1A1F16BC1A0F1A76BA66B030EA7
:1046D000A56FE80EA46F000105EC0FF0005001017A
:1046E00078270150792302507A2303507B2362C13B
:1046F000A3F161C1A2F160C1A1F15FC1A0F1A76BFB
:10470000A66BA56B640EA46F000105EC0FF00050C2
:10471000010178270150792302507A2303507B232B
:1047200066C1A3F165C1A2F164C1A1F163C1A0F1A9
:10473000A76BA66BA56B0A0EA46F000105EC0FF02A
:104740000050010178270150792302507A23035049
:104750007B2357517825226E58517921236E595168
:104760007A21246E5A517B21256E19D0E5EC02F096
:1047700017B802D0178801D01798010110D01F0E6A
:104780000101856F8669000106EC03F0FF0001015D
:1047900006D0FF00010103D017B8DEDC010156533B
:1047A00008E1555306E1545304E15351DF08D8B0F2
:1047B000D1D05653D8A4CED05553D8A4CBD054532F
:1047C000D8A4C8D05351EE08D8A0C4D0E00E535D91
:1047D000786F000E5459796F000E55597A6F000E9C
:1047E00056597B6F5EC1A3F15DC1A2F15CC1A1F11D
:1047F0005BC1A0F1A76B0F0EA66F420EA56F400E16
:10480000A46F000105EC0FF003C07FF102C07EF140
:1048100001C07DF100C07CF162C1A3F161C1A2F1D0
:1048200060C1A1F15FC1A0F10101A76B010EA66FEC
:10483000860EA56FA00EA46F000105EC0FF00050CE
:1048400001017C2701507D2302507E2303507F23EA
:1048500066C1A3F165C1A2F164C1A1F163C1A0F178
:10486000A76BA66B270EA56F100EA46F000105ECB9
:104870000FF0005001017C2701507D2302507E2360
:1048800003507F236AC1A3F169C1A2F168C1A1F1FC
:1048900067C1A0F1A76BA66B030EA56FE80EA46F0E
:1048A000000105EC0FF0005001017C2701507D2331
:1048B00002507E2303507F236EC1A3F16DC1A2F18C
:1048C0006CC1A1F16BC1A0F1A76BA66BA56B640EC7
:1048D000A46F000105EC0FF0005001017C2701508E
:1048E0007D2302507E2303507F2372C1A3F171C147
:1048F000A2F170C1A1F16FC1A0F1A76BA66BA56B6E
:104900000A0EA46F000105EC0FF0005001017C2796
:1049100001507D2302507E2303507F2373517C2757
:1049200074517D2375517E2376517F2378C180F1A8
:104930007FC184F17EC183F17DC182F17CC181F1AF
:104940000001B6EC1CF0030E0101796F0001F5ECDB
:1049500002F001011888010E016E0001CFEF2BF06B
:1049600001015D6B5D5117080BE3036A5D51AC0FEC
:10497000E96E000E0320EA6E300EEF6E5D2BF2D76B
:10498000000112009EA8FED701016051AD6EACA2DD
:10499000FED7020E616FCF0EA76F0001C5EC07F0C6
:1049A0000101612FF8D70001120001015E6B5E5119
:1049B00017081BE3036A5E51AC0FE96E000E03207B
:1049C000EA6EEFCF5FF15FC160F10001DBDF036AE8
:1049D00001015E51AC0FE96E000E0320EA6EEF504C
:1049E0003B08D8B402D05E2BE2D7000112001AAA0D
:1049F0000ED0B6DFEAC0ACF0EBC0ADF0ECC0AEF06C
:104A0000EDC0AFF0EEC0B0F03B0EB16FCEDFCEEF39
:104A10002AF001011951300801E11A9019513108A9
:104A200001E11A800001D2EF2AF0415215E10101A3
:104A30005E5309E16AC040F169C03FF168C03EF1D0
:104A400067C03DF108D06EC040F16DC03FF16CC051
:104A50003EF16BC03DF10001412C0CD03EC07CF119
:104A600054EC07F003C040F102C03FF101C03EF139
:104A700000C03DF141500208D8A4B6D07CC07CF102
:104A800001017C5304E1010E7D6E280E7E6E7C2DAB
:104A900004D0010E7D6E280E7E6E7C51020804E16A
:104AA000010E7D6E500E7E6E7D507B5CD8A07DC069
:104AB0007BF0010E7E5C7D247B5C05E004E3010E4F
:104AC0007E5C7D247B6E7C5328E1010E7B5C7E6FD7
:104AD000816B806F836B040E826F000188EC0EF097
:104AE00002C003F00150F2CF7DF1F29E02C0F7FF49
:104AF0004BEC00F00900F5CF01F00900F5CF02F012
:104B00000900F5CF03F001017DBFF28E03C07AF0FA
:104B100002C079F001C078F0776E7C2D28D0270E86
:104B20007B247E6F816B806F836B040E826F00012C
:104B300088EC0EF002C003F00150F2CF7DF1F29E3E
:104B400002C0F7FF4BEC00F00900F5CF01F00900BF
:104B5000F5CF02F00900F5CF03F001017DBFF28E21
:104B600003C07AF002C079F001C078F0776E7C5112
:104B70000208D8A428D0010E7B5C7E6F816B806F09
:104B8000836B040E826F000188EC0EF002C003F00C
:104B90000150F2CF7DF1F29E02C0F7FF4BEC00F026
:104BA0000900F5CF01F00900F5CF02F00900F5CFBB
:104BB00003F001017DBFF28E03C07AF002C079F0EC
:104BC00001C078F0776E77C000F078C001F079C04E
:104BD00002F07AC003F003C040F102C03FF101C00F
:104BE0003EF100C03DF1000101013D5307E13E539C
:104BF00005E13F5303E14053D8B4ACD040C1A5F127
:104C00003FC1A4F13EC1A3F13DC1A2F1A5C1A9F1EB
:104C1000A4C1A8F1A3C1A7F1A2C1A6F1366BA95303
:104C20000DE1A8510E0815E2FF0A08E1A75141085D
:104C300010E2FF0A03E1A6513F080BE2400EA65F17
:104C4000420EA75B0F0EA85B000EA95B010E362774
:104C5000E6D7376BA9530DE1A851000815E2FF0A0A
:104C600008E1A751850810E2FF0A03E1A6519F0859
:104C70000BE2A00EA65F860EA75B010EA85B000EDE
:104C8000A95B010E3727E6D7386BA9530AE1A85371
:104C900008E1A75126080FE2FF0A03E1A6510F0819
:104CA0000AE2100EA65F270EA75B000EA85BA95BA9
:104CB000010E3827EAD7396BA9530AE1A85308E156
:104CC000A75102080FE2FF0A03E1A651E7080AE232
:104CD000E80EA65F030EA75B000EA85BA95B010EA2
:104CE0003927EAD73A6BA95307E1A85305E1A7533F
:104CF00003E1A651630809E2640EA65F000EA75BFC
:104D0000A85BA95B010E3A27EED73B6BA95307E1DD
:104D1000A85305E1A75303E1A651090809E20A0EC9
:104D2000A65F000EA75BA85BA95B010E3B27EED731
:104D30003C6BA65306E1A75304E1A85302E1A95333
:104D400009E0010EA65F000EA75BA85BA95B010E40
:104D50003C27EFD75D5324E0300E36250001C96FA4
:104D6000300E010137250001CA6F300E01013825D0
:104D70000001CB6F300E010139250001CC6F300EE0
:104D800001013A250001CD6F300E01013B250001E4
:104D9000CE6F300E01013C250001CF6F23D0010101
:104DA000300E36250001B16F300E010137250001AC
:104DB000B26F300E010138250001B36F300E0101D2
:104DC00039250001B46F300E01013A250001B56F9D
:104DD000300E01013B250001B66F300E01013C256C
:104DE0000001B76F1200BCDD01015D6B5CC15EF1BB
:104DF00000011BDE460EAC6F01015C5304E1410E65
:104E00000001AD6F03D0420E0001AD6F3B0EB96FD4
:104E1000CCDD1200036A01015C51AC0FE96E000E9B
:104E20000320EA6E1CC1EFFF010E5C25036AAC0F84
:104E3000E96E000E0320EA6E1DC1EFFF020E5C2535
:104E4000036AAC0FE96E000E0320EA6E1EC1EFFF8D
:104E5000030E5C25036AAC0FE96E000E0320EA6EB8
:104E60001FC1EFFF040E5C25036AAC0FE96E000E54
:104E70000320EA6E20C1EFFF050E5C25036AAC0F2C
:104E8000E96E000E0320EA6E21C1EFFF060E5C25DD
:104E9000036AAC0FE96E000E0320EA6E22C1EFFF39
:104EA000036A5C51AC0FE96E000E0320EA6E300E0F
:104EB000EF5C5D6F010E5C25036AAC0FE96E000EBE
:104EC0000320EA6E300EEF5C5E6F020E5C25036A13
:104ED000AC0FE96E000E0320EA6E300EEF5C5F6FE0
:104EE000030E5C25036AAC0FE96E000E0320EA6E28
:104EF000300EEF5C606F040E5C25036AAC0FE96E48
:104F0000000E0320EA6E300EEF5C616F050E5C252B
:104F1000036AAC0FE96E000E0320EA6E300EEF5C00
:104F2000626F060E5C25036AAC0FE96E000E03206B
:104F3000EA6E300EEF5C636F5DC164F15EC165F1D6
:104F40005FC166F160C167F161C168F162C169F179
:104F500063C16AF16E6B6D6B6C6B64C16BF16EC19A
:104F6000A3F16DC1A2F16CC1A1F164C1A0F1A76B65
:104F70000F0EA66F420EA56F400EA46F000105EC48
:104F80000FF003C06EF102C06DF101C06CF100C002
:104F90006BF10101726B716B706B65C16FF172C166
:104FA000A3F171C1A2F170C1A1F165C1A0F1A76B1C
:104FB000010EA66F860EA56FA00EA46F000105EC72
:104FC0000FF0005001016B2701506C2302506D233C
:104FD00003506E23726B716B706B66C16FF172C19F
:104FE000A3F171C1A2F170C1A1F166C1A0F1A76BDB
:104FF000A66B270EA56F100EA46F000105EC0FF035
:10500000005001016B2701506C2302506D230350A7
:105010006E23726B716B706B67C16FF172C1A3F11C
:1050200071C1A2F170C1A1F167C1A0F1A76BA66B1C
:10503000030EA56FE80EA46F000105EC0FF0005001
:1050400001016B2701506C2302506D2303506E2326
:10505000726B716B706B68C16FF172C1A3F171C13A
:10506000A2F170C1A1F168C1A0F1A76BA66BA56BFD
:10507000640EA46F000105EC0FF0005001016B27D6
:1050800001506C2302506D2303506E23726B716BC1
:10509000706B69C16FF172C1A3F171C1A2F170C1EE
:1050A000A1F169C1A0F1A76BA66BA56B0A0EA46F55
:1050B000000105EC0FF0005001016B2701506C233B
:1050C00002506D2303506E23016A026A036A6A511B
:1050D0006B25416F01506C21426F02506D21436F6F
:1050E00003506E21446F41C100F042C101F043C141
:1050F00002F044C103F0000184EF28F031DC050E1A
:1051000001015C6F000186D603C044F102C043F187
:1051100001C042F100C041F1179C01015BB1178C45
:1051200044C125F043C124F042C123F041C122F023
:105130005B5309E125C06AF024C069F023C068F020
:1051400022C067F008D025C06EF024C06DF023C0E7
:105150006CF022C06BF05BC15CF1000144DE120018
:1051600063EC13F001015B51300815E1416A179CB3
:10517000000E17BC010E5C6F7C6F40C07DF100011A
:105180003DEC07F003C025F002C024F001C023F07D
:1051900000C022F001015B51310815E1416A178C12
:1051A000000E17BC010E5C6F7C6F40C07DF10001EA
:1051B0003DEC07F003C025F002C024F001C023F04D
:1051C00000C022F001015B51320810E1010E416E76
:1051D0003EC07CF1000154EC07F003C025F002C092
:1051E00024F001C023F000C022F00101030E856FFE
:1051F00041C086F1000106EC03F0000E17BC010E61
:1052000001015C6F856B866F000106EC03F00DEF0A
:105210002BF0460EAC6F01015C5304E1520E00010D
:10522000AD6F03D0540E0001AD6F01015D5304E179
:10523000300E0001AE6F03D0310E0001AE6F3B0E99
:10524000AF6FD5EC24F01200B0EC24F0010119513D
:1052500030082FE117AC10D0010E806F40C081F1F3
:105260006EC085F16DC084F16CC083F16BC082F1BA
:1052700000012CEC13F00101179C856B866B00017B
:1052800006EC03F06AC025F069C024F068C023F082
:1052900067C022F001015B5306E15C6B5D6B0001AE
:1052A000B8DF06D00101010E5C6F5D6B0001B1DF5C
:1052B00001011951310830E117BC0FD0806B40C09B
:1052C00081F16AC085F169C084F168C083F167C06B
:1052D00082F100012CEC13F00101178C856B010E9B
:1052E000866F000106EC03F06EC025F06DC024F05F
:1052F0006CC023F06BC022F001015B5307E15C6BD3
:10530000010E5D6F000185DF06D00101010E5C6FAB
:105310005D6F00017EDF010100011200B0EC24F09E
:1053200001015B5310E117BC05D05C6B5D6B0001A4
:1053300070DF010117AC06D05C6B010E5D6F0001E0
:1053400068DF010110D017BC06D0010E5C6F5D6BE9
:1053500000015FDF010117AC06D0010E5C6F5D6FCD
:10536000000157DF010100011200010E01015D6F14
:105370005E6B000115EC25F03E50090807E2310E86
:10538000DE6F0A0E3E5C300FDF6F04D0300EDE6F32
:105390003E24DF6F1AA803D0310EE06F02D0300E2A
:1053A000E06F20C0E1F017BC03D0300EE26FE46F75
:1053B00017AC03D0310EE26FE46F300EE36F1200D2
:1053C00001015B6B5B51250811E3036A5B51C40F5C
:1053D000E96E000E0320EA6EEFCF5CF15CC160F174
:1053E0000001C2EC24F001015B2BECD7000112009C
:1053F00001011951300801E11A9A1951310801E1EE
:105400001A8A000E1ABA010E5B6F0F0E856F5BC110
:1054100086F1000106EC03F0E5EC02F034EF2BF02E
:105420004C0EAC6F4B0EAD6F01015B5304E1300EBF
:105430000001AE6F03D0310E0001AE6F3B0EAF6FB7
:10544000D5EC24F01200B0EC24F017BA04D001011E
:105450005B6B0001E5DF17AA05D0010E01015B6F50
:105460000001DEDF37EF2BF0B0EC24F00101195121
:10547000300805E1179A5B6B0001D2DF0101195179
:10548000310806E1178A010E5B6F0001C9DF0101D7
:10549000000177EC1BF001C042F03AEF2BF0010164
:1054A0005C2D0CD07B6B00018AEC05F0070E01012E
:1054B000A26F000167EC02F00DD00101A26B0001A8
:1054C00067EC02F017AA06D0010E01017B6F000104
:1054D0008AEC05F012000101576B00015EEC1BF035
:1054E00001C058F101015A6B596B59511E084BE329
:1054F0005951040DF350036AF2CF5BF1F29E0001A3
:10550000BBEC01F001015BBFF28E016E175D39E16A
:105510005951040DF350010F036AF2CF5BF1F29E73
:105520000001BBEC01F001015BBFF28E016E185D62
:1055300028E15951040DF350020F036AF2CF5BF1D9
:10554000F29E0001BBEC01F001015BBFF28E036A29
:10555000170FE96E010E0320EA6EEF503B0811E1D0
:105560005951040DF350030F036AF2CF5BF1F29E21
:105570000001BBEC01F001015BBFF28E016E5A6FBE
:1055800002D0592BB2D7010E5A5DE20FD8B0C1D06C
:105590001E0F000195EF2BF0F7EF24F00101B9D0B9
:1055A00009EF25F00101B5D00101786B58C179F1FF
:1055B00000013AEC1FF0010E0101576FAAD0010E55
:1055C0000101786F58C179F100013AEC1FF0010E2A
:1055D0000101576F9ED001015C6B000104DC0101E9
:1055E00098D0010E01015C6F0001F3EC26F001017F
:1055F00090D001015B6B000181DD010E0101576F4D
:1056000088D0010E01015B6F000178DD010E010100
:10561000576F7FD019C15BF1A3D5010E0101576F00
:1056200078D001015B6B00010FDE020E0101576FA4
:1056300070D001015B6B000171DE01016AD0010EC7
:1056400001015B6F000100DE020E0101576F61D0A6
:10565000010E01015B6F000161DE01015AD085DEA0
:10566000AFDE010156D0C4D6010153D0ECD6010102
:1056700050D0FAD6020E0101576F4BD0010149D02C
:1056800019C120F00E0E0101856F20C086F10001C6
:1056900006EC03F001013DD0000E17BC010E040D15
:1056A000F350036A670FE96E000E0320EA6EEFCF36
:1056B00053F1ECCF54F1ECCF55F1ECCF56F10101A1
:1056C00028D0010126D0010124D0010122D00101FE
:1056D00020D001011ED01A96000E1AB6010E01014B
:1056E0005B6F5C6F0001DBDE010113D01A86000ED8
:1056F0001AB6010E01015B6F5C6F0001D0DE010183
:1057000008D0010106D0010104D02180010101D09F
:1057100001012196575303E057C101F003D01888C7
:10572000000E016E0001D9EF2BF0F2CF0DF0F29ECA
:10573000E824F76AF7364F0FF66E570EF7220A0085
:10574000F550FA6E0800F5500DBEF28EF96E9855C0
:10575000A055A855BE55D655E255F25502561456D9
:10576000225632563E5650565E5666566C56725605
:105770007C5680569856C256C656CA56CE56D256F3
:10578000D656EC56025706570A570101526B1AB209
:1057900009D021A607D0219600013AEF21F001C0DF
:1057A00052F101011AA208D021A606D021960001CB
:1057B00092D601C052F1010121A014D01AB202D038
:1057C0001A8201D01A92000E1AB2010E536F0C0EFB
:1057D000856F53C186F1000106EC03F0E5EC02F0A1
:1057E0002190010152C101F0000112000101485154
:1057F000020809E349512226000E232224222522F1
:10580000150E016E14D04851030806E13E500D08F4
:1058100002E33E2A01D03E6A4851040808E1010E25
:10582000786F48C179F100013AEC1FF001010001E5
:1058300049EF34F001014851020809E34951225E61
:10584000000E235A245A255A150E016E13D04851C2
:10585000030806E13E5202E03E0602D00E0E3E6E06
:105860004851040807E1786B48C179F100013AEC2E
:105870001FF00101000153EF34F00101485102080B
:105880000CE30001E5EC02F0010E0101786F48C164
:1058900079F100013AEC1FF001014851040804E1DC
:1058A000000155EC1CF0010100015BEF34F0010137
:1058B0004851020806E3640E2226000E2322242209
:1058C0002522000161EF34F001014851020806E38E
:1058D000640E225E000E235A245A255A000167EFF7
:1058E00034F001014851020806E30A0E2226000E98
:1058F0002322242225224851040808E1010E786F52
:1059000048C179F100013AEC1FF0010100016DEF8F
:1059100034F001014851020806E30A0E225E000E2F
:10592000235A245A255A4851040807E1786B48C184
:1059300079F100013AEC1FF00101000173EF34F03E
:1059400025C04CF124C04BF123C04AF122C049F1DB
:105950000101906991694CC195F14BC194F14AC123
:1059600093F149C192F19669010E976F986B996B0B
:105970009A6B00016AEC08F0E5EC02F001014E6B55
:105980004D6B010E4F6F506B519183B204D082AAC0
:1059900002D082BC02D04F6BF8D74E51030808E307
:1059A00003E14D51E70804E34D2BD8B44E2B07D04B
:1059B0001BA202D01B9201D01B824E6B4D6B4F512C
:1059C000070835E1000E1BB2010E010A000103E0D9
:1059D000010A17E02AD00101906991694CC195F143
:1059E0004BC194F14AC193F149C192F19669010EFC
:1059F000976F4FC198F1996F9A6B00016AEC08F0AC
:105A000014D00101906991694CC195F14BC194F199
:105A10004AC193F149C192F19669010E976F986B53
:105A2000996F9A6B00016AEC08F034D00101000E06
:105A30001BB2010E010A000103E0010A17E02AD09F
:105A40000101906991694CC195F14BC194F14AC132
:105A500093F149C192F19669010E976F4FC198F188
:105A6000996B9A6B00016AEC08F014D001019069FF
:105A700091694CC195F14BC194F14AC193F149C16F
:105A800092F19669010E976F986B996B9A6B000172
:105A90006AEC08F0030E0101646F00017BEC14F066
:105AA00001C050F10101505303E01B924E6B4D6B4E
:105AB0005051060803E050510D0807E14F51060808
:105AC00002E34F2B02D0010E4F6F505103080AE042
:105AD00050510B0807E05051210804E050511008C4
