:04000000A3EF29F051
:08000800046ED8CF05F0E0CF33
:1000100006F00001E9CF0CF0EACF07F0E1CF08F0DD
:10002000E2CF09F0D9CF0AF0DACF0BF0F3CF12F01C
:10003000F4CF13F0FACF14F000C00EF001C00FF0AF
:1000400002C010F003C011F09DAA2AEF00F09EBA82
:1000500056EF00F00EC000F00FC001F010C002F02B
:1000600011C003F00CC0E9FF07C0EAFF078E08C00B
:10007000E1FF09C0E2FF0AC0D9FF0BC0DAFF12C0DE
:10008000F3FF13C0F4FF14C0FAFF045006C0E0FFF2
:1000900005C0D8FF10009EAAFED7ABCF16F0AECF9A
:1000A00001F016A202D0AB98AB881200010E566E7A
:1000B000476A9EAA1DD0555026081AE2FF0A03E19E
:1000C0005450100815E28F6B8F510A080AE1036A39
:1000D0008F51470FE96E000E0320EA6EEF6A8F2BF7
:1000E000F3D7526A010E536E566A556A546A31D07C
:1000F0009EAA2FD0555027082CE303E154500F0837
:1001000028E3C9DF01C046F0036A5350470FE96E88
:10011000000E0320EA6E46C0EFFF532A556A546A68
:100120005350060816E1036A5350470FE96E000E5C
:100130000320EA6EEF6A010E526E536E566A5350F8
:10014000060807E25350060804E2A5DF01C051F09B
:10015000F9D79E9A2AEF00F0179080B21780179275
:1001600080B41782179480B61784120017A080926B
:1001700017B0808217A2809417B2808417A480964B
:1001800017B480861200E8DF80928094808600D0C9
:1001900000D00000EBDF1200818E00D000D0000004
:1001A000819E1200650E816EEEDF5D0E816EEBDFCB
:1001B0004C0E816EE8DF600E816EEEDF510E816EB7
:1001C000EBDF4E0E816EE8DFCEEF29F05D2C05D01F
:1001D000178880848082809606D05D5204E117984B
:1001E0008092809480961200030E7F5E09E3EA6A93
:1001F0007F0EE96EEF5004E001D000D0EF2EFDD766
:100200002AEF01F07D6A809A849084928494809889
:100210007D5225E17C50010B010801E184847C5072
:10022000020B020801E184827C50040B040801E106
:1002300084807C50080B080801E1808A8088310E98
:10024000006E002EFED700D08098020E7E6EB80E93
:100250007F6ECAD77E2EFBD7010E7D6ED9D7809ACE
:10026000849084928494120082A4FED70A0E7C6E3D
:10027000C9DF7C6AC7DF0F0E7C6EC4DF0F0E7C6E99
:10028000C1DF0F0E7C6EBEDF0F0E7C6EBBDF0F0E6C
:100290007C6EB8DF0F0E7C6EB5DF0F0E7C6EB2DFAA
:1002A0000F0E7C6EAFDF0F0E7C6EACDF0F0E7C6E20
:1002B000A9DF0F0E7C6EA6DF82B4FED71200EA6AB9
:1002C0007D0EE96EEF500DE0060E016E006A002E05
:1002D000FED7012EFBD77B0E006E002EFED7EF2E31
:1002E000F3D7120039DF80928094809680828094C8
:1002F000809680928094809639DF12002DDF320E36
:100300007D6EDDDFEFDF320E7D6ED9DFEBDF320E8B
:100310007D6ED5DFE7DF320E7D6ED1DF27DF120085
:10032000896B8A6B010E8B6FDA6AD96A8E6B810ECC
:100330008D6FEA6A850EE96E8EC0E2FF8DC0E1FF27
:100340008BC08CF0D890E550EE02F3508923F45026
:100350008A238C2FF7D789C0DEFF8AC089F08A6B89
:10036000D8B08A2B8D2BD8B48E2B8B2B8B510508B4
:10037000E0E112007F508103F3CF01F0F4CF00F0F1
:100380008203F350002680518103F3500020026E57
:100390001200F2CF76F0F29E6DC0A9FFA69CA69E39
:1003A000A680A85076BEF28E786E846B836B826BCB
:1003B000816F886B010E876F860E866FA00E856F2A
:1003C000AFDF03C07AF002C079F001C078F000C05E
:1003D00077F0010E6D247B6EF2CF7CF0F29E7BC035
:1003E000A9FFA69CA69EA680A8507CBEF28E7D6E1C
:1003F000806B7F6E270E826F100E816FBBDF02C095
:1004000003F00150772603507822000E79227A22D9
:10041000020E6D247B6EF2CF7DF0F29E7BC0A9FFB1
:10042000A69CA69EA680A8507DBEF28E7E6E806B96
:100430007F6E030E826FE80E816F9CDF02C003F0B7
:100440000150772603507822000E79227A22210E5D
:100450006D247B6EF2CF7EF0F29E7BC0A9FFA69C3E
:10046000A69EA680A8507EBEF28E640DF35077261D
:10047000000E7822000E7922000E7A22040E6D24DE
:100480007B6EF2CF7FF0F29E7BC0A9FFA69CA69E5A
:10049000A680A8507FBEF28E0A0DF3507726000E7C
:1004A0007822000E7922000E7A22050E6D247B6ED2
:1004B000F2CF80F0F29E7BC0A9FFA69CA69EA680EC
:1004C000A85080BFF28E77246E6E000E78206F6E7B
:1004D000000E7920706E000E7A20716E32C084F0AA
:1004E00031C083F030C082F02FC081F0886B010EE4
:1004F000876F860E866FA00E856F12DF03C07AF0BD
:1005000002C079F001C078F000C077F02EC084F00E
:100510002DC083F02CC082F02BC081F0886B876BDC
:10052000270E866F100E856FFBDE00507726015078
:1005300078220250792203507A222AC084F029C0FE
:1005400083F028C082F027C081F0886B876B030E90
:10055000866FE80E856FE4DE005077260150782222
:100560000250792203507A2226C084F025C083F0FD
:1005700024C082F023C081F0886B876B866B640E89
:10058000856FCEDE00507726015078220250792206
:1005900003507A2222C084F021C083F020C082F070
:1005A0001FC081F0886B876B866B0A0E856FB8DE83
:1005B00000507724726E01507820736E02507920BB
:1005C000746E03507A20756E72506E5C0AE173503F
:1005D0006F5C07E17450705C04E17550715CD8B4D5
:1005E00084D0F250006EF29E6DC0A9FF2FC0A8FF0C
:1005F000A69CA69EA6840F01550EA76EAA0EA76EF6
:10060000A682A6B2FED7A6940050F212010E6D2467
:10061000766EF2CF00F0F29EA96E2BC0A8FFA69CCA
:10062000A69EA684550EA76EAA0EA76EA682A6B297
:10063000FED7A6940050F212020E6D24766EF2CF11
:1006400000F0F29EA96E27C0A8FFA69CA69EA684D5
:10065000550EA76EAA0EA76EA682A6B2FED7A694C6
:100660000050F212030E6D24766EF2CF00F0F29E6F
:10067000A96E23C0A8FFA69CA69EA684550EA76EB1
:10068000AA0EA76EA682A6B2FED7A6940050F212BA
:10069000040E6D24766EF2CF00F0F29EA96E1FC09C
:1006A000A8FFA69CA69EA684550EA76EAA0EA76EAE
:1006B000A682A6B2FED7A6940050F212050E6D24B3
:1006C000766EF2CF00F0F29EA96E1BC0A8FFA69C2A
:1006D000A69EA684550EA76EAA0EA76EA682A6B2E7
:1006E000FED7A6940050F21200011200F2CF5CF087
:1006F000F29EA968A69CA69EA680A8505CBEF28E1B
:10070000000A01E179D11E6A1D6A1C6A1B6A226A0D
:10071000216A206A1F6A266A256A246A236A2A6A6D
:10072000296A286A276A2E6A2D6A2C6A2B6A326A1D
:10073000316A306A070E2F6E6D6A2BDE080E6D6E01
:1007400028DE700E6D6E25DE780E6D6E22DE800E58
:100750006D6E1FDE880E6D6E1CDE900E6D6E19DEE6
:10076000980E6D6E16DEA00E6D6E13DEA80E6D6E09
:1007700010DEB00E6D6E0DDEB80E6D6E0ADE326AE2
:10078000316A306A2F6A2E6A2D6A2C6A050E2B6E2A
:10079000200E6D6EFEDD326A316A306A010E2F6EF8
:1007A0002E6A2D6A2C6A080E2B6E280E6D6EF1DDF6
:1007B000326A316A306A030E2F6E2E6A2D6A2C6AF5
:1007C000050E2B6E300E6D6EE4DD326A316A306AD2
:1007D000070E2F6E2E6A2D6A2C6A2B6A380E6D6EEC
:1007E000D8DD326A316A306A0A0E2F6E2E6A2D6A9F
:1007F0002C6A010E2B6E400E6D6ECBDD326A316AB3
:10080000306A0E0E2F6E2E6A2D6A2C6A2B6A480EE5
:100810006D6EBFDD326A316A306A120E2F6E2E6A3B
:100820002D6A2C6A2B6A500E6D6EB3DD326A316A06
:10083000306A150E2F6E2E6A2D6A2C6A2B6A580E9E
:100840006D6EA7DD326A316A306A180E2F6E2E6A1D
:100850002D6A2C6A2B6A600E6D6E9BDD326A316ADE
:10086000306A1C0E2F6E2E6A2D6A2C6A2B6A680E57
:100870006D6E8FDDF250006EF29EC00EA96EA86AFA
:10088000A69CA69EA6840F01550EA76EAA0EA76E63
:10089000A682A6B2FED7A6940050F212F2CF00F0C4
:1008A000F29EC10EA96EA86AA69CA69EA684550EAD
:1008B000A76EAA0EA76EA682A6B2FED7A694005077
:1008C000F212F2CF00F0F29EC20EA96EA86AA69CA8
:1008D000A69EA684550EA76EAA0EA76EA682A6B2E5
:1008E000FED7A6940050F212F2CF00F0F29EC30E93
:1008F000A96E130EA86EA69CA69EA684550EA76E82
:10090000AA0EA76EA682A6B2FED7A6940050F21237
:10091000F2CF00F0F29EC50EA96EA86AA69CA69E14
:10092000A684550EA76EAA0EA76EA682A6B2FED703
:10093000A6940050F212F2CF00F0F29EC60EA96EFD
:10094000A86AA69CA69EA684550EA76EAA0EA76EA0
:10095000A682A6B2FED7A6940050F212F2CF00F003
:10096000F29EC70EA96EA86AA69CA69EA684550EE6
:10097000A76EAA0EA76EA682A6B2FED7A6940050B6
:10098000F212F2CF00F0F29EC80EA96EA86AA69CE1
:10099000A69EA684550EA76EAA0EA76EA682A6B224
:1009A000FED7A6940050F212F2CF00F0F29EC90ECC
:1009B000A96E030EA86EA69CA69EA684550EA76ED1
:1009C000AA0EA76EA682A6B2FED7A6940050F21277
:1009D000F2CF00F0F29EA968A86AA69CA69EA68403
:1009E000550EA76EAA0EA76EA682A6B2FED7A69433
:1009F0000050F212000182DC13EF2AF0F2CF6CF00B
:100A0000F29E6BC0A9FFA69CA69EA680A8506CBEB5
:100A1000F28E326A316A306A2F6E010E6B246C6E70
:100A2000F2CF6DF0F29E6CC0A9FFA69CA69EA68098
:100A3000A8506DBEF28E2E6A2D6A2C6A2B6E020EA5
:100A40006B246C6EF2CF6DF0F29E6CC0A9FFA69C79
:100A5000A69EA680A8506DBEF28E2A6A296A286AD0
:100A6000276E030E6B246C6EF2CF6DF0F29E6CC09D
:100A7000A9FFA69CA69EA680A8506DBEF28E266AEF
:100A8000256A246A236E040E6B246C6EF2CF6DF01F
:100A9000F29E6CC0A9FFA69CA69EA680A8506DBE23
:100AA000F28E226A216A206A1F6E050E6B246C6E1C
:100AB000F2CF6DF0F29E6CC0A9FFA69CA69EA68008
:100AC000A8506DBEF28E1E6A1D6A1C6A1B6E120053
:100AD000700E1F24816E7D50020805E1000E17BCC8
:100AE000010E016E2BD07D2C07D0178C8094808650
:100AF0008082010E016E22D07D5206E1179C809209
:100B00008096000E016E1AD0000E17BC010E7E6E8C
:100B1000F250006EF29EC50EA96E7EC0A8FFA69C84
:100B2000A69EA6840F01550EA76EAA0EA76EA682DA
:100B3000A6B2FED7A6940050F21200011200ACEC4F
:100B400000F0809280848086100E006E002EFED70A
:100B50000000B6EC00F09DEF06F032C084F031C02A
:100B600083F030C082F02FC081F0886B876B866B7A
:100B70000A0E856F90EC01F02B500024726E2C5001
:100B80000120736E2D500220746E2E500320756E5E
:100B9000755207E1745205E1735203E17250050882
:100BA0000BE2755209E1745207E1735205E172508C
:100BB0000E0802E3366ABED0755207E1745205E1B1
:100BC000735203E172500E080CE275520AE174523E
:100BD00008E1735206E17250180803E3010E366E05
:100BE000A9D0755207E1745205E1735203E17250C6
:100BF00018080CE275520AE1745208E1735206E1DA
:100C00007250270803E3020E366E94D0755207E146
:100C1000745205E1735203E1725027080CE27552D9
:100C20000AE1745208E1735206E172504A0803E384
:100C3000030E366E7FD0755207E1745205E1735290
:100C400003E172504A080CE275520AE1745208E15D
:100C5000735206E17250680803E3040E366E6AD0E0
:100C6000755207E1745205E1735203E1725068084E
:100C70000CE275520AE1745208E1735206E17250B7
:100C8000900803E3050E366E55D0755207E1745295
:100C900005E1735203E1725090080CE275520AE1CB
:100CA000745208E1735206E17250B80803E3060E6D
:100CB000366E40D0755207E1745205E1735203E17C
:100CC0007250B8080CE275520AE1745208E173528E
:100CD00006E17250D60803E3070E366E2BD075522C
:100CE00007E1745205E1735203E17250D6080CE239
:100CF00075520AE1745208E1735206E17250F90824
:100D000003E3080E366E16D0755207E1745205E102
:100D1000735203E17250F9080DE275520BE17452FF
:100D200009E17350010806E303E172503F0802E352
:100D3000090E366E36C081FF02D7ABEF06F072C0E7
:100D400081FF7CEF07F06D6A199817BC1988010EB6
:100D50007D6EBEDE02D72E5207E12D5205E12C52E8
:100D600003E12B5004080EE2050E2B5C006E000E12
:100D70002C58016E000E2D58026E000E2E58036E78
:100D8000005001D02B506E6E2AC084F029C083F031
:100D900028C082F027C081F0886B876B866B0A0EB3
:100DA000856F90EC01F0005023246F6E300E816E41
:100DB000100E006E002EFED70000C3EC00F0020EF5
:100DC000706E6E50040809E16F503F0806E2040E91
:100DD000706E6E5E400E6F5E16D06E50020803E1BC
:100DE0006F50070803E36E5002080DE2030E706EA9
:100DF000020E6E5E6F50070803E35C0E6F2402D094
:100E0000080E6F5C6F6E200E7024816E100E006EE7
:100E1000002EFED70000C3EC00F07050020802E183
:100E2000300E6F266E50640DF3506F24716E713862
:100E3000006E0F0E00160050100F816E100E006E27
:100E4000002EFED70000C3EC00F071500F0B816E36
:100E5000100E006E002EFED70000C3EC00F03650DE
:100E6000050808E20E0E2F5C706ED89070340A0FE1
:100E7000716E09D0D8902F34006E30343134323452
:100E80000C0E0024716E2E5207E12D5205E12C52FA
:100E900003E12B50040802E2010E7126300E816E30
:100EA000100E006E002EFED70000CCEC00F0200EDD
:100EB000816E100E006E002EFED70000CCEC00F00C
:100EC0007138006E0F0E00160050030B100F816E6C
:100ED000100E006E002EFED70000CCEC00F071501A
:100EE0000F0B816E100E006E002EFED70000CCECB2
:100EF00000F01FC072F023D7000E19B8010E726EF9
:100F00007D6EE6DD010E6D6E6DC001F012006F6A40
:100F1000020E7D6EDDDD199801B01988010E7D6E1F
:100F2000D7DD756A766A776A786A796A706A716AF3
:100F3000726A736A746A2F520AE1305208E13152C0
:100F400006E1325204E1326A316A306A2F6A2B526A
:100F50000AE12C5208E12D5206E12E5204E12E6ADC
:100F60002D6A2C6A2B6A27520AE1285208E129527D
:100F700006E12A5204E12A6A296A286A276A23526A
:100F80000AE1245208E1255206E1265204E1266ACC
:100F9000256A246A236A1F520AE1205208E121527D
:100FA00006E1225204E1226A216A206A1F6A1B526A
:100FB0000AE11C5208E11D5206E11E5204E11E6ABC
:100FC0001D6A1C6A1B6A3C5205E03C2C01D002D011
:100FD0003E5259E02FC075F02BC076F027C077F055
:100FE00023C078F01FC079F0706A716A0F0E746EBA
:100FF00075C07AF07A50090805E20A0E7A5E010E91
:101000007026F8D77A5204E0010E7A5E7126FAD77C
:101010003E5235E10F0E726E19A802D0010E726EAB
:1010200018AC02D0020E726E19A804D018AC02D00F
:10103000030E726E19A806D018AC04D018A802D0FE
:10104000040E726E18A802D00C0E726E18AC04D08A
:1010500018A802D00E0E726E3C520AE10F0E746E8A
:101060006E5202E1010E736E6E2C02D00C0E736E86
:101070003C2C04D039C074F0020E736E04D00F0EF5
:10108000726E736E746E3C5002083DE13E523BE15D
:101090000F0E706E716E726E736E746E766E776A0E
:1010A000786A796E19A802D0010E726E18AC02D05F
:1010B000020E726E19A804D018AC02D0030E726E24
:1010C00019A806D018AC04D018A802D0040E726E6D
:1010D00018A802D00C0E726E18AC04D018A802D05A
:1010E0000E0E726E41C07BF07B50090805E20A0EBD
:1010F0007B5E010E7726F8D77B50000804E2010ED4
:101100007B5E7826F9D782B4FED782A4FED70A0E7A
:101110007C6E02EC01F07C6A02EC01F00F0E7C6E3A
:1011200002EC01F00F0E7C6E02EC01F073C07CF05B
:1011300002EC01F072C07CF002EC01F070C07CF0B7
:1011400002EC01F071C07CF002EC01F076C07CF0A2
:1011500002EC01F077C07CF002EC01F078C07CF08A
:1011600002EC01F079C07CF002EC01F074C07CF07C
:1011700002EC01F082B4FED73E52D8B409D03E6AE8
:10118000040E7C6EFA0E7D6E5FEC01F07C2EFAD7B9
:10119000000E19B8010E7C6E7D6E9ADC010E6F6E2A
:1011A0006FC001F012006B52D8A473D0326A316A5A
:1011B000306A1B0E2F6E6A500A0806E32E6A2D6AEB
:1011C0002C6A060E2B6E23D06A500A0809E26A5078
:1011D000140806E32E6A2D6A2C6A070E2B6E17D0B0
:1011E0006A50140809E26A501E0806E32E6A2D6A46
:1011F0002C6A080E2B6E0BD06A501E0808E26A504B
:10120000280805E32E6A2D6A2C6A090E2B6E6A5097
:101210000A0804E3010E6A5C6C6E20D06A500A086A
:1012200008E26A50140805E3010E6A5CF60F6C6E62
:1012300015D06A50140808E26A501E0805E3010E32
:101240006A5CEC0F6C6E0AD06A501E0807E26A50A6
:10125000280804E3010E6A5CE20F6C6E2A6A296AB0
:10126000286A6CC027F0266A256A246A010E236E5C
:10127000226A216A206A020E1F6E6D6AC9EC01F0B3
:1012800062DD000E18B0010E6D6E6E6E40DE015212
:10129000F8E06B2C0CD16A5003080BE3326A316A18
:1012A000306A1A0E2F6E2E6A2D6A2C6A090E2B6E6A
:1012B00050D06A5003080DE26A500B080AE3326A04
:1012C000316A306A1B0E2F6E2E6A2D6A2C6A2B6AC9
:1012D00040D06A500B080EE26A5013080BE3326AE2
:1012E000316A306A1B0E2F6E2E6A2D6A2C6A010E2F
:1012F0002B6E2FD06A5013080EE26A501D080BE3C4
:10130000326A316A306A1B0E2F6E2E6A2D6A2C6A81
:10131000020E2B6E1ED06A501D080EE26A5027087E
:101320000BE3326A316A306A1B0E2F6E2E6A2D6A09
:101330002C6A030E2B6E0DD06A5028080AE1326A1F
:10134000316A306A1B0E2F6E2E6A2D6A2C6A040ECB
:101350002B6E6A2C06D02A6A296A286A060E276E26
:1013600091D06A50020806E12A6A296A286A070EA3
:10137000276E88D06A50030806E12A6A296A286A1B
:10138000080E276E7FD06A5003080AE26A500708E9
:1013900007E3040E6A5C276E286A296A2A6A72D0FB
:1013A0006A5007080AE26A500B0807E3030E6A5CFA
:1013B000276E286A296A2A6A65D06A500B080AE2F1
:1013C0006A500F0807E30C0E6A5C276E286A296AC8
:1013D0002A6A58D06A500F080AE26A50130807E3D5
:1013E0000B0E6A5C276E286A296A2A6A4BD06A50FB
:1013F00013080AE26A50160807E3140E6A5C276EA7
:10140000286A296A2A6A3ED06A50170806E12A6AC1
:10141000296A286A050E276E35D06A50180806E139
:101420002A6A296A286A030E276E2CD06A50190886
:1014300006E12A6A296A286A040E276E23D06A50B8
:1014400019080AE26A501D0807E3140E6A5C276E49
:10145000286A296A2A6A16D06A501D080AE26A5068
:10146000270807E31E0E6A5C276E286A296A2A6A23
:1014700009D06A50280806E1280E6A5C276E286A9F
:10148000296A2A6A266A256A246A050E236E226A58
:10149000216A206A1F6A6D6AC9EC01F054DC000EF3
:1014A00018B0010E6D6E6E6E32DD0152F8E0120062
:1014B000F2CF5CF0F29EC00EA96EA69CA69EA680FE
:1014C000A8505CBEF28E3C6E3C5222E1F2CF5CF042
:1014D000F29EC10EA96EA69CA69EA680A8505CBED8
:1014E000F28E016E189001B0188018B002D01980E9
:1014F00003D018A001D01990000E18B0010E080DED
:10150000F3CF5CF05CC06BF0FEEC04F01CDC38D078
:101510003C2C16D0F2CF5CF0F29EC20EA96EA69CB7
:10152000A69EA680A8505CBEF28E396E3950080D7A
:10153000F350700F5C6E6B6EFEEC04F004DC20D098
:101540003C5002081DE1F2CF5CF0F29EC30EA96E82
:10155000A69CA69EA680A8505CBEF28E416EF2CFDD
:101560005CF0F29EC80EA96EA69CA69EA680A8500E
:101570005CBEF28E426E41C06AF042C06BF013DE78
:10158000F2CF5CF0F29EC50EA96EA69CA69EA68028
:10159000A8505CBEF28E5D6E5DC07DF068EC05F01B
:1015A000F2CF5CF0F29EC60EA96EA69CA69EA68007
:1015B000A8505CBEF28E016E189C01B0188CF2CF60
:1015C0005CF0F29EC70EA96EA69CA69EA680A850AF
:1015D0005CBEF28E016E189801B018883E6A15EF55
:1015E0002AF018BC06D018A802D0189801D0188884
:1015F00002D07EEC01F01200F2CF72F0F29E6AC0CF
:10160000A9FFA69CA69EA680A85072BEF28E6C6E04
:10161000010E6A24726EF2CF73F0F29E72C0A9FFBF
:10162000A69CA69EA680A85073BEF28E6D6E020E7A
:101630006A24726EF2CF73F0F29E72C0A9FFA69C6C
:10164000A69EA680A85073BEF28E6E6E030E6A240C
:10165000726EF2CF73F0F29E72C0A9FFA69CA69E96
:10166000A680A85073BEF28E6F6E040E6A24726E4E
:10167000F2CF73F0F29E72C0A9FFA69CA69EA68030
:10168000A85073BEF28E706E050E6A24726EF2CF91
:1016900073F0F29E72C0A9FFA69CA69EA680A850D9
:1016A00073BEF28E716EF250006EF29E6BC0A9FF97
:1016B0006CC0A8FFA69CA69EA6840F01550EA76E1F
:1016C000AA0EA76EA682A6B2FED7A6940050F2126A
:1016D000010E6B24726EF2CF00F0F29EA96E6DC007
:1016E000A8FFA69CA69EA684550EA76EAA0EA76E5E
:1016F000A682A6B2FED7A6940050F212020E6B2468
:10170000726EF2CF00F0F29EA96E6EC0A8FFA69C8A
:10171000A69EA684550EA76EAA0EA76EA682A6B296
:10172000FED7A6940050F212030E6B24726EF2CF15
:1017300000F0F29EA96E6FC0A8FFA69CA69EA6848C
:10174000550EA76EAA0EA76EA682A6B2FED7A694C5
:101750000050F212040E6B24726EF2CF00F0F29E73
:10176000A96E70C0A8FFA69CA69EA684550EA76E63
:10177000AA0EA76EA682A6B2FED7A6940050F212B9
:10178000050E6B24726EF2CF00F0F29EA96E71C04E
:10179000A8FFA69CA69EA684550EA76EAA0EA76EAD
:1017A000A682A6B2FED7A6940050F212F2CF00F0A5
:1017B000F29E6AC0A9FFA868A69CA69EA684550EA4
:1017C000A76EAA0EA76EA682A6B2FED7A694005058
:1017D000F212010E6A24726EF2CF00F0F29EA96E30
:1017E000A868A69CA69EA684550EA76EAA0EA76EF4
:1017F000A682A6B2FED7A6940050F212020E6A2468
:10180000726EF2CF00F0F29EA96EA868A69CA69E0A
:10181000A684550EA76EAA0EA76EA682A6B2FED704
:10182000A6940050F212030E6A24726EF2CF00F0FA
:10183000F29EA96EA868A69CA69EA684550EA76EC9
:10184000AA0EA76EA682A6B2FED7A6940050F212E8
:10185000040E6A24726EF2CF00F0F29EA96EA868A0
:10186000A69CA69EA684550EA76EAA0EA76EA6825B
:10187000A6B2FED7A6940050F212050E6A24726E2C
:10188000F2CF00F0F29EA96EA868A69CA69EA68440
:10189000550EA76EAA0EA76EA682A6B2FED7A69474
:1018A0000050F212000112006952D8A4B0D03C508E
:1018B00002080DE1010E3E6E000E18B0010E6A6EB8
:1018C0006E6E87EC07F00152F7E05DD19FD03C2CA3
:1018D0004DD0F250006EF29EC20EA96E39C0A8FF24
:1018E000A69CA69EA6840F01550EA76EAA0EA76EF3
:1018F000A682A6B2FED7A6940050F2123C6AF2CF9E
:1019000000F0F29EC00EA96E3CC0A8FFA69CA69E49
:10191000A684550EA76EAA0EA76EA682A6B2FED703
:10192000A6940050F212F2CF6AF0F29EC10EA96E98
:10193000A69CA69EA680A8506ABEF28E016E189044
:1019400001B0188018B001D0198018A001D01990EA
:10195000000E18B0010E080DF3CF6AF06AC06BF0EC
:101960000001FEEC04F0A3EC06F050D0000E18B01D
:10197000010E080DF3CF6AF06AC06DF0C9EC01F0FA
:10198000000E18B0010E6A6EF250006EF29EC10E8B
:10199000A96E6AC0A8FFA69CA69EA6840F01550E3C
:1019A000A76EAA0EA76EA682A6B2FED7A694005076
:1019B000F212010E3C6EF2CF00F0F29EC00EA96E44
:1019C0003CC0A8FFA69CA69EA684550EA76EAA0E94
:1019D000A76EA682A6B2FED7A6940050F212F2CF4E
:1019E0006AF0F29EC20EA96EA69CA69EA680A85082
:1019F0006ABEF28E396E3950080DF350700F6A6E60
:101A00006B6E0001FEEC04F0A3EC06F0BCD03C5081
:101A1000020854E06A6AE00E6B6EEEDD080E6A6E34
:101A2000E80E6B6EE9DDF250006EF29EC90EA96EF3
:101A30003CC0A8FFA69CA69EA6840F01550EA76ECB
:101A4000AA0EA76EA682A6B2FED7A6940050F212E6
:101A5000020E3C6EF2CF00F0F29EC00EA96E3CC0AA
:101A6000A8FFA69CA69EA684550EA76EAA0EA76EDA
:101A7000A682A6B2FED7A6940050F212F2CF6AF068
:101A8000F29EC30EA96EA69CA69EA680A8506ABE12
:101A9000F28E416EF2CF6AF0F29EC80EA96EA69C3D
:101AA000A69EA680A8506ABEF28E426E41C06AF021
:101AB00042C06BF00001D3EC08F065D03C50020846
:101AC00062E1E00E6A6E6B6A97DDE80E6A6E080EE0
:101AD0006B6E92DDF2CF6AF0F29EC10EA96EA69CEB
:101AE000A69EA680A8506ABEF28E016E189001B024
:101AF000188018B001D0198018A001D01990000EDC
:101B000018B0010E080DF3CF6AF06AC06BF0FEEC5E
:101B100004F0F2CF6AF0F29EC90EA96EA69CA69EB2
:101B2000A680A8506ABEF28E3C6EF250006EF29E05
:101B3000C00EA96E3CC0A8FFA69CA69EA6840F015D
:101B4000550EA76EAA0EA76EA682A6B2FED7A694C1
:101B50000050F2123C2C18D0F2CF6AF0F29EC20E66
:101B6000A96EA69CA69EA680A8506ABEF28E396E6B
:101B70003950080DF350700F6A6E6B6E0001FEEC69
:101B800004F0A3EC06F00F0100011200000E18B0E3
:101B9000010E080DF3CF69F069C06BF0FEEC04F0A4
:101BA0003950080DF350700F696E6D6EC9EC01F07D
:101BB000010E3C6EF250006EF29EC00EA96E3CC04B
:101BC000A8FFA69CA69EA6840F01550EA76EAA0E7E
:101BD000A76EA682A6B2FED7A6940050F21200010C
:101BE000A3EC06F012003C2C01D003D03C500208BC
:101BF00003E17EEC01F039D0000E18B0010E080DA3
:101C0000F3CF69F069C06DF0C9EC01F018B003D0F2
:101C10001880199004D018A002D018901980000ED6
:101C200018B0010E080DF3CF69F069C06BF0FEEC3F
:101C300004F0000E18B0010E696EF250006EF29EB4
:101C4000C10EA96E69C0A8FFA69CA69EA6840F011E
:101C5000550EA76EAA0EA76EA682A6B2FED7A694B0
:101C60000050F2120001A3EC06F012003950080DEA
:101C7000F350700F696E6B6EFEEC04F0000E18B03E
:101C8000010E080DF3CF69F069C06DF0C9EC01F0E9
:101C90003C6AF250006EF29EC00EA96E3CC0A8FFD6
:101CA000A69CA69EA6840F01550EA76EAA0EA76E2F
:101CB000A682A6B2FED7A6940050F2120001A3ECB1
:101CC00006F01200050E2B26000E2C222D222E22AD
:101CD0002E5207E12D5205E12C5203E12B50090849
:101CE0000CE20A0E2B5E000E2C5A2D5A2E5A010EB3
:101CF0002F26000E302231223222A3EC06F01200F1
:101D00002F5225E1305223E1315221E132521FE1BD
:101D10002E521DE12D521BE12C5219E12B500508CA
:101D200016E32E6A2D6A2C6A010E2B6E2A6A296A26
:101D3000286A276A266A256A246A236A226A216A2F
:101D4000206A1F6A1E6A1D6A1C6A1B6A1CD02E52FA
:101D500007E12D5205E12C5203E12B50040807E264
:101D6000050E2B5E000E2C5A2D5A2E5A0CD0050E45
:101D70002B26000E2C222D222E22010E2F5E000E6D
:101D8000305A315A325AA3EC06F01200E00E736E4C
:101D9000F2CF74F0F29E6CC0A9FFA69CA69EA6800E
:101DA000A85074BEF28E6D6E010E6C24746EF2CF6C
:101DB00075F0F29E74C0A9FFA69CA69EA680A850AE
:101DC00075BEF28E6E6E020E6C24746EF2CF75F0DC
:101DD000F29E74C0A9FFA69CA69EA680A85075BEC0
:101DE000F28E6F6E030E6C24746EF2CF75F0F29E5D
:101DF00074C0A9FFA69CA69EA680A85075BEF28EB0
:101E0000706E040E6C24746EF2CF75F0F29E74C086
:101E1000A9FFA69CA69EA680A85075BEF28E716EE4
:101E2000050E6C24746EF2CF75F0F29E74C0A9FF9B
:101E3000A69CA69EA680A85075BEF28E726EF25029
:101E4000006EF29E73C0A9FF6DC0A8FFA69CA69E5F
:101E5000A6840F01550EA76EAA0EA76EA682A6B283
:101E6000FED7A6940050F212010E7324746EF2CFC6
:101E700000F0F29EA96E6EC0A8FFA69CA69EA68446
:101E8000550EA76EAA0EA76EA682A6B2FED7A6947E
:101E90000050F212020E7324746EF2CF00F0F29E24
:101EA000A96E6FC0A8FFA69CA69EA684550EA76E1D
:101EB000AA0EA76EA682A6B2FED7A6940050F21272
:101EC000030E7324746EF2CF00F0F29EA96E70C000
:101ED000A8FFA69CA69EA684550EA76EAA0EA76E66
:101EE000A682A6B2FED7A6940050F212040E732466
:101EF000746EF2CF00F0F29EA96E71C0A8FFA69C8E
:101F0000A69EA684550EA76EAA0EA76EA682A6B29E
:101F1000FED7A6940050F212050E7324746EF2CF11
:101F200000F0F29EA96E72C0A8FFA69CA69EA68491
:101F3000550EA76EAA0EA76EA682A6B2FED7A694CD
:101F40000050F212F2CF74F0F29E6BC0A9FFA69C73
:101F5000A69EA680A85074BEF28E756EF250006EDA
:101F6000F29E6CC0A9FF75C0A8FFA69CA69EA68481
:101F7000550EA76EAA0EA76EA682A6B2FED7A6948D
:101F80000050F212010E6C24746E010E6B24756EFB
:101F9000F2CF76F0F29E75C0A9FFA69CA69EA68001
:101FA000A85076BEF28E756EF250006EF29E74C02E
:101FB000A9FF75C0A8FFA69CA69EA684550EA76E75
:101FC000AA0EA76EA682A6B2FED7A6940050F21261
:101FD000020E6C24746E020E6B24756EF2CF76F0D6
:101FE000F29E75C0A9FFA69CA69EA680A85076BEAC
:101FF000F28E756EF250006EF29E74C0A9FF75C02D
:10200000A8FFA69CA69EA684550EA76EAA0EA76E34
:10201000A682A6B2FED7A6940050F212030E6C243C
:10202000746E030E6B24756EF2CF76F0F29E75C05F
:10203000A9FFA69CA69EA680A85076BEF28E756EBD
:10204000F250006EF29E74C0A9FF75C0A8FFA69C56
:10205000A69EA684550EA76EAA0EA76EA682A6B24D
:10206000FED7A6940050F212040E6C24746E040E77
:102070006B24756EF2CF76F0F29E75C0A9FFA69C18
:10208000A69EA680A85076BEF28E756EF250006EA7
:10209000F29E74C0A9FF75C0A8FFA69CA69EA68448
:1020A000550EA76EAA0EA76EA682A6B2FED7A6945C
:1020B0000050F212050E6C24746E050E6B24756EC2
:1020C000F2CF76F0F29E75C0A9FFA69CA69EA680D0
:1020D000A85076BEF28E756EF250006EF29E74C0FD
:1020E000A9FF75C0A8FFA69CA69EA684550EA76E44
:1020F000AA0EA76EA682A6B2FED7A6940050F21230
:10210000F2CF74F0F29E73C0A9FFA69CA69EA68093
:10211000A85074BEF28E756EF250006EF29E6BC0C7
:10212000A9FF75C0A8FFA69CA69EA684550EA76E03
:10213000AA0EA76EA682A6B2FED7A6940050F212EF
:10214000010E6B24746E010E7324756EF2CF76F05F
:10215000F29E75C0A9FFA69CA69EA680A85076BE3A
:10216000F28E756EF250006EF29E74C0A9FF75C0BB
:10217000A8FFA69CA69EA684550EA76EAA0EA76EC3
:10218000A682A6B2FED7A6940050F212020E6B24CD
:10219000746E020E7324756EF2CF76F0F29E75C0E7
:1021A000A9FFA69CA69EA680A85076BEF28E756E4C
:1021B000F250006EF29E74C0A9FF75C0A8FFA69CE5
:1021C000A69EA684550EA76EAA0EA76EA682A6B2DC
:1021D000FED7A6940050F212030E6B24746E030E09
:1021E0007324756EF2CF76F0F29E75C0A9FFA69C9F
:1021F000A69EA680A85076BEF28E756EF250006E36
:10220000F29E74C0A9FF75C0A8FFA69CA69EA684D6
:10221000550EA76EAA0EA76EA682A6B2FED7A694EA
:102220000050F212040E6B24746E040E7324756E4B
:10223000F2CF76F0F29E75C0A9FFA69CA69EA6805E
:10224000A85076BEF28E756EF250006EF29E74C08B
:10225000A9FF75C0A8FFA69CA69EA684550EA76ED2
:10226000AA0EA76EA682A6B2FED7A6940050F212BE
:10227000050E6B24746E050E7324756EF2CF76F026
:10228000F29E75C0A9FFA69CA69EA680A85076BE09
:10229000F28E756EF250006EF29E74C0A9FF75C08A
:1022A000A8FFA69CA69EA684550EA76EAA0EA76E92
:1022B000A682A6B2FED7A6940050F212F2CF00F08A
:1022C000F29E73C0A9FFA86AA69CA69EA684550E7E
:1022D000A76EAA0EA76EA682A6B2FED7A69400503D
:1022E000F212010E7324746EF2CF00F0F29EA96E0A
:1022F000A86AA69CA69EA684550EA76EAA0EA76ED7
:10230000A682A6B2FED7A6940050F212020E732443
:10231000746EF2CF00F0F29EA96EA86AA69CA69EEB
:10232000A684550EA76EAA0EA76EA682A6B2FED7E9
:10233000A6940050F212030E7324746EF2CF00F0D4
:10234000F29EA96EA86AA69CA69EA684550EA76EAC
:10235000AA0EA76EA682A6B2FED7A6940050F212CD
:10236000040E7324746EF2CF00F0F29EA96EA86A78
:10237000A69CA69EA684550EA76EAA0EA76EA68240
:10238000A6B2FED7A6940050F212050E7324746E06
:10239000F2CF00F0F29EA96EA86AA69CA69EA68423
:1023A000550EA76EAA0EA76EA682A6B2FED7A69459
:1023B0000050F2120001ECEF11F0000E18B0010E07
:1023C000080DF3CF69F03950080DF350700F6A6EA5
:1023D00069C06BF06C6EDAD4000E18B0010E080DF7
:1023E000F3CF69F069C06BF0FEEC04F0A3EC06F0EB
:1023F0001200602C05D0F1EC0AF072EC01F0D6D09E
:102400006050020806E1696A54EC0CF072EC01F0CD
:10241000CDD06050030805E1C6EC0DF072EC01F080
:10242000C5D06050040813E1020E7D6E68EC05F023
:10243000015207E1010E7D6E68EC05F072EC01F0CF
:1024400005D07D6A68EC05F072EC01F0AFD0605009
:10245000050805E1F3EC0DF072EC01F0A7D0605037
:10246000060804E103DC72EC01F0A0D0605007081C
:1024700004E128DC72EC01F099D06050080804E116
:102480003FDC72EC01F092D060500B0804E195DF64
:1024900072EC01F08BD060500C0807E1010E696E00
:1024A00054EC0CF072EC01F081D060500A084EE15F
:1024B0005C38006E0F0E001600500F0B616E5C5002
:1024C0000F0B626E5D38006E0F0E001600500F0B82
:1024D000636E5D500F0B646E5E38006E0F0E00165B
:1024E00000500F0B656E5E500F0B666E5F38006E0E
:1024F0000F0E001600500F0B676E5F500F0B686ECB
:10250000326A316A306A2F6A68500A0DF3506524C6
:102510002F6E306A316A326A2E6A2D6A2C6A66C062
:102520002BF02A6A296A286A63C027F0266A256A7E
:10253000246A64C023F0226A216A206A61C01FF005
:102540001E6A1D6A1C6A62C01BF030D06050FC0815
:1025500004E1178A7EEC01F029D06050FD080AE101
:1025600017AA05D0010E696E54EC0CF002D07EEC77
:1025700001F01CD06050FE0816E1F250006EF29E91
:10258000A968A868A69CA69EA6840F01550EA76EF2
:10259000AA0EA76EA682A6B2FED7A6940050F2128B
:1025A000FF0005D00001603C01D0FF000F01640E68
:1025B0007D6E00015FEC01F0000E18B0010E080DF9
:1025C000F3CF69F069C06DF0C9EC01F0A3EC06F03F
:1025D000000E18B0010E696E6E6E87EC07F00152A6
:1025E000F7E047EF2AF0020E7D6E68EC05F0012C53
:1025F00004D0000E016EA0EF1DF080B09EEF1DF024
:10260000179682B8178680B002D0FDD7FCD73C520F
:1026100003E03C2C79EF1DF082B6C1EF1BF017A64A
:10262000B0EF17F05C2CE8D0606A5F6A5E6A010E5A
:102630005D6E5D2C0DD05E520BE15F5209E1605280
:1026400007E1010E1B26000E1C221D221E2252D065
:102650005D500A080DE15E520BE15F5209E16052E4
:1026600007E1010E1F26000E20222122222242D045
:102670005D5064080DE15E520BE15F5209E160526A
:1026800007E1010E2326000E24222522262232D025
:102690005D50E8080EE15E5003080BE15F5209E16E
:1026A000605207E1010E2726000E282229222A2245
:1026B00021D05D5010080EE15E5027080BE15F52FB
:1026C00009E1605207E1010E2B26000E2C222D227B
:1026D0002E2210D05D50A0080DE15E5086080AE160
:1026E0005F2C08D0605206E1010E2F26000E30222A
:1026F000312232221E5207E11D5205E11C5203E134
:102700001B5009080AE21E6A1D6A1C6A1B6A010E38
:102710001F26000E202221222222225207E12152CE
:1027200005E1205203E11F5009080AE2226A216AEA
:10273000206A1F6A010E2326000E2422252226224B
:10274000265207E1255205E1245203E123500908EE
:102750000AE2266A256A246A236A010E2726000EE9
:10276000282229222A222A5207E1295205E1285249
:1027700003E1275009080AE22A6A296A286A276AB7
:10278000010E2B26000E2C222D222E222E5207E186
:102790002D5205E12C5203E12B5009080AE22E6A62
:1027A0002D6A2C6A2B6A010E2F26000E3022312250
:1027B0003222325207E1315205E1305203E12F500B
:1027C000630818E2326A316A306A2F6A2E6A2D6A0B
:1027D0002C6A2B6A2A6A296A286A276A266A256A65
:1027E000246A236A226A216A206A1F6A1E6A1D6A95
:1027F0001C6A1B6AA3EC06F05C500208D8A4E8D05F
:10280000606A5F6A5E6A0A0E5D6E5D2C0DD05E5274
:102810000BE15F5209E1605207E1010E1B26000E39
:102820001C221D221E2252D05D500A080DE15E526C
:102830000BE15F5209E1605207E1010E1F26000E15
:1028400020222122222242D05D5064080DE15E52F6
:102850000BE15F5209E1605207E1010E2326000EF1
:1028600024222522262232D05D50E8080EE15E5057
:1028700003080BE15F5209E1605207E1010E2726D0
:10288000000E282229222A2221D05D5010080EE1B4
:102890005E5027080BE15F5209E1605207E1010E2B
:1028A0002B26000E2C222D222E2210D05D50A008A7
:1028B0000DE15E5086080AE15F2C08D0605206E107
:1028C000010E2F26000E3022312232221E5207E145
:1028D0001D5205E11C5203E11B5009080AE21E6A61
:1028E0001D6A1C6A1B6A010E1F26000E202221226F
:1028F0002222225207E1215205E1205203E11F501A
:1029000009080AE2226A216A206A1F6A010E232648
:10291000000E242225222622265207E1255205E117
:10292000245203E1235009080AE2266A256A246A30
:10293000236A010E2726000E282229222A222A5243
:1029400007E1295205E1285203E1275009080AE26C
:102950002A6A296A286A276A010E2B26000E2C2271
:102960002D222E222E5207E12D5205E12C5203E199
:102970002B5009080AE22E6A2D6A2C6A2B6A010E76
:102980002F26000E302231223222325207E13152FC
:1029900005E1305203E12F50630818E2326A316AD0
:1029A000306A2F6A2E6A2D6A2C6A2B6A2A6A296A73
:1029B000286A276A266A256A246A236A226A216AA3
:1029C000206A1F6A1E6A1D6A1C6A1B6AA3EC06F055
:1029D0005C500308D8A4E8D0606A5F6A5E6A640E3F
:1029E0005D6E5D2C0DD05E520BE15F5209E16052CD
:1029F00007E1010E1B26000E1C221D221E2252D0B2
:102A00005D500A080DE15E520BE15F5209E1605230
:102A100007E1010E1F26000E20222122222242D091
:102A20005D5064080DE15E520BE15F5209E16052B6
:102A300007E1010E2326000E24222522262232D071
:102A40005D50E8080EE15E5003080BE15F5209E1BA
:102A5000605207E1010E2726000E282229222A2291
:102A600021D05D5010080EE15E5027080BE15F5247
:102A700009E1605207E1010E2B26000E2C222D22C7
:102A80002E2210D05D50A0080DE15E5086080AE1AC
:102A90005F2C08D0605206E1010E2F26000E302276
:102AA000312232221E5207E11D5205E11C5203E180
:102AB0001B5009080AE21E6A1D6A1C6A1B6A010E85
:102AC0001F26000E202221222222225207E121521B
:102AD00005E1205203E11F5009080AE2226A216A37
:102AE000206A1F6A010E2326000E24222522262298
:102AF000265207E1255205E1245203E1235009083B
:102B00000AE2266A256A246A236A010E2726000E35
:102B1000282229222A222A5207E1295205E1285295
:102B200003E1275009080AE22A6A296A286A276A03
:102B3000010E2B26000E2C222D222E222E5207E1D2
:102B40002D5205E12C5203E12B5009080AE22E6AAE
:102B50002D6A2C6A2B6A010E2F26000E302231229C
:102B60003222325207E1315205E1305203E12F5057
:102B7000630818E2326A316A306A2F6A2E6A2D6A57
:102B80002C6A2B6A2A6A296A286A276A266A256AB1
:102B9000246A236A226A216A206A1F6A1E6A1D6AE1
:102BA0001C6A1B6AA3EC06F05C500408D8A4E9D0A8
:102BB000606A5F6A030E5E6EE80E5D6E5D2C0DD07E
:102BC0005E520BE15F5209E1605207E1010E1B26E4
:102BD000000E1C221D221E2252D05D500A080DE15B
:102BE0005E520BE15F5209E1605207E1010E1F26C0
:102BF000000E20222122222242D05D5064080DE1E5
:102C00005E520BE15F5209E1605207E1010E23269B
:102C1000000E24222522262232D05D50E8080EE143
:102C20005E5003080BE15F5209E1605207E1010EBB
:102C30002726000E282229222A2221D05D501008A2
:102C40000EE15E5027080BE15F5209E1605207E197
:102C5000010E2B26000E2C222D222E2210D05D508C
:102C6000A0080DE15E5086080AE15F2C08D0605292
:102C700006E1010E2F26000E3022312232221E5292
:102C800007E11D5205E11C5203E11B5009080AE24D
:102C90001E6A1D6A1C6A1B6A010E1F26000E202276
:102CA00021222222225207E1215205E1205203E192
:102CB0001F5009080AE2226A216A206A1F6A010E6F
:102CC0002326000E242225222622265207E1255201
:102CD00005E1245203E1235009080AE2266A256A25
:102CE000246A236A010E2726000E282229222A227E
:102CF0002A5207E1295205E1285203E12750090829
:102D00000AE22A6A296A286A276A010E2B26000E1F
:102D10002C222D222E222E5207E12D5205E12C527B
:102D200003E12B5009080AE22E6A2D6A2C6A2B6AED
:102D3000010E2F26000E302231223222325207E1BC
:102D4000315205E1305203E12F50630818E2326A34
:102D5000316A306A2F6A2E6A2D6A2C6A2B6A2A6AB7
:102D6000296A286A276A266A256A246A236A226AE7
:102D7000216A206A1F6A1E6A1D6A1C6A1B6AA3EC0C
:102D800006F05C500508D8A4E9D0606A5F6A270E97
:102D90005E6E100E5D6E5D2C0DD05E520BE15F52CB
:102DA00009E1605207E1010E1B26000E1C221D22C4
:102DB0001E2252D05D500A080DE15E520BE15F52B7
:102DC00009E1605207E1010E1F26000E2022212298
:102DD000222242D05D5064080DE15E520BE15F5249
:102DE00009E1605207E1010E2326000E242225226C
:102DF000262232D05D50E8080EE15E5003080BE158
:102E00005F5209E1605207E1010E2726000E2822D9
:102E100029222A2221D05D5010080EE15E50270899
:102E20000BE15F5209E1605207E1010E2B26000E13
:102E30002C222D222E2210D05D50A0080DE15E50D4
:102E400086080AE15F2C08D0605206E1010E2F26A9
:102E5000000E3022312232221E5207E11D5205E1BE
:102E60001C5203E11B5009080AE21E6A1D6A1C6A13
:102E70001B6A010E1F26000E20222122222222522E
:102E800007E1215205E1205203E11F5009080AE23F
:102E9000226A216A206A1F6A010E2326000E24225C
:102EA00025222622265207E1255205E1245203E17C
:102EB000235009080AE2266A256A246A236A010E59
:102EC0002726000E282229222A222A5207E12952E7
:102ED00005E1285203E1275009080AE22A6A296A13
:102EE000286A276A010E2B26000E2C222D222E2264
:102EF0002E5207E12D5205E12C5203E12B50090817
:102F00000AE22E6A2D6A2C6A2B6A010E2F26000E09
:102F1000302231223222325207E1315205E1305261
:102F200003E12F50630818E2326A316A306A2F6A6F
:102F30002E6A2D6A2C6A2B6A2A6A296A286A276AED
:102F4000266A256A246A236A226A216A206A1F6A1D
:102F50001E6A1D6A1C6A1B6AA3EC06F0C0EF1BF018
:102F60005C2CCCD0606A5F6A5E6A010E5D6E5D2C7F
:102F70000DD05E520BE15F5209E1605207E1010E94
:102F80001B5E000E1C5A1D5A1E5A52D05D500A0874
:102F90000DE15E520BE15F5209E1605207E1010E63
:102FA0001F5E000E205A215A225A42D05D506408FA
:102FB0000DE15E520BE15F5209E1605207E1010E43
:102FC000235E000E245A255A265A32D05D50E80856
:102FD0000EE15E5003080BE15F5209E1605207E128
:102FE000010E275E000E285A295A2A5A21D05D5018
:102FF00010080EE15E5027080BE15F5209E16052B4
:1030000007E1010E2B5E000E2C5A2D5A2E5A10D0BD
:103010005D50A0080DE15E5086080AE15F2C08D0E3
:10302000605206E1010E2F5E000E305A315A325ABC
:103030001E5207E11D5205E11C5203E11B50090815
:103040000BE2010E1F5E000E205A215A225A1E6A00
:103050001D6A1C6A090E1B6E225207E1215205E10E
:10306000205203E11F5009080BE2010E235E000EFF
:10307000245A255A265A226A216A206A090E1F6E8E
:10308000265207E1255205E1245203E123500908A5
:103090000BE2010E275E000E285A295A2A5A266A88
:1030A000256A246A090E236E2A5207E1295205E196
:1030B000285203E1275009080BE2010E2B5E000E97
:1030C0002C5A2D5A2E5A2A6A296A286A090E276E06
:1030D0002E5207E12D5205E12C5203E12B50090835
:1030E0000BE2010E2F5E000E305A315A325A2E6A10
:1030F0002D6A2C6A090E2B6EA3EC06F05C500208B8
:10310000D8A4CCD0606A5F6A5E6A0A0E5D6E5D2CE0
:103110000DD05E520BE15F5209E1605207E1010EF2
:103120001B5E000E1C5A1D5A1E5A52D05D500A08D2
:103130000DE15E520BE15F5209E1605207E1010EC1
:103140001F5E000E205A215A225A42D05D50640858
:103150000DE15E520BE15F5209E1605207E1010EA1
:10316000235E000E245A255A265A32D05D50E808B4
:103170000EE15E5003080BE15F5209E1605207E186
:10318000010E275E000E285A295A2A5A21D05D5076
:1031900010080EE15E5027080BE15F5209E1605212
:1031A00007E1010E2B5E000E2C5A2D5A2E5A10D01C
:1031B0005D50A0080DE15E5086080AE15F2C08D042
:1031C000605206E1010E2F5E000E305A315A325A1B
:1031D0001E5207E11D5205E11C5203E11B50090874
:1031E0000BE2010E1F5E000E205A215A225A1E6A5F
:1031F0001D6A1C6A090E1B6E225207E1215205E16D
:10320000205203E11F5009080BE2010E235E000E5D
:10321000245A255A265A226A216A206A090E1F6EEC
:10322000265207E1255205E1245203E12350090803
:103230000BE2010E275E000E285A295A2A5A266AE6
:10324000256A246A090E236E2A5207E1295205E1F4
:10325000285203E1275009080BE2010E2B5E000EF5
:103260002C5A2D5A2E5A2A6A296A286A090E276E64
:103270002E5207E12D5205E12C5203E12B50090893
:103280000BE2010E2F5E000E305A315A325A2E6A6E
:103290002D6A2C6A090E2B6EA3EC06F05C50030815
:1032A000D8A4CCD0606A5F6A5E6A640E5D6E5D2CE5
:1032B0000DD05E520BE15F5209E1605207E1010E51
:1032C0001B5E000E1C5A1D5A1E5A52D05D500A0831
:1032D0000DE15E520BE15F5209E1605207E1010E20
:1032E0001F5E000E205A215A225A42D05D506408B7
:1032F0000DE15E520BE15F5209E1605207E1010E00
:10330000235E000E245A255A265A32D05D50E80812
:103310000EE15E5003080BE15F5209E1605207E1E4
:10332000010E275E000E285A295A2A5A21D05D50D4
:1033300010080EE15E5027080BE15F5209E1605270
:1033400007E1010E2B5E000E2C5A2D5A2E5A10D07A
:103350005D50A0080DE15E5086080AE15F2C08D0A0
:10336000605206E1010E2F5E000E305A315A325A79
:103370001E5207E11D5205E11C5203E11B500908D2
:103380000BE2010E1F5E000E205A215A225A1E6ABD
:103390001D6A1C6A090E1B6E225207E1215205E1CB
:1033A000205203E11F5009080BE2010E235E000EBC
:1033B000245A255A265A226A216A206A090E1F6E4B
:1033C000265207E1255205E1245203E12350090862
:1033D0000BE2010E275E000E285A295A2A5A266A45
:1033E000256A246A090E236E2A5207E1295205E153
:1033F000285203E1275009080BE2010E2B5E000E54
:103400002C5A2D5A2E5A2A6A296A286A090E276EC2
:103410002E5207E12D5205E12C5203E12B500908F1
:103420000BE2010E2F5E000E305A315A325A2E6ACC
:103430002D6A2C6A090E2B6EA3EC06F05C50040872
:10344000D8A4CDD0606A5F6A030E5E6EE80E5D6E32
:103450005D2C0DD05E520BE15F5209E1605207E135
:10346000010E1B5E000E1C5A1D5A1E5A52D05D5092
:103470000A080DE15E520BE15F5209E1605207E17B
:10348000010E1F5E000E205A215A225A42D05D5072
:1034900064080DE15E520BE15F5209E1605207E101
:1034A000010E235E000E245A255A265A32D05D5052
:1034B000E8080EE15E5003080BE15F5209E160523B
:1034C00007E1010E275E000E285A295A2A5A21D0F8
:1034D0005D5010080EE15E5027080BE15F5209E1D4
:1034E000605207E1010E2B5E000E2C5A2D5A2E5A07
:1034F00010D05D50A0080DE15E5086080AE15F2CF7
:1035000008D0605206E1010E2F5E000E305A315A8B
:10351000325A1E5207E11D5205E11C5203E11B50B5
:1035200009080BE2010E1F5E000E205A215A225A92
:103530001E6A1D6A1C6A090E1B6E225207E1215287
:1035400005E1205203E11F5009080BE2010E235E42
:10355000000E245A255A265A226A216A206A090E28
:103560001F6E265207E1255205E1245203E1235044
:1035700009080BE2010E275E000E285A295A2A5A22
:10358000266A256A246A090E236E2A5207E1295207
:1035900005E1285203E1275009080BE2010E2B5EDA
:1035A000000E2C5A2D5A2E5A2A6A296A286A090EA8
:1035B000276E2E5207E12D5205E12C5203E12B50CC
:1035C00009080BE2010E2F5E000E305A315A325AB2
:1035D0002E6A2D6A2C6A090E2B6EA3EC06F05C5045
:1035E0000508D8A4CDD0606A5F6A270E5E6E100E03
:1035F0005D6E5D2C0DD05E520BE15F5209E16052B1
:1036000007E1010E1B5E000E1C5A1D5A1E5A52D0B5
:103610005D500A080DE15E520BE15F5209E1605214
:1036200007E1010E1F5E000E205A215A225A42D095
:103630005D5064080DE15E520BE15F5209E160529A
:1036400007E1010E235E000E245A255A265A32D075
:103650005D50E8080EE15E5003080BE15F5209E19E
:10366000605207E1010E275E000E285A295A2A5A95
:1036700021D05D5010080EE15E5027080BE15F522B
:1036800009E1605207E1010E2B5E000E2C5A2D5A03
:103690002E5A10D05D50A0080DE15E5086080AE158
:1036A0005F2C08D0605206E1010E2F5E000E305AEA
:1036B000315A325A1E5207E11D5205E11C5203E1F4
:1036C0001B5009080BE2010E1F5E000E205A215A02
:1036D000225A1E6A1D6A1C6A090E1B6E225207E1DD
:1036E000215205E1205203E11F5009080BE2010EAF
:1036F000235E000E245A255A265A226A216A206A1D
:10370000090E1F6E265207E1255205E1245203E1FE
:10371000235009080BE2010E275E000E285A295A91
:103720002A5A266A256A246A090E236E2A5207E15C
:10373000295205E1285203E1275009080BE2010E46
:103740002B5E000E2C5A2D5A2E5A2A6A296A286A94
:10375000090E276E2E5207E12D5205E12C5203E18E
:103760002B5009080BE2010E2F5E000E305A315A21
:10377000325A2E6A2D6A2C6A090E2B6EA3EC06F0C3
:10378000B7D117A6E8D0606A5F6A270E5E6E100E8A
:103790005D6E5D2C0DD05E520BE15F5209E160520F
:1037A00007E1010E1B26000E1C221D221E2252D0F4
:1037B0005D500A080DE15E520BE15F5209E1605273
:1037C00007E1010E1F26000E20222122222242D0D4
:1037D0005D5064080DE15E520BE15F5209E16052F9
:1037E00007E1010E2326000E24222522262232D0B4
:1037F0005D50E8080EE15E5003080BE15F5209E1FD
:10380000605207E1010E2726000E282229222A22D3
:1038100021D05D5010080EE15E5027080BE15F5289
:1038200009E1605207E1010E2B26000E2C222D2209
:103830002E2210D05D50A0080DE15E5086080AE1EE
:103840005F2C08D0605206E1010E2F26000E3022B8
:10385000312232221E5207E11D5205E11C5203E1C2
:103860001B5009080AE21E6A1D6A1C6A1B6A010EC7
:103870001F26000E202221222222225207E121525D
:1038800005E1205203E11F5009080AE2226A216A79
:10389000206A1F6A010E2326000E242225222622DA
:1038A000265207E1255205E1245203E1235009087D
:1038B0000AE2266A256A246A236A010E2726000E78
:1038C000282229222A222A5207E1295205E12852D8
:1038D00003E1275009080AE22A6A296A286A276A46
:1038E000010E2B26000E2C222D222E222E5207E115
:1038F0002D5205E12C5203E12B5009080AE22E6AF1
:103900002D6A2C6A2B6A010E2F26000E30223122DE
:103910003222325207E1315205E1305203E12F5099
:10392000630818E2326A316A306A2F6A2E6A2D6A99
:103930002C6A2B6A2A6A296A286A276A266A256AF3
:10394000246A236A226A216A206A1F6A1E6A1D6A23
:103950001C6A1B6ACBD0606A5F6A270E5E6E100E0F
:103960005D6E5D2C0DD05E520BE15F5209E160523D
:1039700007E1010E1B5E000E1C5A1D5A1E5A52D042
:103980005D500A080DE15E520BE15F5209E16052A1
:1039900007E1010E1F5E000E205A215A225A42D022
:1039A0005D5064080DE15E520BE15F5209E1605227
:1039B00007E1010E235E000E245A255A265A32D002
:1039C0005D50E8080EE15E5003080BE15F5209E12B
:1039D000605207E1010E275E000E285A295A2A5A22
:1039E00021D05D5010080EE15E5027080BE15F52B8
:1039F00009E1605207E1010E2B5E000E2C5A2D5A90
:103A00002E5A10D05D50A0080DE15E5086080AE1E4
:103A10005F2C08D0605206E1010E2F5E000E305A76
:103A2000315A325A1E5207E11D5205E11C5203E180
:103A30001B5009080BE2010E1F5E000E205A215A8E
:103A4000225A1E6A1D6A1C6A090E1B6E225207E169
:103A5000215205E1205203E11F5009080BE2010E3B
:103A6000235E000E245A255A265A226A216A206AA9
:103A7000090E1F6E265207E1255205E1245203E18B
:103A8000235009080BE2010E275E000E285A295A1E
:103A90002A5A266A256A246A090E236E2A5207E1E9
:103AA000295205E1285203E1275009080BE2010ED3
:103AB0002B5E000E2C5A2D5A2E5A2A6A296A286A21
:103AC000090E276E2E5207E12D5205E12C5203E11B
:103AD0002B5009080BE2010E2F5E000E305A315AAE
:103AE000325A2E6A2D6A2C6A090E2B6EA3EC06F050
:103AF00022D03C5002081FE117A60FD041502708E2
:103B000003E2280E416E02D0010E412641C06AF048
:103B100042C06BF0D3EC08F00ED04150010803E333
:103B2000010E416E02D0010E415E41C06AF042C0FA
:103B30006BF0D3EC08F0010E016E02D0000E016EA6
:103B40001200020E7D6E68EC05F0199801B019881C
:103B5000010E7D6E68EC05F060C06BF05FC06AF02E
:103B60005EC069F05DC068F06850890813E1695073
:103B7000AE0810E16A500A080DE16B520BE10F0E1E
:103B8000676E666E0C0E656E0B0E646E0F0E636EC6
:103B9000626E43D168508A0814E16950AE0811E1A1
:103BA0006A500A080EE16B520CE10F0E676E666EEA
:103BB0000C0E656E0B0E646E0F0E636E0E0E626E53
:103BC0002CD168508B0814E16950AE0811E16A509D
:103BD0000A080EE16B520CE10F0E676E666E0C0E5A
:103BE000656E0B0E646E0F0E636E0D0E626E15D158
:103BF00068508C0812E16950AE080FE16A500A085B
:103C00000CE16B520AE10F0E676E666E656E646EB4
:103C10000B0E636E0F0E626E00D168508D0814E1BA
:103C20006950AE0811E16A500A080EE16B520CE1CE
:103C30000F0E676E666E0A0E656E0F0E646E0E0EC8
:103C4000636E0F0E626EE9D06B520DE16A500E0882
:103C500012E2FF0A08E1695041080DE2FF0A03E1A0
:103C600068503E0808E26B6A0F0E6A6E420E696E7B
:103C70003F0E686E0CD068520AE1695208E16A5240
:103C800006E16B5204E16B6A6A6A696A686A676A8C
:103C90006B520DE16A50000815E2FF0A08E1695015
:103CA000850810E2FF0A03E168509F080BE2A00EAE
:103CB000685E860E695A010E6A5A000E6B5A010E32
:103CC0006726E6D7666A6B520AE16A5208E16950D4
:103CD00026080FE2FF0A03E168500F080AE2100EFF
:103CE000685E270E695A000E6A5A6B5A010E6626E4
:103CF000EAD7656A6B520AE16A5208E16950020824
:103D00000FE2FF0A03E16850E7080AE2E80E685E86
:103D1000030E695A000E6A5A6B5A010E6526EAD7DD
:103D2000646A6B5207E16A5205E1695203E1685027
:103D3000630809E2640E685E000E695A6A5A6B5A9B
:103D4000010E6426EED7636A6B5207E16A5205E101
:103D5000695203E16850090809E20A0E685E000E24
:103D6000695A6A5A6B5A010E6326EED7626A6B5221
:103D700007E16A5205E1695203E16850000809E26F
:103D8000010E685E000E695A6A5A6B5A010E62266D
:103D9000EED7675202E10F0E676E67500F0804E11D
:103DA000665202E10F0E666E67500F0807E166501B
:103DB0000F0804E1655202E10F0E656E67500F08AF
:103DC0000AE166500F0807E165500F0804E16452EC
:103DD00002E10F0E646E67500F080DE166500F0888
:103DE0000AE165500F0807E164500F0804E16352CF
:103DF00002E10F0E636E67500F080FE166500F0867
:103E00000CE165500F0809E164500F0806E16350AA
:103E10000F0803E1625201E1626A82A4FED70A0E32
:103E20007C6E02EC01F07C6A02EC01F00F0E7C6EFD
:103E300002EC01F00F0E7C6E02EC01F00F0E7C6EB6
:103E400002EC01F00F0E7C6E02EC01F067C07CF01A
:103E500002EC01F066C07CF002EC01F065C07CF081
:103E600002EC01F064C07CF002EC01F063C07CF075
:103E700002EC01F062C07CF002EC01F00F0E7C6EEF
:103E800002EC01F082B4FED7000E19B8010E6C6E80
:103E90007D6E68EC05F01200F2CF5DF0F29EC80E68
:103EA000A96EA69CA69EA680A8505DBEF28E426E0C
:103EB000425203E1010E426E01D0426A42520AE1CF
:103EC000606A0A0E5F6EAE0E5E6E8C0E5D6EF40E54
:103ED000616E37DE040E5D6EFA0E7D6E5FEC01F0F2
:103EE0005D2EFAD7422C0AD0606A0A0E5F6EAE0EC3
:103EF0005E6E8D0E5D6EF40E616E23DE040E5D6EE1
:103F0000FA0E7D6E5FEC01F05D2EFAD7F250006E76
:103F1000F29EC80EA96E42C0A8FFA69CA69EA684CB
:103F20000F01550EA76EAA0EA76EA682A6B2FED7E7
:103F3000A6940050F21241C06AF042C06BF000013A
:103F4000D3EC08F012005C6A82BA49D183B247D13F
:103F5000010E5C6E82BA43D183B241D13C52D8A4E7
:103F6000F1D0606A5F6A5E6A010E5D6E5D2C0DD0F5
:103F70005E520BE15F5209E1605207E1010E1B2620
:103F8000000E1C221D221E2252D05D500A080DE197
:103F90005E520BE15F5209E1605207E1010E1F26FC
:103FA000000E20222122222242D05D5064080DE121
:103FB0005E520BE15F5209E1605207E1010E2326D8
:103FC000000E24222522262232D05D50E8080EE180
:103FD0005E5003080BE15F5209E1605207E1010EF8
:103FE0002726000E282229222A2221D05D501008DF
:103FF0000EE15E5027080BE15F5209E1605207E1D4
:10400000010E2B26000E2C222D222E2210D05D50C8
:10401000A0080DE15E5086080AE15F2C08D06052CE
:1040200006E1010E2F26000E3022312232221E52CE
:1040300007E11D5205E11C5203E11B5009080AE289
:104040001E6A1D6A1C6A1B6A010E1F26000E2022B2
:1040500021222222225207E1215205E1205203E1CE
:104060001F5009080AE2226A216A206A1F6A010EAB
:104070002326000E242225222622265207E125523D
:1040800005E1245203E1235009080AE2266A256A61
:10409000246A236A010E2726000E282229222A22BA
:1040A0002A5207E1295205E1285203E12750090865
:1040B0000AE22A6A296A286A276A010E2B26000E5C
:1040C0002C222D222E222E5207E12D5205E12C52B8
:1040D00003E12B5009080AE22E6A2D6A2C6A2B6A2A
:1040E000010E2F26000E302231223222325207E1F9
:1040F000315205E1305203E12F50630818E2326A71
:10410000316A306A2F6A2E6A2D6A2C6A2B6A2A6AF3
:10411000296A286A276A266A256A246A236A226A23
:10412000216A206A1F6A1E6A1D6A1C6A1B6AA3EC48
:1041300006F0000E18B0010E5D6E6E6E87EC07F093
:104140000152F7E03C2C35D03950080803E3010E4A
:10415000392602D0090E396EF250006EF29EC20E60
:10416000A96E39C0A8FFA69CA69EA6840F01550E75
:10417000A76EAA0EA76EA682A6B2FED7A69400507E
:10418000F2123950080DF350700F5D6E6B6E000126
:10419000FEEC04F0A3EC06F0000E18B0010E5D6E0C
:1041A0006E6E87EC07F00152F7E082BA02D083A26C
:1041B000FCD73C50020812E14150270803E2280EC8
:1041C000416E02D0010E412641C06AF042C06BF040
:1041D000D3EC08F082BA02D083A2FCD7BBD683A26C
:1041E00007D282AA05D282AC03D2010E5C6E3C5289
:1041F000D8A423D1606A010E5F6E860E5E6EA00E9B
:104200005D6E5D2C0DD05E520BE15F5209E1605294
:1042100007E1010E1B26000E1C221D221E2252D079
:104220005D500A080DE15E520BE15F5209E16052F8
:1042300007E1010E1F26000E20222122222242D059
:104240005D5064080DE15E520BE15F5209E160527E
:1042500007E1010E2326000E24222522262232D039
:104260005D50E8080EE15E5003080BE15F5209E182
:10427000605207E1010E2726000E282229222A2259
:1042800021D05D5010080EE15E5027080BE15F520F
:1042900009E1605207E1010E2B26000E2C222D228F
:1042A0002E2210D05D50A0080DE15E5086080AE174
:1042B0005F2C08D0605206E1010E2F26000E30223E
:1042C000312232221E5207E11D5205E11C5203E148
:1042D0001B5009080AE21E6A1D6A1C6A1B6A010E4D
:1042E0001F26000E202221222222225207E12152E3
:1042F00005E1205203E11F5009080AE2226A216AFF
:10430000206A1F6A010E2326000E2422252226225F
:10431000265207E1255205E1245203E12350090802
:104320000AE2266A256A246A236A010E2726000EFD
:10433000282229222A222A5207E1295205E128525D
:1043400003E1275009080AE22A6A296A286A276ACB
:10435000010E2B26000E2C222D222E222E5207E19A
:104360002D5205E12C5203E12B5009080AE22E6A76
:104370002D6A2C6A2B6A010E2F26000E3022312264
:104380003222325207E1315205E1305203E12F501F
:10439000630818E2326A316A306A2F6A2E6A2D6A1F
:1043A0002C6A2B6A2A6A296A286A276A266A256A79
:1043B000246A236A226A216A206A1F6A1E6A1D6AA9
:1043C0001C6A1B6A83A22AD082AA28D082AC26D07B
:1043D000325207E1315205E1305203E12F501E08FD
:1043E0001DE2326A316A306A2F6A2E6A2D6A2C6A9F
:1043F000010E2B6E226A216A206A1F6A22C026F0F3
:1044000021C025F020C024F01FC023F026C02AF0D0
:1044100025C029F024C028F023C027F0A3EC06F023
:10442000000E18B0010E5D6E6E6E87EC07F0015243
:10443000F7E0C80E7D6E5FEC01F03C2CD1D0696ACC
:1044400054EC0CF0606A010E5F6E860E5E6EA00E7C
:104450005D6E5D2C0DD05E520BE15F5209E1605242
:1044600007E1010E1B5E000E1C5A1D5A1E5A52D047
:104470005D500A080DE15E520BE15F5209E16052A6
:1044800007E1010E1F5E000E205A215A225A42D027
:104490005D5064080DE15E520BE15F5209E160522C
:1044A00007E1010E235E000E245A255A265A32D007
:1044B0005D50E8080EE15E5003080BE15F5209E130
:1044C000605207E1010E275E000E285A295A2A5A27
:1044D00021D05D5010080EE15E5027080BE15F52BD
:1044E00009E1605207E1010E2B5E000E2C5A2D5A95
:1044F0002E5A10D05D50A0080DE15E5086080AE1EA
:104500005F2C08D0605206E1010E2F5E000E305A7B
:10451000315A325A1E5207E11D5205E11C5203E185
:104520001B5009080BE2010E1F5E000E205A215A93
:10453000225A1E6A1D6A1C6A090E1B6E225207E16E
:10454000215205E1205203E11F5009080BE2010E40
:10455000235E000E245A255A265A226A216A206AAE
:10456000090E1F6E265207E1255205E1245203E190
:10457000235009080BE2010E275E000E285A295A23
:104580002A5A266A256A246A090E236E2A5207E1EE
:10459000295205E1285203E1275009080BE2010ED8
:1045A0002B5E000E2C5A2D5A2E5A2A6A296A286A26
:1045B000090E276E2E5207E12D5205E12C5203E120
:1045C0002B5009080BE2010E2F5E000E305A315AB3
:1045D000325A2E6A2D6A2C6A090E2B6E05EF26F0D0
:1045E0003C50020803E158DC05EF26F003EF26F00B
:1045F00082BC2CD183B22AD1010E5C6E3C52D8A46D
:10460000DAD082BCD8D083B2D6D0606A5F6A5E6AE4
:10461000010E5D6E5D2C0DD05E520BE15F5209E123
:10462000605207E1010E1B5E000E1C5A1D5A1E5AF5
:1046300052D05D500A080DE15E520BE15F5209E174
:10464000605207E1010E1F5E000E205A215A225AC5
:1046500042D05D5064080DE15E520BE15F5209E10A
:10466000605207E1010E235E000E245A255A265A95
:1046700032D05D50E8080EE15E5003080BE15F5256
:1046800009E1605207E1010E275E000E285A295AFF
:104690002A5A21D05D5010080EE15E5027080BE128
:1046A0005F5209E1605207E1010E2B5E000E2C5AA9
:1046B0002D5A2E5A10D05D50A0080DE15E5086088C
:1046C0000AE15F2C08D0605206E1010E2F5E000E59
:1046D000305A315A325A1E5207E11D5205E11C521E
:1046E00003E11B5009080BE2010E1F5E000E205A69
:1046F000215A225A1E6A1D6A1C6A090E1B6E22521A
:1047000007E1215205E1205203E11F5009080BE2A5
:10471000010E235E000E245A255A265A226A216A67
:10472000206A090E1F6E265207E1255205E1245228
:1047300003E1235009080BE2010E275E000E285A00
:10474000295A2A5A266A256A246A090E236E2A5291
:1047500007E1295205E1285203E1275009080BE23D
:10476000010E2B5E000E2C5A2D5A2E5A2A6A296AE7
:10477000286A090E276E2E5207E12D5205E12C52B0
:1047800003E12B5009080BE2010E2F5E000E305A98
:10479000315A325A2E6A2D6A2C6A090E2B6EA3ECFE
:1047A00006F0000E18B0010E5D6E6E6E87EC07F01D
:1047B0000152F7E026D73C2C33D0395203E0010EEA
:1047C000395E01D0396AF250006EF29EC20EA96EB7
:1047D00039C0A8FFA69CA69EA6840F01550EA76E01
:1047E000AA0EA76EA682A6B2FED7A6940050F21219
:1047F0003950080DF350700F5D6E6B6E0001FEECCA
:1048000004F0A3EC06F0000E18B0010E5D6E6E6EA3
:1048100087EC07F00152F7E082BC02D083A2FCD7FC
:104820003C50020812E14150010803E3010E416EC1
:1048300002D0010E415E41C06AF042C06BF0D3EC81
:1048400008F082BC02D083A2FCD7DDD182BAFBD0B3
:1048500083A2F9D0010E5C6E82BAF4D083A2F2D0AA
:10486000606A5F6A5E6A640E5D6E5D2C0DD05E529A
:104870000BE15F5209E1605207E1010E1B26000EB9
:104880001C221D221E2252D05D500A080DE15E52EC
:104890000BE15F5209E1605207E1010E1F26000E95
:1048A00020222122222242D05D5064080DE15E5276
:1048B0000BE15F5209E1605207E1010E2326000E71
:1048C00024222522262232D05D50E8080EE15E50D7
:1048D00003080BE15F5209E1605207E1010E272650
:1048E000000E282229222A2221D05D5010080EE134
:1048F0005E5027080BE15F5209E1605207E1010EAB
:104900002B26000E2C222D222E2210D05D50A00826
:104910000DE15E5086080AE15F2C08D0605206E186
:10492000010E2F26000E3022312232221E5207E1C4
:104930001D5205E11C5203E11B5009080AE21E6AE0
:104940001D6A1C6A1B6A010E1F26000E20222122EE
:104950002222225207E1215205E1205203E11F5099
:1049600009080AE2226A216A206A1F6A010E2326C8
:10497000000E242225222622265207E1255205E197
:10498000245203E1235009080AE2266A256A246AB0
:10499000236A010E2726000E282229222A222A52C3
:1049A00007E1295205E1285203E1275009080AE2EC
:1049B0002A6A296A286A276A010E2B26000E2C22F1
:1049C0002D222E222E5207E12D5205E12C5203E119
:1049D0002B5009080AE22E6A2D6A2C6A2B6A010EF6
:1049E0002F26000E302231223222325207E131527C
:1049F00005E1305203E12F50630818E2326A316A50
:104A0000306A2F6A2E6A2D6A2C6A2B6A2A6A296AF2
:104A1000286A276A266A256A246A236A226A216A22
:104A2000206A1F6A1E6A1D6A1C6A1B6AA3EC06F0D4
:104A3000000E18B0010E5D6E6E6E87EC07F001522D
:104A4000F7E00AD7E0D082BCDED083A2DCD0010E32
:104A50005C6E82BCD8D083A2D6D0606A5F6A5E6A80
:104A6000640E5D6E5D2C0DD05E520BE15F5209E16C
:104A7000605207E1010E1B5E000E1C5A1D5A1E5AA1
:104A800052D05D500A080DE15E520BE15F5209E120
:104A9000605207E1010E1F5E000E205A215A225A71
:104AA00042D05D5064080DE15E520BE15F5209E1B6
:104AB000605207E1010E235E000E245A255A265A41
:104AC00032D05D50E8080EE15E5003080BE15F5202
:104AD00009E1605207E1010E275E000E285A295AAB
:104AE0002A5A21D05D5010080EE15E5027080BE1D4
:104AF0005F5209E1605207E1010E2B5E000E2C5A55
:104B00002D5A2E5A10D05D50A0080DE15E50860837
:104B10000AE15F2C08D0605206E1010E2F5E000E04
:104B2000305A315A325A1E5207E11D5205E11C52C9
:104B300003E11B5009080BE2010E1F5E000E205A14
:104B4000215A225A1E6A1D6A1C6A090E1B6E2252C5
:104B500007E1215205E1205203E11F5009080BE251
:104B6000010E235E000E245A255A265A226A216A13
:104B7000206A090E1F6E265207E1255205E12452D4
:104B800003E1235009080BE2010E275E000E285AAC
:104B9000295A2A5A266A256A246A090E236E2A523D
:104BA00007E1295205E1285203E1275009080BE2E9
:104BB000010E2B5E000E2C5A2D5A2E5A2A6A296A93
:104BC000286A090E276E2E5207E12D5205E12C525C
:104BD00003E12B5009080BE2010E2F5E000E305A44
:104BE000315A325A2E6A2D6A2C6A090E2B6EA3ECAA
:104BF00006F0000E18B0010E5D6E6E6E87EC07F0C9
:104C00000152F7E026D75CC001F0AAEF2AF0325239
:104C100007E1315205E1305203E12F50000813E261
:104C20002E5207E12D5205E12C5203E12B500408CE
:104C30000AE2325208E1315206E1305204E12F50CB
:104C40000108D8B0D4D0325207E1315205E13052D8
:104C500003E12F50020813E22E5207E12D5205E125
:104C60002C5203E12B5004080AE2325208E131527F
:104C700006E1305204E12F500308D8B0B8D03252C8
:104C800007E1315205E1305203E12F50060813E2EB
:104C9000325211E131520FE130520DE12F5007082D
:104CA0000AE32E5208E12D5206E12C5204E12B506A
:104CB0000408D8B09CD0325207E1315205E130529D
:104CC00003E12F50090813E2325211E131520FE192
:104CD00030520DE12F500A080AE32E5208E12D52FE
:104CE00006E12C5204E12B500408D8B080D0325297
:104CF00007E1315205E1305203E12F500D0813E274
:104D0000325211E131520FE130520DE12F500E08B5
:104D10000AE32E5208E12D5206E12C5204E12B50F9
:104D20000408D8B064D0325207E1315205E1305264
:104D300003E12F50110813E2325211E131520FE119
:104D400030520DE12F5012080AE32E5208E12D5285
:104D500006E12C5204E12B500408D8B048D032525E
:104D600007E1315205E1305203E12F50140812E2FD
:104D7000325210E131520EE130520CE12F50150841
:104D800009E32E5207E12D5205E12C5203E12B508D
:104D900004082DE2325207E1315205E1305203E1BD
:104DA0002F50170812E22E5207E12D5205E12C5226
:104DB00003E12B50040809E2325207E1315205E1C8
:104DC000305203E12F50180812E2325207E13152FB
:104DD00005E1305203E12F501B080DE232520BE186
:104DE000315209E1305207E12F501D0804E3000E53
:104DF000016E03D002D0010E016E7CEF27F018A8DF
:104E00003FD083A625D0455223E1000E18B0010EF5
:104E1000080DF3CF5CF05CC06DF0C9EC01F0000E42
:104E200019B0010E080DF3CF5CF05CC06BF0FEEC26
:104E300004F0A3EC06F0000E19B0010E5C6E6E6E6D
:104E400087EC07F00152F7E0010E456E83B6FED7FE
:104E5000452C16D0000E18B0010E080DF3CF5CF0F3
:104E60005CC06BF0FEEC04F0A3EC06F0000E18B092
:104E7000010E5C6E6E6E87EC07F00152F7E0456A3A
:104E800018AC35D083A633D0455219E1000E18B0C6
:104E9000010E080DF350D00F5C6E6B6EFEEC04F04B
:104EA000A3EC06F0000E18B0010E5C6E6E6E87EC7F
:104EB00007F00152F7E0010E456E83B6FED7452C90
:104EC00016D0000E18B0010E080DF3CF5CF05CC0D8
:104ED0006BF0FEEC04F0A3EC06F0000E18B0010E2F
:104EE0005C6E6E6E87EC07F00152F7E0456A83A6B0
:104EF00013D017BA08D08BD601C05CF001C05DF0AA
:104F0000E6EC00F003D05D6AE6EC00F017A804D0F0
:104F10007EEC01F083B6FED7AFEF2AF08098849242
:104F20008494809A5C6A5D6A5E6A82A40DD182A4D0
:104F300002D0FDD7FCD719A40AD08480848284844F
:104F400082B405D082B203D082B001D0199419B4D2
:104F5000FBD08480356A00D000D0000082A412D03B
:104F600082A40CD05D2A640E7D6E5FEC01F05D5072
:104F70001D0803E2010E5E6E01D0F2D71984010E06
:104F80005C6EE2D08490848200D000D0000082A4C5
:104F900012D082A40CD05D2A640E7D6E5FEC01F00D
:104FA0005D501D0803E2010E5E6E01D0F2D7198438
:104FB000020E5C6EC9D08492848400D000D00000C0
:104FC00082A412D082A40CD05D2A640E7D6E5FECA8
:104FD00001F05D501D0803E2010E5E6E01D0F2D7B4
:104FE0001984030E5C6EB0D08494808A00D000D007
:104FF000000082A212D082A20CD05D2A640E7D6EC7
:105000005FEC01F05D501D0803E2010E5E6E01D001
:10501000F2D71984040E5C6E97D0809A848000D0F9
:1050200000D0000082A212D082A20CD05D2A640EB1
:105030007D6E5FEC01F05D501D0803E2010E5E6EB7
:1050400001D0F2D71984050E5C6E7ED084908482E4
:1050500000D000D0000082A212D082A20CD05D2A23
:10506000640E7D6E5FEC01F05D501D0803E2010EE1
:105070005E6E01D0F2D71984060E5C6E65D0849204
:10508000848400D000D0000082A212D082A20CD072
:105090005D2A640E7D6E5FEC01F05D501D0803E239
:1050A000010E5E6E01D0F2D71984070E5C6E4CD0F3
:1050B0008494848000D000D0000082A012D082A00E
:1050C0000CD05D2A640E7D6E5FEC01F05D501D0812
:1050D00003E2010E5E6E01D0F2D71984080E5C6EF9
:1050E00033D08490848200D000D0000082A012D0FF
:1050F00082A00CD05D2A640E7D6E5FEC01F05D50E5
:105100001D0803E2010E5E6E01D0F2D71984090E6C
:105110005C6E1AD08492848400D000D0000082A0FB
:1051200012D082A00CD05D2A640E7D6E5FEC01F07F
:105130005D501D0803E2010E5E6E01D0F2D71984A6
:105140000A0E5C6E01D084945C520AE05E5202E06A
:105150000A0E5C2672EC01F05CC001F003D002D0B4
:10516000000E016ECCEF2AF018B810D018AC02D0A7
:10517000189C0BD0188C000E18B0010E080DF350BF
:10518000D00F5D6E6D6EC9EC01F002D07EEC01F0C7
:105190006EEF2BF0365202E1366A02D0010E365E17
:1051A0003650080DF350200F5D6E6B6EFEEC04F070
:1051B000A3EC06F0000E18B0010E080DF3CF5DF061
:1051C0005DC06DF0C9EC01F0F0EF28F03F5246E110
:1051D0003C5209E182A603D080EC0EF001D0DAD770
:1051E000A3EC06F03AD03C2C27D0395203E0010E54
:1051F000395E01D0396AF250006EF29EC20EA96E7D
:1052000039C0A8FFA69CA69EA6840F01550EA76EC6
:10521000AA0EA76EA682A6B2FED7A6940050F212DE
:105220003950080DF350700F5D6E6B6E0001FEEC8F
:1052300004F0A3EC06F011D03C5002080EE14150FE
:10524000010803E3010E416E02D0010E415E41C030
:105250006AF042C06BF0D3EC08F002D0010E405E61
:105260006EEF2BF03650080803E2090E366E02D0BE
:10527000010E36263650080DF350200F5D6E6B6E12
:10528000FEEC04F0A3EC06F0000E18B0010E080DC1
:10529000F3CF5DF05DC06DF0C9EC01F05AEF29F07D
:1052A0003F5248E13C5209E182A603D062EC0EF085
:1052B00001D0D8D7A3EC06F03CD03C2C29D03950F3
:1052C000080803E3010E392602D0090E396EF250A8
:1052D000006EF29EC20EA96E39C0A8FFA69CA69EC3
:1052E000A6840F01550EA76EAA0EA76EA682A6B2BF
:1052F000FED7A6940050F2123950080DF350700FEB
:105300005D6E6B6E0001FEEC04F0A3EC06F011D0B4
:105310003C5002080EE14150270803E2280E416E7E
:1053200002D0010E412641C06AF042C06BF0D3ECBE
:1053300008F007D04050FE0803E3010E402601D0DC
:1053400040686EEF2BF0F86AD09E078E166A400E0A
:10535000AF6EA20EAC6E900EAB6E3F6A406A436AAF
:1053600018B0432A446A19B0442A456A526A010EA9
:10537000536E556A546A566AC180C182C184C1960F
:10538000C290010E926E000E936EFF0E946EFE0E92
:10539000956E969096929694D2EF00F05D6AE6EC48
:1053A00000F034EC01F0040E5C6EFA0E7D6E5FECE2
:1053B00001F05C2EFAD772EC01F0808A00D000D0A8
:1053C000000082A002D0179A01D0178A809A8482A6
:1053D00082A227D082B2FED77EEC01F0F250006E9E
:1053E000F29EA968A868A69CA69EA6840F01550EE9
:1053F000A76EAA0EA76EA682A6B2FED7A6940050EC
:10540000F2120C0E5C6EFA0E7D6E00015FEC01F084
:105410005C2E01D002D00F01F6D772EC01F0BCD7A0
:1054200002D076EF03F058EF0AF09D9A9D8AC00EE5
:10543000F2123D6A19943F6A020E586E580E576E6A
:10544000010E596E000E18B0010E5C6E6E6E87EC88
:1054500007F00152F7E0A3EC06F05A6A565208E052
:10546000542AD8B4552A100E006E002EFED7000024
:1054700052520FE0526A48C05CF049C05DF04AC029
:105480005EF04BC05FF04CC060F0F9EF11F0010E20
:105490005A6E5850000809E2FF0A03E157502B08E2
:1054A00004E2010E586E2C0E576E59C05CF0F3ECFE
:1054B00012F0015217E0010E5A6E575202E1585293
:1054C00005E0010E575E000E585A03D0586A010ECF
:1054D000576E000E18B0010E5C6E6E6E87EC07F012
:1054E0000152F7E0585203E15750FA0802E2010E68
:1054F000596E58520AE15750FA0807E3585203E12F
:105500005750C80802E2020E596E58520AE157502D
:10551000C80807E3585203E15750960802E2030E09
:10552000596E58520AE15750960807E3585203E162
:105530005750640802E2040E596E585209E1575060
:10554000640806E3575202E1585202E0050E596E14
:10555000A3EF1FF0015202E0010E5A6E50D43350F7
:105560000408D8A4CBD059C05CF0F3EC12F001527F
:1055700011E15A2C0FD0000E18B0010E080DF3CF18
:105580005CF05CC06DF0C9EC01F0010E586E2C0EA1
:10559000576E5A6A336AC2D401C05BF05B52D8B40A
:1055A000ACD05B2C02D0E0D599D05B50020803E16F
:1055B00036EC0EF093D05B50030803E1C6EC0DF01F
:1055C0008DD05B50040803E1DDEC11F087D05B5017
:1055D000050802E1FBD582D05B50060803E1F3EC3D
:1055E0000DF07CD05B50070804E1696A54EC0CF0C4
:1055F00075D05B50080802E153D670D05B500908A3
:105600000FE1020E7D6E68EC05F0015204E07D6A48
:1056100068EC05F004D0010E7D6E68EC05F05ED0FC
:105620005B500A0803E1F1EC0AF058D05B50100817
:1056300041E17EEC01F0040E5C6EFA0E7D6E5FECD3
:1056400001F05C2EFAD77EEC01F0040E5C6EFA0ECF
:105650007D6E5FEC01F05C2EFAD77EEC01F0040E5B
:105660005C6EFA0E7D6E5FEC01F05C2EFAD734ECC6
:1056700001F0F250006EF29EA968A868A69CA69E52
:10568000A6840F01550EA76EAA0EA76EA682A6B21B
:10569000FED7A6940050F212040E5C6EFA0E7D6ED8
:1056A00000015FEC01F05C2E01D002D00F01F6D7B3
:1056B000FF0014D05B50110807E117AA04D0010EB7
:1056C000696E54EC0CF00AD05B50140807E117AA7D
:1056D00005D03C500208D8B44CEC1FF082B4FED781
:1056E0005B52D8B409D0000E18B0010E5C6E6E6E1D
:1056F00087EC07F00152F7E05B6A0CD082A405D07A
:1057000019B603D01986010E332682B403D019A628
:0857100001D01996A3D6030095
:020000040030CA
:0E00000000220E0E000181000FC00FE00F4025
:00000001FF
;PIC18F452
;CRC=B6DF  CREATED="02-Oct-24 10:07"
