:040000009BEF25F05D
:08000800046ED8CF05F0E0CF33
:1000100006F00001E9CF0CF0EACF07F0E1CF08F0DD
:10002000E2CF09F0D9CF0AF0DACF0BF0F3CF12F01C
:10003000F4CF13F0FACF14F000C00EF001C00FF0AF
:1000400002C010F003C011F09DAA2AEF00F09EBA82
:100050008CEF04F00EC000F00FC001F010C002F0F1
:1000600011C003F00CC0E9FF07C0EAFF078E08C00B
:10007000E1FF09C0E2FF0AC0D9FF0BC0DAFF12C0DE
:10008000F3FF13C0F4FF14C0FAFF045006C0E0FFF2
:1000900005C0D8FF1000F2CF0DF0F29EAE0FF66E45
:1000A000000EF7220900F5500DBEF28E1200342525
:1000B00029001C292900042D2900D4342900BC382A
:1000C0002900A43C29008C4029005C482900444CAC
:1000D00029002C50290014542900E45B2900CC5F2E
:1000E0002900B46329009C6729006C6F29005473B0
:1000F00029003C772900247B2900F4822900DC8632
:100100002900C48A29007C962900AC8E290094928B
:100110002900649A29004C9E290034A229001CA6BB
:10012000290004AA2900ECAD2900D4B12900BCB5EE
:100130002900A4B929008CBD290074C129005CC51F
:10014000290044C929002CCD290014D12900BD1D46
:100150002A00A5212A008D252A0075292A005D2D57
:100160002A0045312A002D352A0015392A00FD3C88
:100170002A00E5402A00CD442A00B5482A009D4CBB
:100180002A0085502A006D542A0055582A003D5CEB
:100190002A0025602A000D642A00F5672A00DD6B1D
:1001A0002A00C56F2A00AD732A0095772A007D7B4F
:1001B0002A00657F2A004D832A0035872A001D8B7F
:1001C0002A00058F2A00ED922A00D5962A00BD9AB2
:1001D0002A00A59E2A008DA22A0075A62A005DAAE3
:1001E0002A0045AE2A002DB22A0015B62A00F2CF09
:1001F0000DF0F29EF76A080FF66E020EF722090064
:10020000F5500DBEF28E1200A086010020BF020044
:100210003057050060AE0A0050690F00C05C150041
:1002200040771B00200B2000009F240080B92A008B
:10023000C0C62D00F2CF0DF0F29EF76A4E0FF66E9B
:10024000020EF7220900F5500DBEF28E120050C3C7
:100250000000400D030060CC050080FC0A006090A7
:100260000F0078E5150060C51B00E8BA2000A02546
:100270002600C0C62D00F6D33000F2CF0DF0F29E5E
:10028000F76A940FF66E020EF7220900F5500DBEC4
:10029000F28E120050C30000EF490200000000007F
:1002A000F04902008FD003000100000090D003004D
:1002B0007F1A060002000000801A0600AF710B00D2
:1002C00003000000B0710B008F0510000400000057
:1002D000900510000F2016000500000010201600E9
:1002E0008F3A1C0006000000903A1C006FCE2000E0
:1002F0000700000070CE20009F25260008000000A7
:10030000A0252600FFD3300009000000F2CF0DF039
:10031000F29EF76A260FF66E030EF7220900F550DB
:100320000DBEF28E1200F0490200400D030030575E
:100330000500801A060060AE0A00B0710B00404252
:100340000F0090051000C05C1500102016004077CB
:100350001B00903A1C00200B200070CE2000009F54
:100360002400F0E8260080B92A00C0C62D00000055
:100370000000000000000A0D57656C636F6D65207A
:10038000746F204654706C75732073657269616C6C
:100390002068656C70200D0A0A59616573752073B9
:1003A000746F636B20636F6D6D616E64733A205878
:1003B00058203D206E756D626572206E6F742072DC
:1003C000656C6576616E742E20200D0A0A585858A7
:1003D00058585858583031202D2053706C6974206B
:1003E0006F6E2F6F6666200D0A5858585858585827
:1003F000583032202D204D522F56464F206D6F64BD
:1004000065200D0A58585858585858583033202DE0
:100410002056464F3E4D200D0A58585858585858A7
:10042000583034202D204469616C206C6F636B2040
:100430000D0A58585858585858583035202D2056BD
:10044000464F20412F42200D0A58585858585858A6
:10045000583036202D204D3E56464F200D0A585814
:100460005858585858583037202D205570206275EC
:1004700074746F6E20283530306B2F62616E642F7C
:100480006D656D6F7279202D20646570656E64698D
:100490006E67206F6E2056464F202F204D52202F22
:1004A000203530306B20627574746F6E200D0A58E1
:1004B000585858585858583038202D20446F776E67
:1004C00020627574746F6E20283530306B2F626136
:1004D0006E642F6D656D6F7279202D206465706577
:1004E0006E64696E67206F6E2056464F202F204D38
:1004F00052202F203530306B20627574746F6E205F
:100500000D0A30303030303030303041202D204630
:1005100072657175656E6379204C5342206669720D
:1005200073742E20656720363734353233303130DE
:100530004120776F756C642062652031322E333430
:10054000352E3637200D0A585858585858585830B4
:1005500042202D204D3E56464F200D0A0A456E681A
:10056000616E63656420636F6D6D616E64733A20C4
:100570005858203D206E756D626572206E6F742034
:1005800072656C6576616E742E0D0A0A30303030FB
:10059000303030304530202D203030303030303069
:1005A000304545202D2046617374206D656D6F7256
:1005B0007920736176652E204C53422066697273F0
:1005C000742E20656720363734353233303145306C
:1005D000203D2031322E3334352E363720746F20B3
:1005E000636820302C20363734353233303145457E
:1005F000203D2031322E3334352E363720746F2093
:1006000063682031342845290D0A303030303030CD
:1006100030304642202D204469616C20737065653E
:10062000647320696E20687A202A20313020696E38
:1006300020616363656C65726174656420646961DF
:100640006C206D6F64652028302D32353520656152
:100650006368207370656564292E204C5342203DE9
:1006600020736C6F776573742873706565643129C6
:100670002E0D0A20206578616D706C652030353054
:100680004131393332464220776F756C64206265A0
:100690003A20537065656431203D2030352C20535D
:1006A0007065656432203D203041283130292C208E
:1006B000537065656433203D203139283235292C4B
:1006C00020537065656434203D203332283530294D
:1006D0002020676976696E672053706565643120F4
:1006E0003530687A2C2053706565643220313030A3
:1006F000687A2C2053706565643320323530687A0F
:100700002C2053706565643420353030687A0D0ACA
:1007100058585858585858584643202D2054656DFD
:10072000706F72617279207769646562616E6420AE
:1007300028756E74696C206E65787420706F7765AB
:1007400072206F6666290D0A5858585858585858DC
:100750004644202D204342206D6F6465206F6E2F2C
:100760006F6666200D0A58585858585858584645CC
:10077000202D20526573657420454550524F4D2001
:100780000D0A0A4561737920436F6D6D616E647364
:1007900020287772697465206672657175656E636D
:1007A00079206E6F726D616C6C7929200D0A0A30A8
:1007B000303030303030303046202D204672657178
:1007C00075656E637920656720313233343536378D
:1007D000383046203D2031322E3334352E363738EE
:1007E00020687A200D0A30303030303030303130EF
:1007F000202D2030303030303030303145202D2029
:1008000046617374206D656D6F72792073617665D2
:100810002E204C61737420627974652069732063A3
:1008200068616E6E656C2C20736F206567203132B5
:10083000333435363738313020776F756C64207338
:100840006176652031322E3334352E3637382074B8
:100850006F206368616E6E656C20302E20313233FC
:100860003435363738314520776F756C64207361C5
:1008700076652031322E3334352E36373820746F7A
:10088000206368616E6E656C2045283134293B20F9
:100890000D0A20206578616D706C6520303730302E
:1008A00030303030313920776F756C642073617669
:1008B0006520372E3030302E303020746F20636842
:1008C000616E6E656C20392E2052656D656D6265B6
:1008D0007220746F20737461727420776974682059
:1008E0003020696620796F7520726571756972654F
:1008F00020756E646572203130206D687A210D0A92
:1009000000009EAAFED7ABCF16F0AECF01F016A224
:1009100002D0AB98AB88120019808D6B9EAA1FD0B5
:100920009A5126081CE2FF0A03E19951100817E2C8
:1009300001014E6B4E510A080AE1036A4E518D0FB8
:10094000E96E000E0320EA6EEF6A4E2BF3D700012A
:10095000976B010E986F19909A6B996B31D09EAA84
:100960002FD09A5127082CE303E199510F0828E36F
:10097000C8DF01C08BF0036A98518D0FE96E000E3D
:100980000320EA6E8BC0EFFF982B9A6B996B9851FE
:10099000060816E1036A98518D0FE96E000E0320D8
:1009A000EA6EEF6A010E976F986F199098510608DA
:1009B00007E29851060804E2A4DF01C08CF0F9D7E1
:1009C0009E9A2AEF00F056464F20412000005646DE
:1009D0004F20422000004D454D2025642000010E8F
:1009E000EA6E030EE96EEF500DE0060E016E006A2E
:1009F000002EFED7012EFBD77B0E006E002EFED7F9
:100A0000EF2EF3D71200179080B21780179280B4A0
:100A10001782179480B6178400D0120017A0809216
:100A200017B0808217A2809417B2808417A4809692
:100A300017B4808600D01200E6DF808600D0809652
:100A4000EDDF1200818E00D0819E1200650E816E56
:100A5000F3DF5D0E816EF0DF4C0E816EEDDF600E18
:100A6000816EF0DF510E816EEDDF4E0E816EEADF9A
:100A7000F2EF25F0030E01012E5F0AE3010EEA6E8C
:100A80002E0EE96EEF5004E001D000D0EF2EFDD71E
:100A9000000112009EA8FED7D051AD6EACA2FED7C9
:100AA000020ED16FCF0E01012E6F0001E3DFD12FB7
:100AB000F9D765EF05F00900F5520CE0F6CFCEF05E
:100AC000F7CFCFF0F5CFD0F0E5D7CEC0F6FFCFC04F
:100AD000F7FFF1D712EF26F096DF808280948096A0
:100AE0009DDF1200E00EF725FC6FF2CFFDF0F29EC5
:100AF000FCC0A9FFA69CA69EA680A850FDBFF28EB2
:100B0000FB6BFA6BF96BF86FF8C001F012001F0E67
:100B1000F76FE8DF01501CEF26F00101196B195146
:100B200003081FE3010E1B6F150E1A6F19511A25CA
:100B3000016E000E1B21036E0150E96E03C0EAFF37
:100B4000195110251C6FF2CF1DF1F29E1CC1A9FF97
:100B5000A69CA69EA680A8501DBFF28EEF6E192BF4
:100B6000DED71551115D0AE11651125D07E11751EB
:100B7000135D04E11851145DD8B42FD0196B1951CD
:100B800003082BE3195110251A6F010E1C6F110E6B
:100B90001B6F19511B25016E000E1C21036E0150A5
:100BA000E96E03C0EAFFEFCF1BF1F250006EF29E38
:100BB0001AC1A9FF1BC1A8FFA69CA69EA6840F016F
:100BC000550EA76EAA0EA76EA682A6B2FED7A69451
:100BD0000050F2120101192BD2D7000101EF06F0EB
:100BE00001010A51040DF3CF0FF10FC110F10EC135
:100BF00014F10DC113F10CC112F10BC111F100017F
:100C00008CD71200E00EFB25FE6FF2CFFFF0F29EB4
:100C1000FEC0A9FFA69CA69EA680A850FFBFF28E8C
:100C2000FD6FFC51FD5DD8B419D0E00EFB25FE6FC1
:100C3000F250006EF29EFEC0A9FFFCC0A8FFA69C69
:100C4000A69EA6840F01550EA76EAA0EA76EA682B9
:100C5000A6B2FED7A6940050F212000112000C0EAC
:100C6000FB6FF8C0FCF0CEDF12000B0EFB6FFAC07A
:100C7000FCF0C8DF12000A0EFB6FF7C0FCF0C2DF09
:100C80001200090EFB6FF8C0FCF0BCDF1200080E6A
:100C9000FB6FF7C0FCF0B6DF1200050EFB6FF7C06C
:100CA000FCF0B0DF12000D0EFB6FF8C0FCF0AADF05
:100CB0001200200E01010A6F00C10EF1FFC00DF1FC
:100CC000FEC00CF1FDC00BF100018ADF1200210E05
:100CD00001010A6F00C10EF1FFC00DF1FEC00CF161
:100CE000FDC00BF100017CDF1200030EFB6FF9C0A9
:100CF000FCF088DF1200020EFB6FF9C0FCF082DF0F
:100D00001200010EFB6FF9C0FCF07CDF1200FB6BE0
:100D1000F9C0FCF077DF1200070EFB6FF7C0FCF0A4
:100D200071DF1200060EFB6FF7C0FCF06BDF1200E4
:100D30001F0EFB6FCFC0FCF065DF04EF07F0010171
:100D40000A6B0E6B0A0E0D6FAE0E0C6F600E0B6F02
:100D5000000146DF010ECE6FCE5113080EE3CEC068
:100D60000AF101010E6B0A0E0D6FAE0E0C6F600ED4
:100D70000B6F000135DFCE2BEFD7140ECE6FCE51A7
:100D800027080BE3CEC00AF101010E6B0D6B0C6B53
:100D90000B6B000125DFCE2BF2D7F86B60DFFA6B0F
:100DA00064DFF76B68DFF86B6CDFF76B70DF0F0EDB
:100DB000F76F73DFF86B77DF0101006B0A0E00013C
:100DC000FF6FAE0EFE6F600EFD6F73DF0101006BF3
:100DD0000A0E0001FF6FAE0EFE6F600EFD6F77DF33
:100DE000020EF96F82DF0A0EF96F85DF190EF96FB7
:100DF00088DF320EF96F8BDF130EF76F8DDFF76B25
:100E000091DF010ECF6F94D7FF0021EF26F00C0E7B
:100E1000F76F68DE0150D4EF07F00B0EF76F62DE5C
:100E20000150D8EF07F00A0EF76F5CDE0150DBEFE0
:100E300007F0090EF76F56DE0150DEEF07F00D0EDA
:100E4000F76F50DE0150E2EF07F0080EF76F4ADE51
:100E50000150E6EF07F0030EF76F44DE0150E9EFB3
:100E600007F0050EF76F3EDE0150ECEF07F0020EC3
:100E7000F76F38DE0150EFEF07F0010EF76F32DE4B
:100E80000150F2EF07F0F76B2DDE0150F5EF07F0A0
:100E9000060EF76F27DE0150F8EF07F0070EF76F29
:100EA00021DE0150FBEF07F0F75336E080510F08C9
:100EB00004E1179A189418922ED0805304E1178AEF
:100EC0001894188228D0802D04D0178A189418926C
:100ED00022D08051020804E1179A188418921BD07E
:100EE0008051030804E1178A1884189214D08051A5
:100EF000040804E1178A188418820DD080510C0868
:100F000004E1179A1894188206D080510E0803E164
:100F1000179A1884188246D017BA07D018B405D08B
:100F200018B203D00F0E806F3DD017AA06D018B4A8
:100F300004D018A202D0806B35D017AA07D018B4FD
:100F400005D018B203D0010E806F2CD017BA07D08D
:100F500018A405D018B203D0020E806F23D017AAB0
:100F600007D018A405D018B203D0030E806F1AD092
:100F700017AA07D018A405D018A203D0040E806FBA
:100F800011D017BA07D018B405D018A203D00C0E90
:100F9000806F08D017BA06D018A404D018A202D0C7
:100FA0000E0E806F120033D7179C01B0178C35D707
:100FB00001C07FF038D701C07CF03BD7199E01B04B
:100FC000198E3DD7189E01B0188E3FD701C081F011
:100FD00042D701C083F045D701C080F048D701C097
:100FE00084F04BD701C085F04ED701C086F050D7B2
:100FF00001C01BF053D701C01AF0010EF76F54DF88
:1010000024EF26F00101446B445103081FE3010E55
:101010004A6F450E496F44514925016E000E4A2121
:10102000036E0150E96E03C0EAFF445143254B6F44
:10103000F2CF4CF1F29E4BC1A9FFA69CA69EA680C2
:10104000A8504CBFF28EEF6E442BDED745C100F0A6
:1010500046C101F047C102F048C103F000013AEF78
:1010600008F001013D51040DF3CF42F142C143F1BB
:101070000001C8D703C041F102C040F101C03FF1F7
:1010800000C03EF13EC100F03FC101F040C102F09E
:1010900041C103F01200200E01013D6F0001E1DFAC
:1010A0001200020EFA25FB6FE8CF3DF1DADF1200E5
:1010B000FB51FD03F3CF01F0F4CF00F0FE03F3503A
:1010C0000026FC51FD03F3500020026E1200E3DF06
:1010D00003C06FF002C06EF001C06DF000C06CF094
:1010E0007CC0FAF0DEDF03C073F002C072F001C012
:1010F00071F000C070F01B5227E1280E1C6E010E2B
:101100001A5CFA6FFC6BFB6FFE6B040EFD6FD0DF99
:1011100002C003F00150F2CFF9F0F29E02C0F7FFD7
:101120004BEC00F00900F5CF01F00900F5CF02F01B
:101130000900F5CF03F0F9BFF28E03C077F002C0CB
:1011400076F001C075F0746E1B2C27D0280E1C6E33
:10115000270E1A24FA6FFC6BFB6FFE6B040EFD6FFB
:10116000A7DF02C003F00150F2CFF9F0F29E02C0F7
:10117000F7FF4BEC00F00900F5CF01F00900F5CFC7
:1011800002F00900F5CF03F0F9BFF28E03C077F04B
:1011900002C076F001C075F0746E1B500208D8A42E
:1011A00027D0500E1C6E010E1A5CFA6FFC6BFB6FA1
:1011B000FE6B040EFD6F7CDF02C003F00150F2CF26
:1011C000F9F0F29E02C0F7FF4BEC00F00900F5CFFA
:1011D00001F00900F5CF02F00900F5CF03F0F9BFE7
:1011E000F28E03C077F002C076F001C075F0746E25
:1011F000F8510208D8A408D077C06BF076C06AF026
:1012000075C069F074C068F0F85308E16FC06BF006
:101210006EC06AF06DC069F06CC068F0F82D08D03F
:1012200073C06BF072C06AF071C069F070C068F092
:10123000120001013C6B83A802D0080E3C2783AA50
:1012400002D0040E3C2783AC02D0020E3C2783AEB2
:1012500002D0010E3C273CC101F000011200809A2F
:10126000849084928494809801012C51010B010890
:1012700001E184842C51020B020801E184822C518B
:10128000040B040801E184802C51080B080801E1DB
:10129000808A8088310E006E002EFED700D08098A4
:1012A000020E2D6FB80E2E6F00013AEC05F0010111
:1012B0002D2FF8D7809A8490849284940001120094
:1012C00082B4FED782A4FED70A0E01012C6F000162
:1012D000C6DF01012C6B0001C2DF0F0E01012C6F74
:1012E0000001BDDF0F0E01012C6F0001B8DF23C12B
:1012F0002CF1B5DF24C12CF1B2DF25C12CF1AFDF19
:1013000026C12CF1ACDF27C12CF1A9DF28C12CF1BB
:10131000A6DF29C12CF1A3DF2AC12CF1A0DF2BC14C
:101320002CF19DDF120019B606D09D2B9D51770838
:10133000D8B061D29D6B020E01010D250E250F253F
:10134000236F000E1021246F000E1121256F000E57
:101350001221266F13512327000E24232523262331
:10136000010E2327000E242325232623145123278F
:10137000000E242325232623010E2325156F000E9E
:101380002421166F000E2521176F000E2621186FDD
:1013900019B617D000019E510101155D12E100013F
:1013A0009F510101165D0DE10001A0510101175D82
:1013B00008E10001A1510101185D03E100011BD208
:1013C00001010D3D01D003D00DC119F102D00F0E66
:1013D000196F0E3D01D003D00EC11AF102D00F0ECD
:1013E0001A6F0F531AE1105318E1115316E11253FB
:1013F00014E11451020811E019C123F11AC124F1BA
:101400000F0E256F266F276F286F296F2A6B22C159
:101410002BF1000155DF1ED101010F3D10D0103D11
:101420000ED0113D0CD012517F0809E10F0E1B6F39
:101430001C6F1D6F1E6F1F6F206F216F0AD112C1AD
:1014400026F111C125F110C124F10FC123F126C1EC
:101450002AF125C129F124C128F123C127F12653FE
:101460000EE125510F080BE307E12451420807E381
:1014700003E123513F0803E30F0E1B6F1BD01B6BCF
:101480002A530DE129510E0815E2FF0A08E12851FF
:10149000410810E2FF0A03E127513F080BE2400E2A
:1014A000275F420E285B0F0E295B000E2A5B010EA0
:1014B0001B27E6D726530EE1255101080BE307E170
:1014C0002451860807E303E123519F0803E30F0E2D
:1014D0001C6F1BD01C6B2A530DE12951000815E22B
:1014E000FF0A08E12851850810E2FF0A03E12751AD
:1014F0009F080BE2A00E275F860E285B010E295B7A
:10150000000E2A5B010E1C27E6D726530CE125535B
:101510000AE12451270807E303E123510F0803E3FD
:101520000F0E1D6F17D01D6B2A530AE1295308E1D6
:10153000285126080FE2FF0A03E127510F080AE2AB
:10154000100E275F270E285B000E295B2A5B010E19
:101550001D27EAD726530CE125530AE1245103083D
:1015600007E303E12351E70803E30F0E1E6F17D0D3
:101570001E6B2A530AE1295308E1285102080FE2A1
:10158000FF0A03E12751E7080AE2E80E275F030E8E
:10159000285B000E295B2A5B010E1E27EAD7265323
:1015A0000AE1255308E1245306E12351630803E3CC
:1015B0000F0E1F6F13D01F6B2A5307E1295305E14C
:1015C000285303E12751630809E2640E275F000EE8
:1015D000285B295B2A5B010E1F27EED726530AE101
:1015E000255308E1245306E12351090803E30F0EB4
:1015F000206F13D0206B2A5307E1295305E12853AC
:1016000003E12751090809E20A0E275F000E285B53
:10161000295B2A5B010E2027EED7235308E12453D0
:1016200006E1255304E1265302E1216B12D0216B20
:10163000275306E1285304E1295302E12A5309E024
:10164000010E275F000E285B295B2A5B010E212714
:10165000EFD700010101133D01D003D013C122F1E6
:1016600002D00F0E226F12530AE1115308E11051FC
:1016700002080AE2FF0A03E10F51E80805E21451EB
:10168000010802E2010E146F145315E119C123F190
:101690001AC124F11BC125F11CC126F11DC127F17E
:1016A0001EC128F11FC129F120C12AF122C12BF14D
:1016B000000106DE0101142D15D019C123F11AC154
:1016C00024F11CC125F11DC126F11EC127F11FC146
:1016D00028F120C129F121C12AF122C12BF10001F9
:1016E000EFDD01011451020813E119C123F11AC100
:1016F00024F10F0E256F266F1FC127F120C128F19D
:1017000021C129F12A6F22C12BF10001D9DD01018C
:101710001451030813E119C123F11AC124F11FC1A7
:1017200025F120C126F121C127F10F0E286F296F65
:101730002A6F22C12BF10001C3DD010114510408FD
:1017400013E119C123F11AC124F10F0E256F266F81
:101750001FC127F120C128F121C129F12A6F22C11F
:101760002BF10001ADDD01011451050810E119C193
:1017700023F11AC124F10F0E256F266F276F286BF6
:10178000296F2A6F22C12BF100019ADD0101020E9F
:101790000D250E250F25236F000E1021246F000E3E
:1017A0001121256F000E1221266F13512327000EE1
:1017B000242325232623010E2327000E242325235B
:1017C000262314512327000E242325232623010E2C
:1017D000232500019E6F000E0101242100019F6F4F
:1017E000000E010125210001A06F000E010126213C
:1017F0000001A16F1998120003C10AF17F5212E192
:101800000101025302E1010E096F022D02D00C0EFC
:10181000096F0851130804E2140E085D0B6F01D024
:101820000B6900017F2C06D0020E0101096F08C16F
:101830000BF1000101010A51092504250C6F000E6E
:1018400005210D6F000E06210E6F000E07210F6F90
:101850000B510C27000E0D230E230F2318B0010E81
:101860000C25786E000E0D21796E000E0E217A6E19
:10187000000E0F217B6E000E18B0010E0C6F09C117
:101880000DF10AC10EF107C112F106C111F105C136
:1018900010F104C10FF10BC113F1146F000143DD0E
:1018A000120001013D2D03D08094808680823D533B
:1018B00003E18094809280960001120003EC05F011
:1018C00080928084808600D00EEC05F0CFEF0DF082
:1018D00018AE0AD0150E7D2401013C6F3D6F00014A
:1018E00031EC08F007D006D0140E01013D6F000165
:1018F00031EC08F01200D8B204D0010EEA6E440EAA
:10190000E96E006A016A026A036A0101446B456B71
:10191000466B476B43514211411140112CE0200EA0
:10192000486FD8903C373D373E373F3744374537CF
:10193000463747374351475D08E14251465D05E16F
:101940004151455D02E14051445D0FE34051445F28
:101950004151D8A0413D455F4251D8A0423D465F2C
:101960004351D8A0433D475FD88000360136023648
:101970000336482FD6D744C1EFFF45C1ECFF46C11F
:10198000ECFF47C1ECFF000112000101486B496BFD
:10199000010E4A6FDA6AD96A4D6F400E4C6F010E24
:1019A000EA6E440EE96E4DC1E2FF4CC1E1FF4AC14F
:1019B0004BF1D890E550EE02F3504823F450492300
:1019C0004B2FF7D748C1DEFF49C148F1496BD8B06A
:1019D000492B4C2BD8B44D2B4A2B4A510508DFE13B
:1019E00000011200700E01013D6F3C513D25816EDA
:1019F000000193EF10F081CF9BF00FEF0DF003EC9F
:101A000005F080928084809600D00EEC05F017EFF0
:101A10000DF09BC081FF9B6B18EF0DF0ECD7700EA3
:101A200001013D6F3C513D25816E0001E8D7F1D7A2
:101A3000120019B607D0A22BA2517708D8B0CAEF6E
:101A400010F0A26B04C108F103C107F102C106F155
:101A500001C105F119A604D0A66BA56BA46BA36BFD
:101A6000A3510101055D13E10001A4510101065DCF
:101A70000EE10001A5510101075D09E10001A65138
:101A80000101085D04E10001CAEF10F0010118989E
:101A900017BA1888010E3D6F000103DF04C10CF175
:101AA00003C10BF102C10AF101C109F101010D6B82
:101AB0000D510908D8A06FD00D51030DF350040D3E
:101AC000F350036AF2CF3CF1F29E00013DEC01F0CD
:101AD000006E0900F5CF01F00900F5CF02F0090012
:101AE000F5CF03F001013CBFF28E03500C5D51E3D2
:101AF0000BE102500B5D4DE307E101500A5D49E344
:101B000003E10050095D45E30D51030DF350010F52
:101B1000040DF350036AF2CF3CF1F29E00013DEC5C
:101B200001F0006E0900F5CF01F00900F5CF02F0D9
:101B30000900F5CF03F001013CBFF28E0C51035CAC
:101B400028E30BE10B51025C24E307E10A51015C3D
:101B500020E303E10951005C1CE30D51030DF35038
:101B6000020F040DF350036AF2CF3CF1F29E000124
:101B70003DEC01F0006E0900F5CF01F00900F5CF52
:101B800002F00900F5CF03F001013CBFF28E7D6E3B
:101B900002D00D2B8DD77DC081FF00018FD60101B2
:101BA0000D6B0D51090852E30D51040DF350036AFA
:101BB000F2CF3CF1F29E0001F7EC00F0006E09005C
:101BC000F5CF01F00900F5CF02F00900F5CF03F0E1
:101BD00001013CBFF28E03500C5D36E30BE1025075
:101BE0000B5D32E307E101500A5D2EE303E1005093
:101BF000095D2AE3010E0D25040DF350036AF2CFAF
:101C00003CF1F29E0001F7EC00F0006E0900F5CF08
:101C100001F00900F5CF02F00900F5CF03F0010152
:101C20003CBFF28E0C51035C0FE30BE10B51025CE5
:101C30000BE307E10A51015C07E303E10050095D92
:101C400003E20DC17EF002D00D2BABD719B437D013
:101C500000013EDE03C011F102C010F101C00FF11E
:101C600000C00EF1010111530DE110510E081FE2E9
:101C7000FF0A08E10F5141081AE2FF0A03E10E5181
:101C80003F0815E2400E0E5D006E420E0F59016EC8
:101C90000F0E1059026E000E1159036E0050095FAD
:101CA00001500A5B02500B5B03500C5B08D00E51D5
:101CB00009270F510A2310510B2311510C230CC17A
:101CC00015F10BC114F10AC113F109C112F1196B1D
:101CD000186B176B166B15530DE11451000819E2C0
:101CE000FF0A08E11351850814E2FF0A03E11251CB
:101CF0009F080FE2A00E125F860E135B010E145BAD
:101D0000000E155B010E1627000E1723182319234A
:101D1000E2D71D6B1C6B1B6B1A6B15530AE1145336
:101D200008E11351260813E2FF0A03E112510F08DC
:101D30000EE2100E125F270E135B000E145B155B94
:101D4000010E1A27000E1B231C231D23E6D7216B2F
:101D5000206B1F6B1E6B15530AE1145308E11351DE
:101D6000020813E2FF0A03E11251E7080EE2E80E4F
:101D7000125F030E135B000E145B155B010E1E2732
:101D8000000E1F2320232123E6D7256B246B236B12
:101D9000226B155307E1145305E1135303E112516C
:101DA00063080DE2640E125F000E135B145B155B9B
:101DB000010E2227000E232324232523EAD7296B93
:101DC000286B276B266B155307E1145305E113535A
:101DD00003E1125109080DE20A0E125F000E135BB7
:101DE000145B155B010E2627000E272328232923C9
:101DF000EAD72D6B2C6B2B6B2A6B125306E1135316
:101E000004E1145302E115530DE0010E125F000EC0
:101E1000135B145B155B010E2A27000E2B232C236A
:101E20002D23EBD72AC182F0D8920CC13FF10BC110
:101E30003EF10AC13DF109C13CF1436B426B270EF3
:101E4000416F100E406F000156DD03C031F102C03A
:101E500030F101C02FF100C02EF11DC143F11CC1B2
:101E600042F11BC141F11AC140F10101476B466BC0
:101E7000456B640E446F000188DD03C03FF102C072
:101E80003EF101C03DF100C03CF121C143F120C150
:101E900042F11FC141F11EC140F10101476B466B88
:101EA000456B0A0E446F000170DD005001013C27B4
:101EB00001503D2302503E2303503F2322513C2535
:101EC000326F23513D21336F3351000809E2FF0A7D
:101ED00003E13251F30804E2F40E325F010E335B8A
:101EE000195307E1185305E1175303E11651090887
:101EF00005E2300E3227020E332304D0300E322793
:101F0000020E3323346B356B366B376B386B396BA2
:101F10003A6B3B6B33C135F133313D6F32313C6F3E
:101F20003D333C333D333C333D333C330F0E3D17A3
:101F30003C510F0B366F32510F0B376F7D50050838
:101F400058E3D89231C13FF130C13EF12FC13DF18C
:101F50002EC13CF1436B426B416B050E406F00019B
:101F6000CADC03C03FF102C03EF101C03DF100C038
:101F70003CF10C0E01013C27000E3D233E233F2384
:101F80003F31036E3E31026E3D31016E3C31006ED9
:101F900003320232013200320332023201320032A5
:101FA000033202320132003200C03AF1D89231C11C
:101FB0003FF130C13EF12FC13DF12EC13CF1436BE9
:101FC000426B416B050E406F000195DC03C03FF191
:101FD00002C03EF101C03DF100C03CF10C0E010118
:101FE0003C27000E3D233E233F233C510F0B3B6F0C
:101FF00063D0D89231C13FF130C13EF12FC13DF1E4
:102000002EC13CF1436B426B416B050E406F0001EA
:1020100072DC03C03FF102C03EF101C03DF100C0DF
:102020003CF10C0E01013C27000E3D233E233F23D3
:102030001E0E3C5F000E3D5B3E5B3F5B3F31036E1F
:102040003E31026E3D31016E3C31006E0332023290
:1020500001320032033202320132003203320232E4
:102060000132003200C03AF1D89231C13FF130C1A3
:102070003EF12FC13DF12EC13CF1436B426B416BF0
:10208000050E406F000137DC03C03FF102C03EF196
:1020900001C03DF100C03CF10C0E01013C27000ED7
:1020A0003D233E233F231E0E3C5F000E3D5B3E5B07
:1020B0003F5B3C510F0B3B6F809280948096300EBB
:1020C0003425816E00011CEC05F0200E0101352540
:1020D000816E00011CEC05F0100E01013625816EA9
:1020E00000011CEC05F037C181FF1CEC05F0300E3F
:1020F00001013825816E000122EC05F0200E01015E
:102100003925816E000122EC05F0100E01013A25FF
:10211000816E000122EC05F03BC181FF22EC05F04D
:1021200026C13CF15FD419EC09F001012D5307E100
:102130002C5305E12B5303E101502A5D0DE300010F
:1021400019EC09F001012D5307E12C5305E12B5344
:1021500003E12A51015C05E22AC13CF100015EDC89
:102160000101000119EC09F001C089F008C1A6F0D5
:1021700007C1A5F006C1A4F005C1A3F0000E18B870
:10218000010E01013C6F3D6F000151EC0CF0179AFC
:1021900018B8178A120018A202D0189201D018821B
:1021A000F76B54EC07F01200FFC00AF103C10EF107
:1021B00002C10DF101C10CF100C10BF1F0EC05F011
:1021C0001200FBC03DF131EC08F01200F92D27D0D0
:1021D0007F5219E1000E17BC010EFA6F4BEC08F0AC
:1021E00003C0FEF002C0FDF001C0FCF000C0FBF037
:1021F000FAC0FFF003C003F102C002F101C001F117
:1022000000C000F1D1DF7CC0FAF051EC08F003C04F
:102210006BF002C06AF001C069F000C068F0F953C9
:1022200029E17F5219E1000E17BC010EFA6F4BEC49
:1022300008F003C0FEF002C0FDF001C0FCF000C0D9
:10224000FBF0FAC0FFF003C003F102C002F101C0CD
:1022500001F100C000F1A8DF000E17BC010EFA6FFB
:10226000FB6FAFDF03C06BF002C06AF001C069F022
:1022700000C068F0F9C07FF0F9C0FAF035EC06F064
:1022800012007F5204E1010EF96FA0DF02D0F96B5A
:102290009DDF1200020EFD250101026F0A6F01C1D0
:1022A0000EF100C10DF1FFC00CF1FEC00BF10001F9
:1022B000F0EC05F01200210E01013D6F000131EC40
:1022C00008F012007FC0F7F0F96B80DFF75315E1DB
:1022D0004BEC08F003C0FCF002C0FBF001C0FAF0C8
:1022E00000C0F9F07CC0FDF003C001F102C000F1B4
:1022F00001C0FFF000C0FEF0CDDFF72D14D0DBDF12
:1023000003C0FCF002C0FBF001C0FAF000C0F9F01D
:102310007CC0FDF003C001F102C000F101C0FFF07C
:1023200000C0FEF0B7DF7CC0FAF051EC08F003C04B
:102330006BF002C06AF001C069F000C068F0F86B91
:10234000F851010835E31986140E7C24F96F010158
:10235000026980C003F16BC007F16AC006F169C071
:1023600005F168C004F1086F0001FCEC0BF06CECA7
:1023700005F0320E0101036F0001EFEC04F00101E2
:10238000026980C003F16BC007F16AC006F169C041
:1023900005F168C004F17CC008F10001FCEC0BF011
:1023A000960E0101036F0001EFEC04F0F82BC8D783
:1023B000F7C0F9F00BDF120017AA02D0179A01D06C
:1023C000178A000E17BA010EF76FE8CF3DF151ECF6
:1023D0000CF0F76B54EC07F0120017BC16D04BEC66
:1023E00008F003C0FAF002C0F9F001C0F8F000C034
:1023F000F7F0FF6B03C003F102C002F101C001F16D
:1024000000C000F1D1DE178C16D04BEC08F003C0F1
:10241000FAF002C0F9F001C0F8F000C0F7F0010EC8
:10242000FF6F03C003F102C002F101C001F100C05F
:1024300000F1BADE179C000E17BC010EF76FFB6FA0
:10244000C0DE03C06BF002C06AF001C069F000C0DA
:1024500068F0198612007FC0F7F0F96BB7DE7CC018
:10246000FAF051EC08F003C0FCF002C0FBF001C030
:10247000FAF000C0F9F003C000F102C0FFF001C0A3
:10248000FEF000C0FDF059EC06F0000E17BC010E86
:10249000F96F7CC0FAF051EC08F003C0FDF002C007
:1024A000FCF001C0FBF000C0FAF0F9C0FFF003C07F
:1024B00003F102C002F101C001F100C000F174DEBD
:1024C000F86BF851010835E31986140E7C24F96F76
:1024D0000101026980C003F16BC007F16AC006F117
:1024E00069C005F168C004F1086F0001FCEC0BF055
:1024F0006CEC05F0320E0101036F0001EFEC04F00B
:102500000101026980C003F16BC007F16AC006F1E6
:1025100069C005F168C004F17CC008F10001FCEC61
:102520000BF0960E0101036F0001EFEC04F0F82BA5
:10253000C8D7F7C0F9F04ADE12007F5272E19CB3AF
:102540002BD082B621D07E2A7E50090801E27E6A15
:102550007E50040DF350036AF2CFF8F0F29EF7ECD0
:1025600000F00900F5CF01F00900F5CF02F00900F5
:10257000F5CF03F0F8BFF28E03C06BF002C06AF033
:1025800001C069F0686E07D0500E6826C30E69223C
:10259000000E6A226B2245D07C500D0801E37C2A94
:1025A000F76BF75101083CE31986000E17BC010ECA
:1025B000F86F140E7C24F96FF8C002F180C003F1AB
:1025C0006BC007F16AC006F169C005F168C004F18B
:1025D000E8CF08F1FCEC0BF06CEC05F0320E0101D9
:1025E000036F0001EFEC04F0000E17BC010EF86F52
:1025F000E8CF02F180C003F16BC007F16AC006F1B9
:1026000069C005F168C004F17CC008F1FCEC0BF076
:10261000960E0101036F0001EFEC04F0F72BC1D718
:102620009C937F2C2CD09CB309D07C500D0801E3E7
:102630007C2A010EF86F67EC08F021D07E2A7E50CC
:10264000090801E27E6A7E50040DF350036AF2CF5E
:10265000F8F0F29EF7EC00F00900F5CF01F0090068
:10266000F5CF02F00900F5CF03F0F8BFF28E03C0FA
:102670006BF002C06AF001C069F0686E9C937F50F5
:10268000020804E11C501A5C01E21A2A12007F526F
:1026900071E19CB12BD082B621D07E5202E10A0EAC
:1026A0007E6E7E067E50040DF350036AF2CFF8F082
:1026B000F29EF7EC00F00900F5CF01F00900F5CF2C
:1026C00002F00900F5CF03F0F8BFF28E03C06BF003
:1026D00002C06AF001C069F0686E07D0500E685EF3
:1026E000C30E695A000E6A5A6B5A44D07C5201E0FC
:1026F0007C06F76BF75101083CE31986000E17BC06
:10270000010EF86F140E7C24F96FF8C002F180C03E
:1027100003F16BC007F16AC006F169C005F168C03A
:1027200004F1E8CF08F1FCEC0BF06CEC05F0320E94
:102730000101036F0001EFEC04F0000E17BC010E65
:10274000F86FE8CF02F180C003F16BC007F16AC0F7
:1027500006F169C005F168C004F17CC008F1FCEC29
:102760000BF0960E0101036F0001EFEC04F0F72B64
:10277000C1D79C917F2C2BD09CB108D07C5201E01A
:102780007C06010EF86F67EC08F021D07E5202E162
:102790000A0E7E6E7E067E50040DF350036AF2CF61
:1027A000F8F0F29EF7EC00F00900F5CF01F0090017
:1027B000F5CF02F00900F5CF03F0F8BFF28E03C0A9
:1027C0006BF002C06AF001C069F0686E9C917F50A6
:1027D000020804E11A50010801E21A061200230E51
:1027E00001010A6FFAC00EF1F9C00DF1F8C00CF149
:1027F000F7C00BF10001F0EC05F0120018A402D0B4
:1028000018940AD018846BC0FAF06AC0F9F069C055
:10281000F8F068C0F7F0E3DFF76B54EC07F0120054
:102820007FC0F7F07CC0FAF051EC08F003C0FCF078
:1028300002C0FBF001C0FAF000C0F9F003C000F1E3
:1028400002C0FFF001C0FEF000C0FDF067EC06F032
:10285000000E17BC010EF96F4BEC08F003C0FDF041
:1028600002C0FCF001C0FBF000C0FAF0F9C0FFF0BC
:1028700003C003F102C002F101C001F100C000F188
:1028800093DC19DD03C0FCF002C0FBF001C0FAF0DC
:1028900000C0F9F07CC0FDF003C001F102C000F1FE
:1028A00001C0FFF000C0FEF0F5DCF96B8FDC7CC0EE
:1028B000FAF051EC08F003C0FCF002C0FBF001C0DC
:1028C000FAF000C0F9F003C000F102C0FFF001C04F
:1028D000FEF000C0FDF059EC06F0000E17BC010E32
:1028E000F96FFB6F6EDC03C0FCF002C0FBF001C0AF
:1028F000FAF000C0F9F003C000F102C0FFF001C01F
:10290000FEF000C0FDF067EC06F0000E17BC010EF3
:10291000F96F4BEC08F003C0FDF002C0FCF001C001
:10292000FBF000C0FAF0F9C0FFF003C003F102C0F1
:1029300002F101C001F100C000F136DCBCDC03C0D3
:10294000FCF002C0FBF001C0FAF000C0F9F07CC05E
:10295000FDF003C001F102C000F101C0FFF000C0B2
:10296000FEF098DCF86BF851010835E31986140E77
:102970007C24F96F0101026980C003F16BC007F18B
:102980006AC006F169C005F168C004F1086F000172
:10299000FCEC0BF06CEC05F0320E0101036F000152
:1029A000EFEC04F00101026980C003F16BC007F194
:1029B0006AC006F169C005F168C004F17CC008F185
:1029C0000001FCEC0BF0960E0101036F0001EFEC2F
:1029D00004F0F82BC8D7F7C0F9F0E6EC10F01200BD
:1029E000F75311E10F0E0101236F246F256F266F3E
:1029F000080E276F286B0C0E296F0F0E2A6F2B6F96
:102A0000000160EC09F0F72D11D00F0E0101236FCA
:102A1000246F256F266F040E276F286B0C0E296F0D
:102A20000F0E2A6F2B6F000160EC09F0F7510208BE
:102A300011E10F0E0101236F246F256F266F276FA1
:102A40000C0E286F0E0E296F0F0E2A6F2B6F0001D0
:102A500060EC09F0F751030810E10F0E0101236F3C
:102A6000246F256F266F276F286F0B0E296F0F0EAF
:102A70002A6F2B6F000160EC09F0F751040814E194
:102A80000F0E0101236F246F0A0E256F010E266FB2
:102A9000276F0F0E286F0C0E296F0B0E2A6F0F0E6B
:102AA0002B6F000160EC09F0F751050812E10F0EE1
:102AB0000101236F246F0D0E256F010E266F0A0E84
:102AC000276F0F0E286F296B2A6F2B6F000160ECA8
:102AD00009F0F751060814E10F0E0101236F246F6E
:102AE0000D0E256F010E266F0A0E276F0F0E286F31
:102AF000010E296F0F0E2A6F2B6F000160EC09F099
:102B0000F751070814E10F0E0101236F246F0D0E1A
:102B1000256F010E266F0A0E276F0F0E286F020E0B
:102B2000296F0F0E2A6F2B6F000160EC09F0020E67
:102B3000F86FFA0E0101036F0001EFEC04F0F82FBB
:102B4000F8D712007F5002081FE11B5203E1010E6B
:102B50001B6E01D01B6A1B5203E1020EF76F40DFB0
:102B60001B2C03D0030EF76F3BDF198601010D69A3
:102B70000E69126B116B106B1AC00FF11369020E04
:102B8000146F000193EC09F012000F0E0101236F86
:102B9000246F256F266F276F286F296F2A6F2B6F81
:102BA000000160EC09F040EF17F00101016B00013A
:102BB000A72BA7510F0805E3010101C101F00BD1BB
:102BC0000001A76B809882A4F1D082B4FED70101E6
:102BD000026B84928494809A848000D000D000009C
:102BE00082A413D082A40DD0022B640E036F0001C7
:102BF000EFEC04F0010102511D0802E2198201D03C
:102C0000F1D71886010E016FDDD082A213D082A207
:102C10000DD0022B640E036F0001EFEC04F00101F4
:102C20000251090802E2198201D0F1D71886020E7A
:102C3000016FC8D082A013D082A00DD0022B640EE9
:102C4000036F0001EFEC04F001010251090802E2F8
:102C5000198201D0F1D71886030E016FB3D084908A
:102C6000848200D000D0000082A413D082A40DD0B2
:102C7000022B640E036F0001EFEC04F0010102511E
:102C80001D0802E2198201D0F1D71886040E016FE7
:102C900099D082A213D082A20DD0022B640E036FB2
:102CA0000001EFEC04F0010102511D0802E219825B
:102CB00001D0F1D71886050E016F84D082A013D001
:102CC00082A00DD0022B640E036F0001EFEC04F024
:102CD000010102511D0802E2198201D0F1D71886C4
:102CE000060E016F6FD08492848400D000D0000063
:102CF00082A413D082A40DD0022B640E036F0001B6
:102D0000EFEC04F0010102511D0802E2198201D02A
:102D1000F1D71886070E016F55D082A213D082A278
:102D20000DD0022B640E036F0001EFEC04F00101E3
:102D300002511D0802E2198201D0F1D71886080E4F
:102D4000016F40D082A013D082A00DD0022B640E60
:102D5000036F0001EFEC04F0010102511D0802E2D3
:102D6000198201D0F1D71886090E016F2BD08494F7
:102D7000808A00D000D0000082A213D082A20DD0A1
:102D8000022B640E036F0001EFEC04F0010102510D
:102D90001D0802E2198201D0F1D718860B0E016FCF
:102DA00011D0849484928490809A000183A009D0E9
:102DB0006CEC05F083B0FED718AC02D0189C01D0A3
:102DC000188C0101015305E019A203D01992140EC9
:102DD000012701C101F00001120018AE11D0150E3B
:102DE0007D240101096F0A6F08C10EF107C10DF1C1
:102DF00006C10CF105C10BF10001F0EC05F00ED09D
:102E0000140E01010A6F08C10EF107C10DF106C1D0
:102E10000CF105C10BF10001F0EC05F01200198472
:102E200068EC0CF003C0FAF002C0F9F001C0F8F051
:102E300000C0F7F0FA530DE1F9510E0814E2FF0A51
:102E400008E1F85141080FE2FF0A03E1F7513F089A
:102E50000AE2400EF75F420EF85B0F0EF95B000EC0
:102E6000FA5B188A01D0189A010EFB6FFC6B6BC0DD
:102E700000F16AC0FFF069C0FEF068C0FDF085D6C1
:102E8000FB2D5FD0F75306E1F85304E1F95302E15B
:102E9000FA533EE018AA1ED0F751685CFD6FF85156
:102EA0006958FE6FF9516A58FF6FFA516B5801016A
:102EB000006F0D690E69FAC012F1F9C011F1F8C086
:102EC00010F1F7C00FF11369030E146F000193ECBA
:102ED00009F01DD0F7516824FD6FF8516920FE6F8D
:102EE000F9516A20FF6FFA516B200101006F0D69E3
:102EF0000E69FAC012F1F9C011F1F8C010F1F7C073
:102F00000FF11369040E146F000193EC09F00ED059
:102F100001010D690E69126B116B106B010E0F6FC1
:102F20001369050E146F000193EC09F000C104F160
:102F3000FFC003F1FEC002F1FDC001F119EC0DF07C
:102F4000FB6B19EC09F001C088F0000E18BA010EF5
:102F50000101016F01C102F100018951885D32E078
:102F6000179682B817860101025314E117A609D0FB
:102F7000010E0001F727000EF823F923FA2308D0E9
:102F80000101010E0001F75F000EF85BF95BFA5BCF
:102F900013D0010117A609D0010E0001F75F000E42
:102FA000F85BF95BFA5B08D00101010E0001F7271D
:102FB000000EF823F923FA2388C089F0010E016E70
:102FC00003D002D0000E016E015202E0010EFB6F31
:102FD000F73D10D0F83D0ED0F93D0CD0FA3D0AD0A7
:102FE000FA6BF96BF86B010EF76F18BA02D0188AFA
:102FF00001D0189AFA530AE1F95308E1F85102088E
:103000000BE2FF0A03E1F751E60806E2FA6BF96BFF
:10301000030EF86FE70EF76FC8DD01C0FCF0FC2D62
:1030200021D001010D690E696BC012F16AC011F166
:1030300069C010F168C00FF11369146B000193ECC3
:1030400009F0040E0101016FFA0E036F0001EFECAD
:1030500004F00101012FF8D70001FC6B010EFB6F9A
:103060000FD73BD0FC51060809E10101086B076B43
:10307000066B056B0001B1DE31D02FD0FC51150875
:103080002CE118AA1CD0400EF7250101016F420E59
:103090000001F8210101026F0F0E0001F921010169
:1030A000036F000E0001FA210101046F086F03C1D4
:1030B00007F102C106F101C105F100018EDE18BA67
:1030C00009D0FAC008F1F9C007F1F8C006F1F7C05D
:1030D00005F183DE1994198601D0D2D6000E17BCF3
:1030E000010E0101016F026F80C003F16BC007F197
:1030F0006AC006F169C005F168C004F17CC008F13E
:103100000001FCEC0BF0BDEF19F0F86BF751F85D26
:103110000AE26CEC05F0C80E0101036F0001EFEC50
:1031200004F0F82BF3D7120018AE05D0189E020E4B
:10313000F76FEBDF04D0188E030EF76FE6DF36EF84
:103140001AF01F0EFB6FFC6902EC06F0EBEF19F0B2
:10315000812B8151010801E2816B815303E1050E4E
:10316000F76F3EDC812D03D0060EF76F39DC8151FD
:10317000020803E1070EF76F33DC1986010EF76FC3
:10318000C4DF05EF1AF019AE02D0199E01D0198ED6
:10319000010EF76FBADF0CEF1AF0040EFB6FF7C0E9
:1031A000FCF002EC06F0E3EF18F0040EF76F72EC9F
:1031B00005F00150F7EF18F07F5202E07F2C13D09A
:1031C0007FC0F7F0EAD7020E7F6E01010D690E692C
:1031D000126B116B106B1AC00FF11369146F0001A1
:1031E00093EC09F01ED07F50020803E1DED701C046
:1031F0007FF07FC0F8F067EC08F0000E17BC010EFE
:10320000F76FE8CF02F180C003F16BC007F16AC02D
:1032100006F169C005F168C004F17CC008F1FCEC5E
:103220000BF01200000E17BC010EF76FF86F2FECB9
:1032300006F07CC0F7F03BEC06F01AC0F7F08CEC1F
:1032400006F01BC0F7F092EC06F07FC0FAF035EC08
:1032500006F080C0F7F04DEC06F081C0F7F047ECC7
:1032600006F0000E19BE010EF76FF86F41EC06F084
:10327000000E18BE010EF76FF86F53EC06F037EF33
:103280001AF0F55303E1000E016E01D11986F52DF8
:1032900024D06CEC05F07F50020803E0FEEC13F044
:1032A0001BD0198601010D690E696BC012F16AC04D
:1032B00011F169C010F168C00FF11369146B0001BE
:1032C00093EC09F0040EF76FFA0E0101036F000191
:1032D000EFEC04F0F72FF8D7C9D0F551020805E15B
:1032E0006CEC05F047EC13F0C1D0F551030805E193
:1032F0006CEC05F09DEC12F0B9D0F551040803E137
:103300002BEC12F0B3D0F551050805E16CEC05F09B
:10331000EDEC11F0ABD0F551060805E16CEC05F0D1
:10332000DCEC11F0A3D0F551070803E162EC11F0D9
:103330009DD0F551080805E16CEC05F041EC11F069
:1033400095D0F55109080DE17F50020805E06CECBD
:1033500005F0CBEC10F004D06CEC05F0A2EC15F00D
:1033600085D0F5510B0803E110EC14F07FD0F55136
:10337000150804E16CEC05F052D578D0F5511F0822
:1033800002E1D2D673D0F551190827E1F66BF65356
:103390001CE1808280848086806A816A826A836A76
:1033A000320E0101036F0001EFEC04F08092809473
:1033B0008096806A816A826A836A320E0101036F95
:1033C0000001EFEC04F0F62BE2D701013C6B0001A9
:1033D0000EEC0DF0B6D6FF0049D0F551160806E107
:1033E0006CEC05F09C8147EC13F040D0F5511708C8
:1033F00006E16CEC05F09C839DEC12F037D0F551A2
:10340000180804E16CEC05F0A3D630D0F5511A0889
:1034100004E16CEC05F0B7D629D0F5511C0806E1A3
:1034200017A803D06CEC05F0C7DE20D0F5511D08BD
:103430001DE117A81BD06CEC05F0040EF76FF0EC43
:1034400014F0198601010D690E69126B116B106B76
:103450001AC00FF11369020E146F000193EC09F00A
:10346000020E1B6E1BC0F7F092EC06F0DBD619863D
:10347000809884808482848482B403D082B201D014
:1034800082B0FAD7849084928494F5C001F012003F
:10349000D139006E0F0E001600500F0BD46FD56B94
:1034A000D66BD76BD1510F0BD86FD96BDA6BDB6B47
:1034B000D039006E0F0E001600500F0BDC6FDD6B65
:1034C000DE6BDF6BD0510F0BE06FE16BE26BE36BF8
:1034D000CF39006E0F0E001600500F0BE46FE56B36
:1034E000E66BE76BCF510F0BE86FE96BEA6BEB6BA9
:1034F000CE39006E0F0E001600500F0BEC6FED6B07
:10350000EE6BEF6BCE510F0BF06FF16BF26BF36B59
:10351000D251010A28E0030A2BE0010A2EE0070A33
:1035200031E0010A34E0030A37E0010A3AE00F0A09
:103530003DE0010A40E0030A43E0010AD8B4E9D0C3
:10354000040AD8B4EBD0F30AD8B491D1020AD8B4A3
:1035500090D1010AD8B491D1020AD8B490D1060A08
:10356000D8B490D1B9D2CBEC10F06CEC05F0B4D259
:1035700041EC11F06CEC05F0AFD262EC11F06CECA8
:1035800005F0AAD2DCEC11F06CEC05F0A5D2EDEC64
:1035900011F06CEC05F0A0D22BEC12F06CEC05F005
:1035A0009BD29DEC12F06CEC05F096D247EC13F038
:1035B0006CEC05F091D2FEEC13F06CEC05F08CD2C3
:1035C000DBC043F1DAC042F1D9C041F1D8C040F1CB
:1035D0000101476B0F0E466F420E456F400E446F60
:1035E0000001C5EC0CF003C0F8F002C0F7F001C018
:1035F000F6F000C0F5F0DFC043F1DEC042F1DDC0FF
:1036000041F1DCC040F10101476B010E466F860EAF
:10361000456FA00E446F0001C5EC0CF00050F5277B
:103620000150F6230250F7230350F823E3C043F17F
:10363000E2C042F1E1C041F1E0C040F10101476B5D
:10364000466B270E456F100E446F0001C5EC0CF061
:103650000050F5270150F6230250F7230350F823BA
:10366000E7C043F1E6C042F1E5C041F1E4C040F1FA
:103670000101476B466B030E456FE80E446F000176
:10368000C5EC0CF00050F5270150F6230250F7234B
:103690000350F823EBC043F1EAC042F1E9C041F125
:1036A000E8C040F10101476B466B456B640E446F07
:1036B0000001C5EC0CF00050F5270150F623025034
:1036C000F7230350F823EFC043F1EEC042F1EDC001
:1036D00041F1ECC040F10101476B466B456B0A0EAE
:1036E000446F0001C5EC0CF00050F5270150F623A3
:1036F0000250F7230350F823F051F525686EF1517D
:10370000F621696EF251F7216A6EF351F8216B6E62
:10371000E3D110EC14F06CEC05F0DED1EFC043F116
:10372000EEC042F1EDC041F1ECC040F10101476B48
:103730000F0E466F420E456F400E446F0001C5EC00
:103740000CF003C0F8F002C0F7F001C0F6F000C0C2
:10375000F5F0F3C043F1F2C042F1F1C041F1F0C025
:1037600040F10101476B010E466F860E456FA00EBA
:10377000446F0001C5EC0CF00050F5270150F62312
:103780000250F7230350F823E7C043F1E6C042F1AB
:10379000E5C041F1E4C040F10101476B466B270EE3
:1037A000456F100E446F0001C5EC0CF00050F5277A
:1037B0000150F6230250F7230350F823EBC043F1E6
:1037C000EAC042F1E9C041F1E8C040F10101476BB4
:1037D000466B030E456FE80E446F0001C5EC0CF01C
:1037E0000050F5270150F6230250F7230350F82329
:1037F000DFC043F1DEC042F1DDC041F1DCC040F189
:103800000101476B466B456B640E446F0001C5ECCC
:103810000CF00050F5270150F6230250F723035017
:10382000F823E3C043F1E2C042F1E1C041F1E0C05E
:1038300040F10101476B466B456B0A0E446F000176
:10384000C5EC0CF00050F5270150F6230250F72389
:103850000350F823D451F525686ED551F621696ED1
:10386000D651F7216A6ED751F8216B6E35D1178882
:1038700033D1190EF56F05DD2FD1FF002DD117B80B
:103880009BDC2AD1F46BEC35F56FED35F66FEE3538
:10389000F76FEF35F86FF537F637F737F837F53755
:1038A000F637F737F837F537F637F737F837F00EDA
:1038B000F517F051F527F151F623F251F723F351A3
:1038C000F823F55306E1F65304E1F75302E1F85308
:1038D00023E0EC35F56FED35F66FEE35F76FEF352C
:1038E000F86FF537F637F737F837F537F637F73734
:1038F000F837F537F637F737F837F00EF517F05198
:10390000F527F151F623F251F723F351F823F5C0CF
:10391000F9F075EC06F0F42BE435F56FE535F66F4C
:10392000E635F76FE735F86FF537F637F737F837DD
:10393000F537F637F737F837F537F637F737F8371B
:10394000F00EF517E851F527E951F623EA51F72370
:10395000EB51F823F55306E1F65304E1F75302E186
:10396000F85323E0E435F56FE535F66FE635F76F8C
:10397000E735F86FF537F637F737F837F537F637B5
:10398000F737F837F537F637F737F837F00EF5171A
:10399000E851F527E951F623EA51F723EB51F823D3
:1039A000F5C0F9F07BEC06F0F42BDC35F56FDD3576
:1039B000F66FDE35F76FDF35F86FF537F637F73727
:1039C000F837F537F637F737F837F537F637F7378B
:1039D000F837F00EF517E051F527E151F623E251E3
:1039E000F723E351F823F55306E1F65304E1F753C7
:1039F00002E1F85323E0DC35F56FDD35F66FDE3597
:103A0000F76FDF35F86FF537F637F737F837F537F3
:103A1000F637F737F837F537F637F737F837F00E68
:103A2000F517E051F527E151F623E251F723E35171
:103A3000F823F5C0F9F081EC06F0F42BD435F56FDE
:103A4000D535F66FD635F76FD735F86FF537F637CA
:103A5000F737F837F537F637F737F837F537F637FA
:103A6000F737F837F00EF517D851F527D951F62367
:103A7000DA51F723DB51F823F55306E1F65304E15D
:103A8000F75302E1F85323E0D435F56FD535F66FDF
:103A9000D635F76FD735F86FF537F637F737F8378C
:103AA000F537F637F737F837F537F637F737F837AA
:103AB000F00EF517D851F527D951F623DA51F7232F
:103AC000DB51F823F5C0F9F087EC06F0F42BF4C0D5
:103AD000F7F085EC18F0FF00D251DF08D8B0BBD06A
:103AE000D251EE08D8A0B7D0E00ED25DF56FDBC0A2
:103AF00043F1DAC042F1D9C041F1D8C040F101012F
:103B0000476B0F0E466F420E456F400E446F00012B
:103B1000C5EC0CF003C0F9F002C0F8F001C0F7F0FA
:103B200000C0F6F0DFC043F1DEC042F1DDC041F17C
:103B3000DCC040F10101476B010E466F860E456FF8
:103B4000A00E446F0001C5EC0CF00050F6270150A8
:103B5000F7230250F8230350F923E3C043F1E2C0F6
:103B600042F1E1C041F1E0C040F10101476B466B19
:103B7000270E456F100E446F0001C5EC0CF000508D
:103B8000F6270150F7230250F8230350F923E7C02A
:103B900043F1E6C042F1E5C041F1E4C040F101016A
:103BA000476B466B030E456FE80E446F0001C5EC92
:103BB0000CF00050F6270150F7230250F823035071
:103BC000F923EBC043F1EAC042F1E9C041F1E8C09A
:103BD00040F10101476B466B456B640E446F000179
:103BE000C5EC0CF00050F6270150F7230250F823E3
:103BF0000350F923EFC043F1EEC042F1EDC041F1B3
:103C0000ECC040F10101476B466B456B0A0E446FF7
:103C10000001C5EC0CF00050F6270150F7230250CC
:103C2000F8230350F923F051F627F151F723F2510D
:103C3000F823F351F923F5C0FDF0F9C001F1F8C004
:103C400000F1F7C0FFF0F6C0FEF04AEC11F0030EF1
:103C5000F76F85EC18F019866AEF26F0BD2BBD5181
:103C60000F0803E3000E016EE7D1BD6BD06B83B28A
:103C700005D082BA03D0010ED06F1DD083B205D01B
:103C800082BC03D0050ED06F16D083A207D082AAC3
:103C900005D082AC03D0090ED06F0DD083A205D021
:103CA00082BA03D00D0ED06F06D083A204D082BC9E
:103CB00002D00E0ED06FD05305E1BF6BBE6B000E6D
:103CC000016EBAD11986D02D35D083B233D082BAE5
:103CD00031D0BF5101080DE303E1BE51F30809E300
:103CE000BE2BD8B4BF2B050E0101036F0001EFEC12
:103CF00004F0BF51000809E2FF0A03E1BE51F208D7
:103D000004E2040ED06F16D014D0BF51000809E2AF
:103D1000FF0A03E1BE512B0804E2030ED06F0AD064
:103D200008D0BF5303E1BE51630803E2020ED06F17
:103D300001D0CBD7D051050835E183B233D082BC56
:103D400031D0BF5101080DE303E1BE51F30809E38F
:103D5000BE2BD8B4BF2B050E0101036F0001EFECA1
:103D600004F0BF51000809E2FF0A03E1BE51F20866
:103D700004E2080ED06F16D014D0BF51000809E23B
:103D8000FF0A03E1BE512B0804E2070ED06F0AD0F0
:103D900008D0BF5303E1BE51630803E2060ED06FA3
:103DA00001D0CBD7D051090832E183A230D082AA0A
:103DB0002ED082AC2CD0BF5102080DE303E1BE51DE
:103DC000EE0809E3BE2BD8B4BF2B050E0101036F2B
:103DD0000001EFEC04F0BE51EE0807E1BF5102080C
:103DE00004E10C0ED06F13D011D0BE51F40806E1DF
:103DF000BF2D04D00B0ED06F0AD008D0BE51FA08E8
:103E000005E1BF5303E10A0ED06F01D0CED7D02D0C
:103E100001D006D0D051050803E0D051090806E1D1
:103E2000BF5303E1BE51630801E2D06B7F52D8A4B7
:103E30008BD0D02D1FD0CE2D10D0CF530EE1010E40
:103E40006826000E69226A226B22BF6BBE6B6CEC87
:103E500005F0010E016EF0D00DD084516826000EE1
:103E600069226A226B22BF6BBE6B6CEC05F0010EFF
:103E7000016EE2D0D051020806E184516826000E9E
:103E800069226A226B22D051030806E18451682618
:103E9000000E69226A226B22D051040806E1845187
:103EA0006826000E69226A226B22D0510D0806E1B5
:103EB000640E6826000E69226A226B22D051050822
:103EC0001FE1CE2D10D0CF530EE1010E685E000E23
:103ED000695A6A5A6B5ABF6BBE6B6CEC05F0010EE7
:103EE000016EAAD00DD08451685E000E695A6A5ADC
:103EF0006B5ABF6BBE6B6CEC05F0010E016E9CD073
:103F0000D051060806E18451685E000E695A6A5A6B
:103F10006B5AD051070806E18451685E000E695A59
:103F20006A5A6B5AD051080806E18451685E000E47
:103F3000695A6A5A6B5AD0510E0806E1640E685EDF
:103F4000000E695A6A5A6B5A7F2C01D003D07F50F9
:103F500002082FE1D02D06D0BF6BBE6B6CEC05F0D4
:103F60009DEC12F0D0510208D8B49DEC12F0D05163
:103F70000308D8B49DEC12F0D0510408D8B49DECDD
:103F800012F0D051050806E1BF6BBE6B6CEC05F07A
:103F900047EC13F0D0510608D8B447EC13F0D051D9
:103FA0000708D8B447EC13F0D0510808D8B447EC50
:103FB00013F0D05109080FE1010EF76F85EC18F0EE
:103FC0007F5202E19DEC12F017A805D07F50020845
:103FD000D8B4A2EC15F0D0510A081EE1020EF76F1A
:103FE00085EC18F07F5205E141EC11F0D0C001F0F2
:103FF00023D017A811D07F2C05D0DCEC18F0D0C04E
:1040000001F01AD07F50020807E1DCEC18F041EC17
:1040100011F0D0C001F010D0D0510B0804E1030E14
:10402000F76F85EC18F0D0510C0804E1040EF76F1F
:1040300085EC18F0D0C001F01200D02D03D08084A0
:1040400080828096D05303E1809280948096120003
:10405000220E01010A6FD3C00EF1D2C00DF1D1C002
:104060000CF1D0C00BF10001F0EC05F022EF21F0D3
:10407000230E01013D6F000131EC08F023EF21F028
:10408000220E01013D6F000131EC08F03BEF21F001
:1040900019B606D0C02BC0517708D8B0F6D0C06B87
:1040A000CE6B17B867D083A65FD019B85CD0CF6B42
:1040B000CF51090850E3D890CF35040DF350036A6F
:1040C000F2CFD0F0F29E86EC01F0006E0900F5CF41
:1040D00001F00900F5CF02F00900F5CF03F0D0BFE1
:1040E000F28E03506B5C35E30BE102506A5C31E306
:1040F00007E10150695C2DE303E10050685C29E3AE
:10410000D890CF35010F040DF350036AF2CFD0F0F1
:10411000F29E86EC01F0006E0900F5CF01F0090077
:10412000F5CF02F00900F5CF03F0D0BFF28E6B504F
:10413000035C0FE30BE16A50025C0BE307E169509B
:10414000015C07E303E16850005C03E3010ECE6FFE
:1041500002D0CF2BADD7CE5305E1010ED06F6DDF6E
:104160006CEC05F0198805D019A803D0D06B65DF79
:10417000199802D0010ECE6F18A255D083A62AD06E
:1041800019BA27D0000E17BC010ED06FFF6F6BC09D
:1041900003F16AC002F169C001F168C000F1D4EC1A
:1041A00010F017BC02D0178C03D017AC01D0179CAD
:1041B000000E17BC010ED06FFB6FE1EC10F003C0D6
:1041C0006BF002C06AF001C069F000C068F0198AA3
:1041D000198629D019AA27D0000E17BC010ED06F5E
:1041E000FF6F6BC003F16AC002F169C001F168C0E2
:1041F00000F1D4EC10F017BC02D0178C03D017AC30
:1042000001D0179C000E17BC010ED06FFB6FE1ECC4
:1042100010F003C06BF002C06AF001C069F000C08A
:1042200068F0199A198618A430D083A617D019BC43
:1042300014D06BC0D3F06AC0D2F069C0D1F068C0AE
:10424000D0F006D715D703C06BF002C06AF001C0EA
:1042500069F000C068F0198C198617D019AC15D018
:104260006BC0FAF06AC0F9F069C0F8F068C0F7F006
:10427000EFEC13F005D703C06BF002C06AF001C089
:1042800069F000C068F0199C19868DEF26F0DF9167
:10429000DF93DF95DB51D75D0FE1DC51D85D0CE199
:1042A000DD51D95D09E1DE51DA5D06E1020EF76FFD
:1042B00085EC18F0189C49D1DA51DE5D1EE30BE164
:1042C000D951DD5D1AE307E1D851DC5D16E303E166
:1042D000DB51D75D12E2DF85DAC0E7F0D9C0E6F046
:1042E000D8C0E5F0D7C0E4F0DEC0E3F0DDC0E2F016
:1042F000DCC0E1F0DBC0E0F011D0DF95DEC0E7F01C
:10430000DDC0E6F0DCC0E5F0DBC0E4F0DAC0E3F0ED
:10431000D9C0E2F0D8C0E1F0D7C0E0F0000E17BC81
:10432000010EF26FFB6FE1EC10F003C0EBF002C086
:10433000EAF001C0E9F000C0E8F0DFB171D01996F1
:10434000F02BD8B4F12BF1510E080CE2FF0A03E177
:10435000F051A00807E2DFA302D0DF9301D0DF8392
:10436000F16BF06BDFA312D0010E01010D6F0E692E
:10437000EBC012F1EAC011F1E9C010F1E8C00FF191
:104380001369146B000193EC09F011D00C0E0101BC
:104390000D6F0E69EBC012F1EAC011F1E9C010F126
:1043A000E8C00FF11369146B000193EC09F0EBC046
:1043B00004F1EAC003F1E9C002F1E8C001F119EC2F
:1043C0000DF0EC2BD8B4ED2BED5303E1EC5131089B
:1043D00011E2DFA507D00A0EE827000EE923EA2341
:1043E000EB2306D00A0EE85F000EE95BEA5BEB5BAD
:1043F000ED6BEC6B83A412D0198601010D690E6977
:10440000EBC012F1EAC011F1E9C010F1E8C00FF100
:104410001369146B000193EC09F0DF8183B07CD049
:10442000DFA148D083A435D0198680B02FD080A0DA
:10443000FED782B808D00A0EE85F000EE95BEA5B9F
:10444000EB5BDF9509D082A807D00A0EE827000EA3
:10445000E923EA23EB23DF8501010D690E69EBC037
:1044600012F1EAC011F1E9C010F1E8C00FF11369CF
:10447000146B000193EC09F0EBC004F1EAC003F106
:10448000E9C002F1E8C001F119EC0DF083B001D0F0
:10449000C9D70A0E0101036F0001EFEC04F0EE2B07
:1044A000D8B4EF2BEF5303E1EE51C80803E2DF91DC
:1044B000EF6BEE6BEB51E75D15E30BE1EA51E65D67
:1044C00011E307E1E951E55D0DE303E1E451E85D46
:1044D00009E2E3C0EBF0E2C0EAF0E1C0E9F0E0C0DD
:1044E000E8F017D0E351EB5D14E30BE1E251EA5D34
:1044F00010E307E1E151E95D0CE303E1E851E05D20
:1045000008E2E7C0EBF0E6C0EAF0E5C0E9F0E4C09D
:10451000E8F083B001D011D783A417D0EBC06BF0C3
:10452000EAC06AF0E9C069F0E8C068F0000E17BCA4
:10453000010EF26FFF6F6BC003F16AC002F169C038
:1045400001F168C000F1D4EC10F0120019EC09F090
:1045500001C0DEF0DE51BC5D06E0DEC0BCF0010E45
:10456000016E03D002D0000E016E1200D36B0E0E4E
:10457000D46FD591D5B168D07CC0FAF051EC08F079
:1045800003C0D2F002C0D1F001C0D0F000C0CFF023
:10459000D75303E1D6510A0809E2D76BD66BD45141
:1045A0007C5C02E27C2A02D0D3C07CF01986DA2B34
:1045B000D8B4DB2BDB5303E1DA51280807E2D5A39B
:1045C00002D0D59301D0D583DB6BDA6BD5A312D0A3
:1045D00001010D690E69D2C012F1D1C011F1D0C034
:1045E00010F1CFC00FF17CC013F1146B000193ECFC
:1045F00009F012D0020E01010D6F0E69D2C012F146
:10460000D1C011F1D0C010F1CFC00FF17CC013F1B7
:10461000146B000193EC09F0D2C004F1D1C003F196
:10462000D0C002F1CFC001F119EC0DF083B03CD045
:1046300083A401D0D581010E0101036F0001EFECCD
:1046400004F0D62BD8B4D72BD5A12DD0020E010162
:104650000D6F0E69D2C012F1D1C011F1D0C010F1AE
:10466000CFC00FF17CC013F1146B000193EC09F083
:104670000A0E0101036F0001EFEC04F067DF015245
:1046800001E0D591D82BD8B4D92BD95303E1D85117
:10469000960807E2D96BD86B83A402D0D58101D0EC
:1046A000D59183B001D066D74BEF25F01AC0CFF07B
:1046B000D06B1B520CE1CF5303E0CF51270801E22E
:1046C000CF6B270ED26FD16B010ECF25D06F1B2C75
:1046D0000FD0CF51270803E2CF514F0802E2280E36
:1046E000CF6F4F0ED26F280ED16F270ECF5DD06FD8
:1046F0001B5002080CE1CF5303E0CF514F0801E2F9
:10470000CF6B4F0ED26FD16B010ECF25D06FD393ED
:10471000D3B388D0FC6BCFC0FBF0FE6B040EFD6FF3
:1047200058EC08F002C003F00150F2CFDEF0F29E28
:1047300002C0F7FF4BEC00F00900F5CF01F00900D3
:10474000F5CF02F00900F5CF03F0DEBFF28E03C013
:10475000D7F002C0D6F001C0D5F0D46F1B5203E0F1
:104760001B50020804E1010ECF25D06F03D0270EA5
:10477000CF5DD06F1986DC2BD8B4DD2BDD5303E180
:10478000DC51280807E2D3A102D0D39101D0D38114
:10479000DD6BDC6BD3A10FD001010D690E69126BCB
:1047A000116B106BD0C00FF11369020E146F000172
:1047B00093EC09F00ED0020E01010D6F0E69126B21
:1047C000116B106BD0C00FF11369146F000193ECE3
:1047D00009F0D7C004F1D6C003F1D5C002F1D4C0AE
:1047E00001F119EC0DF0D95306E1D851010803E3AA
:1047F000ADDE015209E0D96BD86BD251CF5D02E238
:10480000CF2B02D0D1C0CFF083B038D083A401D059
:10481000D383010E0101036F0001EFEC04F0D82BEC
:10482000D8B4D92BD3A329D091DE015201E0D39380
:10483000020E01010D6F0E69126B116B106BD0C06F
:104840000FF11369146F000193EC09F00A0E0101D6
:10485000036F0001EFEC04F0DA2BD8B4DB2BDB5351
:1048600003E1DA51960807E2DB6BDA6B83A402D02E
:10487000D38301D0D39383B001D04AD783A402D08D
:10488000D0C01AF052EF25F07F5202E1010ECE6F38
:104890007F2C02D0020ECE6F7F50020802E1030E81
:1048A000CE6F82A602D0030ECE27CE2D49D07E50E9
:1048B000040DF350036AF2CFCFF0F29EF7EC00F054
:1048C000006E0900F5CF01F00900F5CF02F00900F4
:1048D000F5CF03F0CFBFF28E03C0D2F002C0D1F00B
:1048E00001C0D0F0CF6F010E7E24040DF350036A97
:1048F000F2CFD3F0F29EF7EC00F0006E0900F5CF96
:1049000001F00900F5CF02F00900F5CF03F0D3BFA5
:10491000F28E03C0D6F002C0D5F001C0D4F0D36F40
:10492000D2C0DAF0D1C0D9F0D0C0D8F0CFC0D7F023
:1049300003C0DEF002C0DDF001C0DCF0DB6FA7DCFD
:10494000CE510208D8A457D07C500D082CE37CC06F
:10495000FAF051EC08F003C0D2F002C0D1F001C06F
:10496000D0F000C0CFF0010E7C24D36FFA6F51EC71
:1049700008F003C0D6F002C0D5F001C0D4F000C0EA
:10498000D3F0D2C0DAF0D1C0D9F0D0C0D8F0CFC0C7
:10499000D7F003C0DEF002C0DDF001C0DCF000C0E3
:1049A000DBF075DC28D07CC0FAF051EC08F003C0D5
:1049B000D2F002C0D1F001C0D0F000C0CFF0FA6B4D
:1049C00051EC08F003C0D6F002C0D5F001C0D4F01D
:1049D00000C0D3F0D2C0DAF0D1C0D9F0D0C0D8F046
:1049E000CFC0D7F003C0DEF002C0DDF001C0DCF0C4
:1049F00000C0DBF04CDCCE51040848E17E50040DD1
:104A0000F350036AF2CFCFF0F29EF7EC00F0006EA5
:104A10000900F5CF01F00900F5CF02F00900F5CF4C
:104A200003F0CFBFF28E03C0D2F002C0D1F001C0BC
:104A3000D0F0CF6F7E50040DF350036AF2CFD3F065
:104A4000F29E1AEC01F0006E0900F5CF01F00900AA
:104A5000F5CF02F00900F5CF03F0D3BFF28E03C00B
:104A6000D6F002C0D5F001C0D4F0D36FD2C0DAF0D6
:104A7000D1C0D9F0D0C0D8F0CFC0D7F003C0DEF09D
:104A800002C0DDF001C0DCF0DB6F01DCCE510508B7
:104A9000D8A401D06BD5CE51030803E0CE5106084F
:104AA000D8B404D6CE6B189C6CEC05F083A001D072
:104AB000FDD78FEF26F07F5202E07F2C2FD06B5274
:104AC00010E16A520EE16950C3080BE303E168503C
:104AD0004F0807E36B6A2D0E6A6EC60E696EC00E34
:104AE000686E6B520DE16A502C0810E2FF0A08E173
:104AF0006950C5080BE2FF0A03E16850C00806E2EE
:104B00006B6A6A6AC30E696E500E686E7C500E083E
:104B100002E20E0E7C6E7C5201E17C6A7F5002083C
:104B200009E11A52D8B41CC01AF01A501C5C02E2F7
:104B3000010E1A6E1200F86AD09E078E166A400E99
:104B4000AF6EA20EAC6E900EAB6E976B010E986FAF
:104B50009A6B996B9B6B9D6BA26BA76BA96BA86BF8
:104B6000AB6BAA6B4E0EAD6F200EAC6FCFC0B9F021
:104B7000CEC0B8F0BA6BBB6BBD6BBF6BBE6BC06B0E
:104B8000C180C182C184C1969E6B9F6BA06BA16BDB
:104B9000A36BA46BA56BA66BAE6BAF6BB06BB16B6D
:104BA000B26BB36BB46BB56BB66BB76BBC6BC16BF5
:104BB000C26BC36BC46BC80E0101036F0001EFEC45
:104BC00004F0C290010E926E000E936EFF0E946E72
:104BD000956E9690969296949D9A9D8AC00EF2122A
:104BE00026EF05F0876B189CC56BC66BC76BC96B4E
:104BF000C86BCB6BCA6B1890808A00D000D00000C5
:104C000082A002D0179801D01788809A848200D0A1
:104C100000D0000082A20BD0760EF66E030EF76E67
:104C20005BEF05F06CEC05F082B0FED702D06CECC7
:104C300005F0849287EF05F0012C01D003D09FEF9F
:104C400006F002D0D3EF07F07FC0F8F067EC08F071
:104C500019EC09F001C088F088C089F01986000EAF
:104C600017BC010ECE6FE8CF02F180C003F16BC01C
:104C700007F16AC006F169C005F168C004F17CC0A3
:104C800008F1FCEC0BF06BC004F16AC003F169C0E1
:104C900002F168C001F119EC0DF019EC09F001C046
:104CA00088F019A008D0992BD8B49A2B100E006E5A
:104CB000002EFED7000097530DE0976B8EC0CEF00C
:104CC0008FC0CFF090C0D0F091C0D1F092C0D2F0A0
:104CD00048EF1AF0CA2BD8B4CB2BC75303E0C82B2C
:104CE000D8B4C92BD5EC15F001C0CEF001C0F5F059
:104CF00041EC19F019BE08D0CF6B83C0CEF02EEC7A
:104D00001EF001C0C6F007D0CF6B010ECE6F2EECA7
:104D10001EF001C0C6F048EF20F018BCB5D57F5298
:104D2000D8B402D07F2C72D2C55302E019A612D299
:104D3000812DB3D119BED9D0CF6B83C0CEF0D06B4B
:104D4000460EAF6F500EAE6F2E0EB16FE00EB06F0D
:104D50001F0EB36F400EB26F0F0EB56FA00EB46F83
:104D6000B76BB66B8951885D33E0179682B81786AA
:104D700017A608D0B8516826B9516922000E6A22D8
:104D80006B2207D0B851685EB951695A000E6A5A51
:104D90006B5AAB6BAA6BAD5306E1AC51130803E33E
:104DA000AD6B140EAC6FAD514D0809E2FF0A03E183
:104DB000AC511F0804E24E0EAD6F200EAC6F0A0E10
:104DC000AC5F000EAD5B88C089F0B8C0D0F02CD0CD
:104DD000A851320829E1A95327E1AD5306E1AC51AE
:104DE000130803E3AD6B140EAC6FAD514D0809E22F
:104DF000FF0A03E1AC511F0804E24E0EAD6F0C0E2A
:104E0000AC6F140EAC27000EAD2380A00DD0AA2BE2
:104E1000D8B4AB2BAB5303E1AA51040805E24E0E04
:104E2000AD6F200EAC6FD06BA82BD8B4A92BA953B3
:104E300003E1A851320802E2A96BA86BAF51AD5D46
:104E400008E303E1AC51AE5D04E2CFC0B9F0CEC0DF
:104E5000B8F0AD51AF5D0EE303E1AC51AE5D0AE3D6
:104E6000B151AD5D07E303E1AC51B05D03E2B96B55
:104E700083C0B8F0AD51B15D0EE303E1AC51B05D5C
:104E80000AE3B351AD5D07E303E1AC51B25D03E268
:104E9000B96B84C0B8F0AD51B35D0EE303E1AC5122
:104EA000B25D0AE3B551AD5D07E303E1AC51B45D1A
:104EB00003E2B96B85C0B8F0AD51B55D0EE303E117
:104EC000AC51B45D0AE3B751AD5D07E303E1B65100
:104ED000AC5D03E3B96B86C0B8F0036AD0C001F0E3
:104EE00003C002F001C0C5F0D8D0CF6B010ECE6F69
:104EF000D06B460EAF6F500EAE6F2E0EB16FE00E40
:104F0000B06F1F0EB36F400EB26F0F0EB56FA00ED5
:104F1000B46FB76BB66B8951885D33E0179682B872
:104F2000178617A608D0B8516826B9516922000E15
:104F30006A226B2207D0B851685EB951695A000ED7
:104F40006A5A6B5AAB6BAA6BAD5306E1AC511308AE
:104F500003E3AD6B140EAC6FAD514D0809E2FF0ACF
:104F600003E1AC511F0804E24E0EAD6F200EAC6F92
:104F70000A0EAC5F000EAD5B88C089F0B8C0D0F0FF
:104F80002CD0A851320829E1A95327E1AD5306E1FD
:104F9000AC51130803E3AD6B140EAC6FAD514D086B
:104FA00009E2FF0A03E1AC511F0804E24E0EAD6FA7
:104FB0000C0EAC6F140EAC27000EAD2380A00DD0EC
:104FC000AA2BD8B4AB2BAB5303E1AA51040805E2DA
:104FD0004E0EAD6F200EAC6FD06BA82BD8B4A92BA2
:104FE000A95303E1A851320802E2A96BA86BAF51A3
:104FF000AD5D08E303E1AC51AE5D04E2CFC0B9F0B2
:10500000CEC0B8F0AD51AF5D0EE303E1AC51AE5D83
:105010000AE3B151AD5D07E303E1AC51B05D03E2DA
:10502000B96B83C0B8F0AD51B15D0EE303E1AC5193
:10503000B05D0AE3B351AD5D07E303E1AC51B25D8E
:1050400003E2B96B84C0B8F0AD51B35D0EE303E188
:10505000AC51B25D0AE3B551AD5D07E303E1AC517C
:10506000B45D03E2B96B85C0B8F0AD51B55D0EE338
:1050700003E1AC51B45D0AE3B751AD5D07E303E171
:10508000B651AC5D03E3B96B86C0B8F0036AD0C01B
:1050900001F003C002F001C0C5F081535BE119BE0D
:1050A0002DD0CF6B83C0CEF0D06B8951885D02E0EC
:1050B000010EBA27BA51090819E2BA6B179682B8DD
:1050C000178617A608D0CE516826CF516922000E48
:1050D0006A226B2207D0CE51685ECF51695A000E0A
:1050E0006A5A6B5A010ED06F88C089F0036AD0C02B
:1050F00001F003C002F001C0C5F02CD0CF6B010E4F
:10510000CE6FD06B8951885D02E0010EBA27BA518B
:10511000090819E2BA6B179682B8178617A608D045
:10512000CE516826CF516922000E6A226B2207D029
:10513000CE51685ECF51695A000E6A5A6B5A010E01
:10514000D06F88C089F0036AD0C001F003C002F0BC
:1051500001C0C5F0C55302E0CB6BCA6BC52D04D0AE
:105160000B0ECD6FB80ECC6FC551010802E2CD6BAE
:10517000CC6BC52D01D002D0C62D07D0010EC76F54
:10518000C96BC86B19AE01D01880CD51C95D08E359
:1051900003E1C851CC5D04E2C76BC96BC86B1890C2
:1051A000CB5112081EE2FF0A03E1CA51880819E236
:1051B0007F520BE16BC000F16AC0FFF069C0FEF0E6
:1051C00068C0FDF059EC06F00AD06BC000F16AC06F
:1051D000FFF069C0FEF068C0FDF067EC06F0CB6B35
:1051E000CA6B69DC000E17BC010ECE6FE8CF02F16E
:1051F00080C003F16BC007F16AC006F169C005F118
:1052000068C004F17CC008F1FCEC0BF07F50020890
:105210003BE1CE6B8951885D20E0010EBB27BB517D
:105220000A0815E1179682B81786CE5308E117A62B
:1052300003D0010E1A2602D0010E1A5E07D017A65F
:1052400003D0010E1A5E02D0010E1A26BB6B88C075
:1052500089F0010E016E03D002D0000E016E01C074
:10526000C5F029DC020EF86F67EC08F001010D694A
:105270000E69126B116B106B1AC00FF11369020EDD
:10528000146F000193EC09F06BC004F16AC003F1E4
:1052900069C002F168C001F119EC0DF0C56B19A6E7
:0852A00001D01996FAD40300B5
:020000040030CA
:0E0000000022060E000181000FC00FE00F402D
:00000001FF
;PIC18F452
;CRC=C738  CREATED="04-Feb-25 17:32"
