:10000000BEEF19F0CDEF0EF0046ED8CF05F0E0CFC3
:1000100006F00001E9CF0CF0EACF07F0E1CF08F0DD
:10002000E2CF09F0D9CF0AF0DACF0BF0F3CF12F01C
:10003000F4CF13F0FACF14F000C00EF001C00FF0AF
:1000400002C010F003C011F09DAA2AEF00F09EBA82
:1000500077EF00F00EC000F00FC001F010C002F00A
:1000600011C003F00CC0E9FF07C0EAFF078E08C00B
:10007000E1FF09C0E2FF0AC0D9FF0BC0DAFF12C0DE
:10008000F3FF13C0F4FF14C0FAFF045006C0E0FFF2
:1000900005C0D8FF1000F2CF0DF0F29EF76AB00F46
:1000A000F66E000EF7220900F5500DBEF28E12001A
:1000B00050C3000020BF02003057050060AE0A00A8
:1000C00050690F00C05C150040771B00200B20001A
:1000D000009F240080B92A009EAAFED7ABCF16F05D
:1000E000AECF01F016A202D0AB98AB8812001980F7
:1000F000F36B9EAA26D0010100512608D8A002D099
:1001000000011FD0FF0A05E10001FF51100819E2AC
:1001100001018C6B8C510A080AE1036A8C51F30FC0
:10012000E96E000E0320EA6EEF6A8C2BF3D7000114
:10013000FD6B010EFE6F19900101006B0001FF6B5A
:100140003AD09EAA38D0010100512708D8B002D079
:10015000000131D005E10001FF510F082CE301013E
:100160000001BADF01C0F1F0036AFE51F30FE96E3E
:10017000000E0320EA6EF1C0EFFFFE2B0101006BC1
:100180000001FF6BFE51060816E1036AFE51F30FF2
:10019000E96E000E0320EA6EEF6A010EFD6FFE6F3E
:1001A0001990FE51060807E2FE51060804E294DFAA
:1001B00001C0F2F0F9D79E9A2AEF00F0010EEA6E24
:1001C000570EE96EEF500DE0060E016E006A002E2C
:1001D000FED7012EFBD77B0E006E002EFED7EF2E32
:1001E000F3D71200179080B21780179280B417824D
:1001F000179480B61784120017A0809217B08082DF
:1002000017A2809417B2808417A4809617B48086B2
:100210001200E8DF808600D000D000008096ECDF7E
:100220001200818E00D000D00000819E1200650E69
:10023000816EEFDF5D0E816EECDF4C0E816EE9DFCB
:10024000600E816EEEDF510E816EEBDF4E0E816E21
:10025000E8DF89EF1AF0C6DF808280948096CCDFD9
:100260001200F00E01014325486FF2CF49F1F29ED2
:1002700048C1A9FFA69CA69EA680A85049BFF28EA1
:10028000476B466B456B446F44C101F0000112009F
:100290000F0E0101436F0001E4DF01501200010164
:1002A0006D6B6D5103081FE3010E6F6F690E6E6F6A
:1002B0006D516E25016E000E6F21036E0150E96EC7
:1002C00003C0EAFF6D516425706FF2CF71F1F29EA9
:1002D00070C1A9FFA69CA69EA680A85071BFF28EF1
:1002E000EF6E6D2BDED76951655D0AE16A51665D7F
:1002F00007E16B51675D04E16C51685DD8B42FD0A4
:100300006D6B6D5103082BE36D5164256E6F010E0B
:10031000706F650E6F6F6D516F25016E000E70214D
:10032000036E0150E96E03C0EAFFEFCF6FF1F250A8
:10033000006EF29E6EC1A9FF6FC1A8FFA69CA69E8B
:10034000A6840F01550EA76EAA0EA76EA682A6B2AE
:10035000FED7A6940050F21201016D2BD2D70001F6
:10036000C3EF01F001015E51040DF3CF63F163C1EE
:1003700064F162C168F161C167F160C166F15FC19A
:1003800065F100018CD71200F00E010158255A6F5B
:10039000F250006EF29E5AC1A9FF59C1A8FFA69C57
:1003A000A69EA6840F01550EA76EAA0EA76EA68262
:1003B000A6B2FED7A6940050F212000112000E0E53
:1003C0000101586F2EC159F10001DEDF58EF02F034
:1003D0000D0E0101586F55C159F10001D5DF120012
:1003E0000C0E0101586F2EC159F10001CDDF60EFF5
:1003F00002F00B0E0101586F56C159F10001C4DF24
:1004000012000A0E0101586F55C159F10001BCDFFD
:100410001200050E0101586F57C159F10001B4DFF8
:100420001200040E0101586F57C159F10001ACDFF1
:100430001200030E0101586F57C159F10001A4DFEA
:100440001200020E0101586F57C159F100019CDFE3
:1004500012000F0E0101586F010E596F000194DF59
:100460007CEF02F001012D6B2D5113080EE32DC11D
:100470005EF1626B0A0E616FAE0E606F600E5F6FB1
:10048000000170DF01012D2BEFD7140E2D6F2D51C0
:100490001F080BE32DC15EF1626B616B606B5F6BDC
:1004A000000160DF01012D2BF2D72E6B000187D7F1
:1004B0000101556B00018CDF01012E6B000190D70B
:1004C0000101566B000195DF0101556B000199DFB9
:1004D000020E0101576F00019CDF0A0E0101576FE8
:1004E00000019FDF640E0101576F0001A2DF0101CF
:1004F00057690001A6DFADD7A6EF1AF00E0E010175
:10050000436F0001AEDE015066EF03F00D0E0101F6
:10051000436F0001A6DE01506AEF03F00C0E0101EB
:10052000436F00019EDE01506DEF03F00B0E0101E1
:10053000436F000196DE015070EF03F00A0E0101D7
:10054000436F00018EDE015074EF03F0050E0101D0
:10055000436F000186DE015077EF03F0040E0101C6
:10056000436F00017EDE01507AEF03F0030E0101BC
:10057000436F000176DE01507DEF03F0020E0101B2
:10058000436F00016EDE015080EF03F0070E0101A2
:10059000586F56C159F10001F7DE64EF03F0010115
:1005A000555338E00001EA510F0804E1179A1894F6
:1005B00018922ED0EA5304E1178A1894188228D092
:1005C000EA2D04D0178A1894189222D0EA51020812
:1005D00004E1179A188418921BD0EA51030804E129
:1005E000178A1884189214D0EA51040804E1178A73
:1005F000188418820DD0EA510C0804E1179A189457
:10060000188206D0EA510E0803E1179A188418825E
:100610005BD0010117BA09D018B407D018B205D0C1
:100620000F0E0001EA6F4BD0010117AA08D018B4D1
:1006300006D018A204D00001EA6B41D0010117AA2C
:1006400009D018B407D018B205D0010E0001EA6F26
:1006500036D0010117BA09D018A407D018B205D0B6
:10066000020E0001EA6F2BD0010117AA09D018A4CD
:1006700007D018B205D0030E0001EA6F20D00101A7
:1006800017AA09D018A407D018A205D0040E00019B
:10069000EA6F15D0010117BA09D018B407D018A213
:1006A00005D00C0E0001EA6F0AD0010117BA08D07C
:1006B00018A406D018A204D00E0E0001EA6F0101A2
:1006C000EAC056F1000162D7120018D7179C01B09A
:1006D000178C1CD701C0E9F021D701C0E6F026D75E
:1006E000199E01B0198E2AD701C0EBF02FD701C097
:1006F000EDF034D701C0EEF039D701C0EFF03ED7AE
:1007000001C0F0F00F0EEA6F010E0101556F0001FC
:1007100046DFADEF1AF001015F6B5F5103081FE385
:10072000010E656F600E646F5F516425016E000EEF
:100730006521036E0150E96E03C0EAFF5F515E253B
:10074000666FF2CF67F1F29E66C1A9FFA69CA69ED6
:10075000A680A85067BFF28EEF6E5F2BDED760C118
:1007600000F061C101F062C102F063C103F0000159
:10077000C3EF03F001015851040DF3CF5DF15DC1EA
:100780005EF10001C8D703C05CF102C05BF101C09B
:100790005AF100C059F159C100F05AC101F05BC1D2
:1007A00002F05CC103F0120057C158F1E3DF120000
:1007B000020E01015625576F586F0001DBDF120052
:1007C0000101555312E1000E17BC010E566F576F11
:1007D0000001EADF03C0E5F002C0E4F001C0E3F08D
:1007E00000C0E2F010D00FD00101552D0DD0E6C0B1
:1007F00056F10001DDDF03C0E5F002C0E4F001C006
:10080000E3F000C0E2F0010100011200030E01015B
:10081000645F0AE3010EEA6E640EE96EEF5004E0D5
:1008200001D000D0EF2EFDD700013EEF04F0809AFA
:10083000849084928494809801016251010B010894
:1008400001E184846251020B020801E18482625159
:10085000040B040801E184806251080B080801E1DF
:10086000808A8088310E006E002EFED700D08098DE
:10087000020E636FB80E646F0001C8D70101632FC9
:10088000F9D7809A8490849284940001120082B4F3
:10089000FED782A4FED70A0E0101626F0001C7DFF6
:1008A0000101626B0001C3DF0F0E0101626F0001E5
:1008B000BEDF0F0E0101626F0001B9DF59C162F1A5
:1008C000B6DF5AC162F1B3DF5BC162F1B0DF5CC178
:1008D00062F1ADDF5DC162F1AADF5EC162F1A7DF47
:1008E0005FC162F1A4DF60C162F1A1DF61C162F1A9
:1008F0009EDF120019B608D00101012B01517708C3
:10090000D8B051D2016B0001020E010143254425EC
:100910004525596F000E46215A6F000E47215B6F27
:10092000000E48215C6F49515927000E5A235B2362
:100930005C23010E5927000E5A235B235C234A5186
:100940005927000E5A235B235C23010E59254B6F58
:10095000000E5A214C6F000E5B214D6F000E5C2182
:100960004E6F19B60DD002514B5D0AE103514C5D3B
:1009700007E104514D5D04E105514E5DD8B413D239
:10098000433D01D003D043C14FF102D00F0E4F6F52
:10099000443D01D003D044C150F102D00F0E506F3E
:1009A00045531AE1465318E1475316E1485314E101
:1009B0004A51020811E04FC159F150C15AF10F0ECE
:1009C0005B6F5C6F5D6F5E6F5F6F606B58C161F1F5
:1009D00000015DDF1ED10101453D10D0463D0ED026
:1009E000473D0CD048517F0809E10F0E516F526FFF
:1009F000536F546F556F566F576F0AD148C15CF1F2
:100A000047C15BF146C15AF145C159F15CC160F182
:100A10005BC15FF15AC15EF159C15DF15C530EE1FA
:100A20005B510F080BE307E15A51420807E303E16A
:100A300059513F0803E30F0E516F1BD0516B6053A8
:100A40000DE15F510E0815E2FF0A08E15E51410811
:100A500010E2FF0A03E15D513F080BE2400E5D5FCB
:100A6000420E5E5B0F0E5F5B000E605B010E512756
:100A7000E6D75C530EE15B5101080BE307E15A51E5
:100A8000860807E303E159519F0803E30F0E526FF5
:100A90001BD0526B60530DE15F51000815E2FF0A55
:100AA00008E15E51850810E2FF0A03E15D519F08ED
:100AB0000BE2A00E5D5F860E5E5B010E5F5B000EBB
:100AC000605B010E5227E6D75C530CE15B530AE1F1
:100AD0005A51270807E303E159510F0803E30F0EAA
:100AE000536F17D0536B60530AE15F5308E15E51B7
:100AF00026080FE2FF0A03E15D510F080AE2100E1B
:100B00005D5F270E5E5B000E5F5B605B010E53272F
:100B1000EAD75C530CE15B530AE15A51030807E33F
:100B200003E15951E70803E30F0E546F17D0546BDC
:100B300060530AE15F5308E15E5102080FE2FF0AC9
:100B400003E15D51E7080AE2E80E5D5F030E5E5BBC
:100B5000000E5F5B605B010E5427EAD75C530AE12D
:100B60005B5308E15A5306E15951630803E30F0E42
:100B7000556F13D0556B605307E15F5305E15E532A
:100B800003E15D51630809E2640E5D5F000E5E5B88
:100B90005F5B605B010E5527EED75C530AE15B5348
:100BA00008E15A5306E15951090803E30F0E566F45
:100BB00013D0566B605307E15F5305E15E5303E1C9
:100BC0005D51090809E20A0E5D5F000E5E5B5F5B26
:100BD000605B010E5627EED7595308E15A5306E1E0
:100BE0005B5304E15C5302E1576B12D0576B5D53CA
:100BF00006E15E5304E15F5302E1605309E0010E38
:100C00005D5F000E5E5B5F5B605B010E5727EFD799
:100C100000010101493D01D003D049C158F102D082
:100C20000F0E586F48530AE1475308E14651020836
:100C30000AE2FF0A03E14551E80805E24A510108CA
:100C400002E2010E4A6F4A5315E14FC159F150C1FA
:100C50005AF151C15BF152C15CF153C15DF154C114
:100C60005EF155C15FF156C160F158C161F10001FB
:100C70000EDE01014A2D15D04FC159F150C15AF174
:100C800052C15BF153C15CF154C15DF155C15EF1DC
:100C900056C15FF157C160F158C161F10001F7DD44
:100CA00001014A51020813E14FC159F150C15AF1F3
:100CB0000F0E5B6F5C6F55C15DF156C15EF157C1A0
:100CC0005FF1606F58C161F10001E1DD01014A513E
:100CD000030813E14FC159F150C15AF155C15BF1FD
:100CE00056C15CF157C15DF10F0E5E6F5F6F606FB3
:100CF00058C161F10001CBDD01014A51040813E143
:100D00004FC159F150C15AF10F0E5B6F5C6F55C165
:100D10005DF156C15EF157C15FF1606F58C161F17D
:100D20000001B5DD01014A51050810E14FC159F13B
:100D300050C15AF10F0E5B6F5C6F5D6F5E6B5F6F42
:100D4000606F58C161F10001A2DD0101020E43256F
:100D500044254525596F000E46215A6F000E472144
:100D60005B6F000E48215C6F49515927000E5A23D2
:100D70005B235C23010E5927000E5A235B235C235F
:100D80004A515927000E5A235B235C23010E592533
:100D9000026F000E5A21036F000E5B21046F000EDC
:100DA0005C21056F1998000112002FC136F1E9533B
:100DB0000BE101012E5302E1010E356F2E2D02D001
:100DC0000C0E356F37690001E92D06D0020E0101C6
:100DD000356F34C137F10001000E18B0010E01016A
:100DE000386F35C143F136C144F133C148F132C1E6
:100DF00047F131C146F130C145F137C149F14A6F80
:100E0000000178DD120001017B2D03D080948086E3
:100E100080827B5303E180948092809600011200CF
:100E2000F2EC00F0809280848086100E006E002E1E
:100E3000FED70000FCEC00F033EF08F0D8B204D08D
:100E4000010EEA6E820EE96E006A016A026A036AA6
:100E50000101826B836B846B856B815180117F11E3
:100E60007E112CE0200E866FD8907A377B377C3746
:100E70007D3782378337843785378151855D08E137
:100E80008051845D05E17F51835D02E17E51825D89
:100E90000FE37E51825F7F51D8A07F3D835F8051F9
:100EA000D8A0803D845F8151D8A0813D855FD880E6
:100EB0000036013602360336862FD6D782C1EFFFC1
:100EC00083C1ECFF84C1ECFF85C1ECFF000112007F
:100ED0000101866B876B010E886FDA6AD96A8B6FA6
:100EE0007E0E8A6F010EEA6E820EE96E8BC1E2FF02
:100EF0008AC1E1FF88C189F1D890E550EE02F35034
:100F00008623F4508723892FF7D786C1DEFF87C158
:100F100086F1876BD8B0872B8A2BD8B48B2B882B84
:100F200088510508DFE10001120001017B6B7A5155
:100F30007B25816E0001C2EF0AF019B608D00101CD
:100F4000062B06517708D8B031D3066B000146C195
:100F50004AF145C149F144C148F143C147F119A6DD
:100F600006D001010A6B096B086B076B00010101D8
:100F70000751475D0AE10851485D07E10951495DA4
:100F800004E10A514A5DD8B411D3189817BA1888E9
:100F9000010E7B6F000137DF46C14EF145C14DF1B7
:100FA00044C14CF143C14BF101014F6B4F51090852
:100FB00056E34F51030DF350040DF350036A1A0F1B
:100FC000E96E000E0320EA6EEFCF00F0ECCF01F0E7
:100FD000ECCF02F0ECCF03F003504E5D3EE30BE1AB
:100FE00002504D5D3AE307E101504C5D36E303E109
:100FF00000504B5D32E34F51030DF350010F040DD0
:10100000F350036A1A0FE96E000E0320EA6EEFCF69
:1010100000F0ECCF01F0ECCF02F0ECCF03F04E513A
:10102000035C1BE30BE14D51025C17E307E14C51FC
:10103000015C13E303E14B51005C0FE34F51030DDF
:10104000F350020F040DF350036A1A0FE96E000EFD
:101050000320EA6EEFCFE7F002D04F2BA7D7E7C00F
:1010600081FF0001DDD601014F6B4F51090852E3AA
:101070004F51040DF350036AF2CF7AF1F29E000152
:101080004BEC00F0006E0900F5CF01F00900F5CF40
:1010900002F00900F5CF03F001017ABFF28E035090
:1010A0004E5D36E30BE102504D5D32E307E1015046
:1010B0004C5D2EE303E100504B5D2AE3010E4F250A
:1010C000040DF350036AF2CF7AF1F29E00014BEC6B
:1010D00000F0006E0900F5CF01F00900F5CF02F035
:1010E0000900F5CF03F001017ABFF28E4E51035C87
:1010F0000FE30BE14D51025C0BE307E14C51015C46
:1011000007E303E100504B5D03E24FC1E8F002D07A
:101110004F2BABD74EC153F14DC152F14CC151F1E0
:101120004BC150F1576B566B556B546B53530DE1DC
:101130005251000819E2FF0A08E15151850814E2F2
:10114000FF0A03E150519F080FE2A00E505F860E88
:10115000515B010E525B000E535B010E5427000ED3
:10116000552356235723E2D75B6B5A6B596B586B49
:1011700053530AE1525308E15151260813E2FF0A82
:1011800003E150510F080EE2100E505F270E515B25
:10119000000E525B535B010E5827000E59235A2351
:1011A0005B23E6D75F6B5E6B5D6B5C6B53530AE151
:1011B000525308E15151020813E2FF0A03E1505172
:1011C000E7080EE2E80E505F030E515B000E525B23
:1011D000535B010E5C27000E5D235E235F23E6D781
:1011E000636B626B616B606B535307E1525305E1B4
:1011F000515303E1505163080DE2640E505F000E3D
:10120000515B525B535B010E6027000E612362232A
:101210006323EAD7676B666B656B646B535307E1B7
:10122000525305E1515303E1505109080DE20A0EF2
:10123000505F000E515B525B535B010E6427000E42
:10124000652366236723EAD76B6B6A6B696B686BF0
:10125000505306E1515304E1525302E153530DE060
:10126000010E505F000E515B525B535B010E68270D
:10127000000E69236A236B23EBD768C1ECF0D89288
:101280004EC17DF14DC17CF14CC17BF14BC17AF176
:10129000816B806B270E7F6F100E7E6F0001CEDD9D
:1012A00003C06FF102C06EF101C06DF100C06CF1BE
:1012B0005BC181F15AC180F159C17FF158C17EF102
:1012C0000101856B846B836B640E826F000100DE0D
:1012D00003C07DF102C07CF101C07BF100C07AF156
:1012E0005FC181F15EC180F15DC17FF15CC17EF1C2
:1012F0000101856B846B836B0A0E826F0001E8DD50
:10130000005001017A2701507B2302507C230350B7
:101310007D2360517A25706F61517B21716F71510E
:10132000000809E2FF0A03E17051F30804E2F40E39
:10133000705F010E715B575307E1565305E155533A
:1013400003E15451090805E2300E7027020E7123A3
:1013500004D0300E7027020E7123726B736B746BA6
:10136000756B766B776B786B796B71C173F17131DB
:101370007B6F70317A6F7B337A337B337A337B3395
:101380007A330F0E7B177A510F0B746F70510F0B5E
:10139000756F0001E75105085AE3D8926FC17DF1DE
:1013A0006EC17CF16DC17BF16CC17AF10101816B81
:1013B000806B7F6B050E7E6F000140DD03C07DF109
:1013C00002C07CF101C07BF100C07AF10C0E01017A
:1013D0007A27000E7B237C237D237D31036E7C31B5
:1013E000026E7B31016E7A31006E033202320132BD
:1013F0000032033202320132003203320232013251
:10140000003200C078F1D8926FC17DF16EC17CF1DD
:101410006DC17BF16CC17AF1816B806B7F6B050EC6
:101420007E6F00010BDD03C07DF102C07CF101C0C5
:101430007BF100C07AF10C0E01017A27000E7B23AC
:101440007C237D237A510F0B796F65D00001D892F0
:101450006FC17DF16EC17CF16DC17BF16CC17AF120
:101460000101816B806B7F6B050E7E6F0001E6DCF6
:1014700003C07DF102C07CF101C07BF100C07AF1B4
:101480000C0E01017A27000E7B237C237D231E0E88
:101490007A5F000E7B5B7C5B7D5B7D31036E7C3114
:1014A000026E7B31016E7A31006E033202320132FC
:1014B0000032033202320132003203320232013290
:1014C000003200C078F1D8926FC17DF16EC17CF11D
:1014D0006DC17BF16CC17AF1816B806B7F6B050E06
:1014E0007E6F0001ABDC03C07DF102C07CF101C066
:1014F0007BF100C07AF10C0E01017A27000E7B23EC
:101500007C237D231E0E7A5F000E7B5B7C5B7D5B04
:101510007A510F0B796F809280948096300E7225ED
:10152000816E000109EC01F0200E01017325816E2E
:10153000000109EC01F0100E01017425816E00011B
:1015400009EC01F075C181FF09EC01F0300E0101D9
:101550007625816E000111EC01F0200E0101772546
:10156000816E000111EC01F0100E01017825816EF1
:10157000000111EC01F079C181FF11EC01F064C1AF
:101580007AF1D3D44AC10AF149C109F148C108F13D
:1015900047C107F1000E18B8010E01017A6F7B6F89
:1015A000000131DC179A18B8178A010100011200F6
:1015B00018A202D0189201D018820101556B0001C7
:1015C000CFEC02F01200130E01015E6F58C162F100
:1015D00057C161F156C160F155C15FF10001B2EC34
:1015E00001F01200130E0101586F0001BAEC03F074
:1015F0001200E95314E1E5C058F1E4C057F1E3C02B
:1016000056F1E2C055F1DFDF010EE96FE9C055F197
:10161000E8EC01F0E9C055F1E0EC03F010D0E92D61
:101620000ED0E0DF03C0E5F002C0E4F001C0E3F05B
:1016300000C0E2F0E96BE9C055F1E8EC01F01200FE
:10164000020E010158255D6F5E6F5CC162F15BC1E6
:1016500061F15AC160F159C15FF10001B2EC01F0D2
:101660001200E9530BE1E6C058F1E5C05CF1E4C0BB
:101670005BF1E3C05AF1E2C059F1E2DFE92D0BD092
:10168000E6C058F1E5C05CF1E4C05BF1E3C05AF19B
:10169000E2C059F1D5DF120017AA02D0179A01D083
:1016A000178A000E17BA010E0101556F7B6F0001FA
:1016B00003EC07F00101556B0001CFEC02F01200C2
:1016C00056C15EF15AC162F159C161F158C160F170
:1016D00057C15FF1B2EC01F01200000E17BC010E11
:1016E0000101556F566FE5C05AF1E4C059F1E3C0EE
:1016F00058F1E2C057F10001E3DF17BC02D0178CAC
:1017000001D0179C000E17BC010E0101556F576FD9
:101710000001D4EC03F003C0E5F002C0E4F001C026
:10172000E3F000C0E2F019861200E9531CE1E6C0C4
:1017300056F1D8EC03F003C0E5F002C0E4F001C0BC
:10174000E3F000C0E2F0000E17BC010E0101556F7E
:10175000566FE5C05AF1E4C059F1E3C058F1E2C058
:1017600057F10001ADDFE92D10D0000E17BC010EBE
:101770000101556F566FE5C05AF1E4C059F1E3C05D
:1017800058F1E2C057F100019BDF120082B632D05F
:10179000E95323E1E82BE851090801E2E86BE8513D
:1017A000040DF350036AF2CF55F1F29E4BEC00F0BA
:1017B0000900F5CF01F00900F5CF02F00900F5CFDF
:1017C00003F0010155BFF28E03C0E5F002C0E4F062
:1017D00001C0E3F0E8CFE2F00001E92D0AD0E651C4
:1017E0000D0801E3E62B010E0101556F0001E0EC4D
:1017F00003F009D0E95307E1500EE227C30EE323BB
:10180000000EE423E523120082B62FD0E95321E134
:10181000E85301E0E807E851040DF350036AF2CF02
:1018200055F1F29E4BEC00F00900F5CF01F00900F4
:10183000F5CF02F00900F5CF03F0010155BFF28E9C
:1018400003C0E5F002C0E4F001C0E3F0E8CFE2F04D
:101850000001E92D09D0E65301E0E607010E010180
:10186000556F0001E0EC03F009D0E95307E1500E99
:10187000E25FC30EE35B000EE45BE55B1200E9533D
:101880005CE1000E17BC010E0101556F576F00019E
:10189000D4EC03F003C0E5F002C0E4F001C0E3F0D3
:1018A00000C0E2F0E5C058F1E4C057F1E3C056F1E2
:1018B000E2C055F188DEE6C056F1D8EC03F003C073
:1018C000E5F002C0E4F001C0E3F000C0E2F0000E79
:1018D00017BC010E0101556F566FE5C05AF1E4C007
:1018E00059F1E3C058F1E2C057F10001E9DE7ADEB8
:1018F00003C0E5F002C0E4F001C0E3F000C0E2F094
:10190000E6C058F1E5C05CF1E4C05BF1E3C05AF118
:10191000E2C059F195DE000E17BC010E0101556FB2
:10192000576F0001D4EC03F003C0E5F002C0E4F00F
:1019300001C0E3F000C0E2F058D0E92D56D0E6C077
:1019400056F1D8EC03F003C0E5F002C0E4F001C0AA
:10195000E3F000C0E2F0E5C058F1E4C057F1E3C0A5
:1019600056F1E2C055F12FDE000E17BC010E010149
:10197000556F576F0001D4EC03F003C0E5F002C0CF
:10198000E4F001C0E3F000C0E2F0E6C058F1E5C0C9
:101990005CF1E4C05BF1E3C05AF1E2C059F150DE02
:1019A00021DE03C0E5F002C0E4F001C0E3F000C0B6
:1019B000E2F0000E17BC010E0101556F566FE5C035
:1019C0005AF1E4C059F1E3C058F1E2C057F1000107
:1019D00077DEE6C056F1D8EC03F003C0E5F002C0B4
:1019E000E4F001C0E3F000C0E2F012000101566B28
:1019F0005551565D10E2640E576F0001DEEC00F0A9
:101A00002BEC01F0640E0101576F0001DEEC00F0D9
:101A10000101562BEDD700011200120E01015E6F7D
:101A200058C162F157C161F156C160F155C15FF112
:101A30000001B2EC01F0120018A402D018940AD0F0
:101A40001884E5C058F1E4C057F1E3C056F1E2C094
:101A500055F1E3DF0101556B0001CFEC02F0CDEF52
:101A60000EF0F2EC00F0809280848096100E006EF2
:101A7000002EFED70000FCEC00F046EF0DF0010157
:101A8000566B55515625816E0001EBD7BCEF0EF019
:101A90000F0E0101586F59690001C4EC01F0BDEF50
:101AA0000EF00101555311E10F0E596F5A6F5B6F24
:101AB0005C6F080E5D6F5E6B0C0E5F6F0F0E606FDC
:101AC000616F000147EC04F00101552D11D00F0E9C
:101AD000596F5A6F5B6F5C6F040E5D6F5E6B0C0E1F
:101AE0005F6F0F0E606F616F000147EC04F0010142
:101AF0005551020811E10F0E596F5A6F5B6F5C6F01
:101B00005D6F0C0E5E6F0E0E5F6F0F0E606F616F7C
:101B1000000147EC04F001015551030810E10F0EDC
:101B2000596F5A6F5B6F5C6F5D6F5E6F0B0E5F6F0F
:101B30000F0E606F616F000147EC04F00101555119
:101B4000040814E10F0E596F5A6F0A0E5B6F010EF5
:101B50005C6F5D6F0F0E5E6F0C0E5F6F0B0E606F34
:101B60000F0E616F000147EC04F0010155510508AB
:101B700012E10F0E596F5A6F0D0E5B6F010E5C6F05
:101B80000A0E5D6F0F0E5E6F5F6B606F616F00011D
:101B900047EC04F001015551060814E10F0E596F8E
:101BA0005A6F0D0E5B6F010E5C6F0A0E5D6F0F0EAC
:101BB0005E6F010E5F6F0F0E606F616F000147EC8B
:101BC00004F001015551070814E10F0E596F5A6FC7
:101BD0000D0E5B6F010E5C6F0A0E5D6F0F0E5E6F78
:101BE000020E5F6F0F0E606F616F000147EC04F033
:101BF0000101020E566FFA0E576F0001DEEC00F085
:101C00000101562FF8D700011200EB2BEB51010810
:101C100001E2EB6BEB5305E1050E0101556F00018D
:101C200040DFEB2D05D0060E0101556F000139DFB5
:101C3000EB51020805E1070E0101556F000131DF8C
:101C40001986EBC055F101EC02F0010E0101556F50
:101C50000001CCDECDEF0EF019AE02D0199E01D0FE
:101C6000198E000E19BE010E0101556F566F00014D
:101C7000F9EC01F0010E0101556F0001B7DECDEF67
:101C80000EF00101535303E1000E016E8AD0532D73
:101C900005D00001D1D6000180D0010153510208C6
:101CA00004E10001B1DD79D001015351030804E1E1
:101CB00000016CDD72D001015351040804E1000100
:101CC00034DD6BD001015351050804E1000105DD4D
:101CD00064D001015351060804E10001DDDC5DD050
:101CE00001015351070804E10001BBDC56D001019A
:101CF0005351080804E100017CDC4FD0010153512D
:101D0000090804E1000154DC48D0010153510B08DB
:101D100004E10001B4DD41D001015351150806E191
:101D2000000102EF00F0000138D001015351190801
:101D300027E1546B545102081CE380828084808622
:101D4000806A816A826A836A320E576F0001DEEC14
:101D500000F0809280948096806A816A826A836AA9
:101D6000320E0101576F0001DEEC00F00101542B2F
:101D7000E1D7556B000183D68BD6FF000ED0010151
:101D80005351180805E1000140D7000106D00101B8
:101D900053511A0803E100015FD70101198653C1AD
:101DA00001F00001120001013039006E0F0E001623
:101DB00000500F0B326F336B346B356B30510F0BA0
:101DC000366F376B386B396B2F39006E0F0E00167C
:101DD00000500F0B3A6F3B6B3C6B3D6B2F510F0B61
:101DE0003E6F3F6B406B416B2E39006E0F0E00163D
:101DF00000500F0B426F436B446B456B2E510F0B22
:101E0000466F476B486B496B2D39006E0F0E0016FD
:101E100000500F0B4A6F4B6B4C6B4D6B2D510F0BE2
:101E20004E6F4F6B506B516B312D07D00001D8ECCA
:101E30000AF02BEC01F00DD301013151020807E14A
:101E40000001F9EC0AF02BEC01F003D30101315150
:101E5000030806E1000105DC2BEC01F0FAD20101D8
:101E60003151040806E1000117DC2BEC01F0F1D23E
:101E700001013151050806E100012FDC2BEC01F0D6
:101E8000E8D201013151060806E100014EDC2BECDD
:101E900001F0DFD201013151070806E1000176DCD3
:101EA0002BEC01F0D6D201013151080806E1000106
:101EB000ABDC2BEC01F0CDD2010131510B0806E176
:101EC0000001DDDC2BEC01F0C4D2010131510A0824
:101ED000D8A4B1D039C181F138C180F137C17FF1C7
:101EE00036C17EF1856B0F0E846F420E836F400EFC
:101EF000826F000168EC07F003C056F102C055F193
:101F000001C054F100C053F13DC181F13CC180F1E9
:101F10003BC17FF13AC17EF10101856B010E846FF7
:101F2000860E836FA00E826F000168EC07F00050F0
:101F300001015327015054230250552303505623C7
:101F400041C181F140C180F13FC17FF13EC17EF1CD
:101F5000856B846B270E836F100E826F000168EC17
:101F600007F000500101532701505423025055231C
:101F70000350562345C181F144C180F143C17FF133
:101F800042C17EF1856B846B030E836FE80E826F16
:101F9000000168EC07F00050010153270150542361
:101FA000025055230350562349C181F148C180F1A5
:101FB00047C17FF146C17EF1856B846B836B640EF4
:101FC000826F000168EC07F00050010153270150B7
:101FD000542302505523035056234DC181F14CC167
:101FE00080F14BC17FF14AC17EF1856B846B836BBD
:101FF0000A0E826F000168EC07F0005001015327C0
:102000000150542302505523035056234E5153255B
:102010000001E26F01014F5154210001E36F010102
:10202000505155210001E46F010151515621000129
:10203000E56F0FD201013151DF08D8B0BFD0315167
:10204000EE08D8A0BBD0E00E315D536F39C181F1ED
:1020500038C180F137C17FF136C17EF1856B0F0E3B
:10206000846F420E836F400E826F000168EC07F0B0
:1020700003C057F102C056F101C055F100C054F140
:102080003DC181F13CC180F13BC17FF13AC17EF19C
:102090000101856B010E846F860E836FA00E826F27
:1020A000000168EC07F0005001015427015055234E
:1020B000025056230350572341C181F140C180F1A2
:1020C0003FC17FF13EC17EF1856B846B270E836F2C
:1020D000100E826F000168EC07F0005001015427D8
:1020E00001505523025056230350572345C181F117
:1020F00044C180F143C17FF142C17EF1856B846BA5
:10210000030E836FE80E826F000168EC07F0005049
:1021100001015427015055230250562303505723E1
:1021200049C181F148C180F147C17FF146C17EF1CB
:10213000856B846B836B640E826F000168EC07F023
:1021400000500101542701505523025056230350DB
:1021500057234DC181F14CC180F14BC17FF14AC180
:102160007EF1856B846B836B0A0E826F000168ECD5
:1021700007F0005001015427015055230250562307
:10218000035057234E5154274F5155235051562336
:102190005151572353C158F157C15CF156C15BF1FE
:1021A00055C15AF154C159F1000120EC0BF0030E56
:1021B0000101556F00011ADC4CD101013151FB08BE
:1021C000D8A435D1526B4A35536F4B35546F4C35CB
:1021D000556F4D35566F533754375537563753373C
:1021E0005437553756375337543755375637F00E1F
:1021F00053174E5153274F5154235051552351518A
:102200005623535306E1545304E1555302E1565308
:1022100025E04A35536F4B35546F4C35556F4D356E
:10222000566F53375437553756375337543755371A
:1022300056375337543755375637F00E53174E51DC
:1022400053274F515423505155235151562353C1B5
:1022500057F1000109EC02F00101522B4235536F96
:102260004335546F4435556F4535566F53375437A2
:102270005537563753375437553756375337543702
:1022800055375637F00E53174651532747515423AD
:102290004851552349515623535306E1545304E101
:1022A000555302E1565325E04235536F4335546F81
:1022B0004435556F4535566F533754375537563774
:1022C00053375437553756375337543755375637B2
:1022D000F00E531746515327475154234851552365
:1022E0004951562353C157F1000111EC02F001018D
:1022F000522B3A35536F3B35546F3C35556F3D3556
:10230000566F533754375537563753375437553739
:1023100056375337543755375637F00E53173E510B
:1023200053273F5154234051552341515623535372
:1023300006E1545304E1555302E1565325E03A3582
:10234000536F3B35546F3C35556F3D35566F5337A2
:102350005437553756375337543755375637533721
:10236000543755375637F00E53173E5153273F51C8
:102370005423405155234151562353C157F1000175
:1023800019EC02F00101522B3235536F3335546F83
:102390003435556F3535566F5337543755375637B3
:1023A00053375437553756375337543755375637D1
:1023B000F00E5317365153273751542338515523B4
:1023C00039515623535306E1545304E1555302E166
:1023D000565325E03235536F3335546F3435556FCE
:1023E0003535566F5337543755375637533754377B
:1023F000553756375337543755375637F00E53172E
:1024000036515327375154233851552339515623C8
:1024100053C157F1000121EC02F00101522B52C1CE
:1024200055F10001F6EC0CF0FF0013D00101315121
:10243000FC0802E117880CD03151FE0806E1190EA4
:10244000536F00011EDC05D00101313D01D0FF00BA
:1024500000011986F0EF1AF00101436B0B2B0B51B1
:102460000F0803E343C101F023D10B6B809882A4D2
:1024700006D182B4FED7849484928490809A446B6F
:1024800018A611D084808482848482B409D082B258
:1024900007D082B005D0436B18961992FDD003D0B7
:1024A000436B1992F9D084928494809A848000D0EE
:1024B00000D0000082A413D082A40DD0442B640E5F
:1024C000576F0001DEEC00F0010144511D0802E2EB
:1024D000198201D0F1D71886010E436FDDD082A298
:1024E00013D082A20DD0442B640E576F0001DEEC96
:1024F00000F0010144511D0802E2198201D0F1D718
:102500001886020E436FC8D082A013D082A00DD0CF
:10251000442B640E576F0001DEEC00F001014451C2
:102520001D0802E2198201D0F1D71886030E436F0D
:10253000B3D08490848200D000D0000082A413D055
:1025400082A40DD0442B640E576F0001DEEC00F026
:10255000010144511D0802E2198201D0F1D7188609
:10256000040E436F99D082A213D082A20DD0442BC7
:10257000640E576F0001DEEC00F0010144511D08AC
:1025800002E2198201D0F1D71886050E436F84D07C
:1025900082A013D082A00DD0442B640E576F00018F
:1025A000DEEC00F0010144511D0802E2198201D065
:1025B000F1D71886060E436F6FD08492848400D0C2
:1025C00000D0000082A413D082A40DD0442B640E4E
:1025D000576F0001DEEC00F0010144511D0802E2DA
:1025E000198201D0F1D71886070E436F55D082A209
:1025F00013D082A20DD0442B640E576F0001DEEC85
:1026000000F0010144511D0802E2198201D0F1D706
:102610001886080E436F40D082A013D082A00DD040
:10262000442B640E576F0001DEEC00F001014451B1
:102630001D0802E2198201D0F1D71886090E436FF6
:102640002BD08494808A00D000D0000082A213D0C6
:1026500082A20DD0442B640E576F0001DEEC00F017
:10266000010144511D0802E2198201D0F1D71886F8
:102670000B0E436F11D0849484928490809A83A02F
:102680000BD000012BEC01F083B0FED718AC02D0C8
:10269000189C01D0188C0101435308E019A202D004
:1026A000140E432700012BEC01F0010143C101F09E
:1026B000000112000101212B21510F08D8B0DCD1FB
:1026C000216B2D6B83B205D082BA03D0010E2D6F22
:1026D0001DD083B205D082BC03D0050E2D6F16D05D
:1026E00083A207D082AA05D082AC03D0090E2D6F39
:1026F0000DD083A205D082BA03D00D0E2D6F06D067
:1027000083A204D082BC02D00E0E2D6F2D5303E1A4
:10271000236B226BB1D119862D2D35D083B233D0E6
:1027200082BA31D0235101080DE303E12251F308AD
:1027300009E3222BD8B4232B050E576F0001DEECE2
:1027400000F001012351000809E2FF0A03E12251D0
:10275000F20804E2040E2D6F16D014D023510008A5
:1027600009E2FF0A03E122512B0804E2030E2D6F58
:102770000AD008D0235303E12251630803E2020E7A
:102780002D6F01D0CBD72D51050835E183B233D061
:1027900082BC31D0235101080DE303E12251F3083B
:1027A00009E3222BD8B4232B050E576F0001DEEC72
:1027B00000F001012351000809E2FF0A03E1225160
:1027C000F20804E2080E2D6F16D014D02351000831
:1027D00009E2FF0A03E122512B0804E2070E2D6FE4
:1027E0000AD008D0235303E12251630803E2060E06
:1027F0002D6F01D0CBD72D51090832E183A230D003
:1028000082AA2ED082AC2CD0235102080DE303E122
:102810002251EE0809E3222BD8B4232B050E576F63
:102820000001DEEC00F001012251EE0807E1235126
:10283000020804E10C0E2D6F13D011D02251F408C0
:1028400006E1232D04D00B0E2D6F0AD008D02251A3
:10285000FA0805E1235303E10A0E2D6F01D0CED70C
:102860002D2D01D006D02D51050803E02D5109086A
:1028700006E1235303E12251630801E22D6B0001BD
:10288000E953D8A47BD001012D2D0ED00001EE51CB
:10289000E227000EE323E423E5230101236B226BEF
:1028A00000012BEC01F001012D51020808E10001AB
:1028B000EE51E227000EE323E423E52301012D512D
:1028C000030808E10001EF51E227000EE323E423AF
:1028D000E52301012D51040808E10001F051E22730
:1028E000000EE323E423E52301012D510D0809E146
:1028F000D20E0001E227040EE323000EE423E523B9
:1029000001012D5105080EE10001EE51E25F000EBC
:10291000E35BE45BE55B0101236B226B00012BECC5
:1029200001F001012D51060808E10001EE51E25FBE
:10293000000EE35BE45BE55B01012D51070808E154
:102940000001EF51E25F000EE35BE45BE55B010138
:102950002D51080808E10001F051E25F000EE35B31
:10296000E45BE55B01012D510E0809E1D20E000187
:10297000E25F040EE35B000EE45BE55B0101000136
:10298000E92D01D003D0E95102083FE101012D2DCD
:1029900008D0236B226B00012BEC01F0C6EC0BF08E
:1029A00001012D51020804E10001C6EC0BF0010108
:1029B0002D51030804E10001C6EC0BF001012D517B
:1029C000040804E10001C6EC0BF001012D510508DB
:1029D00008E1236B226B00012BEC01F004EC0CF0FE
:1029E00001012D51060804E1000104EC0CF0010185
:1029F0002D51070804E1000104EC0CF001012D51F8
:102A0000080804E1000104EC0CF001012D51090853
:102A10000AE1010E556F0001F6EC0CF0E95302E1FA
:102A2000C6EC0BF001012D510A0812E1020E556FA0
:102A30000001F6EC0CF0E95305E1F9EC0AF00101B4
:102A40001BD00001E92D05D0F9EC0AF0010114D0EA
:102A5000000101012D510B0806E1030E556F000125
:102A6000F6EC0CF001012D510C0806E1040E556F37
:102A70000001F6EC0CF00101000104EF1BF0010174
:102A80002F2D03D08084808280962F5303E1809283
:102A90008094809600011200110E01015E6F32C118
:102AA00062F131C161F130C160F12FC15FF100010C
:102AB000B2EC01F054EF16F0120E0101586F000154
:102AC000BAEC03F055EF16F0110E0101586F00013A
:102AD000BAEC03F06FEF16F019B608D00101242B01
:102AE00024517708D8B006D1246B000101012D6B69
:102AF00017B869D083A65FD019B85CD02E6B2E5161
:102B000009084EE3D8902E35040DF350036A920F56
:102B1000E96E000E0320EA6EEFCF00F0ECCF01F07B
:102B2000ECCF02F0ECCF03F003500001E55D35E39C
:102B30000BE10250E45D31E307E10150E35D2DE379
:102B400003E10050E25D29E3D89001012E35010F29
:102B5000040DF350036A920FE96E000E0320EA6E33
:102B6000EFCF00F0ECCF01F0ECCF02F0ECCF03F0B0
:102B70000001E551035C11E30BE1E451025C0DE35C
:102B800007E1E351015C09E303E1E251005C05E385
:102B9000010E01012D6F04D0000101012E2BAFD7D2
:102BA0002D5307E1010E2F6F000169DF2BEC01F0BF
:102BB0000101198807D019A805D02F6B00015FDF2C
:102BC0001998010102D0010E2D6F18A25DD083A6C5
:102BD0002ED019BA2BD0000E17BC010E2F6F566FD6
:102BE000E5C05AF1E4C059F1E3C058F1E2C057F131
:102BF000000160EC0BF017BC02D0178C03D017ACAF
:102C000001D0179C000E17BC010E01012F6F576FEA
:102C10000001D4EC03F003C0E5F002C0E4F001C011
:102C2000E3F000C0E2F0198A198601012DD019AA3B
:102C30002BD0000E17BC010E2F6F566FE5C05AF156
:102C4000E4C059F1E3C058F1E2C057F1000160EC73
:102C50000BF017BC02D0178C03D017AC01D0179C17
:102C6000000E17BC010E01012F6F576F0001D4EC4D
:102C700003F003C0E5F002C0E4F001C0E3F000C0DF
:102C8000E2F0199A1986010118A434D083A619D04C
:102C900019BC16D0E5C032F1E4C031F1E3C030F127
:102CA000E2C02FF10001F8D607D703C0E5F002C05B
:102CB000E4F001C0E3F000C0E2F0198C19860101D4
:102CC00019D019AC17D0E5C058F1E4C057F1E3C0F2
:102CD00056F1E2C055F100010DEC0DF0F5D603C040
:102CE000E5F002C0E4F001C0E3F000C0E2F0199C9E
:102CF00019860101000106EF1BF0090E0101436F67
:102D0000000131EC01F001508BEF16F0010141910F
:102D100041930001F2D701C042F182B605D2E953D6
:102D200002E0E92D01D2E9533BE1E851040DF350F3
:102D3000036AF2CF43F1F29E4BEC00F00900F5CFAD
:102D400001F00900F5CF02F00900F5CF03F0010111
:102D500043BFF28E03C030F102C02FF101C02EF14B
:102D60002D6F010E0001E825040DF350036AF2CF28
:102D700043F1F29E4BEC00F00900F5CF01F00900A1
:102D8000F5CF02F00900F5CF03F0010143BFF28E49
:102D900003C034F102C033F101C032F1316F0001E0
:102DA000E92D2DD0E6C056F1D8EC03F003C030F188
:102DB00002C02FF101C02EF100C02DF1E6510D0827
:102DC00011E3010EE6250101436F566F0001D8ECB7
:102DD00003F003C034F102C033F101C032F100C08E
:102DE00031F10DD00101566B0001D8EC03F003C0A6
:102DF00034F102C033F101C032F100C031F1010100
:102E000031512D5D09E132512E5D06E133512F5DC7
:102E100003E13451305D05E00001E951020809E1A8
:102E20000101020E556F0001F6EC0CF0189C59D20E
:102E30007AD1198601013E6B3D6B406B3F6B34517B
:102E4000305DD8A0C7D00EE133512F5DD8A0C2D0DD
:102E500009E132512E5DD8A0BDD004E12D51315D84
:102E6000D8B0B8D030C138F12FC137F12EC136F10A
:102E70002DC135F134C13CF133C13BF132C13AF1DE
:102E800031C139F13D2BD8B43E2B3E5108080CE23C
:102E9000FF0A03E13D51C30807E241B302D0418379
:102EA00001D041933E6B3D6B41B329D00001E95302
:102EB00011E1010E0101436F446938C148F137C186
:102EC00047F136C146F135C145F149694A6B000108
:102ED0007AEC04F0E92D11D0020E0101436F446930
:102EE00038C148F137C147F136C146F135C145F126
:102EF00049694A6B00017AEC04F010D00101436982
:102F0000446938C148F137C147F136C146F135C18E
:102F100045F149694A6B00017AEC04F038C146F189
:102F200037C145F136C144F135C143F19DEC07F09D
:102F3000199683A405D00101406B3F6B41810001CC
:102F400080B003D001014191000183B041D02CEC4D
:102F500012F001500408D8B43BD083A20BD082AA4F
:102F600009D082AC07D083A204D082AA02D082BC4E
:102F7000FAD72ED0010141A10FD083B40CD03F2B42
:102F8000D8B4402B3F51400806E140510D0803E101
:102F9000406B3F6B419106D0010E355F000E365BF2
:102FA000375B385B3951355D11E13A51365D0EE1E1
:102FB0003B51375D0BE13C51385D08E130C138F1E0
:102FC0002FC137F12EC136F12DC135F15BD700018C
:102FD000AAD0010130C138F12FC137F12EC136F12D
:102FE0002DC135F134C13CF133C13BF132C13AF16D
:102FF00031C139F13D2BD8B43E2B3E5108080CE2CB
:10300000FF0A03E13D51C30807E241B302D0418307
:1030100001D041933E6B3D6B41B329D00001E95390
:1030200011E1010E0101436F446938C148F137C114
:1030300047F136C146F135C145F149694A6B000196
:103040007AEC04F0E92D11D0020E0101436F4469BE
:1030500038C148F137C147F136C146F135C145F1B4
:1030600049694A6B00017AEC04F010D00101436910
:10307000446938C148F137C147F136C146F135C11D
:1030800045F149694A6B00017AEC04F038C146F118
:1030900037C145F136C144F135C143F19DEC07F02C
:1030A000199683A405D00101406B3F6B418100015B
:1030B00080B003D001014191000183B034D02CECE9
:1030C00012F001500408D8B42ED0010141A10FD054
:1030D00083B40CD03F2BD8B4402B3F51500806E1AD
:1030E0004051C30803E1406B3F6B419106D0010E94
:1030F0003527000E3623372338233951355D11E14A
:103100003A51365D0EE13B51375D0BE13C51385D84
:1031100008E130C138F12FC137F12EC136F12DC190
:1031200035F168D70001BCD0E95102080CE0E6C0D7
:1031300056F1D8EC03F003C038F102C037F101C0FA
:1031400036F100C035F101013D2BD8B43E2B3E5184
:1031500003080CE2FF0A03E13D51AF0807E241B367
:1031600002D0418301D041933E6B3D6B0001E95198
:10317000020827E0010141B313D0020E436F4469F6
:1031800038C148F137C147F136C146F135C145F183
:10319000E6C049F14A6B00017AEC04F011D001015C
:1031A0004369446938C148F137C147F136C146F136
:1031B00035C145F1E6C049F14A6B00017AEC04F0F3
:1031C0001FD0010141B30FD0020E436F4469486B19
:1031D000476B466B42C145F149694A6F00017AEC81
:1031E00004F00ED0010143694469486B476B466B9C
:1031F00042C145F14969020E4A6F00017AEC04F0C0
:1032000038C146F137C145F136C144F135C143F10A
:103210009DEC07F0199683A405D00101406B3F6B2C
:103220004181000180B003D001014191000183B0D0
:1032300037D02CEC12F001500408D8B431D0010181
:1032400041A10FD083B40CD03F2BD8B4402B3F51B9
:10325000100806E14051270803E1406B3F6B4191A4
:103260001DD00001E95102080EE001013D5305E1C6
:103270003E5303E10001E62B01010001E6510E0877
:1032800001E2E66B0CD001013D5303E13E5301E145
:10329000422B4251500802E2010E426F000144D716
:1032A000E951020819E038C1E5F037C1E4F036C150
:1032B000E3F035C1E2F0000E17BC010E0101436FCF
:1032C000566FE5C05AF1E4C059F1E3C058F1E2C0CD
:1032D00057F1000160EC0BF0189C2BEC01F083B06F
:1032E000FED709EF1BF00101356B83A802D0080E51
:1032F000352783AA02D0040E352783AC02D0020EF4
:10330000352783AE02D0010E352735C101F000010B
:103310001200E95302E0E92D2FD0E55310E1E45308
:103320000EE1E351C3080BE303E1E2514F0807E369
:10333000E56B2D0EE46FC60EE36FC00EE26FE55332
:103340000DE1E4512C0810E2FF0A08E1E351C50841
:103350000BE2FF0A03E1E251C00806E2E56BE46B11
:10336000C30EE36F500EE26FE6510E0802E20E0E3E
:10337000E66FE65301E1E66B95EF1DF0F86AD09E2B
:10338000078E166A400EAF6EA20EAC6E900EAB6E3C
:10339000FD6B010EFE6F0101006B0001FF6B01016F
:1033A000016B066B0B6B0D6B0C6B0F6B0E6B9C0E3E
:1033B000116F400E106F2EC11DF12DC11CF1216B3C
:1033C000236B226B246BC180C182C184C1966FD0F4
:1033D00007001A50C30000EF490205C000B380F097
:1033E0004902008FD003000100000090D003007F4D
:1033F0001A060002000000801A0600AF710B0003DD
:10340000000000B0710B008F051000040000009058
:103410000510000F20160005000000102016008F78
:103420003A1C0006000000903A1C006FCE200007F6
:1034300000000070CE20009F25260008000000A09C
:10344000252600FFD3300009000000F049020040AB
:103450000D030030570500801A060060AE0A00B068
:10346000710B0040420F0090051000C05C15001069
:1034700020160040771B00903A1C00200B200070A3
:10348000CE2000009F2400F0E8260080B92A00C06A
:10349000C62D09C00004010200000000040107005D
:1034A0000000000A41120003011E00000000000E8F
:1034B000F86E330EF76ED00EF66E0900F550006E02
:1034C000000A13E00900F550016EE8BE05D00F0BAD
:1034D000EA6E0900F5CFE9FF01BC090001AC090063
:1034E000F5CFEEFF004EE9D7F9D7F86AC80E576F4F
:1034F0000001DEEC00F0C290010E926E000E936EA1
:10350000FF0E946EFE0E956E96909692969417EF1F
:1035100001F02BEC01F0189C0101256B266B286B48
:10352000276B2A6B296B1890808A00D000D000008E
:1035300082A002D0179801D01788809A000148EC29
:1035400001F0012C01D003D032EF02F0F8D748ECA3
:1035500001F0012C02D065EF03F0E9C055F1E0EC79
:1035600003F0000E17BC010E01012D6F2E6FEAC093
:103570002FF1E5C033F1E4C032F1E3C031F1E2C034
:1035800030F1E6C034F10001D5EC06F0E5C046F1BB
:10359000E4C045F1E3C044F1E2C043F19DEC07F023
:1035A0009D9A9D8AC00EF21219A00BD0FF2BD8A4B1
:1035B00003D00101002B0001100E006E002EFED77B
:1035C0000000FD530DE0FD6BF4C02DF1F5C02EF1B0
:1035D000F6C02FF1F7C030F1F8C031F1D3EF0EF0A3
:1035E0000101292BD8B42A2B265303E0272BD8B46A
:1035F000282B00012CEC12F001C02DF101C053F179
:1036000041EC0EF05AEF13F06CEF15F018BC86EF9A
:1036100016F0E953D8B402D0E92D9CD2010125530C
:10362000D8A440D20001EB2DCFD119BEE7D00101C3
:103630002E6BEDC02DF12F6B7D0E136F126B5D0E97
:10364000156FC00E146F3E0E176F800E166F1F0E93
:10365000196F400E186F1B6B1A6B000144DE01C01E
:1036600030F101011E51305D3BE0179682B817869C
:1036700017A60CD01C510001E22701011D510001C9
:10368000E323000EE423E5230BD001011C510001CC
:10369000E25F01011D510001E35B000EE45BE55BAD
:1036A00001010F6B0E6B115306E11051130803E378
:1036B000116B140E106F11519B0809E2FF0A03E110
:1036C00010513F0804E29C0E116F400E106F050E62
:1036D000105F000E115B30C11EF11CC12FF12CD008
:1036E0000C51320829E10D5327E1115306E1105125
:1036F000130803E3116B140E106F11519B0809E2BC
:10370000FF0A03E110513F0804E29C0E116F2C0EDA
:10371000106F140E1027000E112380A00DD00E2B59
:10372000D8B40F2B0F5303E10E51040805E29C0E91
:10373000116F400E106F2F6B0C2BD8B40D2B0D5347
:1037400003E10C51320802E20D6B0C6B1351115D59
:1037500008E303E11051125D04E22EC11DF12DC1F9
:103760001CF11151135D0EE303E11051125D0AE3E8
:103770001551115D07E303E11051145D03E21D6B68
:10378000EDC01CF11151155D0EE303E11051145D04
:103790000AE31751115D07E303E11051165D03E2DF
:1037A0001D6BEEC01CF11151175D0EE303E11051CA
:1037B000165D0AE31951115D07E303E11051185D2D
:1037C00003E21D6BEFC01CF11151195D0EE303E123
:1037D0001051185D0AE31B51115D07E303E11A5113
:1037E000105D03E31D6BF0C01CF1036A2FC101F0F3
:1037F00003C002F001C025F1E6D0000101012E6BEB
:10380000010E2D6F2F6B7D0E136F126B5D0E156FFA
:10381000C00E146F3E0E176F800E166F1F0E196FBD
:10382000400E186F1B6B1A6B00015DDD01C030F19B
:1038300001011E51305D3BE0179682B8178617A62E
:103840000CD01C510001E22701011D510001E323AE
:10385000000EE423E5230BD001011C510001E25FBF
:1038600001011D510001E35B000EE45BE55B01011A
:103870000F6B0E6B115306E11051130803E3116B2C
:10388000140E106F11519B0809E2FF0A03E1105159
:103890003F0804E29C0E116F400E106F050E105F82
:1038A000000E115B30C11EF11CC12FF12CD00C5148
:1038B000320829E10D5327E1115306E11051130895
:1038C00003E3116B140E106F11519B0809E2FF0AFC
:1038D00003E110513F0804E29C0E116F2C0E106F93
:1038E000140E1027000E112380A00DD00E2BD8B47B
:1038F0000F2B0F5303E10E51040805E29C0E116FCC
:10390000400E106F2F6B0C2BD8B40D2B0D5303E111
:103910000C51320802E20D6B0C6B1351115D08E380
:1039200003E11051125D04E22EC11DF12DC11CF105
:103930001151135D0EE303E11051125D0AE31551BD
:10394000115D07E303E11051145D03E21D6BEDC04F
:103950001CF11151155D0EE303E11051145D0AE3F2
:103960001751115D07E303E11051165D03E21D6B72
:10397000EEC01CF11151175D0EE303E11051165D0D
:103980000AE31951115D07E303E11051185D03E2E9
:103990001D6BEFC01CF11151195D0EE303E11051D5
:1039A000185D0AE31B51115D07E303E11A51105D35
:1039B00003E31D6BF0C01CF1036A2FC101F003C0CB
:1039C00002F001C025F10001EB536DE119BE36D0C4
:1039D00001012E6BEDC02DF12F6B000184DC01C0C5
:1039E00030F101011F51305D20E0179682B8178633
:1039F00017A60CD02D510001E22701012E51000124
:103A0000E323000EE423E5230BD001012D51000137
:103A1000E25F01012E510001E35B000EE45BE55B18
:103A2000010E01012F6F30C11FF1036A2FC101F098
:103A300003C002F001C025F135D0000101012E6B59
:103A4000010E2D6F2F6B00014EDC01C030F1010122
:103A50001F51305D20E0179682B8178617A60CD04C
:103A60002D510001E22701012E510001E323000E38
:103A7000E423E5230BD001012D510001E25F010198
:103A80002E510001E35B000EE45BE55B010E0101DA
:103A90002F6F30C11FF1036A2FC101F003C002F084
:103AA00001C025F100010101255302E02A6B296BB9
:103AB000252D04D0270E2C6F100E2B6F25510108D9
:103AC00002E22C6B2B6B252D07D0010E266F286B85
:103AD000276B19AE01D018802C51285D08E303E153
:103AE00027512B5D04E2266B286B276B18902A5117
:103AF000260818E2FF0A03E12951100813E2000E1C
:103B000017BC010E2D6F566FE5C05AF1E4C059F194
:103B1000E3C058F1E2C057F1000160EC0BF0010185
:103B20002A6B296B000189EF19F0000E17BC010EFA
:103B300001012D6F2E6FEAC02FF1E5C033F1E4C013
:103B400032F1E3C031F1E2C030F1E6C034F10001FE
:103B5000D5EC06F0E5C046F1E4C045F1E3C044F120
:103B6000E2C043F19DEC07F00101256B19A601D0DD
:083B70001996000119D50300AC
:020000040030CA
:0E0000000022060E000181000FC00FE00F402D
:00000001FF
;PIC18F452
;CRC=36C1  CREATED="22-Nov-24 21:34"
