:04000000E1EF36F006
:08000800046ED8CF05F0E0CF33
:1000100006F00001E9CF0CF0EACF07F0E1CF08F0DD
:10002000E2CF09F0D9CF0AF0DACF0BF0F3CF12F01C
:10003000F4CF13F0FACF14F000C00EF001C00FF0AF
:1000400002C010F003C011F09DAA2AEF00F09EBA82
:1000500087EF02F00EC000F00FC001F010C002F0F8
:1000600011C003F00CC0E9FF07C0EAFF078E08C00B
:10007000E1FF09C0E2FF0AC0D9FF0BC0DAFF12C0DE
:10008000F3FF13C0F4FF14C0FAFF045006C0E0FFF2
:1000900005C0D8FF1000F2CF0DF0F29EF76AB00F46
:1000A000F66E000EF7220900F5500DBEF28E12001A
:1000B000A086010020BF02003057050060AE0A0094
:1000C00050690F00C05C150040771B00200B20001A
:1000D000009F240080B92A00C0C62D00F2CF0DF089
:1000E000F29EF76AF60FF66E000EF7220900F55041
:1000F0000DBEF28E120050C30000400D030060CC14
:10010000050080FC0A0060900F0078E5150060C5CE
:100110001B00E8BA2000A0252600C0C62D00C0C6DE
:100120002D00F2CF0DF0F29EF76A3C0FF66E010E35
:10013000F7220900F5500DBEF28E120000000000FB
:10014000EF49020001000000F04902008FD00300D7
:100150000100000090D003007F1A0600020000009A
:10016000801A0600AF710B0003000000B0710B0095
:100170008F05100004000000900510000F201600ED
:1001800005000000102016008F3A1C000600000039
:10019000903A1C006FCE20000700000070CE2000B7
:1001A0009F25260008000000A02526007F969800C5
:1001B00009000000F2CF0DF0F29EF76ACE0FF66E46
:1001C000010EF7220900F5500DBEF28E1200F04923
:1001D0000200400D030030570500801A060060AE93
:1001E0000A00B0710B0040420F0090051000C05C87
:1001F00015001020160040771B00903A1C00200BC1
:10020000200070CE2000009F2400F0E8260080B976
:100210002A00C0C62D000000000000000000F2CF40
:100220000DF0F29EF76A380FF66E020EF722090003
:10023000F5500DBEF28E12004944020141490302FD
:10024000444E02035550020446410205464202064E
:1002500046410D0746420D08464E03094652030A21
:100260004652020B4654030C4654020D4946020EF8
:100270004945030F4C4B02104C4B03114D430512E3
:100280004D4403134D5206144D5717155243021691
:100290005244021752550218525403195258021A66
:1002A0005458021B5343031C5350031D5941021E53
:1002B000000000000000000000000000000000003E
:1002C000000000000000000000000000000000002E
:1002D000000000000000000000000000000000001E
:1002E000000000000000000000000000000000000E
:1002F00000000000000000000000000000000000FE
:10030000F2CF0DF0F29E180FF66E030EF7220900E1
:10031000F5500DBEF28E12006C752800547928003D
:100320003C7D28000C852800F4882800DC8C2800FF
:10033000C4902800949828007C9C280064A0280081
:100340004CA428001CAC280004B02800ECB3280002
:10035000D4B72800A4BF28008CC3280074C7280085
:100360005CCB28002CD3280014D72800FCDA280006
:10037000B4E62800E4DE2800CCE228009CEA28004D
:1003800084EE28006CF2280054F628003CFA28007D
:1003900024FE28000C022900F4052900DC092900AC
:1003A000C40D2900AC112900941529007C192900DD
:1003B000641D29004C212900342529001C2929000D
:1003C000042D2900D4342900BC382900A43C29007C
:1003D0008C4029005C482900444C29002C502900FD
:1003E00014542900E45B2900CC5F2900B463290080
:1003F0009C6729006C6F2900547329003C77290001
:10040000247B2900F4822900DC862900C48A290083
:100410007C962900AC8E290094922900649A2900C8
:100420004C9E290034A229001CA6290004AA2900F8
:10043000ECAD2900D4B12900BCB52900A4B929002C
:100440008CBD290074C129005CC5290044C929005C
:100450002CCD290014D12900FCD42900E4D829008E
:10046000CCDC29009CE4290084E829006CEC2900FC
:1004700054F0290024F829000CFC2900F4FF29007D
:10048000DC032A00AC0B2A00940F2A007C132A00FC
:1004900064172A00341F2A001C232A0004272A007C
:1004A000EC2A2A00BC322A00A4362A008C3A2A0000
:1004B00044462A00743E2A005C422A002C4A2A0044
:1004C000144E2A00FC512A00E4552A00CC592A0077
:1004D000B45D2A009C612A0084652A006C692A00A8
:1004E000546D2A003C712A0024752A000C792A00D8
:1004F000F47C2A00DC802A009EAAFED7ABCF16F03F
:10050000AECF01F016A202D0AB98AB88120021B694
:1005100027D09EAA25D0F0DF01C0FFF0036A0101B9
:100520001EC1E9FF010E0324EA6EFFC0EFFF1AB2FD
:100530000CD00001FF513B0801E1218001011E5157
:10054000040802E1218601D01E2B1AA208D0000166
:10055000FF513B0802E1218603D001011E2B00015F
:1005600021A605D09EBAC8DF01011E6B00019E9A2C
:100570002AEF00F001018251F80F24E2080F000178
:10058000E6EF02F0806A01011DD0080E806E0101C5
:1005900019D0040E806E010115D00C0E806E010181
:1005A00011D0020E806E01010DD00A0E806E010185
:1005B00009D0060E806E010105D00E0E806E01017D
:1005C00001D0010182C13CF000011200F2CF0DF018
:1005D000F29EE824F76AF736F10FF66E050EF72261
:1005E0000A00F550FA6E0800F5500DBEF28EF96E55
:1005F00084058A0592059A05A205AA05B205BA05E1
:10060000010EEA6E6C0EE96EEF500DE0060E016E03
:10061000006A002EFED7012EFBD77B0E006E002E47
:10062000FED7EF2EF3D712003CC03DF0010E0101C2
:10063000826F00019FDF00D03DC082F19BDF12007E
:10064000818E00D0819E1200650E816EEDDF5D0E01
:10065000816EEADF4C0E816EE7DF600E816EF0DFA7
:10066000510E816EEDDF4E0E816EEADF62EF03F018
:100670003CC03DF0040E0101826F00017BDF200EC3
:10068000006E002EFED700D000003DC082F172DF68
:100690001200C290010E926E000E936EFF0E946EC9
:1006A000956E9690969296940101826B000162DF9E
:1006B000C80E01016C6F0001A3DF9D9A9D8AC00ED8
:1006C000F212C2D7396A189C1A9018904E6A4D6A75
:1006D0004C6A4B6A170E516E700E506E1A96199A2C
:1006E000199C1986C5DF75EF37F00101616B605108
:1006F000615D0AE20001BCDFC80E01016C6F000100
:100700007FDF0101612BF3D700011200E00E010130
:100710006D25706FF2CF71F1F29E70C1A9FFA69C9A
:10072000A69EA680A85071BFF28E6F6F6E516F5D4E
:10073000D8B419D0E00E6D25706FF250006EF29EA5
:1007400070C1A9FF6EC1A8FFA69CA69EA6840F013A
:10075000550EA76EAA0EA76EA682A6B2FED7A694C5
:100760000050F212010100011200E00E01016425A7
:10077000656FF2CF66F1F29E65C1A9FFA69CA69EA9
:10078000A680A85066BFF28E016E00011200010122
:100790007E6B7E5103081FE3010E806F7A0E7F6F20
:1007A0007E517F25016E000E8021036E0150E96E9F
:1007B00003C0EAFF7E517525816FF2CF82F1F29E70
:1007C00081C1A9FFA69CA69EA680A85082BFF28EDA
:1007D000EF6E7E2BDED77A51765D0AE17B51775D35
:1007E00007E17C51785D04E17D51795DD8B42FD06B
:1007F0007E6B7E5103082BE37E5175257F6F010EC2
:10080000816F760E806F7E518025016E000E8121F2
:10081000036E0150E96E03C0EAFFEFCF80F1F250A2
:10082000006EF29E7FC1A9FF80C1A8FFA69CA69E74
:10083000A6840F01550EA76EAA0EA76EA682A6B2B9
:10084000FED7A6940050F21201017E2BD2D70001F0
:100850003BEF04F001016F51040DF3CF74F174C14B
:1008600075F173C179F172C178F171C177F170C11D
:1008700076F100018CD71200030E01016F6F6AC17F
:1008800073F169C172F168C171F167C170F1000162
:10089000E1DF12000101336B3351090850E333519A
:1008A000040DF350036AF2CF34F1F29E00014BECD9
:1008B00000F0006E0900F5CF01F00900F5CF02F05D
:1008C0000900F5CF03F0010134BFF28E0350325D11
:1008D00034E30BE10250315D30E307E10150305D5C
:1008E0002CE303E100502F5D28E3010E3325040DB6
:1008F000F350036AF2CF34F1F29E00014BEC00F0AA
:10090000006E0900F5CF01F00900F5CF02F00900F3
:10091000F5CF03F0010134BFF28E3251035C0DE3D9
:100920000BE13151025C09E307E13051015C05E361
:1009300003E100502F5DD8A002D0332BADD733C1D7
:1009400001F00001B5EF05F001012E6B2E511208E8
:100950000EE32EC16FF1736B0A0E726FAE0E716FE4
:10096000600E706F000176DF01012E2BEFD7130EA2
:100970002E6F2E511D080BE32EC16FF1736B726B3E
:10098000716B706B000166DF01012E2BF2D71E0E1A
:100990002E6F2E5128082DE31E0E2E5D040DF350F0
:1009A000036AF2CF2FF1F29E00014BEC00F0006ED3
:1009B0000900F5CF01F00900F5CF02F00900F5CFED
:1009C00003F001012FBFF28E03C032F102C031F1FA
:1009D00001C030F12F6F2EC16FF103C073F102C05F
:1009E00072F101C071F1706F000134DF01012E2B33
:1009F000D0D7290E2E6F2E5133082DE3290E2E5DF0
:100A0000040DF350036AF2CF2FF1F29E00014BEC7C
:100A100000F0006E0900F5CF01F00900F5CF02F0FB
:100A20000900F5CF03F001012FBFF28E03C032F1B0
:100A300002C031F101C030F12F6F2EC16FF103C040
:100A400073F102C072F101C071F1706F000102DF39
:100A500001012E2BD0D7340E2E6F2E5135080BE30B
:100A60002EC16FF1736B726B716B706B0001F2DEF4
:100A700001012E2BF2D7360E6F6F736B726B270E40
:100A8000716F100E706F0001E5DE370E01016F6FA0
:100A9000736B300E726FD40E716F706B0001DADE03
:100AA00001016D6B6E6B000131DE030E01016D6F94
:100AB0006E6B00012BDE040E01016D6F6E6B000189
:100AC00025DE080E01016D6F6E6B00011FDE090E41
:100AD00001016D6F6E6B000119DE050E01016D6F76
:100AE0000F0E6E6F000112DE020E01016D6F6E6B54
:100AF00000010CDE0C0E01016D6F6E6B000106DE55
:100B00000D0E0101646F000130DE013C06D00D0EB8
:100B100001016D6F6E6B0001F9DD0E0E01016D6F4D
:100B2000310E6E6F0001F2DD0F0E01016D6F6E6B05
:100B30000001ECDD0A0E01016D6F010E6E6F000108
:100B4000E5DD01016A6B0A0E696FAE0E686F600E1B
:100B5000676F000191DE0101326B0A0E316FAE0E3C
:100B6000306F600E2F6F000195D601C02FF1010E7E
:100B700001016D6F01C06EF10001C8DD060E0101BB
:100B80006D6F130E6E6F0001C1DD070E01016D6FF9
:100B9000010E6E6F0001BADD1F0E01016D6F010EB7
:100BA0006E6F0001B3DDFF0079EF0DF00101826B84
:100BB000825103081FE3010E886F830E876F8251F5
:100BC0008725016E000E8821036E0150E96E03C077
:100BD000EAFF82518125896FF2CF8AF1F29E89C1A5
:100BE000A9FFA69CA69EA680A8508ABFF28EEF6E93
:100BF000822BDED783C100F084C101F085C102F0F1
:100C000086C103F000010EEF06F001017F51040DD3
:100C1000F3CF80F180C181F10001C8D7120001013A
:100C2000632D05D0050E826F0001A4DC0101635322
:100C300004E1826B00019EDC0101000112002A0E1A
:100C400001017F6F0001E1DF12002A0E01016F6FC9
:100C500067C173F166C172F165C171F164C170F170
:100C60000001F8DD12000101632D1ED00001E7DF55
:100C700003C067F102C066F101C065F100C064F114
:100C80000101645311E165530FE166530DE16753B0
:100C90000BE126C067F125C066F124C065F123C0D1
:100CA00064F10001D2DF0101635307E1676B666BFA
:100CB000656B646B0001C9DF0101000112000101D5
:100CC000632D03D01BB001D01B80635301E11B9047
:100CD0000001120001012F6B2F5107083CE32F5137
:100CE000040DF350036A7B0FE96E000E0320EA6ED9
:100CF000EF502E5D2EE12F51040DF350010F036ACA
:100D00007B0FE96E000E0320EA6EEFCF01F0179A19
:100D100001B0178A2F51040DF350020F036A7B0FA5
:100D2000E96E000E0320EA6EEFCF01F0189401B0D7
:100D300018842F51040DF350030F036A7B0FE96EE3
:100D4000000E0320EA6EEFCF01F0189201B0188276
:100D500002D02F2BC1D717AA06D0010E636F000156
:100D60005EDF04D00101636B000159DF18A406D0D7
:100D7000010E0101636F000176DF04D00101636B96
:100D8000000171DF18A206D0010E0101636F00019E
:100D900096DF04D00101636B000191DF050E0101B4
:100DA0006D6F2EC16EF10001B1DC62EF07F0360EFF
:100DB00001017F6F000129DF03C061F002C060F014
:100DC00001C05FF000C05EF0370E01017F6F0001CF
:100DD0001CDF03C065F002C064F001C063F000C016
:100DE00062F00101646B0001C0DC179C01B0178C3C
:100DF000030E0101646F0001B8DC01C036F0040E7F
:100E00000101646F0001B1DC01C033F0080E010183
:100E1000646F0001AADC199E01B0198E020E010157
:100E2000646F0001A2DC189E01B0188E0C0E010147
:100E3000646F00019ADC1A9201B01A820D0E010152
:100E4000646F000192DC01C03EF00E0E0101646F80
:100E500000018BDC01C020F00F0E0101646F000166
:100E600084DC1A9A01B01A8A090E0101646F00012C
:100E70007CDC01C038F0050E0101646F000175DCF7
:100E800001C037F0010E0101646F00016EDC01C08A
:100E900035F00A0E0101646F000167DC1A9E01B093
:100EA0001A8E070E0101646F00015FDC01C06BF058
:100EB000060E0101646F000158DC01C06AF037C002
:100EC0002EF108D73E50F70F41E2090FA7EF07F0C8
:100ED000400EAF6EA20EAC6E900EAB6E37D0FF0E12
:100EE000AF6EA20EAC6E900EAB6E30D0810EAF6EB8
:100EF000A20EAC6E900EAB6E29D0400EAF6EA20E5D
:100F0000AC6E900EAB6E22D0810EAF6EA60EAC6EA4
:100F1000900EAB6E1BD0400EAF6EA60EAC6E900E58
:100F2000AB6E14D0200EAF6EA60EAC6E900EAB6EF4
:100F30000DD0150EAF6EA60EAC6E900EAB6E06D039
:100F40000A0EAF6EA60EAC6E900EAB6E1200F2CF14
:100F50000DF0F29EE824F76AF736730FF66E0F0E67
:100F6000F7220A00F550FA6E0800F5500DBEF28E19
:100F7000F96ED00EDE0EEC0EFA0E080F160F240FCF
:100F8000320F400F0101645308E11E0E6525666FA4
:100F90007F6F00013ADE0CD00101642D08D0290ECC
:100FA0006525666F7F6F000130DE02D00101000110
:100FB0001200040E01016425656F7F6F000125DEBC
:100FC00012000101636B365237E1646B35C065F185
:100FD0000001D8DF03C059F002C058F001C057F03B
:100FE00000C056F0010E0101646F35C065F10001CB
:100FF000C9DF03C05DF002C05CF001C05BF000C05F
:101000005AF017BC0CD059C026F058C025F057C074
:1010100024F056C023F0010E0101636F000117ACEC
:101020000CD05DC026F05CC025F05BC024F05AC037
:1010300023F0020E0101636F0001362C17D0040E5D
:101040000101646F0001B5EC03F001C033F033C05F
:1010500064F1AFDF03C026F002C025F001C024F028
:1010600000C023F0030E0101636F00013650020837
:101070000CE1060E0101646F0001B5EC03F001C044
:101080006AF0040E0101636F0001010163C101F008
:1010900000011200030E01018F5F0AE3010EEA6EE8
:1010A0008F0EE96EEF5004E001D000D0EF2EFDD797
:1010B0000001120001018B6B0001EA2B01018A5132
:1010C0000001EA5DD8A088D018B817D001018C6B58
:1010D0008C510C080BE3036A8C516E0FE96E000E05
:1010E0000320EA6EEF508B278C2BF2D70001EB51D7
:1010F00001018B5D03E100016FD001010001EA6B8A
:10110000EB6B82B4FED782A4FED701018D6B8D51AB
:101110000C085DE3036A8D516E0FE96E000E03202B
:10112000EA6EEF500F0BE8A08494E8B08484036A61
:101130008D516E0FE96E000E0320EA6ED890EF30ED
:101140000F0BE8A08492E8B08482036A8D516E0F81
:10115000E96E000E0320EA6EEF30006E00323F0EA3
:10116000001600500F0BE8A08490E8B08480036A5A
:101170008D516E0FE96E000E0320EA6EEF30006EA7
:10118000003200321F0E001600500F0BE8A0809AAC
:10119000E8B0808A8088310E006E002EFED700D025
:1011A0008098020E8E6FB80E8F6F000173DF010101
:1011B0008E2FF9D7036A8D516E0FE96E000E032052
:1011C000EA6EEF500001EB2701018D2BA0D7189894
:1011D000809A8490849284940001A0EF0AF0010127
:1011E000783D01D003D078C172F002D00F0E726E3C
:1011F000793D01D003D079C173F002D00F0E736E28
:101200007E3D01D003D07EC17AF002D00F0E7A6EFF
:101210007DC18DF17CC18CF17BC18BF17AC18AF1EA
:101220008DC191F18CC190F18BC18FF18AC18EF18A
:101230003F6A91530DE190510E0815E2FF0A08E153
:101240008F51410810E2FF0A03E18E513F080BE283
:10125000400E8E5F420E8F5B0F0E905B000E915B17
:10126000010E3F26E6D7406A91530DE190510008E8
:1012700015E2FF0A08E18F51850810E2FF0A03E139
:101280008E519F080BE2A00E8E5F860E8F5B010EC3
:10129000905B000E915B010E4026E6D7416A9153A8
:1012A0000AE1905308E18F5126080FE2FF0A03E19B
:1012B0008E510F080AE2100E8E5F270E8F5B000E14
:1012C000905B915B010E4126EAD7426A91530AE195
:1012D000905308E18F5102080FE2FF0A03E18E519B
:1012E000E7080AE2E80E8E5F030E8F5B000E905B4C
:1012F000915B010E4226EAD7436A915307E190536E
:1013000005E18F5303E18E51630809E2640E8E5F9D
:10131000000E8F5B905B915B010E4326EED7446A13
:10132000915307E1905305E18F5303E18E51090872
:1013300009E20A0E8E5F000E8F5B905B915B010EDF
:101340004426EED7456A915307E1905305E18F5348
:1013500003E18E51000809E2010E8E5F000E8F5BE3
:10136000905B915B010E4526EED73FC083F140C0F4
:1013700084F141C085F142C086F143C087F144C089
:1013800088F145C089F17F53D8A457D07D530DE132
:101390007C510F080AE307E17B51420806E303E1B1
:1013A0007A513F0802E30F0E836F7D530DE17C51AC
:1013B00001080AE307E17B51860806E303E17A515D
:1013C0009F0802E30F0E846F7D530BE17C5309E10C
:1013D0007B51270806E303E17A510F0802E30F0E61
:1013E000856F7D530BE17C5309E17B51030806E3D4
:1013F00003E17A51E70802E30F0E866F7D5309E19E
:101400007C5307E17B5305E17A51630802E30F0E39
:10141000876F7D5309E17C5307E17B5305E17A51E6
:10142000090802E30F0E886F7A5307E17B5305E149
:101430007C5303E17D5301E1896B010E805DF90F5F
:1014400021E2070F0001A1EF0AF00F0E0101836FE7
:1014500019D00F0E0101846F15D00F0E0101856F99
:1014600011D00F0E0101866F0DD00F0E0101876F95
:1014700009D00F0E0101886F05D00F0E0101896F91
:1014800001D0010181530CE183C174F084C175F076
:1014900085C176F086C177F087C178F088C179F090
:1014A000812D0CD084C174F085C175F086C176F0B1
:1014B00087C177F088C178F089C179F0815102083D
:1014C0000AE10F0E746E756E87C176F088C177F0F1
:1014D00089C178F0796E815103080AE187C174F0FF
:1014E00088C175F089C176F00F0E776E786E796ECF
:1014F000815104080AE10F0E746E756E766E87C115
:1015000077F088C178F089C179F08151050807E149
:101510000F0E746E756E766A776A786A796E81518D
:1015200006080AE10F0E746E6BC075F0766E88C106
:1015300077F089C178F0796E82C18AF10001BAD55D
:101540001200F2CF0DF0F29EE824F76AF736670F2B
:10155000F66E150EF7220A00F550FA6E0800F550E7
:101560000DBEF28EF96E4A1452145A1462146A14A3
:1015700072147A1482B0FED73C0E01016C6F000128
:1015800000EC03F04D5213E14E5211E10101786974
:1015900079697D6B7C6B020E7B6FF50E7A6F7E69CD
:1015A0007F6B806B020E816F826B000118DE4D50E5
:1015B000140812E14E5210E10101786979697D6BDE
:1015C0007C6B7B6B8C0E7A6F7E697F6B806B020EFF
:1015D000816F826B000103DE848400D000D00000A4
:1015E0004D2AD8B44E2A4E5203E14D50280805E248
:1015F0004E6A4D6A4B2AD8B44C2A4B5005080AE172
:101600004C5208E10C0E01016D6F6E6B000186EC0F
:1016100003F006D082A003D082B0FED701D0ACD7B1
:1016200038EC03F04C5227E14B50050824E34D52AF
:1016300002E14E520DE04E520BE14D50140808E30A
:101640000C0E01016D6F6E6B000186EC03F01A92B7
:101650004E5203E14D5014080EE24E520CE14D5033
:10166000280809E30C0E01016D6F010E6E6F000179
:1016700086EC03F01A824E6A4D6A4C6A4B6A849477
:101680008BEF0DF082B2FED701012E912F6B3C0E35
:101690006C6F000100EC03F04DC000F04E50036E83
:1016A00002E1005224E0035003E1140E005C29E043
:1016B000035003E1280E005C2EE0035003E13C0ED2
:1016C000005C33E0035003E1500E005C38E003504F
:1016D00003E1640E005C3CE0035003E1780E005C23
:1016E00040E0035003E18C0E005C44E04CD01F6AE4
:1016F0001E6A040E1D6EB00E1C6E01012E810001CB
:1017000042D01F6A1E6A090E1D6E600E1C6E01011A
:101710002E81000138D01F6A1E6A120E1D6EC00E87
:101720001C6E01012E8100012ED01F6A1E6A250E3B
:101730001D6E800E1C6E01012E81000124D01F6AD7
:101740001E6A4B0E1D6E1C6A01012E8100011BD00A
:101750001F6A1E6A960E1D6E1C6A01012E81000111
:1017600012D01F6A1E6AE10E1D6E1C6A01012E81D5
:10177000000109D01F6A010E1E6EC20E1D6E1C6A8A
:1017800001012E81000101012EA115D0010E2F278C
:10179000786979691FC07DF11EC07CF11DC07BF1A5
:1017A0001CC07AF17E697F6B806B816F826B000158
:1017B00016DD01012E91848400D000D000004D2A56
:1017C000D8B44E2A4E5203E14D50A00806E24E6AAC
:1017D0004D6A2F6B4B2AD8B44C2A4B50050804E1B4
:1017E0004C5202E12F6B06D082A003D082B0FED70C
:1017F00001D04DD7000138EC03F04C52D8A464D08E
:101800004B50050861E301012F51010A00010FE06F
:10181000030A14E0010A19E0070A1EE0010A23E0A6
:10182000030A28E0010A2DE00F0A32E038D0FF0E4B
:10183000AF6EA20EAC6E900EAB6E37D0810EAF6E57
:10184000A20EAC6E900EAB6E30D0400EAF6EA20EFC
:10185000AC6E900EAB6E29D0810EAF6EA60EAC6E44
:10186000900EAB6E22D0400EAF6EA60EAC6E900EF8
:10187000AB6E1BD0200EAF6EA60EAC6E900EAB6E94
:1018800014D0150EAF6EA60EAC6E900EAB6E0DD0D2
:101890000A0EAF6EA60EAC6E900EAB6E06D0400E6A
:1018A000AF6EA20EAC6E900EAB6E0D0E01016D6FA1
:1018B0002FC16EF1000186EC03F0030E0101606F91
:1018C000000175EC03F007D00D0E01016D6F6E6B1A
:1018D000000186EC03F0849490EF0DF01AB211D061
:1018E0000101786979697D6B7C6B020E7B6FF50E67
:1018F0007A6F7E697F6B806B020E816F826B000155
:101900006EDC1AA210D00101786979697D6B7C6B5D
:101910007B6B8C0E7A6F7E697F6B806B020E816FA2
:10192000826B00015CDC8484040E01012E6FFA0ED0
:101930006C6F000100EC03F001012E2FF8D70D0EA3
:10194000646F0001B5EC03F00150010A0FE0030AD7
:1019500014E0010A19E0070A1EE0010A23E0030A65
:1019600027E0010A2BE00F0A2FE035D01F6A1E6A1C
:10197000040E1D6EB00E1C6E34D01F6A1E6A090E56
:101980001D6E600E1C6E2DD01F6A1E6A120E1D6E1B
:10199000C00E1C6E26D01F6A1E6A250E1D6E800E9C
:1019A0001C6E1FD01F6A1E6A4B0E1D6E1C6A19D05A
:1019B0001F6A1E6A960E1D6E1C6A13D01F6A1E6A6D
:1019C000E10E1D6E1C6A0DD01F6A010E1E6EC20E46
:1019D0001D6E1C6A06D01F6A1E6A120E1D6EC00E96
:1019E0001C6E0101786979691FC07DF11EC07CF110
:1019F0001DC07BF11CC07AF17E697F6B806B010E8C
:101A0000816F826B0001EFEC08F08484040E010109
:101A10002E6FFA0E6C6F000100EC03F001012E2F07
:101A2000F8D782A203D0000159D70101000195EF38
:101A30000DF01AAE02D01A9E01D01A8E000E1ABEF8
:101A4000010E01012E6F786979697D6B7C6B7B6B70
:101A50007A6F7E697F6B806B010E816F826B0001F4
:101A6000EFEC08F0000E1ABE010E010F01012E6FFF
:101A7000606F000175EC03F0000E1ABE010E01014B
:101A80002E6F0A0E6D6F2EC16EF1000186EC03F011
:101A9000040E01012E6FFA0E6C6F000100EC03F0D2
:101AA00001012E2FF8D70001A3EF0DF0848200D0A2
:101AB00000D0000082A211D082A207D0020E010144
:101AC000606F000175EC03F0F7D71F0E01016D6F19
:101AD0006E69000186EC03F0FF0084921F0E010185
:101AE000646F0001B5EC03F0012C01D005D0A4EF28
:101AF00004F0D7EC06F002D0D7EC06F0E1EC07F0EA
:101B0000848400D000D0000082A00AD04E6A4D6AC2
:101B10004C6A4B6A2FD54E6A4D6A4C6A4B6AB2D5F5
:101B200082A204D082A202D0D9D6FCD78494808A23
:101B300000D000D0000082A002D0179801D01788F2
:101B400082A201D076D7809A77EF37F001017E6BC1
:101B500083A802D0080E7E2783AA02D0040E7E2717
:101B600083AC02D0020E7E2783AE02D0010E7E2708
:101B70007EC101F0000112000101685318E11E0E40
:101B800069256E6F6F6F6DC173F16CC172F16BC1BE
:101B900071F16AC170F100012AEC04F06DC159F0D5
:101BA0006CC158F06BC157F06AC156F00101682D45
:101BB00018D0290E69256E6F6F6F6DC173F16CC1FE
:101BC00072F16BC171F16AC170F100012AEC04F08D
:101BD0006DC15DF06CC15CF06BC15BF06AC15AF025
:101BE000010100011200010E0101665DFC0F54E2CB
:101BF000040F00014FEF0EF00101686B35C069F171
:101C000026C06DF125C06CF124C06BF123C06AF1D0
:101C10000001B2DF26C059F025C058F024C057F0AB
:101C200023C056F0010138D0010E0101686F35C0A4
:101C300069F126C06DF125C06CF124C06BF123C0A1
:101C40006AF1000199DF26C05DF025C05CF024C078
:101C50005BF023C05AF001011FD026C06AF125C0F5
:101C600069F124C068F123C067F13CEC04F0040E74
:101C700001016D6F33C06EF1000186EC03F00101CC
:101C80000BD0060E01016D6F6AC06EF1000186EC8B
:101C900003F0010101D00101000180EF0EF0F2CF4D
:101CA0000DF0F29EE824F76AF736C30FF66E1C0EAD
:101CB000F7220A00F550FA6E0800F5500DBEF28EBC
:101CC000F96EF81B281C5A1C821C0101656B3652E8
:101CD00008E117BC02D0010E656F17AC02D0020EEE
:101CE000656F362C02D0030E656F3650020802E194
:101CF000040E656F645305E065C166F1000173D79A
:101D0000010165C101F0000112000101805182034F
:101D1000F3CF01F0F4CF00F08303F350002681519C
:101D20008203F3500020026E000112003CC03DF01F
:101D3000030E0101826F0001BAEC02F000D03DC039
:101D400082F1BAEC02F003EF10F018AE0AD0140ED4
:101D5000342401017E6F7F6F000105EC06F007D08F
:101D600006D0130E01017F6F000105EC06F0120092
:101D7000D8B204D0010EEA6E860EE96E006A016ADE
:101D8000026A036A0101866B876B886B896B8551D8
:101D90008411831182112CE0200E8A6FD8907E3737
:101DA0007F3780378137863787378837893785513E
:101DB000895D08E18451885D05E18351875D02E119
:101DC0008251865D0FE38251865F8351D8A0833DA7
:101DD000875F8451D8A0843D885F8551D8A0853D18
:101DE000895FD88000360136023603368A2FD6D76F
:101DF00086C1EFFF87C1ECFF88C1ECFF89C1ECFF12
:101E00000001EBEF10F0016A026A006A036A010147
:101E1000815102E1805118E0100E826FD8907E3718
:101E20007F37003603368151035C02E18051005C4C
:101E300007E38051005ED8A003068151035ED8807D
:101E400001360236822FEAD700011200700E01011E
:101E5000816F80518125816E0001120081CFDEF0FB
:101E600047EF0FF03CC03DF0020E0101826F000110
:101E7000BAEC02F000D03DC082F1BAEC02F04FEFB4
:101E80000FF0DEC081FFDE6B50EF0FF0E7D7700E72
:101E90000101816F80518125816E0001E3D7F1D767
:101EA000120001016451615C14E30BE16351605C59
:101EB00010E307E162515F5C0CE303E15E50615D9A
:101EC00008E265C064F164C063F163C062F162C09E
:101ED00061F16550645D14E30BE16450635D10E3F0
:101EE00007E16350625D0CE303E16151625C08E26B
:101EF00061C064F160C063F15FC062F15EC061F116
:101F000064C168F163C167F162C166F161C165F1E5
:101F1000696B69510908D8A06FD06951030DF3505E
:101F2000040DF350036AF2CF7EF1F29E000191ECB2
:101F300000F0006E0900F5CF01F00900F5CF02F0C6
:101F40000900F5CF03F001017EBFF28E0350685DFA
:101F500051E30BE10250675D4DE307E10150665D1F
:101F600049E303E10050655D45E36951030DF3501A
:101F7000010F040DF350036AF2CF7EF1F29E0001CF
:101F800091EC00F0006E0900F5CF01F00900F5CFEB
:101F900002F00900F5CF03F001017EBFF28E685117
:101FA000035C28E30BE16751025C24E307E166511F
:101FB000015C20E303E16551005C1CE36951030D02
:101FC000F350020F040DF350036AF2CF7EF1F29E3C
:101FD000000191EC00F0006E0900F5CF01F009005E
:101FE000F5CF02F00900F5CF03F001017EBFF28EBC
:101FF000346E02D0692B8DD70001F051345C05E0BE
:1020000034C081FF93D634C0F0F019B437D09DDED0
:1020100003C06DF102C06CF101C06BF100C06AF148
:1020200001016D530DE16C510E081FE2FF0A08E13A
:102030006B5141081AE2FF0A03E16A513F0815E2B9
:10204000400E6A5D006E420E6B59016E0F0E6C59A8
:10205000026E000E6D59036E0050655F0150665BA5
:102060000250675B0350685B08D06A5165276B516B
:1020700066236C5167236D516823000168C171F1BB
:1020800067C170F166C16FF165C16EF1286A276A98
:10209000010171530DE17051000817E2FF0A08E1D8
:1020A0006F51850812E2FF0A03E16E519F080DE2AD
:1020B000A00E6E5F860E6F5B010E705B000E715B93
:1020C000010E2726000E2822E4D72A6A296A7153B6
:1020D0000AE1705308E16F51260811E2FF0A03E19B
:1020E0006E510F080CE2100E6E5F270E6F5B000E34
:1020F000705B715B010E2926000E2A22E8D72C6A3C
:102100002B6A71530AE1705308E16F51020811E222
:10211000FF0A03E16E51E7080CE2E80E6E5F030E62
:102120006F5B000E705B715B010E2B26000E2C2284
:10213000E8D72E6A2D6A715307E1705305E16F539A
:1021400003E16E5163080BE2640E6E5F000E6F5B7D
:10215000705B715B010E2D26000E2E22ECD7306ACB
:102160002F6A715307E1705305E16F5303E16E511C
:1021700009080BE20A0E6E5F000E6F5B705B715B0D
:10218000010E2F26000E3022ECD7326A316A6E53D0
:1021900006E16F5304E1705302E171530BE0010E4D
:1021A0006E5F000E6F5B705B715B010E3126000E7F
:1021B0003222EDD7D89268C181F167C180F166C142
:1021C0007FF165C17EF1856B846B270E836F100EE6
:1021D000826F0001CDD501C073F100C072F12AC039
:1021E00081F129C080F10101836B640E826F0001CF
:1021F0008CDD02C07FF101C07EF12CC081F12BC0CB
:1022000080F10101836B0A0E826F00017EDD0150B7
:1022100001017E2702507F232D507E25746F2E50A2
:102220007F21756F7551000809E2FF0A03E17451BF
:10223000F30804E2F40E745F010E755B300E742730
:10224000020E7523766B776B786B796B7A6B7B6B91
:102250007C6B7D6B0001EC510101745D05E10001B7
:10226000ED510101755D32E075C177F175317F6F18
:1022700074317E6F7F337E337F337E337F337E33A3
:102280000F0E7F177E510F0B786F74510F0B796F04
:10229000806A300E7625816E000114EC03F0200E6A
:1022A00001017725816E000114EC03F0100E01018D
:1022B0007825816E000114EC03F079C181FF14ECE4
:1022C00003F075C1EDF074C1ECF001010001EE51B5
:1022D0000101725D06E10001EF510101735DD8B4A7
:1022E00087D03450050834E373C17FF172C17EF1A9
:1022F000816B050E806F000186DD02C07FF101C099
:102300007EF10C0E01017E27000E7F237F31036ECC
:102310007E31026E03320232033202320332023263
:1023200002C07CF173C17FF172C17EF1816B050E39
:10233000806F000168DD02C07FF101C07EF10C0EEC
:1023400001017E27000E7F237E510F0B7D6F33D05E
:1023500073C17FF172C17EF1816B050E806F000148
:1023600052DD02C07FF101C07EF1120E01017E5FDD
:10237000000E7F5B7F31036E7E31026E03320232CC
:10238000033202320332023202C07CF173C17FF1A8
:1023900072C17EF1816B050E806F000134DD02C0D9
:1023A0007FF101C07EF1120E01017E5F000E7F5BA6
:1023B0007E510F0B7D6F300E7A25816E000120EC6F
:1023C00003F0200E01017B25816E000120EC03F05B
:1023D000100E01017C25816E000120EC03F07DC10F
:1023E00081FF20EC03F073C1EFF072C1EEF0010148
:1023F0002F500001F15D02E1305222E0305203E142
:102400002F50F15D0BE2010E2F2401017E6F000EB3
:1024100030207F6F7EC180F1000118DD30520EE167
:10242000F1512F5C0BE2010E2F2401017E6F000E93
:1024300030207F6F7EC180F1000108DD2FC0F1F0F8
:102440003150F25D02E132521AE0325203E1315072
:10245000F25D03E231C080F119DD32520EE1F2513A
:10246000315C0BE2010E312401017E6F000E32203F
:102470007F6F7EC180F1000109DD31C0F2F0A6EC72
:102480000DF001C03BF061C100F062C101F063C119
:1024900002F064C103F012000101532D06D0060EB4
:1024A000826F0001BAEC02F00101535305E1826B27
:1024B0000001BAEC02F001010001120065500101B7
:1024C000505D14E30BE164504F5D10E307E163508E
:1024D0004E5D0CE303E14D51625C08E265C050F1D2
:1024E00064C04FF163C04EF162C04DF15051615C68
:1024F00014E30BE14F51605C10E307E14E515F5C68
:102500000CE303E15E504D5D08E261C050F160C034
:102510004FF15FC04EF15EC04DF1516B17B874D0F2
:1025200083A66AD019B867D0526B5251090854E398
:10253000D8905235040DF350036AF2CF53F1F29E56
:102540000001DAEC00F0006E0900F5CF01F009009F
:10255000F5CF02F00900F5CF03F0010153BFF28E71
:102560000350505D37E30BE102504F5D33E307E169
:1025700001504E5D2FE303E100504D5D2BE3D890F9
:102580005235010F040DF350036AF2CF53F1F29E5E
:102590000001DAEC00F0006E0900F5CF01F009004F
:1025A000F5CF02F00900F5CF03F0010153BFF28E21
:1025B0005051035C0FE30BE14F51025C0BE307E169
:1025C0004E51015C07E303E14D51005C03E3010E52
:1025D000516F02D0522BA9D751530CE1000138ECB6
:1025E00003F083A606D0010E0101536F000154DFF2
:1025F000F8D70101198807D019A805D0536B00013D
:102600004BDF1998010102D0010E516F51C101F049
:102610000001120001014E6B82A44DD182B4FED79D
:1026200018A693D0808A84808482848400D000D0CD
:10263000000082B404D082B202D082A073D04D5187
:10264000020809E1F3C04EF10001F36B1896010195
:102650004EC101F07DD14D2D24D00001F6530CE187
:10266000F551630809E3F52BD8B4F62B0A0E0101E6
:102670006C6F000100EC03F0F65303E1F5516308C1
:1026800011E21E0EF32501014E6F0001F36B809ADB
:10269000849084928494F66BF56B01014EC101F035
:1026A00057D1000101014D51030839E10001F653F2
:1026B00011E1F55163080EE3F52BD8B4F62B0A0EA1
:1026C00001016C6F000100EC03F0FF0E016E0101CF
:1026D0003FD10001F65303E1F551630821E21E0EDC
:1026E000F32501014E6F809A849084928494808AAD
:1026F00084808482848400D000D0000082B408D01A
:1027000082B206D082B004D00001F66BF56B0101F5
:10271000809A8490849284944EC101F019D1000172
:1027200010D001011896F3C04EF10001F36B8490B4
:1027300084928494F66BF56B01014EC101F008D1CF
:10274000000184908492849401011AAC62D083B217
:1027500004D082AA02D082BC4FD04D51020809E1B8
:10276000F4C04EF10001F46B1A9C01014EC101F05E
:10277000EFD04D2D1AD00001F851FA5D07E303E1C7
:10278000F951F75D03E2F72BD8B4F82BFA51F85D55
:102790000DE303E1F951F75D09E3050EF4250101AD
:1027A0004E6F1A8C4EC101F0D3D0000101014D5182
:1027B00003081FE10001F851FA5D0CE303E1F95150
:1027C000F75D08E2F72BD8B4F82BFF0E016E01017C
:1027D000BFD00001FA51F85D0DE303E1F951F75D57
:1027E00009E3050EF42501014E6F1A8C4EC101F06C
:1027F000AFD000010DD001011A9C0001F86BF76BFE
:10280000F4C04EF1F46B01014EC101F0A1D0000102
:1028100003D00001F86BF76B18B64CD08492849407
:10282000809A848000D000D0000082A403D0188653
:10283000010EF36F82A203D01886020EF36F82A0FE
:1028400003D01886030EF36F8490848200D000D0EA
:10285000000082A403D01886040EF36F82A203D076
:102860001886050EF36F82A003D01886060EF36F4C
:102870008492848400D000D0000082A403D0188603
:10288000070EF36F82A203D01886080EF36F82A0A2
:1028900003D01886090EF36F8494808A00D000D08C
:1028A000000082A203D018860A0EF36F84948492EB
:1028B0008490809A010183B20AD082BA08D01A8C1F
:1028C0000B0E0001F46FFA6B190EF96F010183B260
:1028D0000AD082BC08D01A8C0C0E0001F46FFA6B7F
:1028E000190EF96F010183A20CD082AA0AD082AC22
:1028F00008D01A8C0D0E0001F46FFA6B640EF96F9C
:10290000010183A20AD082BA08D01A8C0E0E0001EF
:10291000F46FFA6B190EF96F010183A20AD082BC21
:1029200008D01A8C0F0E0001F46FFA6B190EF96FB4
:10293000010183A00BD0000138EC03F083B0FED777
:1029400018AC02D0189C01D0188C0101000E016E49
:102950000001120001013587010E646F000165EC72
:102960000EF001C048F182A604D00A0E01014827EA
:1029700000010F0E01014C6F010E485DF20F25E2C0
:102980000E0F0001A1EF1AF0010E0101496F1DD0D9
:10299000010E0101496F19D0030E0101496F15D0D5
:1029A000040E0101496F11D0020E0101496F0DD0D3
:1029B000020E0101496F09D0050E0101496F05D0D2
:1029C000040E0101496F01D00101492D61D035503C
:1029D000040DF350036AF2CF4DF1F29E00014BEC6F
:1029E00000F00900F5CF01F00900F5CF02F0090071
:1029F000F5CF03F001014DBFF28E03C03BF102C0E1
:102A00003AF101C039F1386F355009081FE3010E62
:102A10003524040DF350036AF2CF4DF1F29E00010C
:102A20004BEC00F00900F5CF01F00900F5CF02F002
:102A30000900F5CF03F001014DBFF28E03C03FF155
:102A400002C03EF101C03DF13C6F07D03F6B010E6B
:102A50003E6F860E3D6FA00E3C6F17BC02D0010E7C
:102A60004C6F17AC02D00C0E4C6F2E530EE12F534F
:102A70000CE130530AE1315308E13BC131F13AC175
:102A800030F139C12FF138C12EF1326B020E4B6F8C
:102A9000495102084DE13550040DF350036AF2CF5D
:102AA0004DF1F29E00014BEC00F00900F5CF01F072
:102AB0000900F5CF02F00900F5CF03F001014DBF89
:102AC000F28E03C03BF102C03AF101C039F1386F18
:102AD0003550040DF350036AF2CF4DF1F29E000120
:102AE0006EEC00F00900F5CF01F00900F5CF02F01F
:102AF0000900F5CF03F001014DBFF28E03C03FF195
:102B000002C03EF101C03DF13C6F17BC02D0010E86
:102B10004C6F17AC02D00C0E4C6F3BC131F13AC177
:102B200030F139C12FF138C12EF1326B020E4B6FEB
:102B3000495103083BE1326B32C164F10001D9EC29
:102B400007F003C03BF102C03AF101C039F100C007
:102B500038F1010132510D080EE2646B0001D9EC2D
:102B600007F003C03FF102C03EF101C03DF100C0DB
:102B70003CF110D00101010E32254D6F646F000150
:102B8000D9EC07F003C03FF102C03EF101C03DF1B6
:102B900000C03CF13BC131F13AC130F139C12FF1F4
:102BA00038C12EF1020E01014C6F4B6F49510408E0
:102BB000D8A42ED16B50020803E1500E346F02D01E
:102BC000280E346F6AC032F16BC062F1625109089D
:102BD00005E1010E6C6E500E6D6E04D0010E6C6E30
:102BE000280E6D6E32516C5CD8B06CC032F16D50F5
:102BF000325DD8B06DC032F1010E325D636F622D6F
:102C000026D0816B63C180F1836B040E826F00015B
:102C100085EC0EF002C003F00150F2CF64F1F29E99
:102C200002C0F7FF80EC01F00900F5CF01F00900C8
:102C3000F5CF02F00900F5CF03F0010164BFF28E79
:102C400003C069F002C068F001C067F0666E6251AF
:102C500002082BE1816B63C180F1836B040E826FEC
:102C6000000185EC0EF002C003F00150A00F016ED0
:102C7000000E03220150F2CF64F1F29E03C0F7FF71
:102C800080EC01F00900F5CF01F00900F5CF02F06A
:102C90000900F5CF03F0010164BFF28E03C069F0B3
:102CA00002C068F001C067F0666E625103082BE154
:102CB000816B63C180F1836B040E826F000185EC30
:102CC0000EF002C003F00150400F016E010E03220E
:102CD0000150F2CF64F1F29E03C0F7FF80EC01F0E7
:102CE0000900F5CF01F00900F5CF02F00900F5CF9A
:102CF00003F0010164BFF28E03C069F002C068F006
:102D000001C067F0666E625109085EE163512708F1
:102D10002BE3816B63C180F1836B040E826F000132
:102D200085EC0EF002C003F00150A00F016E000E02
:102D300003220150F2CF64F1F29E03C0F7FF80EC52
:102D400001F00900F5CF01F00900F5CF02F009000C
:102D5000F5CF03F0010164BFF28E03C069F002C039
:102D600068F001C067F0666E635127082DE2280EF7
:102D7000635D656F816B806F836B040E826F0001F2
:102D800085EC0EF002C003F00150400F016E010E01
:102D900003220150F2CF64F1F29E03C0F7FF80ECF2
:102DA00001F00900F5CF01F00900F5CF02F00900AC
:102DB000F5CF03F0010164BFF28E03C069F002C0D9
:102DC00068F001C067F0666E66C000F067C001F091
:102DD00068C002F069C003F003C03BF102C03AF1E1
:102DE00001C039F100C038F165C03FF164C03EF167
:102DF00063C03DF162C03CF13BC131F13AC130F1F9
:102E000039C12FF138C12EF1020E4C6F0A0E4B6FF3
:102E10004951050826E10E0E346F33C032F132C13C
:102E200064F10001D9EC07F003C03BF102C03AF1B4
:102E300001C039F100C038F165C03FF164C03EF116
:102E400063C03DF162C03CF13BC131F13AC130F1A8
:102E500039C12FF138C12EF1020E01014C6F320E33
:102E60004B6F4951FA0F1CE2060F0001C1EF1AF037
:102E700001014A6B15D0010E01014A6F11D0010EFC
:102E800001014A6F0DD0010E01014A6F09D0020EF7
:102E900001014A6F05D0030E01014A6F01D0010103
:102EA0003C51385D13E13D51395D10E13E513A5DD1
:102EB0000DE13F513B5D0AE1189C020E606F00017D
:102EC00075EC03F0000E016E39D301013B513F5DFB
:102ED0001DE30BE13A513E5D19E307E139513D5DD8
:102EE00015E303E13C51385D11E23BC143F13AC1C6
:102EF00042F139C141F138C140F13FC147F13EC112
:102F000046F13DC145F13CC144F135853F513B5D42
:102F10001DE30BE13E513A5D19E307E13D51395D97
:102F200015E303E138513C5D11E23FC143F13EC17D
:102F300042F13DC141F13CC140F13BC147F13AC1D1
:102F400046F139C145F138C144F13595376B640E0E
:102F5000366F83A004D083B0FED7189CD3D283A44D
:102F600001D0358335A103D04B2AD8B44C2A4F2A3F
:102F70004D2AD8B44E2A375309E14F50365D06E248
:102F800035A702D0359701D035874F6A4A2D34D006
:102F9000000E35B7010E010A000103E0010A17E037
:102FA0002AD04CC178F10101796931C17DF130C17C
:102FB0007CF12FC17BF12EC17AF17E697F6B806B32
:102FC000816B050E826F0001EFEC08F014D0010157
:102FD0007869796931C17DF130C17CF12FC17BF114
:102FE0002EC17AF17E697F6B806B816B050E826FDB
:102FF0000001EFEC08F001014A510208D8A442D1C7
:10300000000E35B7010E010A000103E0010A17E0C6
:1030100028D0010135A711D0020E786F79697D6B38
:103020007C6B7B6B32C17AF17E697F6B806B816FC9
:10303000050E826F0001EFEC08F0000112D00101D3
:10304000786979697D6B7C6B7B6B32C17AF17E69C3
:103050007F6B806B020E816F050E826F0001EFECBB
:1030600008F06BC062F101016251090805E1010E2F
:103070006C6E500E6D6E04D0010E6C6E280E6D6E6F
:1030800032516C5CD8B06CC032F16D50325DD8B04A
:103090006DC032F1010E325D636F622D26D0816BFF
:1030A00063C180F1836B040E826F000185EC0EF02A
:1030B00002C003F00150F2CF64F1F29E02C0F7FFAC
:1030C00080EC01F00900F5CF01F00900F5CF02F026
:1030D0000900F5CF03F0010164BFF28E03C069F06F
:1030E00002C068F001C067F0666E625102082BE111
:1030F000816B63C180F1836B040E826F000185ECEC
:103100000EF002C003F00150A00F016E000E03226A
:103110000150F2CF64F1F29E03C0F7FF80EC01F0A2
:103120000900F5CF01F00900F5CF02F00900F5CF55
:1031300003F0010164BFF28E03C069F002C068F0C1
:1031400001C067F0666E625103082BE1816B63C1B9
:1031500080F1836B040E826F000185EC0EF002C0DB
:1031600003F00150400F016E010E03220150F2CF17
:1031700064F1F29E03C0F7FF80EC01F00900F5CF87
:1031800001F00900F5CF02F00900F5CF03F00101CD
:1031900064BFF28E03C069F002C068F001C067F03E
:1031A000666E625109085EE1635127082BE3816B6B
:1031B00063C180F1836B040E826F000185EC0EF019
:1031C00002C003F00150A00F016E000E0322015057
:1031D000F2CF64F1F29E03C0F7FF80EC01F009002A
:1031E000F5CF01F00900F5CF02F00900F5CF03F0AB
:1031F000010164BFF28E03C069F002C068F001C033
:1032000067F0666E635127082DE2280E635D656FD7
:10321000816B806F836B040E826F000185EC0EF072
:1032200002C003F00150400F016E010E0322015055
:10323000F2CF64F1F29E03C0F7FF80EC01F00900C9
:10324000F5CF01F00900F5CF02F00900F5CF03F04A
:10325000010164BFF28E03C069F002C068F001C0D2
:1032600067F0666E66C000F067C001F068C002F0EB
:1032700069C003F003C031F102C030F101C02FF189
:1032800000C02EF14A51030842E1000E35B7010E8D
:10329000010A000103E0010A18E02CD0020E01012E
:1032A000786F796931C17DF130C17CF12FC17BF13B
:1032B0002EC17AF132C17EF17F6B806B816B050E7E
:1032C000826F0001EFEC08F015D00101786979698F
:1032D00031C17DF130C17CF12FC17BF12EC17AF17A
:1032E00032C17EF17F6B806B816B050E826F0001B6
:1032F000EFEC08F032C164F1D9EC07F003C031F112
:1033000002C030F101C02FF100C02EF1010131C126
:1033100064F130C163F12FC162F12EC161F100018E
:1033200051EC0FF003C031F102C030F101C02FF1B8
:1033300000C02EF131C150F130C14FF12FC14EF11B
:103340002EC14DF15EEC12F0010135B353D04E5257
:1033500003E14D504B5D4EE24A2D3ED035A507D0DE
:10336000050E2E27000E2F233023312306D0050E05
:103370002E5F000E2F5B305B315B3151435D15E3F7
:103380000BE13051425D11E307E12F51415D0DE347
:1033900003E140512E5D09E247C131F146C130F1F0
:1033A00045C12FF144C12EF117D04751315D14E3CF
:1033B0000BE14651305D10E307E145512F5D0CE311
:1033C00003E12E51445D08E243C131F142C130F1C5
:1033D00041C12FF140C12EF14A51020803E04A5188
:1033E000030806E13451325D02E2322B01D0326B28
:1033F0004E6A4D6A35A383D083B402D0358103D0A1
:1034000035914C6A4B6A4C50000804E23591359373
:103410004C6A4B6A020E4D6F00010AEC13F001C0BA
:1034200033F101013351030803E033510B0815E177
:103430004A2D06D00A0E2E27000E2F2330233123CB
:103440004A51020803E04A51030806E13451325D53
:1034500002E2322B01D0326B35933351020803E084
:1034600033510C0815E14A2D06D00A0E2E5F000ECE
:103470002F5B305B315B4A51020803E04A5103087D
:1034800006E1325302E0320702D034C132F1359303
:103490004A2D2FD03151435D15E30BE13051425D90
:1034A00011E307E12F51415D0DE303E140512E5D32
:1034B00009E247C131F146C130F145C12FF144C1A4
:1034C0002EF117D04751315D14E30BE14651305DC9
:1034D00010E307E145512F5D0CE303E12E51445DFC
:1034E00008E243C131F142C130F141C12FF140C185
:1034F0002EF183A004D083B0FED7189C03D018AC63
:1035000001D027D583A418D031C126F030C125F0D1
:103510002FC124F02EC123F04A51020802E132C12A
:103520006AF04A510308D8B432C133F0010E646F17
:10353000000165EC0EF00101010E016E000195EF36
:1035400037F0F2CF0DF0F29EE824F76AF736670FF6
:10355000F66E350EF7220A00F550FA6E0800F550A7
:103560000DBEF28EF96E882990299829A029C829C4
:10357000C829C829C829C829C829A829B029B8290B
:10358000C029F2CF0DF0F29EE824F76AF736A70FB4
:10359000F66E350EF7220A00F550FA6E0800F55067
:1035A0000DBEF28EF96E702E762E7E2E862E8E2E0B
:1035B000962E0F0E0101616F626B6251070841E3A5
:1035C000000E17BA010E636F6251040DF350010F24
:1035D000036A7B0FE96E000E0320EA6EEF50635D15
:1035E0002EE1000E18B4010E636F6251040DF3500A
:1035F000020F036A7B0FE96E000E0320EA6EEF50A4
:10360000635D1DE1000E18B2010E636F6251040D7F
:10361000F350030F036A7B0FE96E000E0320EA6E7E
:10362000EF50635D0CE16251040DF350036A7B0FB0
:10363000E96E000E0320EA6EEFCF61F102D0622B3B
:10364000BCD717AA07D0010E636F00010FEC06F07C
:1036500005D00101636B00010FEC06F018A407D040
:10366000010E0101636F000133EC06F005D001018A
:10367000636B000133EC06F018A207D0010E0101C4
:10368000636F00015FEC06F005D00101636B000180
:103690005FEC06F0050E01016D6F61C16EF1000176
:1036A00086EC03F0010161C101F000011200030E7C
:1036B00001017F6F000105EC06F012000101646B4F
:1036C000000165EC0EF001C061F10101612D17D020
:1036D000646B35C065F10001C2EC07F003C059F01E
:1036E00002C058F001C057F000C056F059C026F093
:1036F00058C025F057C024F056C023F00101615195
:10370000020818E1010E646F35C065F10001C2ECDA
:1037100007F003C05DF002C05CF001C05BF000C0C8
:103720005AF05DC026F05CC025F05BC024F05AC0A2
:1037300023F001016151030813E10001B8DF03C068
:1037400026F002C025F001C024F000C023F0040ED2
:103750000101646F0001B5EC03F001C033F0010119
:1037600061510408D8A410D16BC062F162510908FC
:1037700005E1010E6C6E500E6D6E04D0010E6C6E84
:10378000280E6D6E6A506C5CD8B06CC06AF06D50DB
:103790006A5CD8B06DC06AF0010E6A5C636F622D1E
:1037A00026D0816B63C180F1836B040E826F0001B0
:1037B00085EC0EF002C003F00150F2CF64F1F29EEE
:1037C00002C0F7FF80EC01F00900F5CF01F009001D
:1037D000F5CF02F00900F5CF03F0010164BFF28ECE
:1037E00003C069F002C068F001C067F0666E625104
:1037F00002082BE1816B63C180F1836B040E826F41
:10380000000185EC0EF002C003F00150A00F016E24
:10381000000E03220150F2CF64F1F29E03C0F7FFC5
:1038200080EC01F00900F5CF01F00900F5CF02F0BE
:103830000900F5CF03F0010164BFF28E03C069F007
:1038400002C068F001C067F0666E625103082BE1A8
:10385000816B63C180F1836B040E826F000185EC84
:103860000EF002C003F00150400F016E010E032262
:103870000150F2CF64F1F29E03C0F7FF80EC01F03B
:103880000900F5CF01F00900F5CF02F00900F5CFEE
:1038900003F0010164BFF28E03C069F002C068F05A
:1038A00001C067F0666E625109085EE16351270846
:1038B0002BE3816B63C180F1836B040E826F000187
:1038C00085EC0EF002C003F00150A00F016E000E57
:1038D00003220150F2CF64F1F29E03C0F7FF80ECA7
:1038E00001F00900F5CF01F00900F5CF02F0090061
:1038F000F5CF03F0010164BFF28E03C069F002C08E
:1039000068F001C067F0666E635127082DE2280E4B
:10391000635D656F816B806F836B040E826F000146
:1039200085EC0EF002C003F00150400F016E010E55
:1039300003220150F2CF64F1F29E03C0F7FF80EC46
:1039400001F00900F5CF01F00900F5CF02F0090000
:10395000F5CF03F0010164BFF28E03C069F002C02D
:1039600068F001C067F0666E66C000F067C001F0E5
:1039700068C002F069C003F003C026F002C025F061
:1039800001C024F000C023F061C101F00001120069
:103990003650020826E16B50020802E36B2A02D07F
:1039A000010E6B6E6BC060F175EC03F0010178697C
:1039B00037C079F17D6B7C6B7B6B6AC07AF17E6975
:1039C0007F6B806B020E816F826B0001EFEC08F061
:1039D000070E01016D6F6BC06EF1000186EC03F004
:1039E0006DDE1200365002080AE018A202D01892CA
:1039F00002D018941882DDDD01C037F001D0C8DF95
:103A00001200020E01016F6F6AC173F169C172F198
:103A100068C171F167C170F100012AEC04F01FEF79
:103A20001EF0020E01017F6F000105EC06F040EF71
:103A30001EF0040E010168256D6F6F6F6CC173F18C
:103A40006BC172F16AC171F169C170F100012AECB8
:103A500004F012006CC136F0030E01016D6F6CC1F1
:103A60006EF1000186EC03F012006DC175F1365263
:103A70000CE101016C5302E1010E746F6C2D02D058
:103A80000C0E746F0F0E766F0001362C06D0020EEE
:103A90000101746F72C176F10001000E18B0010EC1
:103AA0000101776F74C178F175C179F171C17DF150
:103AB00070C17CF16FC17BF16EC17AF176C17EF18C
:103AC0007F6B806B816F73C182F10001EFEC08F0B6
:103AD000120001016A6B6A5101083EE336C06BF1C6
:103AE000010E6C6F0001B6DF63C16CF164C16DF152
:103AF00068C171F167C170F166C16FF165C16EF1A6
:103B000069C172F10101736B0001AFDF38EC03F0A2
:103B1000320E01016C6F000100EC03F063C16CF127
:103B200064C16DF168C171F167C170F166C16FF177
:103B300065C16EF10F0E0101726F736B000195DFAD
:103B4000960E01016C6F000100EC03F06BC16CF18B
:103B500081DF01016A2BBFD700011200010164510E
:103B6000040816E0000E17BC010E656F6C6F37C0BD
:103B70006DF126C071F125C070F124C06FF123C032
:103B80006EF133C072F1736B00016FDF13D001016E
:103B9000060E6B24656F786979697D6B7C6B7B6B36
:103BA0006AC07AF17E697F6B806B816F826B0001E6
:103BB000EFEC08F01200010E0101646F000165ECEA
:103BC0000EF001C061F101016291602D1AD0000177
:103BD00038EC03F017BC06D0178C020E0101616FA0
:103BE00005D00001179C010E0101616F000E17BC8A
:103BF000010E636F6D6B6E6F000186EC03F00101C7
:103C000062916051020851E1000E17BC010E636F12
:103C1000646F35C065F10001C2EC07F003C066F1C6
:103C200002C065F101C064F100C063F103C06AF134
:103C300002C069F101C068F100C067F1E2D6000E70
:103C400017BC010E0101636F33C064F10001D9ECB0
:103C500007F003C067F102C066F101C065F100C062
:103C600064F163C168F135C069F103C06DF102C050
:103C70006CF101C06BF100C06AF1BCEC0DF0D1D663
:103C800003C066F102C065F101C064F100C063F1D8
:103C900033C068F103C06CF102C06BF101C06AF17E
:103CA00000C069F1C6DE010162816051030837E19D
:103CB000615103081DE3000E17BC010E636F000184
:103CC000F6DC03C067F102C066F101C065F100C017
:103CD00064F163C168F135C069F103C06DF102C0E0
:103CE0006CF101C06BF100C06AF1BCEC0DF0010198
:103CF0006151040813E1000E17BC010E636F686F79
:103D000035C069F126C06DF125C06CF124C06BF19E
:103D100023C06AF10001BCEC0DF001016281605129
:103D200004083BE1615102081EE3000E17BC010EBE
:103D3000636F646F35C065F10001C2EC07F003C02A
:103D400066F102C065F101C064F100C063F133C0E7
:103D500068F103C06CF102C06BF101C06AF100C0F0
:103D600069F167DE01016151030816E100019FDC82
:103D700003C066F102C065F101C064F100C063F1E7
:103D800033C068F103C06CF102C06BF101C06AF18D
:103D900000C069F14EDE010162816051050819E140
:103DA000365205E1030E616F010E366E09D0366A98
:103DB00017BC02D0010E616F17AC02D0020E616F0A
:103DC000030E6D6F36C06EF1000186EC03F0010149
:103DD000629162A110D0636937C064F126C068F1B6
:103DE00025C067F124C066F123C065F133C069F1D5
:103DF00000016FDE01010001E1EC07F001C063F199
:103E000001C064F1ABDE83B203D082AA01D082ACE0
:103E1000FAD71A9C120017AA02D0179A01D0178A53
:103E2000D9EC1AF001C037F0120038EC03F00101B0
:103E300061510208D8A0A0D082B65DD0000E17BC98
:103E4000010E626F686F35C069F126C06DF125C043
:103E50006CF124C06BF123C06AF10001BCEC0DF0E1
:103E60000101605307E1355203E1090E356E01D0BF
:103E7000350606D03550090802E1356A01D0352AE9
:103E8000010E6D6F35C06EF1000186EC03F0000E7F
:103E900017BC010E0101626F646F35C065F100014E
:103EA000C2EC07F003C026F002C025F001C024F0E8
:103EB00000C023F00101646B35C065F10001C2EC64
:103EC00007F003C059F002C058F001C057F000C01D
:103ED00056F0010E0101646F35C065F10001C2ECBE
:103EE00007F003C05DF002C05CF001C05BF000C0F1
:103EF0005AF043D00101605320E16150265C14E385
:103F00000BE16050255C10E307E15F50245C0CE39B
:103F100003E123505E5C08E2500E235EC30E245A78
:103F2000000E255A265A08D065C026F064C025F038
:103F300063C024F062C023F01FD02650655C14E3F8
:103F40000BE12550645C10E307E12450635C0CE353
:103F500003E16250235C08E2500E2326C30E2422A4
:103F6000000E2522262208D061C026F060C025F070
:103F70005FC024F05EC023F000010101615103081D
:103F80001DE1605307E1335202E0330602D00E0E0A
:103F9000336E06D033500D0802E3332A01D0336A62
:103FA00033C064F10001D9EC07F003C026F002C071
:103FB00025F001C024F000C023F001016151040884
:103FC000D8A41BD1605305E16A50010801E26A06DA
:103FD00004D06D506A5C01E26A2A6BC062F16251E2
:103FE000090805E1010E6C6E500E6D6E04D0010ED5
:103FF0006C6E280E6D6E6A506C5CD8B06CC06AF046
:104000006D506A5CD8B06DC06AF0010E6A5C636F77
:10401000622D26D0816B63C180F1836B040E826FA9
:10402000000185EC0EF002C003F00150F2CF64F104
:10403000F29E02C0F7FF80EC01F00900F5CF01F01D
:104040000900F5CF02F00900F5CF03F0010164BFCC
:10405000F28E03C069F002C068F001C067F0666EBE
:10406000625102082BE1816B63C180F1836B040E06
:10407000826F000185EC0EF002C003F00150A00F2A
:10408000016E000E03220150F2CF64F1F29E03C0D4
:10409000F7FF80EC01F00900F5CF01F00900F5CF42
:1040A00002F00900F5CF03F0010164BFF28E03C0F6
:1040B00069F002C068F001C067F0666E62510308E3
:1040C0002BE1816B63C180F1836B040E826F000171
:1040D00085EC0EF002C003F00150400F016E010E9E
:1040E00003220150F2CF64F1F29E03C0F7FF80EC8F
:1040F00001F00900F5CF01F00900F5CF02F0090049
:10410000F5CF03F0010164BFF28E03C069F002C075
:1041100068F001C067F0666E625109085EE16351A4
:1041200027082BE3816B63C180F1836B040E826FE0
:10413000000185EC0EF002C003F00150A00F016EEB
:10414000000E03220150F2CF64F1F29E03C0F7FF8C
:1041500080EC01F00900F5CF01F00900F5CF02F085
:104160000900F5CF03F0010164BFF28E03C069F0CE
:1041700002C068F001C067F0666E635127082DE247
:10418000280E635D656F816B806F836B040E826F99
:10419000000185EC0EF002C003F00150400F016EEB
:1041A000010E03220150F2CF64F1F29E03C0F7FF2B
:1041B00080EC01F00900F5CF01F00900F5CF02F025
:1041C0000900F5CF03F0010164BFF28E03C069F06E
:1041D00002C068F001C067F0666E66C000F067C09C
:1041E00001F068C002F069C003F003C026F002C00D
:1041F00025F001C024F000C023F0010E646F00011F
:1042000065EC0EF01200365002080BE018A402D044
:10421000189402D018921884D9EC1AF001C037F023
:1042200005D01BA402D01B9401D01B8412000101F5
:10423000706B716B010E726FDA6AD96A756F680EF6
:10424000746F010EEA6E6C0EE96E75C1E2FF74C107
:10425000E1FF72C173F1D890E550EE02F350702384
:10426000F4507123732FF7D770C1DEFF71C170F165
:10427000716BD8B0712B742BD8B4752B722B725113
:104280000508DFE10001120038EC03F018921894E1
:104290001B94D9EC1AF001C037F0010E0101646FD4
:1042A000000165EC0EF001C060F1010160510308EE
:1042B00041E30B0E6D6F36C06EF1000186EC03F02A
:1042C000020E366E030E01016D6F36C06EF10001F5
:1042D00086EC03F05EEC1BF0070E0101646F000139
:1042E000B5EC03F001C06BF026C064F125C063F1AA
:1042F00024C062F123C061F151EC0FF003C026F03D
:1043000002C025F001C024F000C023F0010178694B
:1043100037C079F17D6B7C6B7B6B6AC07AF17E690B
:104320007F6B806B020E816F826B0001EFEC08F0F7
:104330003DD00101605104083AE10B0E646F0001A9
:10434000B5EC03F001C036F0030E01016D6F36C00D
:104350006EF1000186EC03F05EEC1BF026C064F108
:1043600025C063F124C062F123C061F151EC0FF06C
:1043700003C026F002C025F001C024F000C023F0E5
:10438000000E17BC010E0101616F6C6F37C06DF13B
:1043900026C071F125C070F124C06FF123C06EF109
:1043A00033C072F1736B000135EC1DF001010001A7
:1043B000120001013E6B3D6B3C6B04C13BF10339C4
:1043C000006E0F0E001600500F0B3F6F406B416BDD
:1043D000426B03510F0B436F446B456B466B0239C5
:1043E000006E0F0E001600500F0B476F486B496BA5
:1043F0004A6B02510F0B4B6F4C6B4D6B4E6B01397F
:10440000006E0F0E001600500F0B4F6F506B516B6C
:10441000526B01510F0B536F546B556B566B003938
:10442000006E0F0E001600500F0B576F586B596B34
:104430005A6B00510F0B5B6F5C6B5D6B5E6B646B5B
:10444000000165EC0EF001C05FF101013B51006E0F
:104450003C51036E035006E1010E005C0001D8B42C
:104460007AD00101035006E1020E005C0001D8B4CD
:1044700078D00101035006E1030E005C0001D8B4BE
:104480007AD00101035006E1040E005C0001D8B4AB
:104490007CD00101035006E1050E005C0001D8B498
:1044A00079D00101035006E1060E005C0001D8B48A
:1044B0007BD00101035006E1070E005C0001D8B477
:1044C0007DD00101035006E1080E005C0001D8B464
:1044D00080D00101035006E1090E005C0001D8B450
:1044E00082D00101035006E10A0E005C0001D8B43D
:1044F0007FD00101035006E10B0E005C0001D8B42F
:104500001BD10101035006E10F0E005C0001D8B47D
:104510001DD10101035006E1FC0E005C0001D8B47E
:10452000B9D10101035006E1FE0E005C0001D8B4D0
:10453000BAD10101035006E1FF0E005C0001D8B4BE
:10454000BCD10101035006E1FD0E005C0001D8B4AE
:10455000B7D10101B8D1F2EC1CF038EC03F0010145
:10456000B2D1050E0101606F0001DBEC1DF038ECEB
:1045700003F00101A8D1040E0101606F0001DBEC22
:104580001DF038EC03F001019ED145DC38EC03F05E
:10459000010199D1010E0101606F0001DBEC1DF0FA
:1045A00038EC03F001018FD1030E0101606F0001AF
:1045B000DBEC1DF038EC03F0010185D1010E0101A7
:1045C000606F5FC161F1000130DC38EC03F0010184
:1045D0007AD10101606B5FC161F1000126DC38EC2A
:1045E00003F0010170D10FDE38EC03F001016BD153
:1045F00046C16BF145C16AF144C169F143C168F13B
:1046000001016F6B0F0E6E6F420E6D6F400E6C6F7F
:1046100000010DDE03C063F102C062F101C061F16F
:1046200000C060F14AC16BF149C16AF148C169F14A
:1046300047C168F101016F6B010E6E6F860E6D6FE1
:10464000A00E6C6F0001F3DD0050010160270150E6
:10465000612302506223035063234EC16BF14DC1AD
:104660006AF14CC169F14BC168F16F6B6E6B270E3B
:104670006D6F100E6C6F0001DADD005001016027D4
:1046800001506123025062230350632352C16BF136
:1046900051C16AF150C169F14FC168F16F6B6E6B26
:1046A000030E6D6FE80E6C6F0001C1DD005001015B
:1046B000602701506123025062230350632356C1D7
:1046C0006BF155C16AF154C169F153C168F16F6B67
:1046D0006E6B6D6B640E6C6F0001A9DD0050010103
:1046E00060270150612302506223035063235AC1A3
:1046F0006BF159C16AF158C169F157C168F16F6B2B
:104700006E6B6D6B0A0E6C6F000191DD0050010144
:1047100060270150612302506223035063235B51E1
:104720006025236E5C516121246E5D516221256EEE
:104730005E516321266EC7D0020E0101606F000139
:10474000DBEC1DF038EC03F00101BDD05AC16BF178
:1047500059C16AF158C169F157C168F101016F6B24
:104760000F0E6E6F420E6D6F400E6C6F00015FDDBD
:1047700003C063F102C062F101C061F100C060F1E9
:104780005EC16BF15DC16AF15CC169F15BC168F149
:1047900001016F6B010E6E6F860E6D6FA00E6C6F58
:1047A000000145DD005001016027015061230250E6
:1047B00062230350632352C16BF151C16AF150C1AE
:1047C00069F14FC168F16F6B6E6B270E6D6F100E44
:1047D0006C6F00012CDD0050010160270150612346
:1047E000025062230350632356C16BF155C16AF135
:1047F00054C169F153C168F16F6B6E6B030E6D6F3D
:10480000E80E6C6F000113DD0050010160270150BC
:10481000612302506223035063234AC16BF149C1F3
:104820006AF148C169F147C168F16F6B6E6B6D6BDE
:10483000640E6C6F0001FBDC005001016027015029
:10484000612302506223035063234EC16BF14DC1BB
:104850006AF14CC169F14BC168F16F6B6E6B6D6BA6
:104860000A0E6C6F0001E3DC00500101602701506B
:10487000612302506223035063233F516025236E5E
:1048800040516121246E41516221256E42516321C4
:10489000266E19D038EC03F017B802D0178801D073
:1048A0001798010110D01F0E01016D6F6E69000194
:1048B00086EC03F0FF00010106D0FF00010103D0E8
:1048C00017B8E2DC01013E5308E13D5306E13C53D9
:1048D00004E13B51DF08D8B0CBD03E53D8A4C8D0B8
:1048E0003D53D8A4C5D03C53D8A4C2D03B51EE0808
:1048F000D8A0BED0E00E3B5D606F000E3C59616FEA
:10490000000E3D59626F000E3E59636F46C16BF158
:1049100045C16AF144C169F143C168F16F6B0F0E83
:104920006E6F420E6D6F400E6C6F000180DC03C035
:1049300067F102C066F101C065F100C064F14AC1CF
:104940006BF149C16AF148C169F147C168F10101E0
:104950006F6B010E6E6F860E6D6FA00E6C6F000197
:1049600066DC005001016427015065230250662374
:10497000035067234EC16BF14DC16AF14CC169F11F
:104980004BC168F16F6B6E6B270E6D6F100E6C6F05
:1049900000014DDC005001016427015065230250E5
:1049A00066230350672352C16BF151C16AF150C1B4
:1049B00069F14FC168F16F6B6E6B030E6D6FE80E9E
:1049C0006C6F000134DC0050010164270150652345
:1049D000025066230350672356C16BF155C16AF13B
:1049E00054C169F153C168F16F6B6E6B6D6B640EEE
:1049F0006C6F00011CDC005001016427015065232D
:104A000002506623035067235AC16BF159C16AF102
:104A100058C169F157C168F16F6B6E6B6D6B0A0E0F
:104A20006C6F000104DC0050010164270150652314
:104A300002506623035067235B5164275C51652352
:104A40005D5166235E51672360C168F167C16CF1F7
:104A500066C16BF165C16AF164C169F1000119ECCD
:104A60001DF0030E0101606F000175EC03F0010100
:104A70001888010E016E0001F4EF2CF0010145537E
:104A800010E1466B465124080BE3036A4651B30F0D
:104A9000E96E000E0320EA6E300EEF6E462BF2D761
:104AA0000FD0476B475117080BE3036A47519B0F21
:104AB000E96E000E0320EA6E300EEF6E472BF2D740
:104AC000000112009EA8FED701014851AD6EACA2B4
:104AD000FED7020E496FCF0E8F6F00014AEC08F02F
:104AE0000101492FF8D7000112000101466B465120
:104AF00017081BE3036A46519B0FE96E000E032063
:104B0000EA6EEFCF47F147C148F10001DBDF036AEE
:104B1000010146519B0FE96E000E0320EA6EEF5033
:104B20003B08D8B402D0462BE2D7000112001AAAE3
:104B300011D00101456B0001A1DFD9C09BF0DAC0A3
:104B40009CF0DBC09DF0DCC09EF0DDC09FF03B0E12
:104B5000A06FCBDFF2EF2BF001010251300801E131
:104B60001A900251310801E11A800001F6EF2BF092
:104B7000365215E10101465309E159C029F158C0E7
:104B800028F157C027F156C026F108D05DC029F1A1
:104B90005CC028F15BC027F15AC026F10001362C19
:104BA00008D026C029F125C028F124C027F123C050
:104BB00026F136500208D8A41DD11BB413D16BC006
:104BC00062F101016251090805E1010E6C6E500E9F
:104BD0006D6E04D0010E6C6E280E6D6E6A506C5CAA
:104BE000D8B06CC06AF06D506A5CD8B06DC06AF025
:104BF000010E6A5C636F622D26D0816B63C180F108
:104C0000836B040E826F000185EC0EF002C003F08E
:104C10000150F2CF64F1F29E02C0F7FF80EC01F088
:104C20000900F5CF01F00900F5CF02F00900F5CF3A
:104C300003F0010164BFF28E03C069F002C068F0A6
:104C400001C067F0666E625102082BE1816B63C19F
:104C500080F1836B040E826F000185EC0EF002C0C0
:104C600003F00150A00F016E000E03220150F2CF9D
:104C700064F1F29E03C0F7FF80EC01F00900F5CF6C
:104C800001F00900F5CF02F00900F5CF03F00101B2
:104C900064BFF28E03C069F002C068F001C067F023
:104CA000666E625103082BE1816B63C180F1836BF7
:104CB000040E826F000185EC0EF002C003F001507B
:104CC000400F016E010E03220150F2CF64F1F29EFB
:104CD00003C0F7FF80EC01F00900F5CF01F00900F7
:104CE000F5CF02F00900F5CF03F0010164BFF28EA9
:104CF00003C069F002C068F001C067F0666E6251DF
:104D000009085EE1635127082BE3816B63C180F1E1
:104D1000836B040E826F000185EC0EF002C003F07D
:104D20000150A00F016E000E03220150F2CF64F17A
:104D3000F29E03C0F7FF80EC01F00900F5CF01F00F
:104D40000900F5CF02F00900F5CF03F0010164BFBF
:104D5000F28E03C069F002C068F001C067F0666EB1
:104D6000635127082DE2280E635D656F816B806FAC
:104D7000836B040E826F000185EC0EF002C003F01D
:104D80000150400F016E010E03220150F2CF64F179
:104D9000F29E03C0F7FF80EC01F00900F5CF01F0AF
:104DA0000900F5CF02F00900F5CF03F0010164BF5F
:104DB000F28E03C069F002C068F001C067F0666E51
:104DC00066C000F067C001F068C002F069C003F07F
:104DD00003C029F102C028F101C027F100C026F16B
:104DE0000AD0000126C029F125C028F124C027F1EE
:104DF00023C026F10101265307E1275305E128537B
:104E000003E12953D8B4ADD029C18DF128C18CF16B
:104E100027C18BF126C18AF18DC191F18CC190F12E
:104E20008BC18FF18AC18EF11F6B91530DE19051AF
:104E30000E0815E2FF0A08E18F51410810E2FF0A4F
:104E400003E18E513F080BE2400E8E5F420E8F5BF6
:104E50000F0E905B000E915B010E1F27E6D7206BB3
:104E600091530DE19051000815E2FF0A08E18F51BE
:104E7000850810E2FF0A03E18E519F080BE2A00EA5
:104E80008E5F860E8F5B010E905B000E915B010EB4
:104E90002027E6D7216B91530AE1905308E18F5107
:104EA00026080FE2FF0A03E18E510F080AE2100EF6
:104EB0008E5F270E8F5B000E905B915B010E2127AA
:104EC000EAD7226B91530AE1905308E18F5102080F
:104ED0000FE2FF0A03E18E51E7080AE2E80E8E5F57
:104EE000030E8F5B000E905B915B010E2227EAD7C9
:104EF000236B915307E1905305E18F5303E18E51EA
:104F0000630809E2640E8E5F000E8F5B905B915B1D
:104F1000010E2327EED7246B915307E1905305E14F
:104F20008F5303E18E51090809E20A0E8E5F000ECD
:104F30008F5B905B915B010E2427EED7256B91531D
:104F400007E1905305E18F5303E18E51000809E218
:104F5000010E8E5F000E8F5B905B915B010E25272B
:104F6000EED7455324E0300E1F250001B86F300EF8
:104F7000010120250001B96F300E0101212500013A
:104F8000BA6F300E010122250001BB6F300E010106
:104F900023250001BC6F300E010124250001BD6FE7
:104FA000300E010125250001BE6F23D00101300E16
:104FB0001F250001A06F300E010120250001A16F07
:104FC000300E010121250001A26F300E01012225C2
:104FD0000001A36F300E010123250001A46F300EE4
:104FE000010124250001A56F300E010125250001D6
:104FF000A66F12000101456B000140DD0101456B08
:1050000044C146F10001B4DD460E9B6F01014453DB
:1050100004E1410E00019C6F03D0420E00019C6F21
:105020003B0EA86F62DD1200036A010144519B0F21
:10503000E96E000E0320EA6E05C1EFFF010E442564
:10504000036A9B0FE96E000E0320EA6E06C1EFFFB4
:10505000020E4425036A9B0FE96E000E0320EA6EE0
:1050600007C1EFFF030E4425036A9B0FE96E000E94
:105070000320EA6E08C1EFFF040E4425036A9B0F6C
:10508000E96E000E0320EA6E09C1EFFF050E44250C
:10509000036A9B0FE96E000E0320EA6E0AC1EFFF60
:1050A000060E4425036A9B0FE96E000E0320EA6E8C
:1050B0000BC1EFFF036A44519B0FE96E000E032002
:1050C000EA6E300EEF5C456F010E4425036A9B0FBC
:1050D000E96E000E0320EA6E300EEF5C466F020EA2
:1050E0004425036A9B0FE96E000E0320EA6E300E22
:1050F000EF5C476F030E4425036A9B0FE96E000EB9
:105100000320EA6E300EEF5C486F040E4425036AFC
:105110009B0FE96E000E0320EA6E300EEF5C496FC4
:10512000050E4425036A9B0FE96E000E0320EA6E0C
:10513000300EEF5C4A6F060E4425036A9B0FE96E42
:10514000000E0320EA6E300EEF5C4B6F45C14CF150
:1051500046C14DF147C14EF148C14FF149C150F12F
:105160004AC151F14BC152F1566B556B546B4CC156
:1051700053F156C16BF155C16AF154C169F14CC18B
:1051800068F16F6B0F0E6E6F420E6D6F400E6C6F9D
:10519000000117EC21F003C056F102C055F101C027
:1051A00054F100C053F101015A6B596B586B4DC15A
:1051B00057F15AC16BF159C16AF158C169F14DC13A
:1051C00068F16F6B010E6E6F860E6D6FA00E6C6FC7
:1051D000000117EC21F00050010153270150542326
:1051E00002505523035056235A6B596B586B4EC1CE
:1051F00057F15AC16BF159C16AF158C169F14EC1F9
:1052000068F16F6B6E6B270E6D6F100E6C6F000187
:1052100017EC21F000500101532701505423025094
:105220005523035056235A6B596B586B4FC157F196
:105230005AC16BF159C16AF158C169F14FC168F1A6
:105240006F6B6E6B030E6D6FE80E6C6F000117ECE9
:1052500021F00050010153270150542302505523DF
:10526000035056235A6B596B586B50C157F15AC1B2
:105270006BF159C16AF158C169F150C168F16F6BA6
:105280006E6B6D6B640E6C6F000117EC21F00050BB
:105290000101532701505423025055230350562334
:1052A0005A6B596B586B51C157F15AC16BF159C1C7
:1052B0006AF158C169F151C168F16F6B6E6B6D6B2A
:1052C0000A0E6C6F000117EC21F00050010153270A
:1052D000015054230250552303505623016A026A99
:1052E000036A525153252A6F015054212B6F0250EB
:1052F00055212C6F035056212D6F2AC100F02BC170
:1053000001F02CC102F02DC103F0000192EF29F051
:105310000101456B00013EEC25F0050E0101446FD3
:10532000000182D603C02DF102C02CF101C02BF187
:1053300000C02AF1179C010143B1178C2DC126F042
:105340002CC125F02BC124F02AC123F0435309E1DD
:1053500026C059F025C058F024C057F023C056F09D
:1053600008D026C05DF025C05CF024C05BF023C0EF
:105370005AF043C144F100013DDE1200010E01016B
:10538000646F000165EC0EF001014351300815E136
:10539000366A179C000E17BC010E446F646F35C04F
:1053A00065F10001C2EC07F003C026F002C025F051
:1053B00001C024F000C023F001014351310815E180
:1053C000366A178C000E17BC010E446F646F35C02F
:1053D00065F10001C2EC07F003C026F002C025F021
:1053E00001C024F000C023F001014351320810E154
:1053F000010E366E33C064F10001D9EC07F003C032
:1054000026F002C025F001C024F000C023F0010105
:10541000030E6D6F36C06EF1000186EC03F0000ED6
:1054200017BC010E0101446F6D6B6E6F000186ECBD
:1054300003F032EF2CF0460E9B6F0101445304E160
:10544000520E00019C6F03D0540E00019C6F0101AD
:10545000455304E1300E00019D6F03D0310E000171
:105460009D6F3B0E9E6F75EC25F012000101456BA0
:1054700000013EEC25F00101025130082FE117AC8C
:1054800010D0010E686F35C069F15DC06DF15CC070
:105490006CF15BC06BF15AC06AF10001BCEC0DF01D
:1054A0000101179C6D6B6E6B000186EC03F059C017
:1054B00026F058C025F057C024F056C023F0010153
:1054C000435306E1446B456B0001B5DF06D0010193
:1054D000010E446F456B0001AEDF0101025131083E
:1054E00030E117BC0FD0686B35C069F159C06DF160
:1054F00058C06CF157C06BF156C06AF10001BCECAA
:105500000DF00101178C6D6B010E6E6F000186ECC2
:1055100003F05DC026F05CC025F05BC024F05AC0EB
:1055200023F00101435307E1446B010E456F000175
:1055300082DF06D00101010E446F456F00017BDF61
:105540000101000112000101456B00013EEC25F054
:105550000101435310E117BC05D0446B456B0001BA
:105560006ADF010117AC06D0446B010E456F0001E4
:1055700062DF010110D017BC06D0010E446F456BED
:10558000000159DF010117AC06D0010E446F456FD1
:10559000000151DF010100011200010E0101456F00
:1055A000466B0001B8EC25F03350090807E2310ED4
:1055B000CD6F0A0E335C300FCE6F04D0300ECD6F3E
:1055C0003324CE6F1AA803D0310ECF6F02D0300E25
:1055D000CF6F20C0D0F017BC03D0300ED16FD36F87
:1055E00017AC03D0310ED16FD36F300ED26F1200D3
:1055F0000101436B4351250817E3036A4351B30F7D
:10560000E96E000E0320EA6EEFCF44F144C148F189
:10561000000162EC25F0010E0101456F00013EEC36
:1056200025F00101432BE6D70001120001010251D0
:10563000300801E11A9A0251310801E11A8A000E7C
:105640001ABA010E436F0F0E6D6F43C16EF1000168
:1056500086EC03F038EC03F059EF2CF04C0E9B6F06
:105660004B0E9C6F0101435304E1300E00019D6F0E
:1056700003D0310E00019D6F3B0E9E6F75EC25F03F
:1056800012000101456B00013EEC25F017BA04D071
:105690000101436B0001E2DF17AA05D0010E0101F1
:1056A000436F0001DBDF5CEF2CF00101456B000173
:1056B0003EEC25F001010251300805E1179A436BD9
:1056C0000001CCDF01010251310806E1178A010E09
:1056D000436F0001C3DF01010001D9EC1AF001C0E2
:1056E00037F05FEF2CF00101442D0CD0636B00010B
:1056F0000FEC06F0070E0101826F0001BAEC02F018
:105700000DD00101826B0001BAEC02F017AA06D09D
:10571000010E0101636F00010FEC06F012000101A0
:105720003F6B646B000165EC0EF001C040F10101BC
:10573000426B416B41511E084AE34151040DF35045
:10574000036AF2CF43F1F29E00010FEC01F0010178
:1057500043BFF28E016E005D38E14151040DF350FC
:10576000010F036AF2CF43F1F29E00010FEC01F04A
:10577000010143BFF28E016E015D27E14151040D2D
:10578000F350020F036AF2CF43F1F29E00010FECD7
:1057900001F0010143BFF28E036AE96E010E03249A
:1057A000EA6EEF503B0811E14151040DF350030F35
:1057B000036AF2CF43F1F29E00010FEC01F0010108
:1057C00043BFF28E016E426F02D0412BB3D7010E60
:1057D000425DE20FD8B0C2D01E0F0001BAEF2CF02C
:1057E00097EF25F00101BAD0ACEF25F00101B6D05A
:1057F0000101606B40C161F1000115EC1FF0010E69
:1058000001013F6FABD0010E0101606F40C161F13A
:10581000000115EC1FF0010E01013F6F9FD0010147
:10582000446B0001FAEC27F0010198D0010E010150
:10583000446F0001FAEC27F0010190D00101436BA5
:10584000000166DD010E01013F6F88D0010E0101EC
:10585000436F00015DDD010E01013F6F7FD002C18A
:1058600043F18CD5010E01013F6F78D00101436BEC
:105870000001FCDD020E01013F6F70D00101436B9E
:10588000000161DE01016AD0010E0101436F0001D8
:10589000EDDD020E01013F6F61D0010E0101436F8A
:1058A000000151DE01015AD078DEA2DE010156D09E
:1058B000BDD6010153D0E5D6010150D0F6D6020E77
:1058C00001013F6F4BD0010149D002C120F00E0E03
:1058D00001016D6F20C06EF1000186EC03F0010143
:1058E0003DD0000E17BC010E040DF350036A560F95
:1058F000E96E000E0320EA6EEFCF3BF1ECCF3CF1F6
:10590000ECCF3DF1ECCF3EF1010128D0010126D0D2
:10591000010124D0010122D0010120D001011ED0BB
:105920001A96000E1AB6010E0101436F446F000172
:10593000DADE010113D01A86000E1AB6010E01013B
:10594000436F446F0001CFDE010108D0010106D092
:10595000010104D02180010101D0010121963F53B2
:1059600003E03FC101F003D01888000E016E000172
:10597000FEEF2CF0F2CF0DF0F29EE824F76AF73636
:10598000990FF66E590EF7220A00F550FA6E0800CC
:10599000F5500DBEF28EF96EE057E857F0570658F5
:1059A0001E582C583C584C585E586C587C58885897
:1059B0009A58A858B058B658BC58C658CA58E25851
:1059C0000C591059145918591C59205936594C5909
:1059D0005059545901013A6B1AB209D021A607D087
:1059E00021960001D9EF21F001C03AF101011AA27C
:1059F00008D021A606D02196000191D601C03AF127
:105A0000010121A014D01AB202D01A8201D01A9238
:105A1000000E1AB2010E3B6F0C0E6D6F3BC16EF1A2
:105A2000000186EC03F038EC03F0219001013AC14B
:105A300001F00001120001013151020809E3325165
:105A40002326000E242225222622150E016E14D0B4
:105A50003151030806E133500D0802E3332A01D027
:105A6000336A3151040808E1010E606F31C161F100
:105A7000000115EC1FF0010100015BEF35F00101A1
:105A80003151020809E33251235E000E245A255A8F
:105A9000265A150E016E13D03151030806E1335218
:105AA00002E0330602D00E0E336E3151040807E1D6
:105AB000606B31C161F1000115EC1FF001010001C3
:105AC00065EF35F00101315102080CE3000138ECBB
:105AD00003F0010E0101606F31C161F1000115ECAD
