:0405000046EF39F099
:08050800046ED8CF05F0E0CF2E
:1005100006F00001E9CF0CF0EACF07F0E1CF08F0D8
:10052000E2CF09F0D9CF0AF0DACF0BF0F3CF12F017
:10053000F4CF13F0FACF14F000C00EF001C00FF0AA
:1005400002C010F003C011F09DAAAAEF02F09EBAFB
:10055000B7EF04F00EC000F00FC001F010C002F0C1
:1005600011C003F00CC0E9FF07C0EAFF078E08C006
:10057000E1FF09C0E2FF0AC0D9FF0BC0DAFF12C0D9
:10058000F3FF13C0F4FF14C0FAFF045006C0E0FFED
:1005900005C0D8FF1000F2CF0DF0F29EAE0FF66E40
:1005A000050EF7220900F5500DBEF28E120034251B
:1005B00029001C292900042D2900D4342900BC3825
:1005C0002900A43C29008C4029005C482900444CA7
:1005D00029002C50290014542900E45B2900CC5F29
:1005E0002900B46329009C6729006C6F29005473AB
:1005F00029003C772900247B2900F4822900DC862D
:100600002900C48A29007C962900AC8E2900949286
:100610002900649A29004C9E290034A229001CA6B6
:10062000290004AA2900ECAD2900D4B12900BCB5E9
:100630002900A4B929008CBD290074C129005CC51A
:10064000290044C929002CCD290014D12900BD1D41
:100650002A00A5212A008D252A0075292A005D2D52
:100660002A0045312A002D352A0015392A00FD3C83
:100670002A00E5402A00CD442A00B5482A009D4CB6
:100680002A0085502A006D542A0055582A003D5CE6
:100690002A0025602A000D642A00F5672A00DD6B18
:1006A0002A00C56F2A00AD732A0095772A007D7B4A
:1006B0002A00657F2A004D832A0035872A001D8B7A
:1006C0002A00058F2A00ED922A00D5962A00BD9AAD
:1006D0002A00A59E2A008DA22A0075A62A005DAADE
:1006E0002A0045AE2A002DB22A0015B62A00F2CF04
:1006F0000DF0F29EF76A080FF66E070EF72209005A
:10070000F5500DBEF28E1200A086010020BF02003F
:100710003057050060AE0A0050690F00C05C15003C
:1007200040771B00200B2000009F240080B92A0086
:10073000C0C62D00F2CF0DF0F29EF76A4E0FF66E96
:10074000070EF7220900F5500DBEF28E120050C3BD
:100750000000400D030060CC050080FC0A006090A2
:100760000F0078E5150060C51B00E8BA2000A02541
:100770002600C0C62D00C0C62D00F2CF0DF0F29E9F
:10078000F76A940FF66E070EF7220900F5500DBEBA
:10079000F28E120000000000EF490200010000008C
:1007A000F04902008FD003000100000090D0030048
:1007B0007F1A060002000000801A0600AF710B00CD
:1007C00003000000B0710B008F0510000400000052
:1007D000900510000F2016000500000010201600E4
:1007E0008F3A1C0006000000903A1C006FCE2000DB
:1007F0000700000070CE20009F25260008000000A2
:10080000A02526007F96980009000000F2CF0DF089
:10081000F29EF76A260FF66E080EF7220900F550D1
:100820000DBEF28E1200F0490200400D0300305759
:100830000500801A060060AE0A00B0710B0040424D
:100840000F0090051000C05C1500102016004077C6
:100850001B00903A1C00200B200070CE2000009F4F
:100860002400F0E8260080B92A00C0C62D00000050
:10087000000000000000F2CF0DF0F29EF76A900F2A
:10088000F66E080EF7220900F5500DBEF28E12002A
:100890004944020141490302444E020355500204F7
:1008A000464102054642020646410D0746420D08F2
:1008B000464E03094652030A4652020B4654030CA5
:1008C0004654020D4946020E4945030F4C4B021097
:1008D0004C4B03114D4305124D4403134D52061466
:1008E0004D5717155243021652440217525502181B
:1008F000525403195258021A5458021B5343031CF2
:100900005350031D5941021E00000000000000006A
:1009100000000000000000000000000000000000D7
:1009200000000000000000000000000000000000C7
:1009300000000000000000000000000000000000B7
:1009400000000000000000000000000000000000A7
:1009500000000000000000009EAAFED7ABCF16F0FA
:10096000AECF01F016A202D0AB98AB88120021B630
:1009700027D09EAA25D0F0DF01C0FFF0036A010155
:100980001EC1E9FF010E0324EA6EFFC0EFFF1AB299
:100990000CD00001FF513B0801E1218001011E51F3
:1009A000040802E1218601D01E2B1AA208D0000102
:1009B000FF513B0802E1218603D001011E2B0001FB
:1009C00021A605D09EBAC8DF01011E6B00019E9AC8
:1009D000AAEF02F00101A051F80F24E2080F000174
:1009E00016EF05F0806A01011DD0080E806E01012E
:1009F00019D0040E806E010115D00C0E806E01011D
:100A000011D0020E806E01010DD00A0E806E010120
:100A100009D0060E806E010105D00E0E806E010118
:100A200001D00101A0C12FF000011200F2CF0DF0A2
:100A3000F29EE824F76AF736510FF66E0A0EF72297
:100A40000A00F550FA6E0800F5500DBEF28EF96EF0
:100A5000E409EA09F209FA09020A0A0A120A1A0A58
:100A6000010EEA6E6A0EE96EEF500DE0060E016EA1
:100A7000006A002EFED7012EFBD77B0E006E002EE3
:100A8000FED7EF2EF3D712002FC030F0010E010178
:100A9000A06F00019FDF00D030C0A0F19BDF1200EB
:100AA000818E00D0819E1200650E816EEDDF5D0E9D
:100AB000816EEADF4C0E816EE7DF600E816EF0DF43
:100AC000510E816EEDDF4E0E816EEADFFFEF39F0E1
:100AD0002FC030F0040E0101A06F00017BDF00D0B9
:100AE00030C0A0F177DF12000101606B5F51605DE3
:100AF0000AE20001EDDFC80E01016A6F0001B0DFFC
:100B00000101602BF3D700011200E00E01016B25FB
:100B10006E6FF2CF6FF1F29E6EC1A9FFA69CA69EEA
:100B2000A680A8506FBFF28E6D6F6C516D5DD8B40A
:100B30001BD0E00E6B256E6FF250006EF29E6EC100
:100B4000A9FF6CC1A8FFA69CA69EA6840F01550E06
:100B5000A76EAA0EA76EA682A6B2FED7A6940050D4
:100B6000F2120001B5DF010100011200E00E0101E7
:100B70006225636FF2CF64F1F29E63C1A9FFA69C68
:100B8000A69EA680A85064BFF28E016E00011200DE
:100B900001017C6B7C5103081FE3010E7E6F780E10
:100BA0007D6F7C517D25016E000E7E21036E01500C
:100BB000E96E03C0EAFF7C5173257F6FF2CF80F1AD
:100BC000F29E7FC1A9FFA69CA69EA680A85080BFCA
:100BD000F28EEF6E7C2BDED77851745D0AE179518D
:100BE000755D07E17A51765D04E17B51775DD8B49C
:100BF00032D07C6B7C5103082BE37C5173257D6FD5
:100C0000010E7F6F740E7E6F7C517E25016E000E8B
:100C10007F21036E0150E96E03C0EAFFEFCF7EF142
:100C2000F250006EF29E7DC1A9FF7EC1A8FFA69C76
:100C3000A69EA6840F01550EA76EAA0EA76EA682C9
:100C4000A6B2FED7A6940050F21201017C2BD2D797
:100C500000013EDF010100013FEF06F001016D518F
:100C6000040DF3CF72F172C173F171C177F170C1EC
:100C700076F16FC175F16EC174F1000189D7120070
:100C8000030E01016D6F65C171F164C170F163C143
:100C90006FF162C16EF10001E1DF12000101316B01
:100CA000315109084EE33151040DF350036AF2CF7C
:100CB00032F1F29E00011BDD006E0900F5CF01F05C
:100CC0000900F5CF02F00900F5CF03F0010132BFB2
:100CD000F28E0350305D33E30BE102502F5D2FE3C2
:100CE00007E101502E5D2BE303E100502D5D27E36A
:100CF000010E3125040DF350036AF2CF32F1F29E5A
:100D00000001F5DC006E0900F5CF01F00900F5CF18
:100D100002F00900F5CF03F0010132BFF28E30512D
:100D2000035C0DE30BE12F51025C09E307E12E5157
:100D3000015C05E303E100502D5DD8A002D0312B0A
:100D4000AFD731C101F00001B5EF07F001012C6B05
:100D50002C5112080EE32CC16DF1716B0A0E706FED
:100D6000AE0E6F6F600E6E6F000178DF01012C2BED
:100D7000EFD7130E2C6F2C511D080BE32CC16DF116
:100D8000716B706B6F6B6E6B000168DF01012C2B58
:100D9000F2D71E0E2C6F2C5128082CE31E0E2C5D52
:100DA000040DF350036AF2CF2DF1F29E00019FDC97
:100DB000006E0900F5CF01F00900F5CF02F009003F
:100DC000F5CF03F001012DBFF28E03C030F102C058
:100DD0002FF101C02EF12D6F2CC16DF103C071F107
:100DE00002C070F101C06FF16E6F000137DF0101C9
:100DF0002C2BD1D7290E2C6F2C5133082CE3290E24
:100E00002C5D040DF350036AF2CF2DF1F29E000128
:100E10006EDC006E0900F5CF01F00900F5CF02F09D
:100E20000900F5CF03F001012DBFF28E03C030F1B0
:100E300002C02FF101C02EF12D6F2CC16DF103C046
:100E400071F102C070F101C06FF16E6F000106DF39
:100E500001012C2BD1D7340E2C6F2C5135080BE30C
:100E60002CC16DF1716B706B6F6B6E6B0001F6DEF8
:100E700001012C2BF2D7360E6D6F716B706B270E44
:100E80006F6F100E6E6F0001E9DE370E01016D6F9E
:100E9000716B300E706FD40E6F6F6E6B0001DEDE03
:100EA00001016B6B6C6B000130DE030E01016B6F97
:100EB0006C6B00012ADE040E01016B6F6C6B00018C
:100EC00024DE080E01016B6F6C6B00011EDE090E43
:100ED00001016B6F6C6B000118DE050E01016B6F79
:100EE0000F0E6C6F000111DE020E01016B6F6C6B57
:100EF00000010BDE0C0E01016B6F6C6B000105DE57
:100F00000D0E0101626F000131DE013C06D00D0EB5
:100F100001016B6F6C6B0001F8DD0E0E01016B6F50
:100F2000310E6C6F0001F1DD0F0E01016B6F6C6B08
:100F30000001EBDD0A0E01016B6F010E6C6F000109
:100F4000E4DD0101656B0A0E646FAE0E636F600E27
:100F5000626F000195DE0101306B0A0E2F6FAE0E3D
:100F60002E6F600E2D6F000199D601C02DF1010E7C
:100F700001016B6F01C06CF10001C7DD060E0101BC
:100F80006B6F130E6C6F0001C0DD070E01016B6FFC
:100F90006C6B0001BADD1F0E01016B6F010E6C6FEF
:100FA0000001B3DDFF0025EF3AF001019E6B9E5179
:100FB00003081FE3010EA46F9F0EA36F9E51A3258C
:100FC000016E000EA421036E0150E96E03C0EAFF1A
:100FD0009E519D25A56FF2CFA6F1F29EA5C1A9FF56
:100FE000A69CA69EA680A850A6BFF28EEF6E9E2B52
:100FF000DED79FC100F0A0C101F0A1C102F0A2C1E3
:1010000003F000010DEF08F001019B51040DF3CF37
:101010009CF19CC19DF10001C8D712000101612D16
:1010200005D0050EA06F0001D5DC0101615304E17C
:10103000A06B0001CFDC0101000112002A0E0101AA
:101040009B6F0001E1DF12002A0E01016D6F65C187
:1010500071F164C170F163C16FF162C16EF10001A1
:10106000FDDD12000101612D1ED00001E7DF03C08C
:1010700065F102C064F101C063F100C062F10101D9
:10108000625311E163530FE164530DE165530BE1CA
:1010900025C065F124C064F123C063F122C062F170
:1010A0000001D2DF0101615307E1656B646B636B83
:1010B000626B0001C9DF0101000112000101612D15
:1010C00003D01BB001D01B80615301E11B900001D4
:1010D000120001012D6B2D5107083CE32D51040D29
:1010E000F350036A750FE96E000E0320EA6EEF50AD
:1010F0002C5D2EE12D51040DF350010F036A750F85
:10110000E96E000E0320EA6EEFCF01F0179A01B0EE
:10111000178A2D51040DF350020F036A750FE96E03
:10112000000E0320EA6EEFCF01F0189401B018848E
:101130002D51040DF350030F036A750FE96E000E75
:101140000320EA6EEFCF01F0189201B0188202D0AE
:101150002D2BC1D717AA06D0010E616F00015EDFEB
:1011600004D00101616B000159DF18A406D0010E03
:101170000101616F000176DF04D00101616B0001A4
:1011800071DF18A206D0010E0101616F000196DF28
:1011900004D00101616B000191DF050E01016B6F4D
:1011A0002CC16CF10001B1DC61EF09F0360E0101D8
:1011B0009B6F000129DF03C05BF002C05AF001C041
:1011C00059F000C058F0370E01019B6F00011CDF81
:1011D00003C05FF002C05EF001C05DF000C05CF0D3
:1011E0000101626B0001C2DC179C01B0178C030E79
:1011F0000101626F0001BADC01C029F0040E010197
:10120000626F0001B3DC01C026F0080E0101626FBD
:101210000001ACDC199E01B0198E020E0101626F53
:101220000001A4DC189E01B0188E0C0E0101626F43
:1012300000019CDC1A9201B01A820D0E0101626F4E
:10124000000194DC01C031F00E0E0101626F00015B
:101250008DDC01C020F00F0E0101626F000186DC01
:101260001A9A01B01A8A090E0101626F00017EDC30
:1012700001C02BF0050E0101626F000177DC01C097
:101280002AF0010E0101626F000170DC01C028F03C
:101290000A0E0101626F000169DC1A9E01B01A8E0C
:1012A000070E0101626F000161DC01C065F0060EEE
:1012B0000101626F00015ADC01C064F02AC02CF108
:1012C00008D73150F70F5AE2090FBFEF09F0B8867F
:1012D000110EAF6E040EB06EA60EAC6E900EAB6E1D
:1012E0004DD0B886460EAF6E100EB06EA60EAC6E28
:1012F000900EAB6E43D0B886220EAF6E080EB06E65
:10130000A60EAC6E900EAB6E39D0B886110EAF6ED5
:10131000040EB06EA60EAC6E900EAB6E2FD0B886DB
:10132000080EAF6E020EB06EA60EAC6E900EAB6ED7
:1013300025D0B896400EAF6EA60EAC6E900EAB6E7A
:101340001DD0B886810EAF6E000EB06EA60EAC6ECC
:10135000900EAB6E13D0B886560EAF6E000EB06E08
:10136000A60EAC6E900EAB6E09D0B8862A0EAF6E8C
:10137000000EB06EA60EAC6E900EAB6E1200F2CFE9
:101380000DF0F29EE824F76AF736A30FF66E130EFF
:10139000F7220A00F550FA6E0800F5500DBEF28EE5
:1013A000F96ECE12E212F6120A131E133213421312
:1013B00056136A130101625308E11E0E6325646F20
:1013C0009B6F000121DE0CD00101622D08D0290E97
:1013D0006325646F9B6F000117DE02D001010001DD
:1013E0001200040E01016225636F9B6F00010CDE89
:1013F00012000101616B295225E117BC10D0626B0C
:1014000028C063F10001D6DF03C025F002C024F03C
:1014100001C023F000C022F0010E0101616F17AC82
:1014200011D0010E626F28C063F10001C3DF03C059
:1014300025F002C024F001C023F000C022F0020E0B
:101440000101616F292C15D0040E626F0001B6EC0A
:1014500005F001C026F026C062F1C3DF03C025F00D
:1014600002C024F001C023F000C022F0030E0101ED
:10147000616F295002080AE1060E626F0001B6ECA6
:1014800005F001C064F0040E0101616F61C101F05B
:1014900000011200030E01018D5F0AE3010EEA6EE6
:1014A0008D0EE96EEF5004E001D000D0EF2EFDD795
:1014B000000112000101896B18B825D0885308E09B
:1014C0000001E42BE4510408D8B088D017D0010102
:1014D0008A6B8A510C080BE3036A8A51680FE96E24
:1014E000000E0320EA6EEF5089278A2BF2D7000105
:1014F000E5510101895D03E1000170D001010001A6
:10150000E46BE56B010182B4FED782A4FED78B6B3E
:101510008B510C085DE3036A8B51680FE96E000E76
:101520000320EA6EEF500F0BE8A08494E8B08484A7
:10153000036A8B51680FE96E000E0320EA6ED890A3
:10154000EF300F0BE8A08492E8B08482036A8B51DD
:10155000680FE96E000E0320EA6EEF30006E003275
:101560003F0E001600500F0BE8A08490E8B0848076
:10157000036A8B51680FE96E000E0320EA6EEF30AC
:10158000006E003200321F0E001600500F0BE8A054
:10159000809AE8B0808A8088310E006E002EFED7D7
:1015A00000D08098020E8C6FB80E8D6F000172DF34
:1015B00001018C2FF9D7036A8B51680FE96E000E79
:1015C0000320EA6EEF500001E52701018B2BA0D725
:1015D0001898809A849084928494000112000101EA
:1015E000763D01D003D076C16CF004D00F0E00011F
:1015F0006C6F0101773D01D003D077C16DF004D04D
:101600000F0E00016D6F01017C3D01D003D07CC144
:1016100074F004D00F0E0001746F01017BC18BF1D7
:101620007AC18AF179C189F178C188F18BC18FF1D2
:101630008AC18EF189C18DF188C18CF1326A8F53D4
:101640000DE18E510E0815E2FF0A08E18D514108A7
:1016500010E2FF0A03E18C513F080BE2400E8C5F61
:10166000420E8D5B0F0E8E5B000E8F5B010E3226DD
:10167000E6D7336A8F530DE18E51000815E2FF0A59
:1016800008E18D51850810E2FF0A03E18C519F08A3
:101690000BE2A00E8C5F860E8D5B010E8E5B000E42
:1016A0008F5B010E3326E6D7346A8F530AE18E53DF
:1016B00008E18D5126080FE2FF0A03E18C510F0863
:1016C0000AE2100E8C5F270E8D5B000E8E5B8F5B27
:1016D000010E3426EAD7356A8F530AE18E5308E1AA
:1016E0008D5102080FE2FF0A03E18C51E7080AE27C
:1016F000E80E8C5F030E8D5B000E8E5B8F5B010E20
:101700003526EAD7366A8F5307E18E5305E18D53AC
:1017100003E18C51630809E2640E8C5F000E8D5B5F
:101720008E5B8F5B010E3626EED7376A8F5307E14B
:101730008E5305E18D5303E18C51090809E20A0E2D
:101740008C5F000E8D5B8E5B8F5B010E3726EED7B4
:10175000386A8C5306E18D5304E18E5302E18F53B6
:1017600009E0010E8C5F000E8D5B8E5B8F5B010EBE
:101770003826EFD732C081F133C082F134C083F113
:1017800035C084F136C085F137C086F138C087F1A5
:101790007D53D8A457D07B530DE17A510F080AE34B
:1017A00007E17951420806E303E178513F0802E37B
:1017B0000F0E816F7B530DE17A5101080AE307E1B7
:1017C0007951860806E303E178519F0802E30F0E82
:1017D000826F7B530BE17A5309E17951270806E3C5
:1017E00003E178510F0802E30F0E836F7B530BE187
:1017F0007A5309E17951030806E303E17851E708D8
:1018000002E30F0E846F7B5309E17A5307E17953AA
:1018100005E17851630802E30F0E856F7B5309E100
:101820007A5307E1795305E17851090802E30F0E75
:10183000866F785307E1795305E17A5303E17B53CF
:1018400001E1876B010E7E5DF90F21E2070F0001B8
:10185000CEEF0CF00F0E0101816F19D00F0E0101B8
:10186000826F15D00F0E0101836F11D00F0E010191
:10187000846F0DD00F0E0101856F09D00F0E01018D
:10188000866F05D00F0E0101876F01D001017F53D4
:101890000CE181C16EF082C16FF083C170F084C130
:1018A00071F085C172F086C173F07F2D0CD082C1BA
:1018B0006EF083C16FF084C170F085C171F086C194
:1018C00072F087C173F07F5102080CE10F0E000126
:1018D0006E6F6F6F85C170F086C171F087C172F055
:1018E000736F01017F5103080CE185C16EF086C161
:1018F0006FF087C170F00F0E0001716F726F736F20
:1019000001017F5104080CE10F0E00016E6F6F6F33
:10191000706F85C171F086C172F087C173F00101EB
:101920007F51050809E10F0E00016E6F6F6F706B3C
:10193000716B726B736F01017F5106080CE1010E30
:1019400000016E6F0F0E6F6F706F86C171F087C1EF
:1019500072F0736F01017F5107080CE1020E000164
:101960006E6F0F0E6F6F706F86C171F087C172F06E
:10197000736F01017F5108080CE1030E00016E6FC7
:101980000F0E6F6F706F86C171F087C172F0736F49
:10199000010180C188F100018DDD1200F2CF0DF050
:1019A000F29EE824F76AF736C10FF66E190EF72299
:1019B0000A00F550FA6E0800F5500DBEF28EF96E71
:1019C00054185C1864186C1874187C18841882B049
:1019D000FED73C0E01016A6F000130EC05F0435266
:1019E00013E1445211E10101766977697B6B7A6BEF
:1019F000020E796FF50E786F7C697D6B7E6B020E3F
:101A00007F6F806B0001EBDD4350140812E14452FC
:101A100010E10101766977697B6B7A6B796B8C0ECB
:101A2000786F7C697D6B7E6B020E7F6F806B00012F
:101A3000D6DD848400D000D00000432AD8B4442AE4
:101A4000445203E14350280805E2446A436A412AAC
:101A5000D8B4422A415005080AE1425208E10C0E6E
:101A600001016B6F6C6B000185EC05F006D082A064
:101A700003D082B0FED701D0ACD768EC05F042525B
:101A800027E14150050824E3435202E144520DE0AE
:101A900044520BE14350140808E30C0E01016B6F34
:101AA0006C6B000185EC05F01A92445203E143503F
:101AB00014080EE244520CE14350280809E30C0ECE
:101AC00001016B6F010E6C6F000185EC05F01A824D
:101AD000446A436A426A416A84943CEF3AF082B2B3
:101AE000FED701012C912D6B3C0E6A6F000130EC8A
:101AF00005F043C000F04450036E02E1005224E0C0
:101B0000035003E1140E005C29E0035003E1280EAA
:101B1000005C2EE0035003E13C0E005C33E0035018
:101B200003E1500E005C38E0035003E1640E005CFA
:101B30003CE0035003E1780E005C40E0035003E119
:101B40008C0E005C44E04CD01F6A1E6A040E1D6EB1
:101B5000B00E1C6E01012C81000142D01F6A1E6A6A
:101B6000090E1D6E600E1C6E01012C81000138D023
:101B70001F6A1E6A120E1D6EC00E1C6E01012C81A2
:101B800000012ED01F6A1E6A250E1D6E800E1C6E6F
:101B900001012C81000124D01F6A1E6A4B0E1D6EAC
:101BA0001C6A01012C8100011BD01F6A1E6A960E5F
:101BB0001D6E1C6A01012C81000112D01F6A1E6A71
:101BC000E10E1D6E1C6A01012C81000109D01F6A03
:101BD000010E1E6EC20E1D6E1C6A01012C810001D9
:101BE00001012CA115D0010E2D27766977691FC040
:101BF0007BF11EC07AF11DC079F11CC078F17C69BF
:101C00007D6B7E6B7F6F806B0001E9DC01012C91A5
:101C1000848400D000D00000432AD8B4442A44521F
:101C200003E14350A00806E2446A436A2D6B412A4F
:101C3000D8B4422A4150050804E1425202E12D6B1A
:101C400006D082A003D082B0FED701D04DD70001CC
:101C500068EC05F04252D8A47ED041500508D8A0C7
:101C60007AD001012D51010A00010FE0030A17E0AB
:101C7000010A1FE0070A27E0010A2FE0030A35E006
:101C8000010A3DE00F0A45E04ED0B886460EAF6E21
:101C9000100EB06EA60EAC6E900EAB6E4DD0B88628
:101CA000220EAF6E080EB06EA60EAC6E900EAB6E2E
:101CB00043D0B886110EAF6E040EB06EA60EAC6E99
:101CC000900EAB6E39D0B886080EAF6E020EB06EB5
:101CD000A60EAC6E900EAB6E2FD0B896400EAF6EC7
:101CE000A60EAC6E900EAB6E27D0B886810EAF6E8E
:101CF000000EB06EA60EAC6E900EAB6E1DD0B88608
:101D0000560EAF6E000EB06EA60EAC6E900EAB6EA1
:101D100013D0B8862A0EAF6E000EB06EA60EAC6E53
:101D2000900EAB6E09D0B886110EAF6E040EB06E79
:101D3000A60EAC6E900EAB6E0D0E01016B6F2DC139
:101D40006CF1000185EC05F0030E01015F6F0001ED
:101D500074EC05F007D00D0E01016B6F6C6B000188
:101D600085EC05F0849442EF3AF01AB211D00101EB
:101D7000766977697B6B7A6B020E796FF50E786FF7
:101D80007C697D6B7E6B020E7F6F806B000127DCB0
:101D90001AA210D00101766977697B6B7A6B796B37
:101DA0008C0E786F7C697D6B7E6B020E7F6F806B13
:101DB000000115DC8484040E01012C6FFA0E6A6F99
:101DC000000130EC05F001012C2FF8D70D0E626FE9
:101DD0000001B6EC05F00150010A0FE0030A14E01F
:101DE000010A19E0070A1EE0010A23E0030A27E0BE
:101DF000010A2BE00F0A2FE035D01F6A1E6A040E7D
:101E00001D6EB00E1C6E34D01F6A1E6A090E1D6E48
:101E1000600E1C6E2DD01F6A1E6A120E1D6EC00E43
:101E20001C6E26D01F6A1E6A250E1D6E800E1C6E4B
:101E30001FD01F6A1E6A4B0E1D6E1C6A19D01F6AC6
:101E40001E6A960E1D6E1C6A13D01F6A1E6AE10E72
:101E50001D6E1C6A0DD01F6A010E1E6EC20E1D6E15
:101E60001C6A06D01F6A1E6A120E1D6EC00E1C6E02
:101E70000101766977691FC07BF11EC07AF11DC030
:101E800079F11CC078F17C697D6B7E6B010E7F6FF0
:101E9000806B0001EFEC0AF08484040E01012C6FCA
:101EA000FA0E6A6F000130EC05F001012C2FF8D713
:101EB00082A203D0000159D70101000148EF3AF096
:101EC00001012C912C935BC030F15AC02FF159C005
:101ED0002EF158C02DF15FC034F15EC033F15DC00A
:101EE00032F15CC031F17669776930C17BF12FC185
:101EF0007AF12EC179F12DC178F1010E7C6F7D6BE5
:101F00007E6B7F6B806B0001EFEC0AF001012CB15E
:101F10005BD02D530AE12E5308E12F5306E13053D5
:101F200004E1306B2F6B2E6B2D6B30530DE12F5175
:101F3000970811E2FF0A08E12E5195080CE2FF0A0A
:101F400003E12D517F0807E2306B980E2F6F960E3C
:101F50002E6F7F0E2D6F386B376B366B640E356FBF
:101F600080A004D0000E016E16D015D082B809D022
:101F700035512D5F36512E5B37512F5B3851305B19
:101F800008D035512D2736512E2337512F23385164
:101F90003023010E016E2C9301B02C832CA314D09E
:101FA0007669776930C17BF12FC17AF12EC179F161
:101FB0002DC178F1010E7C6F7D6B7E6B7F6B806B2A
:101FC0000001EFEC0AF001012CA15BD031530AE1D2
:101FD000325308E1335306E1345304E1346B336B7D
:101FE000326B316B34530DE13351970811E2FF0A24
:101FF00008E1325195080CE2FF0A03E131517E08F5
:1020000007E2346B980E336F960E326F7F0E316F8E
:10201000386B376B366B640E356F80A004D0000EC2
:10202000016E16D015D082B809D03551315F3651C6
:10203000325B3751335B3851345B08D0355131272F
:10204000365132233751332338513423010E016E78
:102050002C9301B02C832CA314D07669776934C1FA
:102060007BF133C17AF132C179F131C178F1020EDD
:102070007C6F7D6B7E6B7F6B806B0001EFEC0AF0F9
:1020800001012CB33ED0848200D000D0000082A099
:1020900031D082B0FED72CB116D02C817669776909
:1020A00034C17BF133C17AF132C179F131C178F1B8
:1020B000020E7C6F7D6B7E6B7F6B806B0001EFECA3
:1020C0000AF015D001012C917669776930C17BF156
:1020D0002FC17AF12EC179F12DC178F1010E7C6FFB
:1020E0007D6B7E6B7F6B806B0001EFEC0AF068EC20
:1020F00005F0010182A204D082B2FED7849202D000
:10210000849205D7360E6D6F30C171F12FC170F119
:102110002EC16FF12DC16EF100012EEC06F0370ECD
:1021200001016D6F34C171F133C170F132C16FF1D2
:1021300031C16EF100012EEC06F0FF0060EF3AF0C5
:102140001AAE02D01A9E01D01A8E000E1ABE010ECF
:1021500001012C6F766977697B6B7A6B796B786F8D
:102160007C697D6B7E6B010E7F6F806B0001EFECF5
:102170000AF0000E1ABE010E010F01012C6F5F6FF5
:10218000000174EC05F0000E1ABE010E01012C6F67
:102190000A0E6B6F2CC16CF1000185EC05F0040E8A
:1021A00001012C6FFA0E6A6F000130EC05F001019D
:1021B0002C2FF8D700016EEF3AF001019A6B83A83B
:1021C00002D0080E9A2783AA02D0040E9A2783AC65
:1021D00002D0020E9A2783AE02D0010E9A279AC12E
:1021E00001F0000112006BC173F129520CE10101F1
:1021F0006A5302E1010E726F6A2D02D00C0E726FEB
:102200000F0E746F0001292C06D0020E0101726FAF
:1022100070C174F10001000E18B0010E0101756F5C
:1022200072C176F173C177F16FC17BF16EC17AF142
:102230006DC179F16CC178F174C17CF17D6B7E6BFD
:102240007F6F71C180F10001EFEC0AF01200010113
:1022500066516803F3CF01F0F4CF00F06903F35047
:10226000002667516803F3500020026E000112003F
:102270002FC030F0030E0101A06F0001EAEC04F062
:1022800000D030C0A0F1EAEC04F0D4EF12F018AEA8
:102290000AD0140E272401019A6F9B6F000104ECF1
:1022A00008F007D006D0130E01019B6F000104EC6B
:1022B00008F01200D8B204D0010EEA6EA20EE96E48
:1022C000006A016A026A036A0101A26BA36BA46B34
:1022D000A56BA151A0119F119E112CE0200EA66F9D
:1022E000D8909A379B379C379D37A237A337A437AE
:1022F000A537A151A55D08E1A051A45D05E19F515D
:10230000A35D02E19E51A25D0FE39E51A25F9F512A
:10231000D8A09F3DA35FA051D8A0A03DA45FA1512C
:10232000D8A0A13DA55FD88000360136023603361D
:10233000A62FD6D7A2C1EFFFA3C1ECFFA4C1ECFF2B
:10234000A5C1ECFF000112000101A66BA76B010EF5
:10235000A86FDA6AD96AAB6F9E0EAA6F010EEA6E99
:10236000A20EE96EABC1E2FFAAC1E1FFA8C1A9F1CB
:10237000D890E550EE02F350A623F450A723A92FDE
:10238000F7D7A6C1DEFFA7C1A6F1A76BD8B0A72BD0
:10239000AA2BD8B4AB2BA82BA8510508DFE100016C
:1023A0001200700E01019F6F9E519F25816E0001EA
:1023B000120081CFD8F0F2EF11F02FC030F0020EF2
:1023C0000101A06F0001EAEC04F000D030C0A0F1E0
:1023D000EAEC04F0FAEF11F0D8C081FFD86BFBEF04
:1023E00011F0E7D7700E01019F6F9E519F25816EFE
:1023F0000001E3D7F1D71200010162515B5C14E3E5
:102400000BE161515A5C10E307E16051595C0CE348
:1024100003E158505F5D08E25FC062F15EC061F1A8
:102420005DC060F15CC05FF15F50625D14E30BE181
:102430005E50615D10E307E15D50605D0CE303E118
:102440005F515C5C08E25BC062F15AC061F159C047
:1024500060F158C05FF162C166F161C165F160C1B0
:1024600064F15FC163F162C16AF161C169F160C188
:1024700068F15FC167F10001EF510101675D19E18A
:102480000001F0510101685D14E10001F151010109
:10249000695D0FE10001F25101016A5D0AE167C166
:1024A00000F068C101F069C102F06AC103F0F2EF07
:1024B00015F06B6B6B510908D8A06FD06B51030DF1
:1024C000F350040DF350036AF2CF9AF1F29E00012B
:1024D000BDEC03F0006E0900F5CF01F00900F5CF67
:1024E00002F00900F5CF03F001019ABFF28E03500C
:1024F000665D51E30BE10250655D4DE307E101507C
:10250000645D49E303E10050635D45E36B51030DF6
:10251000F350010F040DF350036AF2CF9AF1F29ECB
:102520000001BDEC03F0006E0900F5CF01F00900D9
:10253000F5CF02F00900F5CF03F001019ABFF28E4A
:102540006651035C28E30BE16551025C24E307E17B
:102550006451015C20E303E16351005C1CE36B51B7
:10256000030DF350020F040DF350036AF2CF9AF1FA
:10257000F29E0001BDEC03F0006E0900F5CF01F002
:102580000900F5CF02F00900F5CF03F001019ABF71
:10259000F28E276E02D06B2B8DD70001EC51275C99
:1025A00005E027C081FF64D627C0ECF019B437D00E
:1025B0006EDE03C06FF102C06EF101C06DF100C0AC
:1025C0006CF101016F530DE16E510E081FE2FF0A1D
:1025D00008E16D5141081AE2FF0A03E16C513F081E
:1025E00015E2400E6C5D006E420E6D59016E0F0ECD
:1025F0006E59026E000E6F59036E0050635F0150FA
:10260000645B0250655B0350665B08D06C516327C6
:102610006D5164236E5165236F516623000166C1BD
:1026200073F165C172F164C171F163C170F10101AF
:10263000776B766B756B746B73530DE17251000899
:1026400019E2FF0A08E17151850814E2FF0A03E16B
:1026500070519F080FE2A00E705F860E715B010E35
:10266000725B000E735B010E7427000E75237623D8
:102670007723E2D77B6B7A6B796B786B73530AE1C4
:10268000725308E17151260813E2FF0A03E1705109
:102690000F080EE2100E705F270E715B000E725B6A
:1026A000735B010E7827000E79237A237B23E6D70C
:1026B0007F6B7E6B7D6B7C6B73530AE1725308E119
:1026C0007151020813E2FF0A03E17051E7080EE2BC
:1026D000E80E705F030E715B000E725B735B010EA0
:1026E0007C27000E7D237E237F23E6D7836B826BBE
:1026F000816B806B735307E1725305E1715303E102
:10270000705163080DE2640E705F000E715B725BC6
:10271000735B010E8027000E812382238323EAD777
:10272000876B866B856B846B735307E1725305E18E
:10273000715303E1705109080DE20A0E705F000E3B
:10274000715B725B735B010E8427000E8523862309
:102750008723EAD78B6B8A6B896B886B705306E192
:10276000715304E1725302E173530DE0010E705F87
:10277000000E715B725B735B010E8827000E89236C
:102780008A238B23EBD7D89266C19DF165C19CF15A
:1027900064C19BF163C19AF1A16BA06B270E9F6F7F
:1027A000100E9E6F000186DD03C08FF102C08EF116
:1027B00001C08DF100C08CF17BC1A1F17AC1A0F103
:1027C00079C19FF178C19EF10101A56BA46BA36B48
:1027D000640EA26F0001B8DD03C09DF102C09CF140
:1027E00001C09BF100C09AF17FC1A1F17EC1A0F1AF
:1027F0007DC19FF17CC19EF10101A56BA46BA36B10
:102800000A0EA26F0001A0DD005001019A270150BD
:102810009B2302509C2303509D2380519A25906F47
:1028200081519B21916F9151000809E2FF0A03E158
:102830009051F30804E2F40E905F010E915B300EAC
:102840009027020E9123926B936B946B956B966B12
:10285000976B986B996B0001E6510101905D05E162
:102860000001E7510101915D32E091C193F1913195
:102870009B6F90319A6F9B339A339B339A339B3380
:102880009A330F0E9B179A510F0B946F90510F0BA9
:10289000956F806A300E9225816E000144EC05F040
:1028A000200E01019325816E000144EC05F0100E0D
:1028B00001019425816E000144EC05F095C181FF72
:1028C00044EC05F091C1E7F090C1E6F00101000190
:1028D000E85101018C5D10E10001E95101018D5DBC
:1028E0000BE10001EA5101018E5D06E10001EB51AF
:1028F00001018F5DD8B4D3D02750050858E3D89292
:102900008FC19DF18EC19CF18DC19BF18CC19AF15B
:10291000A16BA06B9F6B050E9E6F0001CBDC03C00B
:102920009DF102C09CF101C09BF100C09AF10C0E18
:1029300001019A27000E9B239C239D239D31036E4A
:102940009C31026E9B31016E9A31006E033202326D
:1029500001320032033202320132003203320232DB
:102960000132003200C098F1D8928FC19DF18EC122
:102970009CF18DC19BF18CC19AF1A16BA06B9F6BF7
:10298000050E9E6F000196DC03C09DF102C09CF114
:1029900001C09BF100C09AF10C0E01019A27000EB4
:1029A0009B239C239D239A510F0B996F57D0D8924C
:1029B0008FC19DF18EC19CF18DC19BF18CC19AF1AB
:1029C000A16BA06B9F6B050E9E6F000173DC03C0B3
:1029D0009DF102C09CF101C09BF100C09AF1120E62
:1029E00001019A5F000E9B5B9C5B9D5B9D31036EBA
:1029F0009C31026E9B31016E9A31006E03320232BD
:102A0000013200320332023201320032033202322A
:102A10000132003200C098F1D8928FC19DF18EC171
:102A20009CF18DC19BF18CC19AF1A16BA06B9F6B46
:102A3000050E9E6F00013EDC03C09DF102C09CF1BB
:102A400001C09BF100C09AF1120E01019A5F000EC5
:102A50009B5B9C5B9D5B9A510F0B996F300E96258B
:102A6000816E000150EC05F0200E01019725816E6A
:102A7000000150EC05F0100E01019825816E000157
:102A800050EC05F099C181FF50EC05F08FC1EBF0DF
:102A90008EC1EAF08DC1E9F08CC1E8F001018451EA
:102AA0000001ED5D0EE101018553D8B402D00001B3
:102AB00008D08653D8B402D0000103D087533CE03D
:102AC00000010101875309E1865307E1855305E1C0
:102AD00084510001ED5D11E20101010E84259A6F20
:102AE000000E85219B6F000E86219C6F000E8721B2
:102AF0009D6F9AC19EF1000154DC010187531AE1D8
:102B0000865318E1855316E10001ED510101845D02
:102B100011E2010E84259A6F000E85219B6F000E35
:102B200086219C6F000E87219D6F9AC19EF1000146
:102B300038DC010184C1EDF088510001EE5D0EE149
:102B400001018953D8B402D0000108D08A53D8B407
:102B500002D0000103D08B532FE0000101018B5301
:102B600008E18A5306E1895304E188510001EE5DD2
:102B700004E288C19EF1000134DC01018B531AE1AB
:102B80008A5318E1895316E10001EE510101885D75
:102B900011E2010E88259A6F000E89219B6F000EAD
:102BA0008A219C6F000E8B219D6F9AC19EF10001BE
:102BB00018DC010188C1EEF00001DDEC10F001C06D
:102BC0002EF06AC1F2F069C1F1F068C1F0F067C19E
:102BD000EFF05FC100F060C101F061C102F062C1BD
:102BE00003F00101000112000101665318E11E0EFD
:102BF00067256C6F6D6F6BC171F16AC170F169C14E
:102C00006FF168C16EF100012EEC06F06BC153F05C
:102C10006AC152F069C151F068C150F00101662DDE
:102C200018D0290E67256C6F6D6F6BC171F16AC189
:102C300070F169C16FF168C16EF100012EEC06F010
:102C40006BC157F06AC156F069C155F068C154F0C4
:102C50000101000112000101616B295225E117BC3D
:102C600010D0666B28C067F125C06BF124C06AF1F3
:102C700023C069F122C068F10001B6DF010E010135
:102C8000616F17AC11D0010E666F28C067F125C0C7
:102C90006BF124C06AF123C069F122C068F1000120
:102CA000A3DF020E0101616F292C16D025C065F14A
:102CB00024C064F123C063F122C062F1000140EC42
:102CC00006F0040E01016B6F26C06CF1000185EC6B
:102CD00005F0030E0101616F295002080AE1060E9A
:102CE0006B6F64C06CF1000185EC05F0040E01010E
:102CF000616F61C101F0000112000101572D06D082
:102D0000060EA06F0001EAEC04F00101575305E143
:102D1000A06B0001EAEC04F00101000112005F5019
:102D20000101545D14E30BE15E50535D10E307E1D4
:102D30005D50525D0CE303E151515C5C08E25FC001
:102D400054F15EC053F15DC052F15CC051F1545179
:102D50005B5C14E30BE153515A5C10E307E1525101
:102D6000595C0CE303E15850515D08E25BC054F13B
:102D70005AC053F159C052F158C051F1556B17B8B0
:102D800074D083A66AD019B867D0566B565109081B
:102D900054E3D8905635040DF350036AF2CF57F13F
:102DA000F29E000106EC04F0006E0900F5CF01F080
:102DB0000900F5CF02F00900F5CF03F0010157BF7C
:102DC000F28E0350545D37E30BE10250535D33E361
:102DD00007E10150525D2FE303E10050515D2BE309
:102DE000D8905635010F040DF350036AF2CF57F116
:102DF000F29E000106EC04F0006E0900F5CF01F030
:102E00000900F5CF02F00900F5CF03F0010157BF2B
:102E1000F28E5451035C0FE30BE15351025C0BE360
:102E200007E15251015C07E303E15151005C03E308
:102E3000010E556F02D0562BA9D755530CE1000156
:102E400068EC05F083A606D0010E0101576F000162
:102E500054DFF8D70101198807D019A805D0576B9E
:102E600000014BDF1998010102D0010E556F54C1CA
:102E700025F053C124F052C123F051C122F055C1B5
:102E800001F0000112000101526B82A44DD182B405
:102E9000FED718A693D0808A84808482848400D050
:102EA00000D0000082B404D082B202D082A073D0DD
:102EB0005151020809E1F3C052F10001F36B189679
:102EC000010152C101F07DD1512D24D00001F653F2
:102ED0000CE1F551630809E3F52BD8B4F62B0A0E83
:102EE00001016A6F000130EC05F0F65303E1F55182
:102EF000630811E21E0EF3250101526F0001F36B0E
:102F0000809A849084928494F66BF56B010152C18F
:102F100001F057D1000101015151030839E10001CD
:102F2000F65311E1F55163080EE3F52BD8B4F62BF7
:102F30000A0E01016A6F000130EC05F0FF0E016E10
:102F400001013FD10001F65303E1F551630821E28D
:102F50001E0EF3250101526F809A8490849284940E
:102F6000808A84808482848400D000D0000082B46F
:102F700008D082B206D082B004D00001F66BF56BA7
:102F80000101809A84908492849452C101F019D1F5
:102F9000000110D001011896F3C052F10001F36B4B
:102FA000849084928494F66BF56B010152C101F018
:102FB00008D1000184908492849401011AAC62D0FB
:102FC00083B204D082AA02D082BC4FD051510208F1
:102FD00009E1F4C052F10001F46B1A9C010152C1E5
:102FE00001F0EFD0512D1AD00001F851FA5D07E33E
:102FF00003E1F951F75D03E2F72BD8B4F82BFA514E
:10300000F85D0DE303E1F951F75D09E3050EF425E1
:103010000101526F1A8C52C101F0D3D0000101019D
:10302000515103081FE10001F851FA5D0CE303E17F
:10303000F951F75D08E2F72BD8B4F82BFF0E016EBB
:103040000101BFD00001FA51F85D0DE303E1F95130
:10305000F75D09E3050EF4250101526F1A8C52C188
:1030600001F0AFD000010DD001011A9C0001F86BF6
:10307000F76BF4C052F1F46B010152C101F0A1D021
:10308000000103D00001F86BF76B18B64CD08492A6
:103090008494809A848000D000D0000082A403D061
:1030A0001886010EF36F82A203D01886020EF36F0A
:1030B00082A003D01886030EF36F8490848200D020
:1030C00000D0000082A403D01886040EF36F82A201
:1030D00003D01886050EF36F82A003D01886060E63
:1030E000F36F8492848400D000D0000082A403D0C7
:1030F0001886070EF36F82A203D01886080EF36FAE
:1031000082A003D01886090EF36F8494808A00D0C1
:1031100000D0000082A203D018860A0EF36F8494B8
:1031200084928490809A010183B20AD082BA08D036
:103130001A8C0B0E0001F46FFA6B190EF96F010176
:1031400083B20AD082BC08D01A8C0C0E0001F46F36
:10315000FA6B190EF96F010183A20CD082AA0AD072
:1031600082AC08D01A8C0D0E0001F46FFA6B640E5D
:10317000F96F010183A20AD082BA08D01A8C0E0E10
:103180000001F46FFA6B190EF96F010183A20AD0E6
:1031900082BC08D01A8C0F0E0001F46FFA6B190E66
:1031A000F96F010183A00BD0000168EC05F083B03A
:1031B000FED718AC02D0189C01D0188C0101000E6B
:1031C000016E0001120001013387000144DD01C0DE
:1031D0004CF182A604D00A0E01014C2700010F0E0B
:1031E0000101506F010E4C5DF20F25E20E0F000140
:1031F00046EF1EF0010E01014D6F1DD0010E0101C1
:103200004D6F19D0030E01014D6F15D0040E010151
:103210004D6F11D0020E01014D6F0DD0020E010154
:103220004D6F09D0050E01014D6F05D0040E01014F
:103230004D6F01D001014D2D61D02850040DF35088
:10324000036AF2CF51F1F29E000177EC03F009001E
:10325000F5CF01F00900F5CF02F00900F5CF03F03A
:10326000010151BFF28E03C03FF102C03EF101C027
:103270003DF13C6F285009081FE3010E2824040D7E
:10328000F350036AF2CF51F1F29E000177EC03F0A4
:103290000900F5CF01F00900F5CF02F00900F5CFE4
:1032A00003F0010151BFF28E03C043F102C042F1AD
:1032B00001C041F1406F07D0436B010E426F860E93
:1032C000416FA00E406F17BC02D0010E506F17ACBB
:1032D00002D00C0E506F2C530EE12D530CE12E53E7
:1032E0000AE12F5308E13FC12FF13EC12EF13DC14C
:1032F0002DF13CC12CF1306B020E4F6F4D51020885
:103300004DE12850040DF350036AF2CF51F1F29EC3
:10331000000177EC03F00900F5CF01F00900F5CFCB
:1033200002F00900F5CF03F0010151BFF28E03C096
:103330003FF102C03EF101C03DF13C6F2850040D49
:10334000F350036AF2CF51F1F29E00019AEC03F0C0
:103350000900F5CF01F00900F5CF02F00900F5CF23
:1033600003F0010151BFF28E03C043F102C042F1EC
:1033700001C041F1406F17BC02D0010E506F17AC75
:1033800002D00C0E506F3FC12FF13EC12EF13DC156
:103390002DF13CC12CF1306B020E4F6F4D510308E3
:1033A0003BE1306B30C162F10001F1EC09F003C088
:1033B0003FF102C03EF101C03DF100C03CF101010E
:1033C00030510D080EE2626B0001F1EC09F003C010
:1033D00043F102C042F101C041F100C040F110D000
:1033E0000101010E3025516F626F0001F1EC09F00F
:1033F00003C043F102C042F101C041F100C040F1FD
:103400003FC12FF13EC12EF13DC12DF13CC12CF148
:10341000020E0101506F4F6F4D510408D8A4E3D044
:1034200000016551020804E1500E0101326F03D022
:10343000280E0101326F64C030F165C062F1625341
:1034400006E1010E0001666F280E676F0101622D13
:1034500006D0010E0001666F280E676F01016251F0
:10346000020806E1010E0001666F500E676F010150
:10347000000166510101305DD8A066C030F1010E37
:103480000001675D66250101305D07E006E3010E7E
:103490000001675D66250101306F625329E1010E6D
:1034A000305D646F676B666F696B040E686F000157
:1034B00027EC11F002C003F00150F2CF63F1F29E4D
:1034C00002C0F7FFCBEC02F00900F5CF01F00900D4
:1034D000F5CF02F00900F5CF03F0010163BFF28ED2
:1034E00003C063F002C062F001C061F0E8CF60F099
:1034F000622D29D0270E3025646F676B666F696B6C
:10350000040E686F000127EC11F002C003F00150B7
:10351000F2CF63F1F29E02C0F7FFCBEC02F009009C
:10352000F5CF01F00900F5CF02F00900F5CF03F067
:10353000010163BFF28E03C063F002C062F001C0FC
:1035400061F0E8CF60F06251020829E1010E305DC0
:10355000646F676B666F696B040E686F000127EC20
:1035600011F002C003F00150F2CF63F1F29E02C0ED
:10357000F7FFCBEC02F00900F5CF01F00900F5CF21
:1035800002F00900F5CF03F0010163BFF28E03C022
:1035900063F002C062F001C061F0E8CF60F060C08B
:1035A00000F061C001F062C002F063C003F003C02C
:1035B0003FF102C03EF101C03DF100C03CF15FC0EF
:1035C00043F15EC042F15DC041F15CC040F13FC1DA
:1035D0002FF13EC12EF13DC12DF13CC12CF1020E67
:1035E000506F0A0E4F6F4D51050826E10E0E326FD7
:1035F00026C030F130C162F10001F1EC09F003C0E6
:103600003FF102C03EF101C03DF100C03CF15FC09E
:1036100043F15EC042F15DC041F15CC040F13FC189
:103620002FF13EC12EF13DC12DF13CC12CF1020E16
:103630000101506F320E4F6F4D51FA0F1CE2060F11
:10364000000166EF1EF001014E6B15D0010E010165
:103650004E6F11D0010E01014E6F0DD0010E010110
:103660004E6F09D0020E01014E6F05D0030E01010D
:103670004E6F01D0010140513C5D13E141513D5D70
:1036800010E142513E5D0DE143513F5D0AE1189C5E
:10369000020E5F6F000174EC05F0000E016EF3D2B4
:1036A00001013F51435D1DE30BE13E51425D19E3D2
:1036B00007E13D51415D15E303E140513C5D11E2FD
:1036C0003FC147F13EC146F13DC145F13CC144F126
:1036D00043C14BF142C14AF141C149F140C148F1F6
:1036E000338543513F5D1DE30BE142513E5D19E3DC
:1036F00007E141513D5D15E303E13C51405D11E2BD
:1037000043C147F142C146F141C145F140C144F1D5
:103710003FC14BF13EC14AF13DC149F13CC148F1C5
:1037200033953B6B640E3A6F83A004D083B0FED711
:10373000189C8FD283A401D0338333A103D0342BC0
:10374000D8B4352B382BD8B4392B362BD8B4372BEB
:103750003B51395D0BE303E138513A5D07E233A792
:1037600002D0339701D03387396B386B4E2D34D06C
:10377000000E33B7010E010A000103E0010A17E051
:103780002AD050C176F1010177692FC17BF12EC19A
:103790007AF12DC179F12CC178F17C697D6B7E6B5A
:1037A0007F6B010E806F0001EFEC0AF014D0010175
:1037B000766977692FC17BF12EC17AF12DC179F13C
:1037C0002CC178F17C697D6B7E6B7F6B010E806F05
:1037D0000001EFEC0AF001014E510208D8A4F4D028
:1037E000000E33B7010E010A000103E0010A17E0E1
:1037F00028D0010133A711D0020E766F77697B6B59
:103800007A6B796B30C178F17C697D6B7E6B7F6FF1
:10381000010E806F0001EFEC0AF0000112D00101EF
:10382000766977697B6B7A6B796B30C178F17C69EB
:103830007D6B7E6B020E7F6F010E806F0001EFECDF
:103840000AF065C062F10101625306E1010E000158
:10385000666F280E676F0101622D06D0010E000110
:10386000666F280E676F01016251020806E1010EC2
:103870000001666F500E676F010100016651010182
:10388000305DD8A066C030F1010E0001675D66258D
:103890000101305D07E006E3010E0001675D66256A
:1038A0000101306F625329E1010E305D646F676B77
:1038B000666F696B040E686F000127EC11F002C09F
:1038C00003F00150F2CF63F1F29E02C0F7FFCBECA0
:1038D00002F00900F5CF01F00900F5CF02F0090070
:1038E000F5CF03F0010163BFF28E03C063F002C0A5
:1038F00062F001C061F0E8CF60F0622D29D0270EA0
:103900003025646F676B666F696B040E686F00012A
:1039100027EC11F002C003F00150F2CF63F1F29EE8
:1039200002C0F7FFCBEC02F00900F5CF01F009006F
:10393000F5CF02F00900F5CF03F0010163BFF28E6D
:1039400003C063F002C062F001C061F0E8CF60F034
:103950006251020829E1010E305D646F676B666F8A
:10396000696B040E686F000127EC11F002C003F0D0
:103970000150F2CF63F1F29E02C0F7FFCBEC02F0F0
:103980000900F5CF01F00900F5CF02F00900F5CFED
:1039900003F0010163BFF28E03C063F002C062F066
:1039A00001C061F0E8CF60F060C000F061C001F0DC
:1039B00062C002F063C003F003C02FF102C02EF119
:1039C00001C02DF100C02CF14E51030842E1000E60
:1039D00033B7010E010A000103E0010A18E02CD000
:1039E000020E0101766F77692FC17BF12EC17AF14A
:1039F0002DC179F12CC178F130C17CF17D6B7E6BEA
:103A00007F6B010E806F0001EFEC0AF015D0010111
:103A1000766977692FC17BF12EC17AF12DC179F1D9
:103A20002CC178F130C17CF17D6B7E6B7F6B010E18
:103A3000806F0001EFEC0AF030C162F1F1EC09F0A7
:103A400003C02FF102C02EF101C02DF100C02CF1F6
:103A500001012FC162F12EC161F12DC160F12CC1B4
:103A60005FF10001FCEC11F003C02FF102C02EF158
:103A700001C02DF100C02CF12FC154F12EC153F122
:103A80002DC152F12CC151F18FEC16F0010133B36D
:103A900053D0375303E136514F5D4EE24E2D3ED0A9
:103AA00033A507D00A0E2C27000E2D232E232F23FB
:103AB00006D00A0E2C5F000E2D5B2E5B2F5B2F5164
:103AC000475D15E30BE12E51465D11E307E12D51F2
:103AD000455D0DE303E144512C5D09E24BC12FF13B
:103AE0004AC12EF149C12DF148C12CF117D04B51DB
:103AF0002F5D14E30BE14A512E5D10E307E14951BC
:103B00002D5D0CE303E12C51485D08E247C12FF124
:103B100046C12EF145C12DF144C12CF14E51020890
:103B200003E04E51030806E13251305D02E2302BD2
:103B300001D0306B376B366B33A388D083B402D09F
:103B4000338103D03391356B346B3551000809E272
:103B5000FF0A03E13451F40804E233913393356BE7
:103B6000346B020E516F000143EC17F001C031F1CC
:103B700001013151030803E031510B0815E14E2DCD
:103B800006D00A0E2C27000E2D232E232F234E5154
:103B9000020803E04E51030806E13251305D02E2B3
:103BA000302B01D0306B33933151020803E0315197
:103BB0000C0815E14E2D06D00A0E2C5F000E2D5B71
:103BC0002E5B2F5B4E51020803E04E51030806E1C5
:103BD000305302E0300702D032C130F133934E2D22
:103BE0002FD02F51475D15E30BE12E51465D11E3B8
:103BF00007E12D51455D0DE303E144512C5D09E2E0
:103C00004BC12FF14AC12EF149C12DF148C12CF110
:103C100017D04B512F5D14E30BE14A512E5D10E399
:103C200007E149512D5D0CE303E12C51485D08E2A9
:103C300047C12FF146C12EF145C12DF144C12CF1F0
:103C400083A004D083B0FED7189C03D018AC01D059
:103C50006BD583A416D02FC125F02EC124F02DC121
:103C600023F02CC122F04E51020802E130C164F071
:103C70004E510308D8B430C126F000012BEC16F0E9
:103C80000101010E016E000197EF3BF0F2CF0DF044
:103C9000F29EE824F76AF736B10FF66E3C0EF72273
:103CA0000A00F550FA6E0800F5500DBEF28EF96E5E
:103CB000F431FC3104320C323432343234323432A6
:103CC0003432343214321C3224322C32F2CF0DF022
:103CD000F29EE824F76AF736F10FF66E3C0EF722F3
:103CE0000A00F550FA6E0800F5500DBEF28EF96E1E
:103CF00046364C3654365C3664366C360101626B9F
:103D0000295208E117BC02D0010E626F17AC02D035
:103D1000020E626F292C02D0030E626F2950020836
:103D200002E1040E626F62C101F0000112000F0E89
:103D300001015F6F606B6051070841E3000E17BA25
:103D4000010E616F6051040DF350010F036A750F8E
:103D5000E96E000E0320EA6EEF50615D2EE1000E69
:103D600018B4010E616F6051040DF350020F036A25
:103D7000750FE96E000E0320EA6EEF50615D1DE1E4
:103D8000000E18B2010E616F6051040DF350030F65
:103D9000036A750FE96E000E0320EA6EEF50615D55
:103DA0000CE16051040DF350036A750FE96E000ECB
:103DB0000320EA6EEFCF5FF102D0602BBCD717AAC9
:103DC00007D0010E616F00010EEC08F005D0010173
:103DD000616B00010EEC08F018A407D0010E010180
:103DE000616F000132EC08F005D00101616B000148
:103DF00032EC08F018A207D0010E0101616F00013A
:103E00005EEC08F005D00101616B00015EEC08F08A
:103E1000050E01016B6F5FC16CF1000185EC05F0CF
:103E200001015FC101F000011200040E01015F6F8A
:103E30005F510C080BE3036A5F51680FE96E000ED7
:103E40000320EA6E0F0EEF6E5F2BF2D700012AEF10
:103E50001FF0EBD701015E51020806E10C0E0001D4
:103E6000716F0E0E726F01015E51030804E10B0EBB
:103E70000001726F01015E5104080DE10A0E00019C
:103E80006E6F010E6F6F706F0F0E716F0C0E726F91
:103E90000B0E736F01015E51050809E10D0E000163
:103EA0006E6F010E6F6F0A0E706F726F01015E51BF
:103EB00006080AE10D0E00016E6F010E6F6F0A0E0B
:103EC000706F0B0E726F0101886B00015AEC0AF0E3
:103ED000020E01015F6FFA0E6A6F000130EC05F00F
:103EE00001015F2FF8D7000112002950020836E1C6
:103EF000655303E1010E656F01D0656B010E652509
:103F000001015E6F5F6F000174EC05F0655305E120
:103F1000020E01015E6F00019CDF652D05D0030ECE
:103F200001015E6F000195DF010176692AC077F11A
:103F30007B6B7A6B796B64C078F17C697D6B7E6B8F
:103F4000020E7F6F806B0001EFEC0AF0070E01019B
:103F50006B6F65C06CF1000185EC05F01200295013
:103F600002080AE018A202D0189202D0189418820F
:103F7000DEDE01C02AF001D0B8DF1200020E01011E
:103F80006D6F68C171F167C170F166C16FF165C194
:103F90006EF100012EEC06F0AFEF20F0020E0101F1
:103FA0009B6F000104EC08F0D0EF20F0040E01013B
:103FB00066256B6F6D6F6AC171F169C170F168C17F
:103FC0006FF167C16EF100012EEC06F01200030ED6
:103FD00001019B6F000104EC08F012006AC129F096
:103FE000030E01016B6F6AC16CF1000185EC05F0F5
:103FF00012000101686B6851010840E329C069F1B2
:10400000010E6A6F0001EADF61C16AF162C16BF102
:1040100066C16FF165C16EF164C16DF163C16CF190
:1040200067C170F10101716B0001F3EC10F068ECF5
:1040300005F0320E01016A6F000130EC05F061C13C
:104040006AF162C16BF166C16FF165C16EF164C165
:104050006DF163C16CF10F0E0101706F716B0001A6
:10406000F3EC10F0960E01016A6F000130EC05F0E0
:1040700069C16AF1B3DF0101682BBDD700011200ED
:1040800001016251040816E0000E17BC010E636FB7
:104090006A6F2AC06BF125C06FF124C06EF123C096
:1040A0006DF122C06CF126C070F1716B0001F3EC70
:1040B00010F014D0060E000165250101636F7669CA
:1040C00077697B6B7A6B796B64C078F17C697D6B07
:1040D0007E6B7F6F806B0001EFEC0AF012002BEC1F
:1040E00016F001C05FF1010160915E2D1AD0000150
:1040F00068EC05F017BC06D0178C020E01015F6F4B
:1041000005D00001179C010E01015F6F000E17BC66
:10411000010E616F6B6B6C6F000185EC05F00101A6
:1041200060915E51020851E1000E17BC010E616FF3
:10413000626F28C063F10001DAEC09F003C064F19A
:1041400002C063F101C062F100C061F103C068F117
:1041500002C067F101C066F100C065F10FD7000E23
:1041600017BC010E0101616F26C062F10001F1EC84
:1041700009F003C065F102C064F101C063F100C041
:1041800062F161C166F128C067F103C06BF102C042
:104190006AF101C069F100C068F1F4EC15F0FED6D7
:1041A00003C064F102C063F101C062F100C061F1BB
:1041B00026C066F103C06AF102C069F101C068F16E
:1041C00000C067F1F3DE010160815E510308D8A4ED
:1041D000FDD05F5103081DE3000E17BC010E616F97
:1041E0000001F5DE03C065F102C064F101C063F1B6
:1041F00000C062F161C166F128C067F103C06BF1D4
:1042000002C06AF101C069F100C068F1F4EC15F078
:1042100001015F510408D8A4D8D0000E17BC010ECC
:10422000616F65C062F1625306E1010E0001666FC5
:10423000280E676F0101622D06D0010E0001666F26
:10424000280E676F01016251020806E1010E0001AC
:10425000666F500E676F010100016651645DD8A062
:1042600066C064F0010E675D6625645D05E004E3E9
:10427000010E675D6625646F010162532BE1010E3B
:104280000001645D0101646F676B666F696B040E0A
:10429000686F000127EC11F002C003F00150F2CF6B
:1042A00063F1F29E02C0F7FFCBEC02F00900F5CFFC
:1042B00001F00900F5CF02F00900F5CF03F001018C
:1042C00063BFF28E03C063F002C062F001C061F010
:1042D000E8CF60F0622D2BD0270E0001642501018C
:1042E000646F676B666F696B040E686F000127EC83
:1042F00011F002C003F00150F2CF63F1F29E02C050
:10430000F7FFCBEC02F00900F5CF01F00900F5CF83
:1043100002F00900F5CF03F0010163BFF28E03C084
:1043200063F002C062F001C061F0E8CF60F062515A
:1043300002082BE1010E0001645D0101646F676BEF
:10434000666F696B040E686F000127EC11F002C004
:1043500003F00150F2CF63F1F29E02C0F7FFCBEC05
:1043600002F00900F5CF01F00900F5CF02F00900D5
:10437000F5CF03F0010163BFF28E03C063F002C00A
:1043800062F001C061F0E8CF60F060C000F061C091
:1043900001F062C002F063C003F003C065F102C027
:1043A00064F101C063F100C062F161C166F128C02F
:1043B00067F103C06BF102C06AF101C069F100C08E
:1043C00068F10001F4EC15F0010160815E51040810
:1043D0003BE15F5102081EE3000E17BC010E616F46
:1043E000626F28C063F10001DAEC09F003C064F1E8
:1043F00002C063F101C062F100C061F126C066F144
:1044000003C06AF102C069F101C068F100C067F140
:10441000CDDD01015F51030816E10001D8DD03C0C5
:1044200064F102C063F101C062F100C061F126C015
:1044300066F103C06AF102C069F101C068F100C011
:1044400067F1B4DD010160815E51050819E129526F
:1044500005E1030E5F6F010E296E09D0296A17BCB2
:1044600002D0010E5F6F17AC02D0020E5F6F030E19
:104470006B6F29C06CF1000185EC05F001016091C2
:1044800060A110D061692AC062F125C066F124C024
:1044900065F123C064F122C063F126C067F1000119
:1044A000A8DD01010001F9EC09F001C061F101C0D2
:1044B00062F1E6DD83B203D082AA01D082ACFAD7E2
:1044C0001A9C120017AA02D0179A01D0178A2FDC63
:1044D00001C02AF0120068EC05F001015F510208EA
:1044E000D8A0A0D082B65DD0000E17BC010E606FC0
:1044F000666F28C067F125C06BF124C06AF123C044
:1045000069F122C068F10001F4EC15F001015E537D
:1045100007E1285203E1090E286E01D0280606D0D3
:104520002850090802E1286A01D0282A010E6B6F81
:1045300028C06CF1000185EC05F0000E17BC010EDF
:104540000101606F626F28C063F10001DAEC09F0CD
:1045500003C025F002C024F001C023F000C022F007
:104560000101626B28C063F10001DAEC09F003C0BD
:1045700053F002C052F001C051F000C050F0010EE3
:104580000101626F28C063F10001DAEC09F003C099
:1045900057F002C056F001C055F000C054F043D0AF
:1045A00001015E5320E15B50255C14E30BE15A509E
:1045B000245C10E307E15950235C0CE303E1225033
:1045C000585C08E2500E225EC30E235A000E245A95
:1045D000255A08D05FC025F05EC024F05DC023F0EE
:1045E0005CC022F01FD025505F5C14E30BE1245027
:1045F0005E5C10E307E123505D5C0CE303E15C507B
:10460000225C08E2500E2226C30E2322000E242232
:10461000252208D05BC025F05AC024F059C023F0F1
:1046200058C022F0000101015F5103081DE15E53F3
:1046300007E1265202E0260602D00E0E266E06D0B4
:1046400026500D0802E3262A01D0266A26C062F110
:104650000001F1EC09F003C025F002C024F001C014
:1046600023F000C022F001015F5104080FE15E5306
:1046700007E100016451010801E2640706D001016D
:1046800000016751645D01E2642B010100012BEC24
:1046900016F01200295002080BE018A402D018945A
:1046A00002D01892188497EC1EF001C02AF01FD097
:1046B00001017669776925C07BF124C07AF123C0B6
:1046C00079F122C078F17C697D6B7E6B7F6B806BAA
:1046D0000001EFEC0AF0040E01015E6FFA0E6A6F42
:1046E000000130EC05F001015E2FF8D70001120047
:1046F00001015F6B295227E117BC11D0626B28C002
:1047000063F10001DAEC09F003C025F002C024F0E7
:1047100001C023F000C022F0010E01015F6F17AC51
:1047200012D0010E626F28C063F10001DAEC09F0CB
:1047300003C025F002C024F001C023F000C022F025
:10474000020E01015F6F292C15D0000140DC03C06F
:1047500025F002C024F001C023F000C022F0040EB6
:104760000101626F0001B6EC05F001C026F0030EF6
:1047700001015F6F295002080AE1060E626F000115
:10478000B6EC05F001C064F0040E01015F6F5FC17B
:1047900001F00001120068EC05F01892189497ECF3
:1047A0001EF001C02AF02BEC16F001C05EF10101F1
:1047B0005E51030840E30B0E6B6F29C06CF10001E2
:1047C00085EC05F0020E296E030E01016B6F29C006
:1047D0006CF1000185EC05F08BDF070E0101626FC3
:1047E0000001B6EC05F001C065F025C062F124C0FF
:1047F00061F123C060F122C05FF1FCEC11F003C055
:1048000025F002C024F001C023F000C022F0010115
:1048100076692AC077F17B6B7A6B796B64C078F12B
:104820007C697D6B7E6B020E7F6F806B0001EFEC0D
:104830000AF03CD001015E51040839E10B0E626FB1
:104840000001B6EC05F001C029F0030E01016B6F09
:1048500029C06CF1000185EC05F04ADF25C062F14A
:1048600024C061F123C060F122C05FF1FCEC11F0C3
:1048700003C025F002C024F001C023F000C022F0E4
:10488000000E17BC010E01015F6F6A6F2AC06BF149
:1048900025C06FF124C06EF123C06DF122C06CF110
:1048A00026C070F1716B0001F3EC10F00101000102
:1048B000120001013C6B3B6B3A6B04C139F10339C7
:1048C000006E0F0E001600500F0B3D6F3E6B3F6BDE
:1048D000406B03510F0B416F426B436B446B0239CA
:1048E000006E0F0E001600500F0B456F466B476BA6
:1048F000486B02510F0B496F4A6B4B6B4C6B013984
:10490000006E0F0E001600500F0B4D6F4E6B4F6B6D
:10491000506B01510F0B516F526B536B546B00393D
:10492000006E0F0E001600500F0B556F566B576B35
:10493000586B00510F0B596F5A6B5B6B5C6B00012E
:104940007EEC1EF001C05DF101013951006E3A515B
:10495000036E035006E1010E005C0001D8B47AD06A
:104960000101035006E1020E005C0001D8B478D0CA
:104970000101035006E1030E005C0001D8B47AD0B7
:104980000101035006E1040E005C0001D8B47CD0A4
:104990000101035006E1050E005C0001D8B479D096
:1049A0000101035006E1060E005C0001D8B47BD083
:1049B0000101035006E1070E005C0001D8B47DD070
:1049C0000101035006E1080E005C0001D8B480D05C
:1049D0000101035006E1090E005C0001D8B482D049
:1049E0000101035006E10A0E005C0001D8B47FD03B
:1049F0000101035006E10B0E005C0001D8B421D187
:104A00000101035006E10F0E005C0001D8B423D170
:104A10000101035006E1FC0E005C0001D8B4C5D1D1
:104A20000101035006E1FE0E005C0001D8B4C6D1BE
:104A30000101035006E1FF0E005C0001D8B4C8D1AB
:104A40000101035006E1FD0E005C0001D8B4C3D1A2
:104A50000101C4D1AFEC1FF068EC05F00101BED13B
:104A6000050E01015E6F00016FEC20F068EC05F0AF
:104A70000101B4D1040E01015E6F00016FEC20F062
:104A800068EC05F00101AAD11DDD68EC05F001011B
:104A9000A5D1010E01015E6F00016FEC20F068EC02
:104AA00005F001019BD1030E01015E6F00016FEC67
:104AB00020F068EC05F0010191D1010E01015E6F5B
:104AC0005DC15FF1000107DD68EC05F0010186D1F1
:104AD00001015E6B5DC15FF10001FDDC68EC05F07A
:104AE00001017CD1D7DD68EC05F0010177D144C12B
:104AF000A1F143C1A0F142C19FF141C19EF1010169
:104B0000A56B0F0EA46F420EA36F400EA26F0001A3
:104B1000A4EC11F003C061F102C060F101C05FF1CB
:104B200000C05EF148C1A1F147C1A0F146C19FF1AB
:104B300045C19EF10101A56B010EA46F860EA36F06
:104B4000A00EA26F0001A4EC11F0005001015E273D
:104B500001505F2302506023035061234CC1A1F137
:104B60004BC1A0F14AC19FF149C19EF1A56BA46B55
:104B7000270EA36F100EA26F0001A4EC11F00050DD
:104B800001015E2701505F2302506023035061231F
:104B900050C1A1F14FC1A0F14EC19FF14DC19EF195
:104BA000A56BA46B030EA36FE80EA26F0001A4EC2B
:104BB00011F0005001015E2701505F230250602375
:104BC0000350612354C1A1F153C1A0F152C19FF11F
:104BD00051C19EF1A56BA46BA36B640EA26F000183
:104BE000A4EC11F0005001015E2701505F23025038
:104BF00060230350612358C1A1F157C1A0F156C1F0
:104C00009FF155C19EF1A56BA46BA36B0A0EA26F19
:104C10000001A4EC11F0005001015E2701505F2358
:104C2000025060230350612359515E25226E5A5170
:104C30005F21236E5B516021246E5C516121256EE2
:104C4000CDD0020E01015E6F00016FEC20F068EC28
:104C500005F00101C3D058C1A1F157C1A0F156C15F
:104C60009FF155C19EF10101A56B0F0EA46F420E7D
:104C7000A36F400EA26F0001A4EC11F003C061F11C
:104C800002C060F101C05FF100C05EF15CC1A1F142
:104C90005BC1A0F15AC19FF159C19EF10101A56B01
:104CA000010EA46F860EA36FA00EA26F0001A4ECEC
:104CB00011F0005001015E2701505F230250602374
:104CC0000350612350C1A1F14FC1A0F14EC19FF12A
:104CD0004DC19EF1A56BA46B270EA36F100EA26FA2
:104CE0000001A4EC11F0005001015E2701505F2388
:104CF000025060230350612354C1A1F153C1A0F1BC
:104D000052C19FF151C19EF1A56BA46B030EA36F1D
:104D1000E80EA26F0001A4EC11F0005001015E2723
:104D200001505F23025060230350612348C1A1F169
:104D300047C1A0F146C19FF145C19EF1A56BA46B8F
:104D4000A36B640EA26F0001A4EC11F000500101EE
:104D50005E2701505F2302506023035061234CC142
:104D6000A1F14BC1A0F14AC19FF149C19EF1A56BD0
:104D7000A46BA36B0A0EA26F0001A4EC11F000500B
:104D800001015E2701505F2302506023035061231D
:104D90003D515E25226E3E515F21236E3F516021C1
:104DA000246E40516121256E19D068EC05F017B8CA
:104DB00002D0178801D01798010110D01F0E0101F1
:104DC0006B6F6C69000185EC05F0FF00010106D0F6
:104DD000FF00010103D017B8DEDC01013C5308E1FC
:104DE0003B5306E13A5304E13951DF08D8B0D1D042
:104DF0003C53D8A4CED03B53D8A4CBD03A53D8A45C
:104E0000C8D03951EE08D8A0C4D0E00E395D5E6F2D
:104E1000000E3A595F6F000E3B59606F000E3C590F
:104E2000616F44C1A1F143C1A0F142C19FF141C1F1
:104E30009EF1A56B0F0EA46F420EA36F400EA26FE2
:104E40000001A4EC11F003C065F102C064F101C0DF
:104E500063F100C062F148C1A1F147C1A0F146C1B0
:104E60009FF145C19EF10101A56B010EA46F860E55
:104E7000A36FA00EA26F0001A4EC11F0005001017D
:104E800062270150632302506423035065234CC101
:104E9000A1F14BC1A0F14AC19FF149C19EF1A56B9F
:104EA000A46B270EA36F100EA26F0001A4EC11F0EB
:104EB0000050010162270150632302506423035014
:104EC000652350C1A1F14FC1A0F14EC19FF14DC169
:104ED0009EF1A56BA46B030EA36FE80EA26F0001F9
:104EE000A4EC11F00050010162270150632302502D
:104EF00064230350652354C1A1F153C1A0F152C1F1
:104F00009FF151C19EF1A56BA46BA36B640EA26FC0
:104F10000001A4EC11F0005001016227015063234D
:104F2000025064230350652358C1A1F157C1A0F179
:104F300056C19FF155C19EF1A56BA46BA36B0A0EE0
:104F4000A26F0001A4EC11F0005001016227015092
:104F500063230250642303506523595162275A5139
:104F600063235B5164235C5165235EC166F165C1B7
:104F70006AF164C169F163C168F162C167F100015E
:104F8000D6EC1FF0030E01015F6F000174EC05F019
:104F900001011888010E016E00014DEF2FF0010193
:104FA000416B415117080BE3036A4151950FE96EBC
:104FB000000E0320EA6E300EEF6E412BF2D7000197
:104FC00012009EA8FED701014451AD6EACA2FED7DF
:104FD000020E456FCF0E8D6F00014AEC0AF0010101
:104FE000452FF8D700011200010E01016A6F000180
:104FF00030EC05F00101426B4251170814E3036ADB
:105000004251950FE96E000E0320EA6EEFCF43F197
:1050100043C144F10001D5DF010143513B08D8B43D
:1050200002D0422BE9D7000112001AAA0ED0B7DF36
:10503000D3C095F0D4C096F0D5C097F0D6C098F004
:10504000D7C099F03B0E9A6FCFDF67EF2EF00101CA
:105050000251300801E11A900251310801E11A8031
:1050600000016BEF2EF044C18BF143C18AF142C1C4
:1050700089F141C188F18BC18FF18AC18EF189C15B
:105080008DF188C18CF10101466B8F530DE18E517A
:105090000E0815E2FF0A08E18D51410810E2FF0AEF
:1050A00003E18C513F080BE2400E8C5F420E8D5B9A
:1050B0000F0E8E5B000E8F5B010E4627E6D7476B07
:1050C0008F530DE18E51000815E2FF0A08E18D5162
:1050D000850810E2FF0A03E18C519F080BE2A00E45
:1050E0008C5F860E8D5B010E8E5B000E8F5B010E5A
:1050F0004727E6D7486B8F530AE18E5308E18D515D
:1051000026080FE2FF0A03E18C510F080AE2100E95
:105110008C5F270E8D5B000E8E5B8F5B010E482728
:10512000EAD7496B8F530AE18E5308E18D5102088B
:105130000FE2FF0A03E18C51E7080AE2E80E8C5FF8
:10514000030E8D5B000E8E5B8F5B010E4927EAD745
:105150004A6B8F5307E18E5305E18D5303E18C5168
:10516000630809E2640E8C5F000E8D5B8E5B8F5BC3
:10517000010E4A27EED74B6B8F5307E18E5305E1A3
:105180008D5303E18C51090809E20A0E8C5F000E71
:105190008D5B8E5B8F5B010E4B27EED74C6B8C5378
:1051A00006E18D5304E18E5302E18F5309E0010EB5
:1051B0008C5F000E8D5B8E5B8F5B010E4C27EFD7F3
:1051C000036A4551950FE96E000E0320EA6E300E1A
:1051D0004625EF6E010E4525036A950FE96E000E18
:1051E0000320EA6E300E4725EF6E020E4525036A56
:1051F000950FE96E000E0320EA6E300E4825EF6E23
:10520000030E4525036A950FE96E000E0320EA6E32
:10521000300E4925EF6E040E4525036A950FE96EA1
:10522000000E0320EA6E300E4A25EF6E050E45256E
:10523000036A950FE96E000E0320EA6E300E4B25CF
:10524000EF6E060E4525036A950FE96E000E0320EA
:10525000EA6E300E4C25EF6E00011200A0DE53C046
:1052600044F152C043F151C042F150C041F1050E2A
:105270000101456F0001F7DE460E956F410E966FF6
:105280003B0EA26FB1DE12008ADE57C044F156C059
:1052900043F155C042F154C041F1050E0101456F83
:1052A0000001E1DE460E956F420E966F3B0EA26F37
:1052B0009BDE1200036A01014151950FE96E000E59
:1052C0000320EA6E05C1EFFF010E4125036A950F29
:1052D000E96E000E0320EA6E06C1EFFF020E4125C3
:1052E000036A950FE96E000E0320EA6E07C1EFFF17
:1052F000030E4125036A950FE96E000E0320EA6E46
:1053000008C1EFFF040E4125036A950FE96E000EF8
:105310000320EA6E09C1EFFF050E4125036A950FD0
:10532000E96E000E0320EA6E0AC1EFFF060E41256A
:10533000036A950FE96E000E0320EA6E0BC1EFFFC2
:10534000036A4151950FE96E000E0320EA6E300E9C
:10535000EF5C326E010E4125036A950FE96E000E77
:105360000320EA6E300EEF5C336E020E4125036AB5
:10537000950FE96E000E0320EA6E300EEF5C346E7E
:10538000030E4125036A950FE96E000E0320EA6EB5
:10539000300EEF5C356E040E4125036A950FE96E01
:1053A000000E0320EA6E300EEF5C366E050E4125CE
:1053B000036A950FE96E000E0320EA6E300EEF5C73
:1053C000376E060E4125036A950FE96E000E032025
:1053D000EA6E300EEF5C386E32C042F133C043F1FA
:1053E00034C044F135C045F136C046F137C047F10D
:1053F00038C048F14C6B4B6B4A6B496B506B4F6B31
:105400004E6B42C14DF150C1A1F14FC1A0F14EC14F
:105410009FF142C19EF1A56B0F0EA46F420EA36FC8
:10542000400EA26F0001A4EC11F003C050F102C0C5
:105430004FF101C04EF100C04DF10101546B536BAF
:10544000526B43C151F154C1A1F153C1A0F152C1FA
:105450009FF143C19EF1A56B010EA46F860EA36F51
:10546000A00EA26F0001A4EC11F0005001014D2725
:1054700001504E2302504F2303505023546B536B63
:10548000526B44C151F154C1A1F153C1A0F152C1B9
:105490009FF144C19EF1A56BA46B270EA36F100E64
:1054A000A26F0001A4EC11F0005001014D27015042
:1054B0004E2302504F2303505023546B536B526BB7
:1054C00045C151F154C1A1F153C1A0F152C19FF1A5
:1054D00045C19EF1A56BA46B030EA36FE80EA26FEE
:1054E0000001A4EC11F0005001014D2701504E23A2
:1054F00002504F2303505023546B536B526B46C1E1
:1055000051F154C1A1F153C1A0F152C19FF146C163
:105510009EF1A56BA46BA36B640EA26F0001A4ECBB
:1055200011F0005001014D2701504E2302504F232E
:1055300003505023546B536B526B47C151F154C10C
:10554000A1F153C1A0F152C19FF147C19EF1A56BDA
:10555000A46BA36B0A0EA26F0001A4EC11F0005023
:1055600001014D2701504E2302504F230350502379
:10557000016A026A036A48514D25496F01504E2164
:105580004A6F02504F214B6F035050214C6F4CC15A
:105590002AF14BC129F14AC128F149C127F127C19C
:1055A00000F028C101F029C102F02AC103F0000176
:1055B0001200F5DC050E0101416F00017BDE03C026
:1055C0002AF102C029F101C028F100C027F1179C7F
:1055D0002AC125F029C124F028C123F027C122F0D7
:1055E00025C053F024C052F023C051F022C050F027
:1055F00035DE8DEF2EF0D3DC050E0101416F000189
:1056000059DE03C02AF102C029F101C028F100C00F
:1056100027F1178C2AC125F029C124F028C123F0D5
:1056200027C122F025C057F024C056F023C055F002
:1056300022C054F029DE92EF2EF02BEC16F001017F
:105640004151300815E1296A179C000E17BC010E64
:10565000426F626F28C063F10001DAEC09F003C009
:1056600025F002C024F001C023F000C022F00101A7
:105670004151310815E1296A178C000E17BC010E43
:10568000426F626F28C063F10001DAEC09F003C0D9
:1056900025F002C024F001C023F000C022F0010177
:1056A0004151320810E1010E296E26C062F100015D
:1056B000F1EC09F003C025F002C024F001C023F092
:1056C00000C022F00101030E6B6F29C06CF10001D4
:1056D00085EC05F0000E17BC010E0101426F6B6BEB
:1056E0006C6F000185EC05F099EF2EF0460E956F7A
:1056F000520E966F0101415304E1300E0001976F85
:1057000003D0310E0001976F3B0E986F6DDC1200D5
:1057100046DC01010251300825E117AC10D0010E22
:10572000666F28C067F157C06BF156C06AF155C06B
:1057300069F154C068F10001F4EC15F00101179C07
:105740006B6B6C6B000185EC05F053C025F052C00B
:1057500024F051C023F050C022F00101416B000140
:10576000C5DF01010251310826E117BC0FD0666B7D
:1057700028C067F153C06BF152C06AF151C069F1A2
:1057800050C068F10001F4EC15F00101178C6B6B4F
:10579000010E6C6F000185EC05F057C025F056C076
:1057A00024F055C023F054C022F0010E0101416FD6
:1057B00000019CDF010100019EEF2EF0CFEC27F0ED
:1057C00017BC04D00101416B000190DF17AC05D07C
:1057D000010E0101416F000189DFA3EF2EF0460E9B
:1057E000956F540E966F0101415304E1300E000194
:1057F000976F03D0310E0001976F3B0E986FF4EC5A
:1058000027F01200CFEC27F001010251300825E10A
:1058100017AC10D0010E666F28C067F157C06BF14E
:1058200056C06AF155C069F154C068F10001F4EC4A
:1058300015F00101179C6B6B6C6B000185EC05F09A
:1058400053C025F052C024F051C023F050C022F0C4
:105850000101416B0001C3DF01010251310826E162
:1058600017BC0FD0666B28C067F153C06BF152C0F4
:105870006AF151C069F150C068F10001F4EC15F013
:105880000101178C6B6B010E6C6F000185EC05F04C
:1058900057C025F056C024F055C023F054C022F064
:1058A000010E0101416F00019ADF01010001A6EF25
:1058B0002EF0CFEC27F017BC04D00101416B0001A2
:1058C0008EDF17AC05D0010E0101416F000187DFAB
:1058D000ABEF2EF0295202E0292C15D0300E3224E5
:1058E000B26F300E3324B36F300E3424B46F300EE9
:1058F0003524B56F300E3624B66F300E3724B76FAF
:10590000300E3824B86F29500208D8A4CFD025C053
:105910008BF124C08AF123C089F122C088F18BC1A8
:105920008FF18AC18EF189C18DF188C18CF101019D
:105930001F6B8F530DE18E510E0815E2FF0A08E12F
:105940008D51410810E2FF0A03E18C513F080BE240
:10595000400E8C5F420E8D5B0F0E8E5B000E8F5BD8
:10596000010E1F27E6D7206B8F530DE18E510008E3
:1059700015E2FF0A08E18D51850810E2FF0A03E1F4
:105980008C519F080BE2A00E8C5F860E8D5B010E82
:105990008E5B000E8F5B010E2027E6D7216B8F53A5
:1059A0000AE18E5308E18D5126080FE2FF0A03E158
:1059B0008C510F080AE2100E8C5F270E8D5B000ED3
:1059C0008E5B8F5B010E2127EAD7226B8F530AE192
:1059D0008E5308E18D5102080FE2FF0A03E18C515A
:1059E000E7080AE2E80E8C5F030E8D5B000E8E5B0B
:1059F0008F5B010E2227EAD7236B8F5307E18E536B
:105A000005E18D5303E18C51630809E2640E8C5F5C
:105A1000000E8D5B8E5B8F5B010E2327EED7246B10
:105A20008F5307E18E5305E18D5303E18C51090833
:105A300009E20A0E8C5F000E8D5B8E5B8F5B010EA0
:105A40002427EED7256B8C5306E18D5304E18E534A
:105A500002E18F5309E0010E8C5F000E8D5B8E5BBF
:105A60008F5B010E2527EFD7300E1F250001B26F87
:105A7000300E010120250001B36F300E01012125F8
:105A80000001B46F300E010122250001B56F300E08
:105A9000010123250001B66F300E0101242500010C
:105AA000B76F300E010125250001B86F2650090897
:105AB00007E2310EC76F0A0E265C300FC86F04D0A4
:105AC000300EC76F2624C86F1AA803D0310EC96FD5
:105AD00002D0300EC96F20C0CAF017BC03D0300E00
:105AE000CB6FCD6F17AC03D0310ECB6FCD6F300EB7
:105AF000CC6F12000101266B2651250811E3036AC1
:105B00002651AD0FE96E000E0320EA6EEFCF41F192
:105B100041C144F10001E1EC27F00101262BECD753
:105B20000001120001010251300801E11A9A0251EC
:105B3000310801E11A8A000E1ABA010E416F0F0EE8
:105B40006B6F41C16CF1000185EC05F068EC05F06C
:105B5000B2EF2EF04C0E956F4B0E966F0101415334
:105B600004E1300E0001976F03D0310E0001976FF2
:105B70003B0E986FF4EC27F01200CFEC27F017BA29
:105B800004D00101416B0001E5DF17AA05D0010E29
:105B90000101416F0001DEDFB5EF2EF0CFEC27F001
:105BA00001010251300805E1179A416B0001D2DF73
:105BB00001010251310806E1178A010E416F00010F
:105BC000C9DF0101000197EC1EF001C02AF0B8EF17
:105BD0002EF00101422D0CD0616B00010EEC08F09B
:105BE000070E0101A06F0001EAEC04F00DD00101E5
:105BF000A06B0001EAEC04F017AA06D0010E010127
:105C0000616F00010EEC08F0120001013D6B000114
:105C10007EEC1EF001C03EF10101406B3F6B3F5135
:105C20001E084AE33F51040DF350036AF2CF41F1DD
:105C3000F29E00013BEC04F0010141BFF28E016EC7
:105C4000005D38E13F51040DF350010F036AF2CFBC
:105C500041F1F29E00013BEC04F0010141BFF28EE4
:105C6000016E015D27E13F51040DF350020F036AFD
:105C7000F2CF41F1F29E00013BEC04F0010141BF83
:105C8000F28E036AE96E010E0324EA6EEF503B08C0
:105C900011E13F51040DF350030F036AF2CF41F1BC
:105CA000F29E00013BEC04F0010141BFF28E016E57
:105CB000406F02D03F2BB3D7010E405DE20FD8B04A
:105CC000A6D01E0F000113EF2FF015EF28F00101F1
:105CD0009ED027EF28F001019AD001015E6B3EC1F2
:105CE0005FF100016BEC22F0010E01013D6F8FD0DE
:105CF000010E01015E6F3EC15FF100016BEC22F00D
:105D0000010E01013D6F83D02EEC29F001017FD0FF
:105D100044EC29F001017BD04CD4010E01013D6F10
:105D200076D069D4010E01013D6F71D002C141F1FD
:105D300084D4010E01013D6F6AD0EAD4020E010144
:105D40003D6F65D03BD5010162D05CD5020E0101EB
:105D50003D6F5DD0AED501015AD0BCDDCBDE010177
:105D600056D0E0D6010153D008D7010150D016D744
:105D7000020E01013D6F4BD0010149D002C120F05C
:105D80000E0E01016B6F20C06CF1000185EC05F077
:105D900001013DD0000E17BC010E040DF350036A43
:105DA000500FE96E000E0320EA6EEFCF39F1ECCF11
:105DB0003AF1ECCF3BF1ECCF3CF1010128D00101ED
:105DC00026D0010124D0010122D0010120D00101FF
:105DD0001ED01A96000E1AB6010E0101416F426FD5
:105DE0000001F7DE010113D01A86000E1AB6010E6B
:105DF0000101416F426F0001ECDE010108D0010199
:105E000006D0010104D02180010101D001012196B9
:105E10003D5303E03DC101F003D01888000E016E30
:105E2000000157EF2FF0F2CF0DF0F29EE824F76A51
:105E3000F7364B0FF66E5E0EF7220A00F550FA6E3B
:105E40000800F5500DBEF28EF96ECA5CD25CDA5CC9
:105E5000F05C085D105D185D225D2C5D3A5D445D6F
:105E60004A5D545D5A5D625D685D6E5D785D7C5D26
:105E7000945DBE5DC25DC65DCA5DCE5DD25DE85D0E
:105E8000FE5D025E065E0101386B1AB209D021A6E2
:105E900007D02196000159EF24F001C038F101012B
:105EA0001AA208D021A606D021960001AED601C0C4
:105EB00038F1010121A014D01AB202D01A8201D007
:105EC0001A92000E1AB2010E396F0C0E6B6F39C1A7
:105ED0006CF1000185EC05F068EC05F02190010102
:105EE00038C101F00001120001012F51020809E33D
:105EF00030512226000E232224222522150E016E67
:105F000014D02F51030806E126500D0802E3262A7B
:105F100001D0266A2F51040808E1010E5E6F2FC1DF
:105F20005FF100016BEC22F001010001C0EF37F0DE
:105F300001012F51020809E33051225E000E235A5D
:105F4000245A255A150E016E13D02F51030806E16D
:105F5000265202E0260602D00E0E266E2F510408AD
:105F600007E15E6B2FC15FF100016BEC22F00101D4
:105F70000001CAEF37F001012F5102080CE30001C4
:105F800068EC05F0010E01015E6F2FC15FF10001A9
:105F90006BEC22F001012F51040804E1000175ECC3
:105FA0001FF001010001D2EF37F001012F5102086B
:105FB00006E3640E2226000E23222422252200015D
:105FC000D8EF37F001012F51020806E3640E225E7C
:105FD000000E235A245A255A0001DEEF37F0010142
