:0400000034EF0BF0DE
:08000800046ED8CF05F0E0CF33
:1000100006F00001E9CF0CF0EACF07F0E1CF08F0DD
:10002000E2CF09F0D9CF0AF0DACF0BF0F3CF12F01C
:10003000F4CF13F0FACF14F000C00EF001C00FF0AF
:1000400002C010F003C011F09DAA2AEF00F09EBA82
:10005000CDEF00F00EC000F00FC001F010C002F0B4
:1000600011C003F00CC0E9FF07C0EAFF078E08C00B
:10007000E1FF09C0E2FF0AC0D9FF0BC0DAFF12C0DE
:10008000F3FF13C0F4FF14C0FAFF045006C0E0FFF2
:1000900005C0D8FF1000F2CF0DF0F29EF76AB00F46
:1000A000F66E000EF7220900F5500DBEF28E12001A
:1000B00005000E0000000F001800010019002700C5
:1000C000020028004A0003004B0068000400690099
:1000D000900005009100B8000600B900D6000700A6
:1000E000D700F9000800FA002C010900F2CF0DF04A
:1000F000F29EF76A060FF66E010EF7220900F55020
:100100000DBEF28E12000A00110000001200220043
:100110000100230045000200460064000300650062
:100120008B0004008C00B3000500B400D100060071
:10013000D200EF000700F0001701080018012C01A1
:100140000900F2CF0DF0F29EF76A5C0FF66E010E19
:10015000F7220900F5500DBEF28E12000F001400B8
:100160002300280046004B00640069008C009100C9
:10017000B400B900D200D700F000FF0018012C0134
:10018000000000009EAAFED7ABCF16F0AECF01F064
:1001900016A202D0AB98AB8812009EAA20D0F2DF44
:1001A00001C059F0036A64505A0FE96E000E032033
:1001B000EA6E59C0EFFF642A666A656A64500508F2
:1001C0000EE1036A64505A0FE96E000E0320EA6ED6
:1001D000EF6A646A188E9EAA02D0D4DFFCD79E9A7A
:1001E0002AEF00F08951000A0FE0010A0FE0030A2C
:1001F00010E0010A11E0070A12E0010A13E0030A05
:1002000014E0010A15E017D0806A16D0080E806E3F
:1002100013D0040E806E10D00C0E806E0DD0020E26
:10022000806E0AD00A0E806E07D0060E806E04D053
:100230000E0E806E01D0806A89C067F01200EA6AF3
:100240007E0EE96EEF500DE0060E016E006A002E84
:10025000FED7012EFBD77B0E006E002EFED7EF2EB1
:10026000F3D7120067C068F0010E896FBBDF00D0C2
:1002700068C089F0B7DF1200818E00D0819E120025
:10028000650E816EEFDF5D0E816EECDF4C0E816ED0
:10029000E9DF600E816EF0DF510E816EEDDF4E0EF4
:1002A000816EEADF72EF01F0C290010E926E000ED5
:1002B000936EFF0E946E956E969096929694896BBF
:1002C00091DFC80E7E6EBBDF808A00D000D00000B8
:1002D00082A002D0179801D01788809A9D8AC00EFC
:1002E000F212CED784EF0BF0F2CF8CF0F29E8BC0DF
:1002F000A9FFA69CA69EA680A8508CBFF28E016E78
:100300001200016A026A006A036A8C5102E18B5191
:1003100018E0100E8D6FD89089378A370036033673
:100320008C51035C02E18B51005C07E38B51005E52
:10033000D8A003068C51035ED880013602368D2F7B
:10034000EAD7120082518403F3CF01F0F4CF00F01A
:100350008503F350002683518403F3500020026E7E
:10036000A3EF03F0F2CF8EF0F29E8BC0A9FFA69C04
:10037000A69EA680A8508EBFF28E8D6F8C518D5D8B
:10038000D8B416D0F250006EF29E8BC0A9FF8CC07C
:10039000A8FFA69CA69EA6840F01550EA76EAA0EC6
:1003A000A76EA682A6B2FED7A6940050F212000154
:1003B00012008851050DF3CF89F089C08BF01BC066
:1003C0008CF0D0DF010E89258A6F8B6F1EC08CF0F8
:1003D000C9DF020E89258A6F8B6F1FC08CF0C2DFC8
:1003E000030E89258A6F8B6F20C08CF0BBDF040E53
:1003F00089258A6F8B6F21C08CF0B4DF1200885181
:10040000050DF350400F896F89C08BF01BC08CF035
:10041000A9DF010E89258A6F8B6F1EC08CF0A2DFC9
:10042000020E89258A6F8B6F1FC08CF09BDF030E35
:1004300089258A6F8B6F20C08CF094DF040E89258C
:100440008A6F8B6F21C08CF08DDF12008651050DF5
:10045000F350B00F876F87C08BF01BC08CF082DF2A
:10046000010E8725886F8B6F1EC08CF07BDF020E1C
:100470008725886F8B6F1FC08CF074DF030E872574
:10048000886F8B6F20C08CF06DDF040E8725886F1E
:100490008B6F21C08CF066DF12008851050DF3CF01
:1004A00089F089C08BF020DF01C01BF0010E892587
:1004B0008A6F8B6F19DF01C01EF0020E89258A6FCB
:1004C0008B6F12DF01C01FF0030E89258A6F8B6FBF
:1004D0000BDF01C020F0040E89258A6F8B6F04DFCB
:1004E00001C021F0A1EF02F08851050DF350400F3B
:1004F000896F89C08BF0F8DE01C01BF0010E8925E1
:100500008A6F8B6FF1DE01C01EF0020E89258A6FA3
:100510008B6FEADE01C01FF0030E89258A6F8B6F97
:10052000E3DE01C020F0040E89258A6F8B6FDCDECC
:1005300001C021F0A6EF02F0875303E137C088F035
:10054000ACD7872D03D037C088F0CED7120017AABA
:1005500003D0050E896F46DE17BA02D0896B42DEE2
:1005600012000F0E866F876B8751070841E3000E5C
:1005700017BA010E886F8751040DF350010F036AFB
:10058000390FE96E000E0320EA6EEF50885D2EE110
:10059000000E18B4010E886F8751040DF350020F3E
:1005A000036A390FE96E000E0320EA6EEF50885D92
:1005B0001DE1000E18B2010E886F8751040DF35033
:1005C000030F036A390FE96E000E0320EA6EEF5045
:1005D000885D0CE18751040DF350036A390FE96E11
:1005E000000E0320EA6EEFCF86F002D0872BBCD737
:1005F000AEDF86C001F01200179A189418927F6A35
:100600007F5007083CE37F50040DF350036A390F15
:10061000E96E000E0320EA6EEF507E5C2EE17F5003
:10062000040DF350010F036A390FE96E000E032029
:10063000EA6EEFCF01F0179A01B0178A7F50040DD0
:10064000F350020F036A390FE96E000E0320EA6EC1
:10065000EFCF01F0189401B018847F50040DF350CF
:10066000030F036A390FE96E000E0320EA6EEFCF25
:1006700001F0189201B0188202D07F2AC1D767DF3B
:1006800038EF04F08B6930DE012C01D0C7D07C6AD2
:100690007C50090867E37C50030DF3CF00F0D8903D
:1006A00000360050036AF2CF7EF0F29E1FDD090093
:1006B000F5CF03F07EBEF28E7E6E03C07FF003C0E6
:1006C0008AF0896F8C6B0A0E8B6F1BDE01C01BF0EA
:1006D0007C50030DF3CF00F0D89000360050036A31
:1006E000F2CF7EF0F29E02DD0900F5CF03F07EBE70
:1006F000F28E7E6E03C07FF07C50030DF3CF00F0CE
:10070000D89000360050036AF2CF80F0F29EEEDC03
:100710000900F5CF03F080BFF28E806F03C081F037
:1007200003C08AF0896F8C6B0A0E8B6FEADD02C002
:1007300081F001C080F002C083F001C082F0856BBF
:100740000A0E846FFFD501507E5C1E6E1F6A206A00
:10075000216A226A7CC088F02CDE7CC088F04FDEE3
:100760007C2A96D77C6A7C5008080CE3070E1B6E27
:100770001E6A1F6A206A216A226A7CC086F066DED1
:100780007C2AF1D7030E376E179C179E010E366E2A
:10079000000E17BC010E7E6E876FCEDE179A18947E
:1007A0001892DFDE01C038F0189C316A17BC312A7C
:1007B00037C032F0336A17BE332A36C034F038C03F
:1007C00035F07C6A7C50040813E3F00E7C247E6EC6
:1007D000036A7C50310FE96E000E0320EA6EEFCF02
:1007E0007FF07EC08BF07FC08CF0BCDD7C2AEAD726
:1007F000F250006EF29EA968010EA86EA69CA69EFD
:10080000A6840F01550EA76EAA0EA76EA682A6B2E9
:10081000FED7A6940050F21232D000017D6A7D50BE
:10082000040817E3036A7D50310F016E000E0322A6
:1008300001C07EF003C07FF0F00E7D24806F8B6FCF
:1008400053DD7FC0EAFF7EC0E9FF01C0EFFF7D2AD4
:10085000E6D7179C31B0178C32C037F0179E33B0F3
:10086000178E34C036F035C038F038C07EF0C4D6AC
:10087000000E17BC010E7E6E876F5EDE0F01000159
:1008800086EF0BF0030E7E5E09E3EA6A7E0EE96EE8
:10089000EF5004E001D000D0EF2EFDD7E0EF04F0E0
:1008A0001BC023F01C6A2350090805E20A0E235ED0
:1008B000010E1C26F8D71C5202E10F0E1C6E1D6A99
:1008C000235204E0010E235E1D26FAD71C500F08A8
:1008D00004E11D5202E10F0E1D6E17BE0BD017BCB6
:1008E00002D0010E286E17AC02D00C0E286E0F0E2F
:1008F000306E04D0020E286E36C030F038C029F0B9
:100900001CC02AF01DC02BF01EC02CF01FC02DF003
:1009100020C02EF021C02FF082B4FED782A4FED7D3
:100920007C6A7C500C0850E3036A7C50240FE96E0B
:10093000000E0320EA6EEF500F0BE8A08494E8B09D
:100940008484036A7C50240FE96E000E0320EA6E53
:10095000D890EF300F0BE8A08492E8B08482036A4D
:100960007C50240FE96E000E0320EA6EEF30006E1B
:1009700000323F0E001600500F0BE8A08490E8B044
:100980008480036A7C50240FE96E000E0320EA6E17
:10099000EF30006E003200321F0E001600500F0BB9
:1009A000E8A0809AE8B0808A8088310E006E002E20
:1009B000FED700D08098020E7D6EB80E7E6E62D794
:1009C0007D2EFBD77C2AADD71898809A849084928C
:1009D0008494120067C068F0030E896F03DC00D0B6
:1009E00068C089F0F2EC00F060EF05F0700E8B6FDC
:1009F0008A518B25816E44EF06F01B500A0DF3508F
:100A00001E247C6E7D6A70507C5C07E171507D5CB9
:100A100004E1725202E1735253E07E6A7E5009088B
:100A20004CE37E50030DF3CF00F0D8900036005019
:100A3000036AF2CF89F0F29E4BEC00F00900F5CF8B
:100A400003F089BFF28E016E03507D5C34E303E155
:100A500001507C5C30E37E50030DF350010F006EBB
:100A6000D89000360050036AF2CF89F0F29E4BEC2A
:100A700000F00900F5CF03F089BFF28E016E7D50C2
:100A8000035C19E303E17C50015C15E37E50030D28
:100A9000F350020F006ED89000360050036AF2CF78
:100AA00089F0F29E4BEC00F00900F5CF03F089BF0E
:100AB000F28E6D6E02D07E2AB1D76DC081FF8AD7CB
:100AC0001E50640DF3CF89F01F500A0DF350892595
:100AD00020247F6E806B8051000809E2FF0A03E149
:100AE0007F50F30804E2F40E7F5E010E805B300E4F
:100AF0007F26020E8023816B826B836B846B6E502A
:100B00007F5C03E16F50805D2CE080C082F080311B
:100B10008A6F7F30896F8A3389338A3389338A3386
:100B200089330F0E8A1789510F0B836F7F500F0B7C
:100B3000846F806A300E8125816E32EC01F0200EC8
:100B40008225816E32EC01F0100E8325816E32EC2D
:100B500001F084C081FF32EC01F080C06FF07FC0F3
:100B60006EF0856B866B876B886B70507C5C08E1E0
:100B700071507D5C05E1725203E17352D8B47FD0AD
:100B80006D50050832E37DC08AF07CC089F08C6B23
:100B9000050E8B6F81EC01F002C08AF001C089F074
:100BA0000C0E8927000E8A238A31036E8931026E6A
:100BB00003320232033202320332023202C087F0C1
:100BC0007DC08AF07CC089F08C6B050E8B6F81EC48
:100BD00001F002C08AF001C089F00C0E8927000ED6
:100BE0008A2389510F0B886F31D07DC08AF07CC079
:100BF00089F08C6B050E8B6F81EC01F002C08AF0DE
:100C000001C089F0120E895F000E8A5B8A31036E83
:100C10008931026E0332023203320232033202326F
:100C200002C087F07DC08AF07CC089F08C6B050E15
:100C30008B6F81EC01F002C08AF001C089F0120EC6
:100C4000895F000E8A5B89510F0B886F300E8525F6
:100C5000816E3CEC01F0200E8625816E3CEC01F0AB
:100C6000100E8725816E3CEC01F088C081FF3CECC2
:100C700001F0736A726A7DC071F07CC070F0010E81
:100C80002124896F8A6FB2D612007D6A83A802D0B0
:100C9000080E7D2683AA02D0040E7D2683AC02D0E6
:100CA000020E7D2683AE02D0010E7D267DC001F0AE
:100CB0005BEF06F0EAD701C07CF075507C5C05E084
:100CC0007CC075F0010E016E02D0000E016EA7EF20
:100CD0000BF0A00E866F86C08BF01BC08CF0B2ECC0
:100CE00001F0010E8625876F8B6F1EC08CF0B2EC71
:100CF00001F0020E8625876F8B6F1FC08CF0B2EC5F
:100D000001F0030E8625876F8B6F20C08CF0B2EC4C
:100D100001F0040E8625876F8B6F21C08CF0B2EC3A
:100D200001F095EF06F018B4D4D733EF07F00A0EB0
:100D30002226212620261F261E261B2618AA24D05E
:100D40002250130804E20A0E225E010E21262150D1
:100D5000130804E20A0E215E010E2026205013081B
:100D600004E20A0E205E010E1F261F50130804E243
:100D70000A0E1F5E010E1E261E50130804E20A0E04
:100D80001E5E010E1B2623D02250090804E3010E2B
:100D9000215E0A0E22262150090804E3010E205E7E
:100DA0000A0E21262050090804E3010E1F5E0A0ED8
:100DB00020261F50090804E3010E1E5E0A0E1F269E
:100DC0001E50090804E3010E1B5E0A0E1E260A0EC1
:100DD000225E215E205E1F5E1E5E1B5E120086513B
:100DE000050DF350B00F876F87C08BF074EC01F0E6
:100DF00001C01BF0010E8725886F8B6F74EC01F02A
:100E000001C01EF0020E8725886F8B6F74EC01F015
:100E100001C01FF0030E8725886F8B6F74EC01F003
:100E200001C020F0040E8725886F8B6F74EC01F0F1
:100E300001C021F01200875304E137C088F0D9ECDB
:100E400001F0872D04D037C088F0FFEC01F01200CC
:100E5000842D09D018A201D0189218A402D0189499
:100E600001D0188460D717BE0ED08451170804E152
:100E7000188A050E1E265BDF8451160804E1189AB5
:100E8000050E1E5E54DF17AE12D08451020804E135
:100E90003650010801E236068451030804E1365059
:100EA000070801E3362A36C086F099DF1AD0000E13
:100EB00017BC010E866F876FBEDF8451020803E105
:100EC000375201E037068451030804E1375008081F
:100ED00001E3372A000E17BC010E866F876F9CEC6A
:100EE00002F08451040809E136C086F078DF000E74
:100EF00017BC010E866F876F9EDF8451050814E1D1
:100F000017BE12D0000E17BC010E866F876F93DFDD
:100F100017BC02D0178C01D0179C000E17BC010E15
:100F2000866F876F9CEC02F08451060805E117BAC2
:100F300002D0178A01D0179A8451070815E117AE1D
:100F40000FD0000E17BC010E866F876F9CEC02F06D
:100F500036C086F026EC02F036C086F040DF04D0C2
:100F600036C086F026EC02F08451080815E117AE71
:100F700009D0179E000E17BC010E866F876F9CEC80
:100F800002F00AD0178E000E17BC010E866F876F15
:100F900052DF36C086F023DF8451090808E118A427
:100FA00001D0189418A202D0189201D0188284514E
:100FB0000A0826E1000E17BC010E866F876F9CECB5
:100FC00002F0866B26EC02F036C086F008DF000ED9
:100FD00017BC010E866F876F2EDF866B00DF36C071
:100FE00086F026EC02F017AE04D036C086F0F7DEAD
:100FF00007D0000E17BC010E866F876F9CEC02F0C5
:10100000845304E0B1EC02F001C038F0316A17BC3F
:10101000312A37C032F0336A17BE332A36C034F073
:1010200038C035F0856B8551040814E3F00E852532
:10103000866F036A8551310FE96E000E0320EA6E58
:10104000EFCF87F086C08BF087C08CF0B2EC01F058
:10105000852BE9D784C001F0120081CF69F044EFFD
:1010600008F067C068F0020E896FF2EC00F000D063
:1010700068C089F0F2EC00F04AEF08F069C081FF27
:10108000696A4BEF08F0E9D7700E856F84518525AA
:10109000816EE7D7F3D7DDEF08F05D38006E0F0EF5
:1010A000001600500F0B7C6E5D500F0B7D6E5C3890
:1010B000006E0F0E001600500F0B7E6E5C500F0B73
:1010C0007F6E5B38006E0F0E001600500F0B806FA6
:1010D0005B500F0B816F5A38006E0F0E00160050D8
:1010E0000F0B826F5A500F0B836F5E50010A19E08D
:1010F000030A1BE0010A1DE0070A1FE0010A21E0C4
:10110000030A23E0010A25E00F0A27E0010A29E08B
:10111000030A2BE0010A3CE0040A3EE0F00A4CE03E
:101120004CD0090E846F94DE48D0080E846F90DE98
:1011300044D0070E846F8CDE40D0060E846F88DEAC
:101140003CD0050E846F84DE38D0040E846F80DEC0
:1011500034D0030E846F7CDE30D0020E846F78DED4
:101160002CD0010E846F74DE28D07D500A0DF35010
:101170007E241B6E7FC01EF080C01FF081C020F057
:1011800082C021F083C022F022C084F07CD715D029
:101190000B0E846F5DDE11D082510A0DF350832552
:1011A0001B6E80C01EF081C01FF07EC020F07FC08B
:1011B00021F07CC022F001D0FF00189E010E016ECC
:1011C000B2EF0BF07C6A82A487D082B4FED718A657
:1011D0002BD0808A84808482848400D000D0000058
:1011E00082B00FD082B20DD082B40BD0809A84909E
:1011F000849284947C6A6A6A1896000E016E6ED09E
:1012000013D082B004D082B202D082A402D0188659
:1012100001D01896809A8490849284946AC07CF05D
:101220006A6A7CC001F05AD018B656D08492849471
:10123000809A848000D000D0000082A403D0188659
:10124000010E6A6E82A208D0188682B603D0020E02
:101250006A6E02D0160E6A6E82A008D0188682B618
:1012600003D0030E6A6E02D0170E6A6E84908482D9
:1012700000D000D0000082A403D01886040E6A6E4D
:1012800082A203D01886050E6A6E82A003D018864B
:10129000060E6A6E8492848400D000D0000082A47E
:1012A00003D01886070E6A6E82A203D01886080E35
:1012B0006A6E82A003D01886090E6A6E8494808AB2
:1012C00000D000D0000082A203D018860A0E6A6EF9
:1012D000849484928490809A000E016EBBEF0BF090
:1012E00067C068F0040E896FF2EC00F000D068C0AF
:1012F00089F0F2EC00F012007C6A83B205D082BA69
:1013000003D0010E7C6E14D083B205D082BC03D012
:10131000050E7C6E0DD083A205D082BA03D00D0ECF
:101320007C6E06D083A204D082BC02D00E0E7C6EEE
:101330007C5205E16C6A6B6A000E016EB3D07C2CA6
:101340001BD083B219D082BA17D06C5001080BE3BE
:1013500003E16B50F30807E36B2AD8B46C2A050E3F
:101360007E6E1FEC01F06C5203E16B50630803E2E8
:10137000020E7C6E01D0E5D77C5005081BE183B2DC
:1013800019D082BC17D06C5001080BE303E16B50FD
:10139000F30807E36B2AD8B46C2A050E7E6E1FECA7
:1013A00001F06C5203E16B50630803E2060E7C6EA1
:1013B00001D0E5D77C2C01D003D07C50050806E194
:1013C0006C5203E16B50630801E27C6A17BE34D0B3
:1013D0007C2C09D0188A010E2126A9DC6C6A6B6A64
:1013E000010E016E5FD07C50020804E1188A010EE4
:1013F00021269DDC7C500D0804E1188A010E202670
:1014000096DC7C50050809E1189A010E215E8FDCFC
:101410006C6A6B6A010E016E45D07C50060804E1CF
:10142000189A010E215E83DC7C500E0804E1189AA4
:10143000010E205E7CDC10D07C50050804E13650A3
:10144000010801E236067C2C04D03650070801E37F
:10145000362A36C086F0C3DC316A17BC312A37C061
:1014600032F0336A17BE332A36C034F038C035F054
:101470007D6A7D50040814E3F00E7D247E6E036ABD
:101480007D50310FE96E000E0320EA6EEFCF7FF042
:101490007EC08BF07FC08CF0B2EC01F07D2AE9D7E2
:1014A0007CC001F0C7EF0BF0A00E7D6E7DC08BF00D
:1014B00074EC01F001C01BF0010E7D247E6E8B6F79
:1014C00074EC01F001C01EF0020E7D247E6E8B6F65
:1014D00074EC01F001C01FF0030E7D247E6E8B6F53
:1014E00074EC01F001C020F0040E7D247E6E8B6F41
:1014F00074EC01F001C021F0A2EF0AF018A214D0A0
:1015000019B008D083A606D01980050E846FA0DC20
:10151000010E7C6E19A008D083B606D01990050E76
:10152000846F96DC010E7C6E18A41CD019B00CD010
:1015300083A60AD0000E17BC010E7D6E876F7BDC80
:101540001980B2D7010E7C6E19A00CD083B60AD0D8
:101550001990000E17BC010E7D6E876F9CEC02F097
:10156000010E7C6E7CC001F0DEEF0BF0812D04D00B
:10157000060E896FF2EC00F0815303E1896BF2EC07
:1015800000F012007F6A17B851D083A649D019B86D
:1015900046D0806B8051090838E3D8908035006EC2
:1015A000D89000360050036AF2CF81F0F29EA1EC91
:1015B00000F00900F5CF03F081BFF28E016E0350F9
:1015C0007E5C21E303E101507D5C1DE3D890803512
:1015D000010F006ED89000360050036AF2CF81F000
:1015E000F29EA1EC00F00900F5CF03F081BFF28E6E
:1015F000016E7E50035C07E303E17D50015C03E371
:10160000010E7F6E02D0802BC5D77F5207E168DEC6
:1016100083A604D0010E816FA9DFFAD7198805D0FF
:1016200019A803D0816BA2DF199802D0010E7F6E3A
:101630007FC001F0E8EF0BF01B501D0807E21E0E03
:101640001B6E1E6A1F6A206A216A226A1B520AE107
:101650001E50050807E31B6A050E1E6E1F6A206AEE
:10166000216A226AEDEF0BF0F86AD09E078E166AA7
:10167000400EAF6EA20EAC6E900EAB6E646A666AE0
:10168000656A696A6A6A6C6A6B6A6D6AC180C182DE
:10169000C184C19618D00200240A000BC00F20009C
:1016A000390F0000000E0001010C000001040101CF
:1016B000010301010002000100010100000001001E
:1016C0000108406E0000000EF86E160EF76E960EC2
:1016D000F66E0900F550006E000A13E00900F5509F
:1016E000016EE8BE05D00F0BEA6E0900F5CFE9FFE9
:1016F00001BC090001AC0900F5CFEEFF004EE9D7AF
:10170000F9D7F86A54EF01F042EF03F050EC04F01F
:10171000FDEC04F0189C766A796A786A83A010D090
:1017200083B0FED718AC05D0189C179E19B4178E3D
:1017300007D0188C199417BE1984178E010E766E77
:1017400018BC62D0782AD8B4792A5AEF06F0015230
:1017500004E17750FA0801E3772A765205E118AEE2
:1017600003D09BD401C076F076520EE17750FA0890
:101770000BE2776A27D501C076F0765205E0B0DD3E
:1017800076C084F028EC07F0765203E1B5D501C0AD
:1017900076F0765210E180B00ED0189A82B8188A8E
:1017A00082A803D0010E212602D0010E215E010E77
:1017B000766E796A786A765203E1A0D601C076F037
:1017C0001B500A0DF3501E247C6E7E6A7D6EDAD6A5
:1017D000765208E097EC06F02FD750EC04F0FDECC1
:1017E00004F0766A79507F080EE2FF0A03E1785030
:1017F000000809E2000E17BC010E7C6E876F1BEC1F
:1018000007F0796A786A3BD019B611D0640E7E6E03
:101810001FEC01F083B40BD03650070802E3362AE0
:1018200002D0010E366E36C086F0EFEC06F050ECBA
:1018300004F0FDEC04F083A401D0198619A61FD092
:1018400083B41CD07B6A7A6A7B50070815E303E1F6
:101850007A50CF0811E383A007D083B0FED7189C3D
:10186000070E7B6ED00E7A6E010E7E6E1FEC01F0BD
:101870007A2AD8B47B2AE8D7199601D019864ED790
:02188000030063
:020000040030CA
:0E00000000220A0E000181000FC00FE00F4029
:00000001FF
;PIC18F452
;CRC=DCB4  CREATED="25-Mar-25 22:15"
