:100000000E308A008E2E0000FF00030E8301A10037
:100010000A08A0008A010408A2007708A300780853
:10002000A4007908A5007A08A600831383128C30F7
:100030008400801E1D288C1A2E2822088400230884
:10004000F7002408F8002508F9002608FA0020081F
:100050008A00210E8300FF0E7F0E09008A110A120A
:10006000E8280A108A100A118207053400340E3479
:100070000034003400340F340034183400340134B8
:100080000034193400342734003402340034283466
:1000900000344A340034033400344B3400346834C0
:1000A00000340434003469340034903400340534AE
:1000B000003491340034B834003406340034B93498
:1000C0000034D634003407340034D7340034F934E3
:1000D000003408340034FA3400342C340134093448
:1000E00000340A108A100A1182070A3400341134CD
:1000F000003400340034123400342234003401342B
:10010000003423340034453400340234003446349F
:1001100000346434003403340034653400348B34E8
:100120000034043400348C340034B33400340534E7
:100130000034B4340034D134003406340034D234C2
:100140000034EF34003407340034F0340034173412
:10015000013408340034183401342C3401340934A7
:1001600000340A108A100A1182070F340034143444
:1001700000342334003428340034463400344B3403
:10018000003464340034693400348C3400349134E5
:100190000034B4340034B9340034D2340034D734A9
:1001A0000034F0340034FF340034183401342C347B
:1001B000013400340034003400348C1EDD2818086B
:1001C000A7001A08F800A71CE7281812181608003C
:1001D0008C1E0529DD207808EA006B307507840045
:1001E00083136A088000F50AFC01FB017508053CD1
:1001F000031D05296B307507840083138001F50109
:10020000A9178C1E0529DD2001298C128A110A12DA
:100210001D2883164008003A831203192529013A44
:1002200003192729033A03192A29013A03192D2909
:10023000073A03193029013A03193329033A0319FC
:100240003629013A031939293C2985013D2908300D
:1002500085003D29043085003D290C3085003D296D
:10026000023085003D290A3085003D290630850091
:100270003D290E3085003D29850183164008F60092
:1002800083120800B5308400831300080319552930
:100290000630F800F701F70B4B29F80B4A297B30A1
:1002A000F700F70B5129800B482908007608FD005C
:1002B00001308316C000831209215E297D08831650
:1002C000C0008312092108008617662986130800DA
:1002D0001F1001308316850000308600FF30870034
:1002E000AC008800091089100911C001831209218E
:1002F000C8308316B5008312422185167F298029D4
:100300000000071C852928128629281685128316C5
:100310008C16C03083128B046530860056215D3008
:10032000860056214C3086005621603086006421BC
:100330005130860064214E30860064218A150A12ED
:10034000F22E83164208831203178D0083168C1336
:100350000C1483120C08F80003130800F701F801CD
:100360008316410803104218F707F70CF80CC2185F
:10037000F707F70CF80C4219F707F70CF80CC2193D
:10038000F707F70CF80C421AF707F70CF80CC21A2B
:10039000F707F70CF80C421BF707F70CF80CC21B19
:1003A000F707F70CF80C83120800F801F901F701C0
:1003B000FA0183164308031DE02942080319FA29AC
:1003C0001030C4000310C00DC10DF70DFA0D430825
:1003D0007A02031DED2942087702031CF629420820
:1003E000F702031CFA034308FA020314F80DF90D8F
:1003F000C40BE229831208008316420883120317F4
:100400008D0083168C130C1483120C0883160313AF
:10041000C4004308440203192C2A83120B08F70076
:100420008B1383164208831203178D008316031360
:100430004308831203178C0083168C130C15553058
:100440008D00AA308D008C148C18242A0C1177088A
:10045000831203138B0483168312080083163F084C
:10046000C1000530C2008312AE2178088316C00097
:100470004008C20083122C088316C3008312FC219B
:10048000013083164007C100C20083122F08831673
:10049000C3008312FC21023083164007C100C20052
:1004A000831230088316C3008312FC2103308316A5
:1004B0004007C100C200831231088316C3008312B3
:1004C000FC21043083164007C100C20083123208A9
:1004D0008316C3008312FC21080083163F08C10065
:1004E0000530C2008312AE217808403E8316C0005A
:1004F0004008C20083122C088316C3008312FC211B
:10050000013083164007C100C20083122F088316F2
:10051000C3008312FC21023083164007C100C200D1
:10052000831230088316C3008312FC210330831624
:100530004007C100C200831231088316C300831232
:10054000FC21043083164007C100C2008312320828
:100550008316C3008312FC21080083163D08C100E6
:100560000530C2008312AE217808B03E8316BE006B
:100570003E08C20083122C088316C3008312FC219C
:10058000013083163E07BF00C20083122F08831676
:10059000C3008312FC21023083163E07BF00C20055
:1005A000831230088316C3008312FC2103308316A4
:1005B0003E07BF00C200831231088316C3008312B6
:1005C000FC21043083163E07BF00C20083123208AC
:1005D0008316C3008312FC2108008316BE08031D86
:1005E000292B831248088316BF003F08C10005303D
:1005F000C2008312AE2178088316C0004008C200F2
:100600008312A1217808AC00013083164007C10095
:10061000C2008312A1217808AF0002308316400780
:10062000C100C2008312A1217808B00003308316F4
:100630004007C100C2008312A1217808B100043034
:1006400083164007C100C2008312A1217808B200BE
:1006500083163E0B642B831248088316BF003F08A5
:10066000C1000530C2008312AE217808403E8316D7
:10067000C0004008C2008312A1217808AC000130FC
:1006800083164007C100C2008312A1217808AF0081
:10069000023083164007C100C2008312A1217808EE
:1006A000B000033083164007C100C2008312A121AD
:1006B0007808B100043083164007C100C2008312DD
:1006C000A1217808B200831683120800A81E6D2BA2
:1006D00005308316C00083120921A81A732B8316D4
:1006E000C0018312092108000F308316BD00BE012E
:1006F0003E08073C031CC62B00308312A81A0130A9
:100700008316BF003E0DF700F70DFC30F7057708A4
:10071000013E4A3E8400831300083F02031DC42BA0
:1007200000308312291901308316BF003E0DF700F7
:10073000F70DFC30F7057708023E4A3E840083132C
:1007400000083F02031DC42B00308312A91801309A
:100750008316BF003E0DF700F70DFC30F705770854
:10076000033E4A3E8400831300083F02031DC42B4E
:100770003E0DF700F70DFC30F70577084A3E840080
:1007800083130008BD00C62BBE0A782B8312662394
:1007900083163D08F80083120800FF308316C2005C
:1007A0008312A121780BD52BCF2C8316B3013308EC
:1007B000093C031C672C3308C1000330C2008312BC
:1007C000AE210310780D8316B500350A831271200F
:1007D000FA0083163508831271208316B5007A0853
:1007E000B6003608C1003508C000C3010A30C20097
:1007F0008312D5217808AC0083163308C10003307A
:10080000C2008312AE210310780D8316B500350A9D
:1008100083127120FA008316350883127120831623
:10082000B5007A08B6003308C1000330C200831255
:10083000AE210310780D8316B700370A831271209A
:10084000FA0083163708831271208316B7007A08DE
:10085000B8003808C1003708C000C3010A30C20020
:100860008312D52179088316B8007808B7003808B4
:10087000BA003708B900BC010A30BB001030BD0017
:10088000F701FA01BA0CB90C031C4C2C3B08F70712
:100890000318FA0A3C08FA07FA0CF70CF90CF80CE2
:1008A000BD0B422C780835028312AF00B001B101B4
:1008B000B201B30183163308BF0083122E228316C0
:1008C0003308BF0083126D228316B30AD72BB301FE
:1008D0003308083C031C7C2C07308312AC00AF01AA
:1008E000B001B101B201B30183163308BD00831218
:1008F000AD228316B30A682C03308312C800281374
:10090000A8130130C7000030281B01308316B50042
:10091000BE008312ED22A8122911A91074237808B1
:10092000C9002913C201281BC20A4808C300C40118
:10093000A81BC40A4708C5004908C6008316B301AE
:100940003308043C031CB62CF0303307B5004230AA
:100950003307840083130008B6003508C200360848
:10096000C3008312FC218316B30AA02C83120B0848
:10097000F7008B13FF3003178D0001308C008316B6
:100980008C130C1555308D00AA308D008C148C18EA
:10099000C72C0C117708831203138B04562D831672
:1009A000B4013408043C031CEF2C42303407F80037
:1009B000FA010318FA0A7808B5007A08B600F03090
:1009C0003407B700C2008312A121831635088400C2
:1009D00083133618831778088000B40AD12C831249
:1009E0002813421828174308C800A8134418A8174A
:1009F0004508C7004608C90049088316B500831298
:100A0000A8122911A9108316B6013608073C031C49
:100A10004C2D360DF700F70DFC30F70577084A3EF0
:100A20008400831300083502031D4A2D360DF7009C
:100A3000F70DFC30F7057708013E4A3E840083132A
:100A40000008F8008312A8127818A8168316360D2D
:100A5000F700F70DFC30F7057708023E4A3E8400A8
:100A600083130008F80083122911781829158316BA
:100A7000360DF700F70DFC30F7057708033E4A3EC8
:100A8000840083130008F8008312A9107818A914B1
:100A900083164C2DB60A052D831266230030281BC1
:100AA00001308316B500BE008312ED228A150A12AA
:100AB000F52E2C08B400AD013408093C0318652D4F
:100AC0000A30B4020130AD075C2DAD08031D6A2D5C
:100AD0000F30AD00AE01B4080319722D0130B4021D
:100AE000AE076B2D2D080F3C031D7B2DAE08031D9B
:100AF0007B2D0F30AE00A81B882D281B812D0130C7
:100B0000B900281F852D0C30B9000F30C1008C2D85
:100B10000230B9004708C1004908BA002D08BB00DF
:100B20002E08BC002F08BD003008BE003108BF00F1
:100B30003208C00007199A2D071D9C2D8316B3019A
:100B400033080C3C031C132E353033078400831309
:100B500000080F39F8007818B02D83120911831698
:100B6000781CB52D831209158316353033078400A0
:100B700083130310000C0F39F8007818C22D83126C
:100B800089108316781CC72D83128914831635307B
:100B9000330784008313000CF700F70C3F30F70590
:100BA00077080F39F8007818D82D831209108316AA
:100BB000781CDD2D83120914831635303307840029
:100BC0008313000CF700F70CF70C1F30F7057708BC
:100BD0000F39F8007818EF2D831285128316781CD0
:100BE000F42D831285168316831205163130F70013
:100BF000F70BF82DFB2D051202308316B400B83028
:100C0000B5000330B502031C0F2EB53084008313EA
:100C1000000803190F2E0D2E0D2E800B0C2EB40B79
:100C2000FF2DB30AA02D83122912851209108910F5
:100C3000091108002C088316C1000A30C200831273
:100C4000AE212F0878078316B300B40126083302BB
:100C5000031D342E27083402031D342EA808031D5B
:100C6000342EA9080319A52EB5013508093C031C2B
:100C7000942E3508C1000330C2008312AE21031048
:100C8000780D8316C000400A83123120FA008316C3
:100C9000400883123120F8007A0883163402031CBE
:100CA000922E031D572E78083302031C922E35080E
:100CB000C1000330C2008312AE2101307807F70073
:100CC0000310F70D77088316C000400A8312312005
:100CD000FA008316400883123120F8008316340886
:100CE0007A02031C922E031D792E33087802031C0E
:100CF000922E3508C1000330C2008312AE210230AB
:100D00007807F7000310F70D77088316C000400A34
:100D100083123120FA008316400883123120831693
:100D2000A300942EB50A352E230883128600760878
:100D3000FD0003308316C000831209219F2E7D0819
:100D40008316C00083120921831683122F0883168D
:100D5000C1006430C2008312AE2178088316C0003F
:100D6000831230088316C1000A30C2008312AE21FC
:100D7000780883164007831231078316B600B7013F
:100D80003708003C0318D12EFF3A031DCB2E36083E
:100D9000F33C0318D12EF430B6020130031C0230AC
:100DA000B7023030B607023003180330B707B80176
:100DB000B901BA01BB0124083602031DE32E250840
:100DC00037020319152F3708B900370CC100360C4C
:100DD000C000C10CC00CC10CC00CC10CC00C0F3049
:100DE000C10540080F39BA0036080F39BB0083121D
:100DF0008501303083163807831286005621203053
:100E000083163907831286005621103083163A075D
:100E100083128600562183163B08831286005621D2
:100E200083163708A5003608A400BC01BD01BE0129
:100E3000BF0126083302031D272F27083402031D94
:100E4000272FA808031D272FA9080319B32F23084C
:100E5000053C031C5F2F3408C1003308C000C301E8
:100E60000530C2008312D52179088316C1007808A5
:100E7000C0000C30C0070318C10A410CFA00400C36
:100E8000F900FA0CF90CFA0CF90CFA0CF90C7908C7
:100E9000BE003408C1003308C000C3010530C200E1
:100EA0008312D52179088316C1007808C0000C3060
:100EB000C0070318C10A40080F39BF00962F340835
:100EC000C1003308C000C3010530C2008312D52120
:100ED00079088316C1007808C0001230C0020030C3
:100EE000031C0130C102410CFA00400CF900FA0C5D
:100EF000F90CFA0CF90CFA0CF90C7908BE0034085C
:100F0000C1003308C000C3010530C2008312D521DF
:100F100079088316C1007808C0001230C002003082
:100F2000031C0130C10240080F39BF0030303C07BC
:100F3000831286006421203083163D0783128600C9
:100F40006421103083163E078312860064218316C5
:100F50003F088312860064218316A901A801340882
:100F6000A7003308A6000130831232078316C000A1
:100F70004008C1007030C200410842078312860059
:100F800008008316B4018312081ECA2F0830831686
:100F9000B4078312881ED02F04308316B40783123F
:100FA000081FD62F02308316B4078312881FDC2F48
:100FB00001308316B407831283163408F8007808CA
:100FC000B3002B0833020319EA2F3308AB000130BA
:100FD000F800EC2F0030F80083128A150A121F2F38
:101000000A30B307B207B107B007AF07AC07A91E94
:1010100032283308133C031811280A30B302013078
:10102000B2073208133C031819280A30B202013003
:10103000B1073108133C031821280A30B1020130EE
:10104000B0073008133C031829280A30B0020130D9
:10105000AF072F08133C031831280A30AF020130C4
:10106000AC075A283308093C031C3A280130B20265
:101070000A30B3073208093C031C42280130B10290
:101080000A30B2073108093C031C4A280130B0027B
:101090000A30B1073008093C031C52280130AF0266
:1010A0000A30B0072F08093C031C5A280130AC0253
:1010B0000A30AF070A30B302B202B102B002AF0287
:1010C000AC02080083163D08C1000530C2008A1139
:1010D0008312AE218A157808B03E8316BE003E0802
:1010E000C2008A118312A1218A157808AC00013050
:1010F00083163E07BF00C2008A118312A1218A1500
:101100007808AF00023083163E07BF00C2008A1184
:101110008312A1218A157808B000033083163E0798
:10112000BF00C2008A118312A1218A157808B1007C
:10113000043083163E07BF00C2008A118312A1212A
:101140008A157808B20008008316BE08031DB1286E
:10115000831248088316BF008A1183122E228A1533
:1011600083163E0BBC28831248088316BF008A11E1
:1011700083126D228A1583168312080083163B0B97
:101180000D298312A918A910291DC8282911C928B9
:101190002915291D0C29A0308316BD003D08C20069
:1011A00083122C088316C3008A118312FC218A152E
:1011B000013083163D07BE00C20083122F0883163C
:1011C000C3008A118312FC218A15023083163D0761
:1011D000BE00C200831230088316C3008A11831236
:1011E000FC218A15033083163D07BE00C20083121E
:1011F00031088316C3008A118312FC218A1504303A
:1012000083163D07BE00C200831232088316C30056
:101210008A118312FC218A1583168312A81B2429A4
:1012200083163B08173C031D1B298312A9160530A2
:10123000AF07002083163B08163C031D25298312A7
:10124000A9120530AF02002083168312A81F44297B
:1012500083163B08023C031D332983124708013CD7
:10126000031CC70383163B08033C031D3D2983125F
:101270004708073C0318C70A8316831247088316DA
:10128000BD00831262206B290030281B01308316B9
:10129000BD00BE008312A42083163B08023C031D40
:1012A00056298312C808031DC80383163B08033C54
:1012B000031D602983124808083C0318C80A8316D6
:1012C00000308312281B01308316BD00BE008A1136
:1012D0008312ED228A1583163B08043C031D7F29E7
:1012E000831247088316BD00831262200030281B3A
:1012F00001308316BD00BE008312A42083163B0874
:10130000053C031D9E298312A81B9D290030281B24
:1013100001308316BD00BE008312A420281B922931
:101320002817932928130030281B01308316BD008D
:10133000BE008A118312ED228A1583163B08063CF3
:10134000031DA9298312A81AA729A816A829A8123B
:1013500083163B08073C031DCF298312A81FC7290A
:101360000030281B01308316BD00BE008A11831295
:10137000ED228A1547088316BD008A118312AD221B
:101380008A1547088316BD0083126220CE294708BC
:101390008316BD008A118312AD228A1583163B087D
:1013A000083C031DF1298312A81FE229A81300306D
:1013B000281B01308316BD00BE008A118312ED2266
:1013C0008A15F029A8170030281B01308316BD00AC
:1013D000BE008312A42047088316BD00831262203A
:1013E00083163B08093C031DFE2983122919291184
:1013F000A91CFC29A910FD29A91483163B080A3C45
:10140000031D3E2A00308312281B01308316BD00C5
:10141000BE008A118312ED228A158316BD018A113E
:101420008312AD228A1547088316BD0083126220FD
:101430000030281B01308316BD00BE008312A4209B
:101440008316BD018312622047088316BD008A11EE
:101450008312AD228A15A81F332A47088316BD00C0
:10146000831262203D2A0030281B01308316BD0004
:10147000BE008A118312ED228A158316BB08031958
:10148000482A8A11831274238A157808C9008316A2
:101490008312C201281BC20A4808C300C401A81B4A
:1014A000C40A4708C5004908C6008316BC013C08A9
:1014B000043C031C6F2AF0303C07BD0042303C075F
:1014C000840083130008BE003D08C2003E08C3002C
:1014D0008A118312FC218A158316BC0A572A3B08FD
:1014E000F800831208006E0EF7000F30F70577083A
:1014F0000F398316B30083126E080F398316B400B8
:1015000083126D0EF7000F30F70577080F39831639
:10151000B50083126D080F398316B60083126C0E66
:10152000F7000F30F70577080F398316B7008312DD
:101530006C080F398316B80083126B0EF7000F305A
:10154000F70577080F398316B90083126B080F3936
:101550008316BA0083126F08013A0319D42A033A9A
:101560000319DA2A013A0319E02A073A0319E62A8D
:10157000013A0319EC2A033A0319F22A013A031932
:10158000F82A0F3A0319FE2A013A0319042B033AE9
:1015900003190A2B013A03194E2B043A0319542B51
:1015A000F03A0319772B792B09308316BB0083128D
:1015B000BE20792B08308316BB008312BE20792B06
:1015C00007308316BB008312BE20792B06308316AA
:1015D000BB008312BE20792B05308316BB0083121B
:1015E000BE20792B04308316BB008312BE20792BDA
:1015F00003308316BB008312BE20792B0230831682
:10160000BB008312BE20792B01308316BB008312EE
:10161000BE20792B83163408C1000A30C2008A111B
:101620008312AE218A158316350878078312AC0021
:10163000831636088312AF00831637088312B00072
:10164000831638088312B100831639088312B2005A
:1016500083163A088312B30033088316BB00831243
:101660000608FE0070308316BC003B083C0783125E
:1016700086007608FD0002308316C0008A118312AE
:1016800009218A15432B7D088316C0008A11831215
:1016900009218A157E088600FE01792B0B308316FE
:1016A000BB008312BE20792B83163908C1000A3093
:1016B000C2008A118312AE218A1583163A08780770
:1016C0008312AC00831637088312AF0083163808E4
:1016D0008312B000831635088312B10083163608D2
:1016E0008312B200831633088312B300792B8A0168
:1016F0000028A9130130F8008A150A12312F831629
:10170000B3018312071D272C0719842BA91DB72BA2
:1017100085160914891409158D2B8E2B00000718C6
:10172000A22B8718A22B0719A22B8512091089104A
:1017300009118316B301A0018312A9110030F8002A
:10174000292CB72B0718A82B8718A82B071DAA2B05
:10175000A915AB2BA911851209108910091183163F
:101760002008B300A0013308F8008312292CA9191E
:10177000272C8910091185120914BE2BBF2B0000DC
:10178000071DC72BA91501308316A0008312871CE3
:10179000D52BA9158719D12B02308316A000D42B85
:1017A000831216308316A0008312071CE32BA915A1
:1017B0008719DF2B03308316A000E22B831217302A
:1017C0008316A000831209108914E62BE72B000072
:1017D000071DEF2BA91504308316A0008312871C68
:1017E000F62BA91505308316A0008312071CFD2BCC
:1017F000A91506308316A000831289100915002C44
:10180000012C0000071D092CA91507308316A00024
:101810008312871C102CA91508308316A000831290
:10182000071C172CA91509308316A0008312091173
:1018300085161A2C1B2C0000871C232CA9150A3096
:101840008316A00083120911891009108512003037
:10185000F8008A150A12402F7608FD00043083161E
:10186000C0008A11831209218A15362C7D0883163F
:10187000C0008A11831209218A1508008316B3015A
:10188000831288184A2C871A4A2C01308316B30019
:10189000632C83128818532C071B532C0530831696
:1018A000B300632C8312881C5C2C871A5C2C0D30CF
:1018B0008316B300632C8312881C642C071B642CD2
:1018C0000E308316B30083128316B308031D6D2CEC
:1018D000A201A1010030F800602D330B962C831279
:1018E0008818972C871A972C83162208013C031C12
:1018F000892C031D7F2C2108F33C031C892CA10A91
:101900000319A20A0530B5008A11831242218A15F3
:101910008316A208031D902C2108633C0318952C04
:101920000230B3008312972C83166F2C8312831618
:101930003308053C031DC32C83128818C42C071BD5
:10194000C42C83162208013C031CB62C031DAC2CAE
:101950002108F33C031CB62CA10A0319A20A053086
:10196000B5008A11831242218A158316A208031D2D
:10197000BD2C2108633C0318C22C0630B30083122F
:10198000C42C83169C2C83128316330BC82CCC2CAE
:101990003308053C031DD32CA208031DD22C2108BB
:1019A000633C031CB3018312A81B1D2D8316330B4C
:1019B000E42C8312A9160130B20700208316A2017D
:1019C000A1010130F800602D3308023C031DEE2C0C
:1019D0008312A9160130B2070020831633080D3C8C
:1019E000031DF82C8312A9160130B10700208316BD
:1019F0003308053C031D072D8312A9120130B202E2
:101A000000208316A201A1010130F800602D3308E7
:101A1000063C031D112D8312A9120130B2020020D1
:101A2000831633080E3C031D1B2D8312A9120130AF
:101A3000B10200208316372D831283163308053C2C
:101A4000031D282D83124708013C031CC70383167E
:101A5000330B302D83124708073C0318C70A83163F
:101A6000831247088316BD008312622083168312F7
:101A7000C201281BC20A4808C300C401A81BC40A2B
:101A80004708C5004908C6008316B4013408043C61
:101A9000031C5E2DF0303407B5004230340784005B
:101AA00083130008B6003508C2003608C3008A1147
:101AB0008312FC218A158316B40A462D3308F800D8
:101AC00083128A150A12532FA91C822D2A18742DED
:101AD000881D742D2A1405308316BB008312BE2086
:101AE00001308316B30083122A1C822D8819822D9F
:101AF0002A1005308316BB008312BE2001308316E6
:101B0000B3008312291DDF2D2A18CC2D881DCC2D62
:101B10000030281B01308316B400BE008312A420BD
:101B20002A14A0308316B4003408C2008A1183122C
:101B3000A1218A157808AC00013083163407B5005E
:101B4000C2008A118312A1218A157808AF000230E1
:101B500083163407B500C2008A118312A1218A15A9
:101B60007808B000033083163407B500C2008A112C
:101B70008312A1218A157808B10004308316340736
:101B8000B500C2008A118312A1218A157808B2001B
:101B900001308316B30083122A1CDF2D8819DF2D34
:101BA0002A100030281B01308316B400BE008A11B1
:101BB0008312ED228A1501308316B3008312831637
:101BC0003308F80083128A150A12722F8316380B15
:101BD000F02D0630C0008A11831209218A15831660
:101BE000B808031DF92DC0018A11831209218A1535
:101BF0008316831208008316B6018312281A672EF3
:101C0000881D5F2E2A1A5E2E8316B7013708093CFD
:101C1000031C4E2E0310370DF7000310F70D770845
:101C2000B800380A8A118312B1208A15FA00831687
:101C300038088A118312B1208A15F8007A088316B1
:101C40003502031C4C2E031D292E78083402031C78
:101C50004C2E0310370D013EF7000310F70D7708E7
:101C6000B800380A8A118312B1208A15FA00831647
:101C700038088A118312B1208A15F80083163508B6
:101C80007A02031C4C2E031D492E34087802031CD3
:101C90004C2E0130B6004E2EB70A062EB608031D94
:101CA0005C2E83122C24881D5B2E01308316B80015
:101CB0008312E625532E831683122A16662E2A1EB9
:101CC000662E8316B8018312E6252A126B2E013088
:101CD0008316B600831283163608F80083128A151D
:101CE0000A12882F2C081D3C03187D2E1E30AC00D4
:101CF000AF01B001B101B201B301AC08031D8B2EDD
:101D00002F08053C031C8B2EAC010530AF00B00141
:101D1000B101B201B3018A150A128F2F03081F39CE
:101D20008300A701403083169900A23098009030BC
:101D300083129800F501FC01FB01FE018316A0014E
:101D4000A201A101A301FF30AC001F149F141F15B5
:101D50009F1107309C0083130A308312B500B6012F
:101D60000F30B700B800B900BA00BB00BC00BD001E
:101D7000BE00BF00C000C100CA00CB01CC01CD0134
:101D80000E30CE00CF010130D000D1000C30D20097
:101D9000D301D4010130D5000430D6000130D70082
:101DA000D800D9000330DA000130DB00DC00DD01AF
:101DB0000230DE00DF010130E000E101E200E3007B
:101DC000E401E501E601E700E801E9008316A4016A
:101DD000A501A601A701A801A901AA01AB018A11C9
:101DE000831268298A158A11CD2B8A158A115925E3
:101DF0008A158A111A268A1529138316AD01B00196
:101E0000AF018312081C162F0818042F291F0D2F4D
:101E10002913A8132A19A817162F29172A11A81B46
:101E20002A15A81701308316AD008312291BB02F85
:101E30008316AF0A0319B00A8A118312C12F8A15BB
:101E4000F808031D292F83162E08FA3C0318AE0A42
:101E500083128316AD08031D342F8312A91F352F5B
:101E6000732A78088316AD0083128316AD08031D0C
:101E70004E2F2E08FA3C03184E2FAE0183127F2BF3
:101E800078088316AD00AD0803194E2F83122C2459
:101E900083162D08BB008312BE208316AD08031DD8
:101EA000562F83123E2C78088316AD00AD08031D13
:101EB0006B2F831205186C2FA912071AA916071E7B
:101EC000642F0130B207662F0130B2020130831651
:101ED000AD00B001AF0183128316AD08031D752F4D
:101EE0008312642D78088316AD0083122C088316A4
:101EF000C1000A30C2008A118312AE218A152F0850
:101F000078078316B300B5013308B4008312FB2DA4
:101F10008316AD080319972F83120020722E8A11A1
:101F200059258A158A111A268A158316AD0130089B
:101F30007F3C0318AE2FFF3A031DA22F2F08003C51
:101F40000318AE2F00308312281B01308316B30014
:101F5000BE008312A4208316B001AF01FE2F8312AE
:101F6000AA19C82F64308316B5008A118312422142
:101F70008A150819C82F4708073C031CC12FC70A38
:101F8000C32F0130C70047088316BD0083126220AB
:101F90008A1159258A158A111A268A150819AA152F
:101FA000AA1DFD2F0819FC2F8316B201B1013208BA
:101FB000073C031CF92F031DE12F3108CF3C031C04
:101FC000F92F8312081CED2F0818E42F291307306E
:101FD0008316B200D030B100831201308316B500F1
:101FE0008A11831242218A158316B10A0319B20A93
:101FF000D72F8312AA11FD2FAA158316012F630074
:02400E00723FFF
:00000001FF
;PIC16F877A
;CRC=78B5  CREATED="25-Mar-25 22:16"
