:0400000064EF17F0A2
:08000800046ED8CF05F0E0CF33
:1000100006F00001E9CF0CF0EACF07F0E1CF08F0DD
:10002000E2CF09F0D9CF0AF0DACF0BF0F3CF12F01C
:10003000F4CF13F0FACF14F000C00EF001C00FF0AF
:1000400002C010F003C011F09DAA2AEF00F09EBA82
:1000500023EF01F00EC000F00FC001F010C002F05D
:1000600011C003F00CC0E9FF07C0EAFF078E08C00B
:10007000E1FF09C0E2FF0AC0D9FF0BC0DAFF12C0DE
:10008000F3FF13C0F4FF14C0FAFF045006C0E0FFF2
:1000900005C0D8FF1000F2CF0DF0F29EAE0FF66E45
:1000A000000EF7220900F5500DBEF28E1200342525
:1000B00029001C292900042D2900D4342900BC382A
:1000C0002900A43C29008C4029005C482900444CAC
:1000D00029002C50290014542900E45B2900CC5F2E
:1000E0002900B46329009C6729006C6F29005473B0
:1000F00029003C772900247B2900F4822900DC8632
:100100002900C48A29007C962900AC8E290094928B
:100110002900649A29004C9E290034A229001CA6BB
:10012000290004AA2900ECAD2900D4B12900BCB5EE
:100130002900A4B929008CBD290074C129005CC51F
:10014000290044C929002CCD290014D12900BD1D46
:100150002A00A5212A008D252A0075292A005D2D57
:100160002A0045312A002D352A0015392A00FD3C88
:100170002A00E5402A00CD442A00B5482A009D4CBB
:100180002A0085502A006D542A0055582A003D5CEB
:100190002A0025602A000D642A00F5672A00DD6B1D
:1001A0002A00C56F2A00AD732A0095772A007D7B4F
:1001B0002A00657F2A004D832A0035872A001D8B7F
:1001C0002A00058F2A00ED922A00D5962A00BD9AB2
:1001D0002A00A59E2A008DA22A0075A62A005DAAE3
:1001E0002A0045AE2A002DB22A0015B62A00F2CF09
:1001F0000DF0F29EF76A080FF66E020EF722090064
:10020000F5500DBEF28E120050C3000020BF020058
:100210003057050060AE0A0050690F00C05C150041
:1002200040771B00200B2000009F240080B92A008B
:100230009EAAFED7ABCF16F0AECF01F016A202D029
:10024000AB98AB8812001980F16B9EAA1FD0FE51AB
:1002500026081CE2FF0A03E1FD51100817E2010124
:10026000A96BA9510A080AE1036AA951F10FE96EC5
:10027000000E0320EA6EEF6AA92BF3D70001FB6B97
:10028000010EFC6F1990FE6BFD6B31D09EAA2FD032
:10029000FE5127082CE303E1FD510F0828E3C8DFD6
:1002A00001C0EFF0036AFC51F10FE96E000E03206C
:1002B000EA6EEFC0EFFFFC2BFE6BFD6BFC510608F6
:1002C00016E1036AFC51F10FE96E000E0320EA6E9D
:1002D000EF6A010EFB6FFC6F1990FC51060807E2F4
:1002E000FC51060804E2A4DF01C0F0F0F9D79E9AA1
:1002F0002AEF00F0010EEA6E5E0EE96EEF500DE09F
:10030000060E016E006A002EFED7012EFBD77B0E73
:10031000006E002EFED7EF2EF3D71200179080B29A
:100320001780179280B41782179480B61784120032
:1003300017A0809217B0808217A2809417B2808491
:1003400017A4809617B480861200E8DF808600D05C
:1003500000D000008096ECDF1200818E00D000D02B
:100360000000819E1200650E816EEFDF5D0E816ED2
:10037000ECDF4C0E816EE9DF600E816EEEDF510E18
:10038000816EEBDF4E0E816EE8DF2CEF18F0F00E81
:1003900001015225576FF2CF58F1F29E57C1A9FFC4
:1003A000A69CA69EA680A85058BFF28E566B556B91
:1003B000546B536F53C101F0000112000F0E010185
:1003C000526F0001E4DF015012000101736B7351A1
:1003D00003081FE3010E756F6F0E746F7351742560
:1003E000016E000E7521036E0150E96E03C0EAFF35
:1003F00073516A25766FF2CF77F1F29E76C1A9FF2D
:10040000A69CA69EA680A85077BFF28EEF6E732B97
:10041000DED76F516B5D0AE170516C5D07E1715180
:100420006D5D04E172516E5DD8B42FD0736B735162
:1004300003082BE373516A25746F010E766F6B0E00
:10044000756F73517525016E000E7621036E015094
:10045000E96E03C0EAFFEFCF75F1F250006EF29E35
:1004600074C1A9FF75C1A8FFA69CA69EA6840F0112
:10047000550EA76EAA0EA76EA682A6B2FED7A694A8
:100480000050F2120101732BD2D7000159EF02F094
:1004900001016451040DF3CF69F169C16AF168C1CA
:1004A0006EF167C16DF166C16CF165C16BF1000160
:1004B0008CD71200F00E01015425566FF250006ED9
:1004C000F29E56C1A9FF55C1A8FFA69CA69EA68470
:1004D0000F01550EA76EAA0EA76EA682A6B2FED772
:1004E000A6940050F212000112000E0E0101546F8A
:1004F0002CC155F10001DEDFDFEF02F00D0E01012E
:10050000546F52C155F10001D5DF12000C0E0101EC
:10051000546F2CC155F10001CDDFE7EF02F00B0E57
:100520000101546F53C155F10001C4DF12000A0EDE
:100530000101546F52C155F10001BCDF1200090ED8
:100540000101546F2CC155F10001B4DFF4EF02F04A
:10055000080E0101546F52C155F10001ABDF1200CA
:100560000F0E0101546F010E556F0001A3DFF9EF6B
:1005700002F001012B6B2B5113080EE32BC164F128
:10058000686B0A0E676FAE0E666F600E656F0001D6
:100590007FDF01012B2BEFD7140E2B6F2B511F0880
:1005A0000BE32BC164F1686B676B666B656B0001D5
:1005B0006FDF01012B2BF2D72C6B000196D70101C5
:1005C000526B00019BDF01012C6B00019FD70101E1
:1005D000536B0001A4DF0101526B0001A8DF130E71
:1005E00001012C6F0001ABD70101526B0001B0DF9C
:1005F000B7D72CEF18F00E0E0101526F0001C7DEC5
:100600000150D3EF03F00D0E0101526F0001BFDE68
:100610000150D7EF03F00C0E0101526F0001B7DE5D
:100620000150DAEF03F00B0E0101526F0001AFDE53
:100630000150DDEF03F00A0E0101526F0001A7DE49
:100640000150E1EF03F0080E0101526F00019FDE3F
:100650000150E4EF03F0090E0101526F000197DE33
:100660000150E7EF03F0070E0101546F53C155F13C
:10067000000120DFD1EF03F00101525338E0000107
:10068000ED510F0804E1179A189418922ED0ED53EB
:1006900004E1178A1894188228D0ED2D04D0178A07
:1006A0001894189222D0ED51020804E1179A188488
:1006B00018921BD0ED51030804E1178A1884189290
:1006C00014D0ED51040804E1178A188418820DD063
:1006D000ED510C0804E1179A1894188206D0ED51D8
:1006E0000E0803E1179A188418825BD0010117BA2B
:1006F00009D018B407D018B205D00F0E0001ED6F65
:100700004BD0010117AA08D018B406D018A204D003
:100710000001ED6B41D0010117AA09D018B407D030
:1007200018B205D0010E0001ED6F36D0010117BAE5
:1007300009D018A407D018B205D0020E0001ED6F41
:100740002BD0010117AA09D018A407D018B205D0E0
:10075000030E0001ED6F20D0010117AA09D018A4E3
:1007600007D018A205D0040E0001ED6F15D00101CD
:1007700017BA09D018B407D018A205D00C0E000182
:10078000ED6F0AD0010117BA08D018A406D018A23C
:1007900004D00E0E0001ED6F0101EDC053F1000118
:1007A00062D7120028D7179C01B0178C2CD701C034
:1007B000ECF031D701C0E9F036D7199E01B0198E9F
:1007C0003AD701C0EEF03FD701C01BF044D701C0BB
:1007D0001AF00F0EED6F010E0101526F00014CDF98
:1007E0003AEF18F09BDD808280948096A1DD1200A4
:1007F000030E01017D5F0AE3010EEA6E7D0EE96ED4
:10080000EF5004E001D000D0EF2EFDD7000130EF13
:1008100004F0809A849084928494809801017B51A2
:10082000010B010801E184847B51020B020801E104
:1008300084827B51040B040801E184807B51080B06
:10084000080801E1808A8088310E006E002EFED7F4
:1008500000D08098020E7C6FB80E7D6F0001C8D763
:1008600001017C2FF9D7809A8490849284940001AE
:10087000120082B4FED782A4FED70A0E01017B6F5C
:100880000001C7DF01017B6B0001C3DF0F0E010117
:100890007B6F0001BEDF0F0E01017B6F0001B9DF2E
:1008A00072C17BF1B6DF73C17BF1B3DF74C17BF141
:1008B000B0DF75C17BF1ADDF76C17BF1AADF77C117
:1008C0007BF1A7DF78C17BF1A4DF79C17BF1A1DFE8
:1008D0007AC17BF19EDF1200020E01015C255D25CD
:1008E0005E25726F000E5F21736F000E6021746FC2
:1008F000000E6121756F62517227000E73237423FD
:100900007523010E7227000E732374237523635120
:100910007227000E732374237523010E7225646FF2
:10092000000E7321656F000E7421666F000E752135
:10093000676F19B60FD00001FF510101645D0AE134
:100940000051655D07E10151665D04E10251675D9B
:10095000D8B414D25C3D01D003D05CC168F102D0A0
:100960000F0E686F5D3D01D003D05DC169F102D00B
:100970000F0E696F5E531AE15F5318E1605316E181
:10098000615314E16351020811E068C172F169C159
:1009900073F10F0E746F756F766F776F786F796B79
:1009A00071C17AF1000165DF1ED101015E3D10D0F9
:1009B0005F3D0ED0603D0CD061517F0809E10F0E04
:1009C0006A6F6B6F6C6F6D6F6E6F6F6F706F0AD148
:1009D00061C175F160C174F15FC173F15EC172F103
:1009E00075C179F174C178F173C177F172C176F193
:1009F00075530EE174510F080BE307E17351420880
:100A000007E303E172513F0803E30F0E6A6F1BD047
:100A10006A6B79530DE178510E0815E2FF0A08E17F
:100A20007751410810E2FF0A03E176513F080BE2DB
:100A3000400E765F420E775B0F0E785B000E795B9F
:100A4000010E6A27E6D775530EE1745101080BE3D6
:100A500007E17351860807E303E172519F0803E33E
:100A60000F0E6B6F1BD06B6B79530DE17851000843
:100A700015E2FF0A08E17751850810E2FF0A03E159
:100A800076519F080BE2A00E765F860E775B010E13
:100A9000785B000E795B010E6B27E6D775530CE18E
:100AA00074530AE17351270807E303E172510F08F9
:100AB00003E30F0E6C6F17D06C6B79530AE1785318
:100AC00008E1775126080FE2FF0A03E176510F088B
:100AD0000AE2100E765F270E775B000E785B795B7B
:100AE000010E6C27EAD775530CE174530AE1735178
:100AF000030807E303E17251E70803E30F0E6D6F8C
:100B000017D06D6B79530AE1785308E177510208E9
:100B10000FE2FF0A03E17651E7080AE2E80E765F8A
:100B2000030E775B000E785B795B010E6D27EAD7C9
:100B300075530AE1745308E1735306E17251630877
:100B400003E30F0E6E6F13D06E6B795307E178538A
:100B500005E1775303E17651630809E2640E765F9D
:100B6000000E775B785B795B010E6E27EED77553CD
:100B70000AE1745308E1735306E17251090803E373
:100B80000F0E6F6F13D06F6B795307E1785305E148
:100B9000775303E17651090809E20A0E765F000EE9
:100BA000775B785B795B010E6F27EED7725308E1B4
:100BB000735306E1745304E1755302E1706B12D074
:100BC000706B765306E1775304E1785302E1795371
:100BD00009E0010E765F000E775B785B795B010EB2
:100BE0007027EFD700010101623D01D003D062C13F
:100BF00071F102D00F0E716F61530AE1605308E189
:100C00005F5102080AE2FF0A03E15E51E80805E2CB
:100C10006351010802E2010E636F635315E168C17D
:100C200072F169C173F16AC174F16BC175F16CC184
:100C300076F16DC177F16EC178F16FC179F171C153
:100C40007AF1000116DE0101632D15D068C172F141
:100C500069C173F16BC174F16CC175F16DC176F14D
:100C60006EC177F16FC178F170C179F171C17AF11C
:100C70000001FFDD01016351020813E168C172F157
:100C800069C173F10F0E746F756F6EC176F16FC12C
:100C900077F170C178F1796F71C17AF10001E9DD06
:100CA00001016351030813E168C172F169C173F175
:100CB0006EC174F16FC175F170C176F10F0E776F6F
:100CC000786F796F71C17AF10001D3DD0101635151
:100CD000040813E168C172F169C173F10F0E746FFA
:100CE000756F6EC176F16FC177F170C178F1796F70
:100CF00071C17AF10001BDDD01016351050810E108
:100D000068C172F169C173F10F0E746F756F766F00
:100D1000776B786F796F71C17AF10001AADD0101FB
:100D2000020E5C255D255E25726F000E5F21736FDC
:100D3000000E6021746F000E6121756F6251722781
:100D4000000E732374237523010E7227000E732384
:100D50007423752363517227000E73237423752344
:100D6000010E72250001FF6F000E01017321006F5B
:100D7000000E7421016F000E7521026F0001120038
:100D80002DC134F1EC530BE101012C5302E1010EB2
:100D9000336F2C2D02D00C0E336F35690001EC2D12
:100DA00005D00101336932C135F10001000E18B0E0
:100DB000010E0101366F33C15CF134C15DF131C107
:100DC00061F130C160F12FC15FF12EC15EF135C11B
:100DD00062F1636F000180DD12000101982D03D0E4
:100DE000809480868082985303E1809480928096DC
:100DF0000001120001019E6B9E5103081FE3010ECA
:100E0000A46F9F0EA36F9E51A325016E000EA42117
:100E1000036E0150E96E03C0EAFF9E519D25A56F48
:100E2000F2CFA6F1F29EA5C1A9FFA69CA69EA68020
:100E3000A850A6BFF28EEF6E9E2BDED79FC100F0AA
:100E4000A0C101F0A1C102F0A2C103F0000132EF84
:100E500007F001019751040DF3CF9CF19CC19DF166
:100E60000001C8D703C09BF102C09AF101C099F1FB
:100E700000C098F198C100F099C101F09AC102F048
:100E80009BC103F01200140E0101976F0001E1DF16
:100E9000120080928084808600D000D00000B7EFDE
:100EA00008F0D8B204D0010EEA6E9F0EE96E006A17
:100EB000016A026A036A01019F6BA06BA16BA26BBE
:100EC0009E519D119C119B112CE0200EA36FD89078
:100ED0009737983799379A379F37A037A137A23776
:100EE0009E51A25D08E19D51A15D05E19C51A05D6F
:100EF00002E19B519F5D0FE39B519F5F9C51D8A0E6
:100F00009C3DA05F9D51D8A09D3DA15F9E51D8A062
:100F10009E3DA25FD8800036013602360336A32FED
:100F2000D6D79FC1EFFFA0C1ECFFA1C1ECFFA2C1CA
:100F3000ECFF000112000101A36BA46B010EA56F71
:100F4000DA6AD96AA86F9B0EA76F010EEA6E9F0E30
:100F5000E96EA8C1E2FFA7C1E1FFA5C1A6F1D89043
:100F6000E550EE02F350A323F450A423A62FF7D7A5
:100F7000A3C1DEFFA4C1A3F1A46BD8B0A42BA72BFF
:100F8000D8B4A82BA52BA5510508DFE1000112005C
:100F90000101996B9A6B98C19AF1700E9B6F9C6FCF
:100FA00098519C25816E100E006E002EFED7000019
:100FB0008084100E006E002EFED7000080949751A2
:100FC0009B25010F816E83A802D0080E992783AA62
:100FD00002D0040E992783AC02D0020E992783AE6B
:100FE00002D0010E9927000146EF0BF05FC163F1BB
:100FF0005EC162F15DC161F15CC160F119A606D00C
:101000000101066B056B046B036B000101010351C9
:10101000605D0AE10451615D07E10551625D04E133
:101020000651635DD8B447D3189817BA1888010ED3
:10103000986F0001D2DE5FC167F15EC166F15DC1EC
:1010400065F15CC164F11FDF03C06BF102C06AF19E
:1010500001C069F100C068F101016B530DE16A51F3
:101060000E081FE2FF0A08E1695141081AE2FF0A6F
:1010700003E168513F0815E2400E685D006E420EC4
:101080006959016E0F0E6A59026E000E6B59036E9C
:101090000050645F0150655B0250665B0350675B04
:1010A00008D068516427695165236A5166236B51E2
:1010B00067236C6B6C51090856E36C51030DF350B8
:1010C000040DF350036A1D0FE96E000E0320EA6E53
:1010D000EFCF00F0ECCF01F0ECCF02F0ECCF03F05B
:1010E0000350675D3EE30BE10250665D3AE307E1C2
:1010F0000150655D36E303E10050645D32E36C51FD
:10110000030DF350010F040DF350036A1D0FE96E38
:10111000000E0320EA6EEFCF00F0ECCF01F0ECCF31
:1011200002F0ECCF03F06751035C1BE30BE1665167
:10113000025C17E307E16551015C13E303E16451CD
:10114000005C0FE36C51030DF350020F040DF350DC
:10115000036A1D0FE96E000E0320EA6EEFCFEAF07E
:1011600002D06C2BA7D7EAC081FF000192D6010103
:101170006C6B6C51090852E36C51040DF350036A17
:10118000F2CF97F1F29E0001F7EC00F0006E09003B
:10119000F5CF01F00900F5CF02F00900F5CF03F01B
:1011A000010197BFF28E0350675D36E30BE10250F9
:1011B000665D32E307E10150655D2EE303E1005017
:1011C000645D2AE3010E6C25040DF350036AF2CF2F
:1011D00097F1F29E0001F7EC00F0006E0900F5CFE8
:1011E00001F00900F5CF02F00900F5CF03F001018D
:1011F00097BFF28E6751035C0FE30BE16651025C0F
:101200000BE307E16551015C07E303E10050645D16
:1012100003E26CC1EBF002D06C2BABD767C170F16D
:1012200066C16FF165C16EF164C16DF1746B736B72
:10123000726B716B70530DE16F51000819E2FF0A78
:1012400008E16E51850814E2FF0A03E16D519F0821
:101250000FE2A00E6D5F860E6E5B010E6F5B000EDF
:10126000705B010E7127000E722373237423E2D783
:10127000786B776B766B756B70530AE16F5308E18F
:101280006E51260813E2FF0A03E16D510F080EE2CA
:10129000100E6D5F270E6E5B000E6F5B705B010EB4
:1012A0007527000E762377237823E6D77C6B7B6B3C
:1012B0007A6B796B70530AE16F5308E16E51020843
:1012C00013E2FF0A03E16D51E7080EE2E80E6D5FDD
:1012D000030E6E5B000E6F5B705B010E7927000ED4
:1012E0007A237B237C23E6D7806B7F6B7E6B7D6BC1
:1012F000705307E16F5305E16E5303E16D516308CD
:101300000DE2640E6D5F000E6E5B6F5B705B010E35
:101310007D27000E7E237F238023EAD7846B836B97
:10132000826B816B705307E16F5305E16E5303E1EC
:101330006D5109080DE20A0E6D5F000E6E5B6F5B6A
:10134000705B010E8127000E822383238423EAD75A
:10135000886B876B866B856B6D5306E16E5304E17A
:101360006F5302E170530DE0010E6D5F000E6E5B76
:101370006F5B705B010E8527000E86238723882311
:10138000EBD7D89267C19AF166C199F165C198F11E
:1013900064C197F19E6B9D6B270E9C6F100E9B6F27
:1013A00000017FDD03C08CF102C08BF101C08AF126
:1013B00000C089F178C19EF177C19DF176C19CF1A1
:1013C00075C19BF10101A26BA16BA06B640E9F6FB5
:1013D0000001B1DD03C09AF102C099F101C098F19A
:1013E00000C097F17CC19EF17BC19DF17AC19CF157
:1013F00079C19BF10101A26BA16BA06B0A0E9F6FDB
:10140000000199DD005001019727015098230250F7
:10141000992303509A237D5197258D6F7E519821F2
:101420008E6F8E51000809E2FF0A03E18D51F30827
:1014300004E2F40E8D5F010E8E5B745307E173536B
:1014400005E1725303E17151090805E2300E8D2761
:10145000020E8E2304D0300E8D27020E8E238F6B4A
:10146000906B916B926B936B946B956B966B8EC13B
:1014700090F18E31986F8D31976F98339733983301
:101480009733983397330F0E981797510F0B916F2F
:101490008D510F0B926F0001EA5105085AE3D89263
:1014A0008CC19AF18BC199F18AC198F189C197F1E8
:1014B00001019E6B9D6B9C6B050E9B6F0001F1DC27
:1014C00003C09AF102C099F101C098F100C097F1F0
:1014D0000C0E01019727000E982399239A239A3125
:1014E000036E9931026E9831016E9731006E0332AE
:1014F0000232013200320332023201320032033250
:1015000002320132003200C095F1D8928CC19AF1BA
:101510008BC199F18AC198F189C197F19E6B9D6B3E
:101520009C6B050E9B6F0001BCDC03C09AF102C0EE
:1015300099F101C098F100C097F10C0E01019727B5
:10154000000E982399239A2397510F0B966F65D01D
:101550000001D8928CC19AF18BC199F18AC198F19E
:1015600089C197F101019E6B9D6B9C6B050E9B6F72
:10157000000197DC03C09AF102C099F101C098F113
:1015800000C097F10C0E01019727000E98239923B4
:101590009A231E0E975F000E985B995B9A5B9A31B7
:1015A000036E9931026E9831016E9731006E0332ED
:1015B000023201320032033202320132003203328F
:1015C00002320132003200C095F1D8928CC19AF1FA
:1015D0008BC199F18AC198F189C197F19E6B9D6B7E
:1015E0009C6B050E9B6F00015CDC03C09AF102C08E
:1015F00099F101C098F100C097F10C0E01019727F5
:10160000000E982399239A231E0E975F000E985B75
:10161000995B9A5B97510F0B966F8092809480969E
:10162000300E8F25816E0001A5EC01F0200E010126
:101630009025816E0001A5EC01F0100E01019125AD
:10164000816E0001A5EC01F092C181FFA5EC01F0D3
:10165000300E01019325816E0001ADEC01F0200EEA
:1016600001019425816E0001ADEC01F0100E010125
:101670009525816E0001ADEC01F096C181FFADECC6
:1016800001F081C197F185C198F182D45FC106F163
:101690005EC105F15DC104F15CC103F1000E18B833
:1016A000010E0101976F986F0001EDEC06F0179A9B
:1016B00018B8178A01010001120018A202D018926E
:1016C00001D018820101526B00013CEC03F01200C2
:1016D000130E0101646F55C168F154C167F153C124
:1016E00066F152C165F1000148EC02F0120054C1EC
:1016F00097F129EC07F01200020E01015325546FF7
:10170000976F000129EC07F01200010155515703B2
:10171000F3CF01F0F4CF00F05803F35000265651F8
:101720005703F3500020026E0001120001015253D2
:1017300010E1000E17BC010E536F546F0001D7DF8C
:1017400003C0E8F002C0E7F001C0E6F000C0E5F039
:101750000101522D0DD0E9C053F10001CDDF03C0CE
:10176000E8F002C0E7F001C0E6F000C0E5F00101DA
:1017700052510208D8A485D01B522AE1280E1C6EB3
:10178000010E1A5C546F566B556F586B040E576FF1
:101790000001BBDF02C003F00150F2CF53F1F29E13
:1017A00002C0F7FF4BEC00F00900F5CF01F0090093
:1017B000F5CF02F00900F5CF03F0010153BFF28E1F
:1017C00003C0E8F002C0E7F001C0E6F0E8CFE5F0C2
:1017D0001B2C2AD0280E1C6E270E1A24546F566B11
:1017E000556F586B040E576F00018FDF02C003F076
:1017F0000150F2CF53F1F29E02C0F7FF4BEC00F024
:101800000900F5CF01F00900F5CF02F00900F5CF8E
:1018100003F0010153BFF28E03C0E8F002C0E7F00D
:1018200001C0E6F0E8CFE5F01B5002082AE1500EB7
:101830001C6E010E1A5C546F566B556F586B040E7C
:10184000576F000162DF02C003F00150F2CF53F185
:10185000F29E02C0F7FF4BEC00F00900F5CF01F05B
:101860000900F5CF02F00900F5CF03F0010153BFE5
:10187000F28E03C0E8F002C0E7F001C0E6F0E8CF66
:10188000E5F000011200130E0101976F000129EC31
:1018900007F01200EC5313E1E8C055F1E7C054F132
:1018A000E6C053F1E5C052F113DF010EEC6FECC05E
:1018B00052F17EEC02F0ECC052F138DF10D0EC2D8A
:1018C0000ED0E1DF03C0E8F002C0E7F001C0E6F0AF
:1018D00000C0E5F0EC6BECC052F17EEC02F01200BF
:1018E000020E01015225576F646F56C168F155C150
:1018F00067F154C166F153C165F1000148EC02F093
:101900001200EC530BE1E9C052F1E8C056F1E7C018
:1019100055F1E6C054F1E5C053F1E2DFEC2D0BD0F8
:10192000E9C052F1E8C056F1E7C055F1E6C054F104
:10193000E5C053F1D5DF120017AA02D0179A01D0E3
:10194000178A000E17BA010E0101526F986F00013D
:10195000EDEC06F00101526B00013CEC03F01200CB
:1019600053C164F157C168F156C167F155C166F1C1
:1019700054C165F148EC02F01200000E17BC010ED4
:101980000101526F536FE8C057F1E7C056F1E6C04E
:1019900055F1E5C054F10001E3DF17BC02D0178C0C
:1019A00001D0179C000E17BC010E0101526F546F3D
:1019B00000019DDE03C0E8F002C0E7F001C0E6F0E0
:1019C00000C0E5F019861200EC531BE1E9C053F1A9
:1019D00093DE03C0E8F002C0E7F001C0E6F000C00B
:1019E000E5F0000E17BC010E0101526F536FE8C005
:1019F00057F1E7C056F1E6C055F1E5C054F10001DA
:101A0000AFDFEC2D10D0000E17BC010E0101526F9C
:101A1000536FE8C057F1E7C056F1E6C055F1E5C095
:101A200054F100019DDF120082B637D0EC5322E161
:101A3000EB51080801E3EB2BEB51040DF350036A63
:101A4000F2CF52F1F29EF7EC00F00900F5CF01F071
:101A50000900F5CF02F00900F5CF03F0010152BFF4
:101A6000F28E03C0E8F002C0E7F001C0E6F0E8CF74
:101A7000E5F00001EC2D09D0E9510D0801E3E92B57
:101A8000010E0101526F000151DEEC51020804E128
:101A90001C501A5C01E21A2A09D0EC5307E1500EDF
:101AA000E527C30EE623000EE723E823120082B6E3
:101AB00035D0EC5321E1EB5301E0EB07EB51040D82
:101AC000F350036AF2CF52F1F29EF7EC00F00900F6
:101AD000F5CF01F00900F5CF02F00900F5CF03F0D2
:101AE000010152BFF28E03C0E8F002C0E7F001C06E
:101AF000E6F0E8CFE5F00001EC2D08D0E95301E075
:101B0000E907010E0101526F000110DEEC510208DD
:101B100004E11A50010801E21A0609D0EC5307E16A
:101B2000500EE55FC30EE65B000EE75BE85B12005C
:101B3000EC5359E1000E17BC010E0101526F546FB6
:101B40000001D5DD03C0E8F002C0E7F001C0E6F017
:101B500000C0E5F0E8C055F1E7C054F1E6C053F12C
:101B6000E5C052F1B5DDE9C053F1C6DD03C0E8F0D0
:101B700002C0E7F001C0E6F000C0E5F0000E17BCBF
:101B8000010E0101526F536FE8C057F1E7C056F1E3
:101B9000E6C055F1E5C054F10001E2DE74DE03C099
:101BA000E8F002C0E7F001C0E6F000C0E5F0E9C0EF
:101BB00052F1E8C056F1E7C055F1E6C054F1E5C076
:101BC00053F18EDE000E17BC010E0101526F546FEF
:101BD00000018DDD03C0E8F002C0E7F001C0E6F0CF
:101BE00000C0E5F055D0EC2D53D0E9C053F184DDB1
:101BF00003C0E8F002C0E7F001C0E6F000C0E5F085
:101C0000E8C055F1E7C054F1E6C053F1E5C052F128
:101C10005FDD000E17BC010E0101526F546F000111
:101C200066DD03C0E8F002C0E7F001C0E6F000C0E6
:101C3000E5F0E9C052F1E8C056F1E7C055F1E6C061
:101C400054F1E5C053F14CDE1EDE03C0E8F002C0E3
:101C5000E7F001C0E6F000C0E5F0000E17BC010E91
:101C60000101526F536FE8C057F1E7C056F1E6C06B
:101C700055F1E5C054F1000173DEE9C053F13CDDDC
:101C800003C0E8F002C0E7F001C0E6F000C0E5F0F4
:101C90001200060E0101546F52C155F100015AECB9
:101CA00002F063EF0EF0060E0101526F0001C7EC67
:101CB00001F001506EEF0EF0EC5302E0EC2D0AD073
:101CC000ECC052F1E6D7020EEC6FECC052F17EECA4
:101CD00002F00DD0EC51020803E1E5D701C0ECF0B1
:101CE000ECC052F123DDECC052F17EEC02F01200A8
:101CF000120E0101646F55C168F154C167F153C1FF
:101D000066F152C165F1000148EC02F0120018A41E
:101D100002D018940AD01884E8C055F1E7C054F1F5
:101D2000E6C053F1E5C052F1E3DF0101526B00015F
:101D30003CEC03F022EF13F00101525311E10F0EBE
:101D4000726F736F746F756F080E766F776B0C0E12
:101D5000786F0F0E796F7A6F000139EC04F0010192
:101D6000522D11D00F0E726F736F746F756F040E5A
:101D7000766F776B0C0E786F0F0E796F7A6F0001AC
:101D800039EC04F001015251020811E10F0E726F9B
:101D9000736F746F756F766F0C0E776F0E0E786FB2
:101DA0000F0E796F7A6F000139EC04F00101525186
:101DB000030810E10F0E726F736F746F756F766F9B
:101DC000776F0B0E786F0F0E796F7A6F000139EC19
:101DD00004F001015251040814E10F0E726F736F89
:101DE0000A0E746F010E756F766F0F0E776F0C0E03
:101DF000786F0B0E796F0F0E7A6F000139EC04F0DB
:101E000001015251050812E10F0E726F736F0D0E32
:101E1000746F010E756F0A0E766F0F0E776F786B09
:101E2000796F7A6F000139EC04F001015251060814
:101E300014E10F0E726F736F0D0E746F010E756FDC
:101E40000A0E766F0F0E776F010E786F0F0E796F97
:101E50007A6F000139EC04F001015251070814E1D6
:101E60000F0E726F736F0D0E746F010E756F0A0E89
:101E7000766F0F0E776F020E786F0F0E796F7A6F95
:101E8000000139EC04F00101020E536FFA0E5E6F8F
:101E900000017AEC01F00101532FF8D70001120084
:101EA000EC51020827E11B5203E1010E1B6E01D029
:101EB0001B6A1B5205E1020E0101526F00013CDF5B
:101EC0001B2C05D0030E0101526F000135DF19866E
:101ED00001015C695D69616B606B5F6B1AC05EF1EB
:101EE0006269020E636F00016CEC04F01BC052F1DA
:101EF000A8EC02F01200140E0101646F63C168F1D6
:101F000062C167F161C166F160C165F1000148EC31
:101F100002F0120001015C6B072B0751070803E375
:101F20005CC101F016D1076B809882A406D182B4FF
:101F3000FED7849484928490809A5D6B18A611D009
:101F400084808482848482B409D082B207D082B033
:101F500005D05C6B18961992F0D003D05C6B199287
:101F6000ECD084928494809A848000D000D00000C9
:101F700082A413D082A40DD05D2B640E5E6F00018D
:101F80007AEC01F001015D511D0802E2198201D0D5
:101F9000F1D71886010E5C6FD0D082A213D082A236
:101FA0000DD05D2B640E5E6F00017AEC01F0010133
:101FB0005D511D0802E2198201D0F1D71886020E88
:101FC0005C6FBBD082A013D082A00DD05D2B640EBD
:101FD0005E6F00017AEC01F001015D511D0802E223
:101FE000198201D0F1D71886030E5C6FA6D08490B9
:101FF000848200D000D0000082A413D082A40DD02F
:102000005D2B640E5E6F00017AEC01F001015D5101
:102010001D0802E2198201D0F1D71886040E5C6F08
:102020008CD082A213D082A20DD05D2B640E5E6F85
:1020300000017AEC01F001015D511D0802E21982F4
:1020400001D0F1D71886050E5C6F77D082A013D02F
:1020500082A00DD05D2B640E5E6F00017AEC01F062
:1020600001015D511D0802E2198201D0F1D71886E5
:10207000060E5C6F62D08492848400D000D0000091
:1020800082A413D082A40DD05D2B640E5E6F00017C
:102090007AEC01F001015D511D0802E2198201D0C4
:1020A000F1D71886070E5C6F48D082A213D082A2A7
:1020B0000DD05D2B640E5E6F00017AEC01F0010122
:1020C0005D511D0802E2198201D0F1D71886080E71
:1020D0005C6F33D082A013D082A00DD05D2B640E34
:1020E0005E6F00017AEC01F001015D511D0802E212
:1020F000198201D0F1D71886090E5C6F1ED0849426
:10210000808A00D000D0000082A213D082A20DD01D
:102110005D2B640E5E6F00017AEC01F001015D51F0
:102120001D0802E2198201D0F1D718860B0E5C6FF0
:1021300004D0849484928490809A5C5308E019A21D
:1021400002D0140E5C270001F2EC03F001015CC127
:1021500001F0000112000101636B626B616B606B47
:102160000001C9DEE8C05FF1E7C05EF1E6C05DF1E5
:10217000E5C05CF1F6EC07F043EC07F003C055F165
:1021800002C054F101C053F100C052F10101566B7D
:10219000576B5B6B5A6B596B586B19865C695D6941
:1021A000616B606B5F6B010E5E6F6269050E636F42
:1021B00000016CEC04F0000E18BA010E01015C6F16
:1021C0005CC15DF180B02CD0179682B8178680B0C4
:1021D00002D0FDD7FCD75D5310E117A607D0010E42
:1021E0005227000E53235423552306D0010E525F6D
:1021F000000E535B545B555B0FD017A607D0010E42
:10220000525F000E535B545B555B06D0010E5227A4
:10221000000E532354235523010E016E03D002D028
:10222000000E016E015202E0010E566F523D10D0B9
:10223000533D0ED0543D0CD0553D0AD0556B546BD8
:10224000536B010E526F18BA02D0188A01D0189A37
:1022500055530AE1545308E1535102080BE2FF0AB7
:1022600003E15251E60806E2556B546B030E536FBF
:10227000E70E526F562D6FD0525306E1535304E1CF
:10228000545302E155534EE018AA26D05251000192
:10229000E55D0101586F53510001E6590101596F85
:1022A00054510001E75901015A6F55510001E85995
:1022B00001015B6F5C695D6955C161F154C160F1F9
:1022C00053C15FF152C15EF16269030E636F000199
:1022D0006CEC04F025D0010152510001E52501010B
:1022E000586F53510001E6210101596F545100010B
:1022F000E72101015A6F55510001E82101015B6F8F
:102300005C695D6955C161F154C160F153C15FF110
:1023100052C15EF16269040E636F00016CEC04F05F
:102320000ED001015C695D69616B606B5F6B010ED2
:102330005E6F6269050E636F00016CEC04F05BC1B7
:102340005FF15AC15EF159C15DF158C15CF1F6EC23
:1023500007F00101566B0001DDDD01C057F10101FD
:10236000572D1CD05C695D69E8C061F1E7C060F180
:10237000E6C05FF1E5C05EF16269636B00016CEC81
:1023800004F0040E01015C6FFA0E5E6F00017AEC3E
:1023900001F001015C2FF8D7576B2FD05751060879
:1023A00002E12ED02AD05751150827E118AA16D0DD
:1023B000400E52255C6F420E53215D6F0F0E54216B
:1023C0005E6F000E55215F6F636F5EC162F15DC18C
:1023D00061F15CC160F100018EDD010118BA0BD022
:1023E00055C163F154C162F153C161F152C160F151
:1023F000000181DD0101198603D00001DCD6010155
:10240000000122EF13F00F0E0101546F5569000116
:102410005AEC02F0E6EF12F00101536B5351525D9A
:1024200010E3640E5E6F00017AEC01F0F2EC03F051
:10243000640E01015E6F00017AEC01F00101532B83
:10244000EDD700011200EE2BEE51020801E2EE6B17
:10245000EE5305E1050E0101526F00016DDCEE2D1A
:1024600005D0060E0101526F000166DCEE51020834
:1024700005E1070E0101526F00015EDC1986EEC016
:1024800052F197EC02F0010E0101526F0001C4DF1E
:1024900022EF13F019AE02D0199E01D0198E000E52
:1024A00019BE010E0101526F536F00018FEC02F053
:1024B000010E0101526F0001AFDF22EF13F00101A5
:1024C000505303E1000E016EC1D0502D05D0000124
:1024D0001ED40001B7D001015051020805E10001EE
:1024E00057EC0DF0AFD001015051030805E1000198
:1024F00014EC0DF0A7D001015051040805E10001D2
:10250000E4EC0CF09FD001015051050805E10001F9
:10251000BDEC0CF097D001015051060805E1000117
:102520009CEC0CF08FD001015051070805E100012F
:1025300081EC0CF087D001015051080805E1000141
:102540004AEC0CF07FD00101505109080AE100016A
:10255000EC51020803E05DEC0BF001D0A1DC72D07D
:10256000010150510B0805E1000198EC0DF06AD013
:1025700001015051150805E10001EDD5000162D0BF
:1025800001015051190825E1516B515102081CE31A
:10259000808280848086806A816A826A836A320E41
:1025A0005E6F00017AEC01F0809280948096806AE0
:1025B000816A826A836A320E01015E6F00017AECE1
:1025C00001F00101512BE1D700011DD7FF003AD0E6
:1025D00001015051180805E1000135D7000132D042
:1025E000010150511A0805E1000154D700012AD019
:1025F000010150511C0807E117A804D000015CEC50
:102600000EF0010120D050511D081DE117A81BD06C
:10261000040E526F00019CEC0EF0198601015C69FA
:102620005D69616B606B5F6B1AC05EF16269020E7F
:10263000636F00016CEC04F0020E1B6E1BC052F1C4
:10264000A8EC02F00101198650C101F0000112004E
:1026500001012F2D07D000015DEC0BF0F2EC03F02F
:1026600062D101012F51020807E100014AEC0CF090
:10267000F2EC03F058D101012F51030807E10001EA
:1026800081EC0CF0F2EC03F04ED101012F51040863
:1026900007E100019CEC0CF0F2EC03F044D10101E5
:1026A0002F51050807E10001BDEC0CF0F2EC03F03E
:1026B0003AD101012F51060807E10001E4EC0CF0CA
:1026C000F2EC03F030D101012F51070807E10001BE
:1026D00014EC0DF0F2EC03F026D101012F510808A3
:1026E00007E1000157EC0DF0F2EC03F01CD1010101
:1026F0002F510B0807E1000198EC0DF0F2EC03F00C
:1027000012D101012F510A08D8A4F1D02E39006E40
:102710000F0E001600500F0B306F316B326B336BA6
:102720002E510F0B346F356B366B376B2D39006EB6
:102730000F0E001600500F0B386F396B3A6B3B6B66
:102740002D510F0B3C6F3D6B3E6B3F6B2C39006E78
:102750000F0E001600500F0B406F416B426B436B26
:102760002C510F0B446F456B466B476B2B39006E3A
:102770000F0E001600500F0B486F496B4A6B4B6BE6
:102780002B510F0B4C6F4D6B4E6B4F6B37C19EF146
:1027900036C19DF135C19CF134C19BF1A26B0F0E86
:1027A000A16F420EA06F400E9F6F00019BEC07F0DF
:1027B00003C053F102C052F101C051F100C050F109
:1027C0003BC19EF13AC19DF139C19CF138C19BF1E9
:1027D0000101A26B010EA16F860EA06FA00E9F6F6C
:1027E00000019BEC07F000500101502701505123DC
:1027F00002505223035053233FC19EF13EC19DF12D
:102800003DC19CF13CC19BF1A26BA16B270EA06F57
:10281000100E9F6F00019BEC07F000500101502744
:1028200001505123025052230350532343C19EF1C0
:1028300042C19DF141C19CF140C19BF1A26BA16BD2
:10284000030EA06FE80E9F6F00019BEC07F0005095
:1028500001015027015051230250522303505323AA
:1028600047C19EF146C19DF145C19CF144C19BF118
:10287000A26BA16BA06B640E9F6F00019BEC07F035
:1028800000500101502701505123025052230350A0
:1028900053234BC19EF14AC19DF149C19CF148C1EE
:1028A0009BF1A26BA16BA06B0A0E9F6F00019BECCA
:1028B00007F00050010150270150512302505223CC
:1028C000035053234C5150250001E56F01014D5138
:1028D00051210001E66F01014E5152210001E76FC5
:1028E00001014F5153210001E86F1DD001012F510B
:1028F000FC0802E1178816D02F51FD0807E117A840
:1029000004D000015CEC0EF001010CD02F51FE0848
:1029100006E1190E506F0001D2DD05D001012F3DF7
:1029200001D0FF000001198691EF18F00101242B5E
:1029300024510708D8B04DD1246B2B6B83B205D03E
:1029400082BA03D0010E2B6F23D083B205D082BC94
:1029500003D0020E2B6F1CD083A20DD082AA0BD005
:1029600082AC09D083A204D082AA02D082BCFAD75A
:102970000A0E2B6F0DD083A205D082BA03D00B0EA6
:102980002B6F06D083A204D082BC02D00C0E2B6F1A
:102990002B5303E1266B256B1CD10001EC53D8A40B
:1029A000E5D001012B2D5FD083B212D082BA10D0B6
:1029B000252BD8B4262B050E5E6F00017AEC01F0B2
:1029C0000101265303E125516308D8A001D0ECD7BB
:1029D00026530DE1255163080AE30A0E0001E5279D
:1029E000000EE623E723E8230101266B256B26531F
:1029F00003E1255163080FE2252BD8B4262B050EE1
:102A00005E6F00017AEC01F00A0EE527000EE62366
:102A1000E723E82301012651000814E2FF0A03E13D
:102A200025518F080FE2252BD8B4262B050E5E6F9B
:102A300000017AEC01F0640EE527000EE623E7239F
:102A4000E8230101265101080EE2FF0A03E12551A6
:102A5000BA0809E2E80E0001E527030EE623000E9E
:102A6000E723E82301012B5102085FE183B212D072
:102A700082BC10D0252BD8B4262B050E5E6F00012A
:102A80007AEC01F00101265303E125516308D8A037
:102A900001D0ECD726530DE1255163080AE30A0E55
:102AA0000001E55F000EE65BE75BE85B0101266B7A
:102AB000256B265303E1255163080FE2252BD8B47B
:102AC000262B050E5E6F00017AEC01F00A0EE55F21
:102AD000000EE65BE75BE85B01012651000814E2AB
:102AE000FF0A03E125518F080FE2252BD8B4262BCE
:102AF000050E5E6F00017AEC01F0640EE55F000EDA
:102B0000E65BE75BE85B0101265101080EE2FF0A84
:102B100003E12551BA0809E2E80E0001E55F030E62
:102B2000E65B000EE75BE85B01012B510A0804E15C
:102B300000014AEC0CF001012B510B0809E1E80EF1
:102B40000001E527030EE623000EE723E823010139
:102B50002B510C0809E1E80E0001E55F030EE65B6E
:102B6000000EE75BE85B010134D00001EC2D01D0E1
:102B700003D0EC5102082CE101012B2D08D083B2C7
:102B800002D082AAFCD7000114EC0DF001012B51F8
:102B9000020808E183B202D082ACFCD7000157ECF6
:102BA0000DF001010001EC2D07D001012B510A08A5
:102BB00004E100014AEC0CF001010001EC510208B3
:102BC00007E101012B510A0804E1000150EC0FF06C
:102BD00001010001A2EF18F001012D2D03D0808426
:102BE000808280962D5303E180928094809600012C
:102BF0001200110E0101646F30C168F12FC167F13D
:102C00002EC166F12DC165F1000148EC02F0FBEF29
:102C100016F0120E0101976F000129EC07F0FCEF8E
:102C200016F0110E0101976F000129EC07F016EF65
:102C300017F001012B6B17B86DD083A663D019B8BC
:102C400060D02C6B2C5109084EE3D8902C35040D24
:102C5000F350036A950FE96E000E0320EA6EEFCF82
:102C600000F0ECCF01F0ECCF02F0ECCF03F003501A
:102C70000001E85D35E30BE10250E75D31E307E178
:102C80000150E65D2DE303E10050E55D29E3D890B6
:102C900001012C35010F040DF350036A950FE96E05
:102CA000000E0320EA6EEFCF00F0ECCF01F0ECCF86
:102CB00002F0ECCF03F00001E851035C11E30BE1FB
:102CC000E751025C0DE307E1E651015C09E303E132
:102CD000E551005C05E3010E01012B6F04D00001FA
:102CE00001012C2BAFD72B530BE1010E2D6F0001EF
:102CF00073DF020E0101526F00010CEC12F00101B2
:102D0000198807D019A805D02D6B000165DF199827
:102D1000010102D0010E2B6F18A25DD083A62ED028
:102D200019BA2BD0000E17BC010E2D6F536FE8C0DF
:102D300057F1E7C056F1E6C055F1E5C054F1000186
:102D4000B0EC0CF017BC02D0178C03D017AC01D03C
:102D5000179C000E17BC010E01012D6F546F00016E
:102D600077EC0BF003C0E8F002C0E7F001C0E6F03A
:102D700000C0E5F0198A198601012DD019AA2BD0BF
:102D8000000E17BC010E2D6F536FE8C057F1E7C05E
:102D900056F1E6C055F1E5C054F10001B0EC0CF07D
:102DA00017BC02D0178C03D017AC01D0179C000EB3
:102DB00017BC010E01012D6F546F000177EC0BF071
:102DC00003C0E8F002C0E7F001C0E6F000C0E5F0A3
:102DD000199A1986010118A434D083A619D019BCF8
:102DE00016D0E8C030F1E7C02FF1E6C02EF1E5C003
:102DF0002DF10001FED60DD703C0E8F002C0E7F0C8
:102E000001C0E6F000C0E5F0198C1986010119D067
:102E100019AC17D0E8C055F1E7C054F1E6C053F142
:102E2000E5C052F1000178EC0EF0FBD603C0E8F0EB
:102E300002C0E7F001C0E6F000C0E5F0199C198679
:102E400001010001A3EF18F0EC5302E0EC2D2FD0AC
:102E5000E85310E1E7530EE1E651C3080BE303E149
:102E6000E5514F0807E3E86B2D0EE76FC60EE66FDE
:102E7000C00EE56FE8530DE1E7512C0810E2FF0AA0
:102E800008E1E651C5080BE2FF0A03E1E551C0087D
:102E900006E2E86BE76BC30EE66F500EE56FE95193
:102EA0000E0802E20E0EE96FE95301E1E96BEC5105
:102EB000020809E11A52D8B41CC01AF01A501C5C5E
:102EC00002E2010E1A6E1200F86AD09E078E166A90
:102ED000400EAF6EA20EAC6E900EAB6EFB6B010E91
:102EE000FC6FFE6BFD6B0101076B086B0A6B096BD6
:102EF0000C6B0B6B030E0E6FE80E0D6F2CC11AF1ED
:102F00002BC119F11B6B1D6B1C6B1F6B1E6B216B97
:102F1000206B236B226B246B266B256BC180C182D7
:102F2000C184C19667D007001D50C30000EF49025D
:102F300005C000B380F04902008FD00300010000FB
:102F40000090D003007F1A060002000000801A06DD
:102F500000AF710B0003000000B0710B008F051073
:102F60000004000000900510000F2016000500006E
:102F700000102016008F3A1C0006000000903A1C3A
:102F8000006FCE20000700000070CE20009F252695
:102F90000008000000A0252600FFD3300009000033
:102FA00000F0490200400D030030570500801A066A
:102FB0000060AE0A00B0710B0040420F0090051097
:102FC00000C05C15001020160040771B00903A1CD2
:102FD00000200B200070CE2000009F2400F0E82687
:102FE0000080B92A00C0C62D09C0000840FF000AB1
:102FF000410F0000000EF86E2F0EF76E260EF66ED3
:103000000900F550006E000A13E00900F550016E4A
:10301000E8BE05D00F0BEA6E0900F5CFE9FF01BC51
:10302000090001AC0900F5CFEEFF004EE9D7F9D752
:10303000F86A640E5E6F00017AEC01F0C290010E36
:10304000926E000E936EFF0E946EFE0E956E96902D
:1030500096929694B3EF01F0DEEC01F0012C01D0D2
:1030600003D0B9EF02F0F8D7DEEC01F0012C02D06A
:10307000D2EF03F0F2EC03F0808A00D000D0000021
:1030800082A002D0179801D01788809A9D9A9D8AB5
:10309000C00EF212E86B0A0EE76FAE0EE66F600E1E
:1030A000E56F000E17BC010E01012B6F2C6FEDC0F8
:1030B0002DF1E8C031F1E7C030F1E6C02FF1E5C0F5
:1030C0002EF1E9C032F10001C0EC06F0E8C05FF17A
:1030D000E7C05EF1E6C05DF1E5C05CF1F6EC07F03B
:1030E0000101276B286B2A6B296B19A00AD00001FC
:1030F000FD2BD8B4FE2B100E006E002EFED7000064
:1031000001010001FB530DE0FB6BF2C02BF1F3C09A
:103110002CF1F4C02DF1F5C02EF1F6C02FF128EFFF
:1031200013F00101285303E0292BD8B42A2B000106
:103130008AEC0FF001C02BF101C050F15FEC12F0EE
:1031400096EF14F076D5EC5303E0EC2D64EF1EF00F
:10315000EE2DCBD119BEE5D001012C6B050E2B6FE6
:10316000030E106F200E0F6F020E126F580E116FAC
:10317000010E146F900E136F166BC80E156F186B3F
:10318000640E176F80B03DD0179682B8178680B056
:1031900002D0FDD7FCD717A60CD019510001E527A6
:1031A00001011A510001E623000EE723E8230BD0AA
:1031B000010119510001E55F01011A510001E65BAF
:1031C000000EE75BE85B01010C6B0B6B0E5306E135
:1031D0000D51130803E30E6B140E0D6F0E51020810
:1031E00009E2FF0A03E10D51E70804E2030E0E6F46
:1031F000E80E0D6F0A0E0D5F000E0E5B19C108F18F
:103200002CD00951C80829E10A5327E10E5306E1E1
:103210000D51130803E30E6B140E0D6F0E510208CF
:1032200009E2FF0A03E10D51E70804E2030E0E6F05
:10323000D40E0D6F140E0D27000E0E2380A00DD09E
:103240000B2BD8B40C2B0C5303E10B51180805E2DF
:10325000030E0E6FE80E0D6F086B092BD8B40A2B06
:103260000A5303E10951C80802E20A6B096B1051C5
:103270000E5D08E303E10D510F5D04E22CC11AF16C
:103280002BC119F10E51105D0EE303E10D510F5DDD
:103290000AE312510E5D07E303E10D51115D03E2F4
:1032A0001A6B330E196F0E51125D0EE303E10D51CF
:1032B000115D0AE314510E5D07E303E10D51135D47
:1032C00003E21A6BD30E196F0E51145D0FE303E185
:1032D0000D51135D0BE316510E5D08E303E10D5133
:1032E000155D04E2040E1A6F570E196F0E51165D2C
:1032F0000FE303E10D51155D0BE318510E5D08E37B
:1033000003E10D51175D04E2130E1A6FF70E196FEA
:10331000036A08C101F003C002F001C027F1E4D044
:10332000000101012C6B010E2B6F030E106F200E9C
:103330000F6F020E126F580E116F010E146F900E68
:10334000136F166BC80E156F186B640E176F80B075
:103350003DD0179682B8178680B002D0FDD7FCD733
:1033600017A60CD019510001E52701011A510001DF
:10337000E623000EE723E8230BD0010119510001D9
:10338000E55F01011A510001E65B000EE75BE85BB7
:1033900001010C6B0B6B0E5306E10D51130803E397
:1033A0000E6B140E0D6F0E51020809E2FF0A03E1C5
:1033B0000D51E70804E2030E0E6FE80E0D6F0A0EC2
:1033C0000D5F000E0E5B19C108F12CD00951C80821
:1033D00029E10A5327E10E5306E10D51130803E3D7
:1033E0000E6B140E0D6F0E51020809E2FF0A03E185
:1033F0000D51E70804E2030E0E6FD40E0D6F140E8C
:103400000D27000E0E2380A00DD00B2BD8B40C2B53
:103410000C5303E10B51180805E2030E0E6FE80E82
:103420000D6F086B092BD8B40A2B0A5303E109511D
:10343000C80802E20A6B096B10510E5D08E303E154
:103440000D510F5D04E22CC11AF12BC119F10E517F
:10345000105D0EE303E10D510F5D0AE312510E5DA5
:1034600007E303E10D51115D03E21A6B330E196F8F
:103470000E51125D0EE303E10D51115D0AE314518B
:103480000E5D07E303E10D51135D03E21A6BD30EEA
:10349000196F0E51145D0FE303E10D51135D0BE342
:1034A00016510E5D08E303E10D51155D04E2040EB3
:1034B0001A6F570E196F0E51165D0FE303E10D5190
:1034C000155D0BE318510E5D08E303E10D51175D27
:1034D00004E2130E1A6FF70E196F036A08C101F0A8
:1034E00003C002F001C027F10001EE510208D8A488
:1034F0007BEF1DF019BE80D101012C6B050E2B6FE7
:103500001C5304E11D5302E11F6B1E6B1B5303E0B0
:103510001C2BD8B41D2B2D6B80B009D0179682B808
:1035200017861E2BD8B41F2B010E1B6F01D02D6BDD
:103530001C51F408D8A45CD11D2D5AD11B6B1D6BF6
:103540001C6B19AE9CD017A64DD01E5302E11F5321
:103550000EE01F530CE11E51030809E3010E0001A8
:10356000E527000EE623E723E8233AD001011F53A5
:1035700003E11E5103080EE21F530CE11E51050822
:1035800009E3640E0001E527000EE623E723E823A4
:1035900027D001011F5303E11E5105080FE21F53FD
:1035A0000DE11E5107080AE3E80E0001E527030EAE
:1035B000E623000EE723E82313D001011F5303E1A4
:1035C0001E5107080EE21F530CE11E51640809E367
:1035D000100E0001E527270EE623000EE723E8235F
:1035E00001014CD01E5302E11F530EE01F530CE1AA
:1035F0001E51030809E3010E0001E55F000EE65BC2
:10360000E75BE85B3AD001011F5303E11E51030859
:103610000EE21F530CE11E51050809E3640E000180
:10362000E55F000EE65BE75BE85B27D001011F5317
:1036300003E11E5105080FE21F530DE11E5107085B
:103640000AE3E80E0001E55F030EE65B000EE75BB0
:10365000E85B13D001011F5303E11E5107080EE27E
:103660001F530CE11E51640809E3100E0001E55FD1
:10367000270EE65B000EE75BE85B01019BD017A617
:103680004DD01E5302E11F530EE01F530CE11E519B
:10369000030809E3050E0001E527000EE623E723F2
:1036A000E8233AD001011F5303E11E5103080EE243
:1036B0001F530CE11E51040809E3640E0001E527C5
:1036C000000EE623E723E82327D001011F5303E17F
:1036D0001E5104080FE21F530DE11E5105080AE3B5
:1036E000E80E0001E527030EE623000EE723E8239A
:1036F00013D001011F5303E11E5105080EE21F53B1
:103700000CE11E51640809E3100E0001E527270EA5
:10371000E623000EE723E82301014CD01E5302E10B
:103720001F530EE01F530CE11E51030809E3050E61
:103730000001E55F000EE65BE75BE85B3AD0010164
:103740001F5303E11E5103080EE21F530CE11E51EB
:10375000040809E3640E0001E55F000EE65BE75B29
:10376000E85B27D001011F5303E11E5104080FE25B
:103770001F530DE11E5105080AE3E80E0001E55F45
:10378000030EE65B000EE75BE85B13D001011F53FD
:1037900003E11E5105080EE21F530CE11E5164089F
:1037A00009E3100E0001E55F270EE65B000EE75B04
:1037B000E85B01011E5306E11F5304E1000E016E98
:1037C000026E16D01E5302E11F530AE01F5308E198
:1037D0001E51030805E3010E016E000E026E08D0B3
:1037E0001F5303E11E51020803E2000E016E026E38
:1037F00001C027F17FD1000101012C6B010E2B6F5D
:103800001C5304E11D5302E11F6B1E6B1B5303E0AD
:103810001C2BD8B41D2B2D6B80B009D0179682B805
:1038200017861E2BD8B41F2B010E1B6F01D02D6BDA
:103830001C51F408D8A45CD11D2D5AD11B6B1D6BF3
:103840001C6B19AE9CD017A64DD01E5302E11F531E
:103850000EE01F530CE11E51030809E3010E0001A5
:10386000E527000EE623E723E8233AD001011F53A2
:1038700003E11E5103080EE21F530CE11E5105081F
:1038800009E3640E0001E527000EE623E723E823A1
:1038900027D001011F5303E11E5105080FE21F53FA
:1038A0000DE11E5107080AE3E80E0001E527030EAB
:1038B000E623000EE723E82313D001011F5303E1A1
:1038C0001E5107080EE21F530CE11E51640809E364
:1038D000100E0001E527270EE623000EE723E8235C
:1038E00001014CD01E5302E11F530EE01F530CE1A7
:1038F0001E51030809E3010E0001E55F000EE65BBF
:10390000E75BE85B3AD001011F5303E11E51030856
:103910000EE21F530CE11E51050809E3640E00017D
:10392000E55F000EE65BE75BE85B27D001011F5314
:1039300003E11E5105080FE21F530DE11E51070858
:103940000AE3E80E0001E55F030EE65B000EE75BAD
:10395000E85B13D001011F5303E11E5107080EE27B
:103960001F530CE11E51640809E3100E0001E55FCE
:10397000270EE65B000EE75BE85B01019BD017A614
:103980004DD01E5302E11F530EE01F530CE11E5198
:10399000030809E3050E0001E527000EE623E723EF
:1039A000E8233AD001011F5303E11E5103080EE240
:1039B0001F530CE11E51040809E3640E0001E527C2
:1039C000000EE623E723E82327D001011F5303E17C
:1039D0001E5104080FE21F530DE11E5105080AE3B2
:1039E000E80E0001E527030EE623000EE723E82397
:1039F00013D001011F5303E11E5105080EE21F53AE
:103A00000CE11E51640809E3100E0001E527270EA2
:103A1000E623000EE723E82301014CD01E5302E108
:103A20001F530EE01F530CE11E51030809E3050E5E
:103A30000001E55F000EE65BE75BE85B3AD0010161
:103A40001F5303E11E5103080EE21F530CE11E51E8
:103A5000040809E3640E0001E55F000EE65BE75B26
:103A6000E85B27D001011F5303E11E5104080FE258
:103A70001F530DE11E5105080AE3E80E0001E55F42
:103A8000030EE65B000EE75BE85B13D001011F53FA
:103A900003E11E5105080EE21F530CE11E5164089C
:103AA00009E3100E0001E55F270EE65B000EE75B01
:103AB000E85B01011E5306E11F5304E1000E016E95
:103AC000026E16D01E5302E11F530AE01F5308E195
:103AD0001E51030805E3010E016E000E026E08D0B0
:103AE0001F5303E11E51020803E2000E016E026E35
:103AF00001C027F10001EE53D8A4A1D019BE50D0C7
:103B000001012C6B0A0E2B6F80B026D0179682B85D
:103B1000178680B002D0FDD7FCD717A60CD02B514A
:103B20000001E52701012C510001E623000EE723E7
:103B3000E8230BD001012B510001E55F01012C515D
:103B40000001E65B000EE75BE85B0101236B226B83
:103B5000216B010E206F03D0222BD8B4232B2351CD
:103B6000130808E303E12251870804E3216B010EE7
:103B7000206F02D0216B206B2351120809E2FF0A4B
:103B800003E12251870804E2130E236F880E226F8F
:103B900020C101F021C102F001C027F14FD0000186
:103BA00001012C6B010E2B6F80B026D0179682B8C6
:103BB000178680B002D0FDD7FCD717A60CD02B51AA
:103BC0000001E52701012C510001E623000EE72347
:103BD000E8230BD001012B510001E55F01012C51BD
:103BE0000001E65B000EE75BE85B0101236B226BE3
:103BF000216B010E206F03D0222BD8B4232B23512D
:103C0000130808E303E12251870804E3216B010E46
:103C1000206F02D0216B206B2351120809E2FF0AAA
:103C200003E12251870804E2130E236F880E226FEE
:103C300020C101F021C102F001C027F10001010102
:103C4000272D07D0010E286F2A6B296B19AE01D0E2
:103C500018802A51120820E2FF0A03E1295188083E
:103C60001BE2286B2A6B296B18900001EC5302E0D1
:103C7000EC2D11D0000E17BC010E01012B6F536FFC
:103C8000E8C057F1E7C056F1E6C055F1E5C054F180
:103C90000001B0EC0CF00101000124EC17F0000E63
:103CA00017BC010E01012B6F2C6FEDC02DF1E8C088
:103CB00031F1E7C030F1E6C02FF1E5C02EF1E9C0E7
:103CC00032F10001C0EC06F0EC5102083BE10101C9
:103CD0002B6B80B01CD0179682B8178680B002D0AC
:103CE000FDD7FCD72B5308E117A603D0010E1A26E7
:103CF00002D0010E1A5E07D017A603D0010E1A5E7D
:103D000002D0010E1A26010E016E03D002D0000E61
:103D1000016E01C027F1000124EC17F0020E010131
:103D2000526F000196EC0BF001015C695D69616BFB
:103D3000606B5F6B1AC05EF16269020E636F000117
:103D40006CEC04F0E8C05FF1E7C05EF1E6C05DF145
:103D5000E5C05CF1F6EC07F00101276B19A601D074
:083D6000199675EF18F003003D
:020000040030CA
:0E0000000022060E000181000FC00FE00F402D
:00000001FF
;PIC18F452
;CRC=FD8A  CREATED="12-Nov-24 00:50"
