:100000002FEF11F005EF0EF0046ED8CF05F0E0CF22
:1000100006F00001E9CF0CF0EACF07F0E1CF08F0DD
:10002000E2CF09F0D9CF0AF0DACF0BF0F3CF12F01C
:10003000F4CF13F0FACF14F000C00EF001C00FF0AF
:1000400002C010F003C011F09DAA2AEF00F09EBA82
:10005000D9EF00F00EC000F00FC001F010C002F0A8
:1000600011C003F00CC0E9FF07C0EAFF078E08C00B
:10007000E1FF09C0E2FF0AC0D9FF0BC0DAFF12C0DE
:10008000F3FF13C0F4FF14C0FAFF045006C0E0FFF2
:1000900005C0D8FF1000F2CF0DF0F29EF76AB00F46
:1000A000F66E000EF7220900F5500DBEF28E12001A
:1000B000A086010020BF02003057050060AE0A0094
:1000C00050690F00C05C150040771B00200B20001A
:1000D000009F240080B92A00C0C62D00F2CF0DF089
:1000E000F29EF76AF60FF66E000EF7220900F55041
:1000F0000DBEF28E120000000E0001000F0018006D
:10010000010019002700020028004A0003004B00EC
:10011000680004006900900005009100B800060026
:10012000B900D6000700D700F9000800FA00E7037D
:100130000900F2CF0DF0F29EF76A4C0FF66E010E39
:10014000F7220900F5500DBEF28E1200F0490200B0
:10015000400D030030570500801A060060AE0A000B
:10016000B0710B0040420F0090051000C05C1500FC
:100170001020160040771B00903A1C00200B200036
:1001800070CE2000009F2400F0E8260080B92A00ED
:10019000C0C62D0000000000000000009EAAFED78F
:1001A000ABCF16F0AECF01F016A202D0AB98AB8861
:1001B00012009EAA20D0F2DF01C073F0036A7E50C5
:1001C000740FE96E000E0320EA6E73C0EFFF7E2A03
:1001D000806B7F6A7E5005080EE1036A7E50740FC3
:1001E000E96E000E0320EA6EEF6A7E6A188C9EAA02
:1001F00002D0D4DFFCD79E9A2AEF00F0C951F80F45
:1002000019E2080F1DEF01F0806A14D0080E806E0D
:1002100011D0040E806E0ED00C0E806E0BD0020E2C
:10022000806E08D00A0E806E05D0060E806E02D059
:100230000E0E806EC9C081F01200F2CF0DF0F29E5A
:10024000E824F76AF7365F0FF66E020EF7220A000F
:10025000F550FA6E0800F5500DBEF28EF96E0802E8
:100260000C02120218021E0224022A023002EA6A5A
:100270009D0EE96EEF500DE0060E016E006A002E35
:10028000FED7012EFBD77B0E006E002EFED7EF2E81
:10029000F3D7120081C082F0040EC96FAFDF00D027
:1002A00082C0C9F0ABDF120081C082F0010EC96FBD
:1002B000A5DF00D082C0C9F0A1DF1200818E00D07E
:1002C000819E1200650E816EEFDF5D0E816EECDFA8
:1002D0004C0E816EE9DF600E816EF0DF510E816E93
:1002E000EDDF4E0E816EEADFC8EF11F0E00EBC25A7
:1002F000BD6FF2CFBEF0F29EBDC0A9FFA69CA69E28
:10030000A680A850BEBFF28E016E1200D66BD651E9
:1003100003081EE3D86BD20ED76FD651D725016ED6
:10032000000ED821036E0150E96E03C0EAFFD651DA
:10033000CD25D96FF2CFDAF0F29ED9C0A9FFA69CE5
:10034000A69EA680A850DABFF28EEF6ED62BDFD71E
:10035000D251CE5D0AE1D351CF5D07E1D451D05DDA
:1003600004E1D551D15DD8B42ED0D66BD651030857
:100370002AE3D651CD25D76FD96BCE0ED86FD65183
:10038000D825016E000ED921036E0150E96E03C01D
:10039000EAFFEFCFD8F0F250006EF29ED7C0A9FF6F
:1003A000D8C0A8FFA69CA69EA6840F01550EA76ED6
:1003B000AA0EA76EA682A6B2FED7A6940050F2128D
:1003C0000001D62BD3D7F4EF01F0C751040DF3CFC2
:1003D000CCF0CCC0CDF0CBC0D1F0CAC0D0F0C9C0F9
:1003E000CFF0C8C0CEF092D71200E00EBD25C06F8E
:1003F000F2CFC1F0F29EC0C0A9FFA69CA69EA68027
:10040000A850C1BFF28EBF6FBE51BF5DD8B419D026
:10041000E00EBD25C06FF250006EF29EC0C0A9FF75
:10042000BEC0A8FFA69CA69EA6840F01550EA76E6F
:10043000AA0EA76EA682A6B2FED7A6940050F2120C
:1004400000011200030EC76FBFC0CBF0BEC0CAF0E0
:10045000BDC0C9F0BCC0C8F0B8DF12009F6B9F518F
:1004600009084AE39F51040DF350036AF2CFA0F04C
:10047000F29E11DE006E0900F5CF01F00900F5CF04
:1004800002F00900F5CF03F0A0BFF28E03509E5D8D
:1004900031E30BE102509D5D2DE307E101509C5DCE
:1004A00029E303E100509B5D25E3010E9F25040D28
:1004B000F350036AF2CFA0F0F29EEDDD006E09006A
:1004C000F5CF01F00900F5CF02F00900F5CF03F0F8
:1004D000A0BFF28E9E51035C0DE30BE19D51025CC7
:1004E00009E307E19C51015C05E303E100509B5DDA
:1004F000D8A002D09F2BB3D79FC001F027EF03F005
:100500009A6B9A5112080CE39AC0C7F0CB6B0A0E93
:10051000CA6FAE0EC96F600EC86F57DF9A2BF1D746
:10052000130E9A6F9A511D0809E39AC0C7F0CB6B5E
:10053000CA6BC96BC86B49DF9A2BF4D71E0E9A6F32
:100540009A51280828E31E0E9A5D040DF350036AA1
:10055000F2CF9BF0F29E9FDD006E0900F5CF01F017
:100560000900F5CF02F00900F5CF03F09BBFF28E32
:1005700003C09EF002C09DF001C09CF09B6F9AC02A
:10058000C7F003C0CBF002C0CAF001C0C9F0C86F09
:100590001CDF9A2BD5D7290E9A6F9A51330828E37E
:1005A000290E9A5D040DF350036AF2CF9BF0F29E80
:1005B00072DD006E0900F5CF01F00900F5CF02F001
:1005C0000900F5CF03F09BBFF28E03C09EF002C07E
:1005D0009DF001C09CF09B6F9AC0C7F003C0CBF0A8
:1005E00002C0CAF001C0C9F0C86FEFDE9A2BD5D7A0
:1005F000340E9A6F9A51350809E39AC0C7F0CB6B55
:10060000CA6BC96BC86BE1DE9A2BF4D7BD6BBE6BAE
:10061000ECDE030EBD6FBE6BE8DE040EBD6F010E97
:10062000BE6FE3DE050EBD6F0F0EBE6FDEDEBF6B6D
:100630000A0EBE6FAE0EBD6F600EBC6F03DF9E6B09
:100640000A0E9D6FAE0E9C6F600E9B6F07D701C0A8
:100650009BF0010EBD6F01C0BEF0C7DE1F0EBD6F67
:10066000010EBE6FC2DEFF00D4EF11F0BD2D03D02E
:10067000050EC96FC3DDBD5302E1C96BBFDD1200BA
:10068000C26BC25103081EE3C86BC30EC76FC251D1
:10069000C725016E000EC821036E0150E96E03C02C
:1006A000EAFFC251C125C96FF2CFCAF0F29EC9C09C
:1006B000A9FFA69CA69EA680A850CABFF28EEF6E88
:1006C000C22BDFD7C3C000F0C4C001F0C5C002F028
:1006D000C6C003F073EF03F0BF51040DF3CFC0F0B9
:1006E000C0C0C1F0CDD71200350EBF6FF5DF1200CC
:1006F000350EC76FC1C0CBF0C0C0CAF0BFC0C9F0D3
:10070000BEC0C8F062DE1200BD2D1BD0EDDF03C0FD
:10071000C1F002C0C0F001C0BFF000C0BEF0BE53C7
:1007200010E1BF530EE1C0530CE1C1530AE125C0F3
:10073000C1F024C0C0F023C0BFF022C0BEF0D8DF9B
:100740001882BD5306E1C16BC06BBF6BBE6BD0DFBF
:1007500018921200BD2D03D018B001D01880BD53DF
:1007600001E1189012009B6B9B5107083CE39B51E1
:10077000040DF350036A530FE96E000E0320EA6E76
:10078000EF509A5D2EE19B51040DF350010F036A67
:10079000530FE96E000E0320EA6EEFCF01F0179AB7
:1007A00001B0178A9B51040DF350020F036A530FD7
:1007B000E96E000E0320EA6EEFCF01F0189201B04F
:1007C00018829B51040DF350030F036A530FE96E17
:1007D000000E0320EA6EEFCF01F0189001B01880F0
:1007E00002D09B2BC1D717AA04D0010EBD6F3EDFEC
:1007F00002D0BD6B3BDF18A204D0010EBD6F84DFB9
:1008000002D0BD6B81DF18A004D0010EBD6FA2DF46
:1008100002D0BD6B9FDF050EBD6F9AC0BEF0E5DD57
:100820002EEF04F0BC6B62DD179C01B0178C030E39
:10083000BC6F5CDD01C01EF0040EBC6F57DD01C053
:100840001BF0050EBC6F52DD01C01FF0010EBC6F26
:100850004DDD01C01DF01FC09AF085D71200BC53BA
:1008600006E11E0EBD25BE6FBF6F36DF07D0BC2D63
:1008700005D0290EBD25BE6FBF6F2EDF1200040EFE
:10088000BC25BD6FBF6F28DF1200BB6B1E5221E17C
:1008900017BC0ED0BC6B1DC0BDF0E1DF03C025F05E
:1008A00002C024F001C023F000C022F0010EBB6F93
:1008B00017AC0FD0010EBC6F1DC0BDF0D0DF03C060
:1008C00025F002C024F001C023F000C022F0020E87
:1008D000BB6F1E2C12D0040EBC6F08DD01C01BF0D4
:1008E0001BC0BCF0CCDF03C025F002C024F001C067
:1008F00023F000C022F0030EBB6FBBC001F012005A
:10090000030EA05F09E3EA6AA00EE96EEF5004E06F
:1009100001D000D0EF2EFDD7F1EF04F09D530DE094
:10092000842BD8B4852B855306E18451F90803E361
:10093000000E016E60D0856B846B82B4FED782A4FA
:10094000FED79E6B9E510C0850E3036A9E51460FE2
:10095000E96E000E0320EA6EEF500F0BE8A08494BE
:10096000E8B08484036A9E51460FE96E000E0320AE
:10097000EA6ED890EF300F0BE8A08492E8B0848242
:10098000036A9E51460FE96E000E0320EA6EEF30B7
:10099000006E00323F0E001600500F0BE8A084904E
:1009A000E8B08480036A9E51460FE96E000E032072
:1009B000EA6EEF30006E003200321F0E001600505B
:1009C0000F0BE8A0809AE8B0808A8088310E006E14
:1009D000002EFED700D08098020E9F6FB80EA06F39
:1009E0008FD79F2FFBD79E2BADD7809A8490849270
:1009F0008494010E016E1200D36BD46B010ED56F7F
:100A0000DA6AD96AD86BCB0ED76FEA6ACF0EE96E75
:100A1000D8C0E2FFD7C0E1FFD5C0D6F0D890E550EE
:100A2000EE02F350D323F450D423D62FF7D7D3C0FC
:100A3000DEFFD4C0D3F0D46BD8B0D42BD72BD8B42E
:100A4000D82BD52BD5510508E0E11200A83D01D0E7
:100A500003D0A8C04AF002D00F0E4A6EA93D01D0C3
:100A600003D0A9C04BF002D00F0E4B6EAE3D01D0AB
:100A700003D0AEC052F002D00F0E526EADC0BAF02D
:100A8000ACC0B9F0ABC0B8F0AAC0B7F0BAC0BEF005
:100A9000B9C0BDF0B8C0BCF0B7C0BBF0B06BBE53BE
:100AA0000DE1BD510E0815E2FF0A08E1BC514108F5
:100AB00010E2FF0A03E1BB513F080BE2400EBB5FAF
:100AC000420EBC5B0F0EBD5B000EBE5B010EB0277D
:100AD000E6D7B16BBE530DE1BD51000815E2FF0A28
:100AE00008E1BC51850810E2FF0A03E1BB519F08F1
:100AF0000BE2A00EBB5F860EBC5B010EBD5B000E61
:100B0000BE5B010EB127E6D7B26BBE530AE1BD53FF
:100B100008E1BC5126080FE2FF0A03E1BB510F08B0
:100B20000AE2100EBB5F270EBC5B000EBD5BBE5B16
:100B3000010EB227EAD7B36BBE530AE1BD5308E1F9
:100B4000BC5102080FE2FF0A03E1BB51E7080AE2C9
:100B5000E80EBB5F030EBC5B000EBD5BBE5B010E0F
:100B6000B327EAD7B46BBE5307E1BD5305E1BC53CD
:100B700003E1BB51630809E2640EBB5F000EBC5B7E
:100B8000BD5BBE5B010EB427EED7B56BBE5307E16C
:100B9000BD5305E1BC5303E1BB51090809E20A0E4C
:100BA000BB5F000EBC5BBD5BBE5B010EB527EED725
:100BB000B66BBB5306E1BC5304E1BD5302E1BE5327
:100BC00009E0010EBB5F000EBC5BBD5BBE5B010EAE
:100BD000B627EFD7296A286A276AB0C026F02D6A9F
:100BE0002C6A2B6AB1C02AF0356A346A336AB2C003
:100BF00032F0396A386A376AB3C036F03D6A3C6A07
:100C00003B6AB4C03AF0416A406A3F6AB5C03EF000
:100C1000456A446A436AB6C042F029C0CEF028C093
:100C2000CDF027C0CCF026C0CBF0D26BD16BD06B0F
:100C30000A0ECF6FE1DE2A5000242E6E2B500120C9
:100C40002F6E2C500220306E2D500320316EAF538A
:100C5000D8A458D0AD530DE1AC510F080AE307E119
:100C6000AB51420806E303E1AA513F0802E30F0E2D
:100C7000B06FAD530DE1AC5101080AE307E1AB5190
:100C8000860806E303E1AA519F0802E30F0EB16F45
:100C9000AD530BE1AC5309E1AB51270806E303E187
:100CA000AA510F0802E30F0EB26FAD530BE1AC5324
:100CB00009E1AB51030806E303E1AA51E70802E3A7
:100CC0000F0EB36FAD5309E1AC5307E1AB5305E130
:100CD000AA51630802E30F0EB46FAD5309E1AC53A0
:100CE00007E1AB5305E1AA51090802E30F0EB56F06
:100CF000AA5308E1AB5306E1AC5304E1AD5302E162
:100D00000F0EB66FB0C04CF0B1C04DF0B2C04EF097
:100D1000B3C04FF0B4C050F0B5C051F0B4EF06F01E
:100D20009FC0A6F01E520AE19E5302E1010EA56F7C
:100D30009E2D02D00C0EA56F0F0EA76F1E2C04D097
:100D4000020EA56FA4C0A7F0A5C0A8F0A6C0A9F088
:100D5000A3C0ADF0A2C0ACF0A1C0ABF0A0C0AAF09F
:100D6000A7C0AEF0AF6B72D6120081C082F0030E46
:100D7000C96FFEEC00F000D082C0C9F0FEEC00F0BC
:100D8000B6EF07F0016A026A006A036ACA5102E11B
:100D9000C95118E0100ECB6FD890C737C83700364E
:100DA0000336CA51035C02E1C951005C07E3C95133
:100DB000005ED8A00306CA51035ED8800136023611
:100DC000CB2FEAD71200700ECC6FCB51CC25816EA1
:100DD000D0EF08F081CF83F001EF07F081C082F0FF
:100DE000020EC96FFEEC00F000D082C0C9F0FEEC2C
:100DF00000F007EF07F083C081FF836B08EF07F077
:100E0000E9D7700EC86FC751C825816EE7D7F3D7F1
:100E1000DEEF08F0C76B83A802D0080EC72783AAAD
:100E200002D0040EC72783AC02D0020EC72783AEC0
:100E300002D0010EC727C7C001F0120025520DE1F4
:100E400024502F0811E2FF0A08E12350D3080CE2D6
:100E5000FF0A03E12250000807E2256A246A030E14
:100E6000236EE80E226E11D025520FE124520DE1BF
:100E7000235003080AE303E12250E70806E3256A4A
:100E8000300E246ED40E236E226A31C0CEF030C0F4
:100E9000CDF02FC0CCF02EC0CBF0D26BD16BD06B8D
:100EA0000A0ECF6FA9DD32500024BA6F33500120F3
:100EB000BB6F9051BA5D07E19151BB5D04E1925364
:100EC00002E1935353E0BC6BBC5109084CE3BC51A5
:100ED000030DF3CF00F0D89000360050036AF2CF34
:100EE000C7F0F29E6EEC00F00900F5CF03F0C7BF2B
:100EF000F28E016E0350BB5D34E303E10150BA5D35
:100F000030E3BC51030DF350010F006ED890003652
:100F10000050036AF2CFC7F0F29E6EEC00F00900B9
:100F2000F5CF03F0C7BFF28E016EBB51035C19E32E
:100F300003E1BA51015C15E3BC51030DF350020FFC
:100F4000006ED89000360050036AF2CFC7F0F29ED0
:100F50006EEC00F00900F5CF03F0C7BFF28E1C6EF7
:100F600002D0BC2BB1D71CC081FFFFD635C0CEF05C
:100F700034C0CDF033C0CCF032C0CBF0D26BD16BEB
:100F8000D06B640ECF6F38DD03C0CAF002C0C9F069
:100F900001C0C8F000C0C7F039C0CEF038C0CDF0F5
:100FA00037C0CCF036C0CBF0D26BD16BD06B0A0E11
:100FB000CF6F22DD0050C7270150C8230250C9233C
:100FC0000350CA233A50C725BD6F3B50C821BE6F9E
:100FD000BE51000809E2FF0A03E1BD51F30804E233
:100FE000F40EBD5F010EBE5B300EBD27020EBE23A8
:100FF000BF6BC06BC16BC26B8E51BD5D03E18F5186
:10100000BE5D2CE0BEC0C0F0BE31C86FBD31C76F41
:10101000C833C733C833C733C833C7330F0EC817F5
:10102000C7510F0BC16FBD510F0BC26F806A300EDD
:10103000BF25816E54EC01F0200EC025816E54EC6A
:1010400001F0100EC125816E54EC01F0C2C081FF89
:1010500054EC01F0BEC08FF0BDC08EF0C36BC46B0A
:10106000C56BC66B9051BA5D08E19151BB5D05E15E
:10107000925303E19353D8B47BD01C50050830E35E
:10108000BBC0C8F0BAC0C7F0CA6B050EC96F7ADE24
:1010900002C0C8F001C0C7F00C0EC727000EC8235D
:1010A000C831036EC731026E03320232033202329C
:1010B0000332023202C0C5F0BBC0C8F0BAC0C7F0EC
:1010C000CA6B050EC96F5EDE02C0C8F001C0C7F072
:1010D0000C0EC727000EC823C7510F0BC66F2FD0A9
:1010E000BBC0C8F0BAC0C7F0CA6B050EC96F4ADEF4
:1010F00002C0C8F001C0C7F0120EC75F000EC85B87
:10110000C831036EC731026E03320232033202323B
:101110000332023202C0C5F0BBC0C8F0BAC0C7F08B
:10112000CA6B050EC96F2EDE02C0C8F001C0C7F041
:10113000120EC75F000EC85BC7510F0BC66F300E93
:10114000C325816E5EEC01F0200EC425816E5EEC3D
:1011500001F0100EC525816E5EEC01F0C6C081FF66
:101160005EEC01F0936B926BBBC091F0BAC090F053
:1011700094513E5C06E13F5204E1405202E141528B
:1011800011E0010E3E24C76F000E3F20C86F000E15
:101190004020C96F000E4120CA6FC7C0CBF013D6E4
:1011A0003EC094F09551425C06E1435204E1445242
:1011B00002E1455205E042C0C7F022D642C095F098
:1011C00029DE01C021F0000E016E12001EC09AF04F
:1011D000010E1E6E199419B419D0640E9D6F37EC70
:1011E00001F083B413D01B50070802E31B2A02D07E
:1011F000010E1B6E1BC0BCF03FEC04F003C025F0D9
:1012000002C024F001C023F000C022F0000E17BC81
:10121000010E9D6F9E6F1FC09FF025C0A3F024C0DC
:10122000A2F023C0A1F022C0A0F01BC0A4F078DD82
:101230009D6B8EEC04F002DE83A401D0198419A406
:1012400016D083B413D09C6B9B6B9C5107080CE3A6
:1012500003E19B51CF0808E3010E9D6F37EC01F0CD
:101260009B2BD8B49C2BF1D7199401D0198483A05F
:1012700003D083B0FED701D0AED79AC01EF0010EC6
:10128000016EEBEF11F0C0530EE11E0EC125C66FCB
:10129000C76FC5C0CBF0C4C0CAF0C3C0C9F0C2C0DC
:1012A000C8F0E5EC01F0C02D0ED0290EC125C66FA7
:1012B000C76FC5C0CBF0C4C0CAF0C3C0C9F0C2C0BC
:1012C000C8F0E5EC01F01200BB6B1E5221E117BC27
:1012D0000ED0C06B1DC0C1F025C0C5F024C0C4F045
:1012E00023C0C3F022C0C2F0CEDF010EBB6F17AC2B
:1012F0000FD0010EC06F1DC0C1F025C0C5F024C0C5
:10130000C4F023C0C3F022C0C2F0BDDF020EBB6F29
:101310001E2C12D025C0BFF024C0BEF023C0BDF0EB
:1013200022C0BCF022EC02F0040EBD6F1BC0BEF068
:10133000F5EC01F0030EBB6FBBC001F012009B6B1C
:1013400082A424D182B4FED718A47BD0808A848062
:101350008482848400D000D0000082B404D082B2A1
:1013600002D082A05FD09A51020807E186C09BF0AC
:10137000866B18949BC001F04AD19A2D1ED08953D8
:101380000AE18851630807E3882BD8B4892B0A0E39
:101390009D6F37EC01F0895303E1885163080DE23A
:1013A0001E0E86259B6F866B809A8490849284940F
:1013B000896B886B9BC001F02AD19A51030831E1F7
:1013C00089530DE1885163080AE3882BD8B4892B2F
:1013D0000A0E9D6F37EC01F0FF0E016E18D1895394
:1013E00003E1885163081DE21E0E86259B6F809ADB
:1013F000849084928494808A84808482848400D0BF
:1014000000D0000082B406D082B204D082B002D0F4
:10141000896B886B809A8490849284949BC001F03D
:10142000F6D00CD0189486C09BF0866B8490849282
:101430008494896B886B9BC001F0E9D0849084927E
:10144000849419AC53D083B204D082AA02D082BC57
:1014500043D09A51020807E187C09BF0876B199C23
:101460009BC001F0D4D09A2D18D08B518D5D07E32D
:1014700003E18C518A5D03E28A2BD8B48B2B8D510A
:101480008B5D0BE303E18C518A5D07E3050E872535
:101490009B6F198C9BC001F0BAD09A5103081BE1D5
:1014A0008B518D5D0AE303E18C518A5D06E28A2B44
:1014B000D8B48B2BFF0E016EAAD08D518B5D0BE340
:1014C00003E18C518A5D07E3050E87259B6F198C1C
:1014D0009BC001F09CD009D0199C8B6B8A6B87C094
:1014E0009BF0876B9BC001F092D002D08B6B8A6B14
:1014F00018B44CD084928494809A848000D000D018
:10150000000082A403D01884010E866F82A203D04B
:101510001884020E866F82A003D01884030E866F93
:101520008490848200D000D0000082A403D018846C
:10153000040E866F82A203D01884050E866F82A0E7
:1015400003D01884060E866F8492848400D000D065
:10155000000082A403D01884070E866F82A203D0F5
:101560001884080E866F82A003D01884090E866F37
:101570008494808A00D000D0000082A203D0188416
:101580000A0E866F849484928490809A83B208D0E5
:1015900082BA06D0198C0B0E876F8D6B190E8C6F6B
:1015A00083B208D082BC06D0198C0C0E876F8D6B6D
:1015B000190E8C6F83A20AD082AA08D082AC06D002
:1015C000198C0D0E876F8D6B640E8C6F83A208D003
:1015D00082BA06D0198C0E0E876F8D6B190E8C6F28
:1015E00083A208D082BC06D0198C0F0E876F8D6B3A
:1015F000190E8C6F83A009D04AEC01F083B0FED79E
:1016000018AA02D0189A01D0188A000E016E11EFA4
:1016100012F00F0EBB6FBC6BBC51070841E3000E0C
:1016200017BA010EBD6FBC51040DF350010F036AD0
:10163000530FE96E000E0320EA6EEF50BD5D2EE100
:10164000000E18B2010EBD6FBC51040DF350020F15
:10165000036A530FE96E000E0320EA6EEF50BD5D82
:101660001DE1000E18B0010EBD6FBC51040DF3500A
:10167000030F036A530FE96E000E0320EA6EEF506A
:10168000BD5D0CE1BC51040DF350036A530FE96ECC
:10169000000E0320EA6EEFCFBBF002D0BC2BBCD70C
:1016A00017AA05D0010EBD6F36EC03F003D0BD6B59
:1016B00036EC03F018A205D0010EBD6F84EC03F0E8
:1016C00003D0BD6B84EC03F018A005D0010EBD6FF4
:1016D000AAEC03F003D0BD6BAAEC03F0050EBD6FBE
:1016E000BBC0BEF0F5EC01F0BBC001F0120018A2C7
:1016F00002D0189202D0189018828BDF01C01FF020
:1017000005EF0EF01E524AE182A61BD025520AE1D7
:10171000245208E1235002080DE2FF0A03E122509F
:10172000E80808E2500E225EC30E235A000E245A27
:10173000255A06D0256A300E246ED40E236E226AF6
:101740002DD0000E17BC010EBB6FC06F1DC0C1F0C5
:1017500025C0C5F024C0C4F023C0C3F022C0C2F02D
:1017600092DD1D5203E1090E1D6E01D01D06010E12
:10177000BD6F1DC0BEF0F5EC01F0000E17BC010EF0
:10178000BB6FBC6F1DC0BDF02FEC04F003C025F093
:1017900002C024F001C023F000C022F01E2C13D0A0
:1017A0001B50010802E21B0602D0080E1B6E1BC074
:1017B000BCF03FEC04F003C025F002C024F001C0EF
:1017C00023F000C022F005EF0EF01E5247E182A682
:1017D00018D025520FE1245030080CE303E12350C8
:1017E000D30808E3500E2226C30E2322000E242223
:1017F000252206D0256A246A030E236EE80E226E87
:101800002DD0000E17BC010EBB6FC06F1DC0C1F004
:1018100025C0C5F024C0C4F023C0C3F022C0C2F06C
:1018200032DD1D50090802E11D6A01D01D2A010E9A
:10183000BD6F1DC0BEF0F5EC01F0000E17BC010E2F
:10184000BB6FBC6F1DC0BDF02FEC04F003C025F0D2
:1018500002C024F001C023F000C022F01E2C13D0DF
:101860001B50070802E31B2A02D0010E1B6E1BC08F
:10187000BCF03FEC04F003C025F002C024F001C02E
:1018800023F000C022F005EF0EF0030EBF6F6CECEA
:1018900003F0120019DD1E5003E0010A1FE038D0EA
:1018A000000E17BC010EBB6F1BC0BCF03FEC04F078
:1018B00003C0BFF002C0BEF001C0BDF000C0BCF06C
:1018C000BBC0C0F01DC0C1F003C0C5F002C0C4F071
:1018D00001C0C3F000C0C2F0D6DC1AD0000E17BCA5
:1018E000010EBB6FD2DF03C0BFF002C0BEF001C06B
:1018F000BDF000C0BCF0BBC0C0F01DC0C1F003C053
:10190000C5F002C0C4F001C0C3F000C0C2F0BBDC2F
:1019100045EC04F005EF0EF0D7DC000E17BC010E0D
:10192000000A03E0010A03E003D0178C01D0179CE2
:10193000000E17BC010EBB6FBD6BBE6FF5EC01F066
:1019400045EC04F005EF0EF017AA02D0179A01D06B
:10195000178A5FDE01C01FF005EF0EF0040EBF25F1
:10196000C46FC76FC3C0CBF0C2C0CAF0C1C0C9F05A
:10197000C0C0C8F0E5EC01F01200A6DC1E5003E088
:10198000010A1EE031D0000E17BC010EBB6FBC6F08
:101990001DC0BDF02FEC04F003C0BEF002C0BDF0CE
:1019A00001C0BCF000C0BBF01BC0BFF003C0C3F05F
:1019B00002C0C2F001C0C1F000C0C0F0CFDF14D03F
:1019C00064DF03C0BEF002C0BDF001C0BCF000C0C7
:1019D000BBF01BC0BFF003C0C3F002C0C2F001C027
:1019E000C1F000C0C0F0BADF45EC04F005EF0EF026
:1019F0006BDC1E5003E0010A04E004D0010E1E6EF1
:101A000001D01E6A030EBD6F1EC0BEF0F5EC01F0E2
:101A100045EC04F005EF0EF018A002D0189002D0AB
:101A200018921880F6DD01C01FF005EF0EF0020ECF
:101A3000C76FC2C0CBF0C1C0CAF0C0C0C9F0BFC040
:101A4000C8F0E5EC01F046EF0DF0020EBF6F6CEC54
:101A500003F065EF0DF038DC000E17BC010EBB6F14
:101A6000BC6F1DC0BDF02FEC04F003C0BEF002C07F
:101A7000BDF001C0BCF000C0BBF003C0C2F002C0AA
:101A8000C1F001C0C0F000C0BFF0D1D7000E17BC3C
:101A9000010EBB6F1BC0BCF03FEC04F003C0BFF0F5
:101AA00002C0BEF001C0BDF000C0BCF0BBC0C0F0C1
:101AB0001DC0C1F003C0C5F002C0C4F001C0C3F036
:101AC00000C0C2F043EC09F0C0D703C0BEF002C0B2
:101AD000BDF001C0BCF000C0BBF01BC0BFF003C034
:101AE000C3F002C0C2F001C0C1F000C0C0F036DFD8
:101AF00045EC04F005EF0EF00A0E2226000E23221C
:101B00002422252205EF0EF00A0E225E000E235A33
:101B1000245A255A05EF0EF0560E2226040E2322D3
:101B2000000E2422252205EF0EF0560E225E040E32
:101B3000235A000E245A255A05EF0EF00A0E2226CB
:101B4000000E23222422252205EF0EF00A0E225E2B
:101B5000000E235A245A255A05EF0EF005EF0EF019
:101B6000560E2226040E2322000E2422252205EFE3
:101B70000EF0560E225E040E235A000E245A255AE9
:101B800005EF0EF0010EBA5DEC0F3FE2140F08EF07
:101B90000EF04AEC01F0ABD538D04AEC01F0B2D5EA
:101BA00034D04AEC01F011D630D04AEC01F072D6B4
:101BB0002CD04AEC01F0B0D628D04AEC01F0C4D6C3
:101BC00024D04AEC01F0D9D620D04AEC01F010D74D
:101BD0001CD04AEC01F020D718D04AEC01F03BD7DA
:101BE00014D08AD712D090D710D002EF00F00DD0C9
:101BF00093D70BD09AD709D0A1D707D0A7D705D0B4
:101C0000ADD703D0ADD701D0B4D7BAC001F0120020
:101C1000F2CF0DF0F29EE824F76AF736350FF66E34
:101C20001C0EF7220A00F550FA6E0800F5500DBEA2
:101C3000F28EF96E921B9A1BA21BAA1BB21BBA1B37
:101C4000C21BCA1BD21BDA1BE21BE61BEA1BF01BE2
:101C5000F41BF81BFC1B001C041C081C7738006ECE
:101C60000F0E001600500F0B9A6F9B6B9C6B9D6BB9
:101C700077500F0B9E6F9F6BA06BA16B7638006E39
:101C80000F0E001600500F0BA26FA36BA46BA56B79
:101C900076500F0BA66FA76BA86BA96B7538006EFB
:101CA0000F0E001600500F0BAA6FAB6BAC6BAD6B39
:101CB00075500F0BAE6FAF6BB06BB16B7438006EBD
:101CC0000F0E001600500F0BB26FB36BB46BB56BF9
:101CD00074500F0BB66FB76BB86BB96B7850010AC5
:101CE0001CE0030A1EE0010A20E0070A22E0010AC4
:101CF00024E0030A26E0010A28E00F0A2AE0010A8C
:101D00002CE0030A2EE0010AD8B4C8D0040AD8B4E3
:101D1000C9D0F00AD8B465D165D1090EBA6F32DFE7
:101D200061D1080EBA6F2EDF5DD1070EBA6F2ADFC0
:101D300059D1060EBA6F26DF55D1050EBA6F22DFD4
:101D400051D1040EBA6F1EDF4DD1030EBA6F1ADFE8
:101D500049D1020EBA6F16DF45D1010EBA6F12DFFC
:101D600041D1A1C0CEF0A0C0CDF09FC0CCF09EC0AC
:101D7000CBF0D26B0F0ED16F420ED06F400ECF6FF3
:101D8000FCEC04F003C0BDF002C0BCF001C0BBF02D
:101D900000C0BAF0A5C0CEF0A4C0CDF0A3C0CCF076
:101DA000A2C0CBF0D26B010ED16F860ED06FA00E09
:101DB000CF6FFCEC04F00050BA270150BB23025057
:101DC000BC230350BD23A9C0CEF0A8C0CDF0A7C04E
:101DD000CCF0A6C0CBF0D26BD16B270ED06F100E1B
:101DE000CF6FFCEC04F00050BA270150BB23025027
:101DF000BC230350BD23ADC0CEF0ACC0CDF0ABC012
:101E0000CCF0AAC0CBF0D26BD16B030ED06FE80E32
:101E1000CF6FFCEC04F00050BA270150BB230250F6
:101E2000BC230350BD23B1C0CEF0B0C0CDF0AFC0D5
:101E3000CCF0AEC0CBF0D26BD16BD06B640ECF6F59
:101E4000FCEC04F00050BA270150BB230250BC2325
:101E50000350BD23B5C0CEF0B4C0CDF0B3C0CCF0BC
:101E6000B2C0CBF0D26BD16BD06B0A0ECF6FFCEC53
:101E700004F00050BA270150BB230250BC2303508A
:101E8000BD23B651BA25226EB751BB21236EB8517E
:101E9000BC21246EB951BD21256EA4D00B0EBA6FA2
:101EA00071DEA0D0B5C0CEF0B4C0CDF0B3C0CCF0E0
:101EB000B2C0CBF0D26B0F0ED16F420ED06F400E7E
:101EC000CF6FFCEC04F003C0BDF002C0BCF001C059
:101ED000BBF000C0BAF0B9C0CEF0B8C0CDF0B7C00A
:101EE000CCF0B6C0CBF0D26B010ED16F860ED06FA6
:101EF000A00ECF6FFCEC04F00050BA270150BB23BA
:101F00000250BC230350BD23ADC0CEF0ACC0CDF019
:101F1000ABC0CCF0AAC0CBF0D26BD16B270ED06F88
:101F2000100ECF6FFCEC04F00050BA270150BB2319
:101F30000250BC230350BD23B1C0CEF0B0C0CDF0E1
:101F4000AFC0CCF0AEC0CBF0D26BD16B030ED06F74
:101F5000E80ECF6FFCEC04F00050BA270150BB2311
:101F60000250BC230350BD23A5C0CEF0A4C0CDF0C9
:101F7000A3C0CCF0A2C0CBF0D26BD16BD06B640EFF
:101F8000CF6FFCEC04F00050BA270150BB23025085
:101F9000BC230350BD23A9C0CEF0A8C0CDF0A7C07C
:101FA000CCF0A6C0CBF0D26BD16BD06B0A0ECF6F4A
:101FB000FCEC04F00050BA270150BB230250BC23B4
:101FC0000350BD239A51BA25226E9B51BB21236E2B
:101FD0009C51BC21246E9D51BD21256E1EEC07F045
:101FE00001D0FF00189C010E016E24EF12F0215069
:101FF000205C03E0010E016E02D0000E016E2DEF99
:1020000012F0340EC76F9DC0CBF09CC0CAF09BC0CD
:10201000C9F09AC0C8F0E5EC01F087EF10F0340E7B
:10202000BF6F6CEC03F0A3EF10F018A061D083A693
:1020300030D019B82DD0000E17BC010E9A6FC06FAA
:102040001DC0C1F025C0C5F024C0C4F023C0C3F03A
:1020500022C0C2F043EC09F017BC02D0178C03D0A9
:1020600017AC01D0179C000E17BC010E9A6FBC6F05
:102070001DC0BDF02FEC04F003C025F002C024F019
:1020800001C023F000C022F01988010E016E66D055
:102090002FD019A82DD0000E17BC010E9A6FC06F5B
:1020A0001DC0C1F025C0C5F024C0C4F023C0C3F0DA
:1020B00022C0C2F043EC09F017BC02D0178C03D049
:1020C00017AC01D0179C000E17BC010E9A6FBC6FA5
:1020D0001DC0BDF02FEC04F003C025F002C024F0B9
:1020E00001C023F000C022F01998010E016E36D015
:1020F00018A234D083A61AD019BA17D025C09DF0E3
:1021000024C09CF023C09BF022C09AF07AD774ECD4
:1021100003F003C025F002C024F001C023F000C08A
:1021200022F0198A010E016E19D018D019AA16D002
:1021300025C0C1F024C0C0F023C0BFF022C0BEF053
:1021400078EC03F06CD703C025F002C024F001C086
:1021500023F000C022F0199A010E016E43EF12F035
:10216000A02D04D0060EC96FFEEC00F0A05303E1D1
:10217000C96BFEEC00F012009E6B17B86AD083A604
:1021800062D019B65FD09F6B9F51090850E3D89079
:102190009F35040DF350036AF2CFA0F0F29E99EC44
:1021A00000F0006E0900F5CF01F00900F5CF02F054
:1021B0000900F5CF03F0A0BFF28E03509D5D35E31B
:1021C0000BE102509C5D31E307E101509B5D2DE383
:1021D00003E100509A5D29E3D8909F35010F040D6B
:1021E000F350036AF2CFA0F0F29E99EC00F0006E7B
:1021F0000900F5CF01F00900F5CF02F00900F5CF95
:1022000003F0A0BFF28E9D51035C0FE30BE19C51E4
:10221000025C0BE307E19B51015C07E303E19A5188
:10222000005C03E3010E9E6F02D09F2BADD79E533F
:1022300008E14AEC01F083A604D0010EA06F90DF04
:10224000FAD7198605D019A603D0A06B89DF199695
:1022500002D0010E9E6F9EC001F069EF12F0F86A85
:10226000D09E078E166A400EAF6EA20EAC6E900E18
:10227000AB6E256A246A236A226A7E6A806B7F6A53
:10228000836B856B846B866B876B896B886B8B6BC1
:102290008A6BC180C182C184C19617D00200460AF0
:1022A000000CC00F1F800000000E0001010C000098
:1022B000010401010103010100020001000101000C
:1022C00000000100010A408C0000000EF86E220E92
:1022D000F76E9C0EF66E0900F550006E000A13E0D2
:1022E0000900F550016EE8BE05D00F0BEA6E09003B
:1022F000F5CFE9FF01BC090001AC0900F5CFEEFF05
:10230000004EE9D7F9D7F86AC290010E926E000E1E
:10231000936EFF0E946E956E969096929694C96BFE
:10232000FEEC00F0C80E9D6F37EC01F0808A00D003
:1023300000D0000082A002D0179801D01788809AA0
:10234000848200D000D0000082A21FD0F250006E24
:10235000F29EA968A868A69CA69EA6840F01550EA9
:10236000A76EAA0EA76EA682A6B2FED7A6940050AC
:10237000F21200014AEC01F0040E9A6FFA0E9D6F02
:1023800037EC01F09A2FFAD7FF00849262EF01F048
:102390009D8AC00EF2121F0EBC6F76EC01F0012C6C
:1023A00001D005D080EF02F012EC04F002D012EC64
:1023B00004F045EC04F09D6B8EEC04F0976B966B8B
:1023C000010E986F99911998199A83A006D083B03D
:1023D000FED7E6EF08F001C098F097514E0807E3EA
:1023E00003E196511F0803E3962BD8B4972B0AEC10
:1023F00007F001C020F09651200805E197514E08E2
:10240000D8B464EC09F09751020819E2FF0A03E11D
:102410009651E70814E2985312E1010E9A6F9FEF6C
:1024200009F001C098F098530AE098C0BAF0C2ECE5
:102430000DF001C098F0030E976FE80E966F985359
:1024400009E118AC07D00AD401C098F0030E976FC9
:10245000E80E966F985316E1CAD5015213E082A890
:1024600007D0020E2226000E23222422252206D087
:10247000020E225E000E235A245A255A010E986F2E
:10248000976B966BD2D5999101B09981985302E1DF
:1024900099A116D0000E17BC010E9A6F9E6F1FC037
:1024A0009FF025C0A3F024C0A2F023C0A1F022C059
:1024B000A0F01BC0A4F090EC06F01EEC07F0986BA7
:1024C00025C09DF024C09CF023C09BF022C09AF050
:0E24D00053D6010E9D6F8EEC04F077D70300FB
:020000040030CA
:0E00000000220A0E000181000FC00FE00F4029
:00000001FF
;PIC18F452
;CRC=A6E6  CREATED="29-Apr-25 13:17"
