:1000000018308A00CF280000FF00030E8301A100F2
:100010000A08A0008A010408A2007708A300780853
:10002000A4007908A5007A08A600831383128C30F7
:100030008400801E1D288C1A2E2822088400230884
:10004000F7002408F8002508F9002608FA0020081F
:100050008A00210E8300FF0E7F0E09008A110A120A
:1000600000290A108A100A118207A034863401344C
:1000700000342034BF340234003430345734053473
:1000800000346034AE340A340034503469340F34F0
:100090000034C0345C3415340034403477341B34BD
:1000A000003420340B342034003400349F342434A2
:1000B00000348034B9342A340034C034C6342D348A
:1000C00000340A108A100A118207003400340E34FA
:1000D0000034013400340F34003418340034013457
:1000E0000034193400342734003402340034283406
:1000F00000344A340034033400344B340034683460
:10010000003404340034693400349034003405344D
:10011000003491340034B834003406340034B93437
:100120000034D634003407340034D7340034F93482
:10013000003408340034FA340034E734033409342A
:1001400000340A108A100A118207F034493402344C
:10015000003440340D340334003430345734053423
:10016000003480341A34063400346034AE340A3437
:100170000034B03471340B340034403442340F3422
:1001800000349034053410340034C0345C341534F9
:1001900000341034203416340034403477341B34A7
:1001A000003490343A341C34003420340B3420347E
:1001B00000347034CE342034003400349F3424347E
:1001C0000034F034E834263400348034B9342A342E
:1001D0000034C034C6342D340034003400340034CC
:1001E000003400340034003400348C1EF528180824
:1001F000A7001A08F800A71CFF28181218160800F4
:100200008C1E1D29F5207808E40065306F078400F6
:10021000831364088000EF0AF101F0016F08053CC8
:10022000031D1D2965306F07840083138001EF01D2
:1002300029178C1E1D29F52019298C128A110A12E2
:100240001D2803172308F83E03184929083E031305
:100250004D298501031749290830850003174929CD
:1002600004308500031749290C30850003174929FC
:1002700002308500031749290A30850003174929F0
:1002800006308500031749290E30850003174929D8
:1002900003172308F200031308000A148A100A1136
:1002A000820729292C293029342938293C29402939
:1002B0004429D43084008313000803196C290630C4
:1002C000F800F701F70B6229F80B61297B30F70082
:1002D000F70B6829800B5F2908007208F3000430CF
:1002E0000317A30003132121752973080317A30023
:1002F0000313212108007208F30001300317A30043
:1003000003132121832973080317A3000313212159
:10031000080086178B2986130800653086007B212C
:100320005D3086007B214C3086007B21603086006A
:1003300089215130860089214E30860089218A1515
:100340000A169A29E03003171607970017088D0040
:1003500083168C130C1483120C08F8000313080086
:100360000317210DA600A60DFC30A6052608A70040
:100370002508AB002408AA002308A9002208A80029
:10038000B0013008033C031CE2290130B2002C30DC
:10039000B10030083107F8003208FA000318FA0AF1
:1003A0007808840083137A18831730082707B3006E
:1003B00033088D0083168C130C1483120C088000F4
:1003C000B00AC1292C082802031DF2292D08290290
:1003D000031DF2292E082A02031DF2292F082B02E1
:1003E0000319272AB0013008033C031C272A3008D0
:1003F0002707B1000130B3002830B20030083207BF
:10040000F8003308FA000318FA0A78088400831306
:100410007A1883170008B20003130B08F7008B1338
:10042000031731088D0032088C0083168C130C15CD
:1004300055308D00AA308D008C148C181D2A0C119B
:100440007708831203138B040317B00AF3290313ED
:100450000800E030031717079A001A088D0083166A
:100460008C130C1483120C08990018081902031934
:10047000552AE03017079A0003130B08F7008B1377
:1004800003171A088D0018088C0083168C130C159E
:1004900055308D00AA308D008C148C184D2A0C110B
:1004A0007708831203138B04031703130800033028
:1004B0000317A1001908A5001808A4001708A30035
:1004C0001608A2000313B02108008316D1015108B9
:1004D000123C031C7B2A510883120317A100A501BB
:1004E0000A30A400AE30A3006030A2000313B02194
:1004F0008316D10A672A1330D10051081D3C031C12
:100500008E2A510883120317A100A501A401A3019B
:10051000A2010313B0218316D10A7D2A1E30D10017
:100520005108283C031CDE2A1E305102F700F70D4B
:10053000F70DFC30F7057708D2000330D2075208D8
:1005400083123120FA008316D2035208831231201D
:10055000F9008316D203520883123120F800831663
:10056000520383123120F7007A088316D5007908E8
:10057000D4007808D3007708D200510883120317FB
:10058000A10083160313550883120317A5008316D1
:100590000313540883120317A4008316031353088C
:1005A00083120317A3008316031352088312031741
:1005B000A2000313B0218316D10A902A2930D1005A
:1005C0005108333C031C2E2B29305102F700F70D44
:1005D000F70DFC30F7057708D2000330D207520838
:1005E00083123120FA008316D2035208831231207D
:1005F000F9008316D203520883123120F8008316C3
:10060000520383123120F7007A088316D500790847
:10061000D4007808D3007708D2005108831203175A
:10062000A10083160313550883120317A500831630
:100630000313540883120317A400831603135308EB
:1006400083120317A30083160313520883120317A0
:10065000A2000313B0218316D10AE02A3430D1005E
:100660005108353C031C412B510883120317A1008C
:10067000A501A401A301A2010313B0218316D10A8D
:10068000302B83120317970198010313292203309B
:1006900003179700980103132922043003179700CA
:1006A00001309800031329220530031797000F30FB
:1006B000980003132922031799010A309800AE30DD
:1006C000970060309600031357228316D5010A3035
:1006D000D400AE30D3006030D200D6015608093CB9
:1006E000031CE02B560DF700F70DFC30F7057708DB
:1006F000D7000330D707570883123120FA0083163A
:10070000D703570883123120F9008316D7035708FF
:1007100083123120F8008316570383123120F7002B
:100720007A0883165502031CDE2B031DA72B7908BC
:100730005402031CDE2B031DA72B78085302031C55
:10074000DE2B031DA72B77085202031CDE2B013082
:100750005607F700F70DF70DFC30F7057708D700BF
:100760000330D707570883123120FA008316D703C6
:10077000570883123120F9008316D70357088312D4
:100780003120F8008316570383123120F7008316B7
:1007900055087A02031CDE2B031DDD2B5408790259
:1007A000031CDE2B031DDD2B53087802031CDE2BFC
:1007B000031DDD2B77085202031CE02BD60A6E2B9B
:1007C0005608F8007808D20001308312031797000A
:1007D0008316031352088312031798000313292268
:1007E0001F300317970001309800031329228A0154
:1007F00000288A150A16B0290317170B042C053098
:10080000A3000313212103179708031D0B2CA30139
:10081000031321210317031308000317190D9A006E
:100820009A0DFC309A051A089B009C011C08033C99
:10083000031C372C0130A2001D30A1001C08210729
:10084000F8002208FA000318FA0A780884008313D3
:100850007A1883171C081B07A30023088D00831632
:100860008C130C1483120C0880009C0A162C1D0893
:10087000F7001E08F8001F08F9002008FA0003130B
:10088000080035300317990003130D240800353094
:100890000317A1001B08A5001A08A4001908A3004B
:1008A0001808A2000313B02108000317170B832CAC
:1008B000031341247A0803179B0079089A007808EB
:1008C0009900770898009808031D832C9908031D48
:1008D000832C9A08031D832C9B08031D832C031370
:1008E000360803179B000313350803179A000313F8
:1008F00034080317990003133308031798000313F0
:100900004724A91403179708031D8E2C9B019A01F5
:100910009901980103134724A91003170313080032
:100920000317170B972C0313291C29140317970877
:10093000031D9D2C0313291003170313080003172D
:1009400096010313A22128137818281703300317E0
:1009500096000313A2217808AF0004300317960015
:100960000313A2217808AC00053003179600031387
:10097000A2217808B0000130031796000313A221CA
:100980007808AE0030088316D100D2015208073C27
:10099000031C0D2D520DF700F70DFC30F7057708FD
:1009A000A03E8400831300085102031D0B2D520D3D
:1009B000F700F70DFC30F7057708013EA03E8400F4
:1009C00083130008F8008312A8127818A81683165B
:1009D000520DF700F70DFC30F7057708023EA03EF8
:1009E000840083130008F8008312A9107818A91452
:1009F0008316520DF700F70DFC30F7057708033E1C
:100A0000A03E840083130008F80083122910781890
:100A1000291483160D2DD20AC62C8312A81E162D5A
:100A20000130031797000313FC231A2D03179701B6
:100A30000313FC23A91C222D013003179700031375
:100A40005524262D0317970103135524291C2E2DF9
:100A500001300317970003139024322D03179701D9
:100A600003139024053003179700831603135108CE
:100A7000831203179800031329220800031796080E
:100A8000031D4A2D1E3017079800990003130D24EB
:100A9000552D0317160B542D293017079800990070
:100AA00003130D24552D03170313080004300317F7
:100AB00016079700990003130D24080003179501EA
:100AC0000313AF08031D912D281B7A2D03179601E0
:100AD00003132E080317970003133E257A08B60068
:100AE0007908B5007808B4007708B300013003171F
:100AF00095000313281F912D01300317960003134F
:100B00002E080317970003133E257A08B6007908CC
:100B1000B5007808B4007708B300023003179500D9
:100B200003132F0BAA2D0430031796000313A221E1
:100B30007808AC0003179600031356257A08B60010
:100B40007908B5007808B4007708B30003300317BC
:100B50009500031303171508F80003130800831604
:100B6000D4080319C22DF50A0319F60AF608031D65
:100B7000C02D7508F93C031CC02D0030F800442E30
:100B8000F601F50183120719C32D071DC52D831624
:100B9000D50155080C3C031C3C2E573055078400EA
:100BA000831300080F39F8007818D92D8312091122
:100BB0008316781CDE2D83120915831657305507CE
:100BC000840083130310000C0F39F8007818EB2D04
:100BD000831289108316781CF02D831289148316D2
:100BE0005730550784008313000CF700F70C3F3093
:100BF000F70577080F39F8007818012E83120910CD
:100C00008316781C062E8312091483165730550755
:100C100084008313000CF700F70CF70C1F30F70566
:100C200077080F39F8007818182E8312851283166A
:100C3000781C1D2E831285168316831205163130FB
:100C4000F700F70B212E242E051202308316D60052
:100C5000B830D7000330D702031C382ED7308400B9
:100C6000831300080319382E362E362E800B352EAE
:100C7000D60B282ED50AC92D83128512091089108A
:100C800009110130F8008316831208002030031781
:100C9000B100AD01AE01AF01B0012808FA0027088C
:100CA000F9002608F8002508F7000310771C662EC7
:100CB0002908AD072A0803182A0FAE072B080318C6
:100CC0002B0FAF072C0803182C0FB007B00CAF0C7C
:100CD000AE0CAD0CFA0CF90CF80CF70CB10B552E50
:100CE00003130800F701F801031721080310221865
:100CF000F707F70CF80CA218F707F70CF80C2219F5
:100D0000F707F70CF80CA219F707F70CF80C221AE2
:100D1000F707F70CF80CA21AF707F70CF80C221BD0
:100D2000F707F70CF80CA21BF707F70CF80C0313E6
:100D30000800F801F901F701FA0103172408031D5F
:100D4000A42E23080319BE2E1030A5000310A10DF8
:100D5000A20DF70DFA0D24087A02031DB12E230807
:100D60007702031CBA2E2308F702031CFA03240897
:100D7000FA020314F80DF90DA50BA62E03130800B3
:100D80000317A1010313081EC92E08300317A1077A
:100D90000313881ECF2E04300317A1070313081F67
:100DA000D52E02300317A1070313881FDB2E013055
:100DB0000317A107031303172108F8000313080002
:100DC0002F088316D10001308312AF002A112A198F
:100DD000052F64308316D400831259210819052F7A
:100DE0002C08073C031CF62EAC0AF82E0130AC0090
:100DF0002C0803179600031356257A08B6007908C5
:100E0000B5007808B4007708B3000030281B013023
:100E10008316D400D500831230088316D6008312BF
:100E200036088316DA00831235088316D900831238
:100E300034088316D800831233088316D700831230
:100E40002C088316DB008A15831200208A11831672
:100E5000D4018312AF258A159D228A1108192A15FB
:100E60002A1D4E2F08194D2F8316D301D201530886
:100E7000073C031C4A2F031D412F5208CF3C031C83
:100E80004A2F0130D400831259218316D20A031944
:100E9000D30A372F83122A114E2F2A15081C532FDD
:100EA0000818502F542FE72E831651088312AF00D5
:100EB0000130F8008A150A16DA2903179A08031D6B
:100EC000702F1E301B07A000A1001F08A5001E08E0
:100ED000A4001D08A3001C08A2000313B0210317DF
:100EE0001A0B812F29301B07A000A1001F08A500A5
:100EF0001E08A4001D08A3001C08A2000313B021B3
:100F0000031703130800031795010313AF08031D0C
:100F1000C62F281BA72F03179A0103132E080317A8
:100F20009B000313360803179F00031335080317AC
:100F30009E000313340803179D000313330803179F
:100F40009C0003135D270130031795000313281F2E
:100F5000C62F013003179A0003132E0803179B00B6
:100F60000313360803179F000313350803179E0069
:100F70000313340803179D000313330803179C0061
:100F800003135D2702300317950003132F0BE62F81
:100F90003608031799000313350803179800031345
:100FA000340803179700031333080317960003133D
:100FB000572204300317970003132C0803179800D7
:100FC0000313292203300317950003130317150891
:100FD000F8000313080003300317990003130D24CE
:100FE0000800320831020319F82F0130F800FA2FF7
:0A0FF0000030F8008A150A16482A9E
:1010000083165608DD008312AF08031D14288316CB
:10101000D508031D0D280130DC00550B11280C30BC
:10102000DC000F30DE0083122F0B1C2802308316E9
:10103000DC005B08DE00831283165C08DF005D08BD
:10104000E0005A08E4005908E3005808E200570895
:10105000E1005E08E500E6015F0F2F2834285F08F5
:101060008312DB00372883160F308312DB008316D0
:10107000600F3B28402860088312DC004328831659
:101080000F308312DC008316650F47284C28650853
:101090008312E3004F2883160F308312E300831678
:1010A00064088312031793008316031363088312E3
:1010B000031792008316031362088312031791002B
:1010C0008316031361088312031790001308970017
:1010D0001208960011089500100894008316031357
:1010E000E701831203179708031D882816080E3C92
:1010F00003189D28FF3A031D88281508413C031852
:101100009D28FF3A031D882814083F3C03189D289A
:10111000403094024230031C433095020F30031CD0
:10112000103096020030031C013097020130831604
:101130000313E70771288312031783160313E801CB
:10114000831203179708031DB7281608003C0318DD
:10115000CC28FF3A031DB7281508853C0318CC2876
:10116000FF3A031DB72814089F3C0318CC28A03071
:1011700094028630031C873095020130031C023034
:1011800096020030031C01309702013083160313CE
:10119000E807A0288312031783160313E9018312BB
:1011A00003179708031DE2289608031DE228150877
:1011B000263C0318F728FF3A031DE22814080F3CC9
:1011C0000318F728103094022730031C28309502AA
:1011D0000030031C013096020030031C01309702DE
:1011E000013083160313E907CF28831203178316F0
:1011F0000313EA01831203179708031D0D299608AC
:10120000031D0D291508023C03182229FF3A031D6E
:101210000D291408E73C03182229E8309402033012
:10122000031C043095020030031C0130960200308C
:10123000031C01309702013083160313EA07FA28D2
:101240008312031783160313EB0183120317970806
:10125000031D34299608031D34299508031D3429DC
:101260001408633C03184929643094020030031CBD
:10127000013095020030031C013096020030031C3F
:1012800001309702013083160313EB0725298312DF
:10129000031783160313EC01831203179708031D2A
:1012A0005B299608031D5B299508031D5B2914081B
:1012B000093C031870290A3094020030031C0130E5
:1012C00095020030031C013096020030031C0130EF
:1012D0009702013083160313EC074C29831203177E
:1012E00083160313ED01831203179408031D81294C
:1012F0009508031D81299608031D81299708031964
:101300009629013094020030031C01309502003010
:10131000031C013096020030031C0130970201309B
:1013200083160313ED077329831203170313BA01FE
:10133000B901B801831667088312B700BE01BD0169
:10134000BC01831668088312BB00C601C501C40135
:10135000831669088312C300CA01C901C801831634
:101360006A088312C700CE01CD01CC0183166B0839
:101370008312CB00D201D101D00183166C088312F5
:10138000CF00D601D501D40183166D088312D30096
:101390003A080317A800031339080317A70003131B
:1013A00038080317A600031337080317A500AC017C
:1013B000AB01AA010A30A9008A11031346268A1537
:1013C0007A0803179300790892007808910077084B
:1013D000900003133B08031710070313BF00031704
:1013E00011080313C0003C0803183C0FC007031783
:1013F00012080313C1003D0803183D0FC10703176E
:1014000013080313C2003E0803183E0FC2078316D9
:10141000E608031D852AE408031D202A63080F3C03
:10142000031C202A031D1E2A6208423C031C202A9A
:10143000031D1E2A61083F3C031C202A0F30E700D1
:10144000E408031D352A6308013C031C352A031DEB
:10145000332A6208863C031C352A031D332A61089F
:101460009F3C031C352A0F30E800E408031D472A7F
:10147000E308031D472A6208273C031C472A031D73
:10148000452A61080F3C031C472A0F30E900E40895
:10149000031D592AE308031D592A6208033C031C53
:1014A000592A031D572A6108E73C031C592A0F30AB
:1014B000EA00E408031D682AE308031D682AE2081D
:1014C000031D682A6108633C031C682A0F30EB0087
:1014D000E408031D772AE308031D772AE208031DA9
:1014E000772A6108093C031C772A0F30EC00E108D9
:1014F000031D852AE208031D852AE308031D852AAA
:10150000E408031D852A0F30ED0067088312DD0013
:10151000831668088312DE00831669088312DF00D1
:1015200083166A088312E00083166B088312E100B9
:1015300083166C088312E2000800B608031DB22A65
:1015400035082F3C0318B92AFF3A031DB22A340884
:10155000D33C0318B92AFF3A031DB22A3308003CD2
:101560000318B92AB601B5010330B400E830B3005E
:10157000CF2AB608031DCF2AB508031DCF2A340889
:10158000033C031CCF2A031DC92A3308E73C031C74
:10159000CF2AB6013030B500D430B400B3014208D0
:1015A0000317A800031341080317A70003134008FB
:1015B0000317A60003133F080317A500AC01AB01F6
:1015C000AA010A30A9008A11031346268A157A084F
:1015D0000317A4007908A3007808A2007708A100E7
:1015E00003134308031721079400220895000313EF
:1015F00044080318440FFD2A002B03179507031313
:1016000083164608831203171402031D1C2B83162E
:1016100003134708831203171502031D1C2B83169F
:101620000313C8080319172B831203171C2BC908AF
:101630000319A32B8312031796011608093C031CF8
:101640008E2B1608A1000330A2008A110313722604
:101650008A150310780D0317A100210A8A110313BC
:1016600061208A15FA00031721088A1103136120EB
:101670008A15F8007A0803171502031C8C2B031D2A
:10168000452B78081402031C8C2B1608A10003308C
:10169000A2008A11031372268A1501307807F70019
:1016A0000310F70D77080317A100210A8A1103130D
:1016B00061208A15FA00031721088A11031361209B
:1016C0008A15F800031715087A02031C8C2B031DDA
:1016D0006D2B14087802031C8C2B1608A100033014
:1016E000A2008A11031372268A1502307807F700C8
:1016F0000310F70D77080317A100210A8A110313BD
:1017000061208A15FA00031721088A11031361204A
:101710008A15AD0003178E2B960A1D2B03132D0877
:1017200086007208F30003300317A3008A11031325
:1017300021218A159B2B73080317A3008A11031319
:1017400021218A158316831246080317A800031364
:1017500045080317A700031344080317A600031343
:1017600043080317A500AC01AB01AA016430A9002E
:101770008A11031346268A157A080317A4007908EC
:10178000A3007808A2007708A10003134A080317F2
:10179000A800031349080317A700031348080317F9
:1017A000A600031347080317A500AC01AB01AA016B
:1017B0000A30A9008A11031346268A1577080317F1
:1017C000A10778080318780FA20779080318790F82
:1017D000A3077A0803187A0FA40703134B0803170B
:1017E000210797002208980003134C0803184C0F98
:1017F000FA2BFD2B03179807031303171808003C57
:1018000003180F2CFF3A031D092C1708F33C03188B
:101810000F2CF43097020130031C02309802303054
:101820009707023003180330980799019A019B012A
:101830009C01831603134408831203171702031D28
:10184000292C831603134508831203171802031962
:101850006B2C18089A00180CA200170CA100A20CFF
:10186000A10CA20CA10CA20CA10C0F30A205210806
:101870000F399B0017080F399C0003138501303086
:1018800003171907031386008A117B218A1520305C
:1018900003171A07031386008A117B218A1510305B
:1018A00003171B07031386008A117B218A15031770
:1018B0001C08031386008A117B218A150317180858
:1018C00083160313C5008312031717088316031327
:1018D000C400831203179D019E019F01A00183167E
:1018E00003134608831203171402031D8C2C83165E
:1018F00003134708831203171502031D8C2C83164C
:101900000313C8080319872C831203178C2CC908EA
:101910000319342D8312031703132D08053C031CF0
:10192000CB2C03171508A2001408A100A401053050
:10193000A3008A11031399268A1579080317A200B8
:101940007808A1000C30A1070318A20A220CFA00A3
:10195000210CF900FA0CF90CFA0CF90CFA0CF90C40
:1019600079089F001508A2001408A100A401053001
:10197000A3008A11031399268A1579080317A20078
:101980007808A1000C30A1070318A20A21080F391A
:10199000A000072D031303171508A2001408A100C7
:1019A000A4010530A3008A11031399268A1579082A
:1019B0000317A2007808A1001230A1020030031C16
:1019C0000130A202220CFA00210CF900FA0CF90CE9
:1019D000FA0CF90CFA0CF90C79089F001508A20012
:1019E0001408A100A4010530A3008A11031399264D
:1019F0008A1579080317A2007808A1001230A10205
:101A00000030031C0130A20221080F39A000303041
:101A10001D07031386008A1189218A1520300317B8
:101A20001E07031386008A1189218A1510300317B7
:101A30001F07031386008A1189218A1503172008BE
:101A4000031386008A1189218A158316C901C801EA
:101A500083120317150883160313C7008312031795
:101A6000140883160313C6004A0883124F02031D8D
:101A7000422DD008031D422DD108031D422DD2084E
:101A800003196A2D01304F070317A10003135008F3
:101A90000317A200003003180130A20703135108F6
:101AA0000317A300003003180130A30703135208E3
:101AB0000317A400003003180130A4072108A50073
:101AC0007030A60025082607031386004F088316EA
:101AD000CA00831283164B0883125302031D792D0B
:101AE000D408031D792DD508031D792DD6080319B7
:101AF0009E2D53080317A10003130608F40070304D
:101B00000317A20021082207031386007208F300BE
:101B100002300317A3008A11031321218A15902D87
:101B200073080317A3008A11031321218A1574086F
:101B30008600F40153088316CB0083128A11C02655
:101B40008A157808B2000030F80008008316D20128
:101B50008312071D052F0719AB2D291D462E85164B
:101B6000091489140915B42DB52D00000719BC2DD1
:101B70008718BC2D071C332E83165108023C031D09
:101B8000CA2D7B08D200FB0183122911831652084B
:101B9000F800522F510BF32DFE08031DDD2D7D089B
:101BA000633C031CDD2DFD0A0319FE0A0A30D40034
:101BB0008A11831259218A158316FE08031DE42D0C
:101BC0007D08633C0318F32D1E307B07D200FB0118
:101BD00083128512091089100911FE01FD01831677
:101BE0005208F800522F5108033C031D312EFE0805
:101BF000031D0B2E7D08633C031C0B2EFD0A0319ED
:101C0000FE0A0A30D4008A11831259218A15FF3046
:101C1000F8008316522FFE08031D122E7D08633C28
:101C20000318312E1E307B07D20083128512091053
:101C30008910091185160914891409151F2E202EE3
:101C400000000719292E8718292E0718292EFE01B2
:101C5000FD01851209108910091183165208F80038
:101C6000522F422E831229117B088316D200FB01CA
:101C70008312091089100911FE01FD018316520813
:101C8000F800522F83120910891009112A1FB32E50
:101C900088184E2E871E4E2E071BA72E831651081E
:101CA000023C031D5C2E7C08D200FC0183122A1327
:101CB00083165208F800522F510B7E2E4108430222
:101CC000031C6B2E031D682E4208400203186B2E66
:101CD000C00A0319C10A43084102031C7E2E031DDA
:101CE000752E42084002031C7E2E05307C07D20070
:101CF00083122A1783165208F800522F5108033C0A
:101D0000031DA52E41084302031C922E031D8C2E99
:101D1000420840020318922EC00A0319C10AFF307C
:101D2000F800522F43084102031CA52E031D9C2ED0
:101D300042084002031CA52E05307C07D200831206
:101D40002A1783165208F800522FB12E83122A1335
:101D50008316C101C0017C08D200FC015208F800C2
:101D6000522FB62E83128316C101C0018312291986
:101D7000052F8910091185120914BE2EBF2E0000EF
:101D8000071DC52E29150130FB00871CCA2E2915F9
:101D90000230FB00071CCF2E29150330FB00091071
:101DA0008914D22ED32E0000071DD92E29150430F8
:101DB000FB00871CDE2E29150530FB00071CE32ED7
:101DC00029150630FB0089100915E62EE72E0000C4
:101DD000071DED2E29150730FB00871CF22E291553
:101DE0000830FB00071CF72E29150930FB000911EC
:101DF0008516FA2EFB2E0000871C012F29150A30AC
:101E0000FB0009118910091085128818112F871AF3
:101E1000112F2A170B30FC008316C3011930C200A2
:101E2000831288181D2F071B1D2F2A170C30FC004A
:101E30008316C3011930C2008312881C2B2F871E02
:101E40002B2F071F2B2F2A170D30FC008316C301E1
:101E50006430C2008312881C372F871A372F2A1745
:101E60000E30FC008316C3011930C2008312881C97
:101E7000432F071B432F2A170F30FC008316C30183
:101E80001930C2008312081C4F2F8A116D218A1548
:101E90000818482FA91E4E2FA9124F2FA91600303F
:101EA000F800831683128A150A16192A0F300317B1
:101EB000950096011608073C031CA82F0030031359
:101EC000A81A013003179700160DF700F70DFC3024
:101ED000F7057708013EA03E84008313000817022F
:101EE000031DA62F00300313A91801300317970014
:101EF000160DF700F70DFC30F7057708023EA03EFF
:101F00008400831300081702031DA62F003003135B
:101F10002918013003179700160DF700F70DFC3054
:101F2000F7057708033EA03E8400831300081702DC
:101F3000031DA62F160DF700F70DFC30F7057708E7
:101F4000A03E8400831300089500A82F960A5A2FFC
:101F50000313A81EB32F0130031797008A11031330
:101F6000FC238A15B92F031797018A110313FC2349
:101F70008A15A91CC32F0130031797008A11031378
:101F800055248A15C92F031797018A110313552465
:101F90008A15291CD32F0130031797008A110313C8
:101FA00090248A15D92F031797018A1103139024BF
:101FB0008A15053003179700150898008A11031336
:101FC00029228A1503171508F800031308000430A6
:101FD000031719079E00A1001D08A5001C08A400F6
:101FE0001B08A3001A08A2008A110313B0218A1546
:021FF0000800E7
:10200000013003171402EC3E0318602B143E031337
:10201000642B0A126D210A16A91C1028A910122877
:102020002910A9140A128A1556270A168A11780847
:10203000B0000317602B0A126D210A16AF08031DAA
:102040009028871D4A28B608031D3428B508031DAB
:1020500034283408023C03184328FF3A031D34286F
:102060003308E83C031843285030B302C330031C44
:10207000C430B4020030031C0130B5020030031C30
:102080000130B6024928B6013030B500D430B40072
:10209000B30190280030281B0130031795009A00E7
:1020A00003132E0803179B000313360803179F0022
:1020B0000313350803179E000313340803179D000C
:1020C0000313330803179C000A1203135D270A1633
:1020D000AE08031D6E280930AE006F28AE03013034
:1020E0000317970003132E08031798000A1203130F
:1020F00029220A160030281B01300317950096008C
:1021000003132E08031797000A1203133E250A161D
:102110007A08B6007908B5007808B4007708B300EB
:102120002F0BA9282C08013C03189828AC039A28E7
:102130000830AC002C08031796000A12031356252A
:102140000A167A08B6007908B5007808B40077084E
:10215000B3000317602B0A126D210A16AF08031D86
:102160001C29871DD628B608031DCF283508303C0A
:10217000031CCF28031DC0283408D33C031CCF28E0
:102180005030B307C3300318C430B407003003180D
:102190000130B507003003180130B607D528B60165
:1021A000B5010330B400E830B3001C290030281B0F
:1021B0000130031795009A0003132E0803179B00A4
:1021C0000313360803179F000313350803179E00F7
:1021D0000313340803179D000313330803179C00EF
:1021E0000A1203135D270A162E08093C031DFA285C
:1021F000AE01FB28AE0A01300317970003132E0827
:10220000031798000A12031329220A160030281B0C
:10221000013003179500960003132E08031797004B
:102220000A1203133E250A167A08B6007908B5008B
:102230007808B4007708B3002F0B35292C08073C29
:10224000031C2429AC0A26290130AC002C080317F2
:1022500096000A12031356250A167A08B600790862
:10226000B5007808B4007708B3000317602B0A1292
:102270006D210A160A1283270A162F08031944290A
:10228000013A03196D2991290030281B01300317E9
:10229000950003132C08031796000A120313562502
:1022A0000A167A08031799007908980078089700A9
:1022B0007708960015089A0003132E0803179B0051
:1022C00019089F0018089E0017089D0016089C001A
:1022D0000A1203135D270A1691290030281B0130CA
:1022E000031795000A120313EB270A167A0803173F
:1022F00099007908980078089700770896001508E3
:102300009A0003132E0803179B0019089F00180852
:102310009E0017089D0016089C000A1203135D27F3
:102320000A160A125E250A160317602B0A126D217F
:102330000A160A1283270A160030281B0130003AB9
:102340000319A629013A0319A829A9292817A92997
:1023500028130030281B013003179500970115083A
:1023600098000A12031329220A160A125E250A1679
:102370000317602B0A126D210A16A81EC129A81284
:10238000C229A8160A128A1556270A168A11780831
:10239000B0000317602B0A126D210A160A12832758
:1023A0000A162F080319D829013A0319022A202AEC
:1023B0000030281B013003179500960003132E08E8
:1023C000031797000A1203133E250A167A0803170B
:1023D000980079089700780896007708950003130D
:1023E0002C080317990018089D0017089C00160870
:1023F0009B0015089A000A128A150313E7270A168C
:102400008A11202A0A12EB270A167A080317980065
:1024100079089700780896007708950003132C0830
:102420000317990018089D0017089C0016089B00C8
:1024300015089A000A128A150313E7270A168A114B
:102440000A125E250A160317602B0A126D210A165E
:102450000A1283270A162F080319322A013A031990
:10246000352A362A0130AF00362AAF010330031770
:10247000970003132F08031798000A120313292249
:102480000A160A125E250A160317602B0A126D211E
:102490000A16291C4D2A29104F2AA91029140A129C
:1024A0008A1556270A168A117808B0000317602B80
:1024B0000A126D210A160A1283270A160030281BF9
:1024C0000130031795001508960003132E08031713
:1024D00097000A1203133E250A167A08031798007C
:1024E00079089700780896007708950018089C00EE
:1024F00017089B0016089A00150899000230A100E1
:102500001C08A5001B08A4001A08A3001908A200B3
:102510000A120313B0210A160030281B01300317DA
:10252000950003132C08031796000A12031356256F
:102530000A167A0803179900790898007808970016
:102540007708960015089A0003132E0803179B00BE
:1025500019089F0018089E0017089D0016089C0087
:102560000A1203135D270A160230031799000A1294
:1025700003130D240A167A080317980079089700A8
:10258000780896007708950003132C080317990024
:1025900018089D0017089C0016089B0015089A0053
:1025A0000A128A150313E7270A168A110A125E25F2
:1025B0000A160317602B0A30B307003003180130E6
:1025C000B407003003180130B5070030031801309C
:1025D000B6070317602B0A30B3020030031C01302A
:1025E000B4020030031C0130B5020030031C01307E
:1025F000B6020317602B0317602B5630B307043065
:1026000003180530B407003003180130B507003057
:1026100003180130B6070317602B5630B30204309D
:10262000031C0530B4020030031C0130B502003039
:10263000031C0130B6020317602B0A30B3070030C9
:1026400003180130B407003003180130B50700301B
:1026500003180130B6070317602B0A30B3020030AD
:10266000031C0130B4020030031C0130B5020030FD
:10267000031C0130B6020317602B0317602B563082
:10268000B307043003180530B407003003180130D5
:10269000B507003003180130B6070317602B56301A
:1026A000B3020430031C0530B4020030031C0130B7
:1026B000B5020030031C0130B6020317602B03176C
:1026C0001408F800031308000A148A140A11820778
:1026D00009281B28AB2837299629BA29CB29252A6E
:1026E000462A582ADB2AEB2AFB2AFD2A0D2B1D2B12
:1026F0002D2B3D2B3F2B4F2B680EF7000F30F7058E
:1027000077080F398316D100D201D301D401831287
:1027100068080F398316D500D601D701D801831276
:10272000670EF7000F30F70577080F398316D900C9
:10273000DA01DB01DC01831267080F398316DD0043
:10274000DE01DF01E0018312660EF7000F30F705AE
:1027500077080F398316E100E201E301E4018312F7
:1027600066080F398316E500E601E701E8018312E8
:10277000650EF7000F30F70577080F398316E9006B
:10278000EA01EB01EC01831265080F390317900091
:1027900091019201930103136908013A0319F52B82
:1027A000033A0319FB2B013A0319012C073A0319C9
:1027B000072C013A03190D2C033A0319132C013A83
:1027C0000319192C0F3A03191F2C013A0319252C50
:1027D000033A03192B2C013A0319752D043A0319F6
:1027E0007B2DF03A0319C22EC42E09300317940032
:1027F00003130020C42E0830031794000313002095
:10280000C42E07300317940003130020C42E063093
:102810000317940003130020C42E053003179400FF
:1028200003130020C42E0430031794000313002068
:10283000C42E03300317940003130020C42E02306B
:102840000317940003130020C42E013003179400D3
:1028500003130020C42E8316580883120317A80000
:1028600083160313570883120317A7008316031355
:10287000560883120317A600831603135508831204
:102880000317A500AC010F30AB004230AA00403066
:10289000A9000A12031346260A167A08031797009E
:1028A000790896007808950077089400831603133A
:1028B0005C0883120317A800831603135B088312B6
:1028C0000317A700831603135A0883120317A600E1
:1028D00083160313590883120317A500AC010130B6
:1028E000AB008630AA00A030A9000A1203134626C6
:1028F0000A1677080317940778080318780F9507C6
:1029000079080318790F96077A0803187A0F970742
:1029100083160313600883120317A800831603139A
:102920005F0883120317A700831603135E08831240
:102930000317A600831603135D0883120317A5006F
:10294000AC01AB012730AA001030A9000A12031312
:1029500046260A1677080317940778080318780F95
:10296000950779080318790F96077A0803187A0FE4
:10297000970783160313640883120317A8008316AE
:102980000313630883120317A70083160313620857
:1029900083120317A600831603136108831203171B
:1029A000A500AC01AB010330AA00E830A9000A126F
:1029B000031346260A1677080317940778080318A6
:1029C000780F950779080318790F96077A08031886
:1029D0007A0F970783160313680883120317A8005A
:1029E00083160313670883120317A70083160313C4
:1029F000660883120317A600831603136508831263
:102A00000317A500AC01AB01AA016430A9000A12AA
:102A1000031346260A167708031794077808031845
:102A2000780F950779080318790F96077A08031825
:102A30007A0F9707831603136C0883120317A800F5
:102A4000831603136B0883120317A700831603135F
:102A50006A0883120317A6008316031369088312FA
:102A60000317A500AC01AB01AA010A30A9000A12A4
:102A7000031346260A1677080317940778080318E5
:102A8000780F950779080318790F96077A080318C5
:102A90007A0F9707100814070313B30003171508DC
:102AA0000313B400031711080318110F582D5B2DE1
:102AB0000313B407031716080313B500031712080E
:102AC0000318120F642D672D0313B507031717089A
:102AD0000313B600031713080318130F702D732D7B
:102AE0000313B60703170313C42E0B300317940008
:102AF00003130020C42E83166C0883120317A8004A
:102B0000831603136B0883120317A700831603139E
:102B10006A0883120317A600831603136908831239
:102B20000317A500AC010F30AB004230AA004030C3
:102B3000A9000A12031346260A167A0803179700FB
:102B40007908960078089500770894001308A80083
:102B50001208A7001108A6001008A500AC0101305A
:102B6000AB008630AA00A030A9000A120313462643
:102B70000A1677080317940778080318780F950743
:102B800079080318790F96077A0803187A0F9707C0
:102B900083160313640883120317A8008316031314
:102BA000630883120317A7008316031362088312B6
:102BB0000317A60083160313610883120317A500E9
:102BC000AC01AB012730AA001030A9000A12031390
:102BD00046260A1677080317940778080318780F13
:102BE000950779080318790F96077A0803187A0F62
:102BF000970783160313680883120317A800831628
:102C00000313670883120317A700831603136608CC
:102C100083120317A6008316031365088312031794
:102C2000A500AC01AB010330AA00E830A9000A12EC
:102C3000031346260A167708031794077808031823
:102C4000780F950779080318790F96077A08031803
:102C50007A0F9707831603135C0883120317A800E3
:102C6000831603135B0883120317A700831603134D
:102C70005A0883120317A6008316031359088312F8
:102C80000317A500AC01AB01AA016430A9000A1228
:102C9000031346260A1677080317940778080318C3
:102CA000780F950779080318790F96077A080318A3
:102CB0007A0F970783160313600883120317A8007F
:102CC000831603135F0883120317A70083160313E9
:102CD0005E0883120317A600831603135D08831290
:102CE0000317A500AC01AB01AA010A30A9000A1222
:102CF000031346260A167708031794077808031863
:102D0000780F950779080318790F96077A08031842
:102D10007A0F9707831603135108831203171407BA
:102D20000313B300031715080313B40083165208E6
:102D30000318520F9C2E9F2E8312B4078316831202
:102D4000031716080313B500831653080318530F0F
:102D5000AA2EAD2E8312B507831683120317170808
:102D60000313B600831654080318540FB82EBB2E55
:102D70008312B60783160A128A1583129D220A1639
:102D80008A11C42E8A01002829130130F8008A15FF
:102D90000A16372A291C572F881D132F2A1A122F7B
:102DA0000030281B01308316D100831203179A00CC
:102DB00003132E0803179B000313360803179F0005
:102DC0000313350803179E000313340803179D00EF
:102DD0000313330803179C000A1203135D270A1616
:102DE000281BF42E2817F62E281B28130030281B2A
:102DF00001308316D10083120317960003132E08A7
:102E0000031797000A1203133E250A167A08B60024
:102E10007908B5007808B4007708B3002A160130A5
:102E2000F800C32F572F2A1E572F0030281B0130C0
:102E30008316D100831203179A0003132E08031779
:102E40009B000313360803179F000313350803176D
:102E50009E000313340803179D0003133308031760
:102E60009C000A1203135D270A16281B392F281706
:102E70003B2F281B28130030281B01308316D1005C
:102E800083120317960003132E08031797000A12E4
:102E900003133E250A167A08B6007908B5007808AB
:102EA000B4007708B3002A120130F800C32FA91C20
:102EB000C32F881D9C2FAA1A9B2F36088316D40077
:102EC000831235088316D300831234088316D20088
:102ED000831233088316D100343083120317A10004
:102EE00083160313540883120317A50083160313D4
:102EF000530883120317A400831603135208831286
:102F00000317A30083160313510883120317A200AB
:102F10000A120313B0210A160A1241240A167A086B
:102F2000B6007908B5007808B4007708B300AA168F
:102F30000130F800C32FC32FAA1EC32F3608031772
:102F40009B000313350803179A0003133408031773
:102F5000990003133308031798000A120313472438
:102F60000A163430031799000A1203130D240A16A7
:102F70007A08B6007908B5007808B4007708B3007D
:102F8000AA120130F8008A150A16742A8316570B04
:102F9000D22F063083120317A3000A120313212134
:102FA0000A168316D708031DDD2F83120317A3010A
:0E2FB0000A12031321210A1683168312080049
:103000008316D5018312281AC428881DBA28AA1944
:10301000B9288316D6015608093C031CA3280310BF
:10302000560DF700F70DF70DFC30F7057708D700C0
:103030000330D70757080A128A118312A1200A16F3
:103040008A15FA008316D70357080A128A118312C9
:10305000A1200A168A15F9008316D70357080A1209
:103060008A118312A1200A168A15F80083165703C5
:103070000A128A118312A1200A168A15F7007A080B
:1030800083165402031CA128031D562879085302F5
:10309000031CA128031D562878085202031CA128EE
:1030A000031D562877085102031CA1280310560D52
:1030B000013EF700F70DF70DFC30F7057708D70054
:1030C0000330D70757080A128A118312A1200A1663
:1030D0008A15FA008316D70357080A128A11831239
:1030E000A1200A168A15F9008316D70357080A1279
:1030F0008A118312A1200A168A15F8008316570335
:103100000A128A118312A1200A168A15F700831663
:1031100054087A02031CA128031D9E285308790233
:10312000031CA128031D9E2852087802031CA12815
:10313000031D9E2851087702031CA1280130D500E9
:10314000A328D60A0B28D508031DB7280A128A110E
:1031500083126D210A168A15881DB6280130831640
:10316000D7008A118312C6278A15AC2883168312CA
:10317000AA15C328AA1DC3288316D7018A11831252
:10318000C6278A15AA11C82801308316D5008312D4
:1031900083165508F80083128A150A16B82A030800
:1031A0001F398300A701403083169900A230980090
:1031B000903083129800B601B501B401B301EF015C
:1031C000F101F001F401F601F501FB01FC01FE0142
:1031D000FD018316C101C001FF30CC001F149F14F4
:1031E0001F159F1107309C0083130A308312D700EC
:1031F000D8010F30D900DA00DB00DC00DD00DE0092
:10320000DF00E000E100E200E3008316A000A1017E
:10321000A201A3010E30A400A5010130A600A70061
:103220000C30A800A901AA010130AB000430AC00A9
:103230000130AD00AE00AF000330B0000130B1008E
:10324000B200B3010230B400B5010130B600B701DD
:10325000B800B900BA01BB01BC01BD00BE01BF008E
:10326000C201C301C401C501C601C701C801C9012A
:10327000CA01CB0183121F10013083168500003074
:103280008600FF308700CC008800091089100911E2
:1032900083120317A3010A128A11031321210A16AC
:1032A0008A15C8308316D4000A128A118312592154
:1032B0000A168A1585165C295D290000071C6229FB
:1032C00028126329281685128914662967290000A7
:1032D000871C96290B08F7008B13FF3003178D000E
:1032E0008C0083168C130C1555308D00AA308D0080
:1032F0008C148C1879290C117708831203138B0412
:103300000A128A116D210A168A1504308316D1001B
:10331000FA30D4000A128A11831259210A168A152A
:103320008316D10B88298A018312002889100A127A
:103330008A118D290A168A1583168C16C0308312BD
:103340008B041F30031796000A128A110313A2215F
:103350000A168A15780BAD29B8290A128A11652A2E
:103360000A168A150A128A119F240A168A15BD297F
:103370000A128A119F240A168A150A128A115E25DA
:103380000A168A158316D4010A128A118312AF25F0
:103390000A168A158316CE01CD010130CF005010D8
:1033A00083122A12AA12081CE0290818D5290A1229
:1033B0008A11E02E0A168A1578088316CF00831228
:1033C00083164E084E3C031CEE29031DEB294D08C5
:1033D0001F3C031CEE29CD0A0319CE0A0A128A11DA
:1033E0008312C0260A168A157808B10083164D0884
:1033F000203C031D062A4E084E3C031D062A0A12D5
:103400008A11831283270A168A1583164E08023CF6
:1034100003182F2AFF3A031D112A4D08E73C031811
:103420002F2ACF08031D2F2A0130D1000A12831240
:10343000A62D0A1678088316CF00CF0803192F2A65
:103440004F088312031794008A11031300208A1572
:1034500078088316CF000330CE00E830CD00CF08C7
:10346000031D3F2A8312291F402A8A117C2B8A15AB
:1034700078088316CF000330CE00E830CD008312E9
:103480008316CF08031D712A0A128A118312F12FA5
:103490000A168A15F8080319722A071E5E2A0230D6
:1034A000B307003003180130B407003003180130AF
:1034B000B507003003180130B6076C2A0230B3029A
:1034C0000030031C0130B4020030031C0130B5028F
:1034D0000030031C0130B60201308316CF00CE014C
:1034E000CD0183128A11CA2E8A15831650107818BE
:1034F0005014CF08031D7E2A501CA62A00308312C8
:10350000281B01308316D100D500831230088316A2
:10351000D600831236088316DA0083123508831624
:10352000D900831234088316D80083123308831617
:10353000D70083122C088316DB000A1283120020A6
:103540000A160A129D220A168316CF018312360824
:103550008316D400831235088316D30083123408EF
:103560008316D200831233088316D10083120028F9
:1035700001308316D4000A128A118312AF250A166D
:063580008A15D329630047
:02400E00723FFF
:00000001FF
;PIC16F877A
;CRC=161F  CREATED="29-Apr-25 13:18"
