:04000000D6EF1EF029
:08000800046ED8CF05F0E0CF33
:1000100006F00001E9CF0CF0EACF07F0E1CF08F0DD
:10002000E2CF09F0D9CF0AF0DACF0BF0F3CF12F01C
:10003000F4CF13F0FACF14F000C00EF001C00FF0AF
:1000400002C010F003C011F09DAA2AEF00F09EBA82
:1000500025EF01F00EC000F00FC001F010C002F05B
:1000600011C003F00CC0E9FF07C0EAFF078E08C00B
:10007000E1FF09C0E2FF0AC0D9FF0BC0DAFF12C0DE
:10008000F3FF13C0F4FF14C0FAFF045006C0E0FFF2
:1000900005C0D8FF1000F2CF0DF0F29EAE0FF66E45
:1000A000000EF7220900F5500DBEF28E1200342525
:1000B00029001C292900042D2900D4342900BC382A
:1000C0002900A43C29008C4029005C482900444CAC
:1000D00029002C50290014542900E45B2900CC5F2E
:1000E0002900B46329009C6729006C6F29005473B0
:1000F00029003C772900247B2900F4822900DC8632
:100100002900C48A29007C962900AC8E290094928B
:100110002900649A29004C9E290034A229001CA6BB
:10012000290004AA2900ECAD2900D4B12900BCB5EE
:100130002900A4B929008CBD290074C129005CC51F
:10014000290044C929002CCD290014D12900BD1D46
:100150002A00A5212A008D252A0075292A005D2D57
:100160002A0045312A002D352A0015392A00FD3C88
:100170002A00E5402A00CD442A00B5482A009D4CBB
:100180002A0085502A006D542A0055582A003D5CEB
:100190002A0025602A000D642A00F5672A00DD6B1D
:1001A0002A00C56F2A00AD732A0095772A007D7B4F
:1001B0002A00657F2A004D832A0035872A001D8B7F
:1001C0002A00058F2A00ED922A00D5962A00BD9AB2
:1001D0002A00A59E2A008DA22A0075A62A005DAAE3
:1001E0002A0045AE2A002DB22A0015B62A00F2CF09
:1001F0000DF0F29EF76A080FF66E020EF722090064
:10020000F5500DBEF28E120050C3000020BF020058
:100210003057050060AE0A0050690F00C05C150041
:1002200040771B00200B2000009F240080B92A008B
:10023000F6D330009EAAFED7ABCF16F0AECF01F0BA
:1002400016A202D0AB98AB8812001980FA6B9EAA56
:1002500025D0010107512608D8A002D000011ED0E8
:10026000FF0A06E106511008D8A002D0000116D0FE
:10027000B46BB4510A080AE1036AB451FA0FE96E8B
:10028000000E0320EA6EEF6AB42BF3D7046B010E65
:10029000056F1990076B066B3DD000019EAA3BD0FD
:1002A000010107512708D8B002D0000134D006E17F
:1002B00006510F08D8B002D000012DD00001BADFDE
:1002C00001C0F8F0036A01010551FA0FE96E000E52
:1002D0000320EA6EF8C0EFFF052B076B066B055194
:1002E000060818E1036A0551FA0FE96E000E0320B3
:1002F000EA6EEF6A010E046F056F1990055106084A
:1003000009E20551060806E2000194DF01C0F9F098
:100310000101F7D700019E9A2AEF00F0010EEA6E64
:10032000690EE96EEF500DE0060E016E006A002EB8
:10033000FED7012EFBD77B0E006E002EFED7EF2ED0
:10034000F3D71200179080B21780179280B41782EB
:10035000179480B6178400D0120017A0809217B0AF
:10036000808217A2809417B2808417A4809617B455
:10037000808600D01200E6DF808600D08096EDDF18
:100380001200818E00D0819E1200650E816EF3DF17
:100390005D0E816EF0DF4C0E816EEDDF600E816EC2
:1003A000F0DF510E816EEDDF4E0E816EEADF9FEFC2
:1003B0001FF0C8DF808280948096CFDF1200F00E9D
:1003C00001015D25626FF2CF63F1F29E62C1A9FF68
:1003D000A69CA69EA680A85063BFF28E616B606B40
:1003E0005F6B5E6F5EC101F0000112000F0E010134
:1003F0005D6F0001E4DF0150120001017E6B7E5150
:1004000003081FE3010E806F7A0E7F6F7E517F25F8
:10041000016E000E8021036E0150E96E03C0EAFFF9
:100420007E517525816FF2CF82F1F29E81C1A9FFC5
:10043000A69CA69EA680A85082BFF28EEF6E7E2B51
:10044000DED77A51765D0AE17B51775D07E17C5119
:10045000785D04E17D51795DD8B42FD07E6B7E51FB
:1004600003082BE37E5175257F6F010E816F760E99
:10047000806F7E518025016E000E8121036E015038
:10048000E96E03C0EAFFEFCF80F1F250006EF29EFA
:100490007FC1A9FF80C1A8FFA69CA69EA6840F01CC
:1004A000550EA76EAA0EA76EA682A6B2FED7A69478
:1004B0000050F21201017E2BD2D7000171EF02F041
:1004C00001016F51040DF3CF74F174C175F173C163
:1004D00079F172C178F171C177F170C176F10001E3
:1004E0008CD71200F00E01016025626FF250006E91
:1004F000F29E62C1A9FF61C1A8FFA69CA69EA68428
:100500000F01550EA76EAA0EA76EA682A6B2FED741
:10051000A6940050F212000112000E0E0101606F4D
:1005200036C161F10001DEDF17EF03F00D0E0101AE
:10053000606F5DC161F10001D5DF12000C0E010199
:10054000606F36C161F10001CDDF1FEF03F00B0ECC
:100550000101606F5EC161F10001C4DF12000A0E8B
:100560000101606F5DC161F10001BCDF1200050E89
:100570000101606F5FC161F10001B4DF1200040E80
:100580000101606F5FC161F10001ACDF1200030E79
:100590000101606F5FC161F10001A4DF1200020E72
:1005A0000101606F5FC161F100019CDF1200090E63
:1005B0000101606F36C161F1000194DF3FEF03F08C
:1005C000080E0101606F5DC161F100018BDF120057
:1005D0000F0E0101606F010E616F000183DF44EFB8
:1005E00003F00101356B355113080EE335C16FF18E
:1005F000736B0A0E726FAE0E716F600E706F00013A
:100600005FDF0101352BEFD7140E356F35511F0811
:100610000BE335C16FF1736B726B716B706B000123
:100620004FDF0101352BF2D7366B000176D7010180
:100630005D6B00017BDF0101366B00017FD701019B
:100640005E6B000184DF01015D6B000188DF020E3B
:1006500001015F6F00018BDF0A0E01015F6F000176
:100660008EDF640E01015F6F000191DF01015F69A0
:10067000000195DF130E0101366F000198D70101CB
:100680005D6B00019DDFA4D7BEEF1FF00E0E0101D0
:100690005D6F000194DE01503EEF04F00D0E01018C
:1006A0005D6F00018CDE015042EF04F00C0E010181
:1006B0005D6F000184DE015045EF04F00B0E010177
:1006C0005D6F00017CDE015048EF04F00A0E01016D
:1006D0005D6F000174DE01504CEF04F0050E010166
:1006E0005D6F00016CDE01504FEF04F0040E01015C
:1006F0005D6F000164DE015052EF04F0030E010152
:100700005D6F00015CDE015055EF04F0020E010147
:100710005D6F000154DE015058EF04F0080E010136
:100720005D6F00014CDE01505BEF04F0090E01012A
:100730005D6F000144DE01505EEF04F0070E010121
:10074000606F5EC161F10001CDDE3CEF04F001019C
:100750005D5338E00001ED510F0804E1179A189439
:1007600018922ED0ED5304E1178A1894188228D0DD
:10077000ED2D04D0178A1894189222D0ED5102085A
:1007800004E1179A188418921BD0ED51030804E174
:10079000178A1884189214D0ED51040804E1178ABE
:1007A000188418820DD0ED510C0804E1179A1894A2
:1007B000188206D0ED510E0803E1179A18841882AA
:1007C0005BD0010117BA09D018B407D018B205D010
:1007D0000F0E0001ED6F4BD0010117AA08D018B41D
:1007E00006D018A204D00001ED6B41D0010117AA78
:1007F00009D018B407D018B205D0010E0001ED6F72
:1008000036D0010117BA09D018A407D018B205D004
:10081000020E0001ED6F2BD0010117AA09D018A418
:1008200007D018B205D0030E0001ED6F20D00101F2
:1008300017AA09D018A407D018A205D0040E0001E9
:10084000ED6F15D0010117BA09D018B407D018A25E
:1008500005D00C0E0001ED6F0AD0010117BA08D0C7
:1008600018A406D018A204D00E0E0001ED6F0101ED
:10087000EDC05EF1000162D7120008D7179C01B0ED
:10088000178C0CD701C0ECF011D701C0E9F016D7D6
:10089000199E01B0198E1AD701C0EEF01FD701C002
:1008A000F0F024D701C0F1F029D701C0F2F02ED723
:1008B00001C0F3F033D701C01BF038D701C01AF0E4
:1008C0000F0EED6F010E01015D6F000140DFC5EFFE
:1008D0001FF00101A96BA95103081FE3010EAF6FBF
:1008E000AA0EAE6FA951AE25016E000EAF21036EA8
:1008F0000150E96E03C0EAFFA951A825B06FF2CFFD
:10090000B1F1F29EB0C1A9FFA69CA69EA680A850F8
:10091000B1BFF28EEF6EA92BDED7AAC100F0ABC13A
:1009200001F0ACC102F0ADC103F00001A1EF04F091
:100930000101A251040DF3CFA7F1A7C1A8F1000155
:10094000C8D703C0A6F102C0A5F101C0A4F100C040
:10095000A3F1A3C100F0A4C101F0A5C102F0A6C19A
:1009600003F012005FC1A2F1E3DF1200020E0101E9
:100970005E255F6FA26F0001DBDF12000101605195
:100980006203F3CF01F0F4CF00F06303F3500026CD
:1009900061516203F3500020026E00011200010158
:1009A0005D5312E1000E17BC010E5E6F5F6F000118
:1009B000D9DF03C0E8F002C0E7F001C0E6F000C0F4
:1009C000E5F0A1D0A0D001015D2D0FD0E9C05EF10E
:1009D0000001CCDF03C0E8F002C0E7F001C0E6F0A0
:1009E00000C0E5F090D08FD001015D510208D8A47D
:1009F0008BD01B522CE1280E1C6E010E1A5C5F6F0F
:100A0000616B606F636B040E626F0001B7DF02C041
:100A100003F00150F2CF5EF1F29E02C0F7FF4BEC03
:100A200000F0006E0900F5CF01F00900F5CF02F0EB
:100A30000900F5CF03F001015EBFF28E03C0E8F0BC
:100A400002C0E7F001C0E6F0E8CFE5F05BD01B2C78
:100A50002CD0280E1C6E270E1A245F6F616B606FFE
:100A6000636B040E626F000189DF02C003F0015066
:100A7000F2CF5EF1F29E02C0F7FF4BEC00F0006E89
:100A80000900F5CF01F00900F5CF02F00900F5CF1C
:100A900003F001015EBFF28E03C0E8F002C0E7F090
:100AA00001C0E6F0E8CFE5F02DD01B5002082AE1A6
:100AB000500E1C6E010E1A5C5F6F616B606F636B92
:100AC000040E626F00015ADF02C003F00150F2CF42
:100AD0005EF1F29E02C0F7FF4BEC00F00900F5CF8B
:100AE00001F00900F5CF02F00900F5CF03F0010194
:100AF0005EBFF28E03C0E8F002C0E7F001C0E6F08E
:100B0000E8CFE5F00001010100011200030E010130
:100B1000885F0AE3010EEA6E880EE96EEF5004E08A
:100B200001D000D0EF2EFDD70001BEEF05F0809A76
:100B3000849084928494809801018651010B01086D
:100B400001E184848651020B020801E1848286510E
:100B5000040B040801E184808651080B080801E1B8
:100B6000808A8088310E006E002EFED700D08098DB
:100B7000020E876FB80E886F0001C8D70101872F5A
:100B8000F9D7809A8490849284940001120082B4F0
:100B9000FED782A4FED70A0E0101866F0001C7DFCF
:100BA0000101866B0001C3DF0F0E0101866F00019A
:100BB000BEDF0F0E0101866F0001B9DF7DC186F136
:100BC000B6DF7EC186F1B3DF7FC186F1B0DF80C1C1
:100BD00086F1ADDF81C186F1AADF82C186F1A7DF90
:100BE00083C186F1A4DF84C186F1A1DF85C186F1CE
:100BF0009EDF120019B608D00101092B09517708B0
:100C0000D8B051D2096B0001020E01016725682599
:100C100069257D6F000E6A217E6F000E6B217F6F4C
:100C2000000E6C21806F6D517D27000E7E237F2387
:100C30008023010E7D27000E7E237F2380236E51AB
:100C40007D27000E7E237F238023010E7D256F6F7D
:100C5000000E7E21706F000E7F21716F000E8021CB
:100C6000726F19B60DD00A516F5D0AE10B51705DBC
:100C700007E10C51715D04E10D51725DD8B413D2DE
:100C8000673D01D003D067C173F102D00F0E736FBF
:100C9000683D01D003D068C174F102D00F0E746FAB
:100CA00069531AE16A5318E16B5316E16C5314E16E
:100CB0006E51020811E073C17DF174C17EF10F0E17
:100CC0007F6F806F816F826F836F846B7CC185F1D2
:100CD00000015DDF1ED10101693D10D06A3D0ED0DB
:100CE0006B3D0CD06C517F0809E10F0E756F766F6C
:100CF000776F786F796F7A6F7B6F0AD16CC180F1F3
:100D00006BC17FF16AC17EF169C17DF180C184F15F
:100D10007FC183F17EC182F17DC181F180530EE1FB
:100D20007F510F080BE307E17E51420807E303E11F
:100D30007D513F0803E30F0E756F1BD0756B845315
:100D40000DE183510E0815E2FF0A08E182514108C6
:100D500010E2FF0A03E181513F080BE2400E815F80
:100D6000420E825B0F0E835B000E845B010E7527C3
:100D7000E6D780530EE17F5101080BE307E17E5176
:100D8000860807E303E17D519F0803E30F0E766FAA
:100D90001BD0766B84530DE18351000815E2FF0AE6
:100DA00008E18251850810E2FF0A03E181519F08A2
:100DB0000BE2A00E815F860E825B010E835B000E4C
:100DC000845B010E7627E6D780530CE17F530AE15E
:100DD0007E51270807E303E17D510F0803E30F0E5F
:100DE000776F17D0776B84530AE1835308E1825100
:100DF00026080FE2FF0A03E181510F080AE2100EF4
:100E0000815F270E825B000E835B845B010E772778
:100E1000EAD780530CE17F530AE17E51030807E3D0
:100E200003E17D51E70803E30F0E786F17D0786B6D
:100E300084530AE1835308E1825102080FE2FF0A5A
:100E400003E18151E7080AE2E80E815F030E825B4D
:100E5000000E835B845B010E7827EAD780530AE19A
:100E60007F5308E17E5306E17D51630803E30F0ED3
:100E7000796F13D0796B845307E1835305E1825373
:100E800003E18151630809E2640E815F000E825B19
:100E9000835B845B010E7927EED780530AE17F5391
:100EA00008E17E5306E17D51090803E30F0E7A6FD6
:100EB00013D07A6B845307E1835305E1825303E136
:100EC0008151090809E20A0E815F000E825B835B93
:100ED000845B010E7A27EED77D5308E17E5306E14D
:100EE0007F5304E1805302E17B6B12D07B6B815313
:100EF00006E1825304E1835302E1845309E0010EC9
:100F0000815F000E825B835B845B010E7B27EFD7E2
:100F1000000101016D3D01D003D06DC17CF102D013
:100F20000F0E7C6F6C530AE16B5308E16A510208A3
:100F30000AE2FF0A03E16951E80805E26E5101087F
:100F400002E2010E6E6F6E5315E173C17DF174C143
:100F50007EF175C17FF176C180F177C181F178C1F1
:100F600082F179C183F17AC184F17CC185F10001FC
:100F70000EDE01016E2D15D073C17DF174C17EF1BD
:100F800076C17FF177C180F178C181F179C182F1B9
:100F90007AC183F17BC184F17CC185F10001F7DD69
:100FA00001016E51020813E173C17DF174C17EF13C
:100FB0000F0E7F6F806F79C181F17AC182F17BC1A1
:100FC00083F1846F7CC185F10001E1DD01016E5187
:100FD000030813E173C17DF174C17EF179C17FF122
:100FE0007AC180F17BC181F10F0E826F836F846FB4
:100FF0007CC185F10001CBDD01016E51040813E1D4
:1010000073C17DF174C17EF10F0E7F6F806F79C166
:1010100081F17AC182F17BC183F1846F7CC185F15A
:101020000001B5DD01016E51050810E173C17DF1CC
:1010300074C17EF10F0E7F6F806F816F826B836F43
:10104000846F7CC185F10001A2DD0101020E6725DC
:10105000682569257D6F000E6A217E6F000E6B2169
:101060007F6F000E6C21806F6D517D27000E7E23F7
:101070007F238023010E7D27000E7E237F23802384
:101080006E517D27000E7E237F238023010E7D2558
:101090000A6F000E7E210B6F000E7F210C6F000E79
:1010A00080210D6F19980001120037C13EF1EC53F9
:1010B0000BE10101365302E1010E3D6F362D02D0E6
:1010C0000C0E3D6F3F690001EC2D06D0020E0101B0
:1010D0003D6F3CC13FF10001000E18B0010E01014F
:1010E000406F3DC167F13EC168F13BC16CF13AC14F
:1010F0006BF139C16AF138C169F13FC16DF16E6FB1
:10110000000178DD12000101A32D03D080948086B8
:101110008082A35303E180948092809600011200A4
:10112000140E0101A26F000103DC1200A2EC01F019
:1011300080928084808600D0ADEC01F027EF0AF029
:10114000D8B204D0010EEA6EAA0EE96E006A016AF6
:10115000026A036A0101AA6BAB6BAC6BAD6BA95160
:10116000A811A711A6112CE0200EAE6FD890A237BF
:10117000A337A437A537AA37AB37AC37AD37A9515A
:10118000AD5D08E1A851AC5D05E1A751AB5D02E1A1
:10119000A651AA5D0FE3A651AA5FA751D8A0A73D0B
:1011A000AB5FA851D8A0A83DAC5FA951D8A0A93D7C
:1011B000AD5FD8800036013602360336AE2FD6D763
:1011C000AAC1EFFFABC1ECFFACC1ECFFADC1ECFFBE
:1011D000000112000101AE6BAF6B010EB06FDA6A55
:1011E000D96AB36FA60EB26F010EEA6EAA0EE96E4F
:1011F000B3C1E2FFB2C1E1FFB0C1B1F1D890E55097
:10120000EE02F350AE23F450AF23B12FF7D7AEC1A7
:10121000DEFFAFC1AEF1AF6BD8B0AF2BB22BD8B4FD
:10122000B32BB02BB0510508DFE100011200700EA6
:101230000101A36FA251A325816E0001B6EF0CF04E
:101240000101A26B83A802D0080EA22783AA02D0B4
:10125000040EA22783AC02D0020EA22783AE02D0D6
:10126000010EA227A2C101F00001120081CF08F1F6
:101270004CEF09F0A2EC01F080928084809600D0BF
:10128000ADEC01F054EF09F008C181FF0101086BDA
:10129000000155EF09F0EAD7700E0101A36FA251CA
:1012A000A325816E0001E6D7EFD7120019B609D049
:1012B00001010E2B0E517708D8B0EBEF0CF00E6B3E
:1012C00000016AC16EF169C16DF168C16CF167C15D
:1012D0006BF119A606D00101126B116B106B0F6B2D
:1012E000000101010F516B5D0BE110516C5D08E1D4
:1012F00011516D5D05E112516E5DD8B4EBEF0CF04C
:10130000189817BA1888010EA36F0001FCDE6AC195
:1013100072F169C171F168C170F167C16FF119B4FF
:1013200037D0FEDE03C076F102C075F101C074F162
:1013300000C073F1010176530DE175510E081FE2F3
:10134000FF0A08E1745141081AE2FF0A03E17351F0
:101350003F0815E2400E735D006E420E7459016E37
:101360000F0E7559026E000E7659036E00506F5FB6
:101370000150705B0250715B0350725B08D0735177
:101380006F277451702375517123765172230001B8
:101390000101776B7751090856E37751030DF3503C
:1013A000040DF350036A1D0FE96E000E0320EA6E70
:1013B000EFCF00F0ECCF01F0ECCF02F0ECCF03F078
:1013C0000350725D3EE30BE10250715D3AE307E1C9
:1013D0000150705D36E303E100506F5D32E37751F9
:1013E000030DF350010F040DF350036A1D0FE96E56
:1013F000000E0320EA6EEFCF00F0ECCF01F0ECCF4F
:1014000002F0ECCF03F07251035C1BE30BE171516E
:10141000025C17E307E17051015C13E303E16F51D4
:10142000005C0FE37751030DF350020F040DF350EE
:10143000036A1D0FE96E000E0320EA6EEFCFEAF09B
:1014400002D0772BA7D7EAC081FF00016FD6010138
:10145000776B7751090852E37751040DF350036A13
:10146000F2CFA2F1F29E0001F7EC00F0006E09004D
:10147000F5CF01F00900F5CF02F00900F5CF03F038
:101480000101A2BFF28E0350725D36E30BE1025000
:10149000715D32E307E10150705D2EE303E100501E
:1014A0006F5D2AE3010E7725040DF350036AF2CF36
:1014B000A2F1F29E0001F7EC00F0006E0900F5CFFA
:1014C00001F00900F5CF02F00900F5CF03F00101AA
:1014D000A2BFF28E7251035C0FE30BE17151025C0B
:1014E0000BE307E17051015C07E303E100506F5D1E
:1014F00003E277C1EBF002D0772BABD772C17BF15F
:1015000071C17AF170C179F16FC178F17F6B7E6B37
:101510007D6B7C6B7B530DE17A51000819E2FF0A69
:1015200008E17951850814E2FF0A03E178519F0828
:101530000FE2A00E785F860E795B010E7A5B000EDB
:101540007B5B010E7C27000E7D237E237F23E2D769
:10155000836B826B816B806B7B530AE17A5308E16A
:101560007951260813E2FF0A03E178510F080EE2D1
:10157000100E785F270E795B000E7A5B7B5B010EA5
:101580008027000E812382238323E6D7876B866B17
:10159000856B846B7B530AE17A5308E17951020829
:1015A00013E2FF0A03E17851E7080EE2E80E785FE4
:1015B000030E795B000E7A5B7B5B010E8427000EC5
:1015C000852386238723E6D78B6B8A6B896B886B91
:1015D0007B5307E17A5305E1795303E178516308BE
:1015E0000DE2640E785F000E795B7A5B7B5B010E27
:1015F0008827000E89238A238B23EAD78F6B8E6B73
:101600008D6B8C6B7B5307E17A5305E1795303E1D2
:10161000785109080DE20A0E785F000E795B7A5B5B
:101620007B5B010E8C27000E8D238E238F23EAD740
:10163000936B926B916B906B785306E1795304E155
:101640007A5302E17B530DE0010E785F000E795B67
:101650007A5B7B5B010E9027000E912392239323EC
:10166000EBD790C1EFF0D89272C1A5F171C1A4F18E
:1016700070C1A3F16FC1A2F1A96BA86B270EA76F70
:10168000100EA66F00015CDD03C097F102C096F159
:1016900001C095F100C094F183C1A9F182C1A8F104
:1016A00081C1A7F180C1A6F10101AD6BAC6BAB6B41
:1016B000640EAA6F00018EDD03C0A5F102C0A4F183
:1016C00001C0A3F100C0A2F187C1A9F186C1A8F1B0
:1016D00085C1A7F184C1A6F10101AD6BAC6BAB6B09
:1016E0000A0EAA6F000176DD00500101A227015009
:1016F000A3230250A4230350A5238851A225986F49
:101700008951A321996F9951000809E2FF0A03E169
:101710009851F30804E2F40E985F010E995B7F5331
:1017200007E17E5305E17D5303E17C51090805E2A1
:10173000300E9827020E992304D0300E9827020EFF
:1017400099239A6B9B6B9C6B9D6B9E6B9F6BA06BA5
:10175000A16B99C19BF19931A36F9831A26FA3330B
:10176000A233A333A233A333A2330F0EA317A25184
:101770000F0B9C6F98510F0B9D6F0001EA510508EC
:101780005AE3D89297C1A5F196C1A4F195C1A3F1EE
:1017900094C1A2F10101A96BA86BA76B050EA66FFE
:1017A0000001CEDC03C0A5F102C0A4F101C0A3F189
:1017B00000C0A2F10C0E0101A227000EA323A42356
:1017C000A523A531036EA431026EA331016EA231AF
:1017D000006E033202320132003203320232013231
:1017E0000032033202320132003200C0A0F1D8923E
:1017F00097C1A5F196C1A4F195C1A3F194C1A2F13D
:10180000A96BA86BA76B050EA66F000199DC03C03E
:10181000A5F102C0A4F101C0A3F100C0A2F10C0E19
:101820000101A227000EA323A423A523A2510F0B7D
:10183000A16F65D00001D89297C1A5F196C1A4F11E
:1018400095C1A3F194C1A2F10101A96BA86BA76B8B
:10185000050EA66F000174DC03C0A5F102C0A4F15F
:1018600001C0A3F100C0A2F10C0E0101A227000EDD
:10187000A323A423A5231E0EA25F000EA35BA45BDB
:10188000A55BA531036EA431026EA331016EA231B6
:10189000006E033202320132003203320232013270
:1018A0000032033202320132003200C0A0F1D8927D
:1018B00097C1A5F196C1A4F195C1A3F194C1A2F17C
:1018C000A96BA86BA76B050EA66F000139DC03C0DE
:1018D000A5F102C0A4F101C0A3F100C0A2F10C0E59
:1018E0000101A227000EA323A423A5231E0EA25F9D
:1018F000000EA35BA45BA55BA2510F0BA16F8092AE
:1019000080948096300E9A25816E0001BBEC01F028
:10191000200E01019B25816E0001BBEC01F0100E31
:1019200001019C25816E0001BBEC01F09DC181FF8E
:10193000BBEC01F0300E01019E25816E0001C1EC6F
:1019400001F0200E01019F25816E0001C1EC01F024
:10195000100E0101A025816E0001C1EC01F0A1C1B2
:1019600081FFC1EC01F08CC1A2F161D469DC0101FD
:10197000935307E1925305E1915303E10150905DC8
:101980000CE300015DDC0101935307E1925305E193
:10199000915303E19051015C05E290C1A2F1000175
:1019A0007ADC010100014CDC01C0F7F06EC112F1DC
:1019B0006DC111F16CC110F16BC10FF1000E18B8BF
:1019C000010E0101A26FA36F000183EC08F0179ACA
:1019D00018B8178A01010001120018A202D018924B
:1019E00001D0188201015D6B0001A7EC03F0120029
:1019F000130E01016F6F60C173F15FC172F15EC1BF
:101A000071F15DC170F1000160EC02F01200130E83
:101A10000101A26F000198EC04F01200EC5314E1F4
:101A2000E8C060F1E7C05FF1E6C05EF1E5C05DF1DE
:101A3000DFDF010EEC6FECC05DF196EC02F0ECC064
:101A40005DF1CFEC04F010D0EC2D0ED0E0DF03C040
:101A5000E8F002C0E7F001C0E6F000C0E5F0EC6B92
:101A6000ECC05DF196EC02F01200020E010160255F
:101A7000656F6F6F64C173F163C172F162C171F11F
:101A800061C170F1000160EC02F01200EC530BE157
:101A9000E9C060F1E8C064F1E7C063F1E6C062F15B
:101AA000E5C061F1E2DFEC2D0BD0E9C060F1E8C0E8
:101AB00064F1E7C063F1E6C062F1E5C061F1D5DF32
:101AC000120017AA02D0179A01D0178A000E17BA6F
:101AD000010E01015D6FA36F000183EC08F00101AD
:101AE0005D6B0001A7EC03F012005EC16FF162C1F3
:101AF00073F161C172F160C171F15FC170F160ECAD
:101B000002F01200000E17BC010E01015D6F5E6F46
:101B1000E8C062F1E7C061F1E6C060F1E5C05FF1E5
:101B20000001E3DF17BC02D0178C01D0179C000E18
:101B300017BC010E01015D6F5F6F0001B2EC04F094
:101B400003C0E8F002C0E7F001C0E6F000C0E5F035
:101B500019861200EC531CE1E9C05EF1B6EC04F00A
:101B600003C0E8F002C0E7F001C0E6F000C0E5F015
:101B7000000E17BC010E01015D6F5E6FE8C062F1DF
:101B8000E7C061F1E6C060F1E5C05FF10001ADDFE3
:101B9000EC2D10D0000E17BC010E01015D6F5E6FC1
:101BA000E8C062F1E7C061F1E6C060F1E5C05FF155
:101BB00000019BDF1200EC532DE182B624D0EB2B09
:101BC000EB51090801E2EB6BEB51040DF350036A92
:101BD000F2CF5DF1F29EF7EC00F00900F5CF01F0D5
:101BE0000900F5CF02F00900F5CF03F001015DBF58
:101BF000F28E03C0E8F002C0E7F001C0E6F0E8CFE3
:101C0000E5F009D00001500EE527C30EE623000ED3
:101C1000E723E82301010001EC2D0AD0E9510D086A
:101C200001E3E92B010E01015D6F0001CFEC04F02F
:101C3000EC51020804E11C501A5C01E21A2A12005D
:101C4000EC532DE182B624D0EB5302E10A0EEB6F88
:101C5000EB07EB51040DF350036AF2CF5DF1F29EF6
:101C6000F7EC00F00900F5CF01F00900F5CF02F024
:101C70000900F5CF03F001015DBFF28E03C0E8F06B
:101C800002C0E7F001C0E6F0E8CFE5F009D00001BE
:101C9000500EE55FC30EE65B000EE75BE85B0101FB
:101CA0000001EC2D09D0E95301E0E907010E010123
:101CB0005D6F0001CFEC04F0EC51020804E11A5012
:101CC000010801E21A061200EC535CE1000E17BC99
:101CD000010E01015D6F5F6F0001B2EC04F003C003
:101CE000E8F002C0E7F001C0E6F000C0E5F0E8C0AF
:101CF00060F1E7C05FF1E6C05EF1E5C05DF178DE5E
:101D0000E9C05EF1B6EC04F003C0E8F002C0E7F011
:101D100001C0E6F000C0E5F0000E17BC010E0101A5
:101D20005D6F5E6FE8C062F1E7C061F1E6C060F12F
:101D3000E5C05FF10001D9DE6ADE03C0E8F002C051
:101D4000E7F001C0E6F000C0E5F0E9C060F1E8C0EE
:101D500064F1E7C063F1E6C062F1E5C061F185DEE0
:101D6000000E17BC010E01015D6F5F6F0001B2EC48
:101D700004F003C0E8F002C0E7F001C0E6F000C0E4
:101D8000E5F058D0EC2D56D0E9C05EF1B6EC04F089
:101D900003C0E8F002C0E7F001C0E6F000C0E5F0E3
:101DA000E8C060F1E7C05FF1E6C05EF1E5C05DF15B
:101DB0001FDE000E17BC010E01015D6F5F6F000199
:101DC000B2EC04F003C0E8F002C0E7F001C0E6F0B6
:101DD00000C0E5F0E9C060F1E8C064F1E7C063F17C
:101DE000E6C062F1E5C061F140DE11DE03C0E8F05B
:101DF00002C0E7F001C0E6F000C0E5F0000E17BC3D
:101E0000010E01015D6F5E6FE8C062F1E7C061F134
:101E1000E6C060F1E5C05FF1000167DEE9C05EF198
:101E2000B6EC04F003C0E8F002C0E7F001C0E6F051
:101E300000C0E5F0120001015E6B5D515E5D10E2D5
:101E4000640E696F00018EEC01F0D9EC01F0640EB4
:101E50000101696F00018EEC01F001015E2BEDD7ED
:101E600000011200060E0101606F5DC161F1000109
:101E700072EC02F04CEF0FF0060E01015D6F0001F5
:101E8000DFEC01F0015057EF0FF0EC5302E0EC2DC6
:101E90000AD0ECC05DF1E6D7020EEC6FECC05DF14C
:101EA00096EC02F00ED0EC51020803E1E5D701C038
:101EB000ECF0ECC05DF1CFEC04F0ECC05DF196EC21
:101EC00002F01200120E01016F6F60C173F15FC169
:101ED00072F15EC171F15DC170F1000160EC02F060
:101EE000120018A402D018940AD01884E8C060F137
:101EF000E7C05FF1E6C05EF1E5C05DF1E3DF01013F
:101F00005D6B0001A7EC03F0F4EF13F001015D53EA
:101F100011E10F0E7D6F7E6F7F6F806F080E816FF6
:101F2000826B0C0E836F0F0E846F856F0001C7EC00
:101F300005F001015D2D11D00F0E7D6F7E6F7F6F5B
:101F4000806F040E816F826B0C0E836F0F0E846F97
:101F5000856F0001C7EC05F001015D51020811E138
:101F60000F0E7D6F7E6F7F6F806F816F0C0E826FA3
:101F70000E0E836F0F0E846F856F0001C7EC05F0A6
:101F800001015D51030810E10F0E7D6F7E6F7F6FC1
:101F9000806F816F826F0B0E836F0F0E846F856F62
:101FA0000001C7EC05F001015D51040814E10F0EBA
:101FB0007D6F7E6F0A0E7F6F010E806F816F0F0E37
:101FC000826F0C0E836F0B0E846F0F0E856F0001F6
:101FD000C7EC05F001015D51050812E10F0E7D6FA0
:101FE0007E6F0D0E7F6F010E806F0A0E816F0F0ED8
:101FF000826F836B846F856F0001C7EC05F0010170
:102000005D51060814E10F0E7D6F7E6F0D0E7F6F20
:10201000010E806F0A0E816F0F0E826F010E836FAB
:102020000F0E846F856F0001C7EC05F001015D5153
:10203000070814E10F0E7D6F7E6F0D0E7F6F010E8E
:10204000806F0A0E816F0F0E826F020E836F0F0E6C
:10205000846F856F0001C7EC05F00101020E5E6F11
:10206000FA0E696F00018EEC01F001015E2FF8D7C6
:1020700000011200EC51020827E11B5203E1010E9E
:102080001B6E01D01B6A1B5205E1020E01015D6F40
:1020900000013CDF1B2C05D0030E01015D6F000128
:1020A00035DF19860101676968696C6B6B6B6A6B58
:1020B0001AC069F16D69020E6E6F0001FAEC05F04D
:1020C0001BC05DF1E0EC02F012000101676B132B05
:1020D00013510F0803E367C101F023D1136B8098FC
:1020E00082A406D182B4FED7849484928490809A8C
:1020F000686B18A611D084808482848482B409D04D
:1021000082B207D082B005D0676B18961992FDD0C5
:1021100003D0676B1992F9D084928494809A84805A
:1021200000D000D0000082A413D082A40DD0682B70
:10213000640E696F00018EEC01F0010168511D0809
:1021400002E2198201D0F1D71886010E676FDDD047
:1021500082A213D082A20DD0682B640E696F000199
:102160008EEC01F0010168511D0802E2198201D0D4
:10217000F1D71886020E676FC8D082A013D082A054
:102180000DD0682B640E696F00018EEC01F0010127
:1021900068511D0802E2198201D0F1D71886030E9A
:1021A000676FB3D08490848200D000D0000082A4F6
:1021B00013D082A40DD0682B640E696F00018EECE1
:1021C00001F0010168511D0802E2198201D0F1D726
:1021D0001886040E676F99D082A213D082A20DD008
:1021E000682B640E696F00018EEC01F001016851EB
:1021F0001D0802E2198201D0F1D71886050E676F1B
:1022000084D082A013D082A00DD0682B640E696F99
:1022100000018EEC01F0010168511D0802E21982F3
:1022200001D0F1D71886060E676F6FD08492848430
:1022300000D000D0000082A413D082A40DD0682B5F
:10224000640E696F00018EEC01F0010168511D08F8
:1022500002E2198201D0F1D71886070E676F55D0B8
:1022600082A213D082A20DD0682B640E696F000188
:102270008EEC01F0010168511D0802E2198201D0C3
:10228000F1D71886080E676F40D082A013D082A0C5
:102290000DD0682B640E696F00018EEC01F0010116
:1022A00068511D0802E2198201D0F1D71886090E83
:1022B000676F2BD08494808A00D000D0000082A267
:1022C00013D082A20DD0682B640E696F00018EECD2
:1022D00001F0010168511D0802E2198201D0F1D715
:1022E00018860B0E676F11D0849484928490809A24
:1022F00083A00BD00001D9EC01F083B0FED718AC5D
:1023000002D0189C01D0188C0101675308E019A273
:1023100002D0140E67270001D9EC01F0010167C15A
:1023200001F000011200140E01016F6F6EC173F114
:102330006DC172F16CC171F16BC170F1000160ECA3
:1023400002F01200198490EC08F003C060F102C0A2
:102350005FF101C05EF100C05DF1010E0101616F2E
:10236000626B666B656B646B636B198669D0000189
:1023700020EC09F001C0F4F0F4C0F6F0000E18BA39
:10238000010E0101676F67C168F10001F751F65D49
:102390002CE0179682B817860101685310E117A642
:1023A00007D0010E5D27000E5E235F23602306D059
:1023B000010E5D5F000E5E5B5F5B605B0FD017A67A
:1023C00007D0010E5D5F000E5E5B5F5B605B06D059
:1023D000010E5D27000E5E235F236023F6C0F7F039
:1023E000010E016E05D004D00001000E016E010146
:1023F000015202E0010E616F5D3D10D05E3D0ED0D6
:102400005F3D0CD0603D0AD0606B5F6B5E6B010E70
:102410005D6F18BA02D0188A01D0189A60530AE189
:102420005F5308E15E5102080BE2FF0A03E15D51D0
:10243000E60806E2606B5F6B030E5E6FE70E5D6F92
:10244000612D6FD05D5306E15E5304E15F5302E1FD
:1024500060534EE018AA26D05D510001E55D0101F0
:10246000636F5E510001E6590101646F5F51000125
:10247000E7590101656F60510001E8590101666F7C
:102480006769686960C16CF15FC16BF15EC16AF137
:102490005DC169F16D69030E6E6F0001FAEC05F024
:1024A00025D001015D510001E5250101636F5E51F9
:1024B0000001E6210101646F5F510001E721010184
:1024C000656F60510001E8210101666F6769686905
:1024D00060C16CF15FC16BF15EC16AF15DC169F110
:1024E0006D69040E6E6F0001FAEC05F00ED001016B
:1024F000676968696C6B6B6B6A6B010E696F6D69FC
:10250000050E6E6F0001FAEC05F066C16AF165C157
:1025100069F164C168F163C167F156EC09F001012A
:10252000616B0001D2DD01C062F10101622D1CD09E
:1025300067696869E8C06CF1E7C06BF1E6C06AF1F1
:10254000E5C069F16D696E6B0001FAEC05F0040EEF
:102550000101676FFA0E696F00018EEC01F0010155
:10256000672FF8D7626B30D06251060802E12DD098
:102570002BD06251150828E118AA16D0400E5D250F
:10258000676F420E5E21686F0F0E5F21696F000E4C
:1025900060216A6F6E6F69C16DF168C16CF167C1CE
:1025A0006BF10001C0DE010118BA0BD060C16EF101
:1025B0005FC16DF15EC16CF15DC16BF10001B3DE15
:1025C00001011994198601D0D2D60001F4EF13F05D
:1025D0000F0E0101606F6169000172EC02F0B8EF4B
:1025E00013F0EE2BEE51010801E2EE6BEE5305E124
:1025F000050E01015D6F000189DCEE2D05D0060E90
:1026000001015D6F000182DCEE51020805E1070E59
:1026100001015D6F00017ADC1986EEC05DF1AFEC5F
:1026200002F0010E01015D6F000105DCF4EF13F013
:1026300019AE02D0199E01D0198E000E19BE010EDE
:1026400001015D6F5E6F0001A7EC02F0010E010158
:102650005D6F00011BEC0FF0F4EF13F001015B5311
:1026600003E1000E016EC4D05B2D05D0000139D40A
:102670000001BAD001015B51020805E1000120EC24
:102680000EF0B2D001015B51030805E10001DBEC63
:102690000DF0AAD001015B51040805E10001AAEC8C
:1026A0000DF0A2D001015B51050805E1000182ECAB
:1026B0000DF09AD001015B51060805E1000161ECC3
:1026C0000DF092D001015B51070805E1000146ECD5
:1026D0000DF08AD001015B51080805E100010EEC04
:1026E0000DF082D001015B5109080AE10001EC51B3
:1026F000020803E0EDEC0CF001D0BCDC75D0010168
:102700005B510B0805E1000164EC0EF06DD0010196
:102710005B51150805E1000115D6000165D00101E6
:102720005B51190828E15C6B5C5102081CE3808254
:1027300080848086806A816A826A836A320E696FC9
:1027400000018EEC01F0809280948096806A816A0C
:10275000826A836A320E0101696F00018EEC01F01A
:1027600001015C2BE1D7A26B00014BEC09F030D7E3
:10277000FF003AD001015B51180805E1000131D793
:10278000000132D001015B511A0805E1000150D768
:1027900000012AD001015B511C0807E117A804D0F1
:1027A000000145EC0FF0010120D05B511D081DE137
:1027B00017A81BD0040E5D6F000186EC0FF0198680
:1027C0000101676968696C6B6B6B6A6B1AC069F1B0
:1027D0006D69020E6E6F0001FAEC05F0020E1B6EC1
:1027E0001BC05DF1E0EC02F0010119865BC101F054
:1027F0000001120001013839006E0F0E0016005062
:102800000F0B3A6F3B6B3C6B3D6B38510F0B3E6FC0
:102810003F6B406B416B3739006E0F0E0016005056
:102820000F0B426F436B446B456B37510F0B466F79
:10283000476B486B496B3639006E0F0E001600501F
:102840000F0B4A6F4B6B4C6B4D6B36510F0B4E6F32
:102850004F6B506B516B3539006E0F0E00160050E8
:102860000F0B526F536B546B556B35510F0B566FEB
:10287000576B586B596B392D07D00001EDEC0CF0FC
:10288000D9EC01F020D301013951020807E1000120
:102890000EEC0DF0D9EC01F016D30101395103080B
:1028A00007E1000146EC0DF0D9EC01F00CD3010179
:1028B0003951040807E1000161EC0DF0D9EC01F099
:1028C00002D301013951050807E1000182EC0DF046
:1028D000D9EC01F0F8D201013951060807E10001F5
:1028E000AAEC0DF0D9EC01F0EED201013951070844
:1028F00007E10001DBEC0DF0D9EC01F0E4D20101BD
:102900003951080807E1000120EC0EF0D9EC01F084
:10291000DAD2010139510B0807E1000164EC0EF035
:10292000D9EC01F0D0D2010139510A08D8A4B1D0B4
:1029300041C1A9F140C1A8F13FC1A7F13EC1A6F133
:10294000AD6B0F0EAC6F420EAB6F400EAA6F000165
:10295000EAEC08F003C05EF102C05DF101C05CF179
:1029600000C05BF145C1A9F144C1A8F143C1A7F181
:1029700042C1A6F10101AD6B010EAC6F860EAB6FCB
:10298000A00EAA6F0001EAEC08F0005001015B27DD
:1029900001505C2302505D2303505E2349C1A9F11D
:1029A00048C1A8F147C1A7F146C1A6F1AD6BAC6B18
:1029B000270EAB6F100EAA6F0001EAEC08F0005072
:1029C00001015B2701505C2302505D2303505E230D
:1029D0004DC1A9F14CC1A8F14BC1A7F14AC1A6F163
:1029E000AD6BAC6B030EAB6FE80EAA6F0001EAECA7
:1029F00008F0005001015B2701505C2302505D2369
:102A000003505E2351C1A9F150C1A8F14FC1A7F1F4
:102A10004EC1A6F1AD6BAC6BAB6B640EAA6F00013F
:102A2000EAEC08F0005001015B2701505C230250E2
:102A30005D2303505E2355C1A9F154C1A8F153C1D0
:102A4000A7F152C1A6F1AD6BAC6BAB6B0A0EAA6FCE
:102A50000001EAEC08F0005001015B2701505C2303
:102A600002505D2303505E2356515B250001E56F44
:102A7000010157515C210001E66F010158515D21B0
:102A80000001E76F010159515E210001E86F1BD27F
:102A900001013951DF08D8B0C0D03951EE08D8A0B3
:102AA000BCD0E00E395D5B6F41C1A9F140C1A8F116
:102AB0003FC1A7F13EC1A6F1AD6B0F0EAC6F420E48
:102AC000AB6F400EAA6F0001EAEC08F003C05FF1A3
:102AD00002C05EF101C05DF100C05CF145C1A9F129
:102AE00044C1A8F143C1A7F142C1A6F10101AD6BF8
:102AF000010EAC6F860EAB6FA00EAA6F0001EAEC60
:102B000008F0005001015C2701505D2302505E2354
:102B100003505F2349C1A9F148C1A8F147C1A7F1FA
:102B200046C1A6F1AD6BAC6B270EAB6F100EAA6F52
:102B30000001EAEC08F0005001015C2701505D2320
:102B400002505E2303505F234DC1A9F14CC1A8F18F
:102B50004BC1A7F14AC1A6F1AD6BAC6B030EAB6FD5
:102B6000E80EAA6F0001EAEC08F0005001015C27B2
:102B700001505D2302505E2303505F2351C1A9F130
:102B800050C1A8F14FC1A7F14EC1A6F1AD6BAC6B1E
:102B9000AB6B640EAA6F0001EAEC08F00050010173
:102BA0005C2701505D2302505E2303505F2355C113
:102BB000A9F154C1A8F153C1A7F152C1A6F1AD6B5F
:102BC000AC6BAB6B0A0EAA6F0001EAEC08F0005088
:102BD00001015C2701505D2302505E2303505F23F7
:102BE00056515C2757515D2358515E2359515F233D
:102BF0005BC160F15FC164F15EC163F15DC162F10F
:102C00005CC161F1000135EC0DF0030E01015D6F57
:102C100000011BEC0FF057D101013951FB08D8A47A
:102C200035D15A6B52355B6F53355C6F54355D6FE0
:102C300055355E6F5B375C375D375E375B375C37CA
:102C40005D375E375B375C375D375E37F00E5B179D
:102C500056515B2757515C2358515D2359515E23D0
:102C60005B5306E15C5304E15D5302E15E5325E0F2
:102C700052355B6F53355C6F54355D6F55355E6F04
:102C80005B375C375D375E375B375C375D375E37A8
:102C90005B375C375D375E37F00E5B1756515B274D
:102CA00057515C2358515D2359515E235BC15FF13D
:102CB0000001B7EC02F001015A2B4A355B6F4B352E
:102CC0005C6F4C355D6F4D355E6F5B375C375D37E4
:102CD0005E375B375C375D375E375B375C375D3758
:102CE0005E37F00E5B174E515B274F515C235051FE
:102CF0005D2351515E235B5306E15C5304E15D5358
:102D000002E15E5325E04A355B6F4B355C6F4C3515
:102D10005D6F4D355E6F5B375C375D375E375B37B8
:102D20005C375D375E375B375C375D375E37F00E9B
:102D30005B174E515B274F515C2350515D2351511E
:102D40005E235BC15FF10001BFEC02F001015A2B71
:102D500042355B6F43355C6F44355D6F45355E6F63
:102D60005B375C375D375E375B375C375D375E37C7
:102D70005B375C375D375E37F00E5B1746515B277C
:102D800047515C2348515D2349515E235B5306E163
:102D90005C5304E15D5302E15E5325E042355B6F15
:102DA00043355C6F44355D6F45355E6F5B375C372F
:102DB0005D375E375B375C375D375E375B375C3777
:102DC0005D375E37F00E5B1746515B2747515C233A
:102DD00048515D2349515E235BC15FF10001C7EC9F
:102DE00002F001015A2B3A355B6F3B355C6F3C3585
:102DF0005D6F3D355E6F5B375C375D375E375B37E8
:102E00005C375D375E375B375C375D375E37F00EBA
:102E10005B173E515B273F515C2340515D2341517D
:102E20005E235B5306E15C5304E15D5302E15E53B4
:102E300025E03A355B6F3B355C6F3C355D6F3D356A
:102E40005E6F5B375C375D375E375B375C375D37AE
:102E50005E375B375C375D375E37F00E5B173E5190
:102E60005B273F515C2340515D2341515E235BC191
:102E70005FF10001CFEC02F001015A2B5AC15DF164
:102E800000011BEC0FF0FF001ED001013951FC08BE
:102E900002E1178817D03951FD0807E117A804D0BF
:102EA000000145EC0FF001010DD03951FE0807E19A
:102EB000190E5B6F00012EEC13F005D00101393DB6
:102EC00001D0FF000001198613EF20F00101282B2B
:102ED00028510F0803E3000E016E29D2286B376BCF
:102EE00083B205D082BA03D0010E376F1DD083B2F2
:102EF00005D082BC03D0050E376F16D083A207D051
:102F000082AA05D082AC03D0090E376F0DD083A200
:102F100005D082BA03D00D0E376F06D083A204D03D
:102F200082BC02D00E0E376F375305E12A6B296B36
:102F3000000E016EFCD11986372D35D083B233D007
:102F400082BA31D02A5101080DE303E12951F30877
:102F500009E3292BD8B42A2B050E696F00018EECEA
:102F600001F001012A51000809E2FF0A03E1295199
:102F7000F20804E2040E376F16D014D02A5100086C
:102F800009E2FF0A03E129512B0804E2030E376F1F
:102F90000AD008D02A5303E12951630803E2020E44
:102FA000376F01D0CBD73751050835E183B233D025
:102FB00082BC31D02A5101080DE303E12951F30805
:102FC00009E3292BD8B42A2B050E696F00018EEC7A
:102FD00001F001012A51000809E2FF0A03E1295129
:102FE000F20804E2080E376F16D014D02A510008F8
:102FF00009E2FF0A03E129512B0804E2070E376FAB
:103000000AD008D02A5303E12951630803E2060ECF
:10301000376F01D0CBD73751090832E183A230D0C6
:1030200082AA2ED082AC2CD02A5102080DE303E1F3
:103030002951EE0809E3292BD8B42A2B050E696F14
:1030400000018EEC01F001012951EE0807E12A513F
:10305000020804E10C0E376F13D011D02951F40887
:1030600006E12A2D04D00B0E376F0AD008D0295163
:10307000FA0805E12A5303E10A0E376F01D0CED7D3
:10308000372D01D006D03751050803E03751090824
:1030900006E12A5303E12951630801E2376B00017D
:1030A000EC53D8A4ABD00101372D27D0352D14D047
:1030B000365312E1010E0001E527000EE623E72357
:1030C000E82301012A6B296B0001D9EC01F0010E04
:1030D000016E01012CD111D00001F151E527000E44
:1030E000E623E723E82301012A6B296B0001D9ECD1
:1030F00001F0010E016E01011AD13751020808E1F9
:103100000001F151E527000EE623E723E823010142
:103110003751030808E10001F151E527000EE623CD
:10312000E723E82301013751040808E10001F151C8
:10313000E527000EE623E723E823010137510D08B8
:1031400008E1640E0001E527000EE623E723E823EB
:1031500001013751050827E1352D14D0365312E10E
:10316000010E0001E55F000EE65BE75BE85B010135
:103170002A6B296B0001D9EC01F0010E016E0101EF
:10318000D6D011D00001F151E55F000EE65BE75BA0
:10319000E85B01012A6B296B0001D9EC01F0010EFB
:1031A000016E0101C4D03751060808E10001F15158
:1031B000E55F000EE65BE75BE85B0101375107085E
:1031C00008E10001F151E55F000EE65BE75BE85BBB
:1031D00001013751080808E10001F151E55F000ED7
:1031E000E65BE75BE85B010137510E0808E1640E1E
:1031F0000001E55F000EE65BE75BE85B01010001B3
:10320000EC2D01D003D0EC5102083FE10101372D34
:1032100008D02A6B296B0001D9EC01F0DBEC0DF032
:1032200001013751020804E10001DBEC0DF001015E
:103230003751030804E10001DBEC0DF001013751C7
:10324000040804E10001DBEC0DF001013751050831
:1032500008E12A6B296B0001D9EC01F020EC0EF09B
:1032600001013751060804E1000120EC0EF00101D4
:103270003751070804E1000120EC0EF0010137513D
:10328000080804E1000120EC0EF0010137510908A3
:1032900011E1010E5D6F00011BEC0FF0EC5302E138
:1032A000DBEC0DF017A805D0EC510208D8B43AECCD
:1032B00010F0010137510A0824E1020E5D6F000190
:1032C0001BEC0FF0EC5307E10EEC0DF0010137C1E0
:1032D00001F02DD0000117A815D0EC2D07D045EC3A
:1032E0000FF0010137C101F022D00001EC510208BA
:1032F00009E145EC0FF00EEC0DF0010137C101F0D2
:1033000016D00001010137510B0806E1030E5D6F75
:1033100000011BEC0FF0010137510C0806E1040E0F
:103320005D6F00011BEC0FF0010137C101F00001DE
:1033300012000101372D03D080848082809637539C
:1033400003E180928094809600011200110E010129
:103350006F6F3AC173F139C172F138C171F137C180
:1033600070F1000160EC02F0AEEF1AF0120E0101F4
:10337000A26F000198EC04F0AFEF1AF0110E0101FA
:10338000A26F000198EC04F0C9EF1AF019B608D04A
:1033900001012B2B2B517708D8B006D12B6B0001E4
:1033A0000101356B17B869D083A65FD019B85CD01E
:1033B000366B365109084EE3D8903635040DF3507C
:1033C000036A950FE96E000E0320EA6EEFCF00F05E
:1033D000ECCF01F0ECCF02F0ECCF03F00350000192
:1033E000E85D35E30BE10250E75D31E307E10150B1
:1033F000E65D2DE303E10050E55D29E3D89001018E
:103400003635010F040DF350036A950FE96E000E77
:103410000320EA6EEFCF00F0ECCF01F0ECCF02F02A
:10342000ECCF03F00001E851035C11E30BE1E7513D
:10343000025C0DE307E1E651015C09E303E1E551BC
:10344000005C05E3010E0101356F04D000010101AC
:10345000362BAFD7355307E1010E376F000169DF17
:10346000D9EC01F00101198807D019A805D0376BF4
:1034700000015FDF1998010102D0010E356F18A21B
:103480005DD083A62ED019BA2BD0000E17BC010E2A
:10349000376F5E6FE8C062F1E7C061F1E6C060F1CE
:1034A000E5C05FF1000175EC0DF017BC02D0178C80
:1034B00003D017AC01D0179C000E17BC010E010100
:1034C000376F5F6F0001B2EC04F003C0E8F002C098
:1034D000E7F001C0E6F000C0E5F0198A19860101A5
:1034E0002DD019AA2BD0000E17BC010E376F5E6FBE
:1034F000E8C062F1E7C061F1E6C060F1E5C05FF1EC
:10350000000175EC0DF017BC02D0178C03D017AC7E
:1035100001D0179C000E17BC010E0101376F5F6FC1
:103520000001B2EC04F003C0E8F002C0E7F001C013
:10353000E6F000C0E5F0199A1986010118A434D00C
:1035400083A619D019BC16D0E8C03AF1E7C039F10A
:10355000E6C038F1E5C037F10001F8D607D703C05F
:10356000E8F002C0E7F001C0E6F000C0E5F0198C19
:103570001986010119D019AC17D0E8C060F1E7C075
:103580005FF1E6C05EF1E5C05DF1000162EC0FF0B5
:10359000F5D603C0E8F002C0E7F001C0E6F000C0D5
:1035A000E5F0199C1986010100013CEF20F00101B2
:1035B000499149934A6B4B6B4C6B4D6B4E6B0001C1
:1035C000EC5304E1010E01014A6F0001EC2D04D01F
:1035D000020E01014A6F0001EC51020804E1030EE2
:1035E00001014A6F000182A604D0030E01014A279F
:1035F000000101014A2D01D007D04A51020804E020
:103600004A510408D8A4E6D14A2D01D003D04A512A
:1036100004083BE10001EB51040DF350036AF2CFC3
:1036200051F1F29EF7EC00F00900F5CF01F009002E
:10363000F5CF02F00900F5CF03F0010151BFF28E82
:1036400003C038F102C037F101C036F1356F010E09
:103650000001EB25040DF350036AF2CF51F1F29E05
:10366000F7EC00F00900F5CF01F00900F5CF02F00A
:103670000900F5CF03F0010151BFF28E03C03CF108
:1036800002C03BF101C03AF1396F4A51020833E1FF
:10369000E9C05EF10001B6EC04F003C038F102C0ED
:1036A00037F101C036F100C035F10E0E01014C6F4B
:1036B0004D6B4C510001E95D11E2010EE92501015C
:1036C000516F5E6F0001B6EC04F003C03CF102C024
:1036D0003BF101C03AF100C039F10CD04DC15EF1AF
:1036E000B6EC04F003C03CF102C03BF101C03AF17A
:1036F00000C039F101013951355D11E13A51365DB2
:103700000EE13B51375D0BE13C51385D08E1020EA3
:103710005D6F00011BEC0FF0189C06D3010138C14E
:1037200040F137C13FF136C13EF135C13DF13CC1F9
:1037300044F13BC143F13AC142F139C141F1010EBB
:103740004527000E4623465112080CE2FF0A03E10A
:103750004551870807E249B302D0498301D0499314
:10376000466B456B49A312D0010E676F686940C173
:103770006CF13FC16BF13EC16AF13DC169F16D6908
:103780006E6B0001FAEC05F010D001016769686901
:1037900040C16CF13FC16BF13EC16AF13DC169F1BD
:1037A0006D696E6B0001FAEC05F040C16AF13FC132
:1037B00069F13EC168F13DC167F156EC09F083B093
:1037C0000AD183B430D0010149A102D000012BD02D
:1037D0003C51385D12E30BE13B51375D0EE307E1ED
:1037E0003A51365D0AE303E13551395D06E2010ED7
:1037F0003D5F000E3E5B3F5B405B38513C5D12E33A
:103800000BE137513B5D0EE307E136513A5D0AE3C8
:1038100003E13951355D06E2010E3D27000E3E23DE
:103820003F23402302D00101498149A1AFD0472B5A
:10383000D8B4482B48514D0808E2FF0A03E147512C
:10384000200803E2486B476B49914F6B4F510908C1
:10385000D8A09CD080B08ED082B807D00A0E3D5F31
:10386000000E3E5B3F5B405B08D082A806D00A0E8C
:103870003D27000E3E233F23402338513C5D3CE36F
:103880000BE137513B5D38E307E136513A5D34E3F4
:1038900003E13951355D30E24051385D15E30BE10C
:1038A0003F51375D11E307E13E51365D0DE303E122
:1038B00035513D5D09E238C140F137C13FF136C1B4
:1038C0003EF135C13DF117D03C51405D14E30BE1B1
:1038D0003B513F5D10E307E13A513E5D0CE303E1EC
:1038E0003D51395D08E23CC140F13BC13FF13AC175
:1038F0003EF139C13DF13ED03C51385D3BE30BE137
:103900003B51375D37E307E13A51365D33E303E17D
:103910003551395D2FE23851405D15E30BE13751E8
:103920003F5D11E307E136513E5D0DE303E13D519B
:10393000355D09E238C140F137C13FF136C13EF192
:1039400035C13DF117D040513C5D14E30BE13F51CF
:103950003B5D10E307E13E513A5D0CE303E1395171
:103960003D5D08E23CC140F13BC13FF13AC13EF14F
:1039700039C13DF1000165EC10F00150040803E18C
:1039800001014A6B000101014F2B60D749B11CD0E6
:1039900041513D5D19E142513E5D16E143513F5DAC
:1039A00013E14451405D10E138C140F137C13FF1AE
:1039B00036C13EF135C13DF13CC144F13BC143F15B
:1039C0003AC142F139C141F14A5303E1000103D048
:1039D0000101B5D6000101014A51030807E04A512F
:1039E000050804E04A510608D8A481D14A510308C9
:1039F0003BE11B5204E1270E4C6F4D6B4E6B1B2CB1
:103A000005D04F0E4C6F280E4D6F4E6F616B4DC140
:103A100060F1636B040E626F0001BEEC04F002C043
:103A200003F00150F2CF51F1F29E02C0F7FF4BECD0
:103A300000F00900F5CF01F00900F5CF02F0090010
:103A4000F5CF03F0010151BFF28E03C038F102C07F
:103A500037F101C036F1356F38C140F137C13FF160
:103A600036C13EF135C13DF14A51060804E14F0E21
:103A70004C6F4D6B4E6B4A51050819E1E9C05EF180
:103A80000001B6EC04F003C038F102C037F101C008
:103A900036F100C035F138C140F137C13FF136C1D0
:103AA0003EF135C13DF101014D6B0E0E4C6F198693
:103AB000010E4527000E4623465303E145511308E6
:103AC00007E249B302D0498301D04993466B456B65
:103AD0004A51050826E149B313D0020E676F6869A1
:103AE00040C16CF13FC16BF13EC16AF13DC169F16A
:103AF000E9C06DF16E6B0001FAEC05F011D0010127
:103B00006769686940C16CF13FC16BF13EC16AF100
:103B10003DC169F1E9C06DF16E6B0001FAEC05F091
:103B200001014A51030803E04A5106084EE11B52C5
:103B300003E04A51060825E149B312D0010E4E2593
:103B4000516F020E676F68696C6B6B6B6A6B51C16A
:103B500069F16D696E6F0001FAEC05F010D001019A
:103B6000010E4E25516F676968696C6B6B6B6A6BF0
:103B7000696F6D69020E6E6F0001FAEC05F024D0DA
:103B8000010149B312D0270E4E5D516F020E676FCF
:103B900068696C6B6B6B6A6B51C169F16D696E6FB3
:103BA0000001FAEC05F010D00101270E4E5D516FB7
:103BB000676968696C6B6B6B6A6B696F6D69020E24
:103BC0006E6F0001FAEC05F0010140C16AF13FC1DE
:103BD00069F13EC168F13DC167F1000156EC09F0A1
:103BE00001014A51050806E1C80E696F00018EEC1B
:103BF00001F001014A51030803E04A51060806E1B9
:103C0000140E696F00018EEC01F0010183B06FD0DA
:103C100083B44ED049B14CD04A51050815E14C51FE
:103C20000001E95D02E2E92B02D04DC1E9F0E9C0F3
:103C30005EF1B6EC04F003C040F102C03FF101C0F8
:103C40003EF100C03DF101014A51030803E04A5131
:103C500006082DE14C514E5D02E24E2B02D04DC1C3
:103C60004EF1616B4EC160F1636B040E626F000137
:103C7000BEEC04F002C003F00150F2CF51F1F29E0D
:103C800002C0F7FF4BEC00F00900F5CF01F009008E
:103C9000F5CF02F00900F5CF03F0010151BFF28E1C
:103CA00003C040F102C03FF101C03EF13D6F01D0C1
:103CB000498149A11BD0472BD8B4482B485303E175
:103CC0004751C80803E2486B476B4991506B50510C
:103CD00009080CE3000165EC10F00150040803E151
:103CE00001014A6B00010101502BF1D7E0D640C120
:103CF000E8F03FC1E7F03EC1E6F03DC1E5F0000E5F
:103D000017BC010E516F5E6FE8C062F1E7C061F150
:103D1000E6C060F1E5C05FF1000175EC0DF0189CA4
:103D2000D9EC01F083B0FED73FEF20F0EC5302E076
:103D3000EC2D2FD0E85310E1E7530EE1E651C30814
:103D40000BE303E1E5514F0807E3E86B2D0EE76F46
:103D5000C60EE66FC00EE56FE8530DE1E7512C0883
:103D600010E2FF0A08E1E651C5080BE2FF0A03E191
:103D7000E551C00806E2E86BE76BC30EE66F500E34
:103D8000E56FE9510E0802E20E0EE96FE95301E119
:103D9000E96BEC51020809E11A52D8B41CC01AF0C0
:103DA0001A501C5C02E2010E1A6E1200F86AD09ED4
:103DB000078E166A400EAF6EA20EAC6E900EAB6E02
:103DC0000101046B010E056F076B066B086B096B35
:103DD0000E6B136B156B146B176B166B9C0E196FB8
:103DE000400E186F36C125F135C124F1266B276BC3
:103DF000286B2A6B296B2B6BC180C182C184C19651
:103E00006CD007001D50C30000EF490205C000B38D
:103E100080F04902008FD003000100000090D00321
:103E2000007F1A060002000000801A0600AF710B26
:103E30000003000000B0710B008F051000040000AB
:103E400000900510000F201600050000001020163D
:103E5000008F3A1C0006000000903A1C006FCE2034
:103E6000000700000070CE20009F252600080000FB
:103E700000A0252600FFD3300009000000F0490211
:103E800000400D030030570500801A060060AE0A9E
:103E900000B0710B0040420F0090051000C05C158F
:103EA000001020160040771B00903A1C00200B20C9
:103EB0000070CE2000009F2400F0E8260080B92A80
:103EC00000C0C62D09C00004010A00000000040162
:103ED0000F000000000A411A0000000EF86E3E0EAE
:103EE000F76E020EF66E0900F550006E000A13E040
:103EF0000900F550016EE8BE05D00F0BEA6E09000F
:103F0000F5CFE9FF01BC090001AC0900F5CFEEFFD8
:103F1000004EE9D7F9D7F86AC80E696F00018EEC38
:103F200001F0C290010E926E000E936EFF0E946E21
:103F3000FE0E956E969096929694C5EF01F0D9EC90
:103F400001F0F56B189C01012C6B2D6B2E6B306B07
:103F50002F6B326B316B1890808A00D000D000003C
:103F600082A002D0179801D01788809A0001F6EC41
:103F700001F0012C01D003D0F1EF02F0F8D7F6ECFC
:103F800001F0012C02D03DEF04F0F4C0F6F0F6C0D1
:103F9000F7F0ECC05DF1CFEC04F0000E17BC010EA1
:103FA0000101356F366FEDC037F1E8C03BF1E7C076
:103FB0003AF1E6C039F1E5C038F1E9C03CF1000161
:103FC00055EC08F0E8C06AF1E7C069F1E6C068F1B5
:103FD000E5C067F156EC09F09D9A9D8AC00EF21279
:103FE00020EC09F001C0F4F0F4C0F6F019A00AD0FA
:103FF0000101062BD8B4072B100E006E002EFED741
:1040000000000001010104530FE0046BFBC035F117
:10401000FCC036F1FDC037F1FEC038F1FFC039F108
:104020000001FAEF13F00101312BD8B4322B2E53DB
:1040300003E02F2BD8B4302B000165EC10F001C049
:1040400035F101C05BF12EEC13F019BE0AD001016D
:10405000366BF0C035F1000166EC17F001C02DF1B0
:1040600009D00101366B010E356F000166EC17F0C7
:1040700001C02DF1C6EF19F018BCD7EF1AF0EC53C0
:10408000D8B402D0EC2DA9D201012C5302E019A61C
:1040900049D20001EE2DCDD119BEE6D00101366B1B
:1040A000F0C035F1376B7D0E1B6F1A6B5D0E1D6F07
:1040B000C00E1C6F3E0E1F6F800E1E6F1F0E216FF5
:1040C000400E206F236B226B0001F751F65D3DE03F
:1040D000179682B8178617A60CD00101245100014B
:1040E000E527010125510001E623000EE723E8231F
:1040F0000BD0010124510001E55F010125510001B0
:10410000E65B000EE75BE85B0101176B166B19536A
:1041100006E11851130803E3196B140E186F1951B7
:104120009B0809E2FF0A03E118513F0804E29C0ED4
:10413000196F400E186F050E185F000E195BF6C060
:10414000F7F024C137F12ED00001010114513208DB
:1041500029E1155327E1195306E11851130803E328
:10416000196B140E186F19519B0809E2FF0A03E13D
:1041700018513F0804E29C0E196F2C0E186F140E94
:104180001827000E192380A00DD0162BD8B4172B9A
:10419000175303E11651040805E29C0E196F400EF7
:1041A000186F376B142BD8B4152B155303E114512A
:1041B000320802E2156B146B1B51195D08E303E131
:1041C00018511A5D04E236C125F135C124F11951A7
:1041D0001B5D0EE303E118511A5D0AE31D51195DE1
:1041E00007E303E118511C5D03E2256BF0C024F1E5
:1041F00019511D5D0EE303E118511C5D0AE31F51C7
:10420000195D07E303E118511E5D03E2256BF1C060
:1042100024F119511F5D0EE303E118511E5D0AE3FD
:104220002151195D07E303E11851205D03E2256B7D
:10423000F2C024F11951215D0EE303E11851205D14
:104240000AE32351195D07E303E12251185D03E3FB
:10425000256BF3C024F1036A37C101F003C002F0FB
:1042600001C02CF1E5D000010101366B010E356F64
:10427000376B7D0E1B6F1A6B5D0E1D6FC00E1C6FB2
:104280003E0E1F6F800E1E6F1F0E216F400E206F9F
:10429000236B226B0001F751F65D3DE0179682B863
:1042A000178617A60CD0010124510001E527010152
:1042B00025510001E623000EE723E8230BD001017E
:1042C00024510001E55F010125510001E65B000E6C
:1042D000E75BE85B0101176B166B195306E1185198
:1042E000130803E3196B140E186F19519B0809E2A8
:1042F000FF0A03E118513F0804E29C0E196F400EBB
:10430000186F050E185F000E195BF6C0F7F024C198
:1043100037F12ED0000101011451320829E1155363
:1043200027E1195306E11851130803E3196B140E22
:10433000186F19519B0809E2FF0A03E118513F0861
:1043400004E29C0E196F2C0E186F140E1827000E25
:10435000192380A00DD0162BD8B4172B175303E1C7
:104360001651040805E29C0E196F400E186F376B4A
:10437000142BD8B4152B155303E11451320802E263
:10438000156B146B1B51195D08E303E118511A5D9D
:1043900004E236C125F135C124F119511B5D0EE34C
:1043A00003E118511A5D0AE31D51195D07E303E1AA
:1043B00018511C5D03E2256BF0C024F119511D5DFD
:1043C0000EE303E118511C5D0AE31F51195D07E379
:1043D00003E118511E5D03E2256BF1C024F1195170
:1043E0001F5D0EE303E118511E5D0AE32151195DC3
:1043F00007E303E11851205D03E2256BF2C024F1CD
:104400001951215D0EE303E11851205D0AE32351A8
:10441000195D07E303E12251185D03E3256BF3C047
:1044200024F1036A37C101F003C002F001C02CF18E
:104430000001EE53D8A477D019BE3BD00101366BF2
:10444000F0C035F1376B0001F751F65D04E0010E65
:1044500001012627000101012651090821E2266BEE
:10446000179682B8178617A60CD035510001E5279C
:10447000010136510001E623000EE723E8230BD0AB
:10448000010135510001E55F010136510001E65B94
:10449000000EE75BE85B010E0101376FF6C0F7F035
:1044A000036A37C101F003C002F001C02CF13AD019
:1044B00000010101366B010E356F376B0001F751BA
:1044C000F65D04E0010E01012627000101012651DD
:1044D000090821E2266B179682B8178617A60CD01A
:1044E00035510001E527010136510001E623000E98
:1044F000E723E8230BD0010135510001E55F0101FD
:1045000036510001E65B000EE75BE85B010E01013E
:10451000376FF6C0F7F0036A37C101F003C002F04D
:1045200001C02CF1000101012C5302E0326B316B10
:104530002C2D04D0270E346F100E336F2C51010830
:1045400002E2346B336B2C2D01D002D02D2D07D01D
:10455000010E2E6F306B2F6B19AE01D018803451C5
:10456000305D08E303E12F51335D04E22E6B306BC5
:104570002F6B18903251260818E2FF0A03E13151DF
:10458000100813E2000E17BC010E356F5E6FE8C015
:1045900062F1E7C061F1E6C060F1E5C05FF10001E2
:1045A00075EC0DF00101326B316B000196EC1EF0E1
:1045B000000E17BC010E0101356F366FEDC037F1EB
:1045C000E8C03BF1E7C03AF1E6C039F1E5C038F1A7
:1045D000E9C03CF1000155EC08F0EC51020844E15F
:1045E0000101356B0001F751F65D22E0010E01017A
:1045F000272727510A0815E1179682B817863553E1
:1046000008E117A603D0010E1A2602D0010E1A5E89
:1046100007D017A603D0010E1A5E02D0010E1A268B
:10462000276BF6C0F7F0010E016E05D004D0000133
:10463000000E016E010101C02CF1000196EC1EF08C
:10464000020E01015D6F0001CFEC04F0010167690A
:1046500068696C6B6B6B6A6B1AC069F16D69020EED
:104660006E6F0001FAEC05F0E8C06AF1E7C069F18D
:10467000E6C068F1E5C067F156EC09F001012C6B6A
:0C46800019A601D019960001ABD403006C
:020000040030CA
:0E0000000022060E000181000FC00FE00F402D
:00000001FF
;PIC18F452
;CRC=7B25  CREATED="07-Dec-24 10:41"
